:020000040000FA
:100000000202DF0218034100E0002202180B222244
:0100100022CD
:07001300021813E4FFE1D223
:07001B0002181B75C8012249
:030023000218239D
:03002B0002182B8D
:030033000218337D
:03003B0002183B6D
:030043000218435D
:03004B0002184B4D
:030053000218533D
:03005B0002185B2D
:030063000218631D
:03006B0002186B0D
:10007300021873BB010689828A83E0225002E722B9
:10008300BBFE02E32289828A83E49322BB010CE54F
:100093008229F582E5833AF583E0225006E9258239
:1000A300F8E622BBFE06E92582F8E222E58229F57D
:1000B30082E5833AF583E49322BB010689828A832E
:1000C300F0225002F722BBFE01F322F8BB010DE53B
:1000D3008229F582E5833AF583E8F0225006E92583
:1000E30082C8F622BBFE05E92582C8F222C5F0F8D4
:1000F300A3E028F0C5F0F8E582158270021583E0CD
:1001030038F022A3F8E0C5F025F0F0E582158270FF
:10011300021583E0C838F0E822EF2BFFEE3AFEED3C
:1001230039FDEC38FC2275F008758200EF2FFFEEE5
:1001330033FECD33CDCC33CCC58233C5829BED9A10
:10014300EC99E58298400CF582EE9BFEED9AFDEC6E
:1001530099FC0FD5F0D6E4CEFBE4CDFAE4CCF9A8B4
:100163008222B800C1B90059BA002DEC8BF084CFBC
:10017300CECDFCE5F0CBF97818EF2FFFEE33FEED93
:1001830033FDEC33FCEB33FB10D703994004EB99BD
:10019300FB0FD8E5E4F9FA227818EF2FFFEE33FED0
:1001A300ED33FDEC33FCC933C910D7059BE99A4005
:1001B30007EC9BFCE99AF90FD8E0E4C9FAE4CCFB1D
:1001C3002275F010EF2FFFEE33FEED33FDCC33CC71
:1001D300C833C810D7079BEC9AE899400AED9BFDFA
:1001E300EC9AFCE899F80FD5F0DAE4CDFBE4CCFA0D
:1001F300E4C8F922EF5BFFEE5AFEED59FDEC58FC23
:1002030022EB9FF5F0EA9E42F0E99D42F0E89C451F
:10021300F022E8600FECC313FCED13FDEE13FEEFC9
:1002230013FFD8F122E8600FEFC333FFEE33FEED87
:1002330033FDEC33FCD8F122E0FCA3E0FDA3E0FEA8
:10024300A3E0FF22E0F8A3E0F9A3E0FAA3E0FB2296
:10025300ECF0A3EDF0A3EEF0A3EFF022A8828583E8
:10026300F0D083D082120276120276120276120244
:1002730076E473E493A3C583C5F0C583C8C582C878
:10028300F0A3C583C5F0C583C8C582C822E0FBA31C
:10029300E0FAA3E0F922F8E0FBA3A3E0F925F0F0EC
:1002A300E582158270021583E0FA38F022EBF0A3A1
:1002B300EAF0A3E9F022D083D082F8E493701274B9
:1002C3000193700DA3A393F8740193F5828883E4DB
:1002D300737402936860EFA3A3A380DF75812F0279
:1002E3000855900A1951B0AE071FEE6012900A1C10
:1002F30071031176FE900A197103EE11BC80E82296
:10030300E475F0018090900A54EEF0A3EFF09000B2
:100313004FE064016002619BC3900A54E09408506B
:100323000BE4FF914F900A54918380ECE4F50DFBAD
:1003330071C4AF0C121010E50DC39408504771C27D
:10034300E50D7F0071BCEF29F9EA3EFA900A1C51D2
:10035300B07B017A0979007FFF51E5E50DFEE424C6
:10036300FFFFE43E71BC8F828E83118F9009FFF0F3
:100373007B017A097900900A3DE50DF0AD0C12106E
:1003830037050D80B2900050513BE42FFFEE340847
:10039300919490005002167F900054E0FEA3E0FF7A
:1003A30071BD900A54E0FDA3E0900A05CD120AA89E
:1003B300900054EEF0A3EFF022FE90200141907BD9
:1003C300007A00791091D175FF031176F5D375FF8B
:1003D3000390000171EF90000271EF90000371EF41
:1003E30075D40175FF03E5D55402FF22118FF5D3B0
:1003F30075FF0322900A33E0FEA3E0FF912D914F96
:10040300900A35513BEF24019191900A3551539055
:100413000A589149900A58E07002A3E0700BFF7EDE
:1004230008710991DFF01215FD2291B3CD24FFCDA0
:1004330034FFFCC3ED9FFFEC9E541FFE74082F9105
:10044300E8FF22900A1374FFF5F001F091B3541FF3
:10045300FC74082DF58274203CF583EFF0902006A0
:10046300E0B42019A3E0B40014902005E02401FFB8
:10047300902004E03400541FF0A3EFF022902006F4
:10048300E475F00101F09000CE513BEF241BFFE433
:100493003EFEE43DFDE43CFC2291C7EF2401919133
:1004A300120C867404F0D1E3918991CC91F1F0227E
:1004B300902006E0FCA3E0FD902005E02DFD9020B8
:1004C30004E03C229000CE413B900087415375FFEE
:1004D3000375D40222900A17E0FF8101900A587431
:1004E30008F0A3E422F58274203EF583E022900015
:0704F300817408F0A3E4226C
:10050800AEFFEE54CFFEEFC454F024804EF5FF2228
:10051800D119EF541FFFF1E0A37401F01215C09038
:100528000A10E0FCA3E0FDAE047805CEC313CE1399
:10053800D8F9FF900A13EEF0A3EFF0ED541FA3F0E3
:10054800A3E4F0900A33F0A3F0C3900A11E09420DA
:10055800900A10E09400407C9146900A15E0FEA3B2
:10056800E0FF900A33EE8FF011F0900A13E0700468
:10057800A3E06406700AD119900A13E48FF011F011
:10058800D119900A33E48FF011F0120DB2EF600424
:10059800F1DE8005E4900A12F0900A33120FD2704F
:1005A8001D912D900A17EFF0910191D891D8900ADA
:1005B80013E07002A3E0604791D8914680F071F78C
:1005C80071F771F7900A13E07002A3E0603171F7D8
:1005D800914680F0900A109183800A900A10E0708A
:1005E80002A3E0600BD1199101900A10914980EBA8
:1005F800120DB2EF6004F1DE8005E4900A12F0906B
:100608000A12E06002A12712166E7109900A35419C
:100618003B900081E0B4082DA3E0B40028120DA59A
:100628007B017A0179009000FD7408F0A3E4F0D111
:10063800E3120DA5E42FFFEE3408919491CCE490D9
:100648000081F0A3F0900083120E8990008351532B
:10065800900081E475F0013106FE740025F0F58202
:1006680074013EF583E0FF229000ED51539000F1B4
:1006780051B0110FF134EF6004111080F7120F7CA4
:1006880060099000ED513B7810D1D89000EDD1D49D
:100698009000ED513BE480279000F4120FD945F00B
:1006A80060219000F15190EA494B60119000F1519E
:1006B800901176FFD1DB9000F2918380DBE4FFD1CB
:1006C800DB80D5F1CD9000D77401F022513B78083A
:1006D8005115E4E5C820E2FB8FEB229000F6515358
:1006E8009000FA51B0110FF134EF6004111080F747
:0806F800F1EE120F956009906C
:1007000000F6513B7810D1D89000F6D1D49000F685
:10071000F1E99000FD120FD945F06011F1889000C9
:10072000FA5190EF11BC9000FB918380E5120EF915
:10073000E4FFE1D27F01F1D23002161212D2F18829
:10074000900A5DEFF0120EF9900A5DE020E002C21F
:1007500002300219F1779000D4EF1212DA600BA385
:10076000E0F46006EF30E702C202120EF9E4FFF196
:10077000D2A202E433FF22F1F77FD7D1DB7FFFD192
:10078000DBF18C9000D3EFF07FFFD1DBE5C820E2F6
:10079000FBAFEB22900A3E5153110FF134EF60048E
:1007A000111080F7F1EE120F956009900A3E513B4F
:1007B0007810D1D8900A3ED1D4900A3EF1E9F18860
:1007C000900A42F1CB900A42E0FF22EFF0120EF9BC
:1007D000E4FFEFB4010443FE202253FEDF22D119CF
:1007E000900A10E4F0A3EFF022513BE4C1DB7F015B
:1007F000F1D2F1F77F03229000D8E051B908190433
:10080000082114082615082B17083B300840340827
:100810004536084A3700000833531AEF851A80809E
:100820002F531BEF8008531BDF8003531B7F851B57
:1008300090801D531CDF851CA08015531DFE800D6C
:10084000531DEF8008531DBF8003531D7F851DB0CE
:100850007F0CDFFE2275FF03759E029017FAE4936A
:10086000900A51F075FF02E5E654036002419F755E
:1008700010DE7511AD7512BE7513EFC2AF75FF02B4
:1008800075E404F5E4751AFF751BFF751CFF751DF3
:10089000FF7516FF7517FF7518FF7519FF75FF02B5
:1008A00053E6BF91B6121102B108EF640160024134
:1008B0009690180893FE740193FF90007FEEF0A3CA
:1008C000EFF0F5828E83E493FE740193FFC3EE9400
:1008D00080500280047E807F008E148F159193FFDC
:1008E000F5828E83740293F51E740393F51F7404CE
:1008F00093F508740593F509740693F50A74079344
:10090000F50BC201EF4E700221F4EFF4FFEEF44F4D
:10091000700221F4E514451EFEE515451FFFE508AC
:100920004EFEE5094FFFE50A4EFEE50B4F4E700205
:1009300021F4E51FF4FFE51EF4FEE515F4FDE514D2
:10094000F44EFEED4FFFE509F4FDE508F44EFEEF31
:100950004DFFE50BF4FDE50AF44EFEEF4D4E70023F
:1009600021F47F03120508E50B24FFFFE50A712B34
:10097000640370247F02120508E50924FFFFE508DF
:10098000712BB402137F01120508E51F24FFFFE558
:100990001E712BB40102D2012001597F01120508FA
:1009A000713F900A05E51EF0E51FB1AB71207F0293
:1009B0007134900A05E508F0E509711E7F03713472
:1009C000900A05E50AF0E50B711E7F0112050890FB
:1009D0000A52E0FEA3E0FF7BFF7A187900E42515B8
:1009E000900A06F0E51434E8900A05711F4EC370B2
:1009F00001D39201300109D159EF6401600241969F
:100A0000D2001204C77B017A007964918C741BF0C8
:100A10001206E3900064E0B4800B71D3EF7006120D
:100A2000161BEF6002C20030006830011A9193F586
:100A3000828E83740C93FE740D93FF90007DE06EA4
:100A40007003A3E06F604B90005012025F0000182B
:100A5000001204C71204CCB1A5EF24011204919135
:100A6000867404F01206E390008712048C900087CD
:100A700012167F1204F1F090004F04F01205187462
:100A800040D3950C400C1203C2AF0C121010050C91
:100A900080EDE4FFB1D4E4F510F511F512F5130281
:100AA0001800E0FD900A05E4F0A3EDF0900A00EED6
:100AB000F0A3EFF0A31202B0900A05F1D945F0605F
:100AC00054900A02120290120076900A07F0900ADF
:100AD000031204837D80ED60DF7115EE7C0030E74A
:100AE000027C01900A07E05D7B0060027B01EB6CF9
:100AF000FCEF25E0FFEE33900A00F0A3EFF0AF0427
:100B0000EF600C900A00E06410F0A3E06421F0EDC7
:100B1000C313FD80C1900A00E0FEA3E0FF22A3F012
:100B200051AC900A52EEF0A3EFF022347F8F82F5A1
:100B300083E49322120508900A52E0FEA3E0FF7BB3
:100B4000FF7A80790022900000EEF0A3EFF0A3126C
:100B5000023B900008120253900006E0FFA3E090D1
:100B6000000CCF805F90000CF1D2605EC3EF944028
:100B7000EE94004006A37440F0800590000EEFF064
:100B8000919BE0FF918CEFF090000812023B12065F
:100B9000E390000EE0FFC390000DE09FF090000C8A
:100BA000E09400F090000812024790000EE4FCFD73
:100BB000FE12011C90000812025371CA919B51A2AF
:100BC000900000EEF0A3EFF0809B900000E0FEA309
:100BD000E0FF221204C79180900006E4F07405B192
:100BE000AB9175C006C0071204C7EF240712049129
:100BF0009180900006E4F0A37414F0D007D0069121
:100C000075C006C007120489918091A540067EFF39
:100C10007FFF800690006512023B900006EEF0A375
:100C2000EFF0D007D006917591A540301204C7EFC0
:100C3000241AFFE43EFEED3401FDE43CFC9180907B
:100C4000006512023BEF2401FFE43E900006F0A392
:100C5000EFF0900A56E0FEA3E0FF9175900069E086
:100C6000FEA3E0FF900A56E06E7003A3E06F7F00E2
:100C700060027FFF227146900A56EEF0A3EFF02249
:100C80009000020202537B017A0079839000FDE418
:100C9000F0A32290007FE0FEA3E0227B017A00799E
:100CA0000F90000E22E47FFF7EFFFDFC9000651296
:100CB0000247D3020204E4900A5EF0900A5EE0FF6D
:100CC000D3946F501EEF2410FFB1E6900A5EE0FE51
:100CD000E42EF582E4344FF583EFF0900A5EE004F1
:100CE000F080D87B017A4F7900900A05E4F0A37474
:100CF00070F07F0F7E1D51ACEF4E7F0070027F01C0
:100D0000901218EFF024FF22E49000D2F07B017AD9
:100D10000079BD1213429000BFE0FF7411D39F50C1
:100D20005DE4FFFEFDFC7B017A0A794F9000FDF047
:100D3000A37402F01206E3900A4FE0FEA3E0FFE482
:100D4000FCFDB19F1204C7EF2402120491B19F125F
:100D500015619000CE1202471201F7900A4DEEF095
:100D6000A3EFF09000CE120247900A4D12154FFEED
:100D7000E4FCFD12011CB19F9000D27401F09000C0
:100D8000D2E0FB6017E4FFFE7D02FC9000BFE02490
:100D9000EFF9F81202289000B7120253AF03229025
:100DA00000CE02025390008702023BA3F07F0F7E29
:100DB0001D22E4FFFEFDFC90008391AF7F00400206
:100DC0007F01227F0F7E1D51A4900A0C1202909089
:100DD0000A0F41A2AB07E4FF9000D2E06007D18682
:100DE000D19DE433FF2275FF03E4F597F1E7E59722
:100DF00020E1FB75FF03AF9922900A48EFF0A3EDC5
:100E0000F0A31202B0900A49E06046901218E06028
:100E100012900A48E02410FFB1E6900A4A120290AC
:100E2000EF8017900A48E06401900A4A70071202A6
:100E3000907480800512029074FF1200BC900A4BDF
:100E4000120483900A49E014F0900A48E004F0800C
:100E5000B4227D01B1F97B0122E49000FFF0900003
:100E6000D2E0601C9000B712023BE4FBFA7902F872
:100E7000D3120204500AD1861207949000FFEFF0BB
:100E80009000FFE0FF229000CE12023BEF24FFFF14
:100E9000EE34FFFEED34FFFDEC34FFFC22900A47F8
:100EA000EBF0900A43120253900A4312023B1207DE
:100EB00094900A47E06F603C12000F120734EF6015
:100EC0000512001080F5F17C600B900A4312023B82
:100ED00078101206D8900A431206D4900A431207DB
:100EE000E9900A47E0FF1206DB1207CD9000D774A5
:100EF00001F0D322C3221206DBF1CCEF70FB90008D
:100F0000DAE0F4600A900A5A7406F0F17470FC900A
:100F100000D8E01202B90F32040F3A140F3F150F38
:100F200044170F54300F59340F5E360F63370000EB
:100F30000F4C431A10851A80802F431B10800843E2
:100F40001B208003431B80851B90801D431C208534
:100F50001CA08015431D01800D431D108008431DFA
:100F6000408003431D80851DB0900A5A740CF0F137
:100F70007470FC22900A5AE014F0E0227F011207FC
:100F8000D2D2021207F77F061206DBD1F91207F759
:100F90009000D6E0FF1206DB9000D9E06402221236
:100FA000000F120734EF600512001080F57F011268
:100FB00007D2D2021207F77F06D1F61207F77F0198
:100FC0001206DB7F03D1F6E4FF0207D2E5C8540422
:100FD000FF22E0FEA3E0FF4E2274FFF5F0020106BF
:100FE000AB05E4FCFDC19D75FF038F9875FF0322DF
:100FF00075FF03759701F1E7E59720E1FB75FF03A6
:10100000AF99221204D175FF03E5D5F45402FF22F3
:1010100075FF03EF543F4480F5D1E5D520E20AE5A2
:10102000D520E005E5D530E1F1E5D55403FF75FFA6
:101030000375D5050204D175FF03ACD5EC20E13C66
:1010400075FF03ED543FF5D175FF03E9F5D375FF47
:1010500003EA540FFF900A3DE0C4547044804FF5FA
:10106000D2E5D520E205E5D530E0F6E5D55401FC22
:1010700075FF0343D40275FF0375D505AF04227FC6
:10108000011207D2900A5B7401F0900A5BE06032B3
:1010900051D2120788900A5BEFF0120EF91207770F
:1010A0009000D4EFF0120EF9900A5BE0540151DA8F
:1010B00060D8A3E0F460D3EF30E7CFE4900A5BF0B0
:1010C00080C81207F77F9F1206DB1207889000D5B1
:1010D0001207869000DA1207869000DB1207CB9089
:1010E00000D3E0F4601BA3E0F460169000DAE0FDAA
:1010F000541F240FA3F0EDC413540744809000DA6A
:10110000F0227B017A0079D87F03120E527A00799F
:10111000E17F08120E527A0079DE7D027F09120DFE
:10112000F97B017A0079DC7D027F0B120DF99000CA
:10113000DC120FD26006BEFF1BBFFF189000E1E07B
:1011400024FD600304700451C880099000DCE4F0C1
:10115000A37440F09000E1E024FD60030470089067
:1011600000D97403F080069000D97402F09000D882
:10117000E01202B9119004119B1411A31511AB17C1
:1011800011C13011C93411D13611D937000011B64F
:1011900075FF015316EF8516FD804775FF01531744
:1011A000EF800E75FF015317DF800675FF0153179F
:1011B0007F8517C9802C75FF015318DF8518CA80F9
:1011C0002175FF015319FE801675FF015319EF8039
:1011D0000E75FF015319BF800675FF0153197F85F6
:1011E00019CB120EF97F1151BAE4FF7109117F90EA
:1011F00000D67402F09000DAE0247F6009047015D4
:1012000051C0740A800651E251C07458F09000D960
:101210007403F051C89000DBE0F4600241B7900025
:10122000DEE0FEA3E0FF64104E70069000DB740E5B
:10123000F0EF64204E70069000DB740FF0EF644016
:101240004E70069000DB7410F0EF64804E700690D4
:1012500000DB7411F0E4B5070AEEB401069000DB80
:101260007412F0E4B5070AEEB402069000DB7413C2
:10127000F0E4B5070AEEB404069000DB7414F0E461
:10128000B5070AEEB408069000DB7415F0E4B50764
:101290000AEEB410069000DB7416F0E4B5070AEE0F
:1012A000B420069000DB7417F0E4B5070AEEB440F2
:1012B000069000DB7418F0020F9FEF4420F5FE2229
:1012C0007F1051BA9000D6229000DC7401F0A3E4A4
:1012D000F0221207F77F050206DBF09000D3E0FF53
:1012E000F4229000D3E020E01F7F011207D2120702
:1012F000F77F3D1206DB7F2A1206DB7F801206DBBA
:101300007FA61206DB1207CD22900A5CEFF0900058
:10131000E1E06402702B7F011207D21207F7900AF6
:101320005CE07FAB60027FB91206DB120EF9900A17
:101330005CE09000E0F070047F1EDFFEE4FF120727
:10134000D2229000D5E01200BC9000DAE0900001BB
:101350001200CE9000DBE09000020200CEE4FCFD23
:10136000020794900A2F717FC007900A2F120290F3
:10137000900A32E0FF120C8CEFF0D0070206E31265
:1013800002B0E4FCFD22900A28717FC007900A2871
:10139000120290900A2BB122D00790008F120253B4
:1013A0009000931202B0E49000B6F0D3900097E062
:1013B000941E900096E094004001227B017A00790F
:1013C00098900096E0FFA3E09000FDCFF0A3EFF02F
:1013D00090008F12023B1206E3900093120290E9F4
:1013E0004A600F9000B6E0F58275830012008FFF0F
:1013F00080027F009000B6E02498F582E43400F586
:1014000083E06F6002C3229000B6E004FFF0D39047
:101410000097E09F900096E0940050BD229000E27B
:101420001202539000E61202B0B1139000E9B1220B
:101430009000E212023B719A500281CCB16190009F
:10144000E21202471201F79000EBEEF0A3EFF04E2C
:1014500060319000EBB14FFE9000EBF0A3EFF09005
:1014600000E9E0FCA3E0FDD39FEC9E5006A3ECF066
:10147000A3EDF091CEE94A6004B11980427E007F6D
:1014800000803C9000E9120FD2603F9000DCE0FC4D
:10149000A3E0FDD3EF9DEE9C400A9000EBECF0A39F
:1014A000EDF0800D9000E9E0FFA3E0A3CFF0A3EF03
:1014B000F091CEE94A6004B11980047E007F00906B
:1014C00000E7EE8FF01200F080B9D322C322900023
:1014D000E61202909000EBE0FFA3E09000F4CFF062
:1014E000A3EFF09000E212023B1206709000EBE0D6
:1014F000FEA3E0FFC39000EAE09FF09000E9E09EC9
:10150000F09000E2120247E4FCFD12011C9000E2A0
:101510001202539000E60202909000EBE0FEA3E07E
:10152000FF22E0FFA3E0900096CFF0A3EFF022901F
:101530000A21717FC007900A21120290900A24E0CC
:10154000FFA3E09000E9CFF0A3EFF0D007811DE00A
:10155000FEA3E0FFC39000DDE09FFF9000DCE09E73
:10156000229000DDE024FFFF9000DCE034FFFEE489
:10157000FCFD2212000F120734EF600512001080EC
:10158000F5229000D7E0FF22E49000D7F0229012DD
:1015900018E024FF22901218E060057F10020DE68B
:1015A0007FFF22E4902004F0A3F0A3F0A3F07B01DE
:1015B0007A2079089020011202B0E4902000F022F5
:1015C0001204DFF0900A3512025F0000000080D3A1
:1015D000902004E0FEA3E0FF24081204E8FDEF24BD
:1015E00001FFE43E541F902004F0A3EFF0A3120487
:1015F00049AF0522902006E0FEA3E0FF22902000E4
:10160000E0045403F07F0033333354F8FEEF240832
:10161000F974203EFA7B01A30202B0900054741DBD
:10162000F0A3740FF012049CE490004FF012051820
:1016300090006BE0FEA3E0FF900054E06E7003A307
:10164000E06F7F0060027FFF22EFB40109D2AD7529
:10165000FF0143AE4022C2AD75FF0153AEBF22E58C
:10166000C85402FF75C80222E5C85401FF22900A3F
:1016700058E0FEA3E0FFC3E49FFF74089EFE221221
:101680000253E4FB7A08F9F890005012023B120171
:04169000658F0C2234
:1017FA00043DFFFCFFFF02184E0272361BD37FB86E
:10180A00822D1C1613111010FF02725A5A2D57619D
:10181A00766520342E363100FF026C5C61C36209A2
:10182A00FF02586F556E6B6E6F776E206576656E28
:10183A00743A20000A002C0020001C7D1C821C87A0
:10184A00FF02520D7581B075FF03759E02121920B1
:10185A000240370231AA902A3CE47E019360F4A345
:10186A00FF543F30E509541FFEE493A360010ECFF5
:10187A0054E0B4E00EEFFAEEF9A3A3A3A3DAFDD97C
:10188A00FB80D654C025E0604B5026E493A3F8545D
:10189A0007240CC8C333C4540F4420C8834004F43B
:1018AA0056800146F6DFE480B001020408102040A9
:1018BA0080E493A3FAE493A3F8E493A3C8C582C887
:1018CA00CAC583CAF0A3C8C582C8CAC583CADFE924
:1018DA00DEE78085E493A3F8E493A34003F680014E
:1018EA00F208DFF40218631958195D1985198A1963
:1018FA008F643164F2FFC0707419C0E0C082C08383
:10190A0075700AE5FF54CF4490F5FF22C070741930
:10191A00C0E0C082C083757020E5FF54CF4490F5C3
:10192A00FF22C0707419C0E0C082C083757036E5AA
:10193A00FF54CF44A0F5FF22C0707419C0E0C082E2
:10194A00C08375704CE5FF54CF44B0F5FF229081F7
:10195A00AA211690880521169098122116909FFCAC
:10196A00211690A036211690CCA82116909E85218A
:10197A001690CC322116908B91211690D03F2116C9
:10198A0090D0572116909C07211690D7FA211690CD
:10199A00AD0F211690D843211690C9E3211690C3A2
:1019AA00C3211690E7FC211690E819211690E81F2A
:1019BA00211690E8522116909D81211690A39A2112
:1019CA001690E945211690EF73211690EF402116E3
:1019DA0090CFA2211690EFB7211690CF92211690A0
:1019EA00EFF0211690EDC3211690EDDB211690D170
:1019FA0014211690EA13211690E98D211690EAAC6B
:101A0A00211690D478211690EA5B211690A17A21AA
:101A1A001690EEE4211690D9E0211690EF8B21164C
:101A2A0090F0C7211690F10C211690F12A211690F8
:101A3A00F175211690F24B211690F1BC211690F205
:101A4A0072211690ABD0211690D95C211690CA7DCE
:101A5A00211690883F211690D98A211690F2CA2120
:101A6A001690F2FC211690CFC7211690D754211652
:101A7A0090D7BA211690D4F0211690DA49211690FF
:101A8A00D7A7211690F308211690EB9C211690EB0C
:101A9A0085211690ECE8211690F32B211690F390ED
:101AAA00211690F32C211690EBBA211690EC3B21CB
:101ABA001690EC33211690F3A0211690F33F2116CD
:101ACA0090F3B9211690F3BF211690F3C521169011
:101ADA00F3CB211690EB352116908645211690837B
:101AEA002E21169081D7211690E7AB211690E10599
:101AFA00211690DBBD211690DA59211690F3E521C3
:101B0A001690DAA5211690D38C211690D30E2116A1
:101B1A0090D83D211690F3FA211690BAEC2116902E
:101B2A00F402211690BB6C211690BA4C211690E350
:101B3A0072211690E21A211690DFDF211690D6AB99
:101B4A00211690F45A211690F4DB211690F4912173
:101B5A001690DF74211690F53B211690E076211637
:101B6A0090809721169080FB211690800021169074
:101B7A00815F211690C7EA21429082E1214290CAF0
:101B8A0041214290C145214290C190214290A7D45F
:101B9A0021429080A1214290B045214290AE572126
:101BAA00429080B021429081C521429082A1214277
:101BBA0090CA90214290CAC8214290CAD821429024
:101BCA00CBB0214290AAF0214290D234214290997E
:101BDA0060214290C3502142908369214290D7DD0F
:101BEA00214290BD24214290C0F9214290C0AE21E9
:061BFA0042908B582142CD
:101C000090ADB2214290D962214290D9C121429037
:101C1000AFEE214290D9FC214290DA4B21429096BE
:101C20001221429080002142908097214290DA61F7
:101C3000214290DA73214290DA88214290D4DA214D
:101C400042908727214290D6512142908789214294
:101C500090DC4B214290DC67214290DDC021429014
:101C6000DDFC214290D46921429081FE214290D531
:101C700044214290D1A0214290879A214290DE4F88
:101C8000214290DED9214290A36A214290DE922126
:101C90004290D272214290C57B2142909B72214298
:101CA00090C261214290D07A214290D67421429014
:101CB000D67C214290DF74214290C7DE214290C041
:101CC000A6214290DFA0214290DFBC214290C09328
:101CD000214290976A214290D662214290D65621A5
:101CE0004290C099214290D65C214290C5992142F0
:101CF000909E3C214290CAF3214290CA0621429014
:101D0000C9EA214290CBDB214290DBC4214290837F
:101D10001F214290A523214290E368214290E502D1
:101D2000214290DC07214290B50A214290E57221C0
:101D30004290BE402142908318214290E40E2142FD
:101D400090E5C1214290E6AE214290BE2221429010
:101D5000C09F214290E6B7214290DEFE2142909D35
:101D600044214290E6CB214290E710214290A2F715
:101D7000214290E7C3214290DC8A214290D6CE21B5
:101D80004290E7D9214290E7DC214290A1722142A2
:101D900090E811214290AD052142908B062142909E
:101DA0008A482142908A3A214290C0EC214290C058
:101DB000D92142908A13214290ADBF214290B13C7B
:101DC0002142908BD2214290A857212C90A85821D3
:101DD0002C908ADC212C90AB9A212C90AB9B212C4F
:101DE000908000212C90B263212C90B276212C900F
:101DF000B27B212C90B960212C90B96F212C908658
:101E00003A212C90A249212C909024212C90BF683B
:101E1000212C9086D0212C90C177212C90C2C621F4
:101E20002C90C41A212C90C356212C90AAB1212C9D
:101E300090C554212C90C642212C909027212C90A3
:101E4000DA5F212C90DA66212C90B245212C90E0AB
:101E500039212C90E063212C90E085212C90E0A585
:101E6000212C90E4D2212C90E53C212C90E6862177
:101E70002C90E6FB212C90E701212C90B9F3212C2A
:101E800090EA6A212C90EB6F212C90C3FD212C90BD
:101E9000EB9D212C90EC0E212C90BF46212C90EC38
:101EA00075212C90ECCA212C90DF18212C90BEB803
:101EB000212C90ECA3212C908D42212C908CE92197
:101EC0002C90BED4212C90BEAD212C90EF13212C50
:101ED00000E709F608DFFA8046E709F208DFFA8032
:101EE0003E88828C83E709F0A3DFFA8032E309F6AB
:101EF00008DFFA8078E309F208DFFA807088828CC4
:101F000083E309F0A3DFFA806489828A83E0A3F681
:101F100008DFFA805889828A83E0A3F208DFFA801A
:101F20004C80D280FA80C680D4806980F280338071
:101F30001080A680EA809A80A880DA80E280CA8039
:101F40003389828A83ECFAE493A3C8C582C8CCC5DE
:101F500083CCF0A3C8C582C8CCC583CCDFE9DEE75B
:101F6000800D89828A83E493A3F608DFF9ECFAA94D
:101F7000F0EDFB2289828A83ECFAE0A3C8C582C80F
:101F8000CCC583CCF0A3C8C582C8CCC583CCDFEA5E
:101F9000DEE880DB89828A83E493A3F208DFF9809C
:101FA000CC88F0EF60010E4E60C388F0ED2402B4DF
:101FB000040050B9F582EB2402B4040050AF23238F
:101FC000458223901F2173BB010689828A83E02208
:101FD0005002E722BBFE02E32289828A83E4932235
:101FE000BB010B89828A83F8E0C828F0E8225003FD
:101FF00027C722BBFE07F8E3C828F3E8228A8389B3
:1020000082E49322BB010CE58229F582E5833AF54F
:1020100083E0225006E92582F8E622BBFE06E92588
:1020200082F8E222E58229F582E5833AF583E4939A
:1020300022BB010989828A83F8E028F02250032715
:10204000F722BBFE05F8E328F3228A838982F8E4AD
:10205000932822BB010FF8E58229F582E5833AF542
:1020600083E028F0225009C58229F8E58226F6226D
:10207000BBFE09C58229F8E22582F222F8EA25830F
:10208000F583E9932822BB010689828A83F02250D6
:1020900002F722BBFE01F322F8BB010DE58229F510
:1020A00082E5833AF583E8F0225006E92582C8F6F6
:1020B00022BBFE05E92582C8F222EF8DF0A4A8F02C
:1020C000CF8CF0A428CE8DF0A42EFE22BC000BBE37
:1020D0000029EF8DF084FFADF022E4CCF875F00814
:1020E000EF2FFFEE33FEEC33FCEE9DEC984005FC49
:1020F000EE9DFE0FD5F0E9E4CEFD22EDF8F5F0EE11
:102100008420D21CFEADF075F008EF2FFFED33FDFB
:102110004007985006D5F0F222C398FD0FD5F0EA9B
:1021200022C2D5EC30E709B2D5E4C39DFDE49CFCA6
:10213000EE30E715B2D5E4C39FFFE49EFE1220CC3B
:10214000C3E49DFDE49CFC80031220CC30D507C382
:10215000E49FFFE49EFE22C5F0F8A3E028F0C5F05E
:10216000F8E582158270021583E038F022A3F8E0CA
:10217000C5F025F0F0E582158270021583E0C838BD
:10218000F0E822BB010A89828A83E0F5F0A3E0220D
:10219000500687F009E71922BBFE07E3F5F009E3D3
:1021A000192289828A83E493F5F074019322BB019A
:1021B00010E58229F582E5833AF583E0F5F0A3E0A6
:1021C000225009E92582F886F008E622BBFE0AE9DA
:1021D0002582F8E2F5F008E222E5832AF583E99307
:1021E000F5F0A3E99322BB010DC58229C582C58301
:1021F0003AC5830221575011C58229F808E5F02617
:10220000F618F5F0E58236F622BBFE11C58229F8F4
:1022100008E225F0F5F0F218E23582F222F8E582C4
:1022200029F582E5832AF58374019325F0F5F0E41E
:10223000933822BB010A89828A83F0E5F0A3F02259
:102240005006F709A7F01922BBFE06F3E5F009F3E3
:102250001922F8BB0111E58229F582E5833AF5835D
:10226000E8F0E5F0A3F0225009E92582C8F608A6B7
:10227000F022BBFE09E92582C8F2E5F008F222EF60
:102280002BFFEE3AFEED39FDEC38FC22C3EF9BFF4D
:10229000EE9AFEED99FDEC98FC22E88FF0A4CC8B31
:1022A000F0A42CFCE98EF0A42CFC8AF0EDA42CFC0C
:1022B000EA8EF0A4CDA8F08BF0A42DCC3825F0FD4B
:1022C000E98FF0A42CCD35F0FCEB8EF0A4FEA9F044
:1022D000EB8FF0A4CFC5F02ECD39FEE43CFCEAA490
:1022E0002DCE35F0FDE43CFC2275F008758200EF40
:1022F0002FFFEE33FECD33CDCC33CCC58233C58238
:102300009BED9AEC99E58298400CF582EE9BFEEDF0
:102310009AFDEC99FC0FD5F0D6E4CEFBE4CDFAE4BF
:10232000CCF9A88222B800C1B90059BA002DEC8BB3
:10233000F084CFCECDFCE5F0CBF97818EF2FFFEE8F
:1023400033FEED33FDEC33FCEB33FB10D703994048
:1023500004EB99FB0FD8E5E4F9FA227818EF2FFF88
:10236000EE33FEED33FDEC33FCC933C910D7059BCA
:10237000E99A4007EC9BFCE99AF90FD8E0E4C9FA26
:10238000E4CCFB2275F010EF2FFFEE33FEED33FDB2
:10239000CC33CCC833C810D7079BEC9AE899400AD5
:1023A000ED9BFDEC9AFCE899F80FD5F0DAE4CDFB53
:1023B000E4CCFAE4C8F922EF5BFFEE5AFEED59FDDA
:1023C000EC58FC22C3E49FFFE49EFEE49DFDE49CE8
:1023D000FC22EB9FF5F0EA9E42F0E99D42F0EC64AE
:1023E00080C864809845F022EB9FF5F0EA9E42F0A9
:1023F000E99D42F0E89C45F022E8600FECC313FC35
:10240000ED13FDEE13FEEF13FFD8F122E8600FEF9E
:10241000C333FFEE33FEED33FDEC33FCD8F122BBCA
:10242000010789828A830224AD5005E9F802298CCC
:10243000BBFE05E9F802299889828A830224B9BB88
:10244000010DE58229F582E5833AF5830224AD503A
:1024500007E92582F802298CBBFE07E92582F802EC
:102460002998E58229F582E5833AF5830224B9BBF0
:10247000010789828A8302253A5005E9F80229CEAC
:10248000BBFE05E9F80229DA22BB010DE58229F538
:1024900082E5833AF58302253A5007E92582F8025E
:1024A00029CEBBFE07E92582F80229DA22E0FCA347
:1024B000E0FDA3E0FEA3E0FF22E493FC740193FDA2
:1024C000740293FE740393FF22E0F8A3E0F9A3E003
:1024D000FAA3E0FB22BB010DE58229F582E5833AF0
:1024E000F5830224C95007E92582F80229A4BBFE1E
:1024F00007E92582F80229B1E58229F582E5833AC8
:10250000F5830229BE7401FF3395E0FEFDFCA3A311
:10251000A3E02FFFF0E582158270021583E03EFEF6
:10252000F0E582158270021583E03DFDF0E582152D
:102530008270021583E03CFCF022ECF0A3EDF0A3E6
:10254000EEF0A3EFF022A8828583F0D083D0821230
:10255000255D12255D12255D12255DE473E493A3CC
:10256000C583C5F0C583C8C582C8F0A3C583C5F0BF
:10257000C583C8C582C822BB010789828A83022518
:10258000465005E9F80229E6BBFE05E9F80229FFF5
:1025900022BB010DE58229F582E5833AF583022508
:1025A000465007E92582F80229E6BBFE07E92582A5
:1025B000F80229FF22F5F0C582A4C582C5F0C583C3
:1025C000A42583F58322A42582F582E5F03583F5E1
:1025D0008322E0FBA3E0FAA3E0F922F8E0FBA3A347
:1025E000E0F925F0F0E582158270021583E0FA38F3
:1025F000F022EBF0A3EAF0A3E9F022E493FB7401EC
:1026000093FA740293F922BB010789828A83022517
:10261000D25005E9F8022A18BBFE05E9F8022A2A79
:1026200089828A830225FBBB011A89828A83D0F0C2
:10263000D0E0F8D0E0F9D0E0FAD0E0FBE8C0E0C0AC
:10264000F00225F25016E9F8D083D082D0E0F9D01C
:10265000E0FAD0E0FBC082C083022A21BBFE16E96B
:10266000F8D083D082D0E0F9D0E0FAD0E0FBC0828D
:10267000C083022A3322BB010DE58229F582E5835E
:102680003AF5830225D25007E92582F8022A18BBC1
:10269000FE07E92582F8022A2AE58229F582E583E8
:1026A0003AF5830225FBBB0120E58229F582E5830B
:1026B0003AF583D0F0D0E0F8D0E0F9D0E0FAD0E0FD
:1026C000FBE8C0E0C0F00225F25018E92582F8D0FE
:1026D00083D082D0E0F9D0E0FAD0E0FBC082C083A2
:1026E000022A21BBFE18E92582F8D083D082D0E0EF
:1026F000F9D0E0FAD0E0FBC082C083022A3322D0B6
:1027000083D082F8E4937012740193700DA3A393A5
:10271000F8740193F5828883E4737402936860EF20
:10272000A3A3A380DFD083D082E4937012740193BB
:10273000700DA3A393F8740193F5828883E47374F6
:1027400002936C70127403936D700C7404936E702A
:10275000067405936F60DDA3A3A3A3A3A380CA8A15
:10276000838982E473E56B2582F582E56A3583F51A
:1027700083B56A0485826B2210AF0685826BF56A89
:102780002285826BF56AD2AF22EC8EF0A4CCC5F024
:10279000CCCDF8EFA4CEC5F02DFDE43CFCE8A42E92
:1027A000C8C5F03DFDE43CFCEFA4FFE5F028FEE4E5
:1027B0003DFDE43CFC22E3F5F009E208B5F06BDFF7
:1027C000F58067E3F5F009E608B5F05EDFF5805ABD
:1027D00087F009E608B5F052DFF6804E87F009E28F
:1027E00008B5F046DFF6804288828C8387F009E0E6
:1027F000A3B5F036DFF6803288828C8387F009E457
:1028000093A3B5F025DFF5802188828C83E3F5F072
:1028100009E0A3B5F014DFF5801088828C83E3F51E
:10282000F009E493A3B5F002DFF40228E580878085
:10283000E9809080D4803E8015806E807E809D806F
:10284000B7808D80A380518074803C0228F18982FA
:102850008A83ECFAE493F5F0A3C8C582C8CCC5839B
:10286000CCE493A3C8C582C8CCC583CCB5F076DFD1
:10287000E3DEE1807089828A83E493F5F0A3E208C5
:10288000B5F062DFF4805E89828A83E0F5F0A3E62A
:1028900008B5F051DFF5804D89828A83E0F5F0A319
:1028A000E208B5F040DFF5803C89828A83E493F545
:1028B000F0A3E608B5F02EDFF4802A800280578965
:1028C000828A83ECFAE493F5F0A3C8C582C8CCC52C
:1028D00083CCE0A3C8C582C8CCC583CCB5F006DFE5
:1028E000E4DEE280007FFFB5F0020F2240027F01AC
:1028F0002289828A83ECFAE0F5F0A3C8C582C8CCAD
:10290000C583CCE0A3C8C582C8CCC583CCB5F0D5FF
:10291000DFE5DEE380CF89828A83ECFAE0F5F0A37D
:10292000C8C582C8CCC583CCE493A3C8C582C8CC33
:10293000C583CCB5F0AFDFE4DEE280A988F0EF60BC
:10294000010E4E60ABED2402B404005098F582EB0A
:102950002402B40400508E232345822390282D7333
:10296000EF4E6012EF60010EEDBB010B89828A838E
:10297000F0A3DFFCDEFA2289F05007F709DFFCA99B
:10298000F022BBFEFCF309DFFCA9F022E6FC08E61E
:10299000FD08E6FE08E6FF22E2FC08E2FD08E2FE92
:1029A00008E2FF22E6FB08E6F908E6FA08E6CBF8BB
:1029B00022E2FB08E2F908E2FA08E2CBF822E4930B
:1029C000F8740193F9740293FA740393FB22ECF602
:1029D00008EDF608EEF608EFF622ECF208EDF20844
:1029E000EEF208EFF222D083D082E493F60874016D
:1029F00093F608740293F608740393F6740473D084
:102A000083D082E493F208740193F208740293F283
:102A100008740393F2740473E6FB08E6FA08E6F917
:102A200022EBF608EAF608E9F622E2FB08E2FA08E9
:102A3000E2F922EBF208EAF208E9F2224103F4009B
:102A40004103F300E00202000014F5E0020200027C
:102A5000120EE00102000954E00102000AA5E0059F
:102A600002120B120E02043D4106E306015600411C
:102A700006E2014106E001C116015B000159004375
:102A80003B83000000423B81000041420400E00221
:102A900002121001B0E00102121200E001021293D2
:102AA00000E0050213BB01B006043DC119C10A4193
:102AB00030DE00413158FF41315000C109C10841A9
:102AC00031590041315A0041315101C10C4130DDD1
:102AD000004149E500C137433F2F000000413F2E30
:102AE00000413F32004303EA0000004303E70103D3
:102AF000EA423326980743471E00000043471B0164
:102B0000471E4148F4024148F30D4148F508602052
:102B10003A7242DB010000000000000000000000EB
:102B200000000000000000000000000000000000A5
:102B3000000060203A920900000000000000000040
:102B40000000000000000000000000000000000085
:102B5000000000000000503DDB000000000000000D
:102B6000000000000000000000C110011800C10DAD
:102B7000C10EC11AC11CC11F42238C984041238E33
:102B8000006020234B000000000000000000000057
:102B90000000000000000000000000000000000035
:102BA00000000000004320009F01005020030000AF
:102BB0000000000000000000000000000001612291
:102BC0002606000201050101020E060101000407AC
:102BD00004010203000004000608050402080314AF
:102BE000040004001405010809080502080314057F
:102BF0000004001405000600140802020A0A080274
:102C0000030100080004001408000600140801086D
:102C100000140A020D000A0A020C000A0A02080B3C
:102C20000A0A01050C0E0A000400140A000600142A
:102C30000A010800140E000A0D110E020804140EF9
:102C4000000400140E000600140E010800140E010A
:102C500005001411000C0C0E1102080414110004DC
:102C600000141100060014110108001411010500E0
:102C70001411000A00141102050E121202080414A5
:102C800012020C0F001200040014120006001412AD
:102C900001080014120105001412000A00141202A7
:102CA00005001412000C001413020C0100000209AC
:102CB000000000020F0000140209010014020B00C2
:102CC00013140007100014020A0100140204001477
:102CD00014020C001414020D010014020E0014144E
:102CE000020F0100602428110200FFFF0602FF000E
:102CF0000602FF000301FF002300FFFF03000000A6
:102D000013000000020001010300000046276801D3
:102D100000020104024227EE1D40412A6900412CB5
:102D20000301412A6F00432A6C012A2A432A6001C9
:102D30002A2A410A2500602008BBEDFFFFFFFFFFA4
:102D4000FFFFFFFFFFFFFFFFFFFFFFFFFFFFFFFF93
:102D5000FFFFFFFFFFFFFFFFFF7F4F2D66FF335891
:102D600011FF336904FF336D0D031004492C064C29
:102D70006966656C696E65004C2D81455020312077
:102D8000737769746368004C2D8E45502032207330
:102D90007769746368004C2D9A455020332064692C
:102DA0006D6D657200602A2D351001FF337A07FFC3
:102DB000338103FF3384061001FF337A07FF338129
:102DC00003FF3384061101FF338A07FF339103FFAA
:102DD000339406432D5F030000442D3071055A01E2
:102DE000422C0F7105608A2C9D71087105616C6120
:102DF000726D2045502031000000000000000000EE
:102E000000000000000000000000000000000000C2
:102E10000000000000000071087105616C61726DB6
:102E2000204550203200000000000000000000009B
:102E30000000000000000000000000000000000092
:102E4000000000000071087105616C61726D204521
:102E500050203300000000000000000000000000CF
:102E60000000000000000000000000000000000062
:102E7000000000602E2C1271087105616C61726D8A
:102E8000204550203100000000000000000000003C
:102E90000000000000000000000000000000000032
:102EA0000000000000602E2C4071087105616C610B
:102EB000726D20455020320000000000000000002C
:102EC0000000000000000000000000000000000002
:102ED00000000000000000602E2C6E71087105617A
:102EE0006C61726D2045502033000000000000002E
:102EF00000000000000000000000000000000000D2
:102F00000000000000000000004C2D7507000700C5
:102F10000700070006000600412DA700412D3420C0
:102F2000412C0501412C04FFC13C412C1100492DCD
:102F300027020102030202040302412C9C03412DDB
:102F40008D08E0020213C00121E0030214D8FFFF44
:102F5000FFE0050214DC0121040132E0020214E169
:102F60000013E00C0214E30000030B0003000B014C
:102F700032043DE0050214EF0013FF0132E00202CB
:102F800014F4000044419E000000004241A60000ED
:102F90004441A20710223246419860666A6E7276FA
:102FA000413E1E00413E1B0043489A00000041483C
:102FB0009900C1444146CDFF4146CB04C1C54146BD
:102FC000C8004146CC004146C9FF432EEB0000003B
:102FD000412DA800412F1D01C149423EDE000041A4
:102FE0003EDD00C14F4141B5004141B0004141A823
:102FF000004141B1004141B4004141AB004241A90F
:1030000000004241B6000043434E00000041434CE3
:1030100000414351004448A100000000C151413C1F
:103020007A00413E57285B3E3B0000000000000054
:103030000000000000000000000000000000000090
:1030400000000000C155413C7900503C05000000E3
:1030500000000000000000000000000000453C15DA
:103060000001020480473B8F000000000000004385
:103070003B8C0000004143610141436900414365CD
:1030800000414364004143680042436600004243FC
:1030900062000041435E00413D6E00C1594C436AED
:1030A000100000000000110000000000C15C410899
:1030B000F720C15E00726573657400637361004739
:1030C0006F7420697421006C6D73006C6D650077FE
:1030D0006472005A57005A57206170703A0D0A0006
:1030E000204669726D776172652049443A20000D6F
:1030F0000A2056657273696F6E3A200054797065C4
:1031000020276120637361203C3130206469676946
:1031100074206B65793E2720616E64207072657340
:103120007320456E7465722E003E20001E0D1E1227
:10313000C2D5E830E70FB2D5E4C39BFBE49AFAE4CA
:1031400099F9E498F8EC30E717B2D51231661223FA
:1031500025E4C39BFBE49AFAE499F9E498F8800328
:1031600012232530D50DE4C39FFFE49EFEE49DFDB0
:10317000E49CFC2278B0E4F6D8FD9000007F007E4D
:1031800010E4F0A3DFFCDEFA904A1DA3E583C394AC
:10319000204011FEAF829020000E0FE48002F0A3C9
:1031A000DFFCDEFA12192002186022325A43425F15
:1031B000746573745F696E746572666163655F7070
:1031C0006F6C6C000D0A4368616E6E656C732061F4
:1031D00072653A000D0A09203E001ECB4170704511
:1031E000765363686564756C6572001E491E4E1ED9
:1031F000531E58EF9031FC93901900730A20364CFF
:10320000E570FF22EFF570220000010000000017BA
:103210000600000000180600000006180600000066
:103220000118060000000818060000000101010056
:103230000000011500000000010204000000010B65
:1032400004000000060B04000000080B040000004E
:10325000010D00000000010E04000000011000003C
:103260000000010F0000000004050100000004063A
:10327000060000000407080000000205000000002E
:10328000030501000000010805000000000800001F
:103290000000010C010000000112050000000803FD
:1032A00002000000012200000000081608000000D3
:1032B00008080000000001160100000006160100C9
:1032C0000000050903000000050A000000000503D6
:1032D00002000000050400000000061B06000000BC
:1032E000011B06000000061C07000000061D070069
:1032F0000000070508000000081E07000000082065
:1033000000000000081F000000000821000000006D
:10331000081106000000011106000000082200004C
:103320000000061906000000061E0000000006202E
:1033300000000000061A080000000614010000004A
:10334000071401000000081B06000000072400000D
:1033500000000814010000005E2526858E59715575
:1033600086725A73989F606C7A5E55989F86252660
:1033700071858E5960725A736C7A5E2585598E718B
:103380006C5E989F2585598E716C5E2685598E716D
:103390006C5E989F2685598E716C00011DE51DEAB3
:1033A0001DEF1DF41DF95555555555555555555598
:1033B0005555555555333333333333333333333333
:1033C0003333333333888888888888888888888826
:1033D000888888883F241E16110E0B0907050403F0
:1033E0000201F0C8A7917767604638353230242251
:1033F0002014000101020203030404050506060768
:1034000007000000000000000000000000000000B5
:1034100000000000000000000000000000000000AC
:10342000878888888888888888888888888888881D
:10343000262626262626262626262626262626262C
:10344000000E0D44000E1064000E15DC0202020690
:103450003F3F3F04040440404005320FA04C6966E2
:10346000656C696E6500496E76616C69642067728F
:103470006F75700019D019D519DA19DF19E919FD1E
:103480001A021A071D631D6D1D721D771D7C1D819B
:103490001D861D901C3C1C4B1C501C551C5A1E802C
:1034A0001E851E8A1E8F1E941A891A8E1AC01E1718
:1034B0001E1C1E211E301E351E3A1E621E671E6C0B
:1034C0001A481A4D1E711E761E991E9E1EA31EA816
:1034D0001EAD1EB2FF02011BE71D591E5D5A0120E1
:1034E0000325031E7B1EC65A675C21E4FD7C0CABE2
:1034F000050DEB901816938F828E83F00FBF00019D
:103500000EDCEC7F03228F828E83E4F0A37404B17F
:1035100019743DB119A3E4F022F08F828E83A3A326
:10352000229003FB7402F09003F3E0FF121DD19090
:1035300003FB7405F022126F55121A52121B291246
:1035400019AD121C3712764E7002C1157FFF121A88
:10355000E39009741225F27E007F09D179BF540DE2
:103560007E007F0AD179BFA5047F0180027F009091
:1035700003F3EFF0F1DEE94A4B701D7F04FED179D1
:10358000EF2401FFE433FEC37401125EFD7F00509F
:10359000027F019003F3EFF09003F3E06401704BBE
:1035A000F1DEAE02127690126E9B90097AE0FEA3D5
:1035B000E0FFF1DEC3E99FF9EA9EFAE92407F9E4A6
:1035C0003AFA9009771225F2E92408F9E43AFE1252
:1035D0007690126E9B90097AE064017004A3E06417
:1035E000326008121AE89003F3EFF09003F3E070F2
:1035F0001C7E007F04C006C374F59404FE7414128C
:103600007312D006126E6AE4FFFE121AED9003F3F5
:10361000E0FF121B1012764E7F0060027F01121A2B
:1036200011121A1B12196C1261AE1273B2121B8D99
:10363000124811FE4FFDA3E0FC4DFDA3E0FB4D60E1
:103640000BEE5FFFEC5FFFEB5FF470031248199025
:10365000121BE0FF5403241DF582E43412F583E0CD
:103660006F9003EEF0021C05E075F002A42485F9CA
:10367000740F35F07B02FEAF01E4FCFD9047AF1202
:10368000253AF1E4F110EF600512505880F6F1F39D
:103690007F03127359600A9047AF1224AD7810D19E
:1036A000C19047AFD1BC9047AF1224ADE4F15F9019
:1036B00047B3EFF0F16F9047B3E0FF221224AD78EB
:1036C000081223F9E4E5C820E2FB8FEB229047B40F
:1036D00012253AF1D8D17C9047B8E06F6030F1E420
:1036E000F110EF600512505880F612733F6006F13A
:1036F000D87810D1C19047B4D1BCF1D8E4D1C590ED
:1037000047B8E0FFF16D9041FB7401F0D322C32272
:103710007F01F174303517F1F77F05F15F9049E1D2
:10372000EFF01256809049E1E020E002C2353035DA
:1037300020F15B9041F7EFF0F1619041F8EF125703
:10374000E4600BA3E0F46006EF30E702C2351256E6
:1037500080E4FFF174A235E433FF22F1F77FD7D183
:10376000C57FFFD1C5E5C820E2FBAFEB22D1C51272
:103770005680E4FFEFB4010443FE202253FEDF2213
:1037800090446B12253A90446F1225F2F1E4F11047
:10379000EF600512505880F6F1F37F031273596001
:1037A0000A90446B1224AD7810D1C190446BD1BC07
:1037B00090446B1224ADE4D1C59044721274D96068
:1037C00010F16190446F1259A5904470123FC0806F
:1037D000E8125680E4FF809C9047B40224AD900923
:1037E000740225D275FF02E5E430E10675E4067542
:1037F000E403227F01F1749041FCE01226FF381AA5
:1038000004382214382715382C17383C3038413406
:10381000384636384B37000038345314EF8514805F
:10382000802F5315EF80085315DF800353157F85D4
:103830001590801D5316DF8516A080155317FE8046
:103840000D5317EF80085317BF800353177F851759
:10385000B07F0CDFFE2275FF0275E40475E401758C
:10386000E4022275FF0275E404E4F5E4229009E81D
:10387000EFF09009EAEBF09009E9EDF054029012B4
:1038800039F01262026006F1EC5002C322121C6E83
:10389000EF6002C322126282EF6002C322312790DE
:1038A00009E8E0B4040A11F39009E87403F08026F3
:1038B0009009E8E06405701311F3901223E030E5FD
:1038C000047F1F80027F73F1EF800B9009E9E0FB1A
:1038D0007D01E4FF11FA9009E8E09003F4F090090B
:1038E000EAE0901238F01259159003FCEEF0A3EFC5
:1038F000F0D322A3E0FB7D017F01EB600875FF019F
:1039000053CDFD800675FF0143CD02ED600553FBED
:10391000DF800343FB20EF600775FF0243E1402295
:1039200075FF0253E1BF22126275E924E0F9E490C9
:1039300043881262D031421262B59047B804F00257
:1039400036CD90438112253A9043851225F2F12914
:10395000904388126E7E9043811224AD126DB65052
:103960000221F41274B29043811224C91223B79039
:10397000438A127569602F511312752D90438AF096
:10398000A3EFF0904388E0FCA3E0FDD39FEC9E50B2
:103990000312733031F6F10BE94A6004F1CF80472E
:1039A0007E007F008041904388E0FEA3E0FF4E60F0
:1039B00041904200E0FCA3E0FDD3EF9DEE9C400A65
:1039C00090438AECF0A3EDF0800D904388E0FFA3D4
:1039D000E0A3CFF0A3EFF031F6F10BE94A6004F178
:1039E000CF80047E007F00904386EE8FF012215737
:1039F00080B4D322C3229043851225D290438AE01B
:103A0000FFA3E0904469CFF0A3EFF090438112242C
:103A1000AD511D90438AE0FEA3E0FFC322904462B3
:103A200012253A9044661225F21237E4123710EF4D
:103A3000600512505880F512733F600B904462127B
:103A400024AD78101236C19044621236BC904462A4
:103A50001224ADE480259044691274D96022904408
:103A6000661225D2EA494B6010904466518DFF12D0
:103A700036C5904467F1C080DDE4FF1236C580D6BC
:103A800012376F9041FB7401F0229046491225D203
:103A9000021FC79009C71225F2D229C2EBE5566072
:103AA000028187E55730E202C322919024EE12761C
:103AB0006612612EA2ED9214C2ED91A8546060448A
:103AC0009190240391A120E13B9046F6E0640460CC
:103AD00033919024BB91A1918F24E2F9E43AFAEF5B
:103AE0001220869046F5740FF09009C71225D2F186
:103AF000B412731BF1BA9046F67405F091B8A21493
:103B000092EDD3229009C7518D540FFFBF0111E9E7
:103B100024EF91A1700A90121CE09009CAF0800E67
:103B20009009C71225D21219B79009CAEFF0E557CC
:103B300020E05C12455240047F01D1ED9009CA7A21
:103B40000979CB1269E9E433918F24EF127562127F
:103B50002031EF700280349009CAE0FFF1E2E0FE0C
:103B60009009CBE0D39E4004F1A2C3229198FD902E
:103B700009C7518DFB1251759009CBEFF0E0FF7032
:103B800006D2EBD2008169EFB40204D2EB816991D5
:103B9000A85460600E9190240391A120E105E49067
:103BA00046F6F01245525005C2331243B51256453F
:103BB000E5D120E0FBE4F550C21591902408F9E42A
:103BC0003ACFE9CFF5518F52919024B191A1F55898
:103BD000AE511271C4919024B191A1918F24E191C1
:103BE000A12FFFE433FE127609FE9198D3125EFDF9
:103BF00050057401122031919024B2F9E43A8B609F
:103C0000F5618962919024E191A1F56391A854072F
:103C10009006E2F0755608919024B2F9E43AFA124F
:103C200071B8919024E191A1FFAD581271E37B012D
:103C3000E4FDFF12715AE4F5FFE5D25480440CF51F
:103C4000D29009CAE0FF91982418FBE433FA7D036F
:103C500012607391A8FFAEF0A22992289009CAE0E1
:103C60009009F0F0125EAF4006A21492EDC32290CC
:103C700009CAE0918F24F2F9E43AFAEF122086A201
:103C80001492EDD2EBD322A21492EDD2EBC322FF19
:103C90009009C71225D2E9229009C71225D2E9243A
:103CA000B9F9E43AFA021FC79009C71225D2E924EC
:103CB00004F9E43AFA0221839046F6E024FC70020B
:103CC000A1D7147002A1D0147002A1BB147002A17C
:103CD000DF24066002A1F4E5566002A1F4C2EBB154
:103CE000F51219B7904992EFF0E55730E002A1B80C
:103CF000126A8860047F01D1ED9049927A497993E4
:103D00001269E94004D2EBC1DB904992E0F1E2E0B4
:103D1000FF904993E0D39F4002E1A29046F5E06412
:103D20000F7029904992E0FF9046F2919BFD9046DA
:103D3000F2518DFB125175904993EFF0E0FF700541
:103D4000D2EBD20022EFB40203D2EB2212605AB1BE
:103D5000F5E924E291A1FF9046F291ABFDACF0E4CD
:103D6000FB126039C228904992E09009F0F0E4FF1C
:103D7000FE125EAF503FD2EB9046F67402F0126036
:103D80006B7E00E4FCFD7BD07A127913F812229A44
:103D9000E47BE87A03F9F8123130AB07AA069049C0
:103DA00092E0FF7D031260737E617FC37D147C000F
:103DB0001219678003D2EB22D2EB22E55720E509E6
:103DC000E55730E0047F01D1ED9046F67403F02210
:103DD0009046F67401F022121962B1F5021A70F1E0
:103DE000C7D200B1F5F1BA12731BF1B4E49046F6F4
:103DF000F0121980229046F20225D29042851225B7
:103E0000F2904285125FAC91A190428DF090428574
:103E1000F1A9121FC790428EF0904285518D9042B9
:103E20008FF0E9240691A1904290F09042851225EE
:103E3000D2E9240791A104904291F090428B51164F
:103E40009402EE94004017AD077B017A42798D9081
:103E500046EE1225F29042881225D2121EC12290FF
:103E600040421225F2904047F1A9121FC790404CE2
:103E7000F0904047518D90404DF0E9240391A1907E
:103E8000404EF09040471225D2E9240291A1904083
:103E900050F0903B7FE0FFA3E0904054CFF0A3EFC1
:103EA000F090404A12758A904047125FA591A11484
:103EB000904053F09040421225D290417B1225F25F
:103EC00090417EF1D87A40794C121D1DEF60037F3E
:103ED000012290405412758A7F0022C39006EAE0C6
:103EE00094FF9006E9E094FF5002F1C022EF600ECB
:103EF00012430FAF82AE83E4FD124333800A121ADD
:103F00006B1243F7E433FF227F0122904389E09F45
:103F1000F0904388E09EF09043811224C9E4FCFDB8
:103F200012227F90438112253A9043850225D29038
:103F300040CA1225F29040CFF1A9121FC79040D479
:103F4000F09040CF518D9040D5F0E4A3F0E92402E9
:103F500091A19040D8F09040CF1225D2E92403914E
:103F6000A1149040DBF0903B81E0FFA3E0903B8602
:103F7000CFF0A3EFF09040D212757D9040CA122589
:103F8000D290418B1225F290418EF1D87A4079D4AB
:103F9000121D3BEF60037F0122903B8612757D7FEF
:103FA0000022D2EBD1DBD200221225D2E92401F982
:103FB000E43AFA229046F20225F2903F2F0225F2CF
:103FC000E475F00102215712750C5002F1C02290E5
:103FD000438AE0FEA3E0FF22AF05ECF0A3EFF07B05
:103FE0000122246CF582E43408F58322A21522759F
:103FF000FF028FE32280F8901242E0FD7F01125A07
:10400000139012391238F4901223E030E5047F1F28
:1040100080027F72123FEF7F0143FB1075FF024366
:10402000E640EF600D75FF02E5E120E7FB43FB0D85
:10403000800343FB0E80FE75FF0275E404E4F5E4A3
:10404000C21575FF02901215E0603BE5E65403646B
:10405000017033121A3491D84020901238E0600D6C
:10406000E014F07008123174E4901215F0901215FB
:10407000E070022114123FF72114123174D215E4BA
:10408000901215F0211412317412658B9003F5EF24
:10409000F0901200E0B47A14901214E0B49C0D90E9
:1040A00003F5E0FF64056004EFB40330E49003FA25
:1040B000F09003FAE0FFC394805013E42FF582E4FC
:1040C0003412F583E4F09003FAE004F080E39012F8
:1040D00000747AF0901214749CF0D211121C1940E2
:1040E00003121C147B017A1279107D017F01121CCE
:1040F0000F7B017A1279117D017F21121C0F7B0148
:104100007A1279127D017F22121C0F7A1279227F96
:10411000021274E3901222E0B401057F01126C4791
:10412000121A3912658B121A2F9003F5EFF012193B
:10413000BC121A2A9003F5E0FFB40602800C301579
:10414000047F0280059003F5E0FF121DCCEF24FFF1
:10415000B3923775FF0253E6BF12764E6005E490C6
:104160001215F0125849121A4312353630110B7BD2
:10417000017A1279247D10125BA4121A7A9012151A
:10418000E0700F20370C1235217B017A31796112F2
:1041900019EE901223E030E00280033015057F0114
:1041A000123EEDD2AF3015031219C1203702413152
:1041B000121C3212506D121DD6121C0A40F29003CE
:1041C000F4E06041121A66EF700512594D4036E571
:1041D0005670FCE55720E50271F7121B88EF70FA64
:1041E000126225500512621150057F01126F219055
:1041F00003F4E0B40204E4FF80099003F4E0B403A4
:10420000047F011119121A5CE55730E1A312601006
:104210004002E4F0E55720E504710F712D12743D62
:10422000C0E0711D9003F7E0FDD0E0FF1219A82156
:10423000B01257ECF1F850031248199003F4E06003
:104240005D9030DEE07057121A66EF700512594D1E
:10425000404CE55670FCE55720E509901223E0201C
:10426000E00271F7121B88EF70FA126225500512F6
:10427000621150057F01126F219003F4E0B4020334
:10428000E480189003F4E0B403047F01800E9003EF
:10429000F4E0B405099012157401F0FF1119121C15
:1042A0003212506D121BFB9046F1E07003121DDBC1
:1042B000201205121A5C80221259159003EDE0FEBF
:1042C000EFC39E4005EF9EFF80089003EDE0F404ED
:1042D0002FFF7401D39F5002C212E55730E1221222
:1042E00060104002E4F0E55720E504710F712D12D3
:1042F000743DC0E0711D9003F7E0FDD0E0FF12199E
:10430000A8121BD8121A751261DC12583441319070
:1043100003F6E0FD75F0AA9003FE1225C6ED75F0D8
:1043200002A424EFF9740335F0FA7B0122AF82AEC8
:10433000837D01900991125D80E5567077B14A50F6
:1043400004C23371B5900991E0FEA3E08E51F5529D
:10435000A31225D29006E41225F2AE51AF527DAAE7
:1043600012718EE4F5FF75D901F550E557542160BF
:104370002AE55730E504E4FFF1D5E4900996F09082
:104380000996E004F0D147EF6009900996E0C394E4
:104390001040EC7F02121DC75357DE1274295005DE
:1043A000E004FF80027F00125F06D23371B5D2EBCA
:1043B000A21492ED229049DDE5F4F0E0547FF5F48B
:1043C0007F827E00F1D0D1125005E5FC20E6F73067
:1043D00033089049DDE04480F5F4F1CCD11250056A
:1043E000E5FC20E6F775FF01E5D520E702C322E5ED
:1043F000F4D330E601C322E5567021B14A5004C21D
:104400003371B5F1A9125645E5D120E0FB435720A1
:104410005357FEE4F550A21492EDD322C322900A22
:1044200011EFF0C234D1FFD21D900A11E09048B7CD
:10443000F0D21EA3E4F0A37434F0B167E4900A1242
:10444000F0B1525063900A12E0705DE5F754C0601D
:10445000F091BD91D06455703B91D090121BE06FEC
:10446000703091D064556014E0FF6405600EEF6415
:10447000256009EF64456004EFB46505900A128079
:104480000C9006E1E0FF900A12E06F70137402F0E6
:1044900080AF800C900A12E0B454057433F080A110
:1044A000900A127401F08099900A12E0B40206C2D8
:1044B0003371B58000B15A900A12E0FF22E5F7206F
:1044C000E008E5F754C070F5FF2243F701AFF92289
:1044D00091BD900A12EFF02212612E7F02121DC7C9
:1044E000E4900A13F0A3F0900A14E0FFC394035081
:1044F00038911E900A13EFF0BF02028014900A1345
:10450000E0B43318E4F0A3E0FF911EBF0213900A59
:10451000137401F0A3E090121CF0800DE4900A13D4
:10452000F0900A14E004F080BE900A13E0700CB121
:10453000525004C23371B5F1A9800890121CE0FFFB
:104540001219B2900A13E024FF22C2EBA2ED9214DA
:10455000C2EDE5F4C330E701D322C21DE49048B7B1
:10456000F0C21EA3F0A3F075FF01E5D520E702C35A
:1045700022C234D1FF201D02C10353F4DF9048B79B
:10458000E0FFF1D512763D301E0543F44080035321
:10459000F4BFE4F5FF53F5F09048B8E0FAA3E0FB70
:1045A000EA42F5EBF5F6D234D1FFD11DE4F5FFE593
:1045B0009320E604D11240F4301E55E5F430E304B4
:1045C0007D288010E5F430E2047D288007E5F43092
:1045D000E1027D28D1F87F28D11FD11240FC7F78DD
:1045E000D11FD112502AF1A250F8126AA1EFC39D37
:1045F00050F0F1A250ECE5F720E5E7C234D1FFD14D
:10460000F880DF53F4BF124FC6400543F420F1F1A8
:10461000D32275FF03E591C330E701D3227FC87E23
:1046200000D12A75FF034391802275FF03D3EF94D5
:1046300002EE9400400874FE2FFF74FF3EFEEFF57B
:1046400092EE540FF59122E4904829F0A304F0E48F
:1046500090482CF0E5FA30E1FB75FF01E5D530E735
:10466000037F0022E4F5FF75E508F1F1E5D530E6BA
:104670001A75FF0190482BE5DAF0E4F5DA75FF01D1
:10468000E5D630E3FB90482C7401F0127570E59B81
:1046900030E7FBE4FB75FF038B951249B6FF124E22
:1046A000870BEBB403EF75FF03759580F12075FF61
:1046B0000143D50490482CE07006D1F87FC8F13250
:1046C0007B017A48792A124F3B90482AE09048298A
:1046D0007006E04404FF8002E0FF904829EFF0906C
:1046E000120EE0B4010312763D75FF0190482BE0F5
:1046F000F5DA904829E0FF2275FF03E4F59122AF37
:10470000F4EF547FF5F4303405EF4480F5F475FF91
:1047100001E5D520E702C322E5F4D330E601C32248
:10472000E4F5FF758EC8F18675FF0153D5FBD1F80E
:104730007F147E00D12AD12375FF03E59120E7FB8A
:1047400022CDEFCDCCEECC12668CAB94EF4B126643
:1047500098CBEFCBFAE59130E71E12668FA994E96A
:10476000F582EF4582FFEB2DF582EA3CF583C3EF3E
:104770009582E5F0958340DDE59120E708CEECCE0B
:10478000CFEDCFF13422E4F5FF75C2E17F1E126A4E
:104790008E30E707E4F5FF75C2A122E4F5FF75C28C
:1047A000812275FF01E5E43322F1B07F08021DC7C5
:1047B000E5FA30E1FB75FC8075FF0153D5EFE4F5B8
:1047C000FC75FC40D1F8E5FC20E6FB227FE87E0387
:1047D000126648C12375FF01E5D530E602C322E425
:1047E000F5FF439A80EF124FA2E4F5FF539A7FD36F
:1047F0002275FF0153D8EF2290121BE0701112486E
:10480000114FFFA3E04FFFA3E04F7003D38001C31C
:104810002290121DE0FFA3E022E4FF123EEDEF60C4
:104820003FF11F1161500990121DE0C394C040F187
:104830007B017A12791F1161500E11115FFFA3E005
:104840005FFFA3E05FF460E8901223E030E0057FB3
:1048500001123EEDE490121BF0F11FE0FD121B92DD
:1048600022904376D1CA90437C1225460000000175
:104870009043807401F0F5FFE5D554C070051245F2
:10488000525002C322E4F5FF53967F75FF0175D5A0
:10489000047F3FFE12473475FF0143D508E4F5FF5E
:1048A0005394FBF5FF53847FF5FF7598FF90437A8F
:1048B000E5F4F075F49C75FF01A3E5E4F075E425DB
:1048C0007B017A437980D1E1904380E0640160020A
:1048D0002182F5FF9043797414F090437C31C4FF3A
:1048E000780112240C90437C12253AE5A730E1FBB5
:1048F00043A70290437C31C4FFE5A730E005E47B89
:10490000018002E4FBFAF9F8EF4BFFEE4AFEED49B5
:10491000FDEC48FC90437C12253A904379E014F07A
:1049200070B890437C31C4FF78101223F97B6D7A04
:104930004E79C6784112229AEF2439FFEE34309135
:10494000E0E4FBFA7901F8122325EE547FFEE4FD42
:10495000FC12698690437C31C4FFEB6FFFEA6EFE68
:10496000E8CDEFCDCCEECCECFFF113EF122086F1C9
:1049700013ED126F1B90120FE030E606E4F5FF75A1
:10498000968075FF01E4F5D590437AE0F5F475FF64
:1049900001A3E0F5E41266A0904380E0B40103D3E4
:1049A0008001C322E0FB25E025E02401F582E43408
:1049B00012F58312253AEB25E025E02401F582E487
:1049C0003412F583E0FCA3E0FDA3E0FEA3E0229017
:1049D0003DBB12253A903DCB7401F0E4A3F0126781
:1049E000D175FF02E5E630E00D903DCC7401F0FB9F
:1049F0007A3D79CCD1E1903DD6122546002DC6C036
:104A0000E4F5FFF5A490120FF0903DCD7402F0751F
:104A1000FF03903DCDE0FFF595EF1460181460267C
:104A200024027036903DBB31C4FF903DD212253A2E
:104A3000903DC78020903DBF31C4FF903DD21225EC
:104A40003A903DC8800F903DC331C4FF903DD212D3
:104A5000253A903DC9E0903DDAF0F1B3903DDAE0BF
:104A60007004F1CE806190120EE004F0903DCDF123
:104A7000A1903DCCE0701B903DD631C4903DD2F169
:104A80002FFBC31223E8500A903DD231C4FFA3127A
:104A9000253A903DDAE0FFF1F1903DCAE0FF903D0C
:104AA000CDE0FDA231922E12677F903DCCE0700EDA
:104AB000903DD231C4F192903DCDE0FF91E8903D20
:104AC000CDE031B7FFD187F1AA6002410F903DCC14
:104AD000E07044A37402F075FF03903DCDF199702E
:104AE00012903DD691BE78011223F9903DCD31A4AC
:104AF000FFD187F1AA70E0903DD631C42420FFEEAB
:104B0000344E91E0E4FB7A04F9F891CE7801122357
:104B1000F9903DCE12253AF1C0400343F420A23172
:104B2000922F1266B1903DCCE024FF922D903DCEA5
:104B300031C4FFF1DCE4F5FF75E508127570E59B03
:104B400030E7FB12472075FF0143D50412461D9143
:104B5000981247387B017A3D79CBF13B90120EE0F9
:104B6000B4010312763D903DCBE0B40103D3800144
:104B7000C322903EE012253A1267D1903EF51225ED
:104B800046002DC6C0E4F5FFF5A490120EF0A3F088
:104B9000903EF07402F075FF03903EF0E0FFF59553
:104BA000EF14601814602624027036903EE031C481
:104BB000FF903EF112253A903EEC8020903EE43189
:104BC000C4FF903EF112253A903EED800F903EE8F2
:104BD00031C4FF903EF112253A903EEEE0903EF94E
:104BE000F0F1B3903EF9E07004F1CE805190120ED6
:104BF000E004F0903EF0F1A1903EF531C4903EF11A
:104C0000F12FFBC31223E8500A903EF131C4FFA3F9
:104C100012253A903EF9E0FFF1F1903EEFE0FFA35C
:104C2000E0FDA230922E12677FA331C4F192903E34
:104C3000F0E0FF91E8903EF0E031B7FFD187F12638
:104C4000600261967402F075FF03903EF0F1997076
:104C500017FF7E04FDFC903EF591C378011223F905
:104C6000903EF031A4FFD187F12670DBF1C0400304
:104C700043F420A230922F1266B1903EF531C42445
:104C800020FFEE344E91E0E4FB7A04F9F891CE78FF
:104C9000011223F9C22DF1DC9012137401F07E127F
:104CA0007F01E4FD8F828E83EF2DF582E43EF58354
:104CB000E0FC901213E02CF00DEDB412E722FF7E21
:104CC00004FDFCE0F8A3E0F9A3E0FAA3E0FB122264
:104CD0009AE47B7DFAF9F8122325EF2401FFE43EE4
:104CE000FEE43DFDE43CFC229047AAEFF0E4A391F2
:104CF000BE78011223F99047AAE0FBD1D312253ADE
:104D0000901210E064806071E0C3947F5038EBD162
:104D1000D3C083C08231C4FFEEC0E0EFC0E0901288
:104D200010E075F004A4AEF0FBCAEECAEA3395E0D9
:104D3000F9F8D0E0FFD0E0FEC3EF9BFFEE9AFEED66
:104D400099FDEC98802B9047AAE0D1D3C083C08214
:104D5000F130FB901210E0F40475F004A4FFAEF003
:104D6000EE3395E0FDFCEB2FFFEA3EFEE93DFDE86A
:104D70003CFCD082D08312253A22904657126C0C0C
:104D8000EBF090465D7401F0C2321247CC1246122D
:104D90005005E5FC20E6F61269BDBF0108E4F5FC0C
:104DA00075FC4080081269BDBF0202D3221247F190
:104DB000904658E0FF12699375FF0153D5DF53FA0F
:104DC000FB904657E0FF1247D5904658E090465773
:104DD000B40809E031B7245291DD8004E031B7FF17
:104DE000D187904659E0FFF1EB75FF0175FF037520
:104DF0009B041247CC75FC42E5FC20E105124612EB
:104E000040F390465AE0F075FF03E59B20E705125A
:104E1000461240F3E59B20E70D75FF03759B1F12BB
:104E200047B0D232804DD1C3D1E1904658E0FD90D9
:104E3000120FE05D701C904657E0FFD1C31267F679
:104E400090120FE0FF904658E0FEEF4E90120FF0E8
:104E500091981247867B017A46795B126677500FEC
:104E6000C390465CE0942090465BE0940340E6D11A
:104E7000C3F13B124738303202A18290465DE0B464
:104E80000103D38001C32290482512253A75FF0102
:104E9000904825A3E0FDA3A3E4FFFEE4FC781012F4
:104EA00023F98FE1904825A3A3E0FEA3E4FFE4FDEE
:104EB000FC78081223F98FE2904825A3A3A3E0FF12
:104EC0008FE3227B017A46795D22EBF0A3EAF0A31F
:104ED000E9F02225E025E02401F582E43412F5838F
:104EE000229048B4D1CA7F017C127D01E4FE8D82FC
:104EF0008C83ED2EF582E43CF583E02FFF0EEEB4BB
:104F000012EC901213E06F60099048B4F116E412AD
:104F1000208622904376E0FBA3E0FAA3E0F9227B0F
:104F2000017A12791D22903EF0E0FF14F0EF22FF8B
:104F3000E0F8A3E0F9A3E0FAA3E022C22C75FF0396
:104F4000759B1F75FF0390120FE020E71BE59A5435
:104F50000FC394024012E04480F0E4F5FF75C2A153
:104F600043FC0475FF03D22CE5FC30E609E59A54B6
:104F70000FC3940540CDE5FC30E611E412208675A0
:104F8000FC80F5FC75FC40E5FC20E6FB302C029132
:104F90009822FF9047AB02253AE0F595E5F45407D7
:104FA00022E033333354F8F5F422903DCDE0FF1482
:104FB000F0EF2275FF0175E46575FF0175D6472294
:104FC00075FF0375958090120EE0D3940122F5FFD2
:104FD000F59675FF0175D70975F4182212633AE446
:104FE000F5FFE5BD54F84404F5BD2275FF018FDAE5
:104FF00022EF30E00E43F401E4F5FF43A404F5FF93
:10500000759624EF30E10E43F401E4F5FF43A40864
:10501000F5FF759624EF30E20943F402E4F5FF75DD
:10502000961EEF30E30943F404E4F5FF759610751E
:10503000FF01EF5403600475D7122275D72D22901B
:1050400003EEE064AA2411FFF022AE07113FEE0444
:10505000FEEF8EF084AFF022E55730E20FE55720E7
:10506000E50AE55730E0057F01123EED22E4904964
:10507000DAF0D3900001E09400900000E09400503A
:1050800002213B9049DAE0FF04F0EF940540022151
:105090003B9000005106E4F56D3148E0FEA3E04E80
:1050A00060253148510645F0701D313CE0B40113D4
:1050B000313C7402F09006F6E0FF3148E4F0A3EFD3
:1050C000F08004313CE4F0056DE56D640370CA9036
:1050D000325EE0FF6006F46003E014F0E4F56DE595
:1050E0006D3157B1FF6046E56D315774FF122507EA
:1050F000B19870393165E0FF6008F460053165E012
:1051000014F03165E06010E56DB1D71224ADE56DA6
:10511000315712253A8006E56DB1A3E4F0915FE0C6
:10512000FEA3E04E6005915F1274A81158056DE56D
:105130006DC3940E40A9121B2401722274AD256D1B
:10514000F582E43431F58322E56D25E02458F582BB
:10515000E43432F58322EB75F00CA424B0F582E43C
:105160003431F58322E56D75F00CA424BAF582E4A0
:105170003431F58322900A15EFF0A3EBF0900A1575
:10518000E024AD3140E0FEB402037F0022EE701E49
:10519000900A15E0FF24AD31407401F09006F3E071
:1051A000FCA3E0FDEF314AECF0A3EDF0802AED2402
:1051B0001BFFE433FEE4FCFD7B0CFAF9F8123130FE
:1051C000EF2405FF900A15E0314AE0FCA3E0C39FFD
:1051D000EC940050037F002290325EE0B4FF159003
:1051E0000A16E0540FFFBF0103E48004900704E0B7
:1051F00090325EF090325EE060037F022290325E79
:1052000074FFF07F012274FFF5F0022157C0E0C067
:10521000F0C083C082C0D075D008C0FF75FF01E523
:10522000D530E6047F028009E5D57F0030E7027FB4
:10523000018F5AE55A6402600241CEE5561226FFFC
:10524000525901526C0252BA0852770952820A52DC
:10525000900B52AF0C0000541075FF0175C355152B
:105260005CE55C60028110755602811075FF017566
:10527000C3F0755609811075FF0175C35575560A3F
:10528000811075FF019006F5E0F5C375560B81108E
:1052900075FF019006E1E0F5C3755601755C089055
:1052A0000705510645F06002811075560C8110907B
:1052B00046F67406F07556008110C2EB7556004331
:1052C000570412750C40028110123FC08110E55A3C
:1052D000640160028110F1D640028110E550702215
:1052E0009124E0FF64556004EFB4540B75500575CC
:1052F000FF0075D901811075500275FF0075D9083E
:105300008110E5506402704091531225D2E5D91204
:105310002086126AC81260259006E0EFF09147E0FF
:10532000900A1FF0E0FFD394094006EFD394AA40FF
:1053300004912B8066900A1FE0F558913475FF00A8
:105340008558D97550038110E5506405701F91246C
:10535000A3E0FF90121BE0FEEF6E700C9006DF04DE
:10536000F09134E0FF1219B2755000802EE55064C0
:1053700003600281109153123FA9E5D91220869152
:105380002B75FF00E5D330E016C39006F0E094FFE4
:105390009006EFE094FF5003123FC0D11B8071C212
:1053A000331243B575FF00D148E5D120E0FBC2EBD5
:1053B0004357029124A3E0FF90121EE0FEEF6E918E
:1053C00023E090121D911DA3A3E090121F911DA335
:1053D000A3A3E0FE901220E0FDEE6D4F6012C3909B
:1053E00006F2E094FF9006F1E094FF5003123FC0F4
:1053F000C39006ECE094FF9006EBE094FF5003129C
:105400003FC075500015589147E558F09003F7F0EC
:10541000D0FFD0D0D082D083D0F0D0E032FEE0FDFB
:10542000EE6D4FFF85528285518322301505C215DE
:1054300012455A22913C90121CEFF022E5F45418C8
:10544000131313541FFF22E5522407F582E435514C
:10545000F5832275FF01F5EA75EAFF9006E422E57F
:105460006D75F00CA424B8F582E43431F5832290F4
:10547000453BECF0A3EDF0AB07A31224ADB1D6127F
:10548000253A315612253A904541E0FFEB3167EF5E
:10549000F090453BE0FEA3E0FFEB9161EEF0A3EF5F
:1054A000F022904459EEF0A3EFF090446074FFF0C6
:1054B00090445BB1FF60549044617403F090446188
:1054C000E0FFC3940E5044EF3157B19570359044CE
:1054D00061B1A17405F0C00790445B1224AD904502
:1054E0003D12253A90445FE0904541F0904459E0E8
:1054F000FCA3E0FDD007916F904461E0049044600C
:10550000F08008904461E004F080B2904460E0FFD5
:1055100022904642126C09EBF090464774FFF090DF
:105520004646E0904648F0904648E0FFC3940E504F
:105530005EEF3157B195704F904646E07E017002A4
:105540007E02904648B1A1EEF0C007904644E0FFCD
:105550007E0060097C007D0A1220BA80027F0AE486
:10556000FCFD90453D12253A904645E0904541F0BE
:10557000904642E0FCA3E0FDD007916F904648E0E2
:1055800004FF904647F022904648E004F08098904F
:105590004647E0FF221224ADE4FBFAF9F8C30223E8
:1055A000E8E0FF75F00CA424BBF582E43431F58308
:1055B00022AB07E4FF1BEBC3940E5019B1D61225A2
:1055C0004600000000315612254600000000EBB1F5
:1055D000A3E4F07F0122EB75F00CA424B4F582E47F
:1055E0003431F58322AB07E4FA1BEBC3940E500C65
:1055F000B1D6B1FF6006315612253A0AAF02221227
:1056000024ADEC4D4E4F229046C7F07E1E7F3A7B74
:10561000FF7D649046467403F0A111D140E5D1208E
:10562000E0FBE4F5FF75D9011274295005E004FF91
:1056300080027F00125F06D2331243B5E4F5502298
:10564000C2331243B5E4F5FFE5D154FE4402F5D16F
:10565000221237E4123710EF6004115880F67F01F0
:10566000123774D2351237F77F06D17D1237F77FA4
:10567000011236C57F03D17DE4FF0237741236C5AF
:10568000F1D0EF70FB9041FEE0F4600A9049DE74C7
:1056900006F0D1FB70FC9041FCE01226FF56B904E5
:1056A00056C11456C61556CB1756DB3056E0345645
:1056B000E53656EA37000056D3431410851480802F
:1056C0002F4315108008431520800343158085154E
:1056D00090801D4316208516A08015431701800D6C
:1056E000431710800843174080034317808517B085
:1056F0009049DE740CF0D1FB70FC229049DEE0147E
:10570000F0E0227F011237749049DF7401F0904974
:10571000DFE0603B1237F77F0512375F9049DFEF1C
:10572000F0D18012375B9041F7EFF0123761904172
:10573000F8EFF0D1809049DFE05401F1E460CFA3AD
:10574000E0F460CAEF30E7C6E49049DFF080BF12B2
:1057500037F77F9F12375F9041F9EFF01237619072
:1057600041FEEFF01237619041FFEFF012376F907A
:1057700041F7E0F4601BA3E0F460169041FEE0FD09
:10578000541F240FA3F0EDC413540744809041FE2E
:10579000F02290498DECF0A3EDF090498CEFF012DF
:1057A0005A4090498DE0FEA3E0FF90498CE0125AE8
:1057B000CBEEF0A3EFF0205C11D25C7E5A7F677BCA
:1057C000FF7D02D113BFFF02C322D322A1E5A1B105
:1057D000E5C85404FF22E5F754C024FF22E49046B4
:1057E00046F0A111F09041F7E0FFF42230130C9045
:1057F00030DEE07006FF1219CBC213301523AF1F45
:10580000900703E0FEEFC39E400AEF9ED394024050
:1058100010C21522900703E0F42FD394014002C276
:1058200015229003F8E0FCA3E04C70069003F80208
:1058300038ECC3229003F8E0FEA3E0FF4E6009CAF3
:10584000EECAC9EFC912275F2275FF02D2ADD2BDE1
:1058500075FF02758E71756C0975FF02E58E546FC8
:105860004480F58E90481D1225460000000022C09D
:10587000E0C0F0C083C082C0D075D008C0FF75FF03
:1058800002E58E30E43A75FF02E58E54EF4410F5E0
:105890008E90481D1224AD124CDA90481D12253A04
:1058A000900000123FC0E56C30E0020519E56C7015
:1058B0000D756C09051FE51F7002051E8002156C31
:1058C00075FF02E58530E40875FF02438510056F1A
:1058D000D0FFD0D0D082D083D0F0D0E032E4FEEF41
:1058E000C3940E5013EF1255A3E05D7C00B5050282
:1058F0007C01EC2EFE0F80E7AF06227D02E4FF80E4
:10590000DC7D017F0311DDAB0711FBEF2BFF22E4F0
:10591000FD7F0380C8A2AD9227C2ADAF1FAE1EA20D
:105920002792AD22AD07AC063115C3EF9DEE9C402A
:1059300008EF9DFFEE9CFE8013EDF4FDECF4FCED12
:105940002401FDE43CFCED2FFFEC3EFE229003FC25
:10595000E0FEA3E0FF3124D3EF94C8EE9400229040
:1059600048B11225F29048B1123A8DFF1255B1900C
:1059700048B11225D2E402208690464CECF0A3ED0B
:10598000F09046491225F2315F90464C911512571E
:10599000DD90464931A5123A8AB4FF04E41220860C
:1059A000123A8AFF221225D2EF022086904819125D
:1059B00025F2904818EFF0C25B51E77B017A4879F5
:1059C0001C121E264003A25B225100E0FE90481CE0
:1059D000E0FDEE6D7027EF5105E0FF90481931A50D
:1059E0005100E07008EF51057401F08008904818EC
:1059F000E05105E4F05100E0FD5113D25BA25B22BF
:105A0000904818E0FF75F006A4246FF582E4344353
:105A1000F58322EF7011ED600775FF0143AE01229F
:105A200075FF0153AEFE22EFB40114901242EDF067
:105A3000600775FF0143AE022275FF0153AEFD22E0
:105A4000904A1BEFF051E7D242121E2B904A1BE006
:105A5000FFE4FD5113904A1BE0FFEF146006047051
:105A600005D2A822D2AA22E49049D4F09049D4E0E9
:105A7000FFC394025054EF51D9E06401704490493F
:105A8000D4E051D9E4F07B017A4979D531AC501B8F
:105A90009049D4E0FE51CBE0FCA3E04C600D90496E
:105AA000D5E0FFEE51CB910B1227639049D4E0FF74
:105AB00075F006A4246CF582E43443F5837401F098
:105AC000515A9049D4E004F080A22275F006A42433
:105AD0006DF582E43443F5832275F006A4246BF55A
:105AE00082E43443F5832275F006A4246AF582E447
:105AF0003443F583E0FF229009841225F2C25DC28F
:105B0000AC305E59E490098AF090098AE0FFC394B2
:105B10002050279008F7E02F242DF582E43407F574
:105B200083E0B40D0D90098AE004FF90098731A548
:105B3000800890098AE004F080CFC25E9009871245
:105B40003A8DFF9008F7E0242DF9E43407FA7B0141
:105B500090469A1225F29009847162D25DD2ACA26D
:105B60005D221225D2021BAB9047A51225F2904769
:105B7000A8EDF0C394104004A37410F09047A9E07E
:105B8000FF7B017A12792490469A1225F29047A55C
:105B900071629047A51225D29047A971F69047A847
:105BA000E0C39FFD9009CC1225F29009CFEDF0E4FF
:105BB000A3F0ED54FE9009CFF06030E4FF123EED0B
:105BC000BF01289009CC1225D2124861501D9009BE
:105BD000CDE475F0021221579009D0E02402F09034
:105BE00009D0E0FF9009CFE06F70D87F01123EED41
:105BF0009009D0E0FF22E0FF7C0029F9EC3AFA227C
:105C00007D0271A4EFC36001D322FFE0FCA3E0FD9D
:105C1000F5828C8322E0FEA3E0FFA3E0FDA3E0FB7E
:105C200022EF6004904536F090086FE0FF90077512
:105C30001225D2121BC990086FEFF060532002505A
:105C4000904534E0C330E501D3920790121BE0FD8C
