:020000040000FA
:100000000202DF0218034100E0002202180B222244
:0100100022CD
:07001300021813E4FFE1D223
:07001B0002181B75C8012249
:030023000218239D
:03002B0002182B8D
:030033000218337D
:03003B0002183B6D
:030043000218435D
:03004B0002184B4D
:030053000218533D
:03005B0002185B2D
:030063000218631D
:03006B0002186B0D
:10007300021873BB010689828A83E0225002E722B9
:10008300BBFE02E32289828A83E49322BB010CE54F
:100093008229F582E5833AF583E0225006E9258239
:1000A300F8E622BBFE06E92582F8E222E58229F57D
:1000B30082E5833AF583E49322BB010689828A832E
:1000C300F0225002F722BBFE01F322F8BB010DE53B
:1000D3008229F582E5833AF583E8F0225006E92583
:1000E30082C8F622BBFE05E92582C8F222C5F0F8D4
:1000F300A3E028F0C5F0F8E582158270021583E0CD
:1001030038F022A3F8E0C5F025F0F0E582158270FF
:10011300021583E0C838F0E822EF2BFFEE3AFEED3C
:1001230039FDEC38FC2275F008758200EF2FFFEEE5
:1001330033FECD33CDCC33CCC58233C5829BED9A10
:10014300EC99E58298400CF582EE9BFEED9AFDEC6E
:1001530099FC0FD5F0D6E4CEFBE4CDFAE4CCF9A8B4
:100163008222B800C1B90059BA002DEC8BF084CFBC
:10017300CECDFCE5F0CBF97818EF2FFFEE33FEED93
:1001830033FDEC33FCEB33FB10D703994004EB99BD
:10019300FB0FD8E5E4F9FA227818EF2FFFEE33FED0
:1001A300ED33FDEC33FCC933C910D7059BE99A4005
:1001B30007EC9BFCE99AF90FD8E0E4C9FAE4CCFB1D
:1001C3002275F010EF2FFFEE33FEED33FDCC33CC71
:1001D300C833C810D7079BEC9AE899400AED9BFDFA
:1001E300EC9AFCE899F80FD5F0DAE4CDFBE4CCFA0D
:1001F300E4C8F922EF5BFFEE5AFEED59FDEC58FC23
:1002030022EB9FF5F0EA9E42F0E99D42F0E89C451F
:10021300F022E8600FECC313FCED13FDEE13FEEFC9
:1002230013FFD8F122E8600FEFC333FFEE33FEED87
:1002330033FDEC33FCD8F122E0FCA3E0FDA3E0FEA8
:10024300A3E0FF22E0F8A3E0F9A3E0FAA3E0FB2296
:10025300ECF0A3EDF0A3EEF0A3EFF022A8828583E8
:10026300F0D083D082120276120276120276120244
:1002730076E473E493A3C583C5F0C583C8C582C878
:10028300F0A3C583C5F0C583C8C582C822E0FBA31C
:10029300E0FAA3E0F922F8E0FBA3A3E0F925F0F0EC
:1002A300E582158270021583E0FA38F022EBF0A3A1
:1002B300EAF0A3E9F022D083D082F8E493701274B9
:1002C3000193700DA3A393F8740193F5828883E4DB
:1002D300737402936860EFA3A3A380DF75812F0279
:1002E3000855900A1951B0AE071FEE6012900A1C10
:1002F30071031176FE900A197103EE11BC80E82296
:10030300E475F0018090900A54EEF0A3EFF09000B2
:100313004FE064016002619BC3900A54E09408506B
:100323000BE4FF914F900A54918380ECE4F50DFBAD
:1003330071C4AF0C121010E50DC39408504771C27D
:10034300E50D7F0071BCEF29F9EA3EFA900A1C51D2
:10035300B07B017A0979007FFF51E5E50DFEE424C6
:10036300FFFFE43E71BC8F828E83118F9009FFF0F3
:100373007B017A097900900A3DE50DF0AD0C12106E
:1003830037050D80B2900050513BE42FFFEE340847
:10039300919490005002167F900054E0FEA3E0FF7A
:1003A30071BD900A54E0FDA3E0900A05CD120AA89E
:1003B300900054EEF0A3EFF022FE90200141907BD9
:1003C300007A00791091D175FF031176F5D375FF8B
:1003D3000390000171EF90000271EF90000371EF41
:1003E30075D40175FF03E5D55402FF22118FF5D3B0
:1003F30075FF0322900A33E0FEA3E0FF912D914F96
:10040300900A35513BEF24019191900A3551539055
:100413000A589149900A58E07002A3E0700BFF7EDE
:1004230008710991DFF01215FD2291B3CD24FFCDA0
:1004330034FFFCC3ED9FFFEC9E541FFE74082F9105
:10044300E8FF22900A1374FFF5F001F091B3541FF3
:10045300FC74082DF58274203CF583EFF0902006A0
:10046300E0B42019A3E0B40014902005E02401FFB8
:10047300902004E03400541FF0A3EFF022902006F4
:10048300E475F00101F09000CE513BEF241BFFE433
:100493003EFEE43DFDE43CFC2291C7EF2401919133
:1004A300120C867404F0D1E3918991CC91F1F0227E
:1004B300902006E0FCA3E0FD902005E02DFD9020B8
:1004C30004E03C229000CE413B900087415375FFEE
:1004D3000375D40222900A17E0FF8101900A587431
:1004E30008F0A3E422F58274203EF583E022900015
:0704F300817408F0A3E4226C
:10050800AEFFEE54CFFEEFC454F024804EF5FF2228
:10051800D119EF541FFFF1E0A37401F01215C09038
:100528000A10E0FCA3E0FDAE047805CEC313CE1399
:10053800D8F9FF900A13EEF0A3EFF0ED541FA3F0E3
:10054800A3E4F0900A33F0A3F0C3900A11E09420DA
:10055800900A10E09400407C9146900A15E0FEA3B2
:10056800E0FF900A33EE8FF011F0900A13E0700468
:10057800A3E06406700AD119900A13E48FF011F011
:10058800D119900A33E48FF011F0120DB2EF600424
:10059800F1DE8005E4900A12F0900A33120FD2704F
:1005A8001D912D900A17EFF0910191D891D8900ADA
:1005B80013E07002A3E0604791D8914680F071F78C
:1005C80071F771F7900A13E07002A3E0603171F7D8
:1005D800914680F0900A109183800A900A10E0708A
:1005E80002A3E0600BD1199101900A10914980EBA8
:1005F800120DB2EF6004F1DE8005E4900A12F0906B
:100608000A12E06002A12712166E7109900A35419C
:100618003B900081E0B4082DA3E0B40028120DA59A
:100628007B017A0179009000FD7408F0A3E4F0D111
:10063800E3120DA5E42FFFEE3408919491CCE490D9
:100648000081F0A3F0900083120E8990008351532B
:10065800900081E475F0013106FE740025F0F58202
:1006680074013EF583E0FF229000ED51539000F1B4
:1006780051B0110FF134EF6004111080F7120F7CA4
:1006880060099000ED513B7810D1D89000EDD1D49D
:100698009000ED513BE480279000F4120FD945F00B
:1006A80060219000F15190EA494B60119000F1519E
:1006B800901176FFD1DB9000F2918380DBE4FFD1CB
:1006C800DB80D5F1CD9000D77401F022513B78083A
:1006D8005115E4E5C820E2FB8FEB229000F6515358
:1006E8009000FA51B0110FF134EF6004111080F747
:0806F800F1EE120F956009906C
:1007000000F6513B7810D1D89000F6D1D49000F685
:10071000F1E99000FD120FD945F06011F1889000C9
:10072000FA5190EF11BC9000FB918380E5120EF915
:10073000E4FFE1D27F01F1D23002161212D2F18829
:10074000900A5DEFF0120EF9900A5DE020E002C21F
:1007500002300219F1779000D4EF1212DA600BA385
:10076000E0F46006EF30E702C202120EF9E4FFF196
:10077000D2A202E433FF22F1F77FD7D1DB7FFFD192
:10078000DBF18C9000D3EFF07FFFD1DBE5C820E2F6
:10079000FBAFEB22900A3E5153110FF134EF60048E
:1007A000111080F7F1EE120F956009900A3E513B4F
:1007B0007810D1D8900A3ED1D4900A3EF1E9F18860
:1007C000900A42F1CB900A42E0FF22EFF0120EF9BC
:1007D000E4FFEFB4010443FE202253FEDF22D119CF
:1007E000900A10E4F0A3EFF022513BE4C1DB7F015B
:1007F000F1D2F1F77F03229000D8E051B908190433
:10080000082114082615082B17083B300840340827
:100810004536084A3700000833531AEF851A80809E
:100820002F531BEF8008531BDF8003531B7F851B57
:1008300090801D531CDF851CA08015531DFE800D6C
:10084000531DEF8008531DBF8003531D7F851DB0CE
:100850007F0CDFFE2275FF03759E029017FAE4936A
:10086000900A51F075FF02E5E654036002419F755E
:1008700010DE7511AD7512BE7513EFC2AF75FF02B4
:1008800075E404F5E4751AFF751BFF751CFF751DF3
:10089000FF7516FF7517FF7518FF7519FF75FF02B5
:1008A00053E6BF91B6121102B108EF640160024134
:1008B0009690180893FE740193FF90007FEEF0A3CA
:1008C000EFF0F5828E83E493FE740193FFC3EE9400
:1008D00080500280047E807F008E148F159193FFDC
:1008E000F5828E83740293F51E740393F51F7404CE
:1008F00093F508740593F509740693F50A74079344
:10090000F50BC201EF4E700221F4EFF4FFEEF44F4D
:10091000700221F4E514451EFEE515451FFFE508AC
:100920004EFEE5094FFFE50A4EFEE50B4F4E700205
:1009300021F4E51FF4FFE51EF4FEE515F4FDE514D2
:10094000F44EFEED4FFFE509F4FDE508F44EFEEF31
:100950004DFFE50BF4FDE50AF44EFEEF4D4E70023F
:1009600021F47F03120508E50B24FFFFE50A712B34
:10097000640370247F02120508E50924FFFFE508DF
:10098000712BB402137F01120508E51F24FFFFE558
:100990001E712BB40102D2012001597F01120508FA
:1009A000713F900A05E51EF0E51FB1AB71207F0293
:1009B0007134900A05E508F0E509711E7F03713472
:1009C000900A05E50AF0E50B711E7F0112050890FB
:1009D0000A52E0FEA3E0FF7BFF7A187900E42515B8
:1009E000900A06F0E51434E8900A05711F4EC370B2
:1009F00001D39201300109D159EF6401600241969F
:100A0000D2001204C77B017A007964918C741BF0C8
:100A10001206E3900064E0B4800B71D3EF7006120D
:100A2000161BEF6002C20030006830011A9193F586
:100A3000828E83740C93FE740D93FF90007DE06EA4
:100A40007003A3E06F604B90005012025F0000182B
:100A5000001204C71204CCB1A5EF24011204919135
:100A6000867404F01206E390008712048C900087CD
:100A700012167F1204F1F090004F04F01205187462
:100A800040D3950C400C1203C2AF0C121010050C91
:100A900080EDE4FFB1D4E4F510F511F512F5130281
:100AA0001800E0FD900A05E4F0A3EDF0900A00EED6
:100AB000F0A3EFF0A31202B0900A05F1D945F0605F
:100AC00054900A02120290120076900A07F0900ADF
:100AD000031204837D80ED60DF7115EE7C0030E74A
:100AE000027C01900A07E05D7B0060027B01EB6CF9
:100AF000FCEF25E0FFEE33900A00F0A3EFF0AF0427
:100B0000EF600C900A00E06410F0A3E06421F0EDC7
:100B1000C313FD80C1900A00E0FEA3E0FF22A3F012
:100B200051AC900A52EEF0A3EFF022347F8F82F5A1
:100B300083E49322120508900A52E0FEA3E0FF7BB3
:100B4000FF7A80790022900000EEF0A3EFF0A3126C
:100B5000023B900008120253900006E0FFA3E090D1
:100B6000000CCF805F90000CF1D2605EC3EF944028
:100B7000EE94004006A37440F0800590000EEFF064
:100B8000919BE0FF918CEFF090000812023B12065F
:100B9000E390000EE0FFC390000DE09FF090000C8A
:100BA000E09400F090000812024790000EE4FCFD73
:100BB000FE12011C90000812025371CA919B51A2AF
:100BC000900000EEF0A3EFF0809B900000E0FEA309
:100BD000E0FF221204C79180900006E4F07405B192
:100BE000AB9175C006C0071204C7EF240712049129
:100BF0009180900006E4F0A37414F0D007D0069121
:100C000075C006C007120489918091A540067EFF39
:100C10007FFF800690006512023B900006EEF0A375
:100C2000EFF0D007D006917591A540301204C7EFC0
:100C3000241AFFE43EFEED3401FDE43CFC9180907B
:100C4000006512023BEF2401FFE43E900006F0A392
:100C5000EFF0900A56E0FEA3E0FF9175900069E086
:100C6000FEA3E0FF900A56E06E7003A3E06F7F00E2
:100C700060027FFF227146900A56EEF0A3EFF02249
:100C80009000020202537B017A0079839000FDE418
:100C9000F0A32290007FE0FEA3E0227B017A00799E
:100CA0000F90000E22E47FFF7EFFFDFC9000651296
:100CB0000247D3020204E4900A5EF0900A5EE0FF6D
:100CC000D3946F501EEF2410FFB1E6900A5EE0FE51
:100CD000E42EF582E4344FF583EFF0900A5EE004F1
:100CE000F080D87B017A4F7900900A05E4F0A37474
:100CF00070F07F0F7E1D51ACEF4E7F0070027F01C0
:100D0000901218EFF024FF22E49000D2F07B017AD9
:100D10000079BD1213429000BFE0FF7411D39F50C1
:100D20005DE4FFFEFDFC7B017A0A794F9000FDF047
:100D3000A37402F01206E3900A4FE0FEA3E0FFE482
:100D4000FCFDB19F1204C7EF2402120491B19F125F
:100D500015619000CE1202471201F7900A4DEEF095
:100D6000A3EFF09000CE120247900A4D12154FFEED
:100D7000E4FCFD12011CB19F9000D27401F09000C0
:100D8000D2E0FB6017E4FFFE7D02FC9000BFE02490
:100D9000EFF9F81202289000B7120253AF03229025
:100DA00000CE02025390008702023BA3F07F0F7E29
:100DB0001D22E4FFFEFDFC90008391AF7F00400206
:100DC0007F01227F0F7E1D51A4900A0C1202909089
:100DD0000A0F41A2AB07E4FF9000D2E06007D18682
:100DE000D19DE433FF2275FF03E4F597F1E7E59722
:100DF00020E1FB75FF03AF9922900A48EFF0A3EDC5
:100E0000F0A31202B0900A49E06046901218E06028
:100E100012900A48E02410FFB1E6900A4A120290AC
:100E2000EF8017900A48E06401900A4A70071202A6
:100E3000907480800512029074FF1200BC900A4BDF
:100E4000120483900A49E014F0900A48E004F0800C
:100E5000B4227D01B1F97B0122E49000FFF0900003
:100E6000D2E0601C9000B712023BE4FBFA7902F872
:100E7000D3120204500AD1861207949000FFEFF0BB
:100E80009000FFE0FF229000CE12023BEF24FFFF14
:100E9000EE34FFFEED34FFFDEC34FFFC22900A47F8
:100EA000EBF0900A43120253900A4312023B1207DE
:100EB00094900A47E06F603C12000F120734EF6015
:100EC0000512001080F5F17C600B900A4312023B82
:100ED00078101206D8900A431206D4900A431207DB
:100EE000E9900A47E0FF1206DB1207CD9000D774A5
:100EF00001F0D322C3221206DBF1CCEF70FB90008D
:100F0000DAE0F4600A900A5A7406F0F17470FC900A
:100F100000D8E01202B90F32040F3A140F3F150F38
:100F200044170F54300F59340F5E360F63370000EB
:100F30000F4C431A10851A80802F431B10800843E2
:100F40001B208003431B80851B90801D431C208534
:100F50001CA08015431D01800D431D108008431DFA
:100F6000408003431D80851DB0900A5A740CF0F137
:100F70007470FC22900A5AE014F0E0227F011207FC
:100F8000D2D2021207F77F061206DBD1F91207F759
:100F90009000D6E0FF1206DB9000D9E06402221236
:100FA000000F120734EF600512001080F57F011268
:100FB00007D2D2021207F77F06D1F61207F77F0198
:100FC0001206DB7F03D1F6E4FF0207D2E5C8540422
:100FD000FF22E0FEA3E0FF4E2274FFF5F0020106BF
:100FE000AB05E4FCFDC19D75FF038F9875FF0322DF
:100FF00075FF03759701F1E7E59720E1FB75FF03A6
:10100000AF99221204D175FF03E5D5F45402FF22F3
:1010100075FF03EF543F4480F5D1E5D520E20AE5A2
:10102000D520E005E5D530E1F1E5D55403FF75FFA6
:101030000375D5050204D175FF03ACD5EC20E13C66
:1010400075FF03ED543FF5D175FF03E9F5D375FF47
:1010500003EA540FFF900A3DE0C4547044804FF5FA
:10106000D2E5D520E205E5D530E0F6E5D55401FC22
:1010700075FF0343D40275FF0375D505AF04227FC6
:10108000011207D2900A5B7401F0900A5BE06032B3
:1010900051D2120788900A5BEFF0120EF91207770F
:1010A0009000D4EFF0120EF9900A5BE0540151DA8F
:1010B00060D8A3E0F460D3EF30E7CFE4900A5BF0B0
:1010C00080C81207F77F9F1206DB1207889000D5B1
:1010D0001207869000DA1207869000DB1207CB9089
:1010E00000D3E0F4601BA3E0F460169000DAE0FDAA
:1010F000541F240FA3F0EDC413540744809000DA6A
:10110000F0227B017A0079D87F03120E527A00799F
:10111000E17F08120E527A0079DE7D027F09120DFE
:10112000F97B017A0079DC7D027F0B120DF99000CA
:10113000DC120FD26006BEFF1BBFFF189000E1E07B
:1011400024FD600304700451C880099000DCE4F0C1
:10115000A37440F09000E1E024FD60030470089067
:1011600000D97403F080069000D97402F09000D882
:10117000E01202B9119004119B1411A31511AB17C1
:1011800011C13011C93411D13611D937000011B64F
:1011900075FF015316EF8516FD804775FF01531744
:1011A000EF800E75FF015317DF800675FF0153179F
:1011B0007F8517C9802C75FF015318DF8518CA80F9
:1011C0002175FF015319FE801675FF015319EF8039
:1011D0000E75FF015319BF800675FF0153197F85F6
:1011E00019CB120EF97F1151BAE4FF7109117F90EA
:1011F00000D67402F09000DAE0247F6009047015D4
:1012000051C0740A800651E251C07458F09000D960
:101210007403F051C89000DBE0F4600241B7900025
:10122000DEE0FEA3E0FF64104E70069000DB740E5B
:10123000F0EF64204E70069000DB740FF0EF644016
:101240004E70069000DB7410F0EF64804E700690D4
:1012500000DB7411F0E4B5070AEEB401069000DB80
:101260007412F0E4B5070AEEB402069000DB7413C2
:10127000F0E4B5070AEEB404069000DB7414F0E461
:10128000B5070AEEB408069000DB7415F0E4B50764
:101290000AEEB410069000DB7416F0E4B5070AEE0F
:1012A000B420069000DB7417F0E4B5070AEEB440F2
:1012B000069000DB7418F0020F9FEF4420F5FE2229
:1012C0007F1051BA9000D6229000DC7401F0A3E4A4
:1012D000F0221207F77F050206DBF09000D3E0FF53
:1012E000F4229000D3E020E01F7F011207D2120702
:1012F000F77F3D1206DB7F2A1206DB7F801206DBBA
:101300007FA61206DB1207CD22900A5CEFF0900058
:10131000E1E06402702B7F011207D21207F7900AF6
:101320005CE07FAB60027FB91206DB120EF9900A17
:101330005CE09000E0F070047F1EDFFEE4FF120727
:10134000D2229000D5E01200BC9000DAE0900001BB
:101350001200CE9000DBE09000020200CEE4FCFD23
:10136000020794900A2F717FC007900A2F120290F3
:10137000900A32E0FF120C8CEFF0D0070206E31265
:1013800002B0E4FCFD22900A28717FC007900A2871
:10139000120290900A2BB122D00790008F120253B4
:1013A0009000931202B0E49000B6F0D3900097E062
:1013B000941E900096E094004001227B017A00790F
:1013C00098900096E0FFA3E09000FDCFF0A3EFF02F
:1013D00090008F12023B1206E3900093120290E9F4
:1013E0004A600F9000B6E0F58275830012008FFF0F
:1013F00080027F009000B6E02498F582E43400F586
:1014000083E06F6002C3229000B6E004FFF0D39047
:101410000097E09F900096E0940050BD229000E27B
:101420001202539000E61202B0B1139000E9B1220B
:101430009000E212023B719A500281CCB16190009F
:10144000E21202471201F79000EBEEF0A3EFF04E2C
:1014500060319000EBB14FFE9000EBF0A3EFF09005
:1014600000E9E0FCA3E0FDD39FEC9E5006A3ECF066
:10147000A3EDF091CEE94A6004B11980427E007F6D
:1014800000803C9000E9120FD2603F9000DCE0FC4D
:10149000A3E0FDD3EF9DEE9C400A9000EBECF0A39F
:1014A000EDF0800D9000E9E0FFA3E0A3CFF0A3EF03
:1014B000F091CEE94A6004B11980047E007F00906B
:1014C00000E7EE8FF01200F080B9D322C322900023
:1014D000E61202909000EBE0FFA3E09000F4CFF062
:1014E000A3EFF09000E212023B1206709000EBE0D6
:1014F000FEA3E0FFC39000EAE09FF09000E9E09EC9
:10150000F09000E2120247E4FCFD12011C9000E2A0
:101510001202539000E60202909000EBE0FEA3E07E
:10152000FF22E0FFA3E0900096CFF0A3EFF022901F
:101530000A21717FC007900A21120290900A24E0CC
:10154000FFA3E09000E9CFF0A3EFF0D007811DE00A
:10155000FEA3E0FFC39000DDE09FFF9000DCE09E73
:10156000229000DDE024FFFF9000DCE034FFFEE489
:10157000FCFD2212000F120734EF600512001080EC
:10158000F5229000D7E0FF22E49000D7F0229012DD
:1015900018E024FF22901218E060057F10020DE68B
:1015A0007FFF22E4902004F0A3F0A3F0A3F07B01DE
:1015B0007A2079089020011202B0E4902000F022F5
:1015C0001204DFF0900A3512025F0000000080D3A1
:1015D000902004E0FEA3E0FF24081204E8FDEF24BD
:1015E00001FFE43E541F902004F0A3EFF0A3120487
:1015F00049AF0522902006E0FEA3E0FF22902000E4
:10160000E0045403F07F0033333354F8FEEF240832
:10161000F974203EFA7B01A30202B0900054741DBD
:10162000F0A3740FF012049CE490004FF012051820
:1016300090006BE0FEA3E0FF900054E06E7003A307
:10164000E06F7F0060027FFF22EFB40109D2AD7529
:10165000FF0143AE4022C2AD75FF0153AEBF22E58C
:10166000C85402FF75C80222E5C85401FF22900A3F
:1016700058E0FEA3E0FFC3E49FFF74089EFE221221
:101680000253E4FB7A08F9F890005012023B120171
:04169000658F0C2234
:1017FA00043DFFFCFFFF02184E0270801BB07FB849
:10180A00822D1C1613111010FF0270A45A2D576155
:10181A00766520342E363100FF026EF36A6E6A8CCA
:10182A00FF025013556E6B6E6F776E206576656E8C
:10183A00743A20000A002C0020001C5A1C5F1C6409
:10184A00FF0250887581B075FF03759E0212192038
:10185A00023968023187902A19E47E019360F4A361
:10186A00FF543F30E509541FFEE493A360010ECFF5
:10187A0054E0B4E00EEFFAEEF9A3A3A3A3DAFDD97C
:10188A00FB80D654C025E0604B5026E493A3F8545D
:10189A0007240CC8C333C4540F4420C8834004F43B
:1018AA0056800146F6DFE480B001020408102040A9
:1018BA0080E493A3FAE493A3F8E493A3C8C582C887
:1018CA00CAC583CAF0A3C8C582C8CAC583CADFE924
:1018DA00DEE78085E493A3F8E493A34003F680014E
:1018EA00F208DFF40218631958195D1976197B1981
:1018FA00801A2A1A2FFFC06E7419C0E0C082C083F2
:10190A00756E0AE5FF54CF4490F5FF22C06E741934
:10191A00C0E0C082C083756E20E5FF54CF4490F5C5
:10192A00FF22C06E7419C0E0C082C083756E36E5AE
:10193A00FF54CF44A0F5FF22C06E7419C0E0C082E4
:10194A00C083756E4CE5FF54CF44B0F5FF229081F9
:10195A00AA21169087F9211690C02F211690CA2322
:10196A00211690CBC4211690E03D211690E8132150
:10197A001690E82B211690A4E9211690E8EC21167E
:10198A0090B2B5211690EF19211690EE40211690CB
:10199A00B6D2211690EFC5211690EFE1211690BE1E
:1019AA008C211690E544211690F0C5211690C63D6B
:1019BA00211690E3DA211690E461211690E3792149
:1019CA001690E45C211690F0DF211690D9DD2116DD
:1019DA0090E0A6211690E4A0211690E30321169028
:1019EA00DF57211690DC8D211690E4FE211690C156
:1019FA0074211690C5B7211690E5F8211690F1A129
:101A0A00211690F1DC211690F223211690F2412141
:101A1A001690F28C211690F323211690F2D32116F8
:101A2A0090F34A2116908C85211690D5562116904E
:101A3A00D456211690D30E211690F390211690D5E4
:101A4A0040211690D702211690D8A0211690D8F8D6
:101A5A00211690D94B211690E657211690D8E521E8
:101A6A001690F3D9211690DC6E211690D9642116AE
:101A7A0090F407211690F487211690DC6D211690B8
:101A8A00F466211690F1D2211690DBC2211690E657
:101A9A00C4211690DA9E211690F495211690F4E846
:101AAA00211690F4EE211690F4F4211690DC8C2184
:101ABA001690DAAF211690C506211690834021169A
:101ACA009081D7211690D926211690D8AD2116904B
:101ADA00C850211690E667211690E792211690E6E3
:101AEA00A7211690C6E2211690C666211690EE2806
:101AFA00211690E7D8211690D617211690D6F721ED
:101B0A001690D698211690D70D211690AD2421163D
:101B1A0090AB92211690DD5C211690CEFD21169095
:101B2A00F545211690E908211690F592211690DCC8
:101B3A00F3211690F5E0211690EC5C21169080971F
:101B4A0021169080FB2116908000211690815F213A
:101B5A001690BF832142908C51214290C199214213
:101B6A0090C19C214290AD90214290C6B4214290EE
:101B7A00AD002142908B1221429088CE2142908062
:101B8A00E72142908FFF214290C6FE214290C72A48
:101B9A00214290C768214290C813214290C84E2121
:101BAA004290A6EF214290C9072142908B8421429C
:101BBA0090CB96214290816E214290CC99214290FD
:101BCA00A81C214290CCC4214290CD1A214290C92E
:101BDA00B9214290A851214290CE13214290D3FCC0
:101BEA0021429088EE214290D599214290D6042133
:061BFA00429089452142E2
:101C0000908048214290810C214290D63B21429005
:101C1000D665214290D786214290BE09214290ADDF
:101C20003F214290ADB9214290DA7F214290DA847F
:101C3000214290DBEB214290DC14214290DC3A21DE
:101C40004290D8F82142908B1D214290BA622142E5
:101C5000908C732142908646214290DCD72142909D
:101C6000DD68214290A073214290DD1E2142909BAD
:101C7000812142908F982142908D8E214290C0AB5D
:101C8000214290DAC1214290ADCD214290DE4C211B
:101C90004290DA95214290A814214290A5C4214295
:101CA00090D657214290D757214290D94321429054
:101CB000A495214290D97C214290D949214290D9C2
:101CC00070214290D216214290C107214290D21C2D
:101CD000214290BAB9214290BBB9214290DF1A212A
:101CE0004290BB56214290D5E82142908121214269
:101CF00090A473214290E639214290E8122142904B
:101D0000D8D0214290CAB6214290E87C21429093DB
:101D10009B214290E885214290E8D4214290E91825
:101D2000214290E919214290DA5B214290C6A1211B
:101D30004290C6A7214290DD8D2142908F5F2142C3
:101D400090D775214290D67A214290B70D214290CA
:101D5000E92F214290D084214290CFA0214290D3FC
:101D6000FA214290E945214290B508214290D60BD4
:101D7000214290B0BC214290B052214290AFA821A4
:101D80004290AE20214290B1F6214290B1AB214267
:101D9000908000214290B1BE214290B141214290F9
:101DA000AE26214290A9FD212C90A9FE212C9083E2
:101DB000D2212C90ACD5212C90ACD6212C9082D75E
:101DC000212C90B107212C90B1F0212C90B1F5215C
:101DD0002C90B8C3212C90B7CF212C90A464212C37
:101DE000908359212C90A868212C90C56D212C90AE
:101DF0008000212C90CB08212C90CD51212C90CD0E
:101E0000A8212C90C4A9212C90ABFC212C90D1C4EA
:101E1000212C90D2E6212C90A467212C90D8CB21A4
:101E20002C90D527212C90B0B9212C90D9F1212CC0
:101E300090DB5E212C90DB75212C90DCC3212C9053
:101E4000DFC7212C90E066212C90A8E4212C90E1A2
:101E500032212C90E14F212C90B557212C90ECC4CD
:101E6000212C90ECD9212C90ED8A212C90EDA821E9
:101E70002C90EDDB212C90E214212C90EEB3212C40
:101E800090CAFD212C90C848212C90E1F6212C907D
:101E9000D48B212C90835C212C90986B212C90D09A
:101EA0006B212C90D009212C90CDB2212C00E70978
:101EB000F608DFFA8046E709F208DFFA803E8882FA
:101EC0008C83E709F0A3DFFA8032E309F608DFFA32
:101ED0008078E309F208DFFA807088828C83E30956
:101EE000F0A3DFFA806489828A83E0A3F608DFFA30
:101EF000805889828A83E0A3F208DFFA804C80D27E
:101F000080FA80C680D4806980F28033801080A6F9
:101F100080EA809A80A880DA80E280CA8033898251
:101F20008A83ECFAE493A3C8C582C8CCC583CCF0FD
:101F3000A3C8C582C8CCC583CCDFE9DEE7800D89A4
:101F4000828A83E493A3F608DFF9ECFAA9F0EDFBAB
:101F50002289828A83ECFAE0A3C8C582C8CCC583F3
:101F6000CCF0A3C8C582C8CCC583CCDFEADEE8804C
:101F7000DB89828A83E493A3F208DFF980CC88F0BE
:101F8000EF60010E4E60C388F0ED2402B4040050EF
:101F9000B9F582EB2402B4040050AF232345822319
:101FA000901EFE73BB010689828A83E0225002E7FD
:101FB00022BBFE02E32289828A83E49322BB010BC7
:101FC00089828A83F8E0C828F0E822500327C722D4
:101FD000BBFE07F8E3C828F3E8228A838982E493EA
:101FE00022BB010CE58229F582E5833AF583E022E4
:101FF0005006E92582F8E622BBFE06E92582F8E2D2
:1020000022E58229F582E5833AF583E49322BB0138
:102010000989828A83F8E028F022500327F722BB3F
:10202000FE05F8E328F3228A838982F8E4932822C4
:10203000BB010FF8E58229F582E5833AF583E028B4
:10204000F0225009C58229F8E58226F622BBFE0956
:10205000C58229F8E22582F222F8EA2583F583E990
:10206000932822BB010689828A83F0225002F7223C
:10207000BBFE01F322F8BB010DE58229F582E58361
:102080003AF583E8F0225006E92582C8F622BBFE25
:1020900005E92582C8F222EF8DF0A4A8F0CF8CF0DC
:1020A000A428CE8DF0A42EFE22BC000BBE0029EF8A
:1020B0008DF084FFADF022E4CCF875F008EF2FFF2F
:1020C000EE33FEEC33FCEE9DEC984005FCEE9DFEFD
:1020D0000FD5F0E9E4CEFD22EDF8F5F0EE8420D244
:1020E0001CFEADF075F008EF2FFFED33FD400798B3
:1020F0005006D5F0F222C398FD0FD5F0EA22C2D5E2
:10210000EC30E709B2D5E4C39DFDE49CFCEE30E77A
:1021100015B2D5E4C39FFFE49EFE1220A9C3E49D3F
:10212000FDE49CFC80031220A930D507C3E49FFF87
:10213000E49EFE22C5F0F8A3E028F0C5F0F8E582A1
:10214000158270021583E038F022A3F8E0C5F0256F
:10215000F0F0E582158270021583E0C838F0E822BD
:10216000BB010A89828A83E0F5F0A3E0225006874A
:10217000F009E71922BBFE07E3F5F009E31922890C
:10218000828A83E493F5F074019322BB0110E58207
:1021900029F582E5833AF583E0F5F0A3E0225009C2
:1021A000E92582F886F008E622BBFE0AE92582F8D6
:1021B000E2F5F008E222E5832AF583E993F5F0A33E
:1021C000E99322BB010DC58229C582C5833AC58327
:1021D0000221345011C58229F808E5F026F618F5D9
:1021E000F0E58236F622BBFE11C58229F808E22509
:1021F000F0F5F0F218E23582F222F8E58229F58254
:10220000E5832AF58374019325F0F5F0E4933822F1
:10221000BB010A89828A83F0E5F0A3F0225006F719
:1022200009A7F01922BBFE06F3E5F009F31922F81D
:10223000BB0111E58229F582E5833AF583E8F0E5F3
:10224000F0A3F0225009E92582C8F608A6F022BBC7
:10225000FE09E92582C8F2E5F008F222EF2BFFEE35
:102260003AFEED39FDEC38FC22C3EF9BFFEE9AFEFF
:10227000ED99FDEC98FC22E88FF0A4CC8BF0A42C17
:10228000FCE98EF0A42CFC8AF0EDA42CFCEA8EF084
:10229000A4CDA8F08BF0A42DCC3825F0FDE98FF06B
:1022A000A42CCD35F0FCEB8EF0A4FEA9F0EB8FF062
:1022B000A4CFC5F02ECD39FEE43CFCEAA42DCE35EA
:1022C000F0FDE43CFC2275F008758200EF2FFFEE74
:1022D00033FECD33CDCC33CCC58233C5829BED9A52
:1022E000EC99E58298400CF582EE9BFEED9AFDECB0
:1022F00099FC0FD5F0D6E4CEFBE4CDFAE4CCF9A8F6
:102300008222B800C1B90059BA002DEC8BF084CFFD
:10231000CECDFCE5F0CBF97818EF2FFFEE33FEEDD4
:1023200033FDEC33FCEB33FB10D703994004EB99FE
:10233000FB0FD8E5E4F9FA227818EF2FFFEE33FE11
:10234000ED33FDEC33FCC933C910D7059BE99A4046
:1023500007EC9BFCE99AF90FD8E0E4C9FAE4CCFB5E
:102360002275F010EF2FFFEE33FEED33FDCC33CCB2
:10237000C833C810D7079BEC9AE899400AED9BFD3B
:10238000EC9AFCE899F80FD5F0DAE4CDFBE4CCFA4E
:10239000E4C8F922EF5BFFEE5AFEED59FDEC58FC64
:1023A00022C3E49FFFE49EFEE49DFDE49CFC22EB3F
:1023B0009FF5F0EA9E42F0E99D42F0EC6480C8642B
:1023C000809845F022EB9FF5F0EA9E42F0E99D42AD
:1023D000F0E89C45F022E8600FECC313FCED13FD20
:1023E000EE13FEEF13FFD8F122E8600FEFC333FFC7
:1023F000EE33FEED33FDEC33FCD8F122BB0107894F
:10240000828A8302248A5005E9F8022969BBFE0505
:10241000E9F802297589828A83022496BB010DE5B9
:102420008229F582E5833AF58302248A5007E9255B
:1024300082F8022969BBFE07E92582F8022975E5C1
:102440008229F582E5833AF583022496BB01078948
:10245000828A830225175005E9F80229ABBBFE05E5
:10246000E9F80229B722BB010DE58229F582E5834F
:102470003AF5830225175007E92582F80229ABBBFC
:10248000FE07E92582F80229B722E0FCA3E0FDA3BC
:10249000E0FEA3E0FF22E493FC740193FD74029339
:1024A000FE740393FF22E0F8A3E0F9A3E0FAA3E0AF
:1024B000FB22BB010DE58229F582E5833AF5830213
:1024C00024A65007E92582F8022981BBFE07E925E9
:1024D00082F802298EE58229F582E5833AF58302A6
:1024E000299B7401FF3395E0FEFDFCA3A3A3E02F1D
:1024F000FFF0E582158270021583E03EFEF0E58272
:10250000158270021583E03DFDF0E58215827002B0
:102510001583E03CFCF022ECF0A3EDF0A3EEF0A379
:10252000EFF022A8828583F0D083D08212253A1260
:10253000253A12253A12253AE473E493A3C583C5DC
:10254000F0C583C8C582C8F0A3C583C5F0C583C8DC
:10255000C582C822BB010789828A830225235005D0
:10256000E9F80229C3BBFE05E9F80229DC22BB0118
:102570000DE58229F582E5833AF58302252350078C
:10258000E92582F80229C3BBFE07E92582F8022962
:10259000DC22F5F0C582A4C582C5F0C583A42583DD
:1025A000F58322A42582F582E5F03583F58322E0C8
:1025B000FBA3E0FAA3E0F922F8E0FBA3A3E0F925EE
:1025C000F0F0E582158270021583E0FA38F022EB14
:1025D000F0A3EAF0A3E9F022E493FB740193FA7408
:1025E0000293F922BB010789828A830225AF500535
:1025F000E9F80229F5BBFE05E9F8022A0789828A73
:10260000830225D8BB011A89828A83D0F0D0E0F8F2
:10261000D0E0F9D0E0FAD0E0FBE8C0E0C0F002255D
:10262000CF5016E9F8D083D082D0E0F9D0E0FAD0CC
:10263000E0FBC082C0830229FEBBFE16E9F8D0830E
:10264000D082D0E0F9D0E0FAD0E0FBC082C08302B3
:102650002A1022BB010DE58229F582E5833AF58334
:102660000225AF5007E92582F80229F5BBFE07E9EC
:102670002582F8022A07E58229F582E5833AF58367
:102680000225D8BB0120E58229F582E5833AF5834E
:10269000D0F0D0E0F8D0E0F9D0E0FAD0E0FBE8C02C
:1026A000E0C0F00225CF5018E92582F8D083D0820F
:1026B000D0E0F9D0E0FAD0E0FBC082C0830229FE6E
:1026C000BBFE18E92582F8D083D082D0E0F9D0E0B3
:1026D000FAD0E0FBC082C083022A1022D083D082CD
:1026E000F8E4937012740193700DA3A393F874012E
:1026F00093F5828883E4737402936860EFA3A3A3C5
:1027000080DFD083D082E4937012740193700DA3A4
:10271000A393F8740193F5828883E4737402936C35
:1027200070127403936D700C7404936E70067405CC
:10273000936F60DDA3A3A3A3A3A380CA8A83898226
:10274000E473E5692582F582E5683583F583B5682C
:10275000048582692210AF06858269F56822858228
:1027600069F568D2AF22EC8EF0A4CCC5F0CCCDF8E0
:10277000EFA4CEC5F02DFDE43CFCE8A42EC8C5F0C6
:102780003DFDE43CFCEFA4FFE5F028FEE43DFDE464
:102790003CFC22E3F5F009E208B5F06BDFF5806759
:1027A000E3F5F009E608B5F05EDFF5805A87F00939
:1027B000E608B5F052DFF6804E87F009E208B5F082
:1027C00046DFF6804288828C8387F009E0A3B5F06B
:1027D00036DFF6803288828C8387F009E493A3B5D4
:1027E000F025DFF5802188828C83E3F5F009E0A3F2
:1027F000B5F014DFF5801088828C83E3F5F009E4EE
:1028000093A3B5F002DFF40228C2808780E98090AC
:1028100080D4803E8015806E807E809D80B7808DC4
:1028200080A380518074803C0228CE89828A83EC08
:10283000FAE493F5F0A3C8C582C8CCC583CCE49371
:10284000A3C8C582C8CCC583CCB5F076DFE3DEE192
:10285000807089828A83E493F5F0A3E208B5F06280
:10286000DFF4805E89828A83E0F5F0A3E608B5F0A4
:1028700051DFF5804D89828A83E0F5F0A3E208B547
:10288000F040DFF5803C89828A83E493F5F0A3E68B
:1028900008B5F02EDFF4802A8002805789828A836F
:1028A000ECFAE493F5F0A3C8C582C8CCC583CCE0AC
:1028B000A3C8C582C8CCC583CCB5F006DFE4DEE290
:1028C00080007FFFB5F0020F2240027F0122898243
:1028D0008A83ECFAE0F5F0A3C8C582C8CCC583CCE6
:1028E000E0A3C8C582C8CCC583CCB5F0D5DFE5DE92
:1028F000E380CF89828A83ECFAE0F5F0A3C8C58231
:10290000C8CCC583CCE493A3C8C582C8CCC583CC4E
:10291000B5F0AFDFE4DEE280A988F0EF60010E4E93
:1029200060ABED2402B404005098F582EB2402B4AD
:102930000400508E232345822390280A73EF4E60B3
:1029400012EF60010EEDBB010B89828A83F0A3DFD9
:10295000FCDEFA2289F05007F709DFFCA9F022BB60
:10296000FEFCF309DFFCA9F022E6FC08E6FD08E620
:10297000FE08E6FF22E2FC08E2FD08E2FE08E2FFB4
:1029800022E6FB08E6F908E6FA08E6CBF822E2FBC5
:1029900008E2F908E2FA08E2CBF822E493F87401BD
:1029A00093F9740293FA740393FB22ECF608EDF6A4
:1029B00008EEF608EFF622ECF208EDF208EEF20867
:1029C000EFF222D083D082E493F608740193F608E4
:1029D000740293F608740393F6740473D083D08260
:1029E000E493F208740193F208740293F2087403FA
:1029F00093F2740473E6FB08E6FA08E6F922EBF6B4
:102A000008EAF608E9F622E2FB08E2FA08E2F9220F
:102A1000EBF208EAF208E9F2224103C8004103C7D9
:102A200000E00202000014F5E002020002120EE0D3
:102A30000102000954E00102000AA5E00502120BA0
:102A4000120E02043D4106B6060114004106B5010E
:102A50004106B301C115011900011700433AA40052
:102A60000000423AA2000041412500E0020212109B
:102A700001B0E00102121200E00102129300E00531
:102A80000213BB01B006043DC118C1094130090061
:102A9000413083FF41307B00C108C10741308400D1
:102AA0004130850041307C01C10B41300800414874
:102AB000FD00C138433E50000000413E4F00413E02
:102AC00053004303BE0000004303BB0103BE423278
:102AD00047980743463700000043463401463741D4
:102AE000480E0241480D0D41480F086020399342BD
:102AF000DB010000000000000000000000000000FA
:102B00000000000000000000000000000000006065
:102B10002039B309000000000000000000000000A0
:102B200000000000000000000000000000000000A5
:102B3000000000503CFC000000000000000000000D
:102B4000000000000000C10F015800C10CC10DC100
:102B500019C11BC12042238C984041238E00602064
:102B6000234B0000000000000000000000000000F7
:102B70000000000000000000000000000000000055
:102B800000004320009F01005020030000000000CF
:102B90000000000000000000000001612226060085
:102BA0000201050101020E060101000407040102F1
:102BB00003000004000608050402080314040004CE
:102BC00000140501080908050208031405000400A3
:102BD0001405000600140802020A0A080203010094
:102BE0000800040014080006001408010800140A74
:102BF000020D000A0A020C000A0A02080B0A0A0166
:102C0000050C0E0A000400140A000600140A01084C
:102C100000140E000A0D110E020804140E00040028
:102C2000140E000600140E010800140E0105001415
:102C300011000C0C0E1102080414110004001411F0
:102C40000006001411010800141101050014110000
:102C50000A00141102050E12120208041412020CCA
:102C60000F001200040014120006001412010800E4
:102C700014120105001412000A00141202050014B7
:102C800012000C001413020C0100000209000000E5
:102C9000020F0000140209010014020B00131400BB
:102CA00007100014020A0100140204001414020C9C
:102CB000001414020D010014020E001414020F017E
:102CC00000602428110200FFFF0602FF000602FF39
:102CD000000301FF002300FFFF03000000130000BA
:102CE0000002000101030000004627680100020104
:102CF00004024227EE1D1D41287500412A0F0141A3
:102D0000287B0043287801283643286C0128364167
:102D100009CD0060200896EDFFFFFFFFFFFFFFFFDA
:102D2000FFFFFFFFFFFFFFFFFFFFFFFFFFFFFFFFB3
:102D3000FFFFFFFFFFFF7F4F2B72FF333511FF3384
:102D40004604FF334A0D031004492A124C69666594
:102D50006C696E65004C2B8D45502031207377696E
:102D6000746368004C2B9A45502032207377697445
:102D70006368004C2BA6455020332064696D6D6557
:102D80007200602A2B411001FF335707FF335E03A7
:102D9000FF3361061001FF335707FF335E03FF3334
:102DA00061061101FF336707FF336E03FF337106BE
:102DB000432B6B030000442B3C71055A01422A1B34
:102DC0007105608A2AA971087105616C61726D20B4
:102DD000455020310000000000000000000000000D
:102DE00000000000000000000000000000000000E3
:102DF0000000000071087105616C61726D20455022
:102E00002032000000000000000000000000000070
:102E100000000000000000000000000000000000B2
:102E2000000071087105616C61726D20455020339E
:102E30000000000000000000000000000000000092
:102E40000000000000000000000000000000000082
:102E5000602E2A1E71087105616C61726D204550EB
:102E60002031000000000000000000000000000011
:102E70000000000000000000000000000000000052
:102E80000000602E2A4C71087105616C61726D2022
:102E9000455020320000000000000000000000004B
:102EA0000000000000000000000000000000000022
:102EB00000000000602E2A7A71087105616C617251
:102EC0006D2045502033000000000000000000008D
:102ED00000000000000000000000000000000000F2
:102EE0000000000000004C2B8107000700070007CE
:102EF0000006000600412BB300412B4020412A115F
:102F000001412A10FFC13D412A1D00492B33020116
:102F100002030202040302412AA803412B9908E09C
:102F2000020213C00121E0030214D8FFFFFFE005F5
:102F30000214DC0121040132E0020214E10013E07A
:102F40000C0214E30000030B0003000B0132043DEC
:102F5000E0050214EF0013FF0132E0020214F40056
:102F6000004440BF000000004240C700004440C38E
:102F7000071022324640B960666A6E7276413D3F64
:102F800000413D3C004347B40000004147B300C14D
:102F9000454145ECFF4145EA04C1C64145E70041D2
:102FA00045EB004145E8FF432CF7000000412BB4FE
:102FB00000412E4801C14A423DFF0000413DFE0054
:102FC000C1504140D6004140D1004140C90041407C
:102FD000D2004140D5004140CC004240CA000042EE
:102FE00040D7000043426F00000041426D00414263
:102FF00072004447BB00000000C152413B9B0041AE
:103000003D78285B3D5C00000000000000000000EF
:1030100000000000000000000000000000000000B0
:1030200000C156413B9A00503B26000000000000C2
:1030300000000000000000000000453B36000102D7
:103040000480473AB000000000000000433AAD00A1
:1030500000004142820141428A00414286004142D1
:1030600085004142890042428700004242830000BD
:1030700041427F00413C8F00C15A4C428B100000FE
:10308000000000110000000000C15D4108D220C115
:103090005F0072657365740063736100476F74202D
:1030A000697421006C6D73006C6D6500776472004B
:1030B0005A57005A57206170703A0D0A002046692D
:1030C000726D776172652049443A20000D0A2056DE
:1030D000657273696F6E3A200054797065202761BC
:1030E00020637361203C3130206469676974206B10
:1030F00065793E2720616E64207072657373204588
:103100006E7465722E003E20001DEA1DEFC2D5E8E8
:1031100030E70FB2D5E4C39BFBE49AFAE499F9E4F3
:1031200098F8EC30E717B2D5123143122302E4C30A
:103130009BFBE49AFAE499F9E498F88003122302DD
:1031400030D50DE4C39FFFE49EFEE49DFDE49CFCAE
:103150002278B0E4F6D8FD9000007F007E10E4F005
:10316000A3DFFCDEFA904935A3E583C39420401128
:10317000FEAF829020000E0FE48002F0A3DFFCDEA1
:10318000FA12192002186022325A43425F746573A2
:10319000745F696E746572666163655F706F6C6C95
:1031A000000D0A4368616E6E656C73206172653A4A
:1031B000000D0A09203E001EA84170704576536339
:1031C000686564756C6572001E261E2B1E301E35E8
:1031D000EF9031D993901900730A20364CE56EFFB9
:1031E00022EFF56E2200000100000000170600002B
:1031F000000018060000000618060000000118066E
:103200000000000818060000000101010000000194
:103210001500000000010204000000010B04000082
:1032200000060B04000000080B04000000010D0064
:10323000000000010E040000000110000000000169
:103240000F00000000040501000000040606000055
:10325000000407080000000205000000000305014B
:103260000000000108050000000008000000000147
:103270000C0100000001120500000008030200001C
:1032800000012200000000081608000000080800E5
:1032900000000001160100000006160100000005F4
:1032A0000903000000050A000000000503020000F9
:1032B00000050400000000061B06000000011B06BC
:1032C000000000061C07000000061D0700000007A4
:1032D0000508000000081E0700000008200000008C
:1032E00000081F000000000821000000000811066F
:1032F0000000000111060000000822000000000686
:103300001906000000061E00000000062000000054
:1033100000061A080000000614010000000714014E
:10332000000000081B060000000724000000000841
:1033300014010000005E2526858E59715586725A4B
:1033400073989F606C7A5E55989F86252671858E4E
:103350005960725A736C7A5E2585598E716C5E98CD
:103360009F2585598E716C5E2685598E716C5E988D
:103370009F2685598E716C00011DC21DC71DCC1D75
:10338000D11DD65555555555555555555555555528
:1033900055553333333333333333333333333333B9
:1033A0003333888888888888888888888888888847
:1033B000883F241E16110E0B09070504030201F0B5
:1033C000C8A7917767604638353230242220140030
:1033D00001010202030304040505060607070000B5
:1033E00000000000000000000000000000000000DD
:1033F0000000000000000000000000000087888836
:103400008888888888888888888888888826262662
:1034100026262626262626262626262626000D456C
:10342000DA000D403000000000020C00013F3F3F79
:10343000040404353535000000004C6966656C698C
:103440006E6500496E76616C69642067726F757095
:103450000019B219B719BC19C119CB19DF19E41930
:10346000E91D401D4A1D4F1D541D591D5E1D631D44
:103470006D1C191C281C2D1C321C371E5D1E621E63
:10348000671E6C1E711A661A6B1A9D1DF41DF91DBC
:10349000FE1E0D1E121E171E3F1E441E491E4E1EEE
:1034A000531E761E7B1E801E851E8A1E8FFF020104
:1034B0001BC41D361E3A5A01200325031E581EA3A5
:1034C00059BC5D4CE4FD7C0CAB050DEB90181693DC
:1034D0008F828E83F00FBF00010EDCEC7F03228F02
:1034E000828E83E4F0A3740491F2743D91F2A3E41C
:1034F000F022F08F828E83A3A3229003CF7402F078
:103500009003C7E0FF121DAE9003CF7405F02212A6
:103510004970121A34121B0612199E121C141274CE
:10352000417002A1F57FFF121AC090093F1225CF0A
:103530007E007F09D155BF540D7E007F0AD155BF53
:10354000A5047F0180027F009003C7EFF0F1D1E96D
:103550004A4B701D7F04FED155EF2401FFE433FE7A
:10356000C374011256747F0050027F019003C7EFAD
:10357000F09003C7E06401704EF1D11272777A09BE
:103580007945125B6E900945E0FEA3E0FFF1D11290
:103590007372E92407F9E43AFA9009421225CFE957
:1035A0002408F9E43AFEAF017B017A097945125B00
:1035B0006E900945E064017004A3E0643260081273
:1035C0001AC59003C7EFF09003C7E070207E007F1C
:1035D00004C006C374F59404FE741412716DD00611
:1035E0001248FE74FFFDFCE4FFFE121ACA9003C7E6
:1035F000E0FF121AED1274417F0060027F01121980
:10360000F31219FD1219621271D2121B6A124017BD
:10361000FE4FFDA3E0FC4DFDA3E0FB4D600BEE5F14
:10362000FFEC5FFFEB5FF47003123D6290121CE051
:10363000FF5403241EF582E43412F583E06F9003F7
:10364000C2F0021BE275F002A42485F9740F35F074
:103650007B02FEAF01E4FCFD9046C8122517F1DDA8
:10366000F10DEF600512403880F6F1EC7F03125D3A
:103670001C600A9046C812248A7810D1999046C8D6
:10368000D1949046C8F1D7F1659046CCF1BE9046F2
:10369000CCE0FF2212248A78081223D6E4E5C82061
:1036A000E2FB8FEB2290438312251790438712256C
:1036B000CFF1DDF10DEF600512403880F6125D02AA
:1036C000600A90438312248A7810D199904383D161
:1036D0009490438312248AE4802690438A125CE308
:1036E00060229043871225AFEA494B6011904387CF
:1036F000124E48FFD19D90438812508180DCE4FF38
:10370000D19D80D6F1C090411C7401F0227F01F15F
:10371000C5303616124FD9F1659048F9EFF0124BCB
:10372000569048F9E020E002C23630361DF1549040
:103730004119EFF0904118E0FFF4600BA3E0F46052
:1037400006EF30E702C236124B56E4FFF1C5A2364F
:10375000E433FF22F1F07FD7D19D7FFFD19DF16946
:10376000904118EFF07FFFD19DE5C820E2FBAFEB61
:10377000229046CD1225179046CD12248AD158901A
:1037800046D1E06F6036F1DDF10DEF600512403893
:1037900080F6125D02600A9046CD12248A7810D11C
:1037A000999046CDD1949046CDF1D79046D1E0FF87
:1037B000D19DF1C090411C7401F0D322C322EFF0DF
:1037C000124B56E4FFEFB4010443FE202253FEDF08
:1037D0002290093F0225AF12248AE4C19D75FF02A1
:1037E000E5E430E10675E40675E403227F01F1C5E6
:1037F00090411DE01226DC381304381B14382015C4
:10380000382517383530383A34383F3638443700A1
:1038100000382D5354EF855480802F5355EF800886
:103820005355DF800353557F855590801D5356DFD8
:103830008556A080155357FE800D5357EF800853CF
:1038400057BF800353577F8557B07F0CDFFE22752B
:10385000FF0275E40475E40175E4022275FF027548
:10386000E404E4F5E42290099AEFF090099CEBF06F
:1038700090099BEDF0540290123AF012743A6006EF
:10388000F1EF5002C322121C4BEF6002C322125B05
:10389000B4EF6002C322125BE790099AE0B4040B14
:1038A000A311ED90099A7403F0802590099AE064C1
:1038B000057018901224E090099B30E50611ED7F09
:1038C0001F800411F5E4FFF1CD800590099B11F5EF
:1038D00090099AE09003C8F090099CE0901239F0AA
:1038E000125F979003D0EEF0A3EFF0D322E0FB7DC0
:1038F000017F018006E0FB7D01E4FFEB600875FFBE
:103900000153CDFD800675FF0143CD02ED600553E7
:10391000FBDF800343FB20EF600775FF0243E140BC
:103920002275FF0253E1BF22901243E0FD7F011296
:103930005A99901224E090123A30E50611ED7F1F5B
:10394000800411F5E4FFF1CD7F0143FB1075FF0208
:1039500043E640EF600D75FF02E5E120E7FB43FB26
:103960000D800343FB0E80FE75FF0275E404E4F551
:10397000E4C21475FF02901215E0603BE5E65403C3
:1039800064017033121A16126862401F901239E0F7
:10399000600DE014F07008123151E4901215F090AF
:1039A0001215E07002414531284145123151D214BF
:1039B000E4901215F04145123151126A959003C9F5
:1039C000EFF0901200E0B47A14901214E0B49C0D61
:1039D0009003C9E0FF64056004EFB40330E4900392
:1039E000CEF09003CEE0FFC394805013E42FF58215
:1039F000E43412F583E4F09003CEE004F080E39029
:103A00001200747AF0901214749CF0D210121BF60B
:103A10004003121BF17B017A1279107D017F0112A4
:103A20001BEC7B017A1279117D017F21121BEC7B4B
:103A3000017A1279127D017F22121BEC7A1279230E
:103A40007F02124FC4901223E0B401057F01126E71
:103A5000DE121A1B126A95121A119003C9EFF012A6
:103A600019A3121A0C9003C9E0FFB40602800C30AF
:103A700014047F0280059003C9E0FF121DA9EF2402
:103A8000FFB3923875FF0253E6BF1274416005E43C
:103A9000901215F0124FED121A2512350F30100A40
:103AA0007B017A1279257D10F116121A57901215A2
:103AB000E0700F20380C1234FA7B017A30798C12C6
:103AC00019D0901224E030E00280033014047F010A
:103AD00091DBD2AF203802615E121C0F12404D12F2
:103AE0001DB3121BE740F29003C8E06045121A486C
:103AF000EF7005125FCF403AE51470FCE51520E544
:103B00000291F6121B65EF70FA1269F850097F01F5
:103B10007E001269E850057F01124C799003C8E0DD
:103B2000B40204E4FF80099003C8E0B403047F01F9
:103B3000314A121A3EE51530E19F12721E4002E42E
:103B4000F0E51520E50491369154127252C0E091CF
:103B5000449003CBE0FDD0E0FF12199941D9124700
:103B6000F6F1FE5002B1629003C8E0606190300946
:103B7000E0705B121A48EF7005125FCF4050E514F9
:103B800070FCE51520E509901224E020E00291F692
:103B9000121B65EF70FA1269F850097F017E00125E
:103BA00069E850057F01124C799003C8E0B4020324
:103BB000E480189003C8E0B403047F01800E9003F2
:103BC000C8E0B405099012157401F0FF314A121CC7
:103BD0000F12404D121BD8121DB8201105121A3EAB
:103BE0008022125F979003C1E0FEEFC39E4005EF75
:103BF0009EFF80089003C1E0F4042FFF7406D39F5A
:103C00005002C211E51530E12212721E4002E4F0AA
:103C1000E51520E50491369154127252C0E09144AA
:103C20009003CBE0FDD0E0FF121999121BB5121AD8
:103C30005212483E615E9003CAE0FD75F0AA9003FF
:103C4000D21225A3ED75F002A424C3F9740335F054
:103C5000FA7B0122AF82AE837D01900954125EADE2
:103C6000E5147076F16C5004C234B11C900954E034
:103C7000FEA3E08E11F512A31225AF9006B7122510
:103C8000CFAE11AF127DAA126FF0E4F5FF75D90126
:103C9000F510E5155421602BE51530E504E4FFF13E
:103CA0007CE4900959F0900959E004F01244F9EFCE
:103CB0006009900959E0C3941040EB7F02121DA4E3
:103CC0005315DE9006B3E07F00B403027F01F1BE1E
:103CD000D234B11CD2EBA21392ED22EF600C9136DC
:103CE000AF82AE83E4FD915A8009121A4D91F6E439
:103CF00033FF227F0122E5147020F16C5004C2349E
:103D0000B11CF1D3F1F2E5D120E0FB4315205315AE
:103D1000FEE4F510A21392EDD322C3229048F5E5FC
:103D2000F4F0E0547FF5F47F827E00126242124785
:103D3000345005E5FC20E6F63034089048F5E044C0
:103D400080F5F412623E1247345005E5FC20E6F699
:103D500075FF01E5D520E702C322E5F4D330E60183
:103D6000C322E4FF91DBEF603FF165B1A9500990F8
:103D7000121EE0C394C040F17B017A127920B1A9F0
:103D8000500F1240175FFFA3E05FFFA3E05FF460F6
:103D9000E7901224E030E0047F0191DBE490121CF4
:103DA000F0F165E0FD121B6F22904297D1F4904232
:103DB0009D122523000000019042A17401F0F5FF3F
:103DC000E5D554C07004F1745002C322E4F5FF53EA
:103DD000967F75FF0175D5041244E975FF0143D53F
:103DE00008E4F5FF5394FBF5FF53847FF5FF7598C6
:103DF000FF90429BE5F4F075F49C75FF01A3E5E4A8
:103E0000F075E4257B017A4279A1126B529042A1B0
:103E1000E064016002C1D2F5FF90429A7414F09000
:103E2000429DF10BFF78011223E990429D12251764
:103E3000E5A730E1FB43A70290429DF10BFFE5A708
:103E400030E005E47B018002E4FBFAF9F8EF4BFF78
:103E5000EE4AFEED49FDEC48FC90429D122517907C
:103E6000429AE014F070B890429DF10BFF78101266
:103E700023D67B6D7A4E79C67841122277EF2439AA
:103E8000FFEE34301262EAFCE4FBFA7901F8122307
:103E900002EE547FFEE4FDFC12677290429DF10B2E
:103EA000FFEB6FFFEA6EFEE8CDEFCDCCEECCECFF82
:103EB000904297F1E4EF122063904297F1E4900072
:103EC00001ED12207590120FE030E606E4F5FF7563
:103ED000968075FF01E4F5D590429BE0F5F475FFFF
:103EE00001A3E0F5E4126BD49042A1E0B40103D346
:103EF0008001C322EBF0A3EAF0A3E9F022E025E081
:103F000025E02401F582E43412F583E0FCA3E0FD12
:103F1000A3E0FEA3E0229009711225CF900974ED71
:103F2000F0E4A3F0ED54FE900974F0602EE4FF91EC
:103F3000DBBF01279009711225AFB1A9501D90096F
:103F400072E475F002122134900975E02402F090B9
:103F50000975E0FF900974E06F70D97F0191DB90E3
:103F60000975E0FF227B017A12791E22C2EBA2EDD5
:103F70009213C2EDE5F4C330E701D32275FF01E5EA
:103F8000D530E602C322E4F5FF439A80EF12675D65
:103F9000E4F5FF539A7FD322C234B11CF1F2E5D18C
:103FA00020E0FBE4F5FF75D9019006B3E07F00B493
:103FB00003027F01F1BED234B11CE4F51022F17C82
:103FC00043FA04E4F5FF53D1FD43D1012275FF020A
:103FD0008FE3221266DB7F08021DA4C2AFEFF4520A
:103FE00015D2AF22E0FBA3E0FAA3E0F92280DEA223
:103FF0001422E4F5FFE5D154FE4402F5D1229012DB
:104000001CE070111240174FFFA3E04FFFA3E04FD9
:104010007003D38001C32290121EE0FFA3E0229020
:1040200003C2E064AA2411FFF022AE07111FEE04C0
:10403000FEEF8EF084AFF022E51530E20FE515209B
:10404000E50AE51530E0057F01123CDB22E49048EB
:10405000F2F0D3900001E09400900000E094004062
:104060006B9048F2E0FF04F0EF9405505F90000081
:10407000127243E4F56B11CD1258ED604111CD740D
:10408000FF1224E4125925703511DDE0FF6008F4B9
:10409000600511DDE014F011DDE0600FE56B1259F1
:1040A0001212248A11CD1225178007E56B1258458C
:1040B000E4F011ED4E600511ED1273F61138056B49
:1040C000E56BC3940E40AF121B01808622E56B7531
:1040D000F00CA42486F582E43431F58322E56B7577
:1040E000F00CA42490F582E43431F58322E56B755D
:1040F000F00CA4248EF582E43431F583E0FEA3E0D5
:1041000022904453ECF0A3EDF0AB07A312248A12E3
:104110005911122517EB11CF122517904459E0FFC2
:10412000EB11DFEFF0904453E0FEA3E0FFEB75F0FE
:104130000CA4248EF582E43431F583EEF0A3EFF085
:1041400022903EF8122517E4F5FF75BB0575BB8577
:1041500075FF0175D502202E0491E9B1B275FF01FA
:1041600043D520302E024105E4F5FF538EF7438EF0
:10417000077D04E4F5FF8DBCF5FF43B102E5B130E6
:10418000E2FBE4F5FFAFDFEFFEACDEECFBEBFFEDB7
:1041900025E024F6F582E4343E3139E4F5FFF5FFFD
:1041A00053B1FD0DEDB40CCB903EF8123F0BFF78F0
:1041B000091223D6A3126A67FDED25E02400F582DB
:1041C000E4343FF583E0C313FAA3E013FB511FF57A
:1041D00083E0C313FEA3E0132BFFEE3AFE511F3121
:1041E00039ED240490120DF0EDC394075017CFED74
:1041F000CF0DEF512011FAFFC3903EFDE09F903E9E
:10420000FCE09E50B4E4F5FF758EC8F5FF90120DEA
:10421000E0F5BCE4F5FF75BB8075FF01F5D522ED37
:1042200025E024FEF582E4343E22E4F5FF758EC8D5
:10423000B1B275FF0153D5FBB1AB7F147E007103A2
:1042400075FF0343918022C21CE49047D1F0C21D48
:10425000A3F0A3F075FF01E5D520E702C322C23524
:10426000F10D201C0241F453F4DF9047D1E0FF121E
:104270003F7CF1DA301D0543F440800353F4BFE482
:10428000F5FF53F5F09047D2E0FAA3E0FBEA42F5E0
:10429000EBF5F6D235F10D7FC8513CE4F5FFE5931F
:1042A00020E604F13440F4301D57E5F430E3047D9A
:1042B000288010E5F430E2047D288007E5F430E141
:1042C000027D28B1AB7F28513CF13440FC7F78510E
:1042D0003CF134502C126D8350F7126D5EEFC39D8C
:1042E00050EF126D8350EAE5F720E5E5C235F10D98
:1042F000B1AB80DD53F4BF126785400543F420F174
:10430000EFD32275FF03D3EF9402EE9400400874BC
:10431000FE2FFF74FF3EFEEFF592EE540FF5912253
:10432000903CDC122517903CEC7401F0E4A3F0D132
:104330001675FF02E5E630E00E903CED7401F0FBEF
:104340007A3C79ED126B52903CF7122523002DC672
:10435000C0E4F5FFF5A490120FF0903CEE7402F06B
:1043600075FF03903CEEE0FFF595EF1460191460C3
:104370002824027039903CDC123F0BFF903CF31272
:104380002517903CE88022903CE0123F0BFF903CC8
:10439000F3122517903CE98010903CE4123F0BFF8C
:1043A000903CF3122517903CEAE0903CFBF012673A
:1043B00065903CFBE0700512678D806F90120EE0F7
:1043C00004F0903CEE12675C903CEDE0701F903C76
:1043D000F7123F0BFF903CF31266D0FBC31223C5CC
:1043E000500B903CF3123F0BFFA3122517903CFBA0
:1043F000E0FF126B86903CEBE0FF903CEEE0FDA20C
:1044000032922F126CB3903CEDE07015903CF31299
:104410003F0BFF9046C4122517903CEEE0FF12645C
:1044200092903CEE123EFDFF1264561274726002CE
:104430006160903CEDE07054A37402F075FF03904E
:104440003CEEE0F595E5F45407701B903CF71262E2
:10445000C8F1E9903CEEE0FB126523122517EB1240
:104460003EFEFF12645612747270D1903CF7123FF8
:104470000B2420FFEE344E1262EAFCE4FB7A04F9CE
:10448000F81262D8F1E9903CEF12251712677F40CD
:104490000343F420A2329230126BE5903CEDE0240D
:1044A000FF922E903CEF123F0BFF12679BE4F5FF4B
:1044B00075E508127350E59B30E7FB512AF12E4356
:1044C000D5047FC8513C12643091F07B017A3C796D
:1044D000EC1266F890120EE0B40102F1DA903CECB6
:1044E000E0B40103D38001C3227F3FFE710351403A
:1044F00075FF03E59120E7FB22E4904747F0A30412
:10450000F0E490474AF0E5FA30E1FB75FF01E5D5AC
:1045100030E7037F0022E4F5FF75E508F1EFE5D50C
:1045200030E61A75FF01904749E5DAF0E4F5DA75EF
:10453000FF01E5D630E3FB90474A7401F012735057
:10454000E59B30E7FBE4FB75FF038B95EB123EFE2A
:10455000FF1264560BEBB403EE75FF0375958051A3
:104560002AF12E43D50490474AE07008B1AB7FC8CA
:10457000513C91F07B017A4779481266F8904748A0
:10458000E09047477006E04404FF8002E0FF904758
:1045900047EFF090120EE0B40102F1DA75FF0190DE
:1045A0004749E0F5DA904747E0FF2275FF03E4F55D
:1045B0009122E4F5FF75C2E17F1EF1E130E707E4E7
:1045C000F5FF75C2A122E4F5FF75C28122CDEFCDC2
:1045D000CCEECC1262BCAB94EF4B24FBFFE5F03485
:1045E000FFCBEFCBFAE59130E71E1262BFA994E949
:1045F000F582EF4582FFEB2DF582EA3CF583C3EFB0
:104600009582E5F0958340DDE59120E708CEECCE7C
:10461000CFEDCF91EC2275FF0243E1801266DB758E
:10462000FF01438E1075FF0153DB7F75FF0175D5C8
:1046300002513AF12E438E1075FF0143DB8075FF66
:1046400001E4F5D5229009B8EFF0C235F10DD21C86
:104650009009B8E09047D1F0D21DA3E4F0A3740D07
:10466000F05154E49009B9F0123F74506F9009B9B9
:10467000E07069E5F754C060EFD1F2F10564557060
:1046800047F10590121CE06F60079009B9E0F470E3
:1046900032F10564556018E0FF644A6012EF640A65
:1046A000600D90121CE0FF9009B9E0FE6F7005905C
:1046B00009B9800A9006B4E06E9009B970197402C5
:1046C000F080A59009B9800F9009B9E0B454057441
:1046D00033F080949009B97401F0808C9009B9E0AE
:1046E000B40207C234123D1C800051479009B9E062
:1046F000FF22E5F720E008E5F754C070F5FF2243FC
:10470000F701AFF922D1F29009B9EFF022AFF4EF3F
:10471000547FF5F4303505EF4480F5F475FF01E57D
:10472000D520E702C322E5F4D330E601C32291F09D
:1047300075FF012275FF03E591C330E701D3229095
:10474000474FEFF0A3123EF475FF01126290EF6441
:10475000016002C322E5F430E602C3227FE87E0353
:1047600071035140F1C5400122C234123D1C9047F3
:104770004FE0FF123F7C53F4DFD234123D1C7F78B0
:104780007E00B1CD75FF0153E4BFE5E430E7FB12D5
:104790006D8A7F8AF1E130E609904750123FE4E4E8
:1047A000800B75FF01904750123FE4E5D91220635A
:1047B00075FF0143E440126785400343F420F1C5CF
:1047C000400122D322E5F730E50EE5F754C070042E
:1047D000F13440F1B1ABC322D32275FF0143D810AD
:1047E00022FEB1CD90120FE022FC78010223D67593
:1047F000FF0153D8EF2230120C903009E07006FF11
:104800001219ADC212301423AF679006D4E0FEEF48
:10481000C39E400AEF9ED394024010C21422900619
:10482000D4E0F42FD394014002C214229003CCE0D0
:10483000FCA3E04C70069003CC0238E6C322900340
:10484000CC114F6009CAEECAC9EFC912273C22E059
:10485000FEA3E0FF4E229042A21225179042A6121C
:1048600025CF315A9042A9125F8A9042A212248A1F
:10487000125EF4500201F91272C09042A21224A6F4
:104880001223949042ABF1CB602B9042AB91AC12CF
:1048900073369042ABF0A3EFF09042A931609FECE9
:1048A0009E5002F1E63115E94A60043167803D7E91
:1048B000007F0080379042A9114F603B9041213129
:1048C00060EF9DEE9C400A9042ABECF0A3EDF080CF
:1048D0000D9042A9E0FFA3E0A3CFF0A3EFF03115C4
:1048E000E94A6004316780047E007F009042A7EEB1
:1048F0008FF012213480BED322C3227402F090457F
:1049000078F1D2C0079045781225AF90457B12739D
:1049100043D00701569042A61225AF9042ABE0FF6C
:10492000A3E090438ACFF0A3EFF09042A212248A32
:104930001236A59042ABE0FEA3E0FFC39042AAE08E
:104940009FF09042A9E09EF09042A21224A6E4FCBF
:10495000FD12225C9042A21225179042A60225AFBA
:10496000E0FCA3E0FDD3229042ABE0FEA3E0FF22F7
:104970007B017A41791D7D017F03121BEC7A41791D
:10498000267F08F1C47B017A4179237D027F0912D9
:104990001BEC7B017A4179217D027F0B121BEC908D
:1049A0004121114F6006BEFF1BBFFF18904126E05A
:1049B00024FD6003047004916F8009904121E4F0AC
:1049C000A37440F0904126E024FD60030470089039
:1049D000411E7403F0800690411E7402F090411D48
:1049E000E01226DC4A00044A0B144A13154A1B172E
:1049F0004A31304A39344A41364A493700004A265A
:104A000075FF015350EF8550FD804775FF015351ED
:104A1000EF800E75FF015351DF800675FF01535182
:104A20007F8551C9802C75FF015352DF8552CA80A2
:104A30002175FF015353FE801675FF015353EF801C
:104A40000E75FF015353BF800675FF0153537F85D9
:104A500053CB71567F119161E4FF917971DB9041E5
:104A60001B7402F090411FE0247F600904701591CF
:104A700067740A8006F19C91677458F090411E7427
:104A800003F0916F904120E0F46002612690412391
:104A9000E0FEA3E0FF64104E7006904120740EF01B
:104AA000EF64204E7006904120740FF0EF64404E8A
:104AB00070069041207410F0EF64804E70069041B3
:104AC000207411F0E4B5070AEEB401069041207499
:104AD00012F0E4B5070AEEB402069041207413F018
:104AE000E4B5070AEEB404069041207414F0E4B56E
:104AF000070AEEB408069041207415F0E4B5070AE1
:104B0000EEB410069041207416F0E4B5070AEEB436
:104B100020069041207417F0E4B5070AEEB4400671
:104B20009041207418F01237DD12370DEF60051236
:104B3000403880F57F011237C5D2361237F07F0634
:104B400071531237F07F0112369D7F037153E4FFDA
:104B50000237C512369DF1BEEF70FB90411FE0F4A5
:104B6000600F9048F67406F09048F6E014F0E0709C
:104B7000F790411DE01226DC4B94044B9C144BA192
:104B8000154BA6174BB6304BBB344BC0364BC53715
:104B900000004BAE435410855480802F4355108045
:104BA000084355208003435580855590801D43560A
:104BB000208556A08015435701800D43571080086B
:104BC00043574080034357808557B09048F6740C94
:104BD000F09048F6E014F0E070F7227F011237C53C
:104BE0009048F77401F09048F7E06035F1D912373A
:104BF000659048F7EFF07156123754904119EFF075
:104C000071569048F7E05401F0904118E0FFF460CD
:104C1000D5A3E0F460D0EF30E7CCE49048F7F08023
:104C2000C51237F07F9F12369D12376590411A12D8
:104C3000376390411F1237639041201237BE904175
:104C400018E0F4601BA3E0F4601690411FE0FD54EF
:104C50001F240FA3F0EDC4135407448090411FF0AC
:104C600022EF4420F5FE227F10916190411B22909B
:104C700041217401F0A3E4F0229048F8EFF0904154
:104C800026E0640270251237EC9048F8E07FAB60B4
:104C9000027FB912369D71569048F8E0904125F098
:104CA00070047F1EDFFEE4FF1237C522E0FEA3E0A2
:104CB000FFC3229041A61225CFB1C6E92405B14D0C
:104CC0009041AEB1C5E92401B14D9041AFF09041A2
:104CD000A6D1489041B0F0E92406B14D9041B1B160
:104CE000C5B14A049041B2F09041AC91AC9402EE4F
:104CF00094004017AD077B017A4179AE90460D12C2
:104D000025CF9041A91225AF121E9E22FF12568276
:104D100090096C1225AFE924B1F9E43AFA121FA404
:104D2000FF90096C1225AFE924D8F9E43AFA121F72
:104D3000A42FFFE433FEEF2401FFE43EFE90096C54
:104D40001225AFE924B2F9E43AFAE92407F9E43A82
:104D5000FA021FA4903F631225CFB1CC2401B14DBC
:104D6000903F6DF0903F68D148903F6EF0E924038A
:104D7000B14D903F6FF0B1CC2402B14D903F71F036
:104D8000903AA0E0FFA3E0903F75CFF0A3EFF09042
:104D90003F6BF13EB1CC2404B14D14903F74F090C0
:104DA0003F631225AF90409C1225CF90409FF12782
:104DB0007A3F796D121CFAEF60037F0122903F75F4
:104DC000F13E7F0022F09041A60225AF903F68128D
:104DD00025AFE922903FEB1225CF903FF01225AF8F
:104DE000E92401B14D903FF5F0903FF0D148903F5C
:104DF000F6F0E4A3F0E92402B14D903FF9F0903FC2
:104E0000F01225AFE92403B14D14903FFCF0903A25
:104E1000A2E0FFA3E0903AA7CFF0A3EFF0903FF31A
:104E2000F131903FEB1225AF9040AC1225CF90406E
:104E3000AFF1277A3F79F5121D18EF60037F012249
:104E4000903AA7F1317F00221225AF021FA49041B2
:104E5000091225CF90410CEDF0A31225AFE92401F2
:104E6000B14DFC904111F090121CE0FD904110F00A
:104E700090410DD148540C7E0060027E0190411398
:104E8000EEF0121FA4904115F07E0030E1027E0288
:104E9000EE4405904114F090410D1225AFE9240332
:104EA000B14D904116F0904109D148649F702BE9B3
:104EB0002401B14DB40405AF04121D09904109123B
:104EC00025AF903E381225CF90410CE0FF903E3B3D
:104ED000E4F12A7A417910121D0E2290445A1225CB
:104EE000CF7A3A7975F18490445AD148903A76F065
:104EF000E92401B14D903A75F090445A1225AFE97A
:104F00002404B14D903A77F0903A7A7401F09044CD
:104F1000607A3A7975F18D746AF0A3746EF09044FA
:104F20005D1225AF02198AAF05ECF0A3EFF07B010B
:104F300022E0FFA3E0903AA2CFF0A3EFF022E0FF3F
:104F4000A3E0903AA0CFF0A3EFF0229044621225A4
:104F5000CF7A3A797BF184904462D148903A7CF0E0
:104F6000903A7B74FFF0E92404B14D903A7DF090C3
:104F700044687A3A797BF18D746AF0A3746EF0908C
:104F80004465809D7B017D06E4FF021B60A3E0FD7C
:104F90007B0190092E1225CF90093122904118E013
:104FA00020E01A1237EC7F3D12369D7F2A12369D83
:104FB0007F8012369D7FA612369D1237C022E5C82B
:104FC0005404FF227B017D01021BECEEF0A3EFF005
:104FD0004E221225CFE4FCFD221237F07F05023667
:104FE0009DEEF0A3EFF0A3ECF0A3EDF02275FF022D
:104FF000D2ADD2BD75FF02758E71756A0975FF025B
:10500000E58E546F4480F58E90473B1225230000B7
:10501000000022C0E0C0F0C083C082C0D075D008BC
:10502000C0FF75FF02E58E30E43A75FF02E58E544D
:10503000EF4410F58E90473B12248A1262E4FC90F4
:10504000473B1225179000001181E56A30E0020508
:1050500059E56A700D756A090567E56770020566AE
:105060008002156A75FF02E58530E40875FF02438A
:105070008510056DD0FFD0D0D082D083D0F0D0E0A5
:1050800032E475F001022134C0E0C0F0C083C08278
:10509000C0D075D008C0FF75FF01E5D530E6047FAC
:1050A000028009E5D57F0030E7027F018F18E518FF
:1050B000640260022161E5141226DC50D40150E73D
:1050C00002514E0850F20950FD0A510B0B512B0CA6
:1050D000000052C675FF0175C355151AE51A600226
:1050E00041C675140241C675FF0175C3F0751409F8
:1050F00041C675FF0175C35575140A41C675FF0198
:105100009006C7E0F5C375140B41C675FF01900604
:10511000B4E0F5C3751401751A149006D6127243E3
:1051200045F0600241C675140C41C6AB1CAA1DA90E
:105130001ED1D3AD16AF1FD1E0D17D75FF00D1BF19
:1051400043FA0475FF00123FC675140841C6C2EB4E
:10515000751400431504126854400241C611814180
:10516000C6E5186401600241C6126D94400241C652
:10517000E510702251DAE0FF64556004EFB4540B7F
:10518000D214AF679006D4EFF0414875100275FF56
:105190000075D90841C6E5106402705A710FE5D94F
:1051A000122063126D3A1268129006B3EFF0710389
:1051B000E09009C6F0E0FFD3940940259006B3E0E3
:1051C000D39402400CEFD394AA7F0040027F018069
:1051D0000D9009C6E0D394407F0040027F01EF604C
:1051E0000451FA80639009C6E0F51675FF00851634
:1051F000D975100341C6E5106403600241C6710F02
:10520000E97186E5D912206351FA75FF009006B363
:10521000E0C39403E5D350055402FF80035401FF1B
:10522000EF602A30E111C39006C1E094FF9006C000
:10523000E094FF5013800FC39006C3E094FF9006E4
:10524000C2E094FF50021181123F988079C234125B
:105250003D1C75FF00123FF5E5D120E0FBC2EB439A
:10526000150251DAA3E0FF90121FE0FEEF6E51D954
:10527000E090121E51D3A3A3E090122051D3A3A318
:10528000A3E0FE901221E0FDEE6D4F6011C3900689
:10529000C5E094FF9006C4E094FF50021181C390D2
:1052A00006BFE094FF9006BEE094FF5002118175A6
:1052B00010009006B3E0B4030715167103E516F06D
:1052C0009003CBE516F0D0FFD0D0D082D083D0F0C1
:1052D000D0E032FEE0FDEE6D4FFF85128285118336
:1052E000229048A91225CF9048A9124E48FF600984
:1052F00071279048AA118180EE22301405C2141241
:10530000424722E5122407F582E43511F583227520
:10531000FF01F5EA75EAFF9006B70225AF7BFF5162
:10532000E17F0D71277F0AE5ED20E0FB8FEF225131
:10533000E17121E4904559F09045581272165022BF
:10534000904555D1C8FF716D904559E0540FFFBF8E
:105350000F04712180047F207127904559E004F0EB
:1053600080D6904559E0540F600271212290493552
:10537000EFF0E0C4540FFF121CF07127904935E0A4
:10538000FF121CF080A12401F9E43AFA2290099D51
:105390001225CF90099D1225AFE51B71CB1225AFC9
:1053A000E9718671CA1225AFE92402F9E43A71C99C
:1053B0001225AFE92403F9E43AFAE51371CB71D56C
:1053C00071C91271B1E4022063FAE41220639009FA
:1053D0009D2290096C1225AFE92404F9E43A229049
:1053E000096C1225CFD22AC2EBE5146002C15FE539
:1053F0001530E202C322D16824E5F9E43AFAE41256
:1054000020631268B071D2FA1221605407FF90062F
:10541000B5F01267AA90096FEFF0E51520E073125E
:105420003F7440057F01123CDB90096FE0FF7B0178
:105430007A09797012473FE4337004D2EBC144908B
:10544000096FE0246AF582E43408F583E0FF9009EF
:1054500070E0D39F403CD2EBD1EDA21392ED9006C9
:10546000C6E06011D16824E51273EF122063431582
:1054700004F134D3229006D5E070157B017A0679C9
:10548000D57C5F7DE19045667464F0E4A3F0F18023
:10549000C322123F745005C234123D1C123FF2E584
:1054A000D120E0FBE4F510C21471D2FA122160544D
:1054B00007C39403E494005031D16824B1124D4DD8
:1054C000D16724D8124D4D2FFFE433FED3EF944023
:1054D000EE648094804013D16824E51273CA1220D0
:1054E00063431504A21392EDD322D1682408F9E492
:1054F0003ACFE9CFF5118F12D16824B1124D4DF595
:1055000016AE1112701BD16824B2F9E43A8B1CF567
:105510001D891ED16824D8124D4DF51F71D2FA1283
:105520002160FDACF054606031D16824D9124D4D3A
:10553000FF126826C22A124D3DFB7A009006D61251
:1055400073827D18122097EF2BFFEA3EFEEF2414A2
:10555000FBE43EFA7D027F01C13371D2FA12216071
:1055600054079006B5F0751408D16824B2F9E43AEE
:10557000FAD1D3D16824D8124D4DFFAD16D1E090A9
:1055800006B5E0640370247B01FD124D0CD3D17489
:105590005005740112200EE4F5FFD1BF121FA424A0
:1055A00028FBE433FA7D03E4FFC1339006B5E064E1
:1055B00002702C124D10D3D174400574FF12200ECE
:1055C000E4F5FFE5D25480440AF5D2121FA4241456
:1055D000FBE433FA7D027F011268E9D17D8057E454
:1055E000FB7D01124D0CD3D174400574FF12200EC7
:1055F000E4F5FF71D2D1B67F0560027F0AEF547FD8
:10560000FFE5D254804FF5D2E4F5FF43D280124D2E
:105610003DFD7C0071D2D1B67E0060047F0A80021D
:105620007F05EF25E0FFEE33FEEF2DFBEE3CFA7D2C
:10563000017F011268E971D2127234A22A922912F2
:1056400060A04006A21392EDC322F13490096FE0EE
:10565000D16724E7125EA5A21392EDD2EBD322A26A
:105660001392EDD2EBC322FF90096C1225AFE92211
:1056700033FEE0C39FEE6480F874809822E4FB7DE3
:1056800001FFE4F5FF75D102E5D120E0FBE4F5FF71
:10569000F5D1EF6008E4F5FF43D2808006E4F5FF22
:1056A00053D27FEB6006E4F5FF43D104ED6006E4DE
:1056B000F5FF43D10822FA122160441045F022E59B
:1056C000D254804414F5D2221225AF8E8275830005
:1056D000021FE1E4F5FFE9127012EA540F42D622EC
:1056E000E4F5FF8FD4F5FFCFEDCF8FD522C3900621
:1056F000BDE094FF9006BCE094FF5002118122901F
:1057000048EEEEF0A3EFF09048EEE0FF716D9048A8
:10571000EEA3E0FF616D904934EFF075F00A84FF6D
:10572000121CF07127904934E075F00A84AFF01232
:105730001CF06127E49006C6F07B017A0679D590CB
:1057400047CB1225CF9047CB124E48FF12585390AB
:1057500047CB1225AFE40220639006B6E0FDFFC3FD
:10576000740E12669EEFC4F8540FC868FFEEC4545E
:10577000F048FEE51754F0D1737F005002AF0522C8
:10578000904564ECF0A3EDF09045611225CFF13F18
:10579000904564127304F1B3904561125AFE90452E
:1057A00061124E48B4FF04E4122063904561124E2A
:1057B00048FF22E490455EF090455AEEF0A3126750
:1057C00055EBF090455F74FFF090455EE0904560CA
:1057D000F0904560E0FFC3940E5062EF1240CF128C
:1057E0005922705190455EE07E0170027E02904524
:1057F00060125843EEF0C00790455CE0FF7E006009
:10580000097C007D0A12209780027F0AE4FCFD904B
:10581000445512251790455DE0904459F090455A43
:10582000E0FCA3E0FDD007124101904560E004FFD9
:1058300090455FF022904560E004F0809490455FD1
:10584000E0FF22E0FF75F00CA42491F582E43431EE
:10585000F58322AB07E4FF1BEBC3940E501B311101
:1058600012252300000000EB1240CF122523000078
:105870000000EB1145E4F07F012290437AEEF0A3A3
:10588000EFF090438174FFF090437C11ED605690EF
:1058900043827403F0904382E0FFC3940E5046EFBE
:1058A0001240CF3122703690438211437405F0C00C
:1058B0000790437C12248A90445512251790438008
:1058C000E0904459F090437AE0FCA3E0FDD0071249
:1058D0004101904382E004904381F080089043822C
:1058E000E004F080B0904381E0FF22015312248A4B
:1058F000EC4D4E4F22AB07E4FA1BEBC3940E500E57
:10590000311111ED6008EB1240CF1225170AAF02DA
:1059100022EB75F00CA4248AF582E43431F583225D
:1059200080D312248AE4FBFAF9F8C30223C5E4FE0B
:10593000EFC3940E5012EF1145E05D7C00B50502F7
:105940007C01EC2EFE0F80E8AF06227D02E4FF8092
:10595000DD7D017F03312EAB07314BEF2BFF22E4BE
:10596000FD7F0380C99045E6F07E1E7F177BFF7D9B
:105970006490455E7403F00257B89048A7ECF0A31A
:10598000EDF09048A6EFF051C69048A7E0FEA3E0E6
:10599000FF9048A6E031B0124139205D11D25D7E02
:1059A000597FBC7BFF7D023171BFFF02C322D3222E
:1059B00075F006A4248EF582E4344222E49048EC8B
:1059C000F09048ECE0FFC394025058EF518BE06434
:1059D0000170489048ECE0518BE4F07B017A487903
:1059E000ED5124501F9048ECE0FE31B0F583E0FC0F
:1059F000A3E04C600F9048EDE0FFEE31B0F58391ED
:105A0000D91227409048ECE0FF75F006A4248DF5EC
:105A100082E43442F5837401F051E09048ECE004F4
:105A2000F0809E229047371225CF904736EFF0C284
:105A30005C51ED7B017A47793A121E034003A25C68
:105A4000225178E0FE90473AE0FDEE6D7027EF516D
:105A50007DE0FF90473751FE5178E07008EF517DAF
:105A60007401F08008904736E0517DE4F05178E011
:105A7000FD5199D25CA25C22904736E0FF75F0069A
:105A8000A42490F582E43442F5832275F006A42420
:105A90008CF582E43442F58322EF7011ED600775D6
:105AA000FF0143AE012275FF0153AEFE22EFB401A8
:105AB00014901243EDF0600775FF0143AE022275AA
:105AC000FF0153AEFD22904933EFF051EDD2431266
:105AD0001E08904933E0FFE4FD5199904933E0FFFF
:105AE000EF146006047005D2A822D2AA2275F0062F
:105AF000A4248BF582E43442F583E0FF22FF1225D3
:105B0000AFEF02206390438C12251790439012252B
:105B1000CF1237DD12370DEF600512403880F512D5
:105B200037EC7F03B11C600B90438C12248A7810F1
:105B300012369990438C12369490438C1237D7903A
:105B4000439391E3601012376590439051FE904368
:105B50009112508180E9124B56E4FF0237C5903E06
:105B6000681225AFAE02AF017B017A3E797790468D
:105B7000157402F0904612124FD2C00790461212CE
:105B800025AF90461591F7D00761057E127F93E40B
:105B9000FCFD123658EF600E71A7E924E0F9E4909D
:105BA000439391057105227E127F94E4FCFD903AA7
:105BB000A40225AF71AEE9240F71CD700971AEE971
:105BC000240D71CD60047F0180027F0022F9EA3448
:105BD00002FA021FA4746A91ED748CF071AE91D038
:105BE0007A3A7994021B0B71A7E924E0F9E4904218
:105BF000A991051248567E127F93E4FCFD9046D190
:105C000004F00237713AFA7401F0A37427F022907D
:105C100009471225CFC25EC2AC305F58E490094DEF
:105C2000F090094DE0FFC3942050269008D2E02F59
:105C3000242DF582E43407F583E0B40D0C90094D72
:105C4000E00490094A51FD800890094DE004F0807D
