:020000040000FA
:10000000021800021803090C09112202180B0B3206
:020010000B3CA7
:0700130002181306353C4FF3
:07001B0002181B0AEC0B00A8
:1000230002182343317F072202182BE4FF02181220
:07003300021833121F87229F
:06003B0002183B02245FE5
:0E004300021843A24B92362202184B021855A7
:0E005300021853A24C92392202185B023C960E
:0700630002186375ED042291
:07006B0002186B75ED022283
:1000730002187341073500C136C13941073400E026
:1000830002020000383CE0020200022FECE004020E
:10009300000446524545E00102001554E001020008
:1000A30016A5E0E8022568FEFEFEFEFEFEFEFEFE4D
:1000B300FEFEFEFEFEFEFEFEFEFEFEFEFEFEFEFE5D
:1000C300FEFEFEFEFEFEFEFEFEFEFEFEFEFEFEFE4D
:1000D300FEFEFEFEFEFEFEFEFEFEFEFEFEFEFEFE3D
:1000E300FEFEFEFEFEFEFEFEFEFEFEFEFEFEFEFE2D
:1000F300FEFEFEFEFEFEFEFEFEFEFEFEFEFEFEFE1D
:10010300FEFEFEFEFEFEFEFEFEFEFEFEFEFEFEFE0C
:10011300FEFEFEFEFEFEFEFEFEFEFEFEFEFEFEFEFC
:10012300FEFEFEFEFEFEFEFEFEFEFEFEFEFEFEFEEC
:10013300FEFEFEFEFEFEFEFEFEFEFEFEFEFEFEFEDC
:10014300FEFEFEFEFEFEFEFEFEFEFEFEFEFEFEFECC
:10015300FEFEFEFEFEFEFEFEFEFEFEFEFEFEFEFEBC
:10016300FEFEFEFEFEFEFEFEFEFEFEFEFEFEFEFEAC
:10017300FEFEFEFEFEFEFEFEFEFEFEFEFEFEFEFE9C
:10018300FEFEFEFEFEFEFEFEFEFEFEFEFEFEFEE0AA
:1001930001022650FFE0010226A828E001022FBB3E
:1001A300FFE005022FE92FEC02043D41041A06018A
:1001B30036004104190141041701C13E013B00010E
:1001C3003900412D7700412A4D004129EE055D2C70
:1001D300810000000000000000000000000000009B
:1001E3000000000000000000000000000000C14407
:1001F3004328C20000004128D600C111C135014483
:1002030000C131C132C13341313300C166432CEFE8
:10021300000000412CEE00412CF200412EB9FFC139
:100223003AC13CC147412D1600015700C129C127DE
:10023300412D0800412D15006028261705220000D6
:1002430000030008F6877788CF7FC04FFBDFFDE010
:100253006700008000808680BA05E87300800F0085
:1002630000600000412165004121780041216800C0
:100273004121610141216B024121630141239D0021
:10028300C1AB412169114121620041239A00C14957
:10029300C14A412A5E96412A5A0FE002022FEE001C
:1002A30033E00502301C0033040522E00202302152
:1002B3000807E0050238230807050522412E97FFAA
:1002C300412E90FF412E9300412E9600C16CE00217
:1002D3000238280013E00C02382A00000308000348
:1002E30000080522043DE0050238360013FF05220D
:1002F300E00202383B00000075819075FF03759E94
:1003030002120820021CBE020418900076E47E014B
:100313009360F4A3FF543F30E509541FFEE493A315
:1003230060010ECF54E0B4E00EEFFAEEF9A3A3A3FD
:10033300A3DAFDD9FB80D654C025E0604B5026E4F8
:1003430093A3F85407240CC8C333C4540F4420C8E0
:10035300834004F456800146F6DFE480B0010204D2
:100363000810204080E493A3FAE493A3F8E493A352
:10037300C8C582C8CAC583CAF0A3C8C582C8CAC5CE
:1003830083CADFE9DEE78085E493A3F8E493A3401F
:1003930003F68001F208DFF4020310C2D5E830E768
:1003A3000FB2D5E4C39BFBE49AFAE499F9E498F815
:1003B300EC30E717B2D51203D412111BE4C39BFB35
:1003C300E49AFAE499F9E498F8800312111B30D502
:1003D3000DE4C39FFFE49EFEE49DFDE49CFC2278B4
:1003E30090E4F6D8FD9000007F007E10E4F0A3DFD8
:1003F300FCDEFA903142A3E583C394204011FEAFA3
:10040300829020000E0FE48002F0A3DFFCDEFA12DC
:10041300082002030D2232EF900423939008007307
:100423000A20364CE558FF22EFF558220948094DBA
:1004330009520957095C0961096609700975097A46
:10044300097F098E0993099D09A709BBE61809C508
:100453000A150A1A0A1F0A240A290A2E0A330A3815
:100463000A470A510A650A6A0A6F0A7E0A830ABFA3
:100473000AC40AC909040000020A00000007058231
:100483000220000007050202200000090401000108
:1004930002020100052400100105240100010424C7
:1004A30002000524060001070581030800200C9AB9
:1004B3000C9F0CA40CA90CAE0CB30CB80CBD0CC255
:1004C3000CC70CCC0CD10CD60CDB0CE00CE50CEA05
:1004D3000CEF0CF40CF90CFE0D030D080D0D0000D0
:1004E300000000000C1D0C270C2C0C310C360C3BAF
:0D04F3000C450C4F0C540C720C77AFEF222F
:100508001201000202000008580600020000000064
:10051800000109020000000100803204030409A25E
:1005280080CACF0998445CAD550641469503860BB1
:100538007800000000000500000600000010000020
:100548002428800000242080000011382100004465
:1005580028800000442080000034382100003F2417
:100568001E16110E0B09070504030201F0C8A79116
:1005780077676046383532302422201400010102A2
:100588000203030404050506060707000E1384008A
:100598000E18FC000E225C020202003F3F3F0404DA
:1005A80004323232000201905A2D576176652034A8
:1005B8002E363100822D1C16131110100BAF0BE1D3
:1005C8000BE60BEB000301020604050D3F0D440D7D
:1005D80049E4FD7C0CAB050DEB9005B0938F828E42
:1005E80083F00FBF00010EDCEC01288F828E83E4BC
:1005F800F07404D106743DD106A3A3E4F022A3F05D
:100608008F828E83A322903112EFF0902D97E0B461
:100618000110C2ED7A317912902E2DD12B120BA038
:10062800D2ED227B011212DE7A2D799822902D9735
:10063800E0640170287B017A2D7998120BAAEF707B
:100648001C903113F0C2ED7A317913902DF9D12B2A
:10065800120BA5D2ED903113E0FF120B7322902DEF
:10066800977401F0FBD18B7E067F3590073DE0FC47
:10067800A3E04C700590073D8002C322EEF0A3EF83
:10068800F0D3227A2D79A0902ED51212DE902ED892
:100698007401F0A37405F07A2D7998020B9B7F0101
:1006A800D1B6902D97E0B401047B01D18B22EF6085
:1006B8000E121EFAAF82AE83E4FD1230298010308C
:1006C80036037F0022120B5F12364AE433FF227F83
:1006D8000122E4FFD1B6EF6039F1761230C450043C
:1006E800F18440F57B017A07793B1230C4500EF152
:1006F8008C5FFFA3E05FFFA3E05FF460E77F01D1B9
:10070800B67550017E007F08F176902EFDE4F0A3C7
:10071800F166229004F81212DE9004FBEDF0E4A3D7
:10072800F0ED54FE9004FBF0602AE4FFD1B6BF015F
:10073800239004F81212D51230C450189004F9F11D
:100748007D9004FCE02402F09004FCE0FF9004FBA0
:10075800E06F70DD7F01D1B69004FCE0FF227404E5
:10076800F00222EFF9E43AFA902F181212DE7B0118
:100778007A07793922E475F002020FD5900739E03B
:10078800C394C022900739E0FFA3E0227D02F11B49
:10079800EFC36001D322E53730E20EE53720E509E3
:1007A800E53730E0047F01D1B622F1BF121910EF0E
:1007B8006004F19E80F62275FF02E5E430E10675DB
:1007C800E40675E40322F1BF121910EF6004F19EEC
:1007D80080F67F01121812D2581219A47F06121837
:1007E800911219A47F011217477F03121891E4FF91
:0607F8000218128FEF222F
:10080000C0587408C0E0C082C08375580AE5FF5420
:10081000CF4490F5FF22C0587408C0E0C082C08366
:10082000755820E5FF54CF4490F5FF22C058740856
:10083000C0E0C082C083755836E5FF54CF44A0F5B0
:10084000FF22C0587408C0E0C082C08375584CE5D0
:10085000FF54CF44B0F5FF2290800001169085D25E
:10086000011690808F01169080D201169088270182
:1008700016908837011690883A011690887A0116EA
:1008800090A4D3011690A4EB011690A4F201169047
:10089000C003011690C0060116908773011690C020
:1008A00009011690C834011690CFEE011690AE7A69
:1008B000011690B1DA011690D0F8011690C7140114
:1008C0001690D215011690D230011690BF3C011639
:1008D00090BBBE011690ACAB0116909151011690E1
:1008E000BDE4011690BBA2011690D7E3011690D883
:1008F00006011690DFD9011690B87C011690CFA0A2
:10090000011690A2A401169090BF011690E0490133
:100910001690909A011690E152011690B823011694
:1009200090DC33011690E1CC011690DB2D0116907E
:10093000ABC10116908877011690DF03011690DE97
:1009400051011690A28C011690E25E011690E2759C
:10095000011690C66E011690E283011690E2C20164
:100960001690E310011690C7C1011690DF9301168F
:1009700090E3CD011690E524011690D5F70116906D
:10098000E7E4011690CA920116908161011690E881
:1009900064011690E894011690C1F3011690C629DF
:1009A000011690E920011690C624011690E9300145
:1009B0001690C42D011690ED4A011690E718011605
:1009C00090E61C011690EDB8011690E542011690D4
:1009D000EDD8011690A52B011690ABF2011690EC04
:1009E0009D011690EC8D011690A2220116908E2585
:1009F000011690E52D011690E4B4011690E5190159
:100A00001690E469011690EDEF011690B75F01169C
:100A100090B156011690CDCA011690CDB90116902D
:100A2000CE84011690EEA2011690C162011690CFFD
:100A3000BF011690EEB1011690EEC5011690C728C1
:100A4000011690918E011690BE88011690A4750132
:100A50001690D4D20116908FED011690EF1B01165F
:100A600090EFAF011690F05B011690F068011690C0
:100A7000819A011690B7660116909029011690ADE3
:100A80005C011690CBCC011690F092011690CCB779
:100A9000011690F0A6011690D527011690F0BD0121
:100AA0001690C2C8011690F0C0011690D2580116D7
:100AB00090AB9C011690F108011690C71C0116908E
:100AC000CF4A011690CFAE011690E728011690A4E8
:100AD0008E011690A434011690EAE3011690EC36CC
:100AE000011690F1CC0116908EC8011690F16801A4
:100AF0001690894B011690F283011690A597011666
:100B000090F380011690F38D011690F3B9011690C1
:100B1000F414011690F440011690A4D6011690F436
:100B200071011690F48F011690F569011690F4E3A7
:100B3000011690F5900116908B210116908C2D01D5
:100B40001690D781011690AE0C011690D263011653
:100B500090D499011690F59F0116908FC4011690BC
:100B6000D483011690F5A3011690BC74014290A5A0
:100B70009F0142909669014290BD9B014290BEC781
:100B8000014290BBBD014290BF15014290C060017F
:100B90004290C087014290C09C014290C0A2014295
:100BA0009094C001429095E0014290C0F0014290C3
:100BB000C0FD014290B6AC014290A6C8014290A08F
:100BC00001014290C174014290C1AE014290A198CE
:100BD000014290B23D01429080000142908081012B
:100BE0004290C229014290C24101429084020142D6
:100BF00090B42D014290C119014290C2DC01429093
:100C0000B52001429098AE014290C304014290C3C6
:100C100017014290C34A014290B7F4014290C07953
:100C2000014290A740014290C356014290B368012F
:100C30004290B33C014290C38C014290B1B7014253
:100C400090C371014290C39A014290B03A01429020
:100C5000B3D6014290C3C6014290C436014290B758
:100C600024014290A5CF014290A6E0014290B656E1
:100C7000014290C46A014290A751014290B0AB0179
:100C80004290A6A7014290C491014290C4BD014286
:100C900090BDF7014290BFEF0142909EB0012C90B1
:100CA0009EC4012C909F2B012C909F9B012C909F08
:100CB000BA012C90A0E9012C90A0FB012C90A10E70
:100CC000012C909C3F012C90A138012C90A14C014B
:100CD0002C90A1BB012C90A218012C90A25E012C9B
:100CE00090A2CB012C90A2EC012C90A2F7012C90A9
:100CF000A357012C90A36E012C90A379012C90A2F4
:100D0000E2012C90A3CC012C90A3FF012C90A43CD9
:100D1000012C908000012C90A50B012C90A50C01BA
:100D20002C909477012C9097D7012C909AB7012C96
:100D3000909AFA012C909A62012C90A55F012C9058
:100D4000A59A012C90A586012C909B44012C00E7CC
:100D500009F608DFFA8046E709F208DFFA803E88E4
:100D6000828C83E709F0A3DFFA8032E309F608DF1B
:100D7000FA8078E309F208DFFA807088828C83E3D6
:100D800009F0A3DFFA806489828A83E0A3F608DF92
:100D9000FA805889828A83E0A3F208DFFA804C80C7
:100DA000D280FA80C680D4806980F280338010803F
:100DB000A680EA809A80A880DA80E280CA8033899F
:100DC000828A83ECFAE493A3C8C582C8CCC583CCDD
:100DD000F0A3C8C582C8CCC583CCDFE9DEE7800DAF
:100DE00089828A83E493A3F608DFF9ECFAA9F0ED8F
:100DF000FB2289828A83ECFAE0A3C8C582C8CCC5ED
:100E000083CCF0A3C8C582C8CCC583CCDFEADEE8BA
:100E100080DB89828A83E493A3F208DFF980CC889F
:100E2000F0EF60010E4E60C388F0ED2402B40400C0
:100E300050B9F582EB2402B4040050AF232345825D
:100E400023900D9F73BB010689828A83E0225002A2
:100E5000E722BBFE02E32289828A83E49322BB015C
:100E60000B89828A83F8E0C828F0E822500327C75C
:100E700022BBFE07F8E3C828F3E8228A838982E4CC
:100E80009322BB010CE58229F582E5833AF583E0E4
:100E9000225006E92582F8E622BBFE06E92582F803
:100EA000E222E58229F582E5833AF583E49322BBC9
:100EB000010989828A83F8E028F022500327F7226B
:100EC000BBFE05F8E328F3228A838982F8E493289D
:100ED00022BB010FF8E58229F582E5833AF583E02C
:100EE00028F0225009C58229F8E58226F622BBFEA9
:100EF00009C58229F8E22582F222F8EA2583F583E2
:100F0000E9932822BB010689828A83F0225002F7E6
:100F100022BBFE01F322F8BB010DE58229F582E533
:100F2000833AF583E8F0225006E92582C8F622BB11
:100F3000FE05E92582C8F222EF8DF0A4A8F0CF8C3F
:100F4000F0A428CE8DF0A42EFE22BC000BBE0029FA
:100F5000EF8DF084FFADF022E4CCF875F008EF2FB0
:100F6000FFEE33FEEC33FCEE9DEC984005FCEE9D6D
:100F7000FE0FD5F0E9E4CEFD22EDF8F5F0EE842089
:100F8000D21CFEADF075F008EF2FFFED33FD4007EA
:100F9000985006D5F0F222C398FD0FD5F0EA22C290
:100FA000D5EC30E709B2D5E4C39DFDE49CFCEE30FE
:100FB000E715B2D5E4C39FFFE49EFE120F4AC3E4D7
:100FC0009DFDE49CFC8003120F4A30D507C3E49FCB
:100FD000FFE49EFE22C5F0F8A3E028F0C5F0F8E596
:100FE00082158270021583E038F022A3F8E0C5F084
:100FF00025F0F0E582158270021583E0C838F0E82C
:1010000022BB010A89828A83E0F5F0A3E022500620
:1010100087F009E71922BBFE07E3F5F009E319227F
:1010200089828A83E493F5F074019322BB010789D6
:10103000828A83020FD5500B09C5F027F7C5F01936
:1010400037F722BBFE0D09F8E325F0F3C5F019E3ED
:1010500038F322F889828A8374019325F0C5F0F869
:10106000E4933822BB010A89828A83F0E5F0A3F079
:10107000225006F709A7F01922BBFE06F3E5F00996
:10108000F31922EF2BFFEE3AFEED39FDEC38FC228E
:10109000E88FF0A4CC8BF0A42CFCE98EF0A42CFCFF
:1010A0008AF0EDA42CFCEA8EF0A4CDA8F08BF0A47D
:1010B0002DCC3825F0FDE98FF0A42CCD35F0FCEBDC
:1010C0008EF0A4FEA9F0EB8FF0A4CFC5F02ECD39A1
:1010D000FEE43CFCEAA42DCE35F0FDE43CFC227598
:1010E000F008758200EF2FFFEE33FECD33CDCC3309
:1010F000CCC58233C5829BED9AEC99E58298400C71
:10110000F582EE9BFEED9AFDEC99FC0FD5F0D6E44E
:10111000CEFBE4CDFAE4CCF9A88222B800C1B90034
:1011200059BA002DEC8BF084CFCECDFCE5F0CBF995
:101130007818EF2FFFEE33FEED33FDEC33FCEB338D
:10114000FB10D703994004EB99FB0FD8E5E4F9FABB
:10115000227818EF2FFFEE33FEED33FDEC33FCC9A0
:1011600033C910D7059BE99A4007EC9BFCE99AF933
:101170000FD8E0E4C9FAE4CCFB2275F010EF2FFFA2
:10118000EE33FEED33FDCC33CCC833C810D7079B0C
:10119000EC9AE899400AED9BFDEC9AFCE899F80F6F
:1011A000D5F0DAE4CDFBE4CCFAE4C8F922EF5BFF3A
:1011B000EE5AFEED59FDEC58FC22C3E49FFFE49E7D
:1011C000FEE49DFDE49CFC22EB9FF5F0EA9E42F0DC
:1011D000E99D42F0EC6480C864809845F022EB9F62
:1011E000F5F0EA9E42F0E99D42F0E89C45F022E8E5
:1011F000600FECC313FCED13FDEE13FEEF13FFD8ED
:10120000F122E8600FEFC333FFEE33FEED33FDEC68
:1012100033FCD8F122BB010789828A8302128C50E9
:1012200005E9F8021444BBFE05E9F802145022E077
:10123000FCA3E0FDA3E0FEA3E0FF22E493FC740125
:1012400093FD740293FE740393FF22E0F8A3E0F988
:10125000A3E0FAA3E0FB227401FF3395E0FEFDFC5E
:10126000A3A3A3E02FFFF0E582158270021583E0AF
:101270003EFEF0E582158270021583E03DFDF0E54B
:1012800082158270021583E03CFCF022ECF0A3EDA5
:10129000F0A3EEF0A3EFF022A8828583F0D083D0F4
:1012A000821212AF1212AF1212AF1212AFE473E435
:1012B00093A3C583C5F0C583C8C582C8F0A3C58301
:1012C000C5F0C583C8C582C822A42582F582E5F091
:1012D0003583F58322E0FBA3E0FAA3E0F922EBF0EB
:1012E000A3EAF0A3E9F022E493FB740193FA7402F9
:1012F00093F922BB010789828A830212D55005E93E
:10130000F802145CBBFE05E9F802146E89828A8338
:101310000212E7BB011A89828A83D0F0D0E0F8D0AC
:10132000E0F9D0E0FAD0E0FBE8C0E0C0F00212DE65
:101330005016E9F8D083D082D0E0F9D0E0FAD0E0BE
:10134000FBC082C083021465BBFE16E9F8D083D0CF
:1013500082D0E0F9D0E0FAD0E0FBC082C083021472
:101360007722BB010DE58229F582E5833AF58302F8
:1013700012D55007E92582F802145CBBFE07E92567
:1013800082F802146EE58229F582E5833AF583023C
:1013900012E7BB0120E58229F582E5833AF583D087
:1013A000F0D0E0F8D0E0F9D0E0FAD0E0FBE8C0E01F
:1013B000C0F00212DE5018E92582F8D083D082D026
:1013C000E0F9D0E0FAD0E0FBC082C083021465BB34
:1013D000FE18E92582F8D083D082D0E0F9D0E0FA77
:1013E000D0E0FBC082C08302147722D083D082F881
:1013F000E4937012740193700DA3A393F874019396
:10140000F5828883E4737402936860EFA3A3A380DA
:10141000DF8A838982E473EC8EF0A4CCC5F0CCCD56
:10142000F8EFA4CEC5F02DFDE43CFCE8A42EC8C521
:10143000F03DFDE43CFCEFA4FFE5F028FEE43DFDBB
:10144000E43CFC22ECF608EDF608EEF608EFF62296
:10145000ECF208EDF208EEF208EFF222E6FB08E605
:10146000FA08E6F922EBF608EAF608E9F622E2FBCA
:1014700008E2FA08E2F922EBF208EAF208E9F222BD
:10148000C0E0C0F0C083C082C0D075D000C000C032
:1014900001C002C003C004C005C006C007903114DB
:1014A000E5FFF075FF02E5D430E60C75D440902FCF
:1014B0004CB1FD6002D10475FF02E5D430E50C7536
:1014C000D420902F4EB1FD6002D10475FF02E5D407
:1014D00030E40D75D410902F50B1FD6003124754C5
:1014E00075FF02E5D430E30C75D408902F4CB1FDA4
:1014F0006002D10C75FF02E5D430E20C75D4049083
:101500002F4EB1FD6002D10C75FF02E5D430E11B16
:1015100075D40212282AEF6012902F50B1FD600599
:1015200012474B80061227F712282275FF02E5D4D6
:1015300030E01275D401902F50B1FD60088F828E7B
:10154000837F07911575FF02E5D530E41275D5103C
:10155000902F50B1FD60088F828E837F03911575A7
:10156000FF02E5D530E10D75D502902F50B1FD6039
:101570000312465475FF02E5D530E01275D501908F
:101580002F50B1FD60088F828E837F04911575FF07
:1015900002E5D530E21275D504902F50B1FD6008F8
:1015A0008F828E837F0A911575FF02E5D530E71291
:1015B00075D580902F50B1FD60088F828E837F0893
:1015C000911575FF02E5D530E61275D540902F5084
:1015D000B1FD60088F828E837F099115903114E0F0
:1015E000F5FFD007D006D005D004D003D002D0013B
:1015F000D000D0D0D082D083D0F0D0E032E0FEA3B3
:10160000E0FF4E228F828E837F0181158F828E8331
:10161000E4FF81151245F051DE902DD951D5902D62
:10162000DC1246C8902DD5512F1221175002C1DA75
:10163000902D74E024FFFF902D73E034FFFEE4FC56
:10164000FD902DD5514B31AD902DDE124744603EBB
:10165000902DDE123509902D74E09FFF902D73E0E0
:101660009EFE902DDEF0A3EFF0902DDCE0FCA3E0D9
:10167000FDD39FEC9E500312463C1245B151D5E973
:101680004A600512476E80457E007F00803F902DA6
:10169000DCB1FD6043902D73E0FCA3E0FDD3EF9D32
:1016A000EE9C400A902DDEECF0A3EDF0800D902D25
:1016B000DCE0FFA3E0A3CFF0A3EFF01245B151D5DA
:1016C000E94A600512476E80047E007F00902DDAA3
:1016D000EE8FF0120FD580B6D322C322902E515137
:1016E0008C902E5551DE1207BF121910EF600512B3
:1016F000079E80F5121A446009902E51512F7810E0
:10170000F144902E51F140902E51512FE4802390BE
:101710002E5812464A601F902E5512464360119073
:101720002E5512461DFFF147902E5612299C80DF40
:10173000E4FFF14780D912180D902D6E7401F0224C
:10174000512F780831EFE4E5C820E2FB8FEB227FD0
:10175000011218129031177401F0903117E06031C6
:10176000F1EDF1E1903117EFF0121894F1CF902DD7
:101770006BEFF0121894903117E054011247F360A8
:10178000D9A3E0F460D4EF30E7D0E4903117F080D3
:10179000C91219A47F9FF147F1E1902D6CF1DF9000
:1017A0002D71F1DF902D72EFF012180D902D6AE07F
:1017B000F4601BA3E0F46016902D71E0FD541F242B
:1017C0000FA3F0EDC41354074480902D71F0221242
:1017D00019A47FD7F1477FFFF147F1E5902D6AEF1C
:1017E000F07FFFF147E5C820E2FBAFEB221219A41E
:0A17F0007F05E147EF4420F5FE22DB
:071800000202FB75C8012282
:101808007FB8121747121894E4FFEFB4010443FE9F
:10181800202253FEDF22EF6003D2ED22C2ED220226
:021828000907AE
:10182B0002292F75FF028FD675FF02AF058FD77F69
:10183B000180E012122FE4021747902CEF0212DE08
:10184B000229A37B017D01020B8275FF028FE3222C
:10185B00021480E475FF02AFD4CDEFCD75FF02AF5C
:10186B00D5EFFCEDCEECCEFF22902D6AE020E015FB
:10187B0031A07F3D1217477F2A1217477F8012171F
:10188B00477FA6110A22121747124325EF70FA90D1
:10189B002D71E0F4600A9031167406F0F19970FC2A
:1018AB00902D6FE01213EB18CE0418D61418DB151D
:1018BB0018E01718F03018F53418FA3618FF3700FF
:1018CB000018E8431C10851C80802F431D108008D6
:1018DB00431D208003431D80851D90801D431E20CA
:1018EB00851EA08015431F01800D431F10800843E8
:1018FB001F408003431F80851FB0903116740CF07E
:10190B00F19970FC227F0111123058161217ED124B
:10191B0017E1903119EFF01194903119E020E002AA
:10192B00C2583058191217CF902D6BEF1247F36036
:10193B000BA3E0F46006EF30E702C2581194E4FF0A
:10194B001112A258E433FF22902FBB12128C902F4E
:10195B00BB12122F5103902FBFE06F60361207BFDF
:10196B003110EF600512079E80F65144600B902FEB
:10197B00BB12122F7810121744902FBB12174090E6
:10198B002FBB113E902FBFE0FF110A902D6E7401FB
:10199B00F0D322C3227F011112902D6FE01213EBB3
:1019AB0019C70419CF1419D41519D91719E93019F6
:1019BB00EE3419F33619F837000019E1531CEF8593
:1019CB001C80802F531DEF8008531DDF8003531D98
:1019DB007F851D90801D531EDF851EA08015531F14
:1019EB00FE800D531FEF8008531FBF8003531F7FD3
:1019FB00851FB07F0CDFFE22902FB612128C1207C0
:101A0B00BF3110EF600512079E80F631A07F0351A6
:101A1B005A600B902FB612122F7810121744902F7A
:101A2B00B6121740902FB6113E1217E1902FBAEF56
:101A3B00F0110D902FBAE0FF227F011112D2583115
:101A4B00A47F06121747119431A4902D6DE0FF125D
:101A5B001747902D70E0640222902E5A12128C9030
:101A6B002E5E1212DE1207BF3110EF600512079EB9
:101A7B0080F631A07F03515A600B902E5A12122F11
:101A8B007810121744902E5A121740902E5A113E6E
:101A9B00902E6112464A60111217E1902E5E12458C
:101AAB00FB902E5F12299C80E71194E4FF011290AA
:101ABB003118EFF0902D78E06402702331A0903153
:101ACB0018E07FAB60027FB9121747119490311861
:101ADB00E0902D77F070047F1EDFFEE4FF111222E1
:101AEB007B017A2D796F7D017F03120B827A2D7921
:101AFB00787F08114E7A2D79757F09F1A17A2D79AE
:101B0B00737F0BF1A1902D731215FD6006BEFF1BA9
:101B1B00BFFF18902D78E024FD6003047004F1CF13
:101B2B008009902D73E4F0A37440F0902D78E0249D
:101B3B00FD6003047008902D707403F08006902DE7
:101B4B00707402F0902D6FE01213EB1B72041B7D6F
:101B5B00141B85151B8D171BA3301BAB341BB33606
:101B6B001BBB3700001B9875FF015318EF8518FD41
:101B7B00804775FF015319EF800E75FF015319DF75
:101B8B00800675FF0153197F8519C9802C75FF01DC
:101B9B00531ADF851ACA802175FF01531BFE80166D
:101BAB0075FF01531BEF800E75FF01531BBF8006A2
:101BBB0075FF01531B7F851BCB11947F111217F4FB
:101BCB00E4FF51BA12174F902D6D7402F0902D71E6
:101BDB00E0247F6009047015F1C6740A8006117445
:101BEB00F1C67458F0902D707403F0F1CF902D72F4
:101BFB00E0F46002819A902D75E0FEA3E0FF641083
:101C0B004E7006902D72740EF0EF64204E7006909D
:101C1B002D72740FF0EF64404E7006902D7274109D
:101C2B00F0EF64804E7006902D727411F0E4B507DE
:101C3B000AEEB40106902D727412F0E4B5070AEEA9
:101C4B00B40206902D727413F0E4B5070AEEB404D7
:101C5B0006902D727414F0E4B5070AEEB4080690E2
:101C6B002D727415F0E4B5070AEEB41006902D72C0
:101C7B007416F0E4B5070AEEB42006902D727417B3
:101C8B00F0E4B5070AEEB44006902D727418F0021A
:101C9B0007CE75FF02EFF452D475FF02EDF452D567
:101CAB00227E267FAAE4FDAB05E4FCFD902FBFEB63
:101CBB00F0215375FF0275E404E4F5E41203E2121C
:101CCB003CBF900736EFF0901200E0B47A149012FC
:101CDB0014E0B49C0D900736E0FF64056004EFB48C
:101CEB00032EE490073FF090073FE0FFC394805032
:101CFB0013E42FF582E43412F583E4F090073FE010
:101D0B0004F080E3901200747AF0901214749CF03B
:101D1B00120B8C4003120B877B017A1279107D0119
:101D2B007F01120B827B017A1279117D017F2112C7
:101D3B000B827B017A1279127D017F22120B827A40
:101D4B001279177F02114E901217E0B401057F0133
:101D5B0012420C120B23123CBF120B1E900736EFD4
:101D6B00F0120C13120B14900736E0FF120D1CEF40
:101D7B0024FFB3926675FF0253E6BF122909120BBB
:101D8B002D12234420660912283812471E1209AC63
:101D9B007F011206B6D2AF206602C12C120B911234
:101DAB0008B7120D17120B7D40F2900735E060411A
:101DBB00120B50EF70051246644036E53670FCE5A9
:101DCB003720E50312364A120871EF70FAF1E7502B
:101DDB0005123C7950047F0151BA900735E0B402EB
:101DEB0004E4FF8009900735E0B403057F01123D41
:101DFB007C120B4BE53730E1A3F1B14002E4F0E587
:101E0B003720E505D1FA123023F1D9AF82AE83EF3B
:101E1B00C0E0F108900738E0FDD0E0FF120C04A100
:101E2B00A71228E6900735E06047201A03200941E6
:101E3B00120B50EF70051246644036E53670FCE528
:101E4B003720E50312364A120871EF70FAF1E750AA
:101E5B0005123C7950047F0151BA900735E0B4026A
:101E6B0004E4FF8009900735E0B403057F01123DC0
:101E7B007C900735E0600C201A093009062002031C
:101E8B00120984120B911208B7123B7D120D12200E
:101E9B003705120B4B80221208CB90072EE0FEEF7A
:101EAB00C39E4005EF9EFF800890072EE0F4042FA1
:101EBB00FF7401D39F5002C237E53730E126F1B1F1
:101ECB004002E4F0E53720E505D1FA123023F1D9D1
:101EDB00AF82AE83EFC0E0F108900738E0FDD0E0B1
:101EEB00FF120C04120AF1123C681228F7C12C9055
:101EFB000737E0FD75F0AA9007431212C9ED75F094
:101F0B0002A42430F9740735F0FA7B0122902FE8F4
:101F1B001212DE902FEB1221E3943F4003743FF03B
:101F2B0075FF02E5CD30E105E4F54A8003754A0102
:101F3B00E54A6039E5FD254B04543FFFE5DD543F91
:101F4B006F602A902FEB12218C5022902FE81212E7
:101F5B00D5854B82122072AEFD122288543F248EFF
:101F6B00F582EC3406F583EFF0054B80C3E54A6050
:101F7B0008E5FD254B543FF5FDAF4B22903141EF6A
:101F8B00F07B017A3179417D01F1187F012290318B
:101F9B0016E014F0E0227B017D02020B82C2AFEF50
:101FAB00F45237D2AF227F02F1A8900737E09007A7
:101FBB003FF090073704F0C39402227F101217F4FE
:101FCB00902D6D22902D737401F0A3E4F0229007F5
:101FDB003FE0FD75F0AA9007430212C9900001740F
:101FEB000193B40007E493B41802C322D322902FB9
:101FFB00EC1212DE902FEFEDF075FF02E4F54BEDD6
:10200B00D3941F4003741FF075FF02E5CD30E2053A
:10201B00E4F54A8003754A01E54A6036E5C9254B6C
:10202B0004541FFFE5DE541F6F6027902FEF318C98
:10203B005020902FEC1212D5854B821172AEC951E4
:10204B0088541F24EEF582EC3406F583EFF0054B34
:10205B0080C6E54A6008E5C9254B541FF5C9AF4B4F
:10206B00221212D51E8E82758300020E82902FA62D
:10207B0011E9E58F20E0FB11F0E4FF902FA612127F
:10208B00D58F821172F5930FEFB410EFE4FF902F01
:10209B00A91212D58F821172F5940FEFB410EF22A3
:1020AB00902E9911E9E58F20E0FB11F07E10902E18
:1020BB009C116CF593EE70F67E10902E99116CF5C9
:1020CB0094EE70F67F013100517FEF70FB7E109024
:1020DB002E9F1212D51E8E825151EE70F2221212C9
:1020EB00DE75FF012275FF01538F0675FF01538FBC
:1020FB00F075FF0122EFB4010751704401F58F22F7
:10210B0075FF01E58F54F04406F58F22902C4E128B
:10211B00128C902C521212DEE4902C75F0D3902C72
:10212B0056E0941E902C55E094004001227B017ADE
:10213B002C7957902C555193902C4E12122F121A1A
:10214B0064902C521212D5E94A600B902C75E0F575
:10215B00821172FF80027F00902C75E02457F5826C
:10216B00E4342CF583E06F6002C322902C75E004FD
:10217B00FFF0D3902C56E09F902C55E0940050C16B
:10218B0022E0FFE54BC39F22902FF01212DE902F1F
:10219B00F331E3943F4003743FF075FF02E5CB2529
:1021AB004B543FFFE5DB543F6F6020902FF3318C96
:1021BB005019ADCB513B543F244EF582EE3406F50E
:1021CB0083E0902FF05143054B80D2E54B60062501
:1021DB00CB543FF5CBAF4B22EDF0E4F54BEDD322D7
:1021EB00902FF41212DE902FF731E3941F400374FB
:1021FB001FF075FF02E5CC254B541FFFE5DC541F88
:10220B006F6020902FF7318C5019ADCC513B541F80
:10221B0024CEF582EE3406F583E0902FF45143057E
:10222B004B80D2E54B600625CC541FF5CCAF4B222F
:10223B00ED254BFF7E00EF22FF1212D5854B8275E9
:10224B008300EF020F16758300E593020F16903093
:10225B00CD11E9E4FF9030CD1212D58F8251510F81
:10226B00EFB410F12275FF01E58F54F62251704443
:10227B0008F58F2275FF01E58F5401FF22FFE54B17
:10228B00FDEE2DFD7C00ED22E0FFA3E0902E61CF53
:10229B00F0A3EFF0227B017A3179107D013193901D
:1022AB003110E0FF22902F0151C7C007902F011270
:1022BB0012D5902F041246C8D00721171212DEE454
:1022CB00FCFD2290306DE075F005A4242EF9742BE3
:1022DB0035F0FEAF017B017A2C7977902EFDE4F07F
:1022EB00A37405F0902EFA51C7C007902EFA121264
:1022FB00D5902EFD1246ACD00702161490306DE02F
:10230B0075F005A4242EF9742B35F0FEAF017B017B
:10231B007A2C797C902F5D7405F0902F5A51C7C0A1
:10232B0007902F5A1212D5902F5DE0FF902E61E48B
:10233B00F0A3EFF0D007021A64121AEB120B411242
:10234B000C09120B96900736E06401700281047F32
:10235B00FF1208A89004A71212DE7E007F1591854C
:10236B00BF540D7E007F169185BFA5047F018002AF
:10237B007F00900734EFF0640170559004A71212A0
:10238B00D5AE02AF017A0479AD740291AC9004AD75
:10239B00E0FEA3E09004A71246E2E92407F9E43A31
:1023AB00FA9004AA1212DEE92408F9E43AFEAF010E
:1023BB007B017A0479AD7402919F9004ADE06405C2
:1023CB007004A3E0642260081208AD900734EFF0AC
:1023DB00900734E070237E007F10C006C3743C94DA
:1023EB0010FE74389400902EFDF0A3CEF091B7D070
:1023FB000691A5E4FFFE1208B2120A5B12099812AD
:10240B00091B123C41306605755001803912459805
:10241B0012087612078CFE4FFDA3E0FC4DFDA3E0E6
:10242B00FB4D600BEE5FFFEC5FFFEB5FF470031295
:10243B0006DAE55054032439F582E43407F583E0DA
:10244B00655090072FF0E4902E50F0902E4EF0A395
:10245B00F002000A75FF02E5DB543FFFE5CB543F6A
:10246B006F7F0060027F012290288FE075F016A429
:10247B0024E9F9741F35F0FEAF01E4FCFD021A03E9
:10248B0075FF02E5DC541FFFE5CC541F6F7F006026
:10249B00027F0122902F5DF0612551EF74FFFDFC4F
:1024AB00227B01902F5DF061251212DE7B007A00FA
:1024BB007900229004F31212DED24EC2EBE53660A5
:1024CB0002C1B5E53730E202C322D1BE24EEF9E4F6
:1024DB003AFAE4120F04123ADFA2ED923DC2EDD1AB
:1024EB00D654606046D1BE2403D1CF20E13D902F5E
:1024FB0057E064046035D1BE24BBD1CFD1BD24E2FB
:10250B00F9E43AFAEF120F04902F56740FF090047F
:10251B00F31212D5902F5391B4121845902F577474
:10252B0005F0122B9BA23D92EDD32212461A540FAB
:10253B00FFBF0111E924EFD1CF700A901215E09083
:10254B0004F6F0800E9004F31212D5120C0E9004C8
:10255B00F6EFF0E53720E05F12301B40057F0112EC
:10256B0006B69004F67A0479F7F13CE433D1BD2436
:10257B00EFF9E43AFA7401120EAFEF700280349067
:10258B0004F6E0FF12469BE0FE9004F7E0D39E407A
:10259B0005122FF0C322D1C6FD12461AFB12398841
:1025AB009004F7EFF0E0FF7006D2EBD21DC197EF6E
:1025BB00B40204D2EBC197D1D65460600ED1BE24C5
:1025CB0003D1CF20E105E4902F57F012301B5004BC
:1025DB00C257D1ED12367BE5D120E0FBE4F530D1CB
:1025EB00BE2408F9E43ACFE9CFF5318F32D1BE24BE
:1025FB00B1D1CFF538AE311242C0D1BE24B1D1CF5B
:10260B00D1BD24E1D1CF2FFFE433FEEF2401FFE452
:10261B003EFED1C61237E250057401120EAFD1BE89
:10262B0024B2F9E43A8B40F5418942D1BE24E1D181
:10263B00CFF543D1D65407900419F0753608D1BEA7
:10264B00D1E61242B3D1BE24E1D1CFFFAD38124255
:10265B00DC7B01E4FDFF12427FE4F5FFE5D2548001
:10266B00440CF5D29004F6E0FFD1C62418FBE433FA
:10267B00FA7D03123A2BD1D6FFAEF0A24E924D90BB
:10268B0004F6E090051CF01236A34006A23D92ED35
:10269B00C3229004F6E0D1BD24F2F9E43AFAEF122A
:1026AB000F04A23D92EDD2EBD322A23D92EDD2EBE1
:1026BB00C322FF9004F31212D5E9229004F31212F5
:1026CB00D5E924B9F9E43AFA020E459004F3121253
:1026DB00D5E92404F9E43AFA02100124B2F9E43AF8
:1026EB00FA22903115E5F4F0E0547FF5F47F827E09
:1026FB0000F133122FCF5005E5FC20E6F6305708DA
:10270B00903115E04480F5F4F1C0F135122FCF5024
:10271B0005E5FC20E6F675FF01E5D520E702C322AF
:10272B00E5F4D330E601C322F1C475FF0343918076
:10273B0022E0FF7B0190300CEFF0A312325075FFBB
:10274B0001122CFB6002C322E5F430E602C3227FA8
:10275B00E87E0312336EF135123549400122C25720
:10276B00D1ED90300CE0FF1230A953F4DFD257D1EA
:10277B00ED7F787E0012338B75FF0153E4BFE5E4E8
:10278B0030E7FB123C2C7F8A12351030E6061232F2
:10279B0012E4800875FF01123212E5D9120F04758D
:1027AB00FF0143E4401247FB400343F42012354939
:1027BB00400122D3227FE87E03902FFCEEF0A3EFA3
:1027CB00F07B017A2F79FE12352C5014902FFEE0FE
:1027DB00FEA3E0FF902FFDE09F902FFCE09E400BAF
:1027EB00902FFCE0FEA3E0FF12336E2275FF015326
:1027FB00CCFD43FB40122818759E0143FB0975FF66
:10280B0003859E9E75FF03859E9E7F012275FF02A9
:10281B0043D20175FF03221118E4F59E7F01227547
:10282B00FF02AFD3EF7F0030E6027F01229007401B
:10283B007402F0900734E0FF120D219007407405ED
:10284B00F02275FF0275E40475E40175E40222754C
:10285B00FF0275E404E4F5E4229008A7EDF090087C
:10286B00A6EFF0BF0411A3E0FB7D017F0111A09047
:10287B0008A67403F0800B9008A7E0FB7D01E4FF32
:10288B0011A09008A6E0900735F0D2091208CB9062
:10289B000741020684EB600875FF0153CDFD8006EE
:1028AB0075FF0143CD02ED600553FBDF800343FB56
:1028BB0020EF600775FF0243E1402275FF0253E1F1
:1028CB00BF2290072FE064AA2411FFF022AE07115C
:1028DB00CDEE04FEEF8EF084AFF02230380D1209EE
:1028EB0043EF6007C25F12092FC2382290073D12D7
:1028FB0015FD6009CAEECAC9EFC91214112275FF82
:10290B0002D2ADD2BD75FF02758E7175510975FF7F
:10291B0002E58E546F4480F58E902FF812129800BA
:10292B0000000022C0E0C0F0C083C082C0D075D0D0
:10293B0008C0FF75FF02E58E30E43975FF02E58EA6
:10294B0054EF4410F58E902FF812122F12359C90E5
:10295B002FF812128C900000319CE55130E00205EB
:10296B0045E551700D755109054DE54D7002054C4E
:10297B008002155175FF02E58530E40875FF0243AF
:10298B0085100555D0FFD0D0D082D083D0F0D0E0C9
:10299B0032E475F001020FD5C0E0C0F0C083C082F5
:1029AB00C0D075D008C0FF75FF01E5D530E6047FB8
:1029BB00028009E5D57F0030E7027F018F3AE53AC7
:1029CB00640260024161E5361213EB29EF012A0222
:1029DB00022A4F082A0D092A180A2A260B2A440C08
:1029EB0000002B5E75FF0175C355153CE53C60027D
:1029FB00615E753602615E75FF0175C3F075360950
:102A0B00615E75FF0175C35575360A615E75FF0111
:102A1B0090042CE0F5C375360B615E75FF019004D5
:102A2B0018E0F5C3753601753C0890043B12462D32
:102A3B006002615E75360C615E902F577406F075FF
:102A4B003600615EC2EB753600433704F1F7400286
:102A5B00615E319C615EE53A64016002615E124128
:102A6B00674002615EE53070477186E5D9120F044D
:102A7B00717AE09008B0F012413D12393A90041788
:102A8B00EFF09008B0E0FFD394094050EFD394AA35
:102A9B00400280489008B0E0F538123C3690121591
:102AAB00EFF075FF009008B0E0F5D9753003615E6B
:102ABB00E53064036002615E7186E91238B9E5D9CD
:102ACB00120F0475FF00E5D330E016C3900427E026
:102ADB0094FF900426E094FF5002319C12326880E0
:102AEB0072C2571226ED75FF0012367EE5D120E03B
:102AFB00FBC2EB4337027172E0FF90073AE0FEEF47
:102B0B006EFF853282853183E0900739716BA3E0CC
:102B1B0090073B716BA3A3E0FE90073CE0FDEE6DCD
:102B2B004F6011C3900429E094FF900428E094FFB8
:102B3B005002319CC3900423E094FF900422E09454
:102B4B00FF5002319C7530001538717AE538F090E2
:102B5B000738F0D0FFD0D0D082D083D0F0D0E03285
:102B6B00FEE0FDEE6D4FFF853282853183A322E5BA
:102B7B00322407F582E43531F5832275FF01F5EA3E
:102B8B0075EAFF90041B0212D5F1F75002319C221B
:102B9B00902F57E024FC700281C014700281B9148D
:102BAB00700281A314700281C82406600281E2E5E1
:102BBB0036600281E2C2EB91E3120C0E9030D0EF43
:102BCB00F0E53730E00281A091FB60057F01120632
:102BDB00B69030D07A3079D112273C4004D2EB81B9
:102BEB00E99030D0E012469BE0FF9030D1E0D39FCC
:102BFB004002E1F0902F56E0640F702B9030D0E044
:102C0B00FF902F531226C9FD902F5312461DFB1216
:102C1B0039889030D1EFF0E0FF7005D2EBD21D2256
:102C2B00EFB40203D2EB2212396F91E3E924E212E3
:102C3B0026CFFF902F531226D9FDACF0E4FB1239AF
:102C4B004EC24D9030D0E090051CF0E4FFFE1236E2
:102C5B00A3503FD2EB902F577402F01239807E00B5
:102C6B00E4FCFD7BD07A127913F8121090E47BE828
:102C7B007A03F9F812039EAB07AA069030D0E0FF57
:102C8B007D03123A2B7E3C7F4F7D147C00120BC3CD
:102C9B008003D2EB22D2EB22E53720E50AE5373071
:102CAB00E0057F011206B6902F577403F022902F88
:102CBB00577401F022120BB991E3020B647194D299
:102CCB001D91E3902CEF1224B4902F531212DEE4DB
:102CDB00902F57F0120BDC22902F530212D5C3907A
:102CEB000421E094FF900420E094FF5002319C22D9
:102CFB00B101EF6401227FFA7E0012336E12273589
:102D0B00E5FC30E604F1CF40F7E5FC30E6037F034A
:102D1B002275FF01E5D530E6037F0222E5D57F0062
:102D2B0030E7027F0122902EF1124205EBF0902E3C
:102D3B00F77401F0C2567FE87E03122733F1CF50B0
:102D4B0005E5FC20E6F7B101BF0108E4F5FC75FCD5
:102D5B00408007B101BF0202D32275FF0153D8EFA8
:102D6B00902EF2E0FF12411375FF0153D5DF53FA9A
:102D7B00FB902EF1E0FF1230A9902EF2E0902EF195
:102D8B00B40809D146245212359F8003D146FF1255
:102D9B0036EE902EF3E0FF12416175FF0175FF03D4
:102DAB00759B041227C012273575FC42E5FC20E108
:102DBB0004F1CF40F4902EF4E0F075FF03E59B2077
:102DCB00E704F1CF40F4E59B20E70D75FF03759BFE
:102DDB001F123687D256804FF1E112321E902EF21F
:102DEB00E0FD90120FE05D701C902EF1E0FFF1E121
:102DFB00123F7E90120FE0FF902EF2E0FEEF4E900E
:102E0B00120FF0F1AD1234B17B017A2E79F5123538
:102E1B002C500FC3902EF6E09420902EF5E09403E7
:102E2B0040E6F1E1123D9A123294305602A13990EC
:102E3B002EF7E0B40103D38001C322E025E025E0A7
:102E4B002401F582E43412F583E0FCA3E0FDA3E05A
:102E5B00FEA3E022902CBB12128C75FF0243E18083
:102E6B001236871234E6902CD0121298002DC6C061
:102E7B00E4F5FFF5A490120EF0A3F0902CCB7402A6
:102E8B00F0F1E8FFF595EF14601314601C24027049
:102E9B0027902CBBD154F1DA902CC78016902CBF05
:102EAB00D154F1DA902CC8800A902CC3D154F1DAAA
:102EBB00902CC9E0902CD4F0123F71902CD4E07080
:102ECB000FF5FFF59675FF0175D70975F418805B43
:102EDB0090120EE004F0902CCBE01237C8902CD05F
:102EEB00D154FF902CCC1237ECC31211DE500A9048
:102EFB002CCCD154FFA312128C902CD4E0FF123D9A
:102F0B00F2902CCAE0FFA3E0FDA2559253123F1F93
:102F1B00A3D154FF902FB212128C902CCBE0FF1246
:102F2B0035AA902CCBD146FF1236EE1247AB60027E
:102F3B00C18C7402F0F1E8F595E5F45407701D901F
:102F4B002CD012358078011211EF902CCBE0FB12B4
:102F5B00363C12128CEBD147FF1236EE1247AB7098
:102F6B00D475FF037595801247FB400343F420A2F1
:102F7B00559254123E51902CD0D1542420FFEE3454
:102F8B004E1235A2E4FB7A04F9F81235907801124F
:102F9B0011EFC2521233C8E4F5FFE5BD54F84404F7
:102FAB00F5BD9012137401F07E127F01E4FD8F8248
:102FBB008E83EF2D1247EBFC901213E02CF00DEDEE
:102FCB00B412EB2275FF03E591C330E701D322FF67
:102FDB00902CCC02128C7B017A2E79F72275FF0391
:102FEB00902CCBE022D2EB91E9D21D22C390041F8F
:102FFB00E094FF90041EE094FF2212301B50071246
:10300B0037AA50028001C322C2EBA2ED923DC2ED62
:10301B00E5F4C330E701D322AF82AE837D01900488
:10302B00BDF1D0E536707611135005C2571226ED5F
:10303B009004BDE0FEA3E08E31F532A31212D590C1
:10304B00041B1212DEAE31AF327DAAB15FE4F5FF85
:10305B0075D908F530E5375421602AE53730E5049A
:10306B00E4FF11A9E49004C2F09004C2E004F05113
:10307B009DEF60099004C2E0C3941040EC7F0212F4
:10308B000D3A5337DEB1185005E004FF80027F0084
:10309B005159D2571226EDD2EBA23D92ED2275FF7C
:1030AB0001E5D530E602C322E4F5FF439A80EFF148
:1030BB00C8E4F5FF539A7FD322902DCA5150902D1F
:1030CB00D012129800000001902DD47401F0F5FF7E
:1030DB00E5D554C07004111B5002C322E4F5FF5315
:1030EB00967F75FF0175D5047F3FFE518F75FF01EC
:1030FB0043D508E4F5FF5394FBF5FF53847FF5FFAD
:10310B007598FF902DCEE5F4F075F49C75FF01A337
:10311B00E5E4F075E4257B017A2D79D4511E902DD1
:10312B00D4E06401600221F0F5FF902DCD7414F012
:10313B00902DD0122E54FF7801121202902DD01226
:10314B00128CE5A730E1FB43A702902DD0122E5431
:10315B00FFE5A730E005E47B018002E4FBFAF9F818
:10316B00EF4BFFEE4AFEED49FDEC48FC902DD012E3
:10317B00128C902DCDE014F070B6902DD0122E54F1
:10318B00FF78101211EF7B6D7A4E79C678411210D1
:10319B0090EF2439FFEE3430B1A2E4FBFA7901F859
:1031AB0012111BEE547FFEE4FDFC1246D5902DD080
:1031BB00122E54FFEB6FFFEA6EFEE8CDEFCDCCEE97
:1031CB00CCECFF902DCA5115EF120F04902DCA5164
:1031DB0015900001ED120F1690120FE030E606E489
:1031EB00F5FF75968075FF01E4F5D5902DCEE0F5D2
:1031FB00F475FF01A3E0F5E4123E40902DD4E0B44A
:10320B000103D38001C32290300DE0FBA3E0FAA3AE
:10321B00E0F92290306451507F017C127D01E4FE75
:10322B008D828C83ED2EF582E43CF583E02FFF0E2F
:10323B00EEB412EC901213E06F60099030645115EC
:10324B00E4120F0422EBF0A3EAF0A3E9F02211A998
:10325B0043FA04E4F5FF53D1FD43D10122D176E5C6
:10326B00D120E0FBE4F5FF75D908B1185005E00457
:10327B00FF80027F005159D2571226EDE4F5302220
:10328B007F147E00716E12273575FF03E59120E7E1
:10329B00FB22E4903004F0A304F0E4903007F0E557
:1032AB00FA30E1FB75FF01E5D530E7037F0022E43F
:1032BB00F5FF75E50875FF0153D8EFE5D530E61A34
:1032CB0075FF01903006E5DAF0E4F5DA75FF01E5FC
:1032DB00D630E3FB9030077401F075FF03759B0448
:1032EB0075FC4175FF03E59B30E7FBE4FB75FF03C2
:1032FB008B95EB122E47FFD1EE0BEBB403EF75FF63
:10330B0003759580E4F5FF758EC891B175FF015378
:10331B00D5FB91CC518B75FF0143D504903007E061
:10332B00700691CC7FC8518D7B017A307905123DA7
:10333B009A903005E09030047006E04404FF800260
:10334B00E0FF903004EFF090120EE0B4010675FF31
:10335B000143D81075FF01903006E0F5DA90300488
:10336B00E0FF2275FF03D3EF9402EE940040087444
:10337B00FE2FFF74FF3EFEEFF592EE540FF59122F8
:10338B00CDEFCDCCEECC91DAAB94EF4BB141CBEF93
:10339B00CBFAE59130E71891DDA994E9F582EF4579
:1033AB0082FFEBF1B8C3EF9582E5F0958340E3E53F
:1033BB009120E708CEECCECFEDCF518F22902D1F71
:1033CB0012128CE4F5FF75BB0575BB8575FF017596
:1033DB00D5022052077F3FFE518F91B175FF0143FC
:1033EB00D520305202818BE4F5FF538EF7438E07C5
:1033FB007D04E4F5FF8DBCF5FF43B102E5B130E28E
:10340B00FBE4F5FFAFDFEFFEACDEECFBEBFFED25F6
:10341B00E0241DF582E4342DF58391D3F5FFF5FF00
:10342B0053B1FD0DEDB40CCA902D1F122E54FF7825
:10343B00091211EFA391D3FDED25E02427F582E4CA
:10344B00342DF583E0C313FAA3E013FBED91A5F143
:10345B00C02BFFEE3AFEED91A5EEF0A3EFF0ED24BD
:10346B000490120DF0EDC394075015CFEDCF0DEF77
:10347B0091A5B109902D24E09F902D23E09E50B88B
:10348B00E4F5FF758EC8F5FF90120DE0F5BCE4F581
:10349B00FF75BB8075FF01F5D52225E02425F5824C
:1034AB00E4342DF58322E4F5FF75C2E17F1EB110E4
:1034BB0030E707E4F5FF75C2A122E4F5FF75C28181
:1034CB002275FF03E4F59122EEF0A3EFF0E42275F1
:1034DB00FF03AF93EF75F010A4FF2291FF53DB7F37
:1034EB0075FF0175D502518B91FF43DB8075FF0191
:1034FB00E4F5D52275FF01438E1075FF0122E0FE26
:10350B00A3E0FFC322FE718B90120FE022901215E5
:10351B00E02401FFE433FEC3EF9403EE6480948058
:10352B002291DAAD94EF4DB1418FF0121064E59119
:10353B00C330E701D32224FBFFE5F034FF22E5F78C
:10354B0030E50FE5F754C07005122FCF40F091CC4A
:10355B00C322D322E4F5FF75D102E5D120E0FBE4D1
:10356B00F5D1F5FFEFF1D9EE540F42D6E4F5FFCFCD
:10357B00EDCF8FD422FF7E04FDFCE0F8A3E0F9A38E
:10358B00E0FAA3E0FB121090E47B7DFAF9F812113C
:10359B001BEF2401FFE43EFEE43DFDE43CFC2290E6
:1035AB002FB1EFF0E4A3B18078011211EF902FB19E
:1035BB00E0FBD13C12128C901210E064806071E041
:1035CB00C3947F5039EBD13CC083C082122E54FF81
:1035DB00EEC0E0EFC0E0901210E075F004A4AEF086
:1035EB00FBCAEECAEA3395E0F9F8D0E0FFD0E0FE73
:1035FB00C3EF9BFFEE9AFEED99FDEC98802A902F7E
:10360B00B1E0D13CC083C082F1EC901210E0F40425
:10361B0075F004A4FFAEF0EE3395E0FDFCEB2FFF4D
:10362B00EA3EFEE93DFDE83CFCD082D08312128CD1
:10363B002225E025E02401F582E43412F58322E50E
:10364B0036702611135005C2571226EDD1877F080D
:10365B00120D3AD17BE5D120E0FB4337205337FEE7
:10366B00E4F530A23D92EDD322C322C2571226EDD0
:10367B00E4F5FFE5D154FE4402F5D122E5FA30E141
:10368B00FB75FC8075FF0153D5EFE4F5FC75FC4031
:10369B0091CCE5FC20E6FB224337015337DF900545
:1036AB001CE0FDF12A90051CE0FD12390F4004E4EB
:1036BB00F5362243FA045337FB304D04515E800A32
:1036CB007F55D1D77F55D1D7D2EBD32275FF01E5EB
:1036DB00D520E602C322E5FA540360FA75FF018F89
:1036EB00C3D32290300012128C75FF01903000A3CF
:1036FB00E0FDA3A3E4FFFEE4FC78101211EF8FE1D1
:10370B00903000A3A3E0FEA3E4FFE4FDFC780812D5
:10371B0011EF8FE2903000A3A3A3E0FF8FE322EF22
:10372B0030E30774332DF8E6FF22743D2DF8E6FDE8
:10373B00203E04EE30E00BE539C394F05020F17ECF
:10374B008018E53B6006FDE4F53B8012E539C39438
:10375B00F0500BE539540FFF6004F16CAD07AF056A
:10376B002212383BFFC3940E40027F0DEF9005668B
:10377B0093FF2290041AE0FDFFC3740EF1B1EFC466
:10378B00F8540FC868FFEEC454F048FEE53954F006
:10379B00C3F1E37F005002AF0522E4F536C14AE5E1
:1037AB00F754E024FF229FFFE49400FE222DF582C4
:1037BB00EA3CF58322E0C313FEA3E0132233333339
:1037CB0054F8F5F422EEF0A3EFF0A30212DEF5D7D6
:1037DB00E4F5FF53D6F022D39FEE6480F874809803
:1037EB0022E0F8A3E0F9A3E0FAA3E0FB22AF36EF67
:1037FB00C36001D322EFC3940E500590041AEFF06F
:10380B0022E539540FFF22E539C394F0501F533989
:10381B00F0113BFE740FC39F4005EE940E40054321
:10382B00390D8003EF4239E539540FFF227F002217
:10383B00E539C4540FFEEF900584932E2290074078
:10384B00E06402701F8F3DAF058F3EAF038F3F903B
:10385B0004BAE0F533A3E0F534A3E0F535AF3D1240
:10386B000B28D322C3229004FD1212DE11ACE53DCE
:10387B0011A9E911B9E53E120F049004FD11D0E531
:10388B003F11A911C8E53311A911C0E534120F047A
:10389B009004FD11B2F9E43AFAE535020F04120F68
:1038AB00049004FD0212D51212D5E924052224013D
:1038BB00F9E43AFA22E92404F9E43AFA22E9240376
:1038CB00F9E43AFA221212D5E92402F9E43AFA227F
:1038DB00E53954F0C4540F2FFFC3941040027F0FEF
:1038EB00EF90057493FF227E10EE60091EEE90059B
:1038FB007493B507F4EEC3940E40027E0DEE900563
:10390B006693FF229008A8EDF0A3EFF07F01120D54
:10391B003A9008A8E0FFA3E0FBE4902EF4F07D02C0
:10392B00122D3150ECD322C2AFEF4237D2AF22EF80
:10393B0024FE600C24FE600580007F01227F0222A2
:10394B007F0322753601753C0790042CEFF0900431
:10395B00197403F0C374799B90043CF0E4940090C9
:10396B00043BF022E53720E508123676E5D120E05E
:10397B00FBE4F5302290043BE0A3E0FF229008AA81
:10398B00EFF0A3EBF09008AAE05115E0FEB40203B0
:10399B007F0022EE701C9008AAE0FF51157401F015
:1039AB0090042AE0FCA3E0FDEF511FECF0A3EDF037
:1039BB00802AED241BFFE433FEE4FCFD7B0CFAF9BB
:1039CB00F812039EEF2405FF9008AAE0511FE0FCBC
:1039DB00A3E0C39FEC940050037F0022902BC6E022
:1039EB00B4FF159008ABE0540FFFBF0103E4800454
:1039FB0090043AE0902BC6F0902BC6E060037F0258
:103A0B0022902BC674FFF07F01222415F582E4343B
:103A1B002BF5832225E024C0F582E4342BF5832299
:103A2B0090051DEFF0ED24FE601914602624027042
:103A3B003BEB2402FFE43AFE7C007D50120F387DF5
:103A4B0060801E519FC333CE33CED8F9FF7C007DEF
:103A5B0028800E519FC333CE33CED8F9FF7C007D27
:103A6B0064120F4A90051EEEF0A3EFF090051DE0D7
:103A7B0051AAC083C08212124B90051FE02401FF94
:103A8B0090051EE03400FEE4FCFD121083D082D0C2
:103A9B008302128CEB2401FFE43AFEEF780322251C
:103AAB00E025E0242EF582E43404F58322EF51AABD
:103ABB0012122F021215E4FFFEFDFC90042E51D6BC
:103ACB0090043251D690043602128C12128CE4FF01
:103ADB00FEFDFC22900739E0F4FFA3E06FFFA3E0AB
:103AEB006FFFA3E06FFF6455601DEF64056018EF77
:103AFB0064256013EF6445600EEF64656009EF6445
:103B0B004A6004EFB40A010F900418EFF022A2EB05
:103B1B00924FC2EB7A04791E7B017D0CE4FF1208F5
:103B2B006CA24F92EB22A2EB9250C2EBEBC0E0EAFD
:103B3B00C0E0E9C0E07B017A04791E715ED0E0F948
:103B4B00D0E0FAD0E0FB7F0C120899A25092EB2246
:103B5B001212D5902F110212DEC003C002C0017BDE
:103B6B00017A2E794B715ED001D002D0037F030214
:103B7B000899122CFB706C91369030D2EFF0D394E5
:103B8B00035060902E50E0FF9030D2E06F70547174
:103B9B00EF9030D3EFF07B017A3079D37D01120BAC
:103BAB00FF9030D2E0244BF582E4342EF583EFF016
:103BBB00902E50E0911B7C007D03120F4AAF05EF56
:103BCB00F07020902E4EE07002A3E060167B017A1D
:103BDB002E794871647B017A2E7948902E4E912272
:103BEB0012141522E4FFE5F754C06002801675FF2E
:103BFB0001E5D530E30D911450F4910FEF60EF9187
:103C0B001450EB22912CAFD92275FF01E5E433223E
:103C1B002401FFE433FE22E0FEA3E0FFF5828E8356
:103C2B002275FF01E4F5EA75EAFF22E5F454181357
:103C3B001313541FFF22E4902F57F0FBFAF9902F28
:103C4B00530212DE120BB9902F56E014F06005A34D
:103C5B0074058005902F577407F0022B9B902F57FC
:103C6B00E0FF64066004EFB40103122B9B227F017B
:103C7B007E009017FCE4935EFE7401935F4E24FF6D
:103C8B00B322902E4EEEF0A3EFF022EF7011ED6009
:103C9B000775FF0143AE012275FF0153AEFE22EF04
:103CAB00B40110ED600775FF0143AE022275FF01F1
:103CBB0053AEFD2275FF02E5E630E2037F0322E5FA
:103CCB00E630E3037F0022E5E630E1037F0422E5E3
:103CDB00E67F0530E0027F0122EF600775FF02539C
:103CEB00E6BF2275FF0243E64022EF14600F14601B
:103CFB0014240270188B8075FF018DFD228B90753B
:103D0B00FF018DC9228BA075FF018DCA22AF038FD6
:103D1B00B075FF01AF058FCB22902EEB1212DEEFA9
:103D2B001460111460182402701EB15EE580B1643A
:103D3B00E5FD801CB15EE590B164E5C98012B15E12
:103D4B00E5A0B164E5CA8008B15EE5B0B164E5CB2E
:103D5B00020F04902EEE0212D5120F0475FF019084
:103D6B002EEB0212D5E4F5FFAF9122E4F5FFAF92F3
:103D7B002243FB1075FF0243E640EF600D75FF0217
:103D8B00E5E120E7FB43FB0D800343FB0E80FEC206
:103D9B005175FF03759B1F75FF0390120FE020E712
:103DAB001BE59A540FC394024012E04480F0E4F5F3
:103DBB00FF75C2A143FC0475FF03D251E5FC30E64D
:103DCB0009E59A540FC3940540CDE5FC30E611E4A8
:103DDB00120F0475FC80F5FC75FC40E5FC20E6FB3E
:103DEB00305103122FAD22EF30E00E43F401E4F516
:103DFB00FF43A404F5FF759624EF30E10E43F40165
:103E0B00E4F5FF43A408F5FF759624EF30E2094370
:103E1B00F402E4F5FF75961EEF30E30943F404E476
:103E2B00F5FF75961075FF01EF5403600475D712FB
:103E3B002275D72D22E4F5FF7584E6F5FF43940434
:103E4B00F5FF75981422E4F5FF75933F75FF037525
:103E5B009A40D140E4F5FF759C93F5FF75A1A3F54E
:103E6B00FF758531F5FF758628E5FA54304480F5EA
:103E7B00FA75FF0175E74A75FF0275DF4975FF019A
:103E8B0043D30475FF0153D367E4F5FF53E6BF75C6
:103E9B00FF0175D825F5FF75B503F5FF75B215F55F
:103EAB00FF75BA02F5FF75AFB3F5FF75CD0AF5FFD8
:103EBB0075CB08F5FF75CA12F5FF75BF0EF5FF75CB
:103ECB00CC96F5FFF5BDF5FF75C281F5FF75AEE13B
:103EDB00F5FF75DA55F5FF75F580F5FF75E903F517
:103EEB00FF75E933F5FF75972A75FF01759B4275D1
:103EFB009CA4759D29759E48759F2475A11275A369
:103F0B0012759AF820540CF5FF43968090120FE02F
:103F1B004440F022CCEFCCCFEDCF74017E00C8EF44
:103F2B00C8088005C333CE33CED8F9FFCDECCDEF27
:103F3B005D601B30531875FF0175DCAD75FF0175A6
:103F4B00DDCDE4F5FF759A74F5FF7594842275FF4A
:103F5B000175DC5375FF0175DD33E4F5FF759A14BC
:103F6B00F5FF7594042275FF0175E46575FF017506
:103F7B00D64722903008EDF0901211E0F46005A3C3
:103F8B00E0B4FF0C90300A7418F0A37413F0801097
:103F9B00901211E090300AF0901212E090300BF07A
:103FAB00120E45640160030240EE903008E0FE649F
:103FBB00086004EEB404089030097428F080069071
:103FCB003009743AF0EF122E47FF1211BAE4124186
:103FDB000BEF24D8FFEE343FFEED3493FDEC34169B
:103FEB00FC7B007A807903780012039E1246D590F1
:103FFB00300BE0FF90300AE0C31237B1E4FCFD1246
:10400B001090ECC0E0EDC0E0EEC0E0EFC0E090300F
:10401B000BE0FFE4FCFDFE310BD0E0FBD0E0FAD06F
:10402B00E0F9D0E0F8EB2FFBEA3EFAE93DF9E83C8A
:10403B00F8903009E0FFE4FCFDFE121090EF2454E1
:10404B00FFEE340B1235A2E47BA87A16F9F81203B3
:10405B009ECBEFCB903008E014606014601B24FE05
:10406B00600C24FC707DE4F5FF75CE318006E4F521
:10407B00FF75CE21F5FF8BCF22E4FAE4F5FFEA249E
:10408B0040F5CEE4F5FFEAFFC374071237B174BCF9
:10409B002FF58274053EF583E411EF13C39DF5CF25
:1040AB00E4F5FFEA2448F5CEE4F5FFEA9005BC11F0
:1040BB00EF132DF5CF0AEAB408C122E4F5FF75CE54
:1040CB0001F5FF8BCFF5FF75CE0EF5FFEB25E0F578
:1040DB00CFE4F5FF75CE0FF5FFCFEBCFEB75F0030C
:1040EB00A4F5CF229325E0FDE433FCEB75F010A48F
:1040FB00FFAEF0120F4ACDEFCDEBFFE4C313EF226F
:10410B007B64FAF9F802109075FF01E5D530E602F1
:10411B00C32253FACFEFB4080543FA308012EFB441
:10412B00040543FA208009EFB4020543FA1080001E
:10413B00D322E5F75406FFBF06037F0822E5F754A9
:10414B0006FFBF04037F0422E5F75406FFBF0203FB
:10415B007F02227F012275FF018FDA22E5F754C01F
:10416B0024FF22903010EE5103EBF031ECAC00AD9C
:10417B0001AE02AF03C006C0079030101237C0FB70
:10418B00AA06E4F9F8D007D006D31211C87E005066
:10419B00047F0180027F00C006C00731ECD0E02F06
:1041AB00FFD0E03E903010F0A3EFF053ECFC9030DA
:1041BB0010E0FCA3E0FDEC540342EC75FF02EDF5BF
:1041CB00AF75ED0275ED04A3E0600543EC088003C9
:1041DB0053ECF7903013E0600443EC042253ECFBF8
:1041EB0022903010E0FEA3E0FBAA06E4F9F87F80F2
:1041FB007E387D01FC02039EF0A3EFF0A3EDF0A34C
:10420B0022EF600775FF0243E6102275FF0253E6AB
:10421B00EF22E5ED30E2FB75ED04AFEF22E5ED208B
:10422B00E0FB8FEF22EF600443EC042253ECFB2204
:10423B00EF600443EC082253ECF722E5ED5402FF48
:10424B0022E5ED5404FF22E5ED5401FF22902D6C85
:10425B00E0120F04902D71E0900001120F16902DBB
:10426B0072E0900002020F16902D6EE0FF22E49098
:10427B002D6EF022E4F5FF75D102E5D120E0FBE4D1
:10428B00F5FFF5D1EF6008E4F5FF43D2808006E43B
:10429B00F5FF53D27FEB6006E4F5FF43D104ED60ED
:1042AB0006E4F5FF43D10822E4F5FFE91237D9EA1A
:1042BB00540F42D622E4F5FFEFF5D8E4F5FF53D6C1
:1042CB000FEE540FC4F854F0C8E4C4540F4842D650
:1042DB0022E4F5FF8FD4F5FFCFEDCF8FD522E4F598
:1042EB00FF8FD422E4F5FFE5D1540133333354F877
:1042FB00FFE4F5FFE5D354074FFF22EFB40109D2DA
:10430B00AD75FF0143AE4022C2AD75FF0153AEBF89
:10431B0022E5C85402FF75C80222E5C85404FF22E7
:10432B00E5C85401FF22EF6004902E44F09003FB8C
:10433B00E0FF9003EA1212D51208EE9003FBEFF0A8
:10434B00604B202048902E42E0C330E501D39224ED
:10435B00902E41E0902E4591D8902E43E090047F13
:10436B00F0902E40E090048071ADF09003FBE0FBE9
:10437B00E4FF120BD7EF7029902E447402F0902EAD
:10438B003EE0FEA3E0F5828E837F028011902E44E7
:10439B00E0FF902E3EE0FCA3E0FDF5828C8312142F
:1043AB001522F0A37443F0A3743122902D891212BD
:1043BB00DE902D88EFF0FE902D937403F0902D90EE
:1043CB00E05437F0E0FF5420902E42F0902E41EE57
:1043DB00F0902D91E0FDA3E0902E3ECDF0A3EDF0FB
:1043EB00902D8C1212D5902E451212DE902D8FE04F
:1043FB00902E43F0902D891212D59003EA1212DE03
:10440B00EF4420902E40F0E4902E44F0C220F5565D
:10441B00902D891212D5AF561208EE8F56EF601EF3
:10442B007D03120AD340E9AF56120ACE5008902DE5
:10443B00937401F08008902D937402F080D2902D2C
:10444B008FE0D3948140037F00227F02120B4690B2
:10445B002D941212DEEA494B6059902D88E0FF90A3
:10446B002D941212D5E924B6F9E43AFAEF120F049F
:10447B00902D90E0FE30E00FE49003FBF091C1EE45
:10448B006401A371AD801891C1902D90E090048CC4
:10449B00F0902E3EE0FDA3E090048DCDF0A3EDF067
:1044AB00902D9491CF902D8C1212D57D02120BCDA5
:1044BB007F01227F0022902D93E0FF902D8FE090C3
:1044CB00048BF0221212D590048F0212DEFD121211
:1044DB00D590047C0212DE902E021212DE902E0179
:1044EB00EFF0120AB04006902E01E550F0902E012D
:1044FB00E0FF902E051212D5902D8C1212DE902E0D
:10450B0008E0902D8FF0902E09E0902D90F0902EDA
:10451B000AE0FDA3E0902D91CDF0A3EDF0902E02DB
:10452B001212D561B6E4FF3036037402FF2220006D
:10453B0005D215020A06C322903142E0701C7BFFA4
:10454B007A04798E7D23120B697BFF7A0479777D50
:10455B0017120B699031427401F022020B6E75FF3A
:10456B0001E58F5408FF22EFB4010775FF0143AE3D
:10457B00202275FF0153AEDF22EFB4010775FF0157
:10458B004391202275FF015391DF22C20A7B007AEF
:10459B00007950902F611212DE0B7A077939229035
:1045AB002D16E0540F22902DD91212D5902DDEE04E
:1045BB00FFA3E0902E58CFF0A3EFF0902DD5121261
:1045CB002F1216DC902DDEE0FEA3E0FFC3902DDD55
:1045DB00E09FF0902DDCE09EF0902DD512124BE475
:1045EB00FCFD121083902DD512128C902DD922FF29
:1045FB001212D5EF020F04FFE5F08FF002106424C6
:10460B0008F9E43AFA22F0E4A3F0A3F0A3F0229025
:10461B0004F31212D5020E45F9E43AFAC3E99FF9F5
:10462B00EA2274FFF5F0120FD545F022EEF0A3EF5E
:10463B00F0A3ECF0A3EDF0221212D5EA494B227451
:10464B00FFF5F0120FEB45F0228F828E837F06026F
:10465B001415240CF9E43AFA22900741E0FEA3E08A
:10466B00FF1208D0D3EF94C8EE940022E4120F048B
:10467B000429F9E43AFA221212D5E924B7221212CC
:10468B00D5E92FF9EA3EFA22EFC454F0FF0212D516
:10469B0024F7F582E43403F583227B017A0379E472
:1046AB0022E0FFA3E0902DDCCFF0A3EFF022FF8DF3
:1046BB00828C83021415E99582EA958322E0FFA38D
:1046CB00E0902C55CFF0A3EFF022C8ECC8C9EDC990
:1046DB00CAEECACBEFCB22FF1212D5C3E99FF9EA80
:1046EB009EFA22AF03EAF0A3EFF022242EF9E43A6C
:1046FB00FA7D04E4FF22F09029EC7401F0222412DD
:10470B00F9E43AFA22FDE4F0A3EDF0227B01902FBD
:10471B0027F0227B017A297907227A0479137F0407
:10472B0022FFE0FCA3E0FD2275F005A424F3F9744D
:10473B0000227407F0E4A3F022EEF0A3EFF04E2278
:10474B008F828E837F020214158F828E837F0502E8
:10475B001415242DF9E43AFA74402274FF120EAFAB
:10476B00020E45902DDEE0FEA3E0FF222FF9EA3E7C
:10477B00FA020E457B017A2F79AF7F0222FF7B0174
:10478B00E4902F6EF022F9EA34FFFA020E45E0FFB7
:10479B0090290AF07B0122E090047FF0A3EFF02236
:1047AB00902CCBE0FF14F0EF227438F0A3743CF0A4
:1047BB0022F0A3EDF0E4A3F022902E85F0A3EFF00E
:1047CB0022FF54F0C4540FFE227401F0AE04AF0567
:1047DB0022AA06A907021411E0FFA3E0FEC39F2241
:1047EB00F582E43EF583E022F0902D6AE0FFF4229F
:0847FB0090120EE0D39401229C
:107F7E000200022B332FEC02043D022FEE301C00C8
:107F8E003304052202302138230807050522023862
:087F9E002838360013FF05220C
:107FB000FFFFFFFFFFFFFFFF7FC600000000000084
:067FC000000003080000B0
:10800000EF547024F0602824F0604024F06058247D
:1080100030706F30590C1186088002C333D8FC428F
:1080200080221186088002C333D8FCF452802230AB
:10803000590C1186088002C333D8FC429022118665
:10804000088002C333D8FCF452902230590C1186B8
:10805000088002C333D8FC42A0221186088002C3E4
:1080600033D8FCF452A02230590C1186088002C388
:1080700033D8FC42B0221186088002C333D8FCF406
:1080800052B02275FF01EF5407FF7401A80722EFD9
:10809000547024F0601824F0602024F0602824300C
:1080A000702F1183088002C333D8FC42FD22118354
:1080B000088002C333D8FC42C9221183088002C35E
:1080C00033D8FC42CA221183088002C333D8FC4251
:1080D000CB22EF547024F0601924F0602224F06069
:1080E0002B243070331183088002C333D8FCF45240
:1080F000FD221183088002C333D8FCF452C9221137
:1081000083088002C333D8FCF452CA22118308804A
:1081100002C333D8FCF452CB22903082EEF0A3EFAE
:10812000F0A3EDF0E0FF14F0EF7002C32212F76449
:10813000FE122485AD07306111903084E01187086C
:108140008002C333D8FC4DFD8010903084E011874D
:10815000088002C333D8FCF45DFD12F764FE021CF4
:10816000B2903122EFF0E516B55003D38001C35031
:108170000990312212A48830E70F7E1F7FCA903108
:1081800022E0FDD2613119C21A902900E0700A0480
:1081900012F6C112E84F12CFD42290312EEFF0C068
:1081A00003C002C001A801AC02AD03D001D002D0CF
:1081B000037E007F13120E1F902965E01213EB81DE
:1081C000EA01829A02850603851C048443058479AA
:1081D0000684C407852908851C0985550B85860CEE
:1081E00085720F854710000085B0E490293EF0307D
:1081F00029321245AA6401702B902966E064EF7061
:108200001690296BE020E70F12EA85600A90296733
:10821000E0FFF1B212B766902966E0B4EF06A3E082
:10822000FF12CD32C22390312EE0C37001D3921BD6
:10823000C206E4902907F09029657402F090289412
:10824000E0FFB4030A902967E0902966F0800FEF01
:1082500064016007902894E0B4020312CCB0902827
:1082600094E07F06B403027F01902868EFF0902924
:108270006AE0FE30E502D224B1C690047F7401F0BA
:10828000EE12CD52902966E0FB90293EE0FFAD5002
:10829000120BD7EF6002A1B08114E49028C1F090D6
:1082A000312EE070026164902868E014F07015E0EF
:1082B0007008301B0F12F849600A902894E064019E
:1082C00060026164902868E0601E90296AE0FF30D7
:1082D000E502D224B1C6740112CD4D902966E0FBAF
:1082E000D1DA6002A1B0811412F8496002616D9088
:1082F0002965F090296BE020E75D902967E0FF1287
:10830000CD32902967E0FF7D0112902920170512D8
:10831000EA856048902967E0FFF1B212B766301A2B
:108320002A300C27E51660236550601F12CBBC90E5
:108330002967E0902909F09029657405B1C590047A
:108340007F7409D1CB6002A1B08114201A0E90294C
:1083500067E0FF31618005E4902967F0902967E0CC
:10836000FDA38171C21B902894E0B40307E4FBFDD8
:108370007F23A10312F89E6007EF64026002A1B0A0
:10838000902966E0FF12BE8890284EEFF090296693
:1083900012C42412B76612C85CFB7F2112CEC8300B
:1083A0001A75300C72E516606E902966E0651660ED
:1083B00066E5166550606090284EE0600790289949
:1083C000E030E153740612CA86740D12EE8FF19FED
:1083D00024FEFF12D658F1677A29790AF1739029A1
:1083E0000BE020E10A12F86112CB83F167F1FB1276
:1083F000F60A70139028D6F09029657406B1C5D19D
:10840000C36002A1B0800DF15CF1EBF173902966BD
:10841000E0FF316102EE17201A07902966E0FF3174
:108420006112F0506002A1B012C85CFB7F2212CE34
:10843000C830170990284EE0600302F813E4902931
:1084400066F022F1F17012902966E0FFF1BE300271
:108450000FE5127002A1B0800B902966E0FF316138
:10846000E5126005F1B202E6FC902966E0FD902974
:1084700068E024FBFB7F21A103F1F19029667006DF
:10848000E0FFF1BE8004E0FF316112AB975026900F
:1084900029657407F090293712E7AE12B87C90294D
:1084A00037B1B112F08BD1C86002A1B0902937E08A
:1084B000FF3161803612F0506002A1B012C85CFB3F
:1084C0007F22803F90312EE07015902966E0FF12E8
:1084D000D4E8EFD39402400EE4902D16F08007907C
:1084E0002966E0FF316112AB97500BE412ABEAE46E
:1084F000FDFCFF02A2221245AA700312CFA012CEE9
:108500007C7F2202CEC812C94012F8392406FEE44C
:108510003390296CF0A3CEF07F2F802890296CE453
:10852000F0A37402F07F7C801B12C94012F8392539
:10853000E0FFE433FEEF2407FFE43E90296CF0A354
:10854000EFF07FB402E7BC12CDC17E0A7F1FE4FBCF
:108550007D1402C68490312EE070157C0A7D6A7409
:108560001412F820F012CFD4902906E07042801344
:108570008011F1F1700DF1B97C0A7D65746412F817
:1085800020802102C2B690312EE0701C90296574C3
:108590000DF09028C77480F07C0A7D24743E12E8A8
:1085A00089A374FFF002CFD4E4902965F012CA9237
:1085B00022E0902909F09029077401F0A3740EF0CD
:1085C00090290A741DF07B017A29790790047C02B6
:1085D00012DEAD07ED547024F0602024F0603324E7
:1085E000F0604324307054D13D8005C333CE33CE88
:1085F000D8F9AC8012F85A6001D322D13D8005C36E
:1086000033CE33CED8F9FFAC90ECFBEF5BC3600107
:10861000D322D13D8005C333CE33CED8F9ACA012DE
:10862000F85A6001D322D13D8005C333CE33CED872
:10863000F9FFADB0EF5DC36001D322C322ED540753
:10864000FF74017E00A80708227D03AF179030E475
:10865000EFF0A3EDF030071C9028D0E0B40E0AF143
:10866000B2E4FF12C66ED207229030E5E0640460E7
:108670005102C1CED20712C666740BF09030E5E00D
:10868000902866F09028D0E0640E701B12C520B1CF
:10869000CC12CB8D7409F0745212F8AED1DA70227C
:1086A000FBFAF9FF02C66E12C520B1CC12CB8D7455
:1086B00009F0744D12F8AED1DA7007FBFAF9FF1227
:1086C000E27522902938E00490047FF0A37405F04D
:1086D000A3740AF0A3746FF0AB16AD50E4FF120B55
:1086E000D7EF2212E79A300C70E516606C651560C2
:1086F00068E5166550606212CA8A740DF0E515705F
:1087000007902937E0FF8002AF15902909EFF19F0C
:10871000E5136403601F12D658F1677A29790A7F3E
:10872000037E00F17390293812D772F1677A2979A4
:108730000DF173800312CBBC301A1712F60A700CBD
:108740009028D6B1C5D1C360097F0122F15CF1EB5D
:10875000F173902909E0FF31617F00229028D6E073
:10876000FF7B017A297907902F110212DE7B017AB3
:108770002C79FE902F0E1212DEAE071FEE601F90B6
:108780002F1112AD96FE902F0E1212D5EE120F047D
:10879000902F0F12299C902F1212299C80DB22F01F
:1087A000902968E0902938F0229028C21212D51240
:1087B000BF4B7B007A00790022902854E0FF903173
:1087C00023EFF0FD7E1F7FCAC2613119F1EBE94A48
:1087D0006018128A71FF903123E0B5070DF1A9905E
:1087E00028C21212DEE49028D6F0229028C202128B
:1087F000D5E4902965F090312EE0227A291902877C
:1088000073EF14600D14600D14600D2403700CAF31
:108810008022AF9022AFA022AFB0227F0022F9E4E5
:108820003428FA7B01E4FFAE051DEE6009EF120F5C
:108830000412D7FE80F122021910902F5E1212DE70
:108840007E007F14122485902F611245FB902F61CA
:1088500012AD96701004120F04F1BEE94A60177E43
:10886000007F08800AF1BEE94A600B7E007F10F1AC
:10887000BE740412249F22C243229030671212DE7B
:108880007E007F14121CB27E007F1090306712129F
:10889000D512B35E1207667F0122E54760022141CF
:1088A0003145E9240451749027E030E6171212D5BF
:1088B000B1DBE475F06412106431457406120F04E4
:1088C000C22180321238B251744420FF3145E9246C
:1088D0002AF9E43AFAEF3142E912475D3142E912EE
:1088E00046F61127314574053142B1DB740775F046
:1088F000D0121064D2219027E0516EFF9027E0D172
:10890000C15174FD3145E912F728C003C002C0010E
:108910003145E924065174900471F03145E924048D
:108920005174900472F0A3740AF0A374ECF0D001B7
:10893000D002D003120BD2EF700731457407120F2B
:108940000422120F049027E00212D57F477D4812BF
:10895000F18BE54714700312AD38E4F5469027E03B
:1089600012F751120E4524FE601524FE60161460A5
:108970001714601814601A240670735107806F1260
:10898000F239806A119A8066B117806212F25080C3
:108990005D3145E9241E1226DF45F06049E5476454
:1089A0000460093145E924015174F5483145E92451
:1089B000091226DFFFAEF012BBBE3145E9240B12CF
:1089C000F7B5C003C002C0013145E9241E1226DFFD
:1089D000F58285F083D001D002D003AF4812141580
:1089E0003145E912F7FA3145E4120F04C235054664
:1089F000E546C394025002215DE5456009FD7F0113
:108A000012F135E4F545223145E43142E9240551BE
:108A1000741460030470513145E9242D5174540FCE
:108A2000903131F09027E0602D1212D5E9242C51BD
:108A300074FF1228D8EFFD903131E014F075F06426
:108A4000A42419FFE435F0CF2DCF3400FE3145B119
:108A5000DBEE8FF080081212D5B1DBE4F5F01210D6
:108A60006431457402120F0422C217902D7B12123A
:108A7000D5E92402F9E43AFA020E45121845E92430
:108A8000EE51746015E4902D06F09127F1E3120F7A
:108A9000047E0B7F32FD7C00611E9127E924015189
:108AA00074D394014040120BC8902D06EFF0E004FF
:108AB0009122E924B75174540F6408701B9127E97F
:108AC00024BC517420E0119127E924BD517412F89F
:108AD0006AB504047D07800A9127E924B151741214
:108AE000F88E7C008038E4902D069122E924B7515D
:108AF00074540F6408701B9127E924BC517420E062
:108B0000119127E924BD517412F86AB504047D0758
:108B1000800A9127E924B1517412F88E7C00020B6F
:108B2000BE9030381237D3B1E39127E94AC36001D0
:108B3000D34002812112F82D5015E0FF9404500219
:108B400080027F04912712E24D12876712876D9091
:108B50002CEF1226D95467902D02F09127E924E8D2
:108B60005174902CFDF09127E924F35174902D035A
:108B7000F09127E924F45174902D04F09127E92411
:108B8000F55174902D05F09127E924F15174902C42
:108B9000FBF09127E924F25174902CFCF09127E925
:108BA00024F61226DF12F695F0912712F59FE49035
:108BB0002CF2F09127E924E51226DF45F06053906E
:108BC0003038E0602DA31212D51287677A2C79F61F
:108BD00012ABDBB1F7C003C002C0019127E924E565
:108BE0001226DFF58285F083D001D002D003E4FFA6
:108BF000801DB1F7C003C002C0019127E924E5122E
:108C000026DFF58285F083D001D002D0037F0112E8
:108C10001415902F57E0B40402E4F01287B2121832
:108C20004522F07E0B7F32902CEF0212D590303C23
:108C30001212DEE94AC36001D34002A10D90303C1C
:108C4000516E30E017B10F24B75174540FFFBF05B8
:108C500003D38001C3400512F843417BB1E312F80E
:108C60004312F82D5015E0FF9404500280027F0457
:108C7000B10F12E24E12876712876D90303C1226B8
:108C8000D95467902D02B10E24E85174902CFDB197
:108C90000E24F35174902D03B10E24F45174902DD1
:108CA00004B10E24F55174902D05B10E24F15174C8
:108CB000902CFBB10E24F25174902CFCB10E24F6D2
:108CC0001226DF12F695B10E24EE517490303F70EB
:108CD00003F080037401F0B10F24E51226DF45F0A4
:108CE000602590303FE0FFB1F7C003C002C001B182
:108CF0000F24E51226DFFDACF0F58285F083D0016C
:108D0000D002D00312141512F84312F59F22F090EE
:108D1000303C1212D5E922E54724FD60521460115F
:108D20002403706E12F2055069C2343145F1E380BC
:108D3000573145E9240BF9E43AFAC003C002C001F7
:108D40007B017A28792E128767D001D002D0037F69
:108D5000131287733145E92404517420E002802BFB
:108D6000901215E0FF3145E92413F1B6D234229078
:108D700027E0D1C15174B54819901215E0FF314573
:108D8000E92413F9E43AFAEF120F0431457407129B
:108D90000F04229127E94AC36001D3503DD21D91AF
:108DA00027E91238B9124766FFD394014007EF94C0
:108DB000035002800A9127E924015174B4010491FF
:108DC00027E1C4902CEF1226D954606005E4902F5F
:108DD00057F0E4902CF2F0120BDC22E92407F9E4BE
:108DE0003AFA22B1F77D13E4FF11277B017A2C793F
:108DF000F67D057F7F01277B017A2C79F322903065
:108E0000B21212DE9030B21246825174540FFFBF7C
:108E100008109030B21212D5E924BD5174C4540F19
:108E2000FF227F00229030251212DE903024EFF0D6
:108E3000D394E8400AA31212D57D02E4FF012790E3
:108E4000302412EF9FA31212D512231F12C676519F
:108E500074FF9030251238B2F1B6903025D1C1514F
:108E600074FF12C676F1B69030251212D590309A62
:108E70001212DE90309A12C1A75174FF30E119909E
:108E8000309A12AD9630E7071238C87402802290EB
:108E9000309AD1C1F1E68019EF90309A30E30AD1CF
:108EA000C1F9E43AFA74048008D1C1F9E43AFA74D9
:108EB00003120F0490309AD1C15174FF22FF902DFC
:108EC0007B1212D5E9240322902E7E124205121243
:108ED000DE902E83E0D394984002E1A812F26C8FCA
:108EE00046EFC394024002E1A8902E7EE0B4FF0357
:108EF000E550F09027E312F7517401120F04F1AC22
:108F00001238B9E4120F04902E7EE0F1AB2424F164
:108F1000B6F1AB2402F1B6902E7FE0F1AB2429F13B
:108F2000B6FF9027E3D1C1F1B6902E84E01247CC72
:108F3000F1AC2405F9E43AFAEE120F04EF540FF104
:108F4000AB2404F1B6902E83E0FF6028902E8012AF
:108F5000F63C6020F1AC2432F9E43AFAC003C002D6
:108F6000C001902E801212D5128767D001D002D096
:108F700003128773F1AC242CF9E43AFA74FA120F55
:108F800004902E83E02412F1ABF1B4902E85E0FE24
:108F9000A3E0F1AB241E12F7B512BF3CF1AC2409DB
:108FA00012F7B5E54604FF227F0022FF9027E31267
:108FB00012D5E9222406F9E43AFAEF020F04902FC1
:108FC0005E0212D590089A1212DE90089A12AD969F
:108FD000540F120F0490089A1212D5E924F3F1E607
:108FE000020EAFE92401F9E43AFA74012290312A21
:108FF000EFF030641A902965E0FFD394004010EF41
:10900000940A500B902894E0640260037F00229041
:10901000312A12EA88600B90312A12D4CC5460FFB6
:1090200080027F00227D01AF17300C53ED6017E402
:10903000FE118DE0B50709118DE4F01180E4F022F6
:109040000EEEB405EC22902856E0FDE4FCFE118DF6
:10905000E0B5070E1180E0C394FF50231180E004B7
:10906000F0221180E0FBEDD39B4004AD03AC060E73
:10907000EEB405DAEC118EEFF0EC11817401F02200
:10908000EE25E02456F582E43428F58322EE25E02F
:109090002455F582E43428F58322AE058E5311AAB7
:1090A000AD5312BABFEF24FF22FF7B017A2A793039
:1090B000E4902F6EF012B87C7B017A2A79302290EE
:1090C000311CEFF0D394004039E0D394E850339052
:1090D0002965E0B404037F00227E007F3811B812B6
:1090E000F65E11B890311C12BAB960037F0022906D
:1090F000311CE0FF11B8902F6E744011B47D1D0239
:10910000D7E37FFE229030E8EFF0A3EDF07E267FDC
:10911000511287B212B35E12B71F9030E9E0FF9090
:1091200030E8E06F602811B87D1D12BA7E11B8904A
:1091300030E9E0FD12BDE49030E8E0FF11B87D1D9C
:1091400012BEA09030E8E0FF12BFEB7F01227F004B
:1091500022902F25ECF0A3EDF0902F221212DE12B8
:10916000ACAB902F25E0FEA3E0FFA3E0FDA3E0FB66
:1091700012C684902F221245FB902F2212AD96B476
:10918000FF04E4120F04902F2212AD96FF22902DBF
:10919000791237D0902D7EE0FF7401C39F40030207
:1091A000A221902D7F12AD96902D82F0E92401121C
:1091B0008A74902D84F0902D7F128A6E902D83F00A
:1091C0001237F840FB12079E300D0302A221902DAA
:1091D0007B12AD96FFC394204056EFD394FF5050BE
:1091E000902D7EE0FF949E5047902D82E030E70363
:1091F00002A221128A71902D19F0902D79E0FCA322
:10920000E0AA04F97B01C003C002C001A31212D579
:10921000902E371212DE902E3AEFF0902D7F121220
:10922000D5902E3B1212DED001D002D003020D26C3
:10923000902D7B12AD966401600302A221902D82D5
:10924000E030E60302A221E92401128A741213EB32
:1092500093F1019908029939039B1D049BD6059748
:10926000700696A6079A0A089A57099AB10A9AC5EB
:109270000B9C6A0D9E0C0E9B100FA02F109EAA1126
:109280009FB1129F1D13A08E1592A216A1B2199A1A
