:020000040000FA
:100000000202DF0218034100E0002202180B222244
:0100100022CD
:07001300021813E4FFE1D223
:07001B0002181B75C8012249
:030023000218239D
:03002B0002182B8D
:030033000218337D
:03003B0002183B6D
:030043000218435D
:03004B0002184B4D
:030053000218533D
:03005B0002185B2D
:030063000218631D
:03006B0002186B0D
:10007300021873BB010689828A83E0225002E722B9
:10008300BBFE02E32289828A83E49322BB010CE54F
:100093008229F582E5833AF583E0225006E9258239
:1000A300F8E622BBFE06E92582F8E222E58229F57D
:1000B30082E5833AF583E49322BB010689828A832E
:1000C300F0225002F722BBFE01F322F8BB010DE53B
:1000D3008229F582E5833AF583E8F0225006E92583
:1000E30082C8F622BBFE05E92582C8F222C5F0F8D4
:1000F300A3E028F0C5F0F8E582158270021583E0CD
:1001030038F022A3F8E0C5F025F0F0E582158270FF
:10011300021583E0C838F0E822EF2BFFEE3AFEED3C
:1001230039FDEC38FC2275F008758200EF2FFFEEE5
:1001330033FECD33CDCC33CCC58233C5829BED9A10
:10014300EC99E58298400CF582EE9BFEED9AFDEC6E
:1001530099FC0FD5F0D6E4CEFBE4CDFAE4CCF9A8B4
:100163008222B800C1B90059BA002DEC8BF084CFBC
:10017300CECDFCE5F0CBF97818EF2FFFEE33FEED93
:1001830033FDEC33FCEB33FB10D703994004EB99BD
:10019300FB0FD8E5E4F9FA227818EF2FFFEE33FED0
:1001A300ED33FDEC33FCC933C910D7059BE99A4005
:1001B30007EC9BFCE99AF90FD8E0E4C9FAE4CCFB1D
:1001C3002275F010EF2FFFEE33FEED33FDCC33CC71
:1001D300C833C810D7079BEC9AE899400AED9BFDFA
:1001E300EC9AFCE899F80FD5F0DAE4CDFBE4CCFA0D
:1001F300E4C8F922EF5BFFEE5AFEED59FDEC58FC23
:1002030022EB9FF5F0EA9E42F0E99D42F0E89C451F
:10021300F022E8600FECC313FCED13FDEE13FEEFC9
:1002230013FFD8F122E8600FEFC333FFEE33FEED87
:1002330033FDEC33FCD8F122E0FCA3E0FDA3E0FEA8
:10024300A3E0FF22E0F8A3E0F9A3E0FAA3E0FB2296
:10025300ECF0A3EDF0A3EEF0A3EFF022A8828583E8
:10026300F0D083D082120276120276120276120244
:1002730076E473E493A3C583C5F0C583C8C582C878
:10028300F0A3C583C5F0C583C8C582C822E0FBA31C
:10029300E0FAA3E0F922F8E0FBA3A3E0F925F0F0EC
:1002A300E582158270021583E0FA38F022EBF0A3A1
:1002B300EAF0A3E9F022D083D082F8E493701274B9
:1002C3000193700DA3A393F8740193F5828883E4DB
:1002D300737402936860EFA3A3A380DF75812F0279
:1002E3000855900A1951B0AE071FEE6012900A1C10
:1002F30071031176FE900A197103EE11BC80E82296
:10030300E475F0018090900A54EEF0A3EFF09000B2
:100313004FE064016002619BC3900A54E09408506B
:100323000BE4FF914F900A54918380ECE4F50DFBAD
:1003330071C4AF0C121010E50DC39408504771C27D
:10034300E50D7F0071BCEF29F9EA3EFA900A1C51D2
:10035300B07B017A0979007FFF51E5E50DFEE424C6
:10036300FFFFE43E71BC8F828E83118F9009FFF0F3
:100373007B017A097900900A3DE50DF0AD0C12106E
:1003830037050D80B2900050513BE42FFFEE340847
:10039300919490005002167F900054E0FEA3E0FF7A
:1003A30071BD900A54E0FDA3E0900A05CD120AA89E
:1003B300900054EEF0A3EFF022FE90200141907BD9
:1003C300007A00791091D175FF031176F5D375FF8B
:1003D3000390000171EF90000271EF90000371EF41
:1003E30075D40175FF03E5D55402FF22118FF5D3B0
:1003F30075FF0322900A33E0FEA3E0FF912D914F96
:10040300900A35513BEF24019191900A3551539055
:100413000A589149900A58E07002A3E0700BFF7EDE
:1004230008710991DFF01215FD2291B3CD24FFCDA0
:1004330034FFFCC3ED9FFFEC9E541FFE74082F9105
:10044300E8FF22900A1374FFF5F001F091B3541FF3
:10045300FC74082DF58274203CF583EFF0902006A0
:10046300E0B42019A3E0B40014902005E02401FFB8
:10047300902004E03400541FF0A3EFF022902006F4
:10048300E475F00101F09000CE513BEF241BFFE433
:100493003EFEE43DFDE43CFC2291C7EF2401919133
:1004A300120C867404F0D1E3918991CC91F1F0227E
:1004B300902006E0FCA3E0FD902005E02DFD9020B8
:1004C30004E03C229000CE413B900087415375FFEE
:1004D3000375D40222900A17E0FF8101900A587431
:1004E30008F0A3E422F58274203EF583E022900015
:0704F300817408F0A3E4226C
:10050800AEFFEE54CFFEEFC454F024804EF5FF2228
:10051800D119EF541FFFF1E0A37401F01215C09038
:100528000A10E0FCA3E0FDAE047805CEC313CE1399
:10053800D8F9FF900A13EEF0A3EFF0ED541FA3F0E3
:10054800A3E4F0900A33F0A3F0C3900A11E09420DA
:10055800900A10E09400407C9146900A15E0FEA3B2
:10056800E0FF900A33EE8FF011F0900A13E0700468
:10057800A3E06406700AD119900A13E48FF011F011
:10058800D119900A33E48FF011F0120DB2EF600424
:10059800F1DE8005E4900A12F0900A33120FD2704F
:1005A8001D912D900A17EFF0910191D891D8900ADA
:1005B80013E07002A3E0604791D8914680F071F78C
:1005C80071F771F7900A13E07002A3E0603171F7D8
:1005D800914680F0900A109183800A900A10E0708A
:1005E80002A3E0600BD1199101900A10914980EBA8
:1005F800120DB2EF6004F1DE8005E4900A12F0906B
:100608000A12E06002A12712166E7109900A35419C
:100618003B900081E0B4082DA3E0B40028120DA59A
:100628007B017A0179009000FD7408F0A3E4F0D111
:10063800E3120DA5E42FFFEE3408919491CCE490D9
:100648000081F0A3F0900083120E8990008351532B
:10065800900081E475F0013106FE740025F0F58202
:1006680074013EF583E0FF229000ED51539000F1B4
:1006780051B0110FF134EF6004111080F7120F7CA4
:1006880060099000ED513B7810D1D89000EDD1D49D
:100698009000ED513BE480279000F4120FD945F00B
:1006A80060219000F15190EA494B60119000F1519E
:1006B800901176FFD1DB9000F2918380DBE4FFD1CB
:1006C800DB80D5F1CD9000D77401F022513B78083A
:1006D8005115E4E5C820E2FB8FEB229000F6515358
:1006E8009000FA51B0110FF134EF6004111080F747
:0806F800F1EE120F956009906C
:1007000000F6513B7810D1D89000F6D1D49000F685
:10071000F1E99000FD120FD945F06011F1889000C9
:10072000FA5190EF11BC9000FB918380E5120EF915
:10073000E4FFE1D27F01F1D23002161212D2F18829
:10074000900A5DEFF0120EF9900A5DE020E002C21F
:1007500002300219F1779000D4EF1212DA600BA385
:10076000E0F46006EF30E702C202120EF9E4FFF196
:10077000D2A202E433FF22F1F77FD7D1DB7FFFD192
:10078000DBF18C9000D3EFF07FFFD1DBE5C820E2F6
:10079000FBAFEB22900A3E5153110FF134EF60048E
:1007A000111080F7F1EE120F956009900A3E513B4F
:1007B0007810D1D8900A3ED1D4900A3EF1E9F18860
:1007C000900A42F1CB900A42E0FF22EFF0120EF9BC
:1007D000E4FFEFB4010443FE202253FEDF22D119CF
:1007E000900A10E4F0A3EFF022513BE4C1DB7F015B
:1007F000F1D2F1F77F03229000D8E051B908190433
:10080000082114082615082B17083B300840340827
:100810004536084A3700000833531AEF851A80809E
:100820002F531BEF8008531BDF8003531B7F851B57
:1008300090801D531CDF851CA08015531DFE800D6C
:10084000531DEF8008531DBF8003531D7F851DB0CE
:100850007F0CDFFE2275FF03759E029017FAE4936A
:10086000900A51F075FF02E5E654036002419F755E
:1008700010DE7511AD7512BE7513EFC2AF75FF02B4
:1008800075E404F5E4751AFF751BFF751CFF751DF3
:10089000FF7516FF7517FF7518FF7519FF75FF02B5
:1008A00053E6BF91B6121102B108EF640160024134
:1008B0009690180893FE740193FF90007FEEF0A3CA
:1008C000EFF0F5828E83E493FE740193FFC3EE9400
:1008D00080500280047E807F008E148F159193FFDC
:1008E000F5828E83740293F51E740393F51F7404CE
:1008F00093F508740593F509740693F50A74079344
:10090000F50BC201EF4E700221F4EFF4FFEEF44F4D
:10091000700221F4E514451EFEE515451FFFE508AC
:100920004EFEE5094FFFE50A4EFEE50B4F4E700205
:1009300021F4E51FF4FFE51EF4FEE515F4FDE514D2
:10094000F44EFEED4FFFE509F4FDE508F44EFEEF31
:100950004DFFE50BF4FDE50AF44EFEEF4D4E70023F
:1009600021F47F03120508E50B24FFFFE50A712B34
:10097000640370247F02120508E50924FFFFE508DF
:10098000712BB402137F01120508E51F24FFFFE558
:100990001E712BB40102D2012001597F01120508FA
:1009A000713F900A05E51EF0E51FB1AB71207F0293
:1009B0007134900A05E508F0E509711E7F03713472
:1009C000900A05E50AF0E50B711E7F0112050890FB
:1009D0000A52E0FEA3E0FF7BFF7A187900E42515B8
:1009E000900A06F0E51434E8900A05711F4EC370B2
:1009F00001D39201300109D159EF6401600241969F
:100A0000D2001204C77B017A007964918C741BF0C8
:100A10001206E3900064E0B4800B71D3EF7006120D
:100A2000161BEF6002C20030006830011A9193F586
:100A3000828E83740C93FE740D93FF90007DE06EA4
:100A40007003A3E06F604B90005012025F0000182B
:100A5000001204C71204CCB1A5EF24011204919135
:100A6000867404F01206E390008712048C900087CD
:100A700012167F1204F1F090004F04F01205187462
:100A800040D3950C400C1203C2AF0C121010050C91
:100A900080EDE4FFB1D4E4F510F511F512F5130281
:100AA0001800E0FD900A05E4F0A3EDF0900A00EED6
:100AB000F0A3EFF0A31202B0900A05F1D945F0605F
:100AC00054900A02120290120076900A07F0900ADF
:100AD000031204837D80ED60DF7115EE7C0030E74A
:100AE000027C01900A07E05D7B0060027B01EB6CF9
:100AF000FCEF25E0FFEE33900A00F0A3EFF0AF0427
:100B0000EF600C900A00E06410F0A3E06421F0EDC7
:100B1000C313FD80C1900A00E0FEA3E0FF22A3F012
:100B200051AC900A52EEF0A3EFF022347F8F82F5A1
:100B300083E49322120508900A52E0FEA3E0FF7BB3
:100B4000FF7A80790022900000EEF0A3EFF0A3126C
:100B5000023B900008120253900006E0FFA3E090D1
:100B6000000CCF805F90000CF1D2605EC3EF944028
:100B7000EE94004006A37440F0800590000EEFF064
:100B8000919BE0FF918CEFF090000812023B12065F
:100B9000E390000EE0FFC390000DE09FF090000C8A
:100BA000E09400F090000812024790000EE4FCFD73
:100BB000FE12011C90000812025371CA919B51A2AF
:100BC000900000EEF0A3EFF0809B900000E0FEA309
:100BD000E0FF221204C79180900006E4F07405B192
:100BE000AB9175C006C0071204C7EF240712049129
:100BF0009180900006E4F0A37414F0D007D0069121
:100C000075C006C007120489918091A540067EFF39
:100C10007FFF800690006512023B900006EEF0A375
:100C2000EFF0D007D006917591A540301204C7EFC0
:100C3000241AFFE43EFEED3401FDE43CFC9180907B
:100C4000006512023BEF2401FFE43E900006F0A392
:100C5000EFF0900A56E0FEA3E0FF9175900069E086
:100C6000FEA3E0FF900A56E06E7003A3E06F7F00E2
:100C700060027FFF227146900A56EEF0A3EFF02249
:100C80009000020202537B017A0079839000FDE418
:100C9000F0A32290007FE0FEA3E0227B017A00799E
:100CA0000F90000E22E47FFF7EFFFDFC9000651296
:100CB0000247D3020204E4900A5EF0900A5EE0FF6D
:100CC000D3946F501EEF2410FFB1E6900A5EE0FE51
:100CD000E42EF582E4344FF583EFF0900A5EE004F1
:100CE000F080D87B017A4F7900900A05E4F0A37474
:100CF00070F07F0F7E1D51ACEF4E7F0070027F01C0
:100D0000901218EFF024FF22E49000D2F07B017AD9
:100D10000079BD1213429000BFE0FF7411D39F50C1
:100D20005DE4FFFEFDFC7B017A0A794F9000FDF047
:100D3000A37402F01206E3900A4FE0FEA3E0FFE482
:100D4000FCFDB19F1204C7EF2402120491B19F125F
:100D500015619000CE1202471201F7900A4DEEF095
:100D6000A3EFF09000CE120247900A4D12154FFEED
:100D7000E4FCFD12011CB19F9000D27401F09000C0
:100D8000D2E0FB6017E4FFFE7D02FC9000BFE02490
:100D9000EFF9F81202289000B7120253AF03229025
:100DA00000CE02025390008702023BA3F07F0F7E29
:100DB0001D22E4FFFEFDFC90008391AF7F00400206
:100DC0007F01227F0F7E1D51A4900A0C1202909089
:100DD0000A0F41A2AB07E4FF9000D2E06007D18682
:100DE000D19DE433FF2275FF03E4F597F1E7E59722
:100DF00020E1FB75FF03AF9922900A48EFF0A3EDC5
:100E0000F0A31202B0900A49E06046901218E06028
:100E100012900A48E02410FFB1E6900A4A120290AC
:100E2000EF8017900A48E06401900A4A70071202A6
:100E3000907480800512029074FF1200BC900A4BDF
:100E4000120483900A49E014F0900A48E004F0800C
:100E5000B4227D01B1F97B0122E49000FFF0900003
:100E6000D2E0601C9000B712023BE4FBFA7902F872
:100E7000D3120204500AD1861207949000FFEFF0BB
:100E80009000FFE0FF229000CE12023BEF24FFFF14
:100E9000EE34FFFEED34FFFDEC34FFFC22900A47F8
:100EA000EBF0900A43120253900A4312023B1207DE
:100EB00094900A47E06F603C12000F120734EF6015
:100EC0000512001080F5F17C600B900A4312023B82
:100ED00078101206D8900A431206D4900A431207DB
:100EE000E9900A47E0FF1206DB1207CD9000D774A5
:100EF00001F0D322C3221206DBF1CCEF70FB90008D
:100F0000DAE0F4600A900A5A7406F0F17470FC900A
:100F100000D8E01202B90F32040F3A140F3F150F38
:100F200044170F54300F59340F5E360F63370000EB
:100F30000F4C431A10851A80802F431B10800843E2
:100F40001B208003431B80851B90801D431C208534
:100F50001CA08015431D01800D431D108008431DFA
:100F6000408003431D80851DB0900A5A740CF0F137
:100F70007470FC22900A5AE014F0E0227F011207FC
:100F8000D2D2021207F77F061206DBD1F91207F759
:100F90009000D6E0FF1206DB9000D9E06402221236
:100FA000000F120734EF600512001080F57F011268
:100FB00007D2D2021207F77F06D1F61207F77F0198
:100FC0001206DB7F03D1F6E4FF0207D2E5C8540422
:100FD000FF22E0FEA3E0FF4E2274FFF5F0020106BF
:100FE000AB05E4FCFDC19D75FF038F9875FF0322DF
:100FF00075FF03759701F1E7E59720E1FB75FF03A6
:10100000AF99221204D175FF03E5D5F45402FF22F3
:1010100075FF03EF543F4480F5D1E5D520E20AE5A2
:10102000D520E005E5D530E1F1E5D55403FF75FFA6
:101030000375D5050204D175FF03ACD5EC20E13C66
:1010400075FF03ED543FF5D175FF03E9F5D375FF47
:1010500003EA540FFF900A3DE0C4547044804FF5FA
:10106000D2E5D520E205E5D530E0F6E5D55401FC22
:1010700075FF0343D40275FF0375D505AF04227FC6
:10108000011207D2900A5B7401F0900A5BE06032B3
:1010900051D2120788900A5BEFF0120EF91207770F
:1010A0009000D4EFF0120EF9900A5BE0540151DA8F
:1010B00060D8A3E0F460D3EF30E7CFE4900A5BF0B0
:1010C00080C81207F77F9F1206DB1207889000D5B1
:1010D0001207869000DA1207869000DB1207CB9089
:1010E00000D3E0F4601BA3E0F460169000DAE0FDAA
:1010F000541F240FA3F0EDC413540744809000DA6A
:10110000F0227B017A0079D87F03120E527A00799F
:10111000E17F08120E527A0079DE7D027F09120DFE
:10112000F97B017A0079DC7D027F0B120DF99000CA
:10113000DC120FD26006BEFF1BBFFF189000E1E07B
:1011400024FD600304700451C880099000DCE4F0C1
:10115000A37440F09000E1E024FD60030470089067
:1011600000D97403F080069000D97402F09000D882
:10117000E01202B9119004119B1411A31511AB17C1
:1011800011C13011C93411D13611D937000011B64F
:1011900075FF015316EF8516FD804775FF01531744
:1011A000EF800E75FF015317DF800675FF0153179F
:1011B0007F8517C9802C75FF015318DF8518CA80F9
:1011C0002175FF015319FE801675FF015319EF8039
:1011D0000E75FF015319BF800675FF0153197F85F6
:1011E00019CB120EF97F1151BAE4FF7109117F90EA
:1011F00000D67402F09000DAE0247F6009047015D4
:1012000051C0740A800651E251C07458F09000D960
:101210007403F051C89000DBE0F4600241B7900025
:10122000DEE0FEA3E0FF64104E70069000DB740E5B
:10123000F0EF64204E70069000DB740FF0EF644016
:101240004E70069000DB7410F0EF64804E700690D4
:1012500000DB7411F0E4B5070AEEB401069000DB80
:101260007412F0E4B5070AEEB402069000DB7413C2
:10127000F0E4B5070AEEB404069000DB7414F0E461
:10128000B5070AEEB408069000DB7415F0E4B50764
:101290000AEEB410069000DB7416F0E4B5070AEE0F
:1012A000B420069000DB7417F0E4B5070AEEB440F2
:1012B000069000DB7418F0020F9FEF4420F5FE2229
:1012C0007F1051BA9000D6229000DC7401F0A3E4A4
:1012D000F0221207F77F050206DBF09000D3E0FF53
:1012E000F4229000D3E020E01F7F011207D2120702
:1012F000F77F3D1206DB7F2A1206DB7F801206DBBA
:101300007FA61206DB1207CD22900A5CEFF0900058
:10131000E1E06402702B7F011207D21207F7900AF6
:101320005CE07FAB60027FB91206DB120EF9900A17
:101330005CE09000E0F070047F1EDFFEE4FF120727
:10134000D2229000D5E01200BC9000DAE0900001BB
:101350001200CE9000DBE09000020200CEE4FCFD23
:10136000020794900A2F717FC007900A2F120290F3
:10137000900A32E0FF120C8CEFF0D0070206E31265
:1013800002B0E4FCFD22900A28717FC007900A2871
:10139000120290900A2BB122D00790008F120253B4
:1013A0009000931202B0E49000B6F0D3900097E062
:1013B000941E900096E094004001227B017A00790F
:1013C00098900096E0FFA3E09000FDCFF0A3EFF02F
:1013D00090008F12023B1206E3900093120290E9F4
:1013E0004A600F9000B6E0F58275830012008FFF0F
:1013F00080027F009000B6E02498F582E43400F586
:1014000083E06F6002C3229000B6E004FFF0D39047
:101410000097E09F900096E0940050BD229000E27B
:101420001202539000E61202B0B1139000E9B1220B
:101430009000E212023B719A500281CCB16190009F
:10144000E21202471201F79000EBEEF0A3EFF04E2C
:1014500060319000EBB14FFE9000EBF0A3EFF09005
:1014600000E9E0FCA3E0FDD39FEC9E5006A3ECF066
:10147000A3EDF091CEE94A6004B11980427E007F6D
:1014800000803C9000E9120FD2603F9000DCE0FC4D
:10149000A3E0FDD3EF9DEE9C400A9000EBECF0A39F
:1014A000EDF0800D9000E9E0FFA3E0A3CFF0A3EF03
:1014B000F091CEE94A6004B11980047E007F00906B
:1014C00000E7EE8FF01200F080B9D322C322900023
:1014D000E61202909000EBE0FFA3E09000F4CFF062
:1014E000A3EFF09000E212023B1206709000EBE0D6
:1014F000FEA3E0FFC39000EAE09FF09000E9E09EC9
:10150000F09000E2120247E4FCFD12011C9000E2A0
:101510001202539000E60202909000EBE0FEA3E07E
:10152000FF22E0FFA3E0900096CFF0A3EFF022901F
:101530000A21717FC007900A21120290900A24E0CC
:10154000FFA3E09000E9CFF0A3EFF0D007811DE00A
:10155000FEA3E0FFC39000DDE09FFF9000DCE09E73
:10156000229000DDE024FFFF9000DCE034FFFEE489
:10157000FCFD2212000F120734EF600512001080EC
:10158000F5229000D7E0FF22E49000D7F0229012DD
:1015900018E024FF22901218E060057F10020DE68B
:1015A0007FFF22E4902004F0A3F0A3F0A3F07B01DE
:1015B0007A2079089020011202B0E4902000F022F5
:1015C0001204DFF0900A3512025F0000000080D3A1
:1015D000902004E0FEA3E0FF24081204E8FDEF24BD
:1015E00001FFE43E541F902004F0A3EFF0A3120487
:1015F00049AF0522902006E0FEA3E0FF22902000E4
:10160000E0045403F07F0033333354F8FEEF240832
:10161000F974203EFA7B01A30202B0900054741DBD
:10162000F0A3740FF012049CE490004FF012051820
:1016300090006BE0FEA3E0FF900054E06E7003A307
:10164000E06F7F0060027FFF22EFB40109D2AD7529
:10165000FF0143AE4022C2AD75FF0153AEBF22E58C
:10166000C85402FF75C80222E5C85401FF22900A3F
:1016700058E0FEA3E0FFC3E49FFF74089EFE221221
:101680000253E4FB7A08F9F890005012023B120171
:04169000658F0C2234
:1017FA00043DFFFCFFFF0228191A0C1A11227FB8B8
:10180A00EF90181393901900730A20364CE556FF8F
:10181A0022EFF556225A2D5761766520342E36313D
:10182A0000024A71000D45DA000D40300000000048
:10183A00020C00013F3F3F04040435353500000027
:10184A0000024F2C822D1C16131110101C371C413C
:10185A00FF022FF9C2D5E830E70FB2D5E4C39BFBEC
:10186A00E49AFAE499F9E498F8EC30E717B2D51259
:10187A00189412222FE4C39BFBE49AFAE499F9E440
:10188A0098F8800312222F30D50DE4C39FFFE49EFF
:10189A00FEE49DFDE49CFC227890E4F6D8FD9000DD
:1018AA00007F007E10E4F0A3DFFCDEFA9030F9A39B
:1018BA00E583C394204011FEAF829020000E0FE40E
:1018CA008002F0A3DFFCDEFA12192002282B223252
:1018DA001D131D1D1D221D271D2C1D311D3B1D45C0
:1018EA001D4A1D681D6D1CAF1CDC1CE11CE60003B3
:1018FA000102060405FFC0567419C0E0C082C08305
:10190A0075560AE5FF54CF4490F5FF22C056741964
:10191A00C0E0C082C083755620E5FF54CF4490F5DD
:10192A00FF22C0567419C0E0C082C083755636E5DE
:10193A00FF54CF44A0F5FF22C0567419C0E0C082FC
:10194A00C08375564CE5FF54CF44B0F5FF22908012
:10195A00002116909801211690808821169080C740
:10196A00211690A828211690B7F1211690B7F421D4
:10197A001690BFF7211690C144211690BF1E21165A
:10198A0090C7E6211690CFE9211690CFEC21169048
:10199A00A9FC211690B87C211690C811211690BE78
:1019AA0086211690B9D6211690BCC4211690C66815
:1019BA00211690C8C9211690C75A211690C0FE2137
:1019CA001690D1F0211690D207211690C0C921167F
:1019DA0090B83B211690A7CE211690A38C21169081
:1019EA00D78C211690D7B8211690D7E9211690A244
:1019FA00BA211690B9BC211690A5CA211690A254F4
:101A0A00211690E002211690E01D211690D644215D
:101A1A001690D818211690E0F0211690E23E211671
:101A2A0090DEFB2116909BF5211690E2D1211690AB
:101A3A00DBD5211690BF3A211690E2D4211690E701
:101A4A00E0211690EC312116909DAC211690EC3FC6
:101A5A00211690EC46211690EB13211690E9CD2120
:101A6A001690E8C3211690EC94211690ED81211668
:101A7A0090E836211690EDCE211690B1EF211690FE
:101A8A008150211690E85D2116909D7C211690B414
:101A9A00952116909FF1211690EE742116909FECD5
:101AAA00211690C8F1211690C9E5211690CC05217E
:101ABA001690E509211690E49B211690EEAC2116AA
:101ACA0090E3C2211690EECC211690CC8D2116906F
:101ADA00B8F9211690EEE3211690E519211690B572
:101AEA00F7211690B14B211690ED9D211690ED31FC
:101AFA00211690E64F211690E662211690EDB2214A
:101B0A001690C0A9211690C0AF211690A08D21165B
:101B1A0090A166211690EEFF211690EF40211690B3
:101B2A00EF4F211690E8F2211690EFAC211690EAB9
:101B3A00E3211690D8C621169085D1211690B64F6A
:101B4A00211690A6A92116909FA92116909F692176
:101B5A001690EFE6211690E95B211690F09821166F
:101B6A0090F0A52116908189211690CD60211690BA
:101B7A00DA51211690B8B2211690D976211690DB47
:101B8A0045211690DAC9211690F0C3211690EB4B25
:101B9A00211690F0DA211690B5A0211690F0DD21D9
:101BAA001690F125211690AFF8211690F1282116EA
:101BBA0090D95F211690B6EC211690E55321169024
:101BCA00E528211690A6B9211690A4FB2116909B10
:101BDA0073211690E76E211690E712211690F25E95
:101BEA00211690C150211690F1FA211690C2542163
:061BFA001690D4442116F0
:101C000090AA30211690F2A0211690F2AD211690E4
:101C1000EA62211690EA27211690F2D6211690F357
:101C200007211690F37F211690F39D211690F4382A
:101C3000211690F3F1211690F45F211690A8382117
:101C400016909647211690C0EB211690F4A6211607
:101C500090F51B211690F6B621169097F621169056
:101C6000C124211690F690211690B7EA214290B037
:101C70001D214290B156214290B8ED214290BCC83E
:101C8000214290B728214290BDE3214290BEFC2121
:101C90004290BF21214290BFD8214290BD3A2142BB
:101CA00090BA3C214290BAD7214290BFDE214290A7
:101CB000C0AF214290B0DD214290AFD52142909437
:101CC0009D214290C290214290AA4921429096FCC7
:101CD00021429080002142908FFA214290C44821F5
:101CE0004290C4672142909570214290C4E62142FF
:101CF00090C4F8214290C5B6214290BBAE214290DB
:101D000097E8214290C6C8214290C6D5214290ACA6
:101D100019214290C6E1214290BB6B214290C6F747
:101D2000214290AE8D214290AE61214290B4492172
:101D30004290AD7C214290C712214290C3D82142EB
:101D400090A65A214290AF1A214290C55D2142903F
:101D5000BD03214290C357214290AC66214290BD01
:101D600087214290C607214290C742214290A7F0A6
:101D7000214290A956214290AE42214290C7AF2104
:101D80004290C663214290C11A214290C2752142FD
:101D900090BF36214290C2FF214290C2C82142909A
:101DA000C1BA214290BEC0214290C888214290A170
:101DB000AE212C909E54212C90A1BA212C90A225CA
:101DC000212C90A231212C90A325212C90A30D2110
:101DD0002C90A344212C909D5C212C90A319212CA4
:101DE00090A3C6212C90A428212C90A364212C9090
:101DF000A4E4212C90A370212C90A393212C90A4D7
:101E000087212C90A543212C90A39F212C90A3AB3C
:101E1000212C90A35A212C908000212C90A09A2153
:101E20002C90A0CB212C9084CC212C90A619212C75
:101E300090A61A212C908035212C909AAA212C90C2
:101E40008426212C90846B212C909C60212C90A6C0
:101E50004D212C90A105212C90A736212C909CC0BF
:101E6000212C00E709F608DFFA8046E709F208DFCF
:101E7000FA803E88828C83E709F0A3DFFA8032E3A0
:101E800009F608DFFA8078E309F208DFFA80708843
:101E9000828C83E309F0A3DFFA806489828A83E07D
:101EA000A3F608DFFA805889828A83E0A3F208DF6C
:101EB000FA804C80D280FA80C680D4806980F2801B
:101EC00033801080A680EA809A80A880DA80E28041
:101ED000CA803389828A83ECFAE493A3C8C582C896
:101EE000CCC583CCF0A3C8C582C8CCC583CCDFE900
:101EF000DEE7800D89828A83E493A3F608DFF9EC9C
:101F0000FAA9F0EDFB2289828A83ECFAE0A3C8C526
:101F100082C8CCC583CCF0A3C8C582C8CCC583CC4D
:101F2000DFEADEE880DB89828A83E493A3F208DFBC
:101F3000F980CC88F0EF60010E4E60C388F0ED248C
:101F400002B4040050B9F582EB2402B4040050AF8F
:101F50002323458223901EB373BB010689828A83A3
:101F6000E0225002E722BBFE02E32289828A83E458
:101F70009322BB010B89828A83F8E0C828F0E8220B
:101F8000500327C722BBFE07F8E3C828F3E8228ADC
:101F9000838982E49322BB010CE58229F582E583E3
:101FA0003AF583E0225006E92582F8E622BBFE06D8
:101FB000E92582F8E222E58229F582E5833AF58374
:101FC000E49322BB010989828A83F8E028F0225039
:101FD0000327F722BBFE05F8E328F3228A838982D0
:101FE000F8E4932822BB010FF8E58229F582E58306
:101FF0003AF583E028F0225009C58229F8E58226C7
:10200000F622BBFE09C58229F8E22582F222F8EA0F
:102010002583F583E9932822BB010689828A83F010
:10202000225002F722BBFE01F322F8BB010DE5822C
:1020300029F582E5833AF583E8F0225006E9258206
:10204000C8F622BBFE05E92582C8F222EF8DF0A476
:10205000A8F0CF8CF0A428CE8DF0A42EFE22BC00D8
:102060000BBE0029EF8DF084FFADF022E4CCF875B3
:10207000F008EF2FFFEE33FEEC33FCEE9DEC9840C2
:1020800005FCEE9DFE0FD5F0E9E4CEFD22EDF8F55E
:10209000F0EE8420D21CFEADF075F008EF2FFFEDBE
:1020A00033FD4007985006D5F0F222C398FD0FD5B6
:1020B000F0EA22C2D5EC30E709B2D5E4C39DFDE4D5
:1020C0009CFCEE30E715B2D5E4C39FFFE49EFE1200
:1020D000205EC3E49DFDE49CFC800312205E30D5AD
:1020E00007C3E49FFFE49EFE22C5F0F8A3E028F0BA
:1020F000C5F0F8E582158270021583E038F022A35E
:10210000F8E0C5F025F0F0E582158270021583E055
:10211000C838F0E822BB010A89828A83E0F5F0A37F
:10212000E022500687F009E71922BBFE07E3F5F02D
:1021300009E3192289828A83E493F5F074019322DA
:10214000BB010789828A830220E9500B09C5F02769
:10215000F7C5F01937F722BBFE0D09F8E325F0F3B8
:10216000C5F019E338F322F889828A837401932534
:10217000F0C5F0F8E4933822BB010A89828A83F023
:10218000E5F0A3F0225006F709A7F01922BBFE06DE
:10219000F3E5F009F31922EF2BFFEE3AFEED39FDDE
:1021A000EC38FC22E88FF0A4CC8BF0A42CFCE98E58
:1021B000F0A42CFC8AF0EDA42CFCEA8EF0A4CDA8AF
:1021C000F08BF0A42DCC3825F0FDE98FF0A42CCDB8
:1021D00035F0FCEB8EF0A4FEA9F0EB8FF0A4CFC598
:1021E000F02ECD39FEE43CFCEAA42DCE35F0FDE422
:1021F0003CFC2275F008758200EF2FFFEE33FECD18
:1022000033CDCC33CCC58233C5829BED9AEC99E5B6
:102210008298400CF582EE9BFEED9AFDEC99FC0F46
:10222000D5F0D6E4CEFBE4CDFAE4CCF9A88222B80E
:1022300000C1B90059BA002DEC8BF084CFCECDFC93
:10224000E5F0CBF97818EF2FFFEE33FEED33FDEC20
:1022500033FCEB33FB10D703994004EB99FB0FD809
:10226000E5E4F9FA227818EF2FFFEE33FEED33FDA7
:10227000EC33FCC933C910D7059BE99A4007EC9BA6
:10228000FCE99AF90FD8E0E4C9FAE4CCFB2275F036
:1022900010EF2FFFEE33FEED33FDCC33CCC833C847
:1022A00010D7079BEC9AE899400AED9BFDEC9AFC4D
:1022B000E899F80FD5F0DAE4CDFBE4CCFAE4C8F9FC
:1022C00022EF5BFFEE5AFEED59FDEC58FC22C3E411
:1022D0009FFFE49EFEE49DFDE49CFC22EB9FF5F055
:1022E000EA9E42F0E99D42F0EC6480C86480984523
:1022F000F022EB9FF5F0EA9E42F0E99D42F0E89C67
:1023000045F022E8600FECC313FCED13FDEE13FE65
:10231000EF13FFD8F122E8600FEFC333FFEE33FE77
:10232000ED33FDEC33FCD8F122BB010789828A83AF
:102330000223A05005E9F8022558BBFE05E9F80282
:10234000256422E0FCA3E0FDA3E0FEA3E0FF22E47D
:1023500093FC740193FD740293FE740393FF22E0D7
:10236000F8A3E0F9A3E0FAA3E0FB227401FF3395A0
:10237000E0FEFDFCA3A3A3E02FFFF0E58215827031
:10238000021583E03EFEF0E582158270021583E0BF
:102390003DFDF0E582158270021583E03CFCF022E1
:1023A000ECF0A3EDF0A3EEF0A3EFF022A88285837A
:1023B000F0D083D0821223C31223C31223C312236B
:1023C000C3E473E493A3C583C5F0C583C8C582C8BD
:1023D000F0A3C583C5F0C583C8C582C822A42582E1
:1023E000F582E5F03583F58322E0FBA3E0FAA3E074
:1023F000F922EBF0A3EAF0A3E9F022E493FB7401E5
:1024000093FA740293F922BB010789828A8302231B
:10241000E95005E9F8022570BBFE05E9F8022582BE
:1024200089828A830223FBBB011A89828A83D0F0C6
:10243000D0E0F8D0E0F9D0E0FAD0E0FBE8C0E0C0AE
:10244000F00223F25016E9F8D083D082D0E0F9D020
:10245000E0FAD0E0FBC082C083022579BBFE16E91A
:10246000F8D083D082D0E0F9D0E0FAD0E0FBC0828F
:10247000C08302258B22BB010DE58229F582E5830D
:102480003AF5830223E95007E92582F8022570BB5B
:10249000FE07E92582F8022582E58229F582E58397
:1024A0003AF5830223FBBB0120E58229F582E5830F
:1024B0003AF583D0F0D0E0F8D0E0F9D0E0FAD0E0FF
:1024C000FBE8C0E0C0F00223F25018E92582F8D002
:1024D00083D082D0E0F9D0E0FAD0E0FBC082C083A4
:1024E000022579BBFE18E92582F8D083D082D0E09E
:1024F000F9D0E0FAD0E0FBC082C08302258B22D065
:1025000083D082F8E4937012740193700DA3A393A7
:10251000F8740193F5828883E4737402936860EF22
:10252000A3A3A380DF8A838982E473EC8EF0A4CC1A
:10253000C5F0CCCDF8EFA4CEC5F02DFDE43CFCE811
:10254000A42EC8C5F03DFDE43CFCEFA4FFE5F02857
:10255000FEE43DFDE43CFC22ECF608EDF608EEF668
:1025600008EFF622ECF208EDF208EEF208EFF222A4
:10257000E6FB08E6FA08E6F922EBF608EAF608E9CF
:10258000F622E2FB08E2FA08E2F922EBF208EAF2AC
:1025900008E9F22241073500C135C138410734004E
:1025A000E002020000383CE0020200022FECE004EE
:1025B00002000446524545E00102001554E00102C4
:1025C0000016A5E0E8022568FEFEFEFEFEFEFEFE09
:1025D000FEFEFEFEFEFEFEFEFEFEFEFEFEFEFEFE1B
:1025E000FEFEFEFEFEFEFEFEFEFEFEFEFEFEFEFE0B
:1025F000FEFEFEFEFEFEFEFEFEFEFEFEFEFEFEFEFB
:10260000FEFEFEFEFEFEFEFEFEFEFEFEFEFEFEFEEA
:10261000FEFEFEFEFEFEFEFEFEFEFEFEFEFEFEFEDA
:10262000FEFEFEFEFEFEFEFEFEFEFEFEFEFEFEFECA
:10263000FEFEFEFEFEFEFEFEFEFEFEFEFEFEFEFEBA
:10264000FEFEFEFEFEFEFEFEFEFEFEFEFEFEFEFEAA
:10265000FEFEFEFEFEFEFEFEFEFEFEFEFEFEFEFE9A
:10266000FEFEFEFEFEFEFEFEFEFEFEFEFEFEFEFE8A
:10267000FEFEFEFEFEFEFEFEFEFEFEFEFEFEFEFE7A
:10268000FEFEFEFEFEFEFEFEFEFEFEFEFEFEFEFE6A
:10269000FEFEFEFEFEFEFEFEFEFEFEFEFEFEFEFE5A
:1026A000FEFEFEFEFEFEFEFEFEFEFEFEFEFEFEFE4A
:1026B000E001022650FFE0010226A828E001022FD7
:1026C000BBFFE005022FE92FEC02043D4103EB06BE
:1026D0000114004103EA014103E801C13D01190071
:1026E000011700412D1E0041297800412919055D7F
:1026F0002C28000000000000000000000000000086
:10270000000000000000000000000000000000C108
:10271000434327ED00000041280100C111C13401ED
:102720004000C130C131C1324130E900C167432CA2
:1027300096000000412C9500412C9900412E62FF2B
:10274000C139C13BC146412CBD00015500C128C162
:1027500026412CAF00412CBC006028261705220022
:102760000000030008F6877788CF7FC04FFBDFFDAE
:10277000E06700808000808680BA05E87300800FE3
:10278000000060000041216500412178004121687E
:10279000004121610141216B024121630141239DDF
:1027A00000C1AA412169114121620041239A00C15F
:1027B0004AC14B412989964129850FE002022FEE3B
:1027C0000033E00502301C0033040522E002023031
:1027D000210807E0050238230807050522412E409D
:1027E000FF412E39FF412E3C00412E3F00C16DE0DC
:1027F000020238280013E00C02382A000003080007
:102800000300080522043DE0050238360013FF05E9
:1028100022E00202383B00000075819075FF0375CD
:102820009E0212192002417A0218D8902594E47E63
:10283000019360F4A3FF543F30E509541FFEE49375
:10284000A360010ECF54E0B4E00EEFFAEEF9A3A3BB
:10285000A3A3DAFDD9FB80D654C025E0604B5026F7
:10286000E493A3F85407240CC8C333C4540F442082
:10287000C8834004F456800146F6DFE480B00102CC
:10288000040810204080E493A3FAE493A3F8E493AF
:10289000A3C8C582C8CAC583CAF0A3C8C582C8CAAE
:1028A000C583CADFE9DEE78085E493A3F8E493A358
:1028B0004003F68001F208DFF402282E1A481A4D70
:1028C0001A521A571A5C1A611A661A701A751A7A0D
:1028D0001A7F1A8E1A931A9D1AA71ABBE4971AC563
:1028E0001B151B1A1B1F1B241B291B2E1B331B38DC
:1028F0001B471B511B651B6A1B6F1B7E1B831BBF6A
:102900001BC41BC909040000020A0000000705825D
:102910000220000007050202200000090401000156
:102920000202010005240010010524010001042415
:1029300002000524060001070581030800201DAEE2
:102940001DB31DB81DBD1DC21DC71DCC1DD11DD67B
:102950001DDB1DE01DE51DEA1DEF1DF41DF91DFE2B
:102960001E031E081E0D1E121E171E1C1E21000017
:1029700000000000120100020200000858060002D8
:102980000000000000010902000000010080320484
:10299000030409A280CACF0998445CAD550641469C
:1029A0009503861C7800000000000500000600006A
:1029B000001000002428800000242080000011382E
:1029C0002100004428800000442080000034382189
:1029D00000003F241E16110E0B0907050403020117
:1029E000F0C8A7917767604638353230242220142A
:1029F0000001010202030304040505060607071E81
:102A0000531E581E5D2A6A1BF11C0559D2E4FD7C39
:102A10000CAB050DEB90181F938F828E83F00FBFC8
:102A200000010EDCEC7F07228F828E83E4F07404B9
:102A3000513B743D513BA3A3E4F022A3F08F828E5F
:102A400083A3229030C8EFF0902D3EE0B40110C275
:102A5000ED7A3079C8902DD55160121CA0D2ED22AC
:102A60007B011223F27A2D793F22902D3EE0640102
:102A700070287B017A2D793F121CAAEF701C9030D0
:102A8000C9F0C2ED7A3079C9902DA15160121CA510
:102A9000D2ED9030C9E0FF121C73227A1C7B7812B1
:102AA000B11E902D3E7401F0FB51C77E2A7F6A90C3
:102AB000073DE0FCA3E04C700590073D8002C32277
:102AC000EEF0A3EFF0D3227A2D7947902E7E1223D9
:102AD000F2902E817401F0A37405F07A2D793F02F3
:102AE0001C9B7F0151F2902D3EE0B401047B01510B
:102AF000C722EF600E1243ABAF82AE83E4FD1243F8
:102B0000CF80103035037F0022121C64124518E478
:102B100033FF227F012290049E1223F2D24FC2EB98
:102B2000E5146002A180E51530E202C322B18824D9
:102B3000E5124E6712525DB1D71221155407FF906E
:102B400003EAF0124DFE9004A1EFF0E51520E06CD1
:102B500012454C40047F0151F29004A1E0FF7B013B
:102B60007A0479A2F15CE4337004D2EBA15F9004A3
:102B7000A1E024C9125E62E0FF9004A2E0D39F406E
:102B80003BD2EB124F15A23C92ED9003FBE060119B
:102B9000B18824E5125DF8122018431504D1ACD396
:102BA00022900409E070137A0479097C4A7DE47468
:102BB00064125D64E4A3F01219DAC32212454C508A
:102BC00004C258D1FE1247CDE5D120E0FBE4F51058
:102BD000B1D71221155407C39403E494005030B1C7
:102BE0008824B1B1D0FFB18824D8B1D02FFFE4330D
:102BF000FED3EF9440EE648094804013B18824E5C6
:102C0000125DCB122018431504A23C92EDD322B1E1
:102C1000882408F9E43ACFE9CFF5118F12B188245E
:102C2000B1B1D0F516AE11125963B18824B2F9E4EE
:102C30003A8B1CF51D891EB18824D8B1D0F51FB17F
:102C4000D7122115FDACF05460602FB18824D9B1A2
:102C5000D0FF124ED5C24FB1C0FB7A0090040A12C9
:102C60005E5A7D1812204CEF2BFFEA3EFEEF241433
:102C7000FBE43EFA7D027F01A14CB1D7122115542D
:102C8000079003EAF0751408B18824B2F9E43AFA1F
:102C9000125957B18824D8B1D0FFAD1612597F9080
:102CA00003EAE0640370237B01FDB190D11E50055F
:102CB0007401121FC3E4F5FF125E32121F5924285B
:102CC000FBE433FA7D03E4FFA14C9003EAE06402E5
:102CD0007029B193D11E400574FF121FC3E4F5FFA4
:102CE000E5D25480440AF5D2121F592414FBE43370
:102CF000FA7D027F01D128B1E58053E4FB7D01B16B
:102D000090D11E400574FF121FC3E4F5FFB1D7D167
:102D1000997F0560027F0AEF547FFFE5D254804F10
:102D2000F5D2E4F5FF43D280B1C0FD7C00B1D7D12C
:102D3000997E0060047F0A80027F05EF25E0FFEEA8
:102D400033FEEF2DFBEE3CFA7D017F01D128B1D798
:102D5000122115FFAEF0A24F924E124D5D4006A219
:102D60003C92EDC322D1AC9004A1E0FFB18824E7EE
:102D7000F9E43AFAEF122018A23C92EDD2EBD322FA
:102D8000A23C92EDD2EBC32290049E1223E9E922E9
:102D9000FFB1EA90049E1223E9E924B1F9E43AFA7A
:102DA000121F59FF90049E1223E9E924D8F9E43A4E
:102DB000FA121F592FFFE433FEEF2401FFE43EFE19
:102DC00090049E1223E9E924B2F9E43AFAE92407CF
:102DD000F9E43AFA021F5990049E1223E9E9240407
:102DE000F9E43AFA22E4FB7D01FFE4F5FF75D10234
:102DF000E5D120E0FBE4F5FFF5D1EF6008E4F5FF55
:102E000043D2808006E4F5FF53D27FEB6006E4F501
:102E1000FF43D104ED6006E4F5FF43D10822D39FC0
:102E2000EE6480F8748098229004C9EFF0ED24FEDF
:102E300060191460262402703BEB2402FFE43AFE82
:102E40007C007D5012204C7D60801ED1A1C333CE0A
:102E500033CED8F9FF7C007D28800ED1A1C333CEBC
:102E600033CED8F9FF7C007D6412205E9004CAEE58
:102E7000F0A3EFF09004C9E012524FC083C0821259
:102E8000235F9004CBE02401FF9004CAE03400FEED
:102E9000F1F3D082D0830223A0122115441045F013
:102EA00022EB2401FFE43AFEEF780322E49003FBD7
:102EB000F07B017A0479090219D5E4FF51F2EF6041
:102EC0003C125CAB123D7C5005125E9140F37B01DD
:102ED0007A07793B123D7C500F1249675FFFA3E0F0
:102EE0005FFFA3E05FF460E67F0151F2754F017E62
:102EF000007F087A077939125C98123FDF22903000
:102F0000CBE5F4F0E0547FF5F47F827E001246B703
:102F1000F155F1435005E5FC20E6F73058089030B4
:102F2000CBE04480F5F4F14EF1435005E5FC20E69A
:102F3000F775FF01E5D520E702C322E5F4D330E6BB
:102F400001C32275FF03E591C330E701D3227FE877
:102F50007E031246B775FF0343918022902FBEEF88
:102F6000F0A312549375FF01124687EF64016002CB
:102F7000C322E5F430E602C3227FE87E031246FD59
:102F8000F155F1DD400122C258D1FE902FBEE0FF85
:102F90001244B953F4DFD258D1FE7F787E00124735
:102FA0001A75FF0153E4BFE5E430E7FB1253817F5C
:102FB0008A12479D30E606123FC1E4800875FF0182
:102FC000123FC1E5D912201875FF0143E440125E9B
:102FD000A1400343F420F1DD400122D322E5F73084
:102FE000E50FE5F754C07004F14340F1124764C3A4
:102FF00022D322E4FCFD022197C0E0C0F0C083C0D0
:1030000082C0D075D000C000C001C002C003C0049F
:10301000C005C006C0079030CAE5FFF075FF02E5A5
:10302000D430E60C75D440902F0A315E60023165D1
:1030300075FF02E5D430E50C75D420902F0C315E7D
:103040006002316575FF02E5D430E40975D41031B2
:103050005B6002F1A575FF02E5D430E30C75D4087E
:10306000902F0A315E6002316E75FF02E5D430E2C6
:103070000C75D404902F0C315E6002316E75FF0226
:10308000E5D430E11475D402F1D8EF600C315B6007
:1030900004F19C8004F1B8F18B75FF02E5D430E0B7
:1030A0001075D401315B60098F828E837F071225F2
:1030B0002975FF02E5D530E41075D510315B600944
:1030C0008F828E837F0312252975FF02E5D530E1BB
:1030D0000975D502315B6002F19375FF02E5D530C9
:1030E000E01075D501315B60098F828E837F0412F9
:1030F000252975FF02E5D530E21075D504315B60F6
:10310000098F828E837F0A12252975FF02E5D5304B
:10311000E71075D580315B60098F828E837F08123E
:10312000252975FF02E5D530E61075D540315B6085
:10313000098F828E837F091225299030CAE0F5FF1E
:10314000D007D006D005D004D003D002D001D000E3
:10315000D0D0D082D083D0F0D0E032902F0EE0FEDD
:10316000A3E0FF4E228F828E837F010225298F826A
:103170008E83E4FF0225297B017A2D79167D017F5C
:1031800003121C827A2D791F7F08F17C7A2D791C1D
:103190007F09F1427A2D791A7F0BF142902D1A3175
:1031A0005E6006BEFF1BBFFF18902D1FE024FD6070
:1031B00003047004F15B8009902D1AE4F0A37440BD
:1031C000F0902D1FE024FD6003047008902D17740B
:1031D00003F08006902D177402F0902D16E0122453
:1031E000FF31FD04320814321015321817322E3018
:1031F000323634323E363246370000322375FF0114
:103200005338EF8538FD804775FF015339EF800E45
:1032100075FF015339DF800675FF0153397F85390A
:10322000C9802C75FF01533ADF853ACA802175FFAA
:1032300001533BFE801675FF01533BEF800E75FF77
:1032400001533BBF800675FF01533B7F853BCB910C
:10325000407F11D1E9E4FFD1957151902D14740292
:10326000F0902D18E0247F6009047015D1F5740AE0
:103270008006D16AD1F57458F0902D177403F0F1DF
:103280005B902D19E0F460026123902D1CE0FEA3F9
:10329000E0FF64104E7006902D19740EF0EF64205C
:1032A0004E7006902D19740FF0EF64404E7006902A
:1032B0002D197410F0EF64804E7006902D19741162
:1032C000F0E4B5070AEEB40106902D197412F0E48B
:1032D000B5070AEEB40206902D197413F0E4B50791
:1032E0000AEEB40406902D197414F0E4B5070AEE42
:1032F000B40806902D197415F0E4B5070AEEB41061
:1033000006902D197416F0E4B5070AEEB420069065
:103310002D197417F0E4B5070AEEB44006902D1984
:103320007418F0D1C571E8EF6004D1D480F79134FE
:10333000B17E7F0171497F0371499140E4FFA1068D
:103340001223437808122303E4E5C820E2FB8FEB45
:10335000227F01B1069030CD7401F09030CDE06055
:103360003BB17E7F0571DA9030CDEFF09140B17EB8
:103370007FD771DA902D11EFF071DC902D12EFF004
:1033800091409030CDE05401F14960CFA3E0F4606A
:10339000CAEF30E7C6E49030CDF080BFB17E7F9FAA
:1033A00071DA902D13EFF071DC902D18EFF071DCD5
:1033B000902D19EFF0B102902D11E0F4601BA3E005
:1033C000F46016902D18E0FD541F240FA3F0EDC4F7
:1033D0001354074480902D18F02271497FFF7149E2
:1033E000E5C820E2FBAFEB227F01B106305916B1F0
:1033F0007E7F0571DA9030CFEFF091409030CFE0D2
:1034000020E002C259305922B17E7FD771DA902D67
:1034100011EFF071DC902D12EFF149600BA3E0F495
:103420006006EF30E702C2599140E4FFB106A259AD
:10343000E433FF227F01B106D259B17E7F06714984
:10344000F169EF70FB902D18E0F4600A9030CC74B5
:1034500006F0F10F70FC902D16E01224FF34790471
:10346000348114348615348B17349B3034A03434B3
:10347000A53634AA3700003493433C10853C808045
:103480002F433D108008433D208003433D80853D10
:1034900090801D433E20853EA08015433F01800D56
:1034A000433F108008433F408003433F80853FB047
:1034B0009030CC740CF0F10F70FC22902F6D122321
:1034C000A0D1EFB1DD902F71E06F6032D1C571E80E
:1034D000EF6004D1D480F79134F117D18C6006D11C
:1034E000EF78107145902F6D7140D1EFE4714990E4
:1034F0002F71E0FFB100902D157401F0D322C3228B
:1035000071499140E4FFEFB4010443FE202253FED1
:10351000DF22902DFA1223A0902DFE1223F2D1C5A6
:1035200071E8EF6004D1D480F79134F117D18C6049
:103530000A902DFA12234378107145902DFA7140AC
:10354000902DFA122343E48024902E01F151602142
:10355000902DFEF1756014902DFEF16FFF71499072
:103560002DFFE475F0011220E980DEE4FF7149804F
:10357000D8B102902D157401F0227F01B106902D73
:1035800016E01224FF35A10435A91435AE1535B364
:103590001735C33035C83435CD3635D23700003510
:1035A000BB533CEF853C80802F533DEF8008533D5B
:1035B000DF8003533D7F853D90801D533EDF853E78
:1035C000A08015533FFE800D533FEF8008533FBF4F
:1035D0008003533F7F853FB07F0CDFFE22902F6832
:1035E0001223A0D1C571E8EF6004D1D480F7D18453
:1035F000600A902F6812234378107145902F6871EC
:1036000040902F68122343E471DA902F6CEFF0B1F1
:1036100002902F6CE0FF22902E031223A0902E0721
:103620001223F2D1C571E8EF6004D1D480F7D184C0
:10363000600A902E0312234378107145902E037177
:1036400040902E03122343E47149902E0AF15160F9
:103650001371DC902E07F184902E08E475F00112AE
:1036600020E980E69140E4FFA106902D11E020E0E2
:1036700012B17A7F3D71497F2A71497F8071497FFC
:10368000A6B100227F01B106B17E7F037149902D62
:1036900017E06402229030CEEFF0902D1FE064021C
:1036A0007022B17A9030CEE07FAB60027FB9714971
:1036B00091409030CEE0902D1EF070047F1EDFFE12
:1036C000E4FFB1062275FF02E5E430E10675E40689
:1036D00075E40322E51530E20FE51520E50AE5154E
:1036E00030E0057F01122AF222EF4420F5FE2290FD
:1036F0002F6D0223437F10D1E9902D14227E267F67
:10370000AAE4FDAB05E4FCFD902F71EBF081BB90CA
:1037100030CCE014F0E022B17E902D14E0FF22D1F5
:10372000C571E8EF6004D1D480F7229027BAE07524
:10373000F016A424E9F9741F35F0FEAF01E4FCFD96
:10374000A1DD7B017D02021C82F0902D11E0FFF4CF
:103750002274FFF5F01220FF45F022902D1A74011B
:10376000F0A3E4F022E4FFA106E5C85404FF22120E
:1037700023E9021F591223E9EA494B227B017D010B
:10378000021C82FF1223E9EF022018F1AEE4F59E3D
:103790007F01228F828E837F060225298F828E836E
:1037A0007F020225298F828E837F0502252975FFDE
:1037B0000243D20175FF032275FF0153CCFD43FB89
:1037C00040F1AE759E0143FB0975FF03859E9E7512
:1037D000FF03859E9E7F012275FF02AFD3EF7F001E
:1037E00030E6027F012290073D315E6009CAEECAD1
:1037F000C9EFC91225252275FF028FD675FF02AFCA
:10380000058FD77F01EF6003D2ED22C2ED22E47570
:10381000FF02AFD4CDEFCD75FF02AFD5EFFCEDCEFB
:10382000ECCEFF2275FF02EFF452D475FF02EDF4E7
:1038300052D522902F9A1223F2902F9D1240BB94C2
:103840003F4003743FF075FF02E5CD30E105E4F53C
:10385000498003754901E5496031E5FD254A045475
:103860003FFFE5DD543F6F6022902F9DF1E4501B38
:10387000902F9A11AFAEFD124061543F248EF58215
:10388000EC3406F583EFF0054A80CBE5496008E5A6
:10389000FD254A543FF5FDAF4A229030F8EFF07B0A
:1038A000017A3079F87D0111337F0122119A2212B9
:1038B00023E9854A82758300021F96902F5831357F
:1038C000E58F20E0FB313CE4FF902F581223E98F75
:1038D0008211B5F5930FEFB410EFE4FF902F5B1258
:1038E00023E98F8211B5F5940FEFB410EF22902EDB
:1038F000423135E58F20E0FB313C7E10902E453182
:103900002E11B5F593EE70F47E10902E42312E11EB
:10391000B5F594EE70F47F01314C125C64EF70FAEF
:103920007E10902E48312E125C32EE70F52212235A
:10393000E91E8E82221223F275FF012275FF0153C8
:103940008F0675FF01538FF075FF0122EFB4010858
:10395000125C414401F58F2275FF01E58F54F0445C
:1039600006F58F22902BF51223A0902BF91223F24B
:10397000E4902C1CF0D3902BFDE0941E902BFCE0E7
:1039800094004001227B017A2B79FE902BFC125D82
:103990004A902BF5122343123617902BF91223E984
:1039A000E94A600B902C1CE0F58211B5FF80027F84
:1039B00000902C1CE024FEF582E4342BF583E06FAC
:1039C0006002C322902C1CE004FFF0D3902BFDE09A
:1039D0009F902BFCE0940050C122902D881223A0D0
:1039E000902D8C1223F2902D8C1223E9902D8F12A2
:1039F0005914902D8812234331645002418F125D77
:103A000013902D8812235F1222C1902D91EEF0A306
:103A1000EFF04E6032902D91711F125D57902D91F5
:103A2000F0A3EFF0902D8FE0FCA3E0FDD39FEC9E80
:103A30005006A3ECF0A3EDF051D24A6004519180FE
:103A4000417E007F00803B902D8F12315E603E9062
:103A50002D1AE0FCA3E0FDD3EF9DEE9C400A902DD3
:103A600091ECF0A3EDF0800D902D8FE0FFA3E0A38B
:103A7000CFF0A3EFF051D24A6004519180047E0050
:103A80007F00902D8DEE8FF01220E980BAD322C3F3
:103A900022902D91E0FEA3E0FF22903023E075F00C
:103AA00005A4242EF9742B35F0FEAF017B017A2C8E
:103AB000791E902EADE4F0A37405F0902EAAF1EBE0
:103AC000C007902EAA1223E9902EAD125CECD0070D
:103AD00021DA902D8C1223E9902D91E0FFA3E09044
:103AE0002E01CFF0A3EFF0902D8812234312351250
:103AF000902D91E0FEA3E0FFC3902D90E09FF09009
:103B00002D8FE09EF0902D8812235FE4FCFD1221A2
:103B100097902D881223A0902D8C1223E9E922E0A2
:103B2000FEA3E0FFC322902CC61223A0E4F5FF758C
:103B3000BB0575BB8575FF0175D502205305F1CD19
:103B400012478275FF0143D52030530261E5E4F549
:103B5000FF538EF7438E077D04E4F5FF8DBCF5FF20
:103B600043B102E5B130E2FBE4F5FFAFDFEFFEACBD
:103B7000DEECFBEBFFED25E024C4F582E4342CF50C
:103B800083F1A9F5FFF5FF53B1FD0DEDB40CCA901B
:103B90002CC6B171FF7809122303A3F1A9FDED250D
:103BA000E024CEF582E4342CF583E0C313FAA3E0DD
:103BB00013FBD1E712587F2BFFEE3AFED1E7EEF070
:103BC000A3EFF0ED240490120DF0EDC3940750150F
:103BD000CFEDCF0DEFD1E8711F902CCBE09F902C53
:103BE000CAE09E50B9E4F5FF758EC8F5FF90120D3E
:103BF000E0F5BCE4F5FF75BB8075FF01F5D52290BB
:103C00002C621223A075FF0243E18012466B12570B
:103C10008A902C771223AC002DC6C0E4F5FFF5A4E2
:103C200090120EF0A3F0902C727402F0F1B0FFF538
:103C300095EF14601314601C24027027902C62B15D
:103C400071D1E0902C6E8016902C66B171D1E0900D
:103C50002C6F800A902C6AB171D1E0902C70E090AA
:103C60002C7BF01257B2902C7BE0700FF5FFF5968D
:103C700075FF0175D70975F418805990120EE0048C
:103C8000F0902C72E0125EA9902C77B171FF902C0D
:103C900073F19DC31222F2500A902C73B171FFA3ED
:103CA0001223A0902C7BE0FF12560B902C71E0FFAA
:103CB000A3E0FDA2569254125738A3B171FF902F82
:103CC000641223A0902C72E0FFD1FA902C72B163A1
:103CD000FF12549CF1B86002812C7402F0F1B0F52F
:103CE00095E5F45407701A902C77F198D1C7D1F468
:103CF000902C72E0FBF18A1223A0EBB164FF125406
:103D00009CF1B870D875FF03759580125EA14003D1
:103D100043F420A256925512566A902C77B1712422
:103D200020FFEE344ED1D9FCE4FB7A04F9F8D1C778
:103D3000D1F4C2537126E4F5FFE5BD54F84404F50F
:103D4000BD9012137401F07E127F01E4FD8F828E0C
:103D500083EF2D125E99FC901213E02CF00DEDB460
:103D600012EB22E025E025E02401F582E43412F58F
:103D700083E0FCA3E0FDA3E0FEA3E022902D7D12F2
:103D80005493902D831223AC00000001902D877472
:103D900001F0F5FFE5D554C0700512454C5002C343
:103DA00022E4F5FF53967F75FF0175D504F1CD75BB
:103DB000FF0143D508E4F5FF5394FBF5FF53847FDF
:103DC000F5FF7598FF902D81E5F4F075F49C75FF73
:103DD00001A3E5E4F075E4257B017A2D798712547F
:103DE00060902D87E064016002C1A5F5FF902D80F1
:103DF0007414F0902D83B171FF7801122316902D69
:103E0000831223A0E5A730E1FB43A702902D83B1E5
:103E100071FFE5A730E005E47B018002E4FBFAF9DD
:103E2000F8EF4BFFEE4AFEED49FDEC48FC902D8388
:103E30001223A0902D80E014F070B8902D83B17102
:103E4000FF78101223037B6D7A4E79C678411221D8
:103E5000A4EF2439FFEE3430D1D9FCE4FBFA790128
:103E6000F812222FEE547FFEE4FDFC124DF1902D4E
:103E700083B171FFEB6FFFEA6EFEE8CDEFCDCCEEC4
:103E8000CCECFF902D7DF1C4EF122018902D7DF128
:103E9000C4900001ED12202A90120FE030E606E4F3
:103EA000F5FF75968075FF01E4F5D5902D81E0F55D
:103EB000F475FF01A3E0F5E4125659902D87E0B4A4
:103EC0000103D38001C3221221A4E47B7DFAF9F817
:103ED00012222FEF2401FFE43EFEE43DFDE43C22EC
:103EE000FF902C730223A0ED25E024CCF582E4346E
:103EF0002CF58322FC7801022303902F63EFF0E47A
:103F0000A3F198D1C7D1F4902F63E0FBF18A12237B
:103F1000A0901210E064806070E0C3947F5038EB92
:103F2000F18AC083C082B171FFEEC0E0EFC0E090C3
:103F30001210E075F004A4AEF0FBCAEECAEA3395A5
:103F4000E0F9F8D0E0FFD0E0FEC3EF9BFFEE9AFE71
:103F5000ED99FDEC98802A902F63E0F18AC083C030
:103F600082F19D901210E0F40475F004A4FFAEF00D
:103F7000EE3395E0FDFCEB2FFFEA3EFEE93DFDE868
:103F80003CFCD082D0831223A02225E025E024012E
:103F9000F582E43412F58322FF7E04FDFCE0F8A3F1
:103FA000E0F9A3E0FAA3E0FB22EEF0A3EFF0E422B5
:103FB00075FF03902C72E022902C72E0FF14F0EF5A
:103FC00022902FBFE0FBA3E0FAA3E0F9227F3FFE9F
:103FD0001246FD122F5575FF03E59120E7FB227471
:103FE00004F041BBE0FFE54AC39F221223F2E4FC48
:103FF000FD22902F9E1223F2902FA1EDF075FF026B
:10400000E4F54AEDD3941F4003741FF075FF02E5F9
:10401000CD30E205E4F5498003754901E549603298
:10402000E5C9254A04541FFFE5DE541F6F60239045
:104030002FA1123FE4501B902F9E1238AFAEC91132
:1040400061541F24EEF582EC3406F583EFF0054A47
:1040500080CAE5496008E5C9254A541FF5C9AF4A39
:1040600022FFE54AFDEE2DFD7C00ED22902FA212ED
:1040700023F2902FA511BB943F4003743FF075FFCE
:1040800002E5CB254A543FFFE5DB543F6F601F90AC
:104090002FA5123FE45017ADCB11C3543F244EF56A
:1040A00082EE3406F583E0902FA2311A80D3E54AE0
:1040B000600625CB543FF5CBAF4A22EDF0E4F54A3C
:1040C000EDD322ED254AFF7E00EF22902FA612238A
:1040D000F2902FA911BB941F4003741FF075FF02CB
:1040E000E5CC254A541FFFE5DC541F6F601F902F5D
:1040F000A9123FE45017ADCC11C3541F24CEF58252
:10410000EE3406F583E0902FA6311A80D3E54A609D
:104110000625CC541FF5CCAF4A22FF1223E9854A6D
:1041200082758300EF12202A054A227B017A3079BA
:10413000C67D01116C9030C6E0FF2275FF02E5DB01
:10414000543FFFE5CB543F6F7F0060027F01228028
:10415000EA75FF02E5DC541FFFE5CC541F6F7F00BA
:1041600060027F01229007407402F0900734E0FF64
:10417000121E359007407405F02275FF0275E404A5
:10418000E4F5E41218A291F3900736EFF0901200D4
:10419000E0B47A14901214E0B49C0D900736E0FF5E
:1041A00064056004EFB4032EE490073FF090073FEE
:1041B000E0FFC394805013E42FF582E43412F583BA
:1041C000E4F090073FE004F080E3901200747AF08E
:1041D000901214749CF0121C8C4003121C877B01FB
:1041E0007A1279107D017F01121C827B017A12798B
:1041F000117D017F21121C827B017A1279127D01CF
:104200007F22121C827A1279177F0212377C901259
:1042100017E0B401057F01125887121C2891F31290
:104220001C23900736EFF0121D09121C1990073657
:10423000E0FF121E30EF24FFB3926775FF0253E6D2
:10424000BF124A4B121C32F1F220670B31657B0121
:104250007A287932121AAC7F01122AF2D2AF206783
:104260000241E4121C911219B7121E2B121C7D4040
:10427000F2900735E0603E121C55EF7004919240B9
:1042800034E51470FCE51520E502B118121971EF40
:1042900070FA9180500491A550057F0112369590D7
:1042A0000735E0B40204E4FF8009900735E0B40369
:1042B000047F0191D5121C50E51530E1A6915D40B7
:1042C00002E4F0E51520E50471AB71C99172AF828B
:1042D000AE83EFC0E071B9900738E0FDD0E0FF1287
:1042E0001CFF4163124A3A900735E06044201A03EC
:1042F00020093E121C55EF700491924034E5147071
:10430000FCE51520E502B118121971EF70FA9180E1
:10431000500491A550057F01123695900735E0B401
:104320000204E4FF8009900735E0B403047F0191A3
:10433000D5900735E0600C201A09300906200203E9
:10434000121A84121C911219B71252E2121E262060
:104350003605121C5080221219CB90072EE0FEEF7A
:10436000C39E4005EF9EFF800890072EE0F4042FC7
:10437000FF7406D39F5002C236E51530E125915DEA
:104380004002E4F0E51520E50471AB71C99172AF0C
:1043900082AE83EFC0E071B9900738E0FDD0E0FF56
:1043A000121CFF121BF61237E641E4900737E0FDBE
:1043B00075F0AA9007431223DDED75F002A42430B6
:1043C000F9740735F0FA7B0122AF82AE837D01904C
:1043D000048CEEF0A3F1E4E5147078B1445005C20A
:1043E00058122EFE90048CE0FEA3E08E11F512A36D
:1043F0001223E99003EC1223F2AE11AF127DAA1240
:10440000592DE4F5FF75D908F510E5155421602BF9
:10441000E51530E504E4FF91B9E4900491F09004CF
:1044200091E004F01254D8EF6009900491E0C39435
:104430001040EB7F02121E4E5315DE9003E8E07F22
:1044400000B403027F01F173D258122EFED2EBA208
:104450003C92ED22C2AFEFF45215D2AF227F02910F
:1044600054900737E090073FF090073704F0C3946B
:10447000022290073FE0FD75F0AA9007430223DD7A
:10448000900001740193B40007E493B41802C322AE
:10449000D322900741E0FEA3E0FF1219D0D3EF949E
:1044A000C8EE9400227F017E009017FCE4935EFE2C
:1044B0007401935F4E24FFB32275FF01E5D530E60A
:1044C00002C322E4F5FF439A80EF125EA9E4F5FFF0
:1044D000539A7FD32243FB1075FF0243E640EF60FF
:1044E0000D75FF02E5E120E7FB43FB0D800343FB75
:1044F0000E80FE75FF02E5E630E2037F0322E5E66B
:1045000030E3037F0022E5E630E1037F0422E5E6A5
:104510007F0530E0027F0122E5147026B14450058A
:10452000C258122EFED16B7F08121E4EF1CDE5D17E
:1045300020E0FB4315205315FEE4F510A23C92ED5C
:10454000D322C322C2EBA2ED923CC2EDE5F4C3300C
:10455000E701D322902EA1125C91EBF0902EA7746C
:1045600001F0C257122F4E122F435005E5FC20E6F2
:10457000F6D187BF0108E4F5FC75FC408007D187C0
:10458000BF0202D32275FF0153D8EF902EA2E0FFA5
:104590001257BF75FF0153D5DF53FAFB902EA1E0F0
:1045A000FF91B9902EA2E0902EA1B4080B123D63AA
:1045B0002452123ED6FC8004123D63FF12549C909C
:1045C0002EA3E0FFF1DE75FF0175FF03759B04125A
:1045D0002F4E75FC42E5FC20E105122F4340F3907D
:1045E0002EA4E0F075FF03E59B20E705122F434062
:1045F000F3E59B20E70C75FF03759B1FD16BD2572A
:10460000804ED164125460902EA2E0FD90120FE013
:104610005D701D902EA1E0FFD164124BCD90120F62
:10462000E0FF902EA2E0FEEF4E90120FF0123D41FF
:10463000F1827B017A2E79A5D1E8500FC3902EA686
:10464000E09420902EA5E0940340E7D1641255B386
:10465000123FD6305702A15C902EA7E0B40103D3DD
:104660008001C3227B017A2E79A722E5FA30E1FB93
:1046700075FC8075FF0153D5EFE4F5FC75FC40F146
:1046800064E5FC20E6FB227FFA7E00D1FD122F5567
:10469000E5FC30E605122F4340F6E5FC30E6037FEB
:1046A000032275FF01E5D530E6037F0222E5D57FC1
:1046B0000030E7027F0122902FAEEEF0A3EFF07BF7
:1046C000017A2F79B0D1E85014902FB0E0FEA3E02A
:1046D000FF902FAFE09F902FAEE09E400A902FAE4C
:1046E000E0FEA3E0FFD1FD22F158AD94EF4DF16B58
:1046F0008FF0122178E591C330E701D32275FF03D3
:10470000D3EF9402EE9400400874FE2FFF74FF3E36
:10471000FEEFF592EE540FF59122CDEFCDCCEECC1D
:10472000F158AB94EF4BF16BCBEFCBFAE59130E75F
:1047300018F15BA994E9F582EF4582FFEBF1EAC33A
:10474000EF9582E5F0958340E3E59120E709CEEC13
:10475000CECFEDCF123FD02275FF03AF93EF75F0B0
:1047600010A4FF2275FF03E4F5912224FBFFE5F07E
:1047700034FF2291B943FA04E4F5FF53D1FD43D14C
:104780000122E4F5FF75C2E17F1EF19D30E707E4E9
:10479000F5FF75C2A122E4F5FF75C28122FEF11A70
:1047A00090120FE022C258122EFEF1CDE5D120E08A
:1047B000FBE4F5FF75D9089003E8E07F00B403023D
:1047C0007F01F173D258122EFEE4F51022E4F5FFBA
:1047D000E5D154FE4402F5D122E4F514A11875FF89
:1047E000018FDA22EFF0A30223F22DF582EA3CF5E5
:1047F0008322123177121C46121D04121C96900758
:1048000036E0640170030248AB7FFF1219A89004E0
:10481000771223F27E007F1512373DBF540E7E00C3
:104820007F1612373DBFA5047F0180027F009007ED
:1048300034EFF06401705490047731577A04797D35
:104840007402314490047DE0FEA3E0FF90047731D0
:104850004CE92407F9E43AFA90047A1223F2E924A5
:1048600008F9E43AFEAF017B017A04797D902F15B7
:104870007402F0312C90047DE064057004A3E064C0
:104880002260081219AD900734EFF0900734E07001
:104890001A7E007F10C006C3743C9410FE74383139
:1048A0007AD006315FE4FFFE1219B2121B5B121AB6
:1048B00098121A1B306705754F018037318C121919
:1048C000763167FE4FFDA3E0FC4DFDA3E0FB4D609C
:1048D0000BEE5FFFEC5FFFEB5FF47003122EBAE5A7
:1048E0004F54032439F582E43407F583E0654F9093
:1048F000072FF0E4902E99F0902E97F0A3F0021875
:104900000775FF0275E40475E40175E40222903036
:1049100023E075F005A4242EF9742B35F0FEAF01C9
:104920007B017A2C7923902F157405F0902F1212A9
:104930003FEBC007902F121223E9902F15316FD053
:10494000070236177B01902F15F080E01223E9C390
:10495000E99FF9EA9EFA221223E9AE02AF01221280
:104960003ABB74FFFDFC22900739E0FFA3E022E090
:10497000FF902E0AE4F0A3EFF0229400902EADF009
:10498000A3CEF07B007A00790022C20A7B007A0075
:10499000794F902F191223F20B7A0779392275FF7C
:1049A0000275E404E4F5E422A24C9235229004D688
:1049B000EDF09004D5EFF0BF0411A3E0FB7D017F83
:1049C0000131E99004D57403F0800B9004D6E0FB2C
:1049D0007D01E4FF31E99004D5E0900735F0D2097C
:1049E0001219CB900741022AC0EB600875FF0153F2
:1049F000CDFD800675FF0143CD02ED600553FBDF61
:104A0000800343FB20EF600775FF0243E1402275FE
:104A1000FF0253E1BF2275FF028FE322A24D9238BD
:104A20002290072FE064AA2411FFF022AE07512143
:104A3000EE04FEEF8EF084AFF02230370D121A43F1
:104A4000EF6007C260121A2FC2372275FF02D2AD83
:104A5000D2BD75FF02758E7175500975FF02E58E26
:104A6000546F4480F58E902FAA1223AC00000000F2
:104A700022C0E0C0F0C083C082C0D075D008C0FFA3
:104A800075FF02E58E30E43F75FF02E58E54EF447A
:104A900010F58E902FAA122343123ED3FC902FAA1A
:104AA0001223A0900000E475F0011220E9E55030D7
:104AB000E0020541E550700D755009054CE54C705C
:104AC00002054B8002155075FF02E58530E408753C
:104AD000FF024385100554D0FFD0D0D082D083D0C0
:104AE000F0D0E032E4900409F09003FB04F02212CD
:104AF000454C500651FC50028001C322E5F754E0BA
:104B000024FF22AF14EFC36001D322EFC3940E50F1
:104B1000059003EBEFF022E517540FFF22E517C3D2
:104B200094F0501F5317F07146FE740FC39F400559
:104B3000EE940E400543170D8003EF4217E517541E
:104B40000FFF227F0022E517C4540FFEEF9029F0DB
:104B5000932E227146FFC3940E40027F0DEF9029E1
:104B6000D293FF22EF30E303AF1322AD1B203D04AD
:104B7000EE30E00BE517C394F05020719E8018E5ED
:104B8000196006FDE4F5198012E517C394F0500B87
:104B9000E517540FFF60047153AD07AF0522900372
:104BA000EBE0FDFFC3740E71C6EFC4F8540FC86884
:104BB000FFEEC454F048FEE51754F0C3122E1F7FD9
:104BC000005002AF05229FFFE49400FE22902FBA0E
:104BD000EDF0901211E0F46005A3E0B4FF0C902F0B
:104BE000BC7418F0A37413F08010901211E0902F91
:104BF000BCF0901212E0902FBDF0121F59640160BA
:104C000002A137902FBAE0FE64086004EEB40408F5
:104C1000902FBB7428F08006902FBB743AF0EF12EF
:104C20003D64FF1222CEE4B138EF24D8FFEE343FCA
:104C3000FEED3493FDEC3416FC7B007A807903782A
:104C40000012185EB1F1902FBDE0FF902FBCE0C3C1
:104C500071C6E4FCFD1221A4ECC0E0EDC0E0EEC0A2
:104C6000E0EFC0E0902FBDE0FFE4FCFDFEB138D0E6
:104C7000E0FBD0E0FAD0E0F9D0E0F8EB2FFBEA3E21
:104C8000FAE93DF9E83CF8902FBBE0FFE4FCFDFEBB
:104C90001221A4EF2454FFEE340B123ED9FCE47B26
:104CA000A87A16F9F812185ECBEFCB902FBAE01461
:104CB000605D14601B24FE600C24FC707AE4F5FF38
:104CC00075CE318006E4F5FF75CE21F5FF8BCF223E
:104CD000E4FAE4F5FFEA2440F5CEE4F5FFEAFFC389
:104CE000740771C6744E2FF58274183EF583E4B1D3
:104CF00040C39DF5CFE4F5FFEA2448F5CEE4F5FF87
:104D0000EA90184EB1402DF5CF0AEAB408C422E467
:104D1000F5FF75CE01F5FF8BCFF5FF75CE0EF5FFD4
:104D2000EB25E0F5CFE4F5FF75CE0FF5FFCFEBCF28
:104D3000EB75F003A4F5CF227B64FAF9F80221A405
:104D40009325E0FDE433FCEB75F010A4FFAEF01208
:104D5000205ECDEFCDEBFFE4C313EF13224315012B
:104D60005315DF7164B19E4004E4F5142243FA0444
:104D70005315FB304E05124778800A7F55B1877F67
:104D800055B187D2EBD32275FF01E5D520E602C3EA
:104D900022E5FA540360FA75FF018FC3D322900411
:104DA000C7EFF09003EAE0FFB1FE9004C8EFF09087
:104DB00003EAE024FD60130470089004C67404F054
:104DC000800E9004C67408F080069004C67402F049
:104DD0007F01121E4E9004C8E09004C6B1EAE49030
:104DE0002EA4F012455450EDD322FFE0FDA3E0FBCA
:104DF00022C8ECC8C9EDC9CAEECACBEFCB22EF245A
:104E0000FD600680007E018002E4FEAF062290076E
:104E100040E0B4020D8F1B900489E0F513121C2DA5
:104E2000D322C3229004C31223F29004C31223E9B5
:104E3000E51BD159D16FD158D160D1679004C3120D
:104E400023E9E92403F9E43AFAE513D159122DDAFA
:104E5000D158D17AE4022018E41220189004C32219
:104E60001223E9E9240222F9E43AFAE402201812B2
:104E700023E9E92401F9E43AFA221223E9E92405B5
:104E8000F9E43AFA22E51754F0C4540F2FFFC39403
:104E90001040027F0FEF9029E093FF227E10EE601A
:104EA000091EEE9029E093B507F4EEC3940E40027C
:104EB0007E0DEE9029D293FF22C2AFEF4215D2AF02
:104EC00022EF24FE600C24FE600580007F01227F1B
:104ED00002227F0322751401751A139003FCEFF070
:104EE0009003EA7402F0ED90040A30E507E4F0A3C1
:104EF000743AF022E4F0A374E6F022F1075007E4DC
:104F000075F0011220E922C39003F0E094FF9003B2
:104F1000EFE094FF22C39003F2E094FF9003F1E0EE
:104F200094FF5007E475F0011220E922C0E0C0F0C0
:104F3000C083C082C0D075D008C0FF75FF01E5D521
:104F400030E6047F028009E5D57F0030E7027F016B
:104F50008F18E51864026003025016E5141224FF4E
:104F60004F79014F8E024FFD084F9A094FA60A4F05
:104F7000B50B4FD50C0000516475FF0175C3551575
:104F80001AE51A600302516475140202516475FF38
:104F90000175C3F075140902516475FF0175C3559D
:104FA00075140A02516475FF019003FCE0F5C375A6
:104FB000140B02516475FF019003E9E0F5C3751409
:104FC00001751A1490040A125CE2600302516475C0
:104FD000140C025164AB1CAA1DA91E125957AD1620
:104FE000AF1F12597F122DE575FF00125E3243FA92
:104FF0000475FF0012477B751408025164C2EB75FB
:105000001400431504124F074003025164E475F085
:10501000011220E92164E5186401600221643197DE
:1050200040022164E510705F318B1223E9E5D9124B
:105030002018317FE09004DFF0319E124EC19003C2
:10504000E8EFF09004DFE0FFD39409500201DC9018
:1050500003E8E0D39402400CEFD394AA7F0040020F
:105060007F01800D9004DFE0D394407F0040027FF9
:1050700001EF600280669004DFE0FFF51675FF0027
:105080008FD97510032164E5106403600221643137
:105090008B124E6FE5D912201875FF009003E8E0DF
:1050A000C39403E5D350055402FF80035401FFEF7E
:1050B000602F30E111C39003F6E094FF9003F5E018
:1050C00094FF5018800FC39003F8E094FF9003F70B
:1050D000E094FF5007E475F0011220E91247A52182
:1050E00064C258122EFE75FF001247D0E5D120E0B1
:1050F000FBC2EB4315023178A3E0FF90073AE0FED4
:10510000EF6E3177E09007393171A3A3E090073B50
:105110003171A3A3A3E0FE90073CE0FDEE6D4F606C
:1051200016C39003FAE094FF9003F9E094FF500750
:10513000E475F0011220E9C39003F4E094FF9003BA
:10514000F3E094FF5007E475F0011220E9751000B8
:105150009003E8E0B403071516317FE516F09007D9
:1051600038E516F0D0FFD0D0D082D083D0F0D0E098
:1051700032FEE0FDEE6D4FFF85128285118322E540
:10518000122407F582E43511F5832275FF01F5EA53
:1051900075EAFF9003EC22E5F754C024FF22E5F7FF
:1051A0005406FFBF06037F0822E5F75406FFBF043D
:1051B000037F0422E5F75406FFBF02037F02227F2C
:1051C000012290040AE0A3E0FF229004A31223F23C
:1051D0009004A6EDF0E4A3F0ED54FE9004A6F06078
:1051E0002BE4FF122AF2BF01239004A31223E91239
:1051F0003D7C50189004A451179004A7E02402F0BD
:105200009004A7E0FF9004A6E06F70DD7F01122AF2
:10521000F29004A7E0FF22E475F0020220E97D028B
:1052200031CAEFC36001D322E4FFFEFDFC9003FD11
:10523000513D900401513D9004050223A01223A08A
:10524000E4FFFEFDFC22EF514F12234302232925E8
:10525000E025E024FDF582E43403F583229007394C
:10526000E0F4FFA3E06FFFA3E06FFFA3E06FFF6434
:10527000556009EF644A6004EFB40A010F9003E936
:10528000EFF022A2EB9250C2EB7A0379EF7B017D23
:105290000CE4FF12196CA25092EB22A2EB9251C2C5
:1052A000EBEBC0E0EAC0E0E9C0E07A0379EF51C37C
:1052B000D0E0F9D0E0FAD0E0FB7F0C121999A251AE
:1052C00092EB227B01902EC10223F2C003C002C0E8
:1052D000017A2E799551C3D001D002D0037F02020A
:1052E0001999124687EF6401706A718B903086EFCE
:1052F000F0D39402505E902E99E0FF903086E06FDC
:1053000070527155903087EFF07B017A3079877D4C
:1053100001121CFA903086E02495F582E4342EF5D3
:1053200083EFF0902E99E0045401F07027902E97AF
:10533000E07002A3E0601D7B017A2E799351CB7B54
:10534000017A2E7993902E97E0FEA3E0FFF5828EEE
:105350008312252922E4FFE5F754C0600280167508
:10536000FF01E5D530E30D717A50F47175EF60EF10
:10537000717A50EB227181AFD92275FF01E5E433D8
:105380002275FF01E4F5EA75EAFF22E5F4541813EB
:105390001313541FFF22902E97EEF0A3EFF022EF8D
:1053A0007011ED600775FF0143AE012275FF0153D7
:1053B000AEFE22EFB40110ED600775FF0143AE02AF
:1053C0002275FF0153AEFD22EF600775FF0253E621
:1053D000BF2275FF0243E64022EF14600F146014F1
:1053E000240270188B8075FF018DFD228B9075FF54
:1053F000018DC9228BA075FF018DCA22AF038FB02A
:1054000075FF01AF058FCB22902E9B1223F2EF1474
:1054100060111460182402701E9142E5809148E5E5
:10542000FD801C9142E5909148E5C980129142E5CA
:10543000A09148E5CA80089142E5B09148E5CB02C9
:105440002018902E9E0223E912201875FF01902E3D
:105450009B0223E9E4F5FFAF9122E4F5FFAF92222E
:1054600090301A91937F017C127D01E4FE8D828C35
:1054700083ED2EF582E43CF583E02FFF0EEEB412AF
:10548000EC901213E06F600A90301A123FC4E412DD
:10549000201822EBF0A3EAF0A3E9F022902FB21239
:1054A00023A075FF01902FB2A3E0FDA3A3E4FFFEAC
:1054B000E4FC78101223038FE1902FB2A3A3E0FE47
:1054C000A3E4FFE4FDFC78081223038FE2902FB2DF
:1054D000A3A3A3E0FF8FE322E4902FB6F0A304F090
:1054E000E4902FB9F0E5FA30E1FB75FF01E5D53026
:1054F000E7037F0022E4F5FF75E50875FF0153D847
:10550000EFE5D530E61A75FF01902FB8E5DAF0E443
:10551000F5DA75FF01E5D630E3FB902FB97401F0A1
:1055200075FF03759B0475FC4175FF03E59B30E730
:10553000FBE4FB75FF038B95EB123D64FF919C0B25
:10554000EBB403EF75FF03759580E4F5FF758EC826
:1055500012478275FF0153D5FB1247647F147E000A
:10556000123FD075FF0143D504902FB9E0700A12A5
:1055700047647FC87E00123FD07B017A2F79B7B194
:10558000B3902FB7E0902FB67006E04404FF80027E
:10559000E0FF902FB6EFF090120EE0B4010675FF19
:1055A0000143D81075FF01902FB8E0F5DA902FB6BF
:1055B000E0FF22C25275FF03759B1F75FF03901217
:1055C0000FE020E71BE59A540FC394024012E04419
:1055D00080F0E4F5FF75C2A143FC0475FF03D252CD
:1055E000E5FC30E609E59A540FC3940540CDE5FC8F
:1055F00030E611E412201875FC80F5FC75FC40E5DE
:10560000FC20E6FB305203123D4122EF30E00E4316
:10561000F401E4F5FF43A404F5FF759624EF30E1AF
:105620000E43F401E4F5FF43A408F5FF759624EF5B
:1056300030E20943F402E4F5FF75961EEF30E3090A
:1056400043F404E4F5FF75961075FF01EF54036011
:105650000475D7122275D72D22E4F5FF7584E6F57F
:10566000FF439404F5FF75981422E4F5FF75933F0A
:1056700075FF03759A40D159E4F5FF759C93F5FFCA
:1056800075A1A3F5FF758531F5FF758628E5FA54F8
:10569000304480F5FA75FF0175E74A75FF0275DF42
:1056A0004975FF0143D30475FF0153D367E4F5FF48
:1056B00053E6BF75FF0175D825F5FF75B503F5FFF6
:1056C00075B215F5FF75BA02F5FF75AFB3F5FF7545
:1056D000CD0AF5FF75CB08F5FF75CA12F5FF75BF4A
:1056E0000EF5FF75CC96F5FFF5BDF5FF75C281F59A
:1056F000FF75AEE1F5FF75DA55F5FF75F580F5FF3D
:1057000075E903F5FF75E933F5FF75972A75FF0114
:10571000759B42759CA4759D29759E48759F24753F
:10572000A11275A312759AF820550CF5FF439680C7
:1057300090120FE04440F022CCEFCCCFEDCF7401BB
:105740007E00C8EFC8088005C333CE33CED8F9FF3A
:10575000CDECCDEF5D601B30541875FF0175DCADED
:1057600075FF0175DDCDE4F5FF759A74F5FF75944D
:10577000842275FF0175DC5375FF0175DD33E4F597
:10578000FF759A14F5FF75940422F1A853DB7F7519
:10579000FF0175D5027F147E00123FD0F1A843DBD4
:1057A0008075FF01E4F5D52275FF01438E1075FF6A
:1057B000012275FF0175E46575FF0175D6472275F5
:1057C000FF01E5D530E602C32253FACFEFB4080556
:1057D00043FA308012EFB4040543FA208009EFB495
:1057E000020543FA108000D322902FC2125C8EEB88
:1057F000F0125868AC00AD01AE02AF03C006C0079E
:10580000902FC212587FFBAA06E4F9F8D007D00601
:10581000D31222DC7E0050047F0180027F00C0068C
:10582000C0071168D0E02FFFD0E03E902FC2F0A358
:10583000EFF053ECFC902FC2E0FCA3E0FDEC54032E
:1058400042EC75FF02EDF5AF75ED0275ED04A3E0D6
:10585000600543EC08800353ECF7902FC5E060042B
:1058600043EC042253ECFB22902FC2E0FEA3E0FBAA
:10587000AA06E4F9F87F807E387D01FC02185EE01C
:10588000C313FEA3E01322EF600775FF0243E61087
:105890002275FF0253E6EF2275ED042275ED022218
:1058A000E5ED30E2FB75ED04AFEF22AFEF228FEFB5
:1058B00022E5ED20E0FB8FEF22EF600443EC0422B1
:1058C00053ECFB22EF600443EC082253ECF722E593
:1058D000ED5402FF22E5ED5404FF22E5ED5401FFF3
:1058E00022902D13E0122018902D18E09000011244
:1058F000202A902D19E090000202202A902EB11249
:105900003FEBC007902EB11223E9902EB43114D092
:1059100007023964E0FFA3E0902BFCCFF0A3EFF087
:1059200022902D15E0FF22E4902D15F022E4F5FFE2
:1059300075D102E5D120E0FBE4F5D1F5FFEF314E62
:10594000EE540F42D6E4F5FFCFEDCF8FD422F5D73A
:10595000E4F5FF53D6F022E4F5FFE9314EEA540FA7
:1059600042D622E4F5FFEFF5D8E4F5FF53D60FEE6B
:10597000540FC4F854F0C8E4C4540F4842D622E48B
:10598000F5FF8FD4F5FFCFEDCF8FD522E4F5FF8F54
:10599000D422E4F5FFE5D1540133333354F8FFE466
:1059A000F5FFE5D354074FFF22EFB40109D2AD75DF
:1059B000FF0143AE4022C2AD75FF0153AEBF227559
:1059C000C80122E5C85402FF75C80222E5C8540187
:1059D000FF22EF6004902DF6F09003CDE0FF9003DE
:1059E000BD1223E91219EE9003CDEFF0604E201F97
:1059F0004B902DF4E0C330E501D39223902DF3E0DA
:105A0000902DF751511223F2902DF5E090045BF0A8
:105A1000902DF2E090045C5159F09003CDE0FBE44E
:105A2000FF121CD2EF7029902DF67402F0902DF029
:105A3000E0FEA3E0F5828E837F028011902DF6E0D8
:105A4000FF902DF0E0FCA3E0FDF5828C8312252968
:105A500022FD1223E990045822F0A37459F0A37494
:105A6000D222902D301223F2902D2FEFF0FE902DA8
:105A70003A7403F0902D37E05437F0E0FF54209053
:105A80002DF4F0902DF3EEF0902D38E0FDA3E09092
:105A90002DF0CDF0A3EDF0902D331223E9902DF7EA
:105AA0001223F2902D36E0902DF5F0902D30122338
:105AB000E99003BD1223F2EF4420902DF2F0E49020
:105AC0002DF6F0C21FF546902D301223E9AF461295
:105AD00019EE8F46EF602A7D03121BD340E9902D0B
:105AE00036E0D3941940037F0022AF46121BCE50FC
:105AF00008902D3A7401F08008902D3A7402F080DD
:105B0000C6902D36E0D3948240037F00227F02129C
:105B10001C4B902D3B1223F2EA494B6059902D2FDC
:105B2000E0FF902D3B1223E9E924B6F9E43AFAEFBD
:105B3000122018902D37E0FE30E00FE49003CDF0F6
:105B40007179EE6401A3515980187179902D37E075
:105B5000900441F0902DF0E0FDA3E0900442CDF0E0
:105B6000A3EDF0902D3B7187902D331223E97D0238
:105B7000121CC87F01227F0022902D3AE0FF902D59
:105B800036E0900440F0221223E99004440223F20C
:105B9000902DAA1223F2902DA9EFF0121BB040060F
:105BA000902DA9E54FF0902DA9E0FF902DAD122387
:105BB000E9902D331223F2902DB0E0902D36F09025
:105BC0002DB1E0902D37F0902DB2E0FDA3E0902DA7
:105BD00038CDF0A3EDF0902DAA1223E94162021A0C
:105BE00007E4FF3035037402FF22200005D21502BE
:105BF0001B06C3229030F9E0701C7BFF7A29791BC9
:105C00007D23121C697BFF7A2979047D17121C6998
:105C10009030F97401F022021C6E903083123935F5
:105C2000E4FF9030831223E98F8291320FEFB4109A
:105C3000F122758300E59302202A91414408F58FF3
:105C40002275FF01E58F54F62275FF01E58F540898
