:020000040000FA
:100000000202DF0218034100E0002202180B222244
:0100100022CD
:07001300021813E4FFE1D223
:07001B0002181B75C8012249
:030023000218239D
:03002B0002182B8D
:030033000218337D
:03003B0002183B6D
:030043000218435D
:03004B0002184B4D
:030053000218533D
:03005B0002185B2D
:030063000218631D
:03006B0002186B0D
:10007300021873BB010689828A83E0225002E722B9
:10008300BBFE02E32289828A83E49322BB010CE54F
:100093008229F582E5833AF583E0225006E9258239
:1000A300F8E622BBFE06E92582F8E222E58229F57D
:1000B30082E5833AF583E49322BB010689828A832E
:1000C300F0225002F722BBFE01F322F8BB010DE53B
:1000D3008229F582E5833AF583E8F0225006E92583
:1000E30082C8F622BBFE05E92582C8F222C5F0F8D4
:1000F300A3E028F0C5F0F8E582158270021583E0CD
:1001030038F022A3F8E0C5F025F0F0E582158270FF
:10011300021583E0C838F0E822EF2BFFEE3AFEED3C
:1001230039FDEC38FC2275F008758200EF2FFFEEE5
:1001330033FECD33CDCC33CCC58233C5829BED9A10
:10014300EC99E58298400CF582EE9BFEED9AFDEC6E
:1001530099FC0FD5F0D6E4CEFBE4CDFAE4CCF9A8B4
:100163008222B800C1B90059BA002DEC8BF084CFBC
:10017300CECDFCE5F0CBF97818EF2FFFEE33FEED93
:1001830033FDEC33FCEB33FB10D703994004EB99BD
:10019300FB0FD8E5E4F9FA227818EF2FFFEE33FED0
:1001A300ED33FDEC33FCC933C910D7059BE99A4005
:1001B30007EC9BFCE99AF90FD8E0E4C9FAE4CCFB1D
:1001C3002275F010EF2FFFEE33FEED33FDCC33CC71
:1001D300C833C810D7079BEC9AE899400AED9BFDFA
:1001E300EC9AFCE899F80FD5F0DAE4CDFBE4CCFA0D
:1001F300E4C8F922EF5BFFEE5AFEED59FDEC58FC23
:1002030022EB9FF5F0EA9E42F0E99D42F0E89C451F
:10021300F022E8600FECC313FCED13FDEE13FEEFC9
:1002230013FFD8F122E8600FEFC333FFEE33FEED87
:1002330033FDEC33FCD8F122E0FCA3E0FDA3E0FEA8
:10024300A3E0FF22E0F8A3E0F9A3E0FAA3E0FB2296
:10025300ECF0A3EDF0A3EEF0A3EFF022A8828583E8
:10026300F0D083D082120276120276120276120244
:1002730076E473E493A3C583C5F0C583C8C582C878
:10028300F0A3C583C5F0C583C8C582C822E0FBA31C
:10029300E0FAA3E0F922F8E0FBA3A3E0F925F0F0EC
:1002A300E582158270021583E0FA38F022EBF0A3A1
:1002B300EAF0A3E9F022D083D082F8E493701274B9
:1002C3000193700DA3A393F8740193F5828883E4DB
:1002D300737402936860EFA3A3A380DF75812F0279
:1002E3000855900A1951B0AE071FEE6012900A1C10
:1002F30071031176FE900A197103EE11BC80E82296
:10030300E475F0018090900A54EEF0A3EFF09000B2
:100313004FE064016002619BC3900A54E09408506B
:100323000BE4FF914F900A54918380ECE4F50DFBAD
:1003330071C4AF0C121010E50DC39408504771C27D
:10034300E50D7F0071BCEF29F9EA3EFA900A1C51D2
:10035300B07B017A0979007FFF51E5E50DFEE424C6
:10036300FFFFE43E71BC8F828E83118F9009FFF0F3
:100373007B017A097900900A3DE50DF0AD0C12106E
:1003830037050D80B2900050513BE42FFFEE340847
:10039300919490005002167F900054E0FEA3E0FF7A
:1003A30071BD900A54E0FDA3E0900A05CD120AA89E
:1003B300900054EEF0A3EFF022FE90200141907BD9
:1003C300007A00791091D175FF031176F5D375FF8B
:1003D3000390000171EF90000271EF90000371EF41
:1003E30075D40175FF03E5D55402FF22118FF5D3B0
:1003F30075FF0322900A33E0FEA3E0FF912D914F96
:10040300900A35513BEF24019191900A3551539055
:100413000A589149900A58E07002A3E0700BFF7EDE
:1004230008710991DFF01215FD2291B3CD24FFCDA0
:1004330034FFFCC3ED9FFFEC9E541FFE74082F9105
:10044300E8FF22900A1374FFF5F001F091B3541FF3
:10045300FC74082DF58274203CF583EFF0902006A0
:10046300E0B42019A3E0B40014902005E02401FFB8
:10047300902004E03400541FF0A3EFF022902006F4
:10048300E475F00101F09000CE513BEF241BFFE433
:100493003EFEE43DFDE43CFC2291C7EF2401919133
:1004A300120C867404F0D1E3918991CC91F1F0227E
:1004B300902006E0FCA3E0FD902005E02DFD9020B8
:1004C30004E03C229000CE413B900087415375FFEE
:1004D3000375D40222900A17E0FF8101900A587431
:1004E30008F0A3E422F58274203EF583E022900015
:0704F300817408F0A3E4226C
:10050800AEFFEE54CFFEEFC454F024804EF5FF2228
:10051800D119EF541FFFF1E0A37401F01215C09038
:100528000A10E0FCA3E0FDAE047805CEC313CE1399
:10053800D8F9FF900A13EEF0A3EFF0ED541FA3F0E3
:10054800A3E4F0900A33F0A3F0C3900A11E09420DA
:10055800900A10E09400407C9146900A15E0FEA3B2
:10056800E0FF900A33EE8FF011F0900A13E0700468
:10057800A3E06406700AD119900A13E48FF011F011
:10058800D119900A33E48FF011F0120DB2EF600424
:10059800F1DE8005E4900A12F0900A33120FD2704F
:1005A8001D912D900A17EFF0910191D891D8900ADA
:1005B80013E07002A3E0604791D8914680F071F78C
:1005C80071F771F7900A13E07002A3E0603171F7D8
:1005D800914680F0900A109183800A900A10E0708A
:1005E80002A3E0600BD1199101900A10914980EBA8
:1005F800120DB2EF6004F1DE8005E4900A12F0906B
:100608000A12E06002A12712166E7109900A35419C
:100618003B900081E0B4082DA3E0B40028120DA59A
:100628007B017A0179009000FD7408F0A3E4F0D111
:10063800E3120DA5E42FFFEE3408919491CCE490D9
:100648000081F0A3F0900083120E8990008351532B
:10065800900081E475F0013106FE740025F0F58202
:1006680074013EF583E0FF229000ED51539000F1B4
:1006780051B0110FF134EF6004111080F7120F7CA4
:1006880060099000ED513B7810D1D89000EDD1D49D
:100698009000ED513BE480279000F4120FD945F00B
:1006A80060219000F15190EA494B60119000F1519E
:1006B800901176FFD1DB9000F2918380DBE4FFD1CB
:1006C800DB80D5F1CD9000D77401F022513B78083A
:1006D8005115E4E5C820E2FB8FEB229000F6515358
:1006E8009000FA51B0110FF134EF6004111080F747
:0806F800F1EE120F956009906C
:1007000000F6513B7810D1D89000F6D1D49000F685
:10071000F1E99000FD120FD945F06011F1889000C9
:10072000FA5190EF11BC9000FB918380E5120EF915
:10073000E4FFE1D27F01F1D23002161212D2F18829
:10074000900A5DEFF0120EF9900A5DE020E002C21F
:1007500002300219F1779000D4EF1212DA600BA385
:10076000E0F46006EF30E702C202120EF9E4FFF196
:10077000D2A202E433FF22F1F77FD7D1DB7FFFD192
:10078000DBF18C9000D3EFF07FFFD1DBE5C820E2F6
:10079000FBAFEB22900A3E5153110FF134EF60048E
:1007A000111080F7F1EE120F956009900A3E513B4F
:1007B0007810D1D8900A3ED1D4900A3EF1E9F18860
:1007C000900A42F1CB900A42E0FF22EFF0120EF9BC
:1007D000E4FFEFB4010443FE202253FEDF22D119CF
:1007E000900A10E4F0A3EFF022513BE4C1DB7F015B
:1007F000F1D2F1F77F03229000D8E051B908190433
:10080000082114082615082B17083B300840340827
:100810004536084A3700000833531AEF851A80809E
:100820002F531BEF8008531BDF8003531B7F851B57
:1008300090801D531CDF851CA08015531DFE800D6C
:10084000531DEF8008531DBF8003531D7F851DB0CE
:100850007F0CDFFE2275FF03759E029017FAE4936A
:10086000900A51F075FF02E5E654036002419F755E
:1008700010DE7511AD7512BE7513EFC2AF75FF02B4
:1008800075E404F5E4751AFF751BFF751CFF751DF3
:10089000FF7516FF7517FF7518FF7519FF75FF02B5
:1008A00053E6BF91B6121102B108EF640160024134
:1008B0009690180893FE740193FF90007FEEF0A3CA
:1008C000EFF0F5828E83E493FE740193FFC3EE9400
:1008D00080500280047E807F008E148F159193FFDC
:1008E000F5828E83740293F51E740393F51F7404CE
:1008F00093F508740593F509740693F50A74079344
:10090000F50BC201EF4E700221F4EFF4FFEEF44F4D
:10091000700221F4E514451EFEE515451FFFE508AC
:100920004EFEE5094FFFE50A4EFEE50B4F4E700205
:1009300021F4E51FF4FFE51EF4FEE515F4FDE514D2
:10094000F44EFEED4FFFE509F4FDE508F44EFEEF31
:100950004DFFE50BF4FDE50AF44EFEEF4D4E70023F
:1009600021F47F03120508E50B24FFFFE50A712B34
:10097000640370247F02120508E50924FFFFE508DF
:10098000712BB402137F01120508E51F24FFFFE558
:100990001E712BB40102D2012001597F01120508FA
:1009A000713F900A05E51EF0E51FB1AB71207F0293
:1009B0007134900A05E508F0E509711E7F03713472
:1009C000900A05E50AF0E50B711E7F0112050890FB
:1009D0000A52E0FEA3E0FF7BFF7A187900E42515B8
:1009E000900A06F0E51434E8900A05711F4EC370B2
:1009F00001D39201300109D159EF6401600241969F
:100A0000D2001204C77B017A007964918C741BF0C8
:100A10001206E3900064E0B4800B71D3EF7006120D
:100A2000161BEF6002C20030006830011A9193F586
:100A3000828E83740C93FE740D93FF90007DE06EA4
:100A40007003A3E06F604B90005012025F0000182B
:100A5000001204C71204CCB1A5EF24011204919135
:100A6000867404F01206E390008712048C900087CD
:100A700012167F1204F1F090004F04F01205187462
:100A800040D3950C400C1203C2AF0C121010050C91
:100A900080EDE4FFB1D4E4F510F511F512F5130281
:100AA0001800E0FD900A05E4F0A3EDF0900A00EED6
:100AB000F0A3EFF0A31202B0900A05F1D945F0605F
:100AC00054900A02120290120076900A07F0900ADF
:100AD000031204837D80ED60DF7115EE7C0030E74A
:100AE000027C01900A07E05D7B0060027B01EB6CF9
:100AF000FCEF25E0FFEE33900A00F0A3EFF0AF0427
:100B0000EF600C900A00E06410F0A3E06421F0EDC7
:100B1000C313FD80C1900A00E0FEA3E0FF22A3F012
:100B200051AC900A52EEF0A3EFF022347F8F82F5A1
:100B300083E49322120508900A52E0FEA3E0FF7BB3
:100B4000FF7A80790022900000EEF0A3EFF0A3126C
:100B5000023B900008120253900006E0FFA3E090D1
:100B6000000CCF805F90000CF1D2605EC3EF944028
:100B7000EE94004006A37440F0800590000EEFF064
:100B8000919BE0FF918CEFF090000812023B12065F
:100B9000E390000EE0FFC390000DE09FF090000C8A
:100BA000E09400F090000812024790000EE4FCFD73
:100BB000FE12011C90000812025371CA919B51A2AF
:100BC000900000EEF0A3EFF0809B900000E0FEA309
:100BD000E0FF221204C79180900006E4F07405B192
:100BE000AB9175C006C0071204C7EF240712049129
:100BF0009180900006E4F0A37414F0D007D0069121
:100C000075C006C007120489918091A540067EFF39
:100C10007FFF800690006512023B900006EEF0A375
:100C2000EFF0D007D006917591A540301204C7EFC0
:100C3000241AFFE43EFEED3401FDE43CFC9180907B
:100C4000006512023BEF2401FFE43E900006F0A392
:100C5000EFF0900A56E0FEA3E0FF9175900069E086
:100C6000FEA3E0FF900A56E06E7003A3E06F7F00E2
:100C700060027FFF227146900A56EEF0A3EFF02249
:100C80009000020202537B017A0079839000FDE418
:100C9000F0A32290007FE0FEA3E0227B017A00799E
:100CA0000F90000E22E47FFF7EFFFDFC9000651296
:100CB0000247D3020204E4900A5EF0900A5EE0FF6D
:100CC000D3946F501EEF2410FFB1E6900A5EE0FE51
:100CD000E42EF582E4344FF583EFF0900A5EE004F1
:100CE000F080D87B017A4F7900900A05E4F0A37474
:100CF00070F07F0F7E1D51ACEF4E7F0070027F01C0
:100D0000901218EFF024FF22E49000D2F07B017AD9
:100D10000079BD1213429000BFE0FF7411D39F50C1
:100D20005DE4FFFEFDFC7B017A0A794F9000FDF047
:100D3000A37402F01206E3900A4FE0FEA3E0FFE482
:100D4000FCFDB19F1204C7EF2402120491B19F125F
:100D500015619000CE1202471201F7900A4DEEF095
:100D6000A3EFF09000CE120247900A4D12154FFEED
:100D7000E4FCFD12011CB19F9000D27401F09000C0
:100D8000D2E0FB6017E4FFFE7D02FC9000BFE02490
:100D9000EFF9F81202289000B7120253AF03229025
:100DA00000CE02025390008702023BA3F07F0F7E29
:100DB0001D22E4FFFEFDFC90008391AF7F00400206
:100DC0007F01227F0F7E1D51A4900A0C1202909089
:100DD0000A0F41A2AB07E4FF9000D2E06007D18682
:100DE000D19DE433FF2275FF03E4F597F1E7E59722
:100DF00020E1FB75FF03AF9922900A48EFF0A3EDC5
:100E0000F0A31202B0900A49E06046901218E06028
:100E100012900A48E02410FFB1E6900A4A120290AC
:100E2000EF8017900A48E06401900A4A70071202A6
:100E3000907480800512029074FF1200BC900A4BDF
:100E4000120483900A49E014F0900A48E004F0800C
:100E5000B4227D01B1F97B0122E49000FFF0900003
:100E6000D2E0601C9000B712023BE4FBFA7902F872
:100E7000D3120204500AD1861207949000FFEFF0BB
:100E80009000FFE0FF229000CE12023BEF24FFFF14
:100E9000EE34FFFEED34FFFDEC34FFFC22900A47F8
:100EA000EBF0900A43120253900A4312023B1207DE
:100EB00094900A47E06F603C12000F120734EF6015
:100EC0000512001080F5F17C600B900A4312023B82
:100ED00078101206D8900A431206D4900A431207DB
:100EE000E9900A47E0FF1206DB1207CD9000D774A5
:100EF00001F0D322C3221206DBF1CCEF70FB90008D
:100F0000DAE0F4600A900A5A7406F0F17470FC900A
:100F100000D8E01202B90F32040F3A140F3F150F38
:100F200044170F54300F59340F5E360F63370000EB
:100F30000F4C431A10851A80802F431B10800843E2
:100F40001B208003431B80851B90801D431C208534
:100F50001CA08015431D01800D431D108008431DFA
:100F6000408003431D80851DB0900A5A740CF0F137
:100F70007470FC22900A5AE014F0E0227F011207FC
:100F8000D2D2021207F77F061206DBD1F91207F759
:100F90009000D6E0FF1206DB9000D9E06402221236
:100FA000000F120734EF600512001080F57F011268
:100FB00007D2D2021207F77F06D1F61207F77F0198
:100FC0001206DB7F03D1F6E4FF0207D2E5C8540422
:100FD000FF22E0FEA3E0FF4E2274FFF5F0020106BF
:100FE000AB05E4FCFDC19D75FF038F9875FF0322DF
:100FF00075FF03759701F1E7E59720E1FB75FF03A6
:10100000AF99221204D175FF03E5D5F45402FF22F3
:1010100075FF03EF543F4480F5D1E5D520E20AE5A2
:10102000D520E005E5D530E1F1E5D55403FF75FFA6
:101030000375D5050204D175FF03ACD5EC20E13C66
:1010400075FF03ED543FF5D175FF03E9F5D375FF47
:1010500003EA540FFF900A3DE0C4547044804FF5FA
:10106000D2E5D520E205E5D530E0F6E5D55401FC22
:1010700075FF0343D40275FF0375D505AF04227FC6
:10108000011207D2900A5B7401F0900A5BE06032B3
:1010900051D2120788900A5BEFF0120EF91207770F
:1010A0009000D4EFF0120EF9900A5BE0540151DA8F
:1010B00060D8A3E0F460D3EF30E7CFE4900A5BF0B0
:1010C00080C81207F77F9F1206DB1207889000D5B1
:1010D0001207869000DA1207869000DB1207CB9089
:1010E00000D3E0F4601BA3E0F460169000DAE0FDAA
:1010F000541F240FA3F0EDC413540744809000DA6A
:10110000F0227B017A0079D87F03120E527A00799F
:10111000E17F08120E527A0079DE7D027F09120DFE
:10112000F97B017A0079DC7D027F0B120DF99000CA
:10113000DC120FD26006BEFF1BBFFF189000E1E07B
:1011400024FD600304700451C880099000DCE4F0C1
:10115000A37440F09000E1E024FD60030470089067
:1011600000D97403F080069000D97402F09000D882
:10117000E01202B9119004119B1411A31511AB17C1
:1011800011C13011C93411D13611D937000011B64F
:1011900075FF015316EF8516FD804775FF01531744
:1011A000EF800E75FF015317DF800675FF0153179F
:1011B0007F8517C9802C75FF015318DF8518CA80F9
:1011C0002175FF015319FE801675FF015319EF8039
:1011D0000E75FF015319BF800675FF0153197F85F6
:1011E00019CB120EF97F1151BAE4FF7109117F90EA
:1011F00000D67402F09000DAE0247F6009047015D4
:1012000051C0740A800651E251C07458F09000D960
:101210007403F051C89000DBE0F4600241B7900025
:10122000DEE0FEA3E0FF64104E70069000DB740E5B
:10123000F0EF64204E70069000DB740FF0EF644016
:101240004E70069000DB7410F0EF64804E700690D4
:1012500000DB7411F0E4B5070AEEB401069000DB80
:101260007412F0E4B5070AEEB402069000DB7413C2
:10127000F0E4B5070AEEB404069000DB7414F0E461
:10128000B5070AEEB408069000DB7415F0E4B50764
:101290000AEEB410069000DB7416F0E4B5070AEE0F
:1012A000B420069000DB7417F0E4B5070AEEB440F2
:1012B000069000DB7418F0020F9FEF4420F5FE2229
:1012C0007F1051BA9000D6229000DC7401F0A3E4A4
:1012D000F0221207F77F050206DBF09000D3E0FF53
:1012E000F4229000D3E020E01F7F011207D2120702
:1012F000F77F3D1206DB7F2A1206DB7F801206DBBA
:101300007FA61206DB1207CD22900A5CEFF0900058
:10131000E1E06402702B7F011207D21207F7900AF6
:101320005CE07FAB60027FB91206DB120EF9900A17
:101330005CE09000E0F070047F1EDFFEE4FF120727
:10134000D2229000D5E01200BC9000DAE0900001BB
:101350001200CE9000DBE09000020200CEE4FCFD23
:10136000020794900A2F717FC007900A2F120290F3
:10137000900A32E0FF120C8CEFF0D0070206E31265
:1013800002B0E4FCFD22900A28717FC007900A2871
:10139000120290900A2BB122D00790008F120253B4
:1013A0009000931202B0E49000B6F0D3900097E062
:1013B000941E900096E094004001227B017A00790F
:1013C00098900096E0FFA3E09000FDCFF0A3EFF02F
:1013D00090008F12023B1206E3900093120290E9F4
:1013E0004A600F9000B6E0F58275830012008FFF0F
:1013F00080027F009000B6E02498F582E43400F586
:1014000083E06F6002C3229000B6E004FFF0D39047
:101410000097E09F900096E0940050BD229000E27B
:101420001202539000E61202B0B1139000E9B1220B
:101430009000E212023B719A500281CCB16190009F
:10144000E21202471201F79000EBEEF0A3EFF04E2C
:1014500060319000EBB14FFE9000EBF0A3EFF09005
:1014600000E9E0FCA3E0FDD39FEC9E5006A3ECF066
:10147000A3EDF091CEE94A6004B11980427E007F6D
:1014800000803C9000E9120FD2603F9000DCE0FC4D
:10149000A3E0FDD3EF9DEE9C400A9000EBECF0A39F
:1014A000EDF0800D9000E9E0FFA3E0A3CFF0A3EF03
:1014B000F091CEE94A6004B11980047E007F00906B
:1014C00000E7EE8FF01200F080B9D322C322900023
:1014D000E61202909000EBE0FFA3E09000F4CFF062
:1014E000A3EFF09000E212023B1206709000EBE0D6
:1014F000FEA3E0FFC39000EAE09FF09000E9E09EC9
:10150000F09000E2120247E4FCFD12011C9000E2A0
:101510001202539000E60202909000EBE0FEA3E07E
:10152000FF22E0FFA3E0900096CFF0A3EFF022901F
:101530000A21717FC007900A21120290900A24E0CC
:10154000FFA3E09000E9CFF0A3EFF0D007811DE00A
:10155000FEA3E0FFC39000DDE09FFF9000DCE09E73
:10156000229000DDE024FFFF9000DCE034FFFEE489
:10157000FCFD2212000F120734EF600512001080EC
:10158000F5229000D7E0FF22E49000D7F0229012DD
:1015900018E024FF22901218E060057F10020DE68B
:1015A0007FFF22E4902004F0A3F0A3F0A3F07B01DE
:1015B0007A2079089020011202B0E4902000F022F5
:1015C0001204DFF0900A3512025F0000000080D3A1
:1015D000902004E0FEA3E0FF24081204E8FDEF24BD
:1015E00001FFE43E541F902004F0A3EFF0A3120487
:1015F00049AF0522902006E0FEA3E0FF22902000E4
:10160000E0045403F07F0033333354F8FEEF240832
:10161000F974203EFA7B01A30202B0900054741DBD
:10162000F0A3740FF012049CE490004FF012051820
:1016300090006BE0FEA3E0FF900054E06E7003A307
:10164000E06F7F0060027FFF22EFB40109D2AD7529
:10165000FF0143AE4022C2AD75FF0153AEBF22E58C
:10166000C85402FF75C80222E5C85401FF22900A3F
:1016700058E0FEA3E0FFC3E49FFF74089EFE221221
:101680000253E4FB7A08F9F890005012023B120171
:04169000658F0C2234
:1017FA00043DFFFCFFFF02184E1A0C1A11227FB893
:10180A00EF90181393901900730A20364CE55CFF89
:10181A0022EFF55C221C2D1C3702509049C71BECA5
:10182A00FF023975000E1384000E18FC000E225CAC
:10183A00020202003F3F3F04040432323200020136
:10184A00900242D775819075FF03759E0212192086
:10185A0002296E02284890254DE47E019360F4A384
:10186A00FF543F30E509541FFEE493A360010ECFF5
:10187A0054E0B4E00EEFFAEEF9A3A3A3A3DAFDD97C
:10188A00FB80D654C025E0604B5026E493A3F8545D
:10189A0007240CC8C333C4540F4420C8834004F43B
:1018AA0056800146F6DFE480B001020408102040A9
:1018BA0080E493A3FAE493A3F8E493A3C8C582C887
:1018CA00CAC583CAF0A3C8C582C8CAC583CADFE924
:1018DA00DEE78085E493A3F8E493A34003F680014E
:1018EA00F208DFF40218635A2D5761766520342E08
:1018FA003631001C00FFC05C7419C0E0C082C0838E
:10190A00755C0AE5FF54CF4490F5FF22C05C741958
:10191A00C0E0C082C083755C20E5FF54CF4490F5D7
:10192A00FF22C05C7419C0E0C082C083755C36E5D2
:10193A00FF54CF44A0F5FF22C05C7419C0E0C082F6
:10194A00C083755C4CE5FF54CF44B0F5FF2290800C
:10195A00002116909800211690808821169080C741
:10196A00211690A7C1211690A81B211690A81E2106
:10197A001690AFF9211690B805211690AB342116AE
:10198A0090C003211690C338211690C7F7211690EC
:10199A0097BE211690A8A4211690C02E211690B1A8
:1019AA0029211690988C211690A91B211690C111F5
:1019BA00211690C0E6211690C315211690C2D9218E
:1019CA001690BF37211690BF0E211690C6CD21164C
:1019DA0090A860211690BFC0211690BFEE211690E4
:1019EA00C879211690CFF0211690D7EF211690AE24
:1019FA0023211690C72C211690D8A4211690AEB692
:101A0A00211690E08A211690AFEB211690E0D021A2
:101A1A001690DAB9211690BB5B211690D4052116CF
:101A2A0090D313211690A7F2211690E1B5211690B2
:101A3A00D536211690D482211690E1B8211690E766
:101A4A00B9211690E7C8211690B798211690E7D6C3
:101A5A00211690E7DD211690DE95211690E83C21AB
:101A6A001690CD37211690E54D211690E5E92116FD
:101A7A0090E85A211690E784211690C9EB21169016
:101A8A008155211690C70A211690E999211690AC22
:101A9A0038211690B7D3211690E498211690B7CE24
:101AAA00211690DBC2211690E43E211690EADA2133
:101ABA001690EB47211690C5BF211690EBAF211661
:101ACA0090E26A211690EBCF211690EBE621169050
:101ADA00AA81211690E721211690E340211690C48D
:101AEA0017211690A433211690E6F2211690E540AC
:101AFA00211690E496211690E4C0211690E73C2125
:101B0A001690C409211690C410211690C77A21167E
:101B1A0090CFC8211690EC65211690EDD821169029
:101B2A00ADD1211690DFC6211690EDEA211690ED6F
:101B3A00FE211690DC3821169085E3211690BCA16F
:101B4A00211690B7A1211690BD48211690BA652199
:101B5A001690DC33211690DF15211690CD29211617
:101B6A0090EDA5211690818E211690CEDC2116903B
:101B7A00CC37211690A8D2211690CB50211690CEA0
:101B8A00C9211690CE4A211690EE46211690E87C7D
:101B9A00211690EE5D211690CCCF211690DECD2134
:101BAA001690EE60211690A41D211690E758211672
:101BBA0090DCD2211690C521211690CDDD211690F8
:101BCA00CDB1211690D9C5211690D982211690E659
:101BDA008D211690E604211690EF69211690A32C08
:101BEA00211690EF05211690A624211690F00321C4
:061BFA0016909D34211637
:101C000090EBA2211690EB8C211690F16121169099
:101C1000F1CD211690F1FB211690F240211690F2A1
:101C20005E211690F338211690F2B2211690B85B1F
:101C30002116909B6F2116909659211690F39321AF
:101C40001690F53C211690F3B1211690F5B72116A8
:101C500090F5F8211690B874211690F5AD211690E4
:101C6000F5FC211690AB2C214290ABEB214290AEBB
:101C70006D214290AFC2214290B083214290B09B2F
:101C8000214290B235214290A9D42142909E6B21ED
:101C90004290807F214290B25E214290B360214207
:101CA000909E7B2142909F992142908000214290FA
:101CB0008EB6214290B5C2214290B5DA2142908C75
:101CC0006A214290B65D214290B298214290B66F4F
:101CD000214290B74721429081AE214290B7E62140
:101CE0004290B860214290B893214290B89F21421F
:101CF00090A8C9214290AAFB214290AD592142905F
:101D0000AB67214290AE11214290AB20214290A8B6
:101D100042214290AD02214290B8AE2142908137DB
:101D2000214290AD1C214290B8E2214290AAC221EA
:101D30004290B949214290AC40214290ADAF21423E
:101D400090B2F3214290B9BD214290A2F821429075
:101D5000A47D214290AD92214290B9FD214290B3E1
:101D600053214290BA29214290BB2F214290AFD6F5
:101D7000214290BB49214290BC3E214290BACE21E3
:101D80004290AF1D214290BD3B214290A061212C89
:101D900090A06B212C90A0C4212C90A132212C90DA
:101DA000A162212C90A291212C90A2A3212C90A27F
:101DB000AD212C90A2B7212C90A3E0212C90A16EF4
:101DC000212C90A1CF212C90A3EA212C90A2292193
:101DD0002C90A3F4212C90A408212C90A33E212C1C
:101DE00090A412212C90A429212C90A440212C9065
:101DF000A44A212C908000212C90A490212C90A406
:101E0000CA212C908438212C90A5F5212C90A5F680
:101E1000212C9080A0212C909B71212C909A26211E
:101E20002C909B2D212C909A6A212C90A67F212CFE
:101E300090A629212C90A5C3212C909CFE212C003A
:101E4000E709F608DFFA8046E709F208DFFA803E84
:101E500088828C83E709F0A3DFFA8032E309F60871
:101E6000DFFA8078E309F208DFFA807088828C83D9
:101E7000E309F0A3DFFA806489828A83E0A3F6088D
:101E8000DFFA805889828A83E0A3F208DFFA804C67
:101E900080D280FA80C680D4806980F2803380103E
:101EA00080A680EA809A80A880DA80E280CA8033A7
:101EB00089828A83ECFAE493A3C8C582C8CCC5831F
:101EC000CCF0A3C8C582C8CCC583CCDFE9DEE780EF
:101ED0000D89828A83E493A3F608DFF9ECFAA9F06E
:101EE000EDFB2289828A83ECFAE0A3C8C582C8CCC4
:101EF000C583CCF0A3C8C582C8CCC583CCDFEADEDD
:101F0000E880DB89828A83E493A3F208DFF980CC3E
:101F100088F0EF60010E4E60C388F0ED2402B40437
:101F20000050B9F582EB2402B4040050AF232345DE
:101F30008223901E9073BB010689828A83E022501F
:101F400002E722BBFE02E32289828A83E49322BB5A
:101F5000010CE58229F582E5833AF583E0225006FB
:101F6000E92582F8E622BBFE06E92582F8E222E5B1
:101F70008229F582E5833AF583E49322BB0109893E
:101F8000828A83F8E028F022500327F722BBFE055F
:101F9000F8E328F3228A838982F8E4932822BB019C
:101FA0000FF8E58229F582E5833AF583E028F022EF
:101FB0005009C58229F8E58226F622BBFE09C582B2
:101FC00029F8E22582F222F8EA2583F583E99328AD
:101FD00022BB010689828A83F0225002F722BBFECF
:101FE00001F322F8BB010DE58229F582E5833AF57C
:101FF00083E8F0225006E92582C8F622BBFE05E9F7
:102000002582C8F222EF8DF0A4A8F0CF8CF0A4288E
:10201000CE8DF0A42EFE22BC000BBE0029EF8DF069
:1020200084FFADF022E4CCF875F008EF2FFFEE331B
:10203000FEEC33FCEE9DEC984005FCEE9DFE0FD5CA
:10204000F0E9E4CEFD22EDF8F5F0EE8420D21CFE9E
:10205000ADF075F008EF2FFFED33FD400798500607
:10206000D5F0F222C398FD0FD5F0EA22C2D5EC30AC
:10207000E709B2D5E4C39DFDE49CFCEE30E715B260
:10208000D5E4C39FFFE49EFE122017C3E49DFDE448
:102090009CFC800312201730D507C3E49FFFE49E09
:1020A000FE22C5F0F8A3E028F0C5F0F8E58215821D
:1020B00070021583E038F022A3F8E0C5F025F0F0B7
:1020C000E582158270021583E0C838F0E822BB0172
:1020D0000A89828A83E0F5F0A3E022500687F0099E
:1020E000E71922BBFE07E3F5F009E3192289828A8A
:1020F00083E493F5F074019322BB010789828A83FC
:102100000220A2500B09C5F027F7C5F01937F722B6
:10211000BBFE0D09F8E325F0F3C5F019E338F3220F
:10212000F889828A8374019325F0C5F0F8E4933826
:1021300022BB010A89828A83F0E5F0A3F0225006CF
:10214000F709A7F01922BBFE06F3E5F009F31922FF
:10215000EF2BFFEE3AFEED39FDEC38FC22E88FF074
:10216000A4CC8BF0A42CFCE98EF0A42CFC8AF0ED1E
:10217000A42CFCEA8EF0A4CDA8F08BF0A42DCC38D2
:1021800025F0FDE98FF0A42CCD35F0FCEB8EF0A40A
:10219000FEA9F0EB8FF0A4CFC5F02ECD39FEE43CC4
:1021A000FCEAA42DCE35F0FDE43CFC2275F0087568
:1021B0008200EF2FFFEE33FECD33CDCC33CCC58282
:1021C00033C5829BED9AEC99E58298400CF582EE3E
:1021D0009BFEED9AFDEC99FC0FD5F0D6E4CEFBE426
:1021E000CDFAE4CCF9A88222B800C1B90059BA00EE
:1021F0002DEC8BF084CFCECDFCE5F0CBF97818EF49
:102200002FFFEE33FEED33FDEC33FCEB33FB10D749
:1022100003994004EB99FB0FD8E5E4F9FA2278180A
:10222000EF2FFFEE33FEED33FDEC33FCC933C91065
:10223000D7059BE99A4007EC9BFCE99AF90FD8E097
:10224000E4C9FAE4CCFB2275F010EF2FFFEE33FE69
:10225000ED33FDCC33CCC833C810D7079BEC9AE8DC
:1022600099400AED9BFDEC9AFCE899F80FD5F0DA5D
:10227000E4CDFBE4CCFAE4C8F922EF5BFFEE5AFEB2
:10228000ED59FDEC58FC22C3E49FFFE49EFEE49D63
:10229000FDE49CFC22EB9FF5F0EA9E42F0E99D42B2
:1022A000F0EC6480C864809845F022EB9FF5F0EA7A
:1022B0009E42F0E99D42F0E89C45F022E8600FEC78
:1022C000C313FCED13FDEE13FEEF13FFD8F122E86C
:1022D000600FEFC333FFEE33FEED33FDEC33FCD87C
:1022E000F122BB010789828A830223595005E9F84C
:1022F000022511BBFE05E9F802251D22E0FCA3E042
:10230000FDA3E0FEA3E0FF22E493FC740193FD74BF
:102310000293FE740393FF22E0F8A3E0F9A3E0FA2E
:10232000A3E0FB227401FF3395E0FEFDFCA3A3A311
:10233000E02FFFF0E582158270021583E03EFEF08B
:10234000E582158270021583E03DFDF0E58215827D
:1023500070021583E03CFCF022ECF0A3EDF0A3EE5C
:10236000F0A3EFF022A8828583F0D083D0821223DD
:102370007C12237C12237C12237CE473E493A3C598
:1023800083C5F0C583C8C582C8F0A3C583C5F0C5A1
:1023900083C8C582C822A42582F582E5F03583F57D
:1023A0008322E0FBA3E0FAA3E0F922EBF0A3EAF03A
:1023B000A3E9F022E493FB740193FA740293F922E7
:1023C000BB010789828A830223A25005E9F802250E
:1023D00029BBFE05E9F802253B89828A830223B4E2
:1023E000BB011A89828A83D0F0D0E0F8D0E0F9D01E
:1023F000E0FAD0E0FBE8C0E0C0F00223AB5016E901
:10240000F8D083D082D0E0F9D0E0FAD0E0FBC082EF
:10241000C083022532BBFE16E9F8D083D082D0E01B
:10242000F9D0E0FAD0E0FBC082C08302254422BB91
:10243000010DE58229F582E5833AF5830223A25056
:1024400007E92582F8022529BBFE07E92582F80263
:10245000253BE58229F582E5833AF5830223B4BB67
:102460000120E58229F582E5833AF583D0F0D0E0BA
:10247000F8D0E0F9D0E0FAD0E0FBE8C0E0C0F0022C
:1024800023AB5018E92582F8D083D082D0E0F9D070
:10249000E0FAD0E0FBC082C083022532BBFE18E91F
:1024A0002582F8D083D082D0E0F9D0E0FAD0E0FBEA
:1024B000C082C08302254422D083D082F8E4937086
:1024C00012740193700DA3A393F8740193F582889D
:1024D00083E4737402936860EFA3A3A380DF8A830D
:1024E0008982E473EC8EF0A4CCC5F0CCCDF8EFA4D7
:1024F000CEC5F02DFDE43CFCE8A42EC8C5F03DFDA2
:10250000E43CFCEFA4FFE5F028FEE43DFDE43CFCE8
:1025100022ECF608EDF608EEF608EFF622ECF208EB
:10252000EDF208EEF208EFF222E6FB08E6FA08E622
:10253000F922EBF608EAF608E9F622E2FB08E2FAED
:1025400008E2F922EBF208EAF208E9F2224103E993
:1025500000C136C1394103E800E002020000383C06
:10256000E0020200022FECE004020004465245455E
:10257000E00102001554E001020016A5E0E8022582
:1025800068FEFEFEFEFEFEFEFEFEFEFEFEFEFEFE01
:10259000FEFEFEFEFEFEFEFEFEFEFEFEFEFEFEFE5B
:1025A000FEFEFEFEFEFEFEFEFEFEFEFEFEFEFEFE4B
:1025B000FEFEFEFEFEFEFEFEFEFEFEFEFEFEFEFE3B
:1025C000FEFEFEFEFEFEFEFEFEFEFEFEFEFEFEFE2B
:1025D000FEFEFEFEFEFEFEFEFEFEFEFEFEFEFEFE1B
:1025E000FEFEFEFEFEFEFEFEFEFEFEFEFEFEFEFE0B
:1025F000FEFEFEFEFEFEFEFEFEFEFEFEFEFEFEFEFB
:10260000FEFEFEFEFEFEFEFEFEFEFEFEFEFEFEFEEA
:10261000FEFEFEFEFEFEFEFEFEFEFEFEFEFEFEFEDA
:10262000FEFEFEFEFEFEFEFEFEFEFEFEFEFEFEFECA
:10263000FEFEFEFEFEFEFEFEFEFEFEFEFEFEFEFEBA
:10264000FEFEFEFEFEFEFEFEFEFEFEFEFEFEFEFEAA
:10265000FEFEFEFEFEFEFEFEFEFEFEFEFEFEFEFE9A
:10266000FEFEFEFEFEFEFEFEFEE001022650FFE044
:10267000010226A828E001022FBBFFE005022FE996
:102680002FEC02043D41058306013600410582011D
:1026900041058001C13E013B00013900412E180077
:1026A000412A4D004129EE055D2D47000000000044
:1026B000000000000000000000000000000000001A
:1026C0000000000000000000C1444328C2000000D8
:1026D0004128D600C111C135014400C131C132C108
:1026E0003341318200C164432DB5000000412DB457
:1026F00000412DB800C13AC13CC145412DDC00016B
:102700005B00C129C127412DCE00412DDB0060288F
:1027100026170522000000030008F6877788CF7F80
:10272000C04FFBDFFDE06700808000808680BA0537
:10273000E87300800F000060000041216500412126
:102740007800412168004121610141216B02412152
:10275000630141239D00C1AB412169114121620008
:1027600041239A00C147C148412A5E96412A5A0F27
:10277000E002022FEE0033E00502301C00330405B6
:1027800022E0020230210807E0050238230807058D
:102790000522412F34FF412F2DFF412F3000412FC3
:1027A0003300C165E0020238280013E00C02382A29
:1027B00000000308000300080522043DE00502387C
:1027C000360013FF0522E00202383B000000C2D5AC
:1027D000E830E70FB2D5E4C39BFBE49AFAE499F939
:1027E000E498F8EC30E717B2D51228041221E8E497
:1027F000C39BFBE49AFAE499F9E498F88003122168
:10280000E830D50DE4C39FFFE49EFEE49DFDE49C0B
:10281000FC227890E4F6D8FD9000007F007E10E462
:10282000F0A3DFFCDEFA90318DA3E583C394204052
:1028300011FEAF829020000E0FE48002F0A3DFFCB7
:10284000DEFA12192002186022321A481A4D1A5262
:102850001A571A5C1A611A661A701A751A7A1A7F50
:102860001A8E1A931A9D1AA71ABBC5BB1AC51B1537
:102870001B1A1B1F1B241B291B2E1B331B381B471A
:102880001B511B651B6A1B6F1B7E1B831BBF1BC45D
:102890001BC91D8B1D901D951D9A1D9F1DA41DA953
:1028A0001DAE1DB31DB81DBD1DC21DC71DCC1DD144
:1028B0001DD61DDB1DE01DE51DEA1DEF1DF41DF9F4
:1028C0001DFE0000000000003F241E16110E0B0923
:1028D000070504030201F0C8A79177676046383501
:1028E00032302422201400010102020303040405F3
:1028F00005060607071CF01CFA1CFF1D041D091D18
:102900000E1D181D221D271D451D4A822D1C161344
:102910001110101C821CB41CB91CBE1E301E351EAA
:102920003A5687E4FD7C0CAB050DEB9018F1938FC4
:10293000828E83F00FBF00010EDCEC7F07228F82B6
:102940008E83E4F074043151743D3151A3A3E4F05B
:1029500022A3F08F828E83A3229003F47402F0905E
:1029600003E8E0FF121E129003F47405F02275FFD5
:102970000275E404E4F5E41112124A499003EAEF07
:10298000F0901200E0B47A14901214E0B49C0D9010
:1029900003EAE0FF64056004EFB4032EE49003F360
:1029A000F09003F3E0FFC394805013E42FF582E42A
:1029B0003412F583E4F09003F3E004F080E3901226
:1029C00000747AF0901214749CF0121C734003127D
:1029D0001C6E7B017A1279107D017F01121C697BCC
:1029E000017A1279117D017F21121C697B017A1213
:1029F00079127D017F22121C697A1279177F0212E7
:102A000053E4901217E0B401057F0112507B121CB1
:102A10001E124A49121C199003EAEFF0121CE6122A
:102A20001C149003EAE0FF121E0DEF24FFB3926422
:102A300075FF0253E6BF12394F121C28F1F82064CB
:102A40000831591259F9121AAC7F01F1A9D2AF20FD
:102A5000640241DC121C781219B7121E08121C64A1
:102A600040F29003E9E06042121C4BEF70051259EE
:102A7000884037E53670FCE53720E503123F7D12CC
:102A80001971EF70FA124A0550051249F150047F8E
:102A90000171CB9003E9E0B40204E4FF80099003E4
:102AA000E9E0B403057F01124B06121C46E53730FE
:102AB000E1A212596B4002E4F0E53720E50571AD63
:102AC0001246A7125930AF82AE83EFC0E071BB90BF
:102AD00003ECE0FDD0E0FF121CD7415412392990DD
:102AE00003E9E06048201A03200942121C4BEF70F2
:102AF000051259884037E53670FCE53720E50312AA
:102B00003F7D121971EF70FA124A0550051249F112
:102B100050047F0171CB9003E9E0B40204E4FF802C
:102B2000099003E9E0B403057F01124B069003E925
:102B3000E0600C201A09300906200203121A8412E0
:102B40001C781219B71244F2121E03203705121C0A
:102B50004680221219CB9003E2E0FEEFC39E4005AF
:102B6000EF9EFF80089003E2E0F4042FFF7401D38E
:102B70009F5002C237E53730E12812596B4002E41A
:102B8000F0E53720E50571AD1246A7125930AF8246
:102B9000AE83EFC0E071BB9003ECE0FDD0E0FF122C
:102BA0001CD7121BF11249E012393A41DC9003EBB9
:102BB000E0FD75F0AA9003F7122396ED75F002A4DC
:102BC00024E4F9740335F0FA7B0122903167EFF0C9
:102BD000902E19E06402702291E2903167E07FABA1
:102BE00060027FB99104B1BA903167E0902E18F07D
:102BF00070047F1EDFFEE4FFB1AC221222FC7808D5
:102C00001222BCE4E5C820E2FB8FEB227F01B1ACCD
:102C10009031667401F0903166E0602EF18F9197EB
:102C2000903166EFF0B1BA9186902E0CEFF0B1BA08
:102C3000903166E05401F1D360DCA3E0F460D7EF9B
:102C400030E7D3E4903166F080CC91E67F9F910429
:102C50009197902E0D9195902E129195902E13EFA5
:102C6000F0B1A8902E0BE0F4601BA3E0F460169086
:102C70002E12E0FD541F240FA3F0EDC4135407449B
:102C800080902E12F02291E67FD791047FFF91046D
:102C9000919B902E0BEFF07FFF9104E5C820E2FBA3
:102CA000AFEB227F01B1AC305614F18F9197903188
:102CB00068EFF0B1BA903168E020E002C2563056B9
:102CC000179186902E0CEFF1D3600BA3E0F4600611
:102CD000EF30E702C256B1BAE4FFB1ACA256E4331A
:102CE000FF227F01B1AC902E10E01224B82D090410
:102CF0002D11142D16152D1B172D2B302D30342D85
:102D000035362D3A3700002D23531CEF851C80806B
:102D10002F531DEF8008531DDF8003531D7F851D3A
:102D200090801D531EDF851EA08015531FFE800D51
:102D3000531FEF8008531FBF8003531F7F851FB0B1
:102D40007F0CDFFE22902EEE122359902EF21223DA
:102D5000ABF16691A3EF6004F17580F7F12E600A84
:102D6000902EEE1222FC78109100902EEE71FB90C6
:102D70002EEE1222FCE48021902EF5F1E4601E90EC
:102D80002EF21259576010902EF2123D88FF9104D6
:102D9000902EF3F1CC80E1E4FF910480DBB1A890A8
:102DA0002E0F7401F0229104B1BAE4FFEFB40104D4
:102DB00043FE202253FEDF229104F1F2EF70FB90DC
:102DC0002E12E0F4600A9031657406F0F19570FC03
:102DD000902E10E01224B82DF3042DFB142E0015B4
:102DE0002E05172E15302E1A342E1F362E2437009E
:102DF000002E0D431C10851C80802F431D10800861
:102E0000431D208003431D80851D90801D431E208F
:102E1000851EA08015431F01800D431F10800843AD
:102E20001F408003431F80851FB0903165740CF0F4
:102E3000F19570FC229030271223599030271222EE
:102E4000FCD17E90302BE06F6032F16691A3EF6091
:102E500004F17580F7F12E600A9030271222FC7879
:102E600010910090302771FB903027F18990302B22
:102E7000E0FFB1A6902E0F7401F0D322C322903050
:102E800022122359F16691A3EF6004F17580F79146
:102E9000E27F03F143600A9030221222FC78109105
:102EA0000090302271FB903022F18991979030266A
:102EB000EFF0B1A8903026E0FF22F16691A3EF6019
:102EC00004F17580F77F01B1ACD25691E67F06B16F
:102ED000B891E67F0191047F03B1B8E4FFA1AC9003
:102EE0002EF7122359902EFB1223ABF16691A3EF1C
:102EF0006004F17580F791E27F03F143600A902E40
:102F0000F71222FC78109100902EF771FB902EF7AB
:102F1000F189902EFEF1E4600F9197902EFB1259EB
:102F20003E902EFCF1CC80EAB1BAE4FFA1AC7F0167
:102F3000B1ACD25691E67F069104B1BA91E6902EDB
:102F40000EE0FF9104902E11E0640222902E0BE01F
:102F500020E01291E27F3D91047F2A91047F8091CD
:102F6000047FA6B1A62275FF02E5E430E10675E410
:102F70000675E40322E53730E20EE53720E509E582
:102F80003730E0047F01F1A9221222FCE481049190
:102F9000E67F058104903165E014F0E022F166914E
:102FA000A3EF6004F17580F722EF600D71ADAF8281
:102FB000AE83E4FD1246AD80103036037F0022124E
:102FC0001C5A123F7DE433FF227F0122E475F00199
:102FD0000220A2F0902E0BE0FFF422C2AFEFF452D9
:102FE00037D2AF2274FFF5F01220B845F022E4FF8B
:102FF000A1ACE5C85404FF2212520E121C3C121C54
:10300000DC121C7D9003EAE0640170030230C47F8F
:10301000FF1219A89006101223AB7E007F15313ED7
:10302000BF540D7E007F16313EBFA5047F01800294
:103030007F009003E8EFF06401705F9006101223A8
:10304000A2AE02AF017A06791674021254409006BD
:1030500016E0FEA3E0FF9006101223A2C3E99FF939
:10306000EA9EFAE92407F9E43AFA9006131223AB30
:10307000E92408F9E43AFEAF017B017A0679167477
:1030800002125433900616E064057004A3E0642233
:1030900060081219AD9003E8EFF09003E8E07024A7
:1030A0007E007F10C006C3743C9410FE74389400F8
:1030B000902F8AF0A3CEF0123FBBD006F1EAE4FFD6
:1030C000FE1219B2121B5B121A98121A1B1249B97E
:1030D00030640575540180391258F7121976123987
:1030E00008FE4FFDA3E0FC4DFDA3E0FB4D600BEEA1
:1030F0005FFFEC5FFFEB5FF470031238A6E55454FA
:103100000324EDF582E43403F583E065549003E392
:10311000F0E4902EEDF0902EEBF0A3F0021807757E
:10312000FF0275E40475E40175E4022290288FE043
:1031300075F016A424E9F9741F35F0FEAF01E4FC24
:10314000FD022E7E9030CDE075F005A4242EF9749A
:103150002B35F0FEAF017B017A2D793D902F8AE46B
:10316000F0A37405F0902F87125439C007902F8771
:103170001223A2902F8A12595ED00751761223ABE8
:10318000902E6C1223A2902E6F1255CB902E6812A7
:1031900022FC1254675002413512599B902E68123E
:1031A000231812227A902E71EEF0A3EFF04E6036C3
:1031B000902E7151891259BC902E71F0A3EFF090AE
:1031C0002E6FE0FCA3E0FDD39FEC9E5006A3ECF035
:1031D000A3EDF051371223A2E94A600451808048E0
:1031E0007E007F008042902E6FE0FEA3E0FF4E60E5
:1031F00042902E14E0FCA3E0FDD3EF9DEE9C400A2C
:10320000902E71ECF0A3EDF0800D902E6FE0FFA3F7
:10321000E0A3CFF0A3EFF051371223A2E94A6004F4
:10322000518080047E007F00902E6DEE8FF0122082
:10323000A280B3D322C322902E6C1223A2902E71AF
:10324000E0FFA3E0902EF5CFF0A3EFF0902E6812F0
:1032500022FC122D45902E71E0FEA3E0FFC3902EBC
:1032600070E09FF0902E6FE09EF0902E6812231871
:10327000E4FCFD122150902E68122359902E6C22EE
:10328000902E71E0FEA3E0FF22E0FEA3E0FFC32248
:10329000902DE5122359E4F5FF75BB0575BB8575C7
:1032A000FF0175D5022050087F3FFEF183123FCC0D
:1032B00075FF0143D5203050026154E4F5FF538E71
:1032C000F7438E077D04E4F5FF8DBCF5FF43B102A3
:1032D000E5B130E2FBE4F5FFAFDFEFFEACDEECFB87
:1032E000EBFFED25E024E3F582E4342DF583F1E3F3
:1032F000F5FFF5FF53B1FD0DEDB40CCA902DE5912E
:10330000F2FF78091222BCA3F1E3FDED25E024EDE4
:10331000F582E4342DF583E0C313FAA3E013FBED4B
:10332000F1D71250732BFFEE3AFEEDF1D7EEF0A37A
:10333000EFF0ED240490120DF0EDC394075015CF7B
:10334000EDCF0DEFF1D75189902DEAE09F902DE957
:10335000E09E50B7E4F5FF758EC8F5FF90120DE0C2
:10336000F5BCE4F5FF75BB8075FF01F5D522902D06
:103370008112235975FF0243E180124C3C124EBF6B
:10338000902D96122365002DC6C0E4F5FFF5A4909C
:10339000120EF0A3F0902D917402F0125ACBFFF5AB
:1033A00095EF14601314601C24027027902D8191F6
:1033B000F2F190902D8D8016902D8591F2F19090E4
:1033C0002D8E800A902D8991F2F190902D8FE090B2
:1033D0002D9AF0124EE5902D9AE0700FF5FFF596BC
:1033E00075FF0175D70975F418805B90120EE00423
:1033F000F0902D91E0125AC3902D9691F2FF902DEE
:1034000092124F9AC31222AB500A902D9291F2FF62
:10341000A3122359902D9AE0FF124D40902D90E079
:10342000FFA3E0FDA2539251124E6DA391F2FF90C3
:10343000301E122359902D91E0FF124EF2902D91E3
:1034400091E4FF124C00125A646002619B7402F016
:10345000125ACBF595E5F454077024FF7E04FDFC69
:10346000902D96124F9AD14C78011222BC902D913A
:10347000E0FB124F8C122359EB91E5FF124C001226
:103480005A6470CC75FF03759580125ABB40034394
:10349000F420A2539252124D9F902D9691F2242027
:1034A000FFEE344ED15EE4FB7A04F9F8D14C78019A
:1034B0001222BCC2505190E4F5FFE5BD54F844041B
:1034C000F5BD9012137401F07E127F01E4FD8F822E
:1034D0008E83EF2D125AB3FC901213E02CF00DEDF9
:1034E000B412EB22E025E025E02401F582E4341259
:1034F000F583E0FCA3E0FDA3E0FEA3E022902E5DB7
:10350000124D37902E6312236500000001902E6744
:103510007401F0F5FFE5D554C070051239F850027A
:10352000C322E4F5FF53967F75FF0175D5047F3FF5
:10353000FEF18375FF0143D508E4F5FF5394FBF5D5
:10354000FF53847FF5FF7598FF902E61E5F4F075C9
:10355000F49C75FF01A3E5E4F075E4257B017A2E68
:103560007967124D04902E67E064016002C12AF56C
:10357000FF902E607414F0902E6391F2FF78011288
:1035800022CF902E63122359E5A730E1FB43A70217
:10359000902E6391F2FFE5A730E005E47B01800205
:1035A000E4FBFAF9F8EF4BFFEE4AFEED49FDEC487B
:1035B000FC902E63122359902E60E014F070B890A6
:1035C0002E6391F2FF78101222BC7B6D7A4E79C681
:1035D000784112215DEF2439FFEE3430D15EE4FBF7
:1035E000FA7901F81221E8EE547FFEE4FDFC124264
:1035F0005C902E6391F2FFEB6FFFEA6EFEE8CDEF79
:10360000CDCCEECCECFF902E5D123EE3EF121FD13D
:10361000902E5D123EE3900001ED121FE390120F19
:10362000E030E606E4F5FF75968075FF01E4F5D518
:10363000902E61E0F5F475FF01A3E0F5E4124D8EE4
:10364000902E67E0B40103D38001C32212215DE410
:103650007B7DFAF9F81221E8EF2401FFE43EFEE455
:103660003DFDE43CFC22902F7E125913EBF0902F8D
:10367000847401F0C2547FE87E03F177F19E500517
:10368000E5FC20E6F7F1A9BF0108E4F5FC75FC4074
:103690008007F1A9BF0202D32275FF0153D8EF9032
:1036A0002F7FE0FF124FA675FF0153D5DF53FAFBC2
:1036B000902F7EE0FF123F61902F7FE0902F7EB42D
:1036C000080891E42452D15B800391E4FF124C007E
:1036D000902F80E0FF124FD075FF0175FF03759B9F
:1036E00004124CB0F17A75FC42E5FC20E104F19E35
:1036F00040F4902F81E0F075FF03E59B20E704F193
:103700009E40F4E59B20E70D75FF03759B1F124C4F
:103710003CD254804FF197124D04902F7FE0FD90E2
:10372000120FE05D701C902F7EE0FFF1971240C3F6
:1037300090120FE0FF902F7FE0FEEF4E90120FF0FF
:1037400091C2123FCC7B017A2F7982124CE6500F46
:10375000C3902F83E09420902F82E0940340E6F101
:1037600097124C58F187305402C16E902F84E0B408
:103770000103D38001C322124CB475FF034391802F
:10378000227E00F1F1F17A75FF03E59120E7FB223B
:10379000FF902D920223597B017A2F79842275FFA5
:1037A00003E591C330E701D3227FFA7E00F1F1F106
:1037B0007AE5FC30E604F19E40F7E5FC30E6037F55
:1037C000032275FF01E5D530E6037F0222E5D57FB0
:1037D0000030E7027F012225E024EBF582E4342D5E
:1037E000F58322EEF0A3EFF0E422316574FFFDFCD7
:1037F0002275FF03D3EF9402EE9400400874FE2F6D
:10380000FF74FF3EFEEFF592EE540FF5912275FF27
:103810000275E404E4F5E422A2499236229006916E
:10382000EDF0900690EFF0BF0411A3E0FB7D017F67
:1038300001115D9006907403F0800B900691E0FBFF
:103840007D01E4FF115D900690E09003E9F0D2095C
:103850001219CB9003F5EEF0A3EFF0D322EB600842
:1038600075FF0153CDFD800675FF0143CD02ED606C
:103870000553FBDF800343FB20EF600775FF024326
:10388000E1402275FF0253E1BF229003F1E0FCA367
:10389000E04C70059003F180BDC32275FF028FE3F9
:1038A00022A24A923922E4FF122FA9EF603A11F3C3
:1038B0001234FD5004310040F57B017A0379EF1298
:1038C00034FD500E31085FFFA3E05FFFA3E05FF41B
:1038D00060E77F01122FA97554017E007F0811F364
:1038E000902F8AE4F0A311FA22F9E43AFA902FA576
:1038F0001223AB7B017A0379ED227404F002316567
:103900009003EDE0C394C0229003EDE0FFA3E0221A
:103910009003E3E064AA2411FFF022AE073110EE19
:1039200004FEEF8EF084AFF02230380D121A43EF10
:103930006007C25D121A2FC238229003F1E0FEA385
:10394000E0FF4E6009CAEECAC9EFC91224DE227533
:10395000FF02D2ADD2BD75FF02758E717555097526
:10396000FF02E58E546F4480F58E9030541223652B
:103970000000000022C0E0C0F0C083C082C0D0754B
:10398000D008C0FF75FF02E58E30E43A75FF02E50E
:103990008E54EF4410F58E9030541222FC1236589B
:1039A000903054122359900000122FCCE55530E08E
:1039B000020545E555700D7555090551E551700233
:1039C00005508002155575FF02E58530E40875FF46
:1039D000024385100559D0FFD0D0D082D083D0F0DB
:1039E000D0E03231F85007124FD650028001C32286
:1039F000C2EBA2ED923DC2EDE5F4C330E701D32264
:103A000090065C1223ABD24CC2EBE536600261ED4E
:103A1000E53730E202C32271F624EEF9E43AFAE423
:103A2000121FD1124967A2ED923DC2ED910E546072
:103A3000604471F62403910720E13B902FC9E064B4
:103A400004603371F624BB910771F524E2F9E43A7E
:103A5000FAEF121FD1902FC8740FF090065C12235A
:103A6000A2902FC5F1B8F1EC902FC97405F0911E0A
:103A7000A23D92EDD322B185540FFFBF0111E9247D
:103A8000EF9107700A901215E090065FF0800E909B
:103A9000065C1223A2121CE190065FEFF0E53720CE
:103AA000E05B31F840057F01122FA990065F7A068E
:103AB0007960D123E43371F524EFF9E43AFA740123
:103AC000121F7CEF7002803190065FE0FFF1C2E0D0
:103AD000FE900660E0D39E4004B17EC32271FEFDDD
:103AE000B185FB12480E900660EFF0E0FF7006D241
:103AF000EBD21D61CFEFB40204D2EB61CF910E5433
:103B000060600E71F62403910720E105E4902FC94F
:103B1000F031F85004C255B1DAF10CE5D120E0FBE8
:103B2000E4F53071F62408F9E43ACFE9CFF5318FA6
:103B30003271F624B19107F538AE3112561871F68C
:103B400024B1910771F524E191072FFFE433FEEFD3
:103B50002401FFE43EFE71FE124252500574011230
:103B60001F7C71F624B2F9E43A8B40F54189427129
:103B7000F624E19107F543910E5407900582F07504
:103B8000360871F6B16412476471F624E19107FFBB
:103B9000AD381256347B01E4FDFF1255E4E4F5FF25
:103BA000E5D25480440CF5D290065FE0FF71FE240C
:103BB00018FBE433FA7D031248B1910EFFAEF0A278
:103BC0004C924B90065FE090067DF0B18E4006A2CD
:103BD0003D92EDC32290065FE071F524F2F9E43ADC
:103BE000FAEF121FD1A23D92EDD2EBD322A23D9269
:103BF000EDD2EBC322FF90065C1223A2E9229006CD
:103C00005C1223A2E924B9F9E43AFA021F369006BD
:103C10005C1223A2E92404F9E43AFA0220CE902FA0
:103C2000C9E024FC7002A13B147002A1341470029C
:103C3000A11E147002A14324066002A15DE5366056
:103C400002A15DC2EBB15E121CE190312AEFF0E5FA
:103C50003730E002A11BF1A960057F01122FA99066
:103C6000312A7A31792BD1234004D2EBA16B9031E8
:103C70002AE0F1C2E0FF90312BE0D39F4002A17E09
:103C8000902FC8E0640F702990312AE0FF902FC573
:103C90009101FD902FC5B188FB12480E90312BEF9A
:103CA000F0E0FF7005D2EBD21D22EFB40203D2EB9D
:103CB00022D1F8B15EE924E29107FF902FC591115E
:103CC000FDACF0E4FB12478CC24B90312AE0900629
:103CD0007DF0E4FFFEB18E503FD2EB902FC974020D
:103CE000F01247AD7E00E4FCFD7BD07A127913F828
:103CF00012215DE47BE87A03F9F81227CEAB07AA1C
:103D00000690312AE0FF7D031248B17E497FC77DCE
:103D1000147C00121C968003D2EB22D2EB22E537F2
:103D200020E50AE53730E0057F01122FA9902FC961
:103D30007403F022902FC97401F022121C8CB15E22
:103D4000021C5F1245E6D21DB15E902DB5F1B89010
:103D50002FC51223ABE4902FC9F0121CAF22902F75
:103D6000C50223A224B2F9E43AFA22C390058AE0FC
:103D700094FF900589E094FF5003122FCC22D2EBE0
:103D8000B16BD21D2290065C1223A2021F3643376C
:103D9000015337DF90067DE0FD12405390067DE031
:103DA000FD1246844004E4F5362243FA045337FBFF
:103DB000304B04F157800A7F55B1C37F55B1C3D250
:103DC000EBD32275FF01E5D520E602C322E5FA54C4
:103DD0000360FA75FF018FC3D322903164E5F4F0DC
:103DE000E0547FF5F47F827E0012377712379E50C1
:103DF00005E5FC20E6F6305508903164E04480F596
:103E0000F4124CB012377A12379E5005E5FC20E6CA
:103E1000F675FF01E5D520E702C322E5F4D330E6CD
:103E200001C322E0FF7B01903068EFF0A3124D3711
:103E300075FF01F1A96002C322E5F430E602C32256
:103E40007FE87E031237F112377AF118400122C25F
:103E500055B1DA903068E0FFF16153F4DFD255B12B
:103E6000DA7F787E00D1A075FF0153E4BFE5E4302E
:103E7000E7FB1245C37F8AF1B030E605D1E0E4806C
:103E80000775FF01D1E0E5D9121FD175FF0143E4A9
:103E900040125ABB400343F420F118400122D322C0
:103EA000CDEFCDCCEECCD1ECAB94EF4B124CFCCBA8
:103EB000EFCBFAE59130E719D1EFA994E9F582EF5C
:103EC0004582FFEB125A75C3EF9582E5F09583406A
:103ED000E2E59120E709CEECCECFEDCF1237832279
:103EE000903069E0FBA3E0FAA3E0F92275FF03AF8D
:103EF00093EF75F010A4FF22E53720E507F108E500
:103F0000D120E0FBE4F53022C255B1DAE4F5FFE55B
:103F1000D154FE4402F5D122E5F730E510E5F7541F
:103F2000C0700512379E40F0124B24C322D322F1F9
:103F300008E5D120E0FBE4F5FF75D9081247705081
:103F400005E004FF80027F00F152D255B1DAE4F5BA
:103F50003022F16143FA04E4F5FF53D1FD43D1016E
:103F60002275FF01E5D530E602C322E4F5FF439A4E
:103F700080EF125AC3E4F5FF539A7FD322E53670DF
:103F80002631F05004C255B1DA124C3C7F08121EA3
:103F90002BF10CE5D120E0FB4337205337FEE4F54D
:103FA00030A23D92EDD322C3221237A9EF64012241
:103FB000FED1A090120FE0221223AB7B007A007991
:103FC00000222460F582E43405F58322E4F5FF75D0
:103FD000C2E17F1EF1B030E707E4F5FF75C2A12210
:103FE000E4F5FF75C28122E4F5368091902DB5028B
:103FF00023ABAF36EFC36001D322EFC3940E50055D
:10400000900583EFF022E539540FFF22E539C39480
:10401000F0501F5339F01135FE740FC39F4005EE69
:10402000940E400543390D8003EF4239E539540FB2
:10403000FF227F0022E539C4540FFEEF9028E6935B
:104040002E221135FFC3940E40027F0DEF9028C839
:1040500093FF22EF30E30774332DF8E6FF22743D1F
:104060002DF8E6FD203E04EE30E00BE539C394F078
:10407000502011958018E53B6006FDE4F53B801269
:10408000E539C394F0500BE539540FFF6004114239
:10409000AD07AF0522900583E0FDFFC3740E11BC90
:1040A000EFC4F8540FC868FFEEC454F048FEE53979
:1040B00054F0C351537F005002AF05229FFFE49498
:1040C00000FE22903064EDF0901211E0F46005A340
:1040D000E0B4FF0C9030667418F0A37413F08010F5
:1040E000901211E0903066F0901212E0903067F07C
:1040F000121F3664016002412C903064E0FE6408B7
:104100006004EEB404089030657428F080069030A6
:1041100065743AF0EF1234E5FF122287E4512DEF77
:1041200024D8FFEE343FFEED3493FDEC3416FC7BD7
:10413000007A80790378001227CE515C903067E0D6
:10414000FF903066E0C311BCE4FCFD12215DECC0C1
:10415000E0EDC0E0EEC0E0EFC0E0903067E0FFE4EB
:10416000FCFDFE512DD0E0FBD0E0FAD0E0F9D0E02C
:10417000F8EB2FFBEA3EFAE93DF9E83CF8903065B0
:10418000E0FFE4FCFDFE12215DEF2454FFEE340B52
:1041900012365EE47BA87A16F9F81227CECBEFCB65
:1041A000903064E014605D14601B24FE600C24FCFD
:1041B000707AE4F5FF75CE318006E4F5FF75CE2107
:1041C000F5FF8BCF22E4FAE4F5FFEA2440F5CEE4D4
:1041D000F5FFEAFFC3740711BC740B2FF582742935
:1041E0003EF583E45135C39DF5CFE4F5FFEA24485D
:1041F000F5CEE4F5FFEA90290B51352DF5CF0AEA0B
:10420000B408C422E4F5FF75CE01F5FF8BCFF5FFAE
:1042100075CE0EF5FFEB25E0F5CFE4F5FF75CE0F7B
:10422000F5FFCFEBCFEB75F003A4F5CF227B64FA5B
:10423000F9F802215D9325E0FDE433FCEB75F01005
:10424000A4FFAEF0122017CDEFCDEBFFE4C313EFC8
:104250001322D39FEE6480F874809822C8ECC8C9FA
:10426000EDC9CAEECACBEFCB229003F4E064027032
:104270001F8F3DAF058F3EAF038F3F900623E0F5C4
:1042800033A3E0F534A3E0F535AF3D121C23D32270
:10429000C3229006781223AB51CAE53D51C7E951BC
:1042A000D0E53E121FD1900678B1CDE53F51C791C0
:1042B000D5E53351C791CDE53451C7E92405F9E47B
:1042C0003AFAE535021FD1121FD19006780223A2D7
:1042D0002401F9E43AFA22C0E0C0F0C083C082C0F1
:1042E000D075D008C0FF75FF01E5D530E6047F0228
:1042F0008009E5D57F0030E7027F018F3AE53A6417
:104300000260026195E5361224B843230143360268
:10431000438208434109434C0A435A0B43770C003C
:1043200000449075FF0175C355153CE53C60028162
:1043300090753602819075FF0175C3F0753609815D
:104340009075FF0175C35575360A819075FF019010
:104350000595E0F5C375360B819075FF01900581D9
:10436000E0F5C3753601753C089005A491DD600247
:10437000819075360C8190902FC97406F0753600C7
:104380008190C2EB753600433704B1D8400281906A
:10439000122FCC8190E53A64016002819091C64071
:1043A000028190E530704491B8E5D9121FD191ACEB
:1043B000E090069AF0D102B1EE900580EFF0900601
:1043C0009AE0FFD39409404FEFD394AA400280476C
:1043D00090069AE0F53891E7901215EFF075FF001E
:1043E00090069AE0F5D97530038190E5306403605A
:1043F00002819091B8E951D0E5D9121FD175FF0023
:10440000E5D330E017C3900590E094FF90058FE06E
:1044100094FF5003122FCC123F2F8074C255123DCF
:10442000DA75FF00123F0FE5D120E0FBC2EB433706
:104430000291A4E0FF9003EEE0FEEF6EFF85328272
:10444000853183E09003ED919DA3E09003EF919D72
:10445000A3A3E0FE9003F0E0FDEE6D4F6012C39069
:104460000592E094FF900591E094FF5003122FCC49
:10447000C390058CE094FF90058BE094FF500312ED
:104480002FCC753000153891ACE538F09003ECF086
:10449000D0FFD0D0D082D083D0F0D0E032FEE0FD8B
:1044A000EE6D4FFF853282853183A322E5322407EA
:1044B000F582E43531F5832275FF01F5EA75EAFFEF
:1044C0009005840223A2E5F754C024FF22E92404C6
:1044D000F9E43AFA22E92403F9E43AFA2274FFF5FE
:1044E000F01220A245F022E5F45418131313541FC0
:1044F000FF22123FA9706E91E790312CEFF0D39418
:10450000035062902EEDE0FF90312CE06F7056B1B9
:104510008890312DEFF07B017A31792D7D01121CCD
:10452000D290312CE024E8F582E4342EF583EFF0CC
:10453000902EEDE0B1B47C007D03122017AF05EFA3
:10454000F07022902EEBE07002A3E060187B017AFD
:104550002E79E5B1667B017A2E79E5902EEBB1BB21
:104560008E831224E222C003C002C0017B017A2E96
:1045700079E8B182D001D002D0037F0302199912E9
:1045800023A2902F9E0223ABE4FFE5F754C0600204
:10459000801675FF01E5D530E30DB1AD50F4B1A83B
:1045A000EF60EFB1AD50EB22B1C3AFD92275FF017F
:1045B000E5E433222401FFE433FE22E0FEA3E0FF22
:1045C000F5822275FF01E4F5EA75EAFF221223A2C3
:1045D000E92402F9E43AFA22C3900588E094FF90B6
:1045E0000587E094FF22B1D85003122FCC22EF248C
:1045F000FE600C24FE600580007F01227F02227F86
:104600000322E5F75406FFBF06037F0822E5F754AF
:1046100006FFBF04037F0422E5F75406FFBF020331
:104620007F02227F0122A2EB924EC2EBEBC0E0EAB6
:10463000C0E0E9C0E07B017A057987B182D0E0F97A
:10464000D0E0FAD0E0FB7F0C121999A24E92EB2237
:10465000E53954F0C4540F2FFFC3941040027F0F6C
:10466000EF9028D693FF227E10EE60091EEE902870
:10467000D693B507F4EEC3940E40027E0DEE90285B
:10468000C893FF22900692EDF0A3EFF07F01121E77
:104690002B900692E0FFA3E0FBE4902F81F07D02D7
:1046A00012366650ECD322AF82AE837D019006268F
:1046B000F152E536707A1239F05005C255123DDAE2
:1046C000900626E0FEA3E08E31F532A31223A290DD
:1046D00005841223ABAE31AF327DAAF131E4F5FF90
:1046E00075D908F530E5375421602CE53730E505FC
:1046F000E4FF123F61E490062BF090062BE004F0FB
:10470000124B2BEF600990062BE0C3941040EB7F17
:1047100002121E2B5337DEF1705005E004FF8002B9
:104720007F00123F52D255123DDAD2EBA23D92EDFC
:1047300022E4F5FF75D102E5D120E0FBE4F5D1F5E7
:10474000FFEFF15BEE540F42D6E4F5FFCFEDCF8FD4
:10475000D422EEF0A3EFF0A30223ABF5D7E4F5FFEC
:1047600053D6F022E4F5FFE9F15BEA540F42D6227A
:10477000901215E02401FFE433FEC3EF9403EE64CE
:1047800080948022C2AFEF4237D2AF2275360175D6
:104790003C07900595EFF09005827403F0C374799F
:1047A0009B9005A5F0E494009005A4F0229005A448
:1047B000E0A3E0FF229006611223AB900664EDF0C7
:1047C000E4A3F0ED54FE900664F0602CE4FF122F99
:1047D000A9BF01249006611223A21234FD50199042
:1047E0000662125AAC900665E02402F0900665E07D
:1047F000FF900664E06F70DC7F01122FA9900665C0
:10480000E0FF227D021247B5EFC36001D32290067C
:1048100094EFF0A3EBF0900694E0119BE0FEB4025D
:10482000037F0022EE701C900694E0FF119B740140
:10483000F0900593E0FCA3E0FDEF11A5ECF0A3EDF3
:10484000F0802AED241BFFE433FEE4FCFD7B0CFA30
:10485000F9F81227CEEF2405FF900694E011A5E0A9
:10486000FCA3E0C39FEC940050037F0022902BC672
:10487000E0B4FF15900695E0540FFFBF0103E480FC
:10488000049005A3E0902BC6F0902BC6E060037F58
:104890000222902BC674FFF07F01222415F582E4DA
:1048A000342BF5832225E024C0F582E4342BF583F4
:1048B0002290067EEFF0ED24FE601914602624029B
:1048C000703BEB2402FFE43AFE7C007D5012200591
:1048D0007D60801E3121C333CE33CED8F9FF7C00FA
:1048E0007D28800E3121C333CE33CED8F9FF7C0032
:1048F0007D6412201790067FEEF0A3EFF090067E05
:10490000E03132C083C082122318900680E0240177
:10491000FF90067FE03400FE312CD082D08302234A
:1049200059EB2401FFE43AFEEF780322E4FCFD0298
:10493000215025E025E02497F582E43405F5832213
:10494000EF31321222FC0222E2E4FFFEFDFC900570
:1049500097315E90059B315E90059F02235912238B
:1049600059E4FFFEFDFC229003EDE0F4FFA3E06FAD
:10497000FFA3E06FFFA3E06FFF6455601DEF6405C8
:104980006018EF64256013EF6445600EEF646560A6
:1049900009EF644A6004EFB40A010F900581EFF05B
:1049A00022A2EB924DC2EB7A0579877B017D0CE464
:1049B000FF12196CA24D92EB22E4902FC9F0FBFA82
:1049C000F9902FC50223AB121C8C902FC8E014F075
:1049D0006005A374058005902FC97407F0023C1E82
:1049E000902FC9E0FF64066004EFB40103123C1E7F
:1049F000227F017E009017FCE4935EFE7401935FBA
:104A00004E24FFB322900001740193B40007E49395
:104A1000B41802C322D322902EEBEEF0A3EFF022C3
:104A2000EF7011ED600775FF0143AE012275FF01C4
:104A300053AEFE22EFB40110ED600775FF0143AEE7
:104A4000022275FF0153AEFD2275FF02E5E630E25A
:104A5000037F0322E5E630E3037F0022E5E630E151
:104A6000037F0422E5E67F0530E0027F0122EF604C
:104A70000775FF0253E6BF2275FF0243E64022EFAF
:104A800014600F146014240270188B8075FF018D60
:104A9000FD228B9075FF018DC9228BA075FF018DC2
:104AA000CA22AF038FB075FF01AF058FCB22902FC5
:104AB000781223ABEF1460111460182402701E5199
:104AC000E8E58051EEE5FD801C51E8E59051EEE50A
:104AD000C9801251E8E5A051EEE5CA800851E8E529
:104AE000B051EEE5CB021FD1902F7B0223A2121F03
:104AF000D175FF01902F780223A2E4F5FFAF912238
:104B0000E4F5FFAF922243FB1075FF0243E640EF4E
:104B1000600D75FF02E5E120E7FB43FB0D800343D9
:104B2000FB0E80FE75FF03E4F59122E4903060F007
:104B3000A304F0E4903063F0E5FA30E1FB75FF0187
:104B4000E5D530E7037F0022E4F5FF75E50875FF42
:104B50000153D8EFE5D530E61A75FF01903062E5D4
:104B6000DAF0E4F5DA75FF01E5D630E3FB90306367
:104B70007401F075FF03759B0475FC4175FF03E537
:104B80009B30E7FBE4FB75FF038B95EB1234E5FFED
:104B900091000BEBB403EF75FF03759580E4F5FF0F
:104BA000758EC8123FCC75FF0153D5FB71247F145D
:104BB00012378175FF0143D504903063E0700771AF
:104BC000247FC81237817B017A3079619158903007
:104BD00061E09030607006E04404FF8002E0FF90E6
:104BE0003060EFF090120EE0B4010675FF0143D87B
:104BF0001075FF01903062E0F5DA903060E0FF223E
:104C000090305C12235975FF0190305CA3E0FDA346
:104C1000A3E4FFFEE4FC78101222BC8FE190305C2C
:104C2000A3A3E0FEA3E4FFE4FDFC78081222BC8FFE
:104C3000E290305CA3A3A3E0FF8FE322E5FA30E12A
:104C4000FB75FC8075FF0153D5EFE4F5FC75FC4066
:104C50007124E5FC20E6FB22C24F75FF03759B1F04
:104C600075FF0390120FE020E71BE59A540FC394E1
:104C7000024012E04480F0E4F5FF75C2A143FC0459
:104C800075FF03D24FE5FC30E609E59A540FC39453
:104C90000540CDE5FC30E611E4121FD175FC80F52E
:104CA000FC75FC40E5FC20E6FB304F031234C222C9
:104CB0007FE87E03903058EEF0A3EFF07B017A306E
:104CC000795A91E6501490305AE0FEA3E0FF9030FC
:104CD00059E09F903058E09E400B903058E0FEA382
:104CE000E0FF1237F122123EECAD94EF4D91FC8FB4
:104CF000F0122131E591C330E701D32224FBFFE517
:104D0000F034FF229030C4B1377F017C127D01E482
:104D1000FE8D828C83ED2EF582E43CF583E02FFF3F
:104D20000EEEB412EC901213E06F600A9030C412D1
:104D30003EE3E4121FD122EBF0A3EAF0A3E9F02254
:104D4000EF30E00E43F401E4F5FF43A404F5FF75F2
:104D50009624EF30E10E43F401E4F5FF43A408F597
:104D6000FF759624EF30E20943F402E4F5FF7596EF
:104D70001EEF30E30943F404E4F5FF75961075FF68
:104D800001EF5403600475D7122275D72D22E4F584
:104D9000FF7584E6F5FF439404F5FF75981422E44B
:104DA000F5FF75933F75FF03759A40B18EE4F5FFEB
:104DB000759C93F5FF75A1A3F5FF758531F5FF751A
:104DC0008628E5FA54304480F5FA75FF0175E74A04
:104DD00075FF0275DF4975FF0143D30475FF015369
:104DE000D367E4F5FF53E6BF75FF0175D825F5FFDE
:104DF00075B503F5FF75B215F5FF75BA02F5FF75C8
:104E0000AFB3F5FF75CD0AF5FF75CB08F5FF75CA91
:104E100012F5FF75BF0EF5FF75CC96F5FFF5BDF5E4
:104E2000FF75C281F5FF75AEE1F5FF75DA55F5FF47
:104E300075F580F5FF75E903F5FF75E933F5FF7545
:104E4000972A75FF01759B42759CA4759D29759ED7
:104E500048759F2475A11275A312759AF820520CFB
:104E6000F5FF43968090120FE04440F022CCEFCC47
:104E7000CFEDCF74017E00C8EFC8088005C333CEE4
:104E800033CED8F9FFCDECCDEF5D601B30511875F6
:104E9000FF0175DCAD75FF0175DDCDE4F5FF759A99
:104EA00074F5FF7594842275FF0175DC5375FF015D
:104EB00075DD33E4F5FF759A14F5FF75940422D17E
:104EC000DB53DB7F75FF0175D5027F14123781D16B
:104ED000DB43DB8075FF01E4F5D52275FF01438ECE
:104EE0001075FF012275FF0175E46575FF0175D628
:104EF000472290301DEFF0E4FF7E04FDFCA3F19A01
:104F000012364C78011222BC90301DE0FBF18C125D
:104F10002359901210E064806071E0C3947F50398F
:104F2000EBF18CC083C0821234F2FFEEC0E0EFC020
:104F3000E0901210E075F004A4AEF0FBCAEECAEAED
:104F40003395E0F9F8D0E0FFD0E0FEC3EF9BFFEE31
:104F50009AFEED99FDEC98802A90301DE0F18CC00E
:104F600083C082F19A901210E0F40475F004A4FF5B
:104F7000AEF0EE3395E0FDFCEB2FFFEA3EFEE93D9F
:104F8000FDE83CFCD082D0831223592225E025E0A5
:104F90002401F582E43412F58322E0F8A3E0F9A3BA
:104FA000E0FAA3E0FB2275FF01E5D530E602C3225B
:104FB00053FACFEFB4080543FA308012EFB404057A
:104FC00043FA208009EFB4020543FA108000D3228F
:104FD00075FF018FDA22E5F754E024FF2290306C50
:104FE000125910EBF012505CAC00AD01AE02AF03F1
:104FF000C006C00790306C125073FBAA06E4F9F8A3
:10500000D007D006D31222957E0050047F01800283
:105010007F00C006C007115CD0E02FFFD0E03E90BB
:10502000306CF0A3EFF053ECFC90306CE0FCA3E0AC
:10503000FDEC540342EC75FF02EDF5AF75ED027522
:10504000ED04A3E0600543EC08800353ECF79030D7
:105050006FE0600443EC042253ECFB2290306CE0E0
:10506000FEA3E0FBAA06E4F9F87F807E387D01FC10
:105070000227CEE0C313FEA3E01322EF600775FF03
:105080000243E6102275FF0253E6EF2275ED04227B
:10509000C0E0C0F0C083C082C0D075D000C000C0E6
:1050A00001C002C003C004C005C006C007C0FF3174
:1050B0007FEF6027118C311EE54AC39420400375B1
:1050C0004A00E54EC39420500FAE4A054A749D2E07
:1050D000318BEFF0054E8003754E203179EF602162
:1050E0003175E54FD394004018E54D942040037589
:1050F0004D00AF4D054D74BD2F316DE0FF312115D1
:105100004FD0FFD007D006D005D004D003D002D0B6
:1051100001D000D0D0D082D083D0F0D0E032AFEF39
:10512000228FEF2290318DEFF0E54FC394204005A0
:10513000122F7580F4E54BC394204003E4F54BC275
:10514000AC3185EF700DE54F700990318DE0FF3186
:1051500021801290318DE0FFAE4B054B74BD2E3196
:105160006DEFF0054FD2AC7F0122312422F582E4AD
:10517000342CF5832275ED0222E5ED5402FF22E581
:10518000ED5404FF22E5ED5401FF22F582E4342CB6
:10519000F58322C2AC3185EF7004E54F60047F01D6
:1051A00080027F00D2AC22E54CC394204003E4F59A
:1051B0004CAF4C054C749D2F318BE0FFC2ACE54EDB
:1051C000D394004002154ED2AC22E5ED30E2FB75DF
:1051D000ED04AFEF22E5ED20E0FB8FEF22EF60045E
:1051E00043EC042253ECFB22EF600443EC0822530F
:1051F000ECF722902E0DE0121FD1902E12E09000BD
:1052000001121FE3902E13E0900002021FE37B01C6
:105210007A2E79107D017F03121C697A2E79197F0D
:105220000871E47A2E79167F0971D37A2E79147F6A
:105230000B71D3902E14E0FEA3E0FF4E6006BEFF7C
:105240001BBFFF18902E19E024FD60030470047149
:10525000DA8009902E14E4F0A37440F0902E19E047
:1052600024FD6003047008902E117403F0800690F2
:105270002E117402F0902E10E01224B852980452AD
:10528000A31452AB1552B31752C93052D13452D96C
:105290003652E137000052BE75FF015318EF8518F2
:1052A000FD804775FF015319EF800E75FF015319FB
:1052B000DF800675FF0153197F8519C9802C75FFA2
:1052C00001531ADF851ACA802175FF01531BFE8026
:1052D0001675FF01531BEF800E75FF01531BBF8036
:1052E0000675FF01531B7F851BCB122DBA7F1171F1
:1052F000C5E4FF122BCB122C0C902E0E7402F090F2
:105300002E12E0247F600904701671CB740A8007A6
:10531000122F4C71CB7458F0902E117403F071DA87
:10532000902E13E0F4600261C2902E16E0FEA3E01E
:10533000FF64104E7006902E13740EF0EF64204E32
:105340007006902E13740FF0EF64404E7006902E8E
:10535000137410F0EF64804E7006902E137411F0E9
:10536000E4B5070AEEB40106902E137412F0E4B50A
:10537000070AEEB40206902E137413F0E4B5070A80
:10538000EEB40406902E137414F0E4B5070AEEB4DC
:105390000806902E137415F0E4B5070AEEB4100653
:1053A000902E137416F0E4B5070AEEB42006902E82
:1053B000137417F0E4B5070AEEB44006902E137488
:1053C00018F0022EBAEF4420F5FE227F1071C5902E
:1053D0002E0E227B017D02021C69902E147401F0B6
:1053E000A3E4F0227B017D01021C697E267FAAE4F2
:1053F000FDAB05E4FCFD90302BEBF0022E35903038
:10540000CDE075F005A4242EF9742B35F0FEAF0124
:105410007B017A2D7942902FCF7405F0902FCC919B
:1054200039C007902FCC1223A2902FCF9148D007DC
:10543000022EDF902FCFF080E31223ABE4FCFD229D
:105440007B01902FCFF080D4E0FF902EFEE4F0A3FC
:10545000EFF022902F8E9139C007902F8E1223A249
:10546000902F91B1CBD007902D14122359902D1865
:105470001223ABE4902D3BF0D3902D1CE0941E90B2
:105480002D1BE094004001227B017A2D791D902D87
:105490001BB1BE902D141222FC122EDF902D18127B
:1054A00023A2E94A600B902D3BE0F58291E2FF8058
:1054B000027F00902D3BE0241DF582E4342DF5831E
:1054C000E06F6002C322902D3BE004FFF0D3902DEB
:1054D0001CE09F902D1BE0940050C1221223A21EBD
:1054E0008E82758300021F4F903012B159E58F20D4
:1054F000E0FBB160E4FF9030121223A28F8291E2B0
:10550000F5930FEFB410EFE4FF9030151223A28F44
:105510008291E2F5940FEFB410EF22902F36B1593B
:10552000E58F20E0FBB1607E10902F3991DCF59380
:10553000EE70F67E10902F3691DCF594EE70F67FCB
:1055400001B170B1B5EF70FB7E10902F3C1223A219
:105550001E8E82B187EE70F2221223AB75FF0122FC
:1055600075FF01538F0675FF01538FF075FF012200
:10557000EFB40107B1A64401F58F2275FF01E58F55
:1055800054F04406F58F22758300E593021FE390E3
:105590003127B159E4FF9031271223A28F82B187BE
:1055A0000FEFB410F12275FF01E58F54F622B1A67A
:1055B0004408F58F2275FF01E58F5401FF22E0FFBB
:1055C000A3E0902EFECFF0A3EFF022E0FFA3E09047
:1055D0002D1BCFF0A3EFF022902E0FE0FF22E490DE
:1055E0002E0FF022E4F5FF75D102E5D120E0FBE4B7
:1055F000F5FFF5D1EF6008E4F5FF43D2808006E4C3
:10560000F5FF53D27FEB6006E4F5FF43D104ED6074
:1056100006E4F5FF43D10822E4F5FFEFF5D8E4F501
:10562000FF53D60FEE540FC4F854F0C8E4C4540F1F
:105630004842D622E4F5FF8FD4F5FFCFEDCF8FD5CA
:1056400022E4F5FF8FD422E4F5FFE5D15401333392
:105650003354F8FFE4F5FFE5D354074FFF22EFB4CE
:105660000109D2AD75FF0143AE4022C2AD75FF0105
:1056700053AEBF2275C80122E5C85402FF75C802A7
:1056800022E5C85401FF22EF6004902EE1F090055E
:1056900064E0FF9005531223A21219EE900564EF07
:1056A000F0604B202048902EDFE0C330E501D3921C
:1056B00024902EDEE0902EE2F10C902EE0E090059A
:1056C000E8F0902EDDE09005E9F103F0900564E04C
:1056D000FBE4FF121CAAEF7029902EE17402F090F7
:1056E0002EDBE0FEA3E0F5828E837F028011902EF8
:1056F000E1E0FF902EDBE0FCA3E0FDF5828C83125D
:1057000024E222F0A37456F0A3748722FD1223A290
:105710009005E50223AB902E2A1223AB902E29EFA1
:10572000F0FE902E347403F0902E31E05437F0E008
:10573000FF5420902EDFF0902EDEEEF0902E32E01F
:10574000FDA3E0902EDBCDF0A3EDF0902E2D1223E3
:10575000A2902EE21223AB902E30E0902EE0F0903B
:105760002E2A1223A29005531223ABEF4420902E31
:10577000DDF0E4902EE1F0C220F55A902E2A12239B
:10578000A2AF5A1219EE8F5AEF601E7D03121BD37F
:1057900040E9AF5A121BCE5008902E347401F080AD
:1057A00008902E347402F080D2902E30E0D3948191
:1057B00040037F00227F02121C41902E351223AB42
:1057C000EA494B605B902E29E0FF902E351223A210
:1057D000E924B6F9E43AFAEF121FD1902E31E0FE37
:1057E00030E010E4900564F0125823EE6401A3F158
:1057F000038019125823902E31E09005F5F0902E79
:10580000DBE0FDA3E09005F6CDF0A3EDF0902E35A2
:105810001131902E2D1223A27D02121CA07F012295
:105820007F0022902E34E0FF902E30E09005F4F0BF
:10583000221223A29005F80223AB902E951223ABDF
:10584000902E94EFF0121BB04006902E94E554F089
:10585000902E94E0FF902E981223A2902E2D1223CA
:10586000AB902E9BE0902E30F0902E9CE0902E314D
:10587000F0902E9DE0FDA3E0902E32CDF0A3EDF050
:10588000902E951223A2025716021A07E4FF303613
:10589000037402FF22200005D215021B06C322D387
:1058A00022AF4E22C2ACC37420954FFFD2AC22C2AD
:1058B000ACE4F54FF54EF54DF54BF54CF54A7B0153
:1058C0007D01124FDDD2AC2275FF01E58F5408FF38
:1058D00022EFB4010775FF0143AE202275FF01538B
:1058E000AEDF22EFB4010775FF014391202275FF5F
:1058F000015391DF22C20A7B007A007954902FD3A2
:105900001223AB0B7A0379ED22902DDCE0540F22A9
:10591000EEF0A3EFF0A3EDF0A3221223A2E92408F6
:10592000F9E43AFA22FDEF4DFFE5F08FF002213164
:105930009003F3E0FD75F0AA9003F702239612237B
:10594000A2EF021FD1A3F0E4A3F0A3F022F9E43AFE
:10595000FAC3E99FF9EA221223A2EA494B22E0FFA7
:10596000A3E0902E6FCFF0A3EFF0227F02122FDB87
:105970009003EBE09003F3F09003EB04F0C3940288
:1059800022240CF9E43AFA229003F5E0FEA3E0FFAA
:105990001219D0D3EF94C8EE940022902E15E02473
:1059A000FFFF902E14E034FFFEE4FCFD221223A240
:1059B000E924B722EFC454F0FF0223A2902E15E091
:1059C0009FFF902E14E09EFE22FF8D828C83022486
:1059D000E2242EF9E43AFA7D04E4FF22F09029EC67
:1059E0007401F0222412F9E43AFA22FDE4F0A3ED66
:1059F000F022FFE0FCA3E0FD227B017A2979072257
:105A00007A05797C7F042275F005A424F3F97400EB
:105A100022E4F0A37405F0227407F0E4A3F022243A
:105A20002DF9E43AFA74402274FF121F7C021F36EB
:105A30002FF9EA3EFA021F367B017A30791B7F028A
:105A400022FF7B01E4902FE0F022F9EA34FFFA0212
:105A50001F36E0FF90290AF07B0122E09005E8F074
:105A6000A3EFF022902D91E0FF14F0EF22F0A3F0CD
:105A7000A3F0A3F0222DF582EA3CF583227438F0DE
:105A8000A3743CF022902F22F0A3EFF022FF54F0F9
:105A9000C4540FFE227401F0AE04AF0522AA06A979
:105AA000070224DEAF03EAF0A3EFF022E475F00270
:105AB0000220A2F582E43EF583E02290120EE0D3AC
:105AC00094012233333354F8F5F42275FF03902DFB
:105AD00091E022FFFFFFFFFFFFFFFFFFFFFFFFFF40
:105AE000FFFFFFFFFFFFFFFFFFFFFFFFFFFFFFFFC6
:105AF000FFFFFFFFFFFFFFFFFFFFFFFFFFFFFFFFB6
:105B0000FFFFFFFFFFFFFFFFFFFFFFFFFFFFFFFFA5
:105B1000FFFFFFFFFFFFFFFFFFFFFFFFFFFFFFFF95
:107F7000FFFFFFFFFFFFFFFFFFFFFFFFFFFF02000D
:107F8000022B332FEC02043D022FEE301C00330491
:107F90000522023021382308070505220238283837
:107FA000360013FF0522FFFFFFFFFFFFFFFFFFFF6C
:107FB000FFFFFFFFFFFFFFFF7FC678D62AB23F2BF0
:107FC00000000308455EFFFFFFFFFFFFFFFFFFFF0D
:107FD000FFFFFFFFFFFFFFFFFFFFFFFFFFFFFFFFB1
:107FE000FFFFFFFFFFFFFFFFFFFFFFFFFFFFFFFFA1
:107FF000FFFFFFFFFFFFFFFFFFFFFFFFFFFFFFFF91
:10800000EF547024F0602624F0603C24F060522489
:1080100030706730570B117E8002C333D8FC42802A
:1080200022117E8002C333D8FCF452802230570BD9
:10803000117E8002C333D8FC429022117E8002C39D
:1080400033D8FCF452902230570B117E8002C33398
:10805000D8FC42A022117E8002C333D8FCF452A087
:108060002230570B117E8002C333D8FC42B022115C
:108070007E8002C333D8FCF452B02275FF01EF5466
:1080800007FF7401A8070822EF547024F06017243A
:10809000F0601E24F060252430702B117B8002C319
