:020000040000FA
:100000000218000218035B121EE22202180B54565B
:0A0010007F0422021813021FFA22D7
:06001B0002181B0227BBC6
:0600230002182302273E33
:06002B0002182BD2042292
:06003300021833E4A19461
:06003B0002183B7F0022C9
:06004300021843021ECE6C
:06004B0002184B0258EC04
:0700530002185375ED0422B1
:07005B0002185B75ED0222A3
:06006300021863AFEF225A
:06006B0002186B8FEF226A
:10007300021873C2D5E830E70FB2D5E4C39BFBE4A3
:100083009AFAE499F9E498F8EC30E717B2D512003C
:10009300AC120773E4C39BFBE49AFAE499F9E4987E
:1000A300F8800312077330D50DE4C39FFFE49EFE6F
:1000B300E49DFDE49CFC227881E4F6D8FD900000E9
:1000C3007F007E10E4F0A3DFFCDEFA9023A6A3E515
:1000D30083C394204011FEAF829020000E0FE48072
:1000E30002F0A3DFFCDEFA120120020B2B22325AAC
:0B00F3002D5761766520342E36310059
:10010000C0457401C0E0C082C08375450AE5FF5454
:10011000CF4490F5FF22C0457401C0E0C082C08387
:10012000754520E5FF54CF4490F5FF22C04574018A
:10013000C0E0C082C083754536E5FF54CF44A0F5CA
:10014000FF22C0457401C0E0C082C08375454CE504
:10015000FF54CF44B0F5FF2290800021169080A775
:10016000211690812D211690807B2116908056219A
:100170001690814021169081492116908175211693
:100180009081B0211690839D211690842C21169089
:1001900082DF21169083AE212C9082D8212C908270
:1001A000F8212C908383212C908000212C9083AF08
:1001B000212C908283212C9082CF212C9083DF21CF
:1001C0002C908412212C000D0A4E657720686F6DEB
:1001D00065494420000A0D000A0D43757272656E70
:1001E0007420486F6D652049443A2000446973616A
:1001F000626C696E67206175746F2074657374201A
:100200006D6F64650A0D00456E61626C696E6720F2
:100210006175746F2074657374206D6F64650A0D69
:100220000056616C6964206672657175656E6369FC
:1002300065733A003A20000A0D4672657175656E65
:1002400063792073656C65637465643A20000A0DF8
:100250005573652027682720666F722068656C706B
:100260000A0D00526563656976656420000A0D56C3
:10027000657273696F6E2020312E343620000A0DAE
:1002800056616C696420636F6D6D616E64733A0AC8
:100290000D6820546869732068656C7020746578F7
:1002A000740A0D45205365742045550A0D55205399
:1002B00065742055530A0D482053657420484B0A35
:1002C0000D5A2053657420414E5A0A0D492053653A
:1002D0007420494E0A0D4D20536574204D590A0D66
:1002E0004A20536574204A500A0D532053656E64AA
:1002F0002074657374206672616D65730A0D412008
:100300004361707475726520486F6D65494420665D
:10031000726F6D204E494620616E642053656E6495
:100320002074657374206672616D65730A0D4320D5
:1003300053657420636F756E743D313030300A0D33
:100340004E20536574206E6F646549440A0D522037
:100350005265736574206D6F64756C650A0D462077
:10036000536574206672657175656E637920627974
:10037000206E756D6265720A0D0082F301A345550A
:1003800000555300414E5A00484B0054465F3836E2
:10039000360054465F3837300054465F39303600F7
:1003A00054465F393130004D5900494E004A5000E3
:1003B00054465F3837380054465F38383200544668
:1003C0005F3838360054465F3933325F3343480074
:1003D00054465F3934305F3343480054465F383405
:1003E000305F3343480054465F3835305F3343480D
:1003F000004A505F33324D485A0054465F38333616
:100400005F3343480054465F3834315F334348001C
:1004100054465F3835315F3343480054465F3933C3
:10042000335F3343480054465F3934315F334348C8
:100430000054465F3833355F334348004A505F39D4
:10044000353000525500494C004B5200434E0003DA
:100450007E038103840388038B0392039903A00323
:10046000A703AA03AD03B003B703BE03C503D003BC
:10047000DB03E603F103FA04050410041B0426045D
:1004800031043C044304460449044C0000000000CD
:100490000000000000010000000101010101010154
:1004A000010101010100000100EF9004B2939001ED
:1004B00000730A20364CE545FF22EFF545223F2424
:1004C0001E16110E0B09070504030201F0C8A791BF
:1004D000776760463835323024222014000101024B
:1004E00002030304040505060607073F813F7C520B
:0B04F000ED5305822D1C161311101097
:10050800BB010689828A83E0225002E722BBFE02F1
:10051800E32289828A83E49322BB010B89828A833E
:10052800F8E0C828F0E822500327C722BBFE07F8E6
:10053800E3C828F3E8228A838982E49322BB010C6A
:10054800E58229F582E5833AF583E0225006E9251C
:1005580082F8E622BBFE06E92582F8E222E5822936
:10056800F582E5833AF583E49322BB010989828AFF
:1005780083F8E028F022500327F722BBFE05F8E3B2
:1005880028F3228A838982F8E4932822BB0106890A
:10059800828A83F0225002F722BBFE01F322F8BBC5
:1005A800010DE58229F582E5833AF583E8F02250CA
:1005B80006E92582C8F622BBFE05E92582C8F22293
:1005C800EF8DF0A4A8F0CF8CF0A428CE8DF0A42E47
:1005D800FE22BC000BBE0029EF8DF084FFADF02297
:1005E800E4CCF875F008EF2FFFEE33FEEC33FCEEA9
:1005F8009DEC984005FCEE9DFE0FD5F0E9E4CEFD9C
:1006080022EDF8F5F0EE8420D21CFEADF075F0086E
:10061800EF2FFFED33FD4007985006D5F0F222C3C7
:1006280098FD0FD5F0EA22C2D5EC30E709B2D5E43F
:10063800C39DFDE49CFCEE30E715B2D5E4C39FFFF3
:10064800E49EFE1205DAC3E49DFDE49CFC800312DF
:1006580005DA30D507C3E49FFFE49EFE22C5F0F813
:10066800A3E028F0C5F0F8E582158270021583E052
:1006780038F022A3F8E0C5F025F0F0E58215827085
:10068800021583E0C838F0E822BB010A89828A8310
:10069800E0F5F0A3E022500687F009E71922BBFE37
:1006A80007E3F5F009E3192289828A83E493F5F0D8
:1006B80074019322BB010A89828A83F0E5F0A3F0D2
:1006C800225006F709A7F01922BBFE06F3E5F00948
:1006D800F31922EF2BFFEE3AFEED39FDEC38FC2240
:1006E800E88FF0A4CC8BF0A42CFCE98EF0A42CFCB1
:1006F8008AF0EDA42CFCEA8EF0A4CDA8F08BF0A42F
:100708002DCC3825F0FDE98FF0A42CCD35F0FCEB8D
:100718008EF0A4FEA9F0EB8FF0A4CFC5F02ECD3952
:10072800FEE43CFCEAA42DCE35F0FDE43CFC227549
:10073800F008758200EF2FFFEE33FECD33CDCC33BA
:10074800CCC58233C5829BED9AEC99E58298400C22
:10075800F582EE9BFEED9AFDEC99FC0FD5F0D6E400
:10076800CEFBE4CDFAE4CCF9A88222B800C1B900E6
:1007780059BA002DEC8BF084CFCECDFCE5F0CBF947
:100788007818EF2FFFEE33FEED33FDEC33FCEB333F
:10079800FB10D703994004EB99FB0FD8E5E4F9FA6D
:1007A800227818EF2FFFEE33FEED33FDEC33FCC952
:1007B80033C910D7059BE99A4007EC9BFCE99AF9E5
:1007C8000FD8E0E4C9FAE4CCFB2275F010EF2FFF54
:1007D800EE33FEED33FDCC33CCC833C810D7079BBE
:1007E800EC9AE899400AED9BFDEC9AFCE899F80F21
:1007F800D5F0DAE4CDFBE4CCFAE4C8F922C3E49FEF
:10080800FFE49EFEE49DFDE49CFC22EB9FF5F0EAEC
:100818009E42F0E99D42F0EC6480C864809845F0FF
:1008280022EB9FF5F0EA9E42F0E99D42F0E89C45F4
:10083800F022E8600FECC313FCED13FDEE13FEEF9E
:1008480013FFD8F122E8600FEFC333FFEE33FEED5C
:1008580033FDEC33FCD8F122BB010789828A83027D
:1008680008D75005E9F8020A06BBFE05E9F8020AAE
:100878001222E0FCA3E0FDA3E0FEA3E0FF22E49344
:10088800FC740193FD740293FE740393FF22E0F855
:10089800A3E0F9A3E0FAA3E0FB227401FF3395E09B
:1008A800FEFDFCA3A3A3E02FFFF0E58215827002F2
:1008B8001583E03EFEF0E582158270021583E03D67
:1008C800FDF0E582158270021583E03CFCF022EC15
:1008D800F0A3EDF0A3EEF0A3EFF022A8828583F059
:1008E800D083D0821208FA1208FA1208FA1208FA0B
:1008F800E473E493A3C583C5F0C583C8C582C8F073
:10090800A3C583C5F0C583C8C582C822A42582F5BE
:1009180082E5F03583F58322E0FBA3E0FAA3E0F952
:1009280022EBF0A3EAF0A3E9F022E493FB7401932D
:10093800FA740293F922BB010789828A830209208B
:100948005005E9F8020A1EBBFE05E9F8020A3089DB
:10095800828A83020932BB011A89828A83D0F0D045
:10096800E0F8D0E0F9D0E0FAD0E0FBE8C0E0C0F071
:100978000209295016E9F8D083D082D0E0F9D0E0F6
:10098800FAD0E0FBC082C083020A27BBFE16E9F852
:10099800D083D082D0E0F9D0E0FAD0E0FBC082C0AA
:1009A80083020A3922D083D082F8E493701274014A
:1009B80093700DA3A393F8740193F5828883E4736D
:1009C8007402936860EFA3A3A380DF8A838982E41B
:1009D80073EC8EF0A4CCC5F0CCCDF8EFA4CEC5F066
:1009E8002DFDE43CFCE8A42EC8C5F03DFDE43CFC2C
:1009F800EFA4FFE5F028FEE43DFDE43CFC22ECF624
:100A080008EDF608EEF608EFF622ECF208EDF2082B
:100A1800EEF208EFF222E6FB08E6FA08E6F922EB26
:100A2800F608EAF608E9F622E2FB08E2FA08E2F933
:100A380022EBF208EAF208E9F2224103D500410369
:100A4800D400C10BE002020000004AE002020002EA
:100A58000034E00102000954E00102000AA5E005A3
:100A6800020031003402043DC10E4120B30041218F
:100A780014FF41210C00C10D41210D014120B2009C
:100A88004123A100C114410560060137000130006F
:100A980041055F0141055D01C110013D00013A00BA
:100AA8004322380000004122370041223B00C106A2
:100AB800C1084121ED004121FF014421E900000066
:100AC800004221FC00004222020000422200000AEB
:100AD8004121EF004121EE004C21F0556E6B6E6F05
:100AE800776E2020202000E0020200360013E00C80
:100AF8000200380000030A0003000A012E043DE04A
:100B0800050200440013FF012EE002020049000024
:100B18000075818175FF03759E021201200227EC82
:100B28000200F0900A42E47E019360F4A3FF543F70
:100B380030E509541FFEE493A360010ECF54E0B4DE
:100B4800E00EEFFAEEF9A3A3A3A3DAFDD9FB80D652
:100B580054C025E0604B5026E493A3F85407240CB6
:100B6800C8C333C4540F4420C8834004F4568001DA
:100B780046F6DFE480B00102040810204080E493C8
:100B8800A3FAE493A3F8E493A3C8C582C8CAC583AB
:100B9800CAF0A3C8C582C8CAC583CADFE9DEE78030
:100BA80085E493A3F8E493A34003F68001F208DFF9
:100BB800F4020B2E000D45DA000D40300000000055
:100BC800020C00013F3F3F040404353535000000A6
:100BD80000000DFA20000DDC7000000000020C007F
:100BE800013F3F3F04040435353500000000000E86
:100BF80008F8000E0F3800000000020C00003F3F0C
:100C08003F04040440404000000000000E08F800C3
:100C18000E08F800000000020C00013F3F3F0404EA
:100C28000440404000000000000DBBA0000D3860EB
:100C380000000000020C00013F3F3F04040435356A
:100C48003500000000000DE8F0000D48000000002D
:100C580000020C00013F3F3F040404353535000015
:100C68000000000DFED0000DD4A000000000020C12
:100C780000013F3F3F040404353535000000000003
:100C88000D4E40000DE44000000000020C00013F42
:100C98003F3F04040435353500000000000D3F04D3
:100CA800000D3F0400000000020C00013F3F3F041C
:100CB800040440404000000000000D33B0000D3334
:100CC800B000000000020C00013F3F3F0404044054
:100CD800404000000000000E1384000E18FC000EB7
:100CE800225C020202003F3F3F0404043232320019
:100CF800020190000D5DE0000D65B00000000002EB
:100D08000C00013F3F3F0404044040400000000045
:100D1800000D6D80000D755000000000020C0001F0
:100D28003F3F3F04040440404000000000000D7DA8
:100D380020000D84F000000000020C00013F3F3F3E
:100D480004040440404000000000000E3C5A000E1D
:100D58004A6A000E4D8A020202053F3F3F0404041E
:100D680032323200020190000E5B99000E69A80031
:100D78000E6CC8020202053F3F3F040404323232BF
:100D880000020190000CD509000CE318000CE638AD
:100D9800020202053F3F3F040404323232000201DE
:100DA80090000CFC17000D0A27000D0D46020202E8
:100DB800053F3F3F04040432323200020190000E26
:100DC8000E0C000E18FC000E225C020202053F3FCA
:100DD8003F04040432323200020190000CC20400C5
:100DE8000CD014000CD334020202053F3F3F040428
:100DF8000432323200020190000CD58C000CE39CC6
:100E0800000CE6BC020202053F3F3F0404043232F4
:100E18003200020190000CFC9C000D0AAC000D0D84
:100E2800CC020202053F3F3F040404323232000282
:100E38000190000E3CEC000E4AFC000E4E1C020213
:100E480002053F3F3F0404043232320002019000A1
:100E58000E5C2C000E6A3C000E6D5C020202053F1F
:100E68003F3F04040432323200020190000CC18179
:100E7800000CCF91000CD2B1020202053F3F3F04A3
:100E8800040432323200020190000E82A7000E9054
:100E9800B7000E93D7020202053F3F3F0404043215
:100EA800323200020190000D4288000D4288000095
:100EB8000000020C00013F3F3F0404044040400092
:100EC800000000000DFA20000DFA200000000002CA
:100ED8000C00003F3F3F0404044040400000000075
:100EE800000E0D44000E1064000E15DC020202060E
:100EF8003F3F3F04040440404005320FA0000D402E
:100F080030000D403000000000020C00013F3F3F60
:100F180004040440404000000000000A435F001938
:100F2800E4FD7C0CAB050DEB9000F2938F828E8371
:100F3800F00FBF00010EDCEC0200108F828E83E4FC
:100F4800F0A37404F156743DF156A3E4F022F08F37
:100F5800828E83A3A3229003E07402F09003D4E06E
:100F6800FF1201B29003E07405F0221255DA125212
:100F7800081251661238E99003D6E0640170030242
:100F8800104E7FFF1214AC9005B331297F0912541B
:100F9800D5BF540C7F0A1254D5BFA5047F01800227
:100FA8007F009003D4EFF09005B312619E701D7F0F
:100FB800041254D5EF2401FFE433FEC37401122553
:100FC800447F0050027F019003D4EFF09003D4E0F7
:100FD800640170499005B331201217EA1262D912E0
:100FE80014A49005B9E0FEA3E09005B31261FFE4F4
:100FF8003AFA9005B63129E92408F9E43AFEAF0136
:101008007B011262D91214A49005B9E0640170043E
:10101800A3E0642E600711579003D4EFF09003D437
:10102800E070237E007F04C006C3744A9404FE74F3
:101038000094001261AF9188D00612015874FFFD28
:10104800FCE4FFFE71241251A71251F60201677EDB
:101058007F7F8890222AEEF0A3EFF0F5828E83122C
:10106800618E60739190917890221E1261FFE43A2C
:10107800902227F1E67A22793591A0902235E0FE78
:10108800A3E0FF907FC07401936F7003E4936E7FB9
:101098000060027F0190222CEFF0902227B140F9E6
:1010A800E43AFEAF017B017A22793591A090222C97
:1010B800E0FF902235E0FCA3E0FD907FC27401932D
:1010C8006D7003E4936C7E0060027E01EF4E902207
:1010D8002CF060037F002212612BAE02AF01AC023C
:1010E800AD01E02DFD90222FE03CCD2402CD34004F
:1010F800FC712412619B7002219D21901262CF9491
:101108007EEC947F500241F812612B8D828C831201
:10111800618E603F9190917890221E122709C3E951
:101128009FF9EA9EFA902224120929902224120992
:1011380020C003C002C001711ED3D082D083D0E08A
:10114800E99582EA958340131261C1F0711E123845
:10115800EF80089180902224120929917812621652
:101168004026711E12625B126354FEC006918912FA
:1011780061A5F0D006120158711E126279126354EB
:10118800710F12617A12015890222A74FF75F0F6D5
:10119800120665210490222A747FF0A3747EF0124F
:1011A80062CF9488EC947F400241F890222A12255D
:1011B800591209329022211209298F828E837406CE
:1011C8009324FEFE74059334FF90222FF0CE12185C
:1011D8000AFF74049390222DCFF0A3EFF09178FFCB
:1011E8004E700241A190222A123FC974079324FC31
:1011F8006026146038240370577B017A00790090C8
:101208002224120929711EC3EF99FFEE9ACF24FEFA
:10121800CF34FF90222D80287B017A0079BF90225D
:1012280024120929711E1261D334FF80137B017ABD
:101238000079EF902224120929711E1261D334FF1C
:10124800F0A3EFF0E92402F9E43AFA902221800DA4
:10125800E490222DF0A3F0FBFAF990222412092938
:10126800902224120920AE02AF01711EE96F7002AC
:10127800EA6E60091261C1F0711E1238EF90222ADD
:10128800B133740793640270187F097D5412548136
:101298007F0A7DA51254818008918090222412092A
:1012A800299178126216403C711E12625B3AFEC0A8
:1012B8000691891261A5F0D006120158711E1262BA
:1012C800793A710FE924FEF9EA34FFFA90222112E3
:1012D800092990222AE0FEA3E0F5821261421261F8
:1012E8007A12015890222AE475F00A12066521A79D
:1012F80090222F7400F0A3744AF07E007F001261E0
:101308007E1201587F0222FE902230E029FD9022B1
:101318002FE03AFC712490222102092090227312B6
:101328003A18A3740AF0A37442F0902277B133E418
:101338009370028177E493FF541FFD902279E4F0C3
:10134800A3EDF0EFC41354071209AD136F00137126
:1013580001137302138A0313A00413B40513CA06F6
:1013680013D50700001332802F8041902277B133C4
:10137800740193FF74029390227BCF1263042403B9
:1013880080461261541261E474039390227BCDF07D
:10139800A3EDF0EF24048025902277B133740193F4
:1013A800FF90227BE41263042402801C1261541211
:1013B80061E490227BE4F0A3EDF0EF2403FFE43E28
:1013C800816D90227AE0240112634C816D12615480
:1013D800902279F0EF12180AFE902277123FCB7410
:1013E8000493FDEDFF90227B123016902274E09F4B
:1013F800902273E09E50659022751230C390227C33
:10140800E09F90227BE09E5053E490227DF0A3F071
:101418009022791230C390227EE09F90227DE09E38
:10142800503AE0FCA3E0FD90227CE02DFF90227B67
:10143800E03CFE902278E02405FB902277E034001F
:101448008B82F583E5822DF582E5833CF583E49371
:10145800FD12017190227D12195580B490227AE014
:10146800240512634C9022778FF0120665613222B0
:1014780090222DE0FEA3E02290222DE4F0A3740533
:10148800F07B007A0079002290221E120920AE0219
:10149800AF017B017A22792D9022FCE4F0A374023B
:1014A800F002015D90227FEFF07B027A007902A3BF
:1014B800120929806A902286122FE6606C90228099
:1014C800120920E92FF9EA3EFAE924FBF9EA34FF88
:1014D800902283F1E67A22798891A0902288E0FE12
:1014E800A3E0FF902286E0B5061FA3E0B5071A9097
:1014F8002283B140F9E43AAF011254D590227FE03B
:10150800B50708902283020920801E902286E0FEFB
:10151800A3E0FF9022811239CC902280120920F199
:10152800EA7A22798691A0808C8189E0FEA3E0F591
:10153800828E8322F090228A120920E924022290C6
:101548000609124378E924B7D19624B8D19624BA6B
:10155800F9E43AFAED120594900609121845E924BF
:10156800B7121FBEEF6405600990060A120920121F
:10157800480CD19E2402D1AF30E10BD19E24B7D1C3
:10158800AF4440120594900609E0B4010EA3B1409F
:10159800D1AF30E7069006097410F0900609E01400
:1015A800604C24F97002C15224056002C195D19E95
:1015B800121BF5C003C002C0017B017A0379D9125E
:1015C800242AD001D002D0037F04120176D19E12C2
:1015D8006244900557E0FFD19E24BAF9E43AFAEF45
:1015E800D19BF1DF740BD19BF1F1740AC192D19EAA
:1015F8002402D1AF30E01CD19E24B7D1AF4480D1B2
:101608009B2402D1AF90060A30E6028009F19D744E
:1016180003800790060AF19D7401120594D19E2457
:1016280004121DFB5460FFD19E24B8D1AF548FFE25
:10163800EF54704ED19BF1F1740AD19B24B1D1AF14
:10164800240BFFD19EF1DFEF8040D19E2402D1AF61
:1016580090060A30E006F19D74038004F19D740140
:10166800120594D19E24BCD19624BDD1AFC4540F89
:10167800126344FFD19E24E1121FBE04FFD19E24B1
:10168800B1D1AF2FFFD19EF1DFEF12059422F9E41B
:101698003AFAE412059490060A120920E922900504
:1016A80090120920E92407F9E43AFA020508902281
:1016B80038120929E924EDD1AF6017E490224FF0E0
:1016C800F195F1A174011205947E5B7F12FD7C00F7
:1016D800E15FF1952401D1AFD39401404112201A62
:1016E80090224FEFF0E004F07E5B7F12F19524B773
:1016F800D1AF540F64087019F19524BCD1AF20E024
:1017080010F19524BDD1AF1262F2B504047D0780B3
:1017180009F19524B1D1AF12632C7C008039E49093
:10172800224FF07E5B7F12F19524B7D1AF540F643E
:10173800087019F19524BCD1AF20E010F19524BDB3
:10174800D1AF1262F2B504047D078009F19524B186
:10175800D1AF12632C7C00900625EEF0A3EFF09039
:1017680022377401F0AE04AF0512403DAC06AD0758
:10177800900625E0FEA3E0FF02184EAF03EAF0A3AF
:10178800EFF022E0900558F0901215E0FF90223813
:10179800120920E922120920E92401F9E43AFA227F
:1017A800F1954AC36001D3502DD200F195F1A112F1
:1017B80062EAFFD394014007EF940350028009F1D5
:1017C800952401D1AFB40106122FD9021ECEE490A0
:1017D800223BF01243582224B9F9E43AFA22FA12C9
:1017E8000929AE02AF017B012224E1F9E43AFA2289
:0617F800901210025AC518
:03180000020B19BF
:101808007FB8A3F08D828C837403932275FF0253F3
:10181800857F75FF024385102275FF0275E404E495
:10182800F5E42202387275FF0275E40475E4017567
:10183800E402221114C20BE4F51FC20C22E0FFA33C
:101848000209200244E2AB07AA061114ED4C700508
:101858000DBD00010CD3ED94FFEC9403500D75FF02
:1018680002EDF586EC4430F585805BD3ED94FCEC15
:10187800940F501AEDAE047802CEC313CE13D8F9E4
:10188800AC0675FF02F586EC4434F5858038D3ED57
:1018980094F0EC943F5019ECC4F854F0C868FCED8F
:1018A800C4540F4875FF02F586EC4438F585801658
:1018B800EDAE047806CEC313CE13D8F975FF02F542
:1018C80086EE443CF58590238D121783D20CE4F5FF
:1018D8001F75FF0243854075FF02438580D20B22A6
:1018E80075FF02E5E430E10675E40675E40322C2FB
:1018F800AF75FF0375D404112E1245FB1236AD31B6
:101908004A1235C31235D03152C3902394E094D78C
:10191800902393E0940340E975FF0175D30175FFA7
:101928000275D28075FF0243E704314A3152902391
:1019380093E0B403F7A3E0B4E8F275FF0253E7FBC2
:1019480080FEE4902393F0A3F022902393E475F0B3
:10195800010206657BFF31829003D9E0FF31A69032
:1019680003DAE0FF31A69003DBE0FF31A69003DC49
:10197800E0FF31A67BFF7A0179D590238A120929E5
:1019880090238A12248CFF6009319E90238B315555
:1019980080EE22FF31BAE5ED20E0FB8FEF229023A5
:1019A800A6EFF0E0C4540F319B9023A6E0FF31BAB4
:1019B80080E4EF540FFFD39409EF50042430FF2242
:1019C8002437FF229023A5EFF075F00A84319B900D
:1019D80023A5E075F00A84AFF031BA80B99005C349
:1019E8001209299005C81209299005C91242A9901F
:1019F80005C31242B01216AFC4540FFF9005C9F1C7
:101A0800CA9005C93155AF059005C9F1CA9005C7F7
:101A18001145EF0205949005CB1209297F02122E79
:101A2800D79005CE1262BF700261E471ED1217A162
:101A3800740312059412633C24061216AFFF126356
:101A48003C240A1216AFC39F14FF71ED24E1F1BEC6
:101A5800B17EE924061216AFFF30E74171ED121787
:101A6800F1C003C002C001120508FEEF30E71DB146
:101A78007EE9240B1216AFFF1247DC9400FCB17EFE
:101A8800E924111241FD1241F4FF80027F00EF04A6
:101A9800FFC3EE9FD001D002D00312059471ED125E
:101AA80017F11262EAFED3942FAF0640027F2F711E
:101AB800ED71F5C003C002C001B17E12242AD00125
:101AC800D002D00312017671ED12630D71EA24BCC5
:101AD8001216AF4401120594440271EA126244B12D
:101AE8007EE924041216AFFF71ED24BB71E524BD15
:101AF8001216AFFF540FFEEF54F012059454F0FF86
:101B0800EE14540F4F71EA24B81216AF448071EAEC
:101B180071F57D011242B771ED71F57D041242E74E
:101B280071ED71F5B187E4FD31E571ED71F5B187BE
:101B38007D0131E571ED71F5B1877D0231E571ED1A
:101B480071F5B1877D0331E571ED1217F174051256
:101B5800057271ED1217A1740371EA24021216AF0F
:101B680030E60A71ED1217A1740112059471ED2483
:101B7800B11216AFFF71ED24E11216AF2F04FF71F9
:101B8800ED24B971E524031216AF44201205949090
:101B98000535E0FF71ED24B61216AFFD71ED24BBDB
:101BA8001216AFFBC00371ED12620F90057812098F
:101BB8002971ED24B11216AF90057BF0A37481F062
:101BC800A37400F0A37419F09005CE1262C6D00376
:101BD800123D3B9003CEE07003122C8B22F9E43ABD
:101BE800FAEF1205949005CE120920E92224B2F9E1
:101BF800E43AFA229005FF120929D216C2EBE5371A
:101C08006002A16DE53830E202C322B17624EDF915
:101C1800E43AFAE412059412589B9006027401F013
:101C2800E53820E06D12442840047F01B19F9006FA
:101C380002E0FF7B017A067903124618E433B17596
:101C480024EEF9E43AFA7401120572EF7002803E4C
:101C5800900602E0FF24431250C4E0FE900603E021
:101C6800D39E4005D2EBD20022B17624B91216AF2A
:101C7800FD9005FF12248CFB123B33900603EFF016
:101C8800E0FF7006D2EBD200A15FEFB40204D2EB02
:101C9800A15F1244285005C21D1237241244D8F5FA
:101CA800D1E5D120E0FBE4F531B1762408F9E43A36
:101CB800CFE9CFF5328F33B17624B11216AFF539AB
:101CC800AE32125B55B17624B11216AFB17524E16C
:101CD8001216AF2FFFE433FEEF2401FFE43EFEB1FE
:101CE8007624B91216AFD312254450057401120593
:101CF80072B1762404B1FB540790055FF07537087C
:101D0800B17671F51247E7B17624E11216AFFFAD4F
:101D180039125B717B01E4FDFF125B21E4F5FFE5FD
:101D2800D25480440CF5D2900602E0B17524B91261
:101D380016AF2418FBE433FA7D03125803B1762456
:101D480004B1FBFFAEF0A2169215900602E09006D1
:101D58001CF01256BC4006A20F92EDC322A20F92AD
:101D6800EDD2EBD322A20F92EDD2EBC322FF900566
:101D7800FF120920E9229005CB12092002093E90A2
:101D880005C7747FF0227BFF7DFF7F801217F81252
:101D9800018512018F7F01EF600E122E04AF82AE13
:101DA80083E4FD124384800A122F751244AAE43397
:101DB800FF227F0122900624EDF0900623EFF0BF6A
:101DC8000412A3E0FB7D017F011259DE9006237403
:101DD80003F0800C900624E0FB7D01E4FF1259DE3D
:101DE800900623E09003D5F0D32290235D120920BA
:101DF800E924E4F9E43AFA02069190059D1262ACEE
:101E08009005A3E0FF9005A6121540F1BEEF7E00F5
:101E180030E1047F0880027F00D1DC123DE0120629
:101E2800BC9005A2E0FF74A9C39F500374A9F0D128
:101E3800DCE924031216AF20E5209005A2E0FFD1CB
:101E4800DCE912620FC003C002C00190059F122492
:101E580027D001D002D0031201769005A2E0FFD16D
:101E6800DCE924B1F1BE9005A4E0FEA31145E92404
:101E7800E4F9E43AFAD1D6E912624FD1D9E924BBA0
:101E88001216AFF54390059DE0FF7E00D1DC123DB0
:101E9800E01206BCEF54EFFFD1D6E924031216AFC7
:101EA80020E50F124853AD0790059EE0FFD1DC12E4
:101EB8001547D204D1DCE92404B1FBFFD1DCE912D7
:101EC8006230E5F0D1D7120508540F020594EE8F61
:101ED800F01206BC9005A602092090235D1209297C
:101EE800E94AC36001D3507090235D121540121661
:101EF800AF30E005F1630216B6124208F1631242F0
:101F08001E90223EF161E924F01216AF902244F1AE
:101F180062E924F1B1FB126223F161E924ED1216A2
:101F2800AF9023607003F080037401F0B1F245F0C4
:101F38006021902360E0FF12414DC003C002C00140
:101F4800B1F2FDACF0F58285F083D001D002D00368
:101F58001209D7F16312003622EFF090235D0209CF
:101F6800203182F1B4E49022DAF09022D9E0FFA384
:101F7800E0FEC39F502B9022D61209208E827583D3
:101F880000120545FF31A69022DAE0540FFFBF0F7B
:101F980004F1B480047F20319E9022DAE004F080BE
:101FA800C99022DAE0540F6002F1B4227F0D319E0D
:101FB8007F0A219E24F0F9E43AFAEF020594C4540A
:101FC8000FFFE48FF002066590231A120929902367
:101FD80020E0C4540F1260F690231A1261201205F3
:101FE800A6902320E01260F6FF90231A12612102C6
:101FF80005A675FF028FE3229003CFE064AA24119F
:10200800FFF022AE07122000EE04FEEF8EF084AF40
:10201800F0221100EFC4540F6FFEEFC41354076E83
:10202800FEEFC413131354016E5403FF22901216CB
:10203800E0FF120508540FFEBE0109E924BB121681
:10204800AFF460133000101100EF75F00384AFF0A7
:10205800901216E06F60F0901216EFF0C20022E5C1
:102068003830E20FE53820E50AE53830E0057F0131
:10207800121D9F2290228A12092990228DEDF07458
:1020880001C39D4002812390228E918C902292F070
:10209800E924011216AF902294F090228E12154076
:1020A8001216AF902293F090228E12092090228E61
:1020B80012092912544E40FB116790228A918CFF15
:1020C800C394204028EFD394FF502290228DE0FD46
:1020D800949E5019C003C002C001A3120920902386
:1020E80017120929D001D002D0030201BC90228A1C
:1020F800918C640160028123E924011216AF120950
:10210800AD240800232A01212202213F032188044B
:10211800227A0524081800002423902292E09022B5
:102128009430E109E0FFE4FBFA7D038007E0FFE477
:10213800FBFA7D010250F8300E028123200D028146
:102148002390228DE0C394074003D38001C340024B
:1021580081239020B3740112153C1216AFF51D901F
:10216800228A917E912A7A0379D9124351AD1D12A0
:1021780051EDE51D7003125175121489E4FF6127B2
:10218800300E02812390228DE0FFD39422400281F9
:1021980023EF94035002812312153D1216AFD394F6
:1021A8001D40028123900535E090210DF09020B369
:1021B8007402121488E4FF125305D20E1252E4740A
:1021C8000312153C1216AFFF541F2403FDE433FC21
:1021D80090228DE0D39DECB14640117E0090228A7A
:1021E800917E1248FA1205089020E8F09020E8E065
:1021F80070067E217F4180047E207FE990211012A5
:10220800628FC003C002C0019124D001D002D00364
:102218007F2112017612153D1216AF541F2404FFB8
:10222800E433FE90228DE0D3B144400991921262CA
:10223800E290210FF0902294E09020B8F0A374016E
:10224800F0902292E030E1079020B9E04402F0D209
:1022580010B134FF2403FDE43EFAA9057B01120FF7
:1022680057E0FD1252BAEF24079020B2F0E4FF02C3
:102278003E92E49020B3F0F1DBE49020E8F0902265
:102288008DE0D39402400A12153D1216AF9020E853
:10229800F09020E8E0FB70067C217D4180047C20E2
:1022A8007DE9902110ECF0A3EDF0F5828C837401A8
:1022B800F0A37406F09022917401F0A3E030E107D6
:1022C800902291E04402F0B156A3A3E07005120FEA
:1022D8005704F0B156A3A3E0120F57A32582123F6B
:1022E800BEEBF0B134FFAA06F97B01123E8C120F47
:1022F80057E02404FF9020E8E07E0070027E01C3CE
:10230800EF9E900589F0902291126237F090229406
:10231800E0FB123CBFEF60028123FBFAF97F020267
:10232800530590228DE0FFC39406E4940050028187
:10233800238F197A2079C57D23126315919224037E
:102348001216AFFF20E258440412059491247B0131
:102358007A2079BD7F061201769020C2E0A3F09121
:1023680030E49020C4F005190519B13CE434FFFEAF
:10237800D3EF9400EE94004070D3EF9423EE9400D2
:1023880040037429F0B13C9192126230912A7B018A
:102398007A2079C512017690228DE0F519804A904D
:1023A800228DE0D3942B4005742BF0F51990228DE3
:1023B800E0FF91247B017A2079BD1201769020C03C
:1023C800E020E125913090228DE0B42B0414F080B8
:1023D80002051990228DE024FB90228AF109912AA6
:1023E8007B017A2079C3120176902294E0FD7B016B
:1023F8007A2079C2E51924FB902339F07F8480186C
:10240800200D189020B3E07012902294E0FD121471
:1024180089E4902339F07F831201992290228A124D
:1024280009209023090209297B017A2079BF90238A
:102438007E120929B12C24011216AFFF30E1179042
:10244800237E918C30E70691817402801A90237E56
:10245800917E74018011EF90237E30E306917E74A3
:10246800048004917E7403120594B12C240312167F
:10247800AFFF22900590120920E92403F9E43AFA03
:10248800229022E212092002050890228A120920CD
:10249800E92290237B1209297D2AE4FF120162B107
:1024A80026F115B126B14D12179DB14D121540F9FF
:1024B800E43AFA741312059490210EE0FF30E00814
:1024C8001205084480120594EF7F0030E1027F80F6
:1024D800EF4414FF90237B917EEF120594B126E917
:1024E8002404F9E43AFA7401120594902115E0D312
:1024F800942340037423F0902115E0FE24079021D3
:1025080040F0AF06B126E91262A5C003C002C001BF
:102518009020BA9127D001D002D0030201769023EF
:102528007B02092090237E120920E922902110E0E5
:10253800FEA3E02290228DE024FAFF229FEE648021
:10254800F874809822740112059490237B229021BC
:1025580010E0FEA3E0FFF5828E83229022E5ECF0E6
:10256800A3EDF09022E2120929B1969022E5E0FE4F
:10257800A3E0FFA3E0FDA3E0FBD1799022E2126281
:10258800679189B4FF04E41205949189FF2290238E
:1025980075120929902375918CFFF13E90237512CD
:1025A8000920E402059490061712092990061712CB
:1025B8000920E53FB1EB12179DE540B1EB1215403C
:1025C800F9E43AFAE541B1EB917EE534B1EB120951
:1025D80020E92404F9E43AFAE535B1EBF10AE536E5
:1025E800020594120594900617229022BB12437597
:1025F8009022C01261F560509022BD918C9022C249
:10260800F09022BE1219557D80ED60E4D150EE7C29
:102618000030E7027C019022C2E05D7B0060027B13
:1026280001EB6CFCEF25E0FFEE339022BBF0A3EF4B
:10263800F0AF04EF600C9022BBE06410F0A3E064FC
:1026480021F0EDC313FD80C19022BBE0FEA3E0FFA3
:10265800227F0F7E1DD170B1F29022C712092090FF
:1026680022CAE0FDD17080829022C0E4F0A3EDF090
:1026780022E49022DFF09022DB125AC29022E0740A
:10268800FFF09022DFE09022E1F09022E1E0FFC32A
:10269800940E5067EFF13012087A123BE7705490AD
:1026A80022DFE07E0170027E029022E1F1A5E4348F
:1026B80020F583EEF0C0079022DDE0FF7E00600980
:1026C8007C007D0A1205C880027F0AE4FCFD902286
:1026D800B61208D79022DEE09022BAF09022DBE012
:1026E800FCA3E0FDD007F1699022E1E004FF90220D
:1026F800E0F0229022E1E004F0808F9022E0E0FFF9
:1027080022FF120920E92405F9E43AFA22902378F5
:10271800120929902378F10A9022691209297B016C
:1027280012521C0201C1E54275F00CA42403F58283
:10273800E43420F58322AB07E4FF1BEBC3940E506F
:102748001FF1B03420F5831208E300000000EBF11C
:10275800301208E300000000EBF1A7123BDF7F0115
:10276800229022B4ECF0A3EDF0AB07A312087AF1A3
:10277800B03420F5831208D7EBF1301208D7902235
:10278800BAE0FFEB123B27F583EFF09022B4E0FEAE
:10279800A3E0FFEB123BC9EEF0A3EFF022E0FF75D8
:1027A800F00CA4240EF58222EB75F00CA42407F596
:1027B80082E422AB07E4FA1BEBC3940E5012F1B08B
:1027C8003420F583123BD76007EBF1301208D70AA3
:1027D800AF0222902114E0FFF46002F13E90211430
:1027E80074FFF02275FF0275E404E4F5E41200BA00
:1027F8001252A540031252517B017A1279107D01C1
:102808007F01122E227B017A1279117D017F21D15D
:10281800227B017A1279127D017F22D1227B017AF3
:102828001279177D017F02D122901217E0B40105B9
:102838007F01125ACE1201851259151253F39003D3
:10284800D6EFF0F1DF1253AE9003D6E0FF1201ADE0
:10285800EF24FFB3921475FF0253E6BF12384C12EF
:10286800018F120F73201408120F5EF15D122715E5
:1028780090210EE030E0057F01121D9FD2AF301489
:1028880062F1A7123A241201B712018040F39003B3
:10289800D5E06026E53770FCE53820E5031244AA48
:1028A8001254629003D5E0B40204E4FF8009900357
:1028B800D5E0B403057F01125A0B918BE53830E15E
:1028C800C0D17E4002E4F0E53820E505D10412438A
:1028D8007EF193C0E0D1129003D8E0FDD0E0FF3143
:1028E8003B809EF1A7123A241201A89003CEE07013
:1028F80004918B8015C2ADAF1C9003CEE0FEC3EFF0
:102908009EC394014002E4F0D2ADE53830E120D115
:102918007E4002E4F0E53820E505D10412437EF15B
:1029280093C0E0D1129003D8E0FDD0E0FF313BF135
:10293800F480B09005AB1209299005A912628F9016
:102948000547120929900551EDF0D39409500281E9
:10295800799005A9E0FEA3E02407F9E43EFA120500
:1029680008FFEDC39F50028179E490054EF0901264
:1029780015E0C454F0FF90055DE0FE4F900550F05F
:10298800900535EEF0917A24061216AF30E70C91D7
:102998007A240A1216AF5407FF80027F007E009146
:1029A8007AF1ED1217A01248FA1205086401702A8C
:1029B8009005A9122559E09003D9F08F828E83A340
:1029C800E09003DAF09005A9121535A3A3E090036F
:1029D800DB120F56A3E09003DCF09005AB12092040
:1029E800900593120929F14F124926917A2404126D
:1029F80016AF900542F090054EE044016062A203D4
:102A0800E433F543E49005B2F09005B2E0FFC394D7
:102A1800025020EF1250EBFF900542E0FEEFB506A2
:102A28000A9005B2E024FF920380089005B2E00402
:102A3800F080D69005B2E0B40206E54324FF920385
:102A4800900535E0FDA203E43325E0FFE433FE748E
:102A5800542FF58274053EF583EDF0A203B392037B
:102A680090054EE020E20261427F01D1D79005AE89
:102A78001262BF70026142900557E0FD9005AE12E8
:102A880009207F03121547918312630D1205949054
:102A98000550E0C4540F918224EF121FBE91831297
:102AA800624F1206BC918324E4F9E43AFA74007583
:102AB800F00A1206BC90054FE0918224BB121FBE9B
:102AC80091832404121DFB54F8FF900535E0FDEFB7
:102AD8004DFFE5F08FF01206BC917A24051216AF6F
:102AE80030E60E918324B71216AF44401205948045
:102AF8003B90054A12248C64017031E924011216B6
:102B0800AF6418702790054DE090054AB40411127F
:102B18000920E924031216AFFF12563A8F3D800CA4
:102B28001215401216AFFF12576A8F3D9005AE126C
:102B38000920121ECE200902918B200502815E9089
:102B4800054EE020E10261F0E4F54312179524B741
:102B58001216AF540FFFBF010C12179524BB1216A3
:102B6800AFF5438045EF6408704012179524E112D1
:102B780016AFFDD3940A5002817912179524BD121D
:102B880016AFFEEE540F9005B2F0EDD3940A500242
:102B9800817912179524BEF9E43AFA9005B2E01249
:102BA8004909120508F54312514B1217954A70024C
:102BB8008179917A24041216AF6543600890054123
:102BC800E070028179917A24051216AF540FFFBF85
:102BD800080D917A240A1216AF540624FF920112A6
:102BE800301D124154C2012290054EE05422FFBF0D
:102BF800201090223BE0607912301DAD07F14F02A2
:102C0800406090054EE030E305F14F121A1E201483
:102C180060D1939005B1EFF07A05793C7D05126398
:102C2800159005B1E090053CF0917A24041216AF96
:102C380090053DF012301D90053FEFF090054DE0F6
:102C4800FD7B017A05793C90228E12092990054A6C
:102C580012092002207CF1D9EA494B6014902237EE
:102C6800E0600E900539E060081238D7E490053925
:102C7800F022900547120920E922FF9005AE1209BB
:102C880020E922E4900621F164B1F9E054F06440AF
:102C98007002A1C0E4900620F0900620E0FEC394E4
:102CA80004503A75F0F3EEB1FEE0FEB40106F16CA3
:102CB800E4FF8029EEB4020B900622E0B4FF04F191
:102CC8006C8012900620E075F0F3B1FEE054F0FE3F
:102CD800BE80027F01900620E004F080BCEF600611
:102CE80090062274FFF0900622E0F47002A1C01250
:102CF80044305002A1C0E53830E102A1C09006205E
:102D08007405F0900622E0900005F156E030E40EDC
:102D180075F0F3EF900007120914E0549FF0900645
:102D280022E09000B9F156E0540FFEBE050E75F092
:102D3800F3EF9000BE120914E030E125900622E07E
:102D4800FF75F0F3900004120914E020E53375F0E4
:102D5800F3EF9000BD120914E0B4FF25EE640360A0
:102D680020900622E075F0F3900006120914C08343
:102D7800C082E04401FFA3E0D082D083CFF0A3EF6C
:102D8800F0900622E0F140121BFC5020900622E051
:102D9800F54475F0F3B1FEE04440F090062174016B
:102DA800F0900539F0E4900620F08006900620E0C7
:102DB80014F0900620E070C9E53830E22D7F04D188
:102DC80075B1F9E0FF54F064407015B1F9EF540F94
:102DD800F0B1F9E04480F0E544F140123FFB800A8D
:102DE800E53830E0057F01121D9F900621E024FFA1
:102DF8002275F0F3E5449000020209149003D7E02D
:102E0800FD75F0AA9003E1120914ED75F002A424EF
:102E1800D0F9740335F0FA7B012290233A1262ACA0
:102E280090233BE06046901218E0601290233AE04D
:102E38002410FFF17F90233C120920EF8017902384
:102E48003AE0640190233C700712092074808005E1
:102E580012092074FF12059490233D1219559023EE
:102E68003BE014F090233AE004F080B422C2AFEFC4
:102E7800F45238D2AF227F02D1759003D7E0900385
:102E8800DFF09003D704F0C3940222E4FF917A2480
:102E9800051216AFFD30E6037402FF90054EE030D0
:102EA800E704EF4480FFED540FFDBD0110917A2433
:102EB800091216AFB4FF17EF4404FF8011917A246A
:102EC800051216AF540FFDBD0204EF4408FF22900F
:102ED800062BEFF164FEFD75F0F3EDB1FEE0FC703A
:102EE8000C90062CE0B4FF02EDF00F8006EC30E009
:102EF800027E010DEDB404DF90062BE06401600D45
:102F0800EFC394025007EE7004A374FFF090062CF0
:102F1800E0FFC39404501EEFF1407DF3E4FF12017B
:102F28006290062BE04410FFA3E0FE75F0F3B1FEBB
:102F3800EFF0EE800302148975F0F3A42402F9740B
:102F48000035F0FA7B01227B017A05794722FF756B
:102F5800F0F30209147B017A21791622F0A374FF99
:102F6800F0E4FF22900620E0900622F022F1BFEF65
:102F78007004918B80F72275FF03E4F597125FE5E3
:102F8800E59720E1FB75FF03AF99229003DFE0FD91
:102F980075F0AA9003E1120914AF82AE83EF2230D4
:102FA8000C14E51F6010151F90238DF1E66007AA29
:102FB80006A9071209D322E4FF75F0F3EFB1FEE08A
:102FC80054F0FEBE40037F00220FEFB404EB7F01F4
:102FD80022902238020920C202D204C20322E0FE53
:102FE800A3E0FF4E222409F9E43AFA229003DDF126
:102FF800E66009CAEECAC9EFC91209D3229003DDF7
:10300800E0FCA3E04C70059003DD8002C322EEF0E3
:10301800A3EFF0D3229005AB1209207D029005FAA8
:10302800120929E49005FDF0A3F0FEEEC39D50249B
:1030380011BA1216AFFFFB9005FDE48BF01206657E
:1030480012515D500C11BA1216AFFF9005FDE480C5
:10305800560E80D79005FDE0FEA3E0FF7C00120528
:10306800DA9005FD11169450EE9400400B9005FD82
:10307800E4F0A3747EF080339005FD11C39428EE2C
:103088009400500B9005FDE4F0A3747DF0801C7C47
:10309800007D9B1205C8EF24DAFFEE34C2FE7D6482
:1030A80012062F9005FDEEF0A3EFF09005FDA3E0CA
:1030B800FF229005FA120920E92E22E0FEA3E0FF84
:1030C800C3229022501208D7E4F5FF75BB0575BBE3
:1030D8008575FF0175D5022018087F3FFEB1CC1217
:1030E800471275FF0143D5203018022196E4F5FFF9
:1030F800538EF7438E077D04E4F5FF8DBCF5FF433F
:10310800B102E5B130E2FBE4F5FFAFDFEFFEACDE84
:10311800ECFBEBFFED25E0244EF582E43422F58349
:10312800EEF0A3EFF0E4F5FFF5FF53B1FD0DEDB4BC
:103138000CC6902250712FFF780912083AA3EEF0BE
:10314800A3EFF0E4FDED25E02458F582E43422F500
:1031580083E0C313FAA3E013FBEDF1E8125ABA2B8C
:10316800FFEE3AFEEDF1E8EEF0A3EFF0ED24049067
:10317800120DF0EDC394075015CFEDCF0DEFF1E828
:1031880011C3902255E09F902254E09E50B7E4F579
:10319800FF758EC8F5FF90120DE0F5BCE4F5FF75DC
:1031A800BB8075FF01F5D5229022041208D775FF60
:1031B8000243E1801245DFD1CE9022191208E300C4
:1031C8002DC6C0E4F5FFF5A490120EF0A3F09022EE
:1031D800147402F0126334FFF595EF146013146051
:1031E8001C24027027902204712FF1DA902210809B
:1031F80016902208712FF1DA902211800A90220C81
:10320800712FF1DA902212E090221DF0125D1A90CF
:10321800221DE0700FF5FFF59675FF0175D709754A
:10322800F418805B90120EE004F0902214E012472C
:103238008A902219712FFF902215125DD4FBC312B8
:103248000829500A902215712FFFA31208D790223F
:103258001DE0FF125B9B902213E0FFA3E0FDA21B81
:103268009219125CC8A3712FFF9023401208D790BF
:103278002214E0FF125D279022147121FFF19E12A3
:1032880062FB600221DC7402F0126334F595E5F408
:103298005407701D9022199147125DCE902214E0B8
:1032A800FB125DC43412F5831208D7EB7122FFF1CB
:1032B8009E1262FB70D375FF03759580124782409A
:1032C8000343F420A21B921A125BFA902219712F61
:1032D8002420FFEE344E9169FCE4FB7A04F9F8915E
:1032E80057125DCEC21811CAE4F5FFE5BD54F84483
:1032F80004F5BD9012137401F07E127F01E4FD8F76
:10330800828E83EF2DF582E43EF583E0FC90121364
:10331800E02CF00DEDB412E722E025E025E02401D1
:10332800F582E43412F583E0FCA3E0FDA3E0FEA3FC
:10333800E0229022F0125AC59022F67401F0C21CC5
:103348007FE87E03B1C1F1195005E5FC20E6F7D10D
:10335800EBBF0108E4F5FC75FC408007D1EBBF0228
:1033680002D32275FF0153D8EF9022F1E0FF125FDC
:103378007E75FF0153D5DF53FAFB9022F0E0FF1270
:1033880044059022F1E09022F0B4080971212452FA
:103398009166FC80037121FFF19E9022F2E0FF12FA
:1033A8005FCC75FF0175FF03759B04F168B1C375A8
:1033B800FC42E5FC20E104F11940F49022F3E0F02E
:1033C80075FF03E59B20E704F11940F4E59B20E72E
:1033D8000D75FF03759B1F1245DFD21C804EF1E16E
:1033E80012472D9022F1E0FD90120FE05D701C90C5
:1033F80022F0E0FFF1E1125DDF90120FE0FF902272
:10340800F1E0FEEF4E90120FF051FB1247127B01D4
:103418007A2279F41246F5500FC39022F5E09420F1
:103428009022F4E0940340E6F1E1F1F4B1D0301CCD
:103438000261409022F6E0B40103D38001C322FF69
:103448007E04FDFCE0F8A3E0F9A3E0FAA3E0FB1298
:1034580006E8E47B7DFAF9F8120773EF2401FFE42C
:103468003EFEE43DFDE43C2290229512477AF0901E
:10347800229B1208E30000000190229F7401F0F5DE
:10348800FFE5D554C070051244285002C322E4F564
:10349800FF53967F75FF0175D5047F3FFEB1CC754C
:1034A800FF0143D508E4F5FF5394FBF5FF53847FF0
:1034B800F5FF7598FF902299E5F4F075F49C75FF77
:1034C80001A3E5E4F075E4257B017A22799F124790
:1034D8002D90229FE064016002A19FF5FF90229841
:1034E8007414F090229B712FFF780112084D9022DE
:1034F8009B1208D7E5A730E1FB43A70290229B71F6
:103508002FFFE5A730E005E47B018002E4FBFAF930
:10351800F8EF4BFFEE4AFEED49FDEC48FC90229B8C
:103528001208D7902298E014F070B890229B712F5F
:10353800FF781012083A7B6D7A4E79C678411206E8
:10354800E8EF2439FFEE34309169FCE4FBFA7901A5
:10355800F8120773EE547FFEE4FDFC125F719022AF
:103568009B712FFFEB6FFFEA6EFEE8CDEFCDCCEE3F
:10357800CCECFF9022951246D8EF12059490229534
:103588001246D8900001ED1205A690120FE030E621
:1035980006E4F5FF75968075FF01E4F5D59022994C
:1035A800E0F5F475FF01A3E0F5E4125BE990229FD2
:1035B800E0B40103D38001C322F16C75FF0343918A
:1035C80080227E00D1B1B1C375FF03E59120E7FBEE
:1035D80022E4902369F0A304F0E490236CF0E5FA68
:1035E80030E1FB75FF01E5D530E7037F0022E4F504
:1035F800FF75E50875FF0153D8EFE5D530E61A7574
:10360800FF0190236BE5DAF0E4F5DA75FF01E5D602
:1036180030E3FB90236C7401F075FF03759B047510
:10362800FC4175FF03E59B30E7FBE4FB75FF038B6B
:1036380095EB7122FFF19E0BEBB403F075FF037558
:103648009580E4F5FF758EC812471275FF0153D5B2
:10365800FB1245FB7F14B1CA75FF0143D5049023C3
:103668006CE070071245FB7FC8B1CA7B017A2379E9
:103678006AF1F490236AE09023697006E04404FF3D
:103688008002E0FF902369EFF090120EE0B401068B
:1036980075FF0143D81075FF0190236BE0F5DA90B0
:1036A8002369E0FF227FE87E0375FF03D3EF9402CE
:1036B800EE9400400874FE2FFF74FF3EFEEFF59273
:1036C800EE540FF591221262B553DB7F75FF017539
:1036D800D5027F14B1CA1262B543DB8075FF01E4DD
:1036E800F5D5227FFA7E00D1B1B1C3E5FC30E604FE
:1036F800F11940F7E5FC30E6037F032275FF01E589
:10370800D530E6037F0222E5D57F0030E7027F014E
:103718002275FF03E591C330E701D3229023A4E586
:10372800F4F0E0547FF5F47F827E00B1C1F11950C6
:1037380005E5FC20E6F7301D089023A4E04480F559
:10374800F4F168B1C3F1195005E5FC20E6F775FFFF
:1037580001E5D520E702C322E5F4D330E601C32210
:103768007FE87E03902361EEF0A3EFF07B017A23DC
:1037780079631246F55014902363E0FEA3E0FF90AE
:103788002362E09F902361E09E400A902361E0FE5F
:10379800A3E0FFD1B1229023651208D775FF0190ED
:1037A8002365A3E0FDA3A3E4FFFEE4FC7810120860
:1037B8003A8FE1902365A3A3E0FEA3E4FFE4FDFCB8
:1037C800780812083A8FE2902365A3A3A3E0FF8F3D
:1037D800E322FF9022150208D77B017A2279F6228C
:1037E80025E02456F582E43422F58322C21775FFBA
:1037F80003759B1F75FF0390120FE020E71BE59AE6
:10380800540FC394024012E04480F0E4F5FF75C2FF
:10381800A143FC0475FF03D217E5FC30E609E59ADD
:10382800540FC3940540CDE5FC30E611E41205942D
:1038380075FC80F5FC75FC40E5FC20E6FB301703C1
:103848001232FB2275FF02D2ADD2BD75FF02758E12
:1038580071751E0975FF02E58E546F4480F58E90D0
:1038680023491208E30000000022C0E0C0F0C08332
:10387800C082C0D075D008C0FF75FF02E58E30E465
:103888003475FF02E58E54EF4410F58E90234912EB
:10389800087A123463FC9023491208D7900000126A
:1038A8001955E51E700D751E09051CE51C700205ED
:1038B8001B8002151E75FF02E58530E40512181AF3
:1038C800051FD0FFD0D0D082D083D0F0D0E03230E6
:1038D8000B0E121814E4F51FD20C75FF02438580F5
:1038E80022E4F51FC20C22AC02AD01902233ECF0A9
:1038F800A3EDF090222DE0FAA3E0FB90216251188D
:10390800AF03A3EAF0A3EFF0D3902163E09D9021E9
:1039180062E09C404931E6500221C831D240047F20
:10392800808006902166A3E0FF902168EFF0902147
:1039380062E0FEA3E0FF7B017A217969902168E0CB
:10394800FD9022FCE431F5120158902168E0FF7ED9
:103958000031DA9EF031C990216431CC80B79021D2
:1039680066E0FEA3E0FF31C990216431CC31E64026
:103978004F31D240047F808006902166A3E0FF90FB
:103988002168EFF0FD7C00C3902163E09DFF90214A
:1039980062E09CFEF0A3EFF0C3902165E09DF090FB
:1039A8002164E09CF07B017A2179699022FCEC315A
:1039B800F5120158902168E0FF31DA9400F080ADEB
:1039C80022902162EE8FF0020665D3EF9480EE9488
:1039D8000022C3902167E09FF0902166E0229021A9
:1039E80066E0FEA3E0FFD39400EE940022F0A3ED7E
:1039F800F012015D902164E0FEA3E0FF7B017A21D3
:103A08007969902168E0FD9022D0E4F0A3EDF022DE
:103A1800EEF0A3EFF0A3ECF0A3EDF022E490239DE9
:103A2800F0D3900001E09400900000E09400500270
:103A3800610C90239DE0FF04F0EF94054002610CB7
:103A480090000071C0E4F5427117E0FEA3E04E60FB
:103A580031711771C045F0702974002542710FE06B
:103A6800B4011774002542710F7402F0900567E0E5
:103A7800FF7117E4F0A3EFF0800874002542710F7E
:103A8800E4F00542E542640370BE9020B1E0FF60B7
:103A980006F46003E014F0E4F542E542C3940E50E6
:103AA8008012272E71D7605812272E74FF1208A48F
:103AB80071E7704C7125F583E0FF600AF4600771C7
:103AC80025F583E014F07125F583E06014E54212D2
:103AD80027B13420F58312087A12272E1208D780CE
:103AE80007E5421227A771DF71C7E0FEA3E04E6029
:103AF8000C71C7E0FEA3E0AA06F91209D3122067E9
:103B080005428096222400F582E43420F58322E5DC
:103B18004225E024ABF582E43420F58322E54275A2
:103B2800F00CA4240DF582E4342022900629EFF04D
:103B3800A3EBF0900629E0710DE0FEB402037F00CC
:103B480022EE701C900629E0FF710D7401F09005BB
:103B580064E0FCA3E0FDEF7119ECF0A3EDF0802A1E
:103B6800ED241BFFE433FEE4FCFD7B0CFAF9F812AC
:103B78000076EF2405FF900629E07119E0FCA3E028
:103B8800C39FEC940050037F00229020B1E0B4FF63
:103B98001590062AE0540FFFBF0103E48004900546
:103BA80074E09020B1F09020B1E060037F02229091
:103BB80020B174FFF07F012274FFF5F0020665E57D
:103BC8004275F00CA4240BF582E43420F58322120C
:103BD800087AEC4D4E4F22E43420F583E4F022E4D9
:103BE800FBFAF9F8C30208299022AAEEF0A3EFF035
:103BF8009022B174FFF09022AC71D7605F9022B22E
:103C08007403F09022B2E0FFC3940E504FEF1227D6
:103C18003012087A71E7703C9022B21227A5E4347A
:103C280020F5837405F0C0079022AC12087A902220
:103C3800B61208D79022B0E09022BAF09022AAE0FB
:103C4800FCA3E0FDD0071227699022B2E00490227D
:103C5800B1F080089022B2E004F080A79022B1E091
:103C6800FF229022DF7403F002267EE4FEEFC39465
:103C78000E5018EF1227A7E43420F583E05D7C008E
:103C8800B505027C01EC2EFE0F80E2AF06227D0214
:103C9800E4FF80D77D017F039173AB079196EF2BEB
:103CA800FF22E4FD7F0380C3A2AD9213C2ADAF1C17
:103CB800AE1BA21392AD22AD1DE4FF900583125AEC
:103CC800C57F02122ED790058D1262BF605F91B03A
:103CD80090058D120920E924F1B1E31206BC900584
:103CE80083E0FFA3E0FD9005861209209005781275
:103CF8000929900589E090057BF090058AE09005F8
:103D08007CF090058BE0FBA3E090057DCBF0A3EB66
:103D1800F090058D1262C6900585E0FBB13BEF601F
:103D2800037F012290058D12092012003612002E01
:103D38007F0022AE039005827401F0AC0790057CE9
:103D4800E0FB20E71A90057BE0FAD3949E40037FBE
:103D58000022EB20E409EAD3949740037F0022B1C4
:103D6800DAE924B6F9E43AFAEDB1D7E924BBF9E483
:103D78003AFAEEB1D7E924E7F9E43AFAE4120594FD
:103D8800EEB4FF0790057CE054FAF01205087005C0
:103D98007406120594AF04900582E0FD90057BE05F
:103DA8009005A2F090057CE09005A3F090057DE0D9
:103DB800FBA3E09005A4CBF0A3EBF0B1DA9005A645
:103DC800120929900578120920121E027F01221279
:103DD800059490057F020920E92404F9E43AFAEEF3
:103DE8008FF0229005BC1209299005C0E05457F0C5
:103DF8004420FEF0C202AB07C0039005BC120920A4
:103E0800D18C9005BFE0900589F0A3EEF09005C134
:103E1800F15ED00381BF90234DEFF0ED124773EBB5
:103E2800F1557418F090234EE0FF1257539020B6C6
:103E3800EFF090234EE09020B7F0751A0190210F13
:103E4800E0FFB40203751A02EFB40303751A039076
:103E580020E8E0FF600C7F40B402027F20EF4402BC
:103E6800F51AD1869005897404F0A37451F0902353
:103E78004FF15E90234DE0FBAD1DAF1A81C37B016E
:103E88007A2079B490058602092990238FEFF09063
:103E98002110121533A3A3E033333354F890239041
:103EA800F0200E02E14C902390E0FF90238FE0FE7B
:103EB800C39F5055EE131313541FFFF1C6A3A3A3BA
:103EC800F1BBE0FD7C00EE5407FF74017E00A807FB
:103ED800088005C333CE33CED8F9FFEE5CFEEF5D24
:103EE8004E601E90238FE090210CF012568DAD0786
:103EF80090210CE004FF7A3F7B81D11EEF70478050
:103F08006290238FE004F0809DC210C20E90210FB2
:103F18007403F1557407F0E4A3F09020B37403F030
:103F280090210DE0FFD1869005897403F09020B9A7
:103F3800126237F09020B8F14FEF700AFBFAF97F60
:103F480002025305C21022E0FBAD1D81C3F0902090
:103F5800B47401F0A322E0FFA3E090058BCFF0A397
:103F6800EFF0227E3F7F7CE4FB7D01122679BFFFC4
:103F780002F17C22121489E4FF90210CE090239F27
:103F8800F0EF6027E0FF131313541FFEF1C6A3A33D
:103F9800A3E5822EF1BEC083C082E012629A80023D
:103FA800C333D8FCF45ED082D083F090239FE00422
:103FB800FFC192E5822FF582E43583F583229021B3
:103FC80010E0FCA3E0F5828C8322AD07AC0691B02B
:103FD800C3EF9DEE9C4008EF9DFFEE9CFE8013ED25
:103FE800F4FDECF4FCED2401FDE43CFCED2FFFECCA
:103FF8003EFE229006111209297F01121D9F1240D0
:1040080033121DFB45F06022900611120920C003EF
:10401800C002C0011133121DFBFFAEF0F58285F01E
:1040280083D001D002D0031209D7229006111209B9
:1040380020E924E222AD07AC06ED25E0FBEC33FADB
:10404800EF7803C333CE33CED8F92BFFEE3AFE22F6
:10405800E4902237F002183B90060D1209299006C9
:1040680010EDF0115890060D121D81E92406121664
:10407800AF30E71E90060D121D815148BF01139005
:10408800060D121D81E4FD517612242A7A0579590C
:10409800715190061012178B121FBC7B017A05799B
:1040A800587F01902359717851081217954AC360B7
:1040B80001D34002214C511E90223EEFF012179579
:1040C80024F01216AF902244F012179524F1121D15
:1040D800FB126223EFF0122FD9120036E490223B34
:1040E800F0121795121DF945F06050902359E060C1
:1040F8002CA31224277B017A22793F7F05120176AF
:10410800314DC003C002C001121795121DF9F58286
:1041180085F083D001D002D003E4FF801B314DC06D
:1041280003C002C001121795121DF9F58285F083AC
:10413800D001D002D0037F011209D712148990222E
:1041480038120929227B017A22793C2290062DEF28
:10415800F012179524B71216AF540F6408705F1247
:10416800179524B61216AF651D7053200150902282
:104178003B04F012179524BD1216AFC4540FFFF17B
:10418800DF9400FC12179524C231FD31F46011EF61
:104198002403900537F07E437F5F7D6E7C006120AD
:1041A800E4900537F012179524BD1216AFC4540FCA
:1041B80075F03EA4FDACF07E437F5F02175F115897
:1041C8007B017A0579597D047F7F12016290062D63
:1041D80012178B121FBC7B017A0579587F0101AB3E
:1041E8002410F9E43AFAC3E99FF9EA9EFA1205089D
:1041F8005407222410F9E43AFAC3E99DF9EA9C220B
:10420800314D7D13E4FF1201627B017A22793F7DF3
:10421800057F7F020162902381120929514024B74A
:104228001216AF540FFFBF080C514024BD1216AF31
:10423800C4540FFF227F0022902381120920E92213
:104248009005D71209299005DA1209299005DB5142
:10425800A99005D751B01216AFC4540FFF9005DBD3
:10426800121FCA9005DA12248CC4540FFF2290053D
:10427800E31209299005E61209299005E751A9904A
:1042880005E351B01216AF9005E7121FC69005E777
:10429800121955AF059005E7121FCA9005E60209E5
:1042A80020E475F00C020665120920E9240B22901F
:1042B80005D11209299005D41209299005D551A9CB
:1042C8009005D151B01216AF9005D5121FC6AF0593
:1042D800EFC454F0FF9005D4120920EF0205949022
:1042E80005DD1209299005DD1209209005E0120963
:1042F800299005E151A99005DD51B01216AFC454BB
:104308000FFF9005E1121FCA9005E012248C54F8A3
:10431800FFED54074F0205949022377401F0C00650
:10432800C007EDAE047803C333CE33CED8F9FBAA69
:1043380006AE04ED7805C333CE33CED8F92BFDEEA7
:104348003AFCD007D00602184E7B017F04020176A2
:10435800121489E4FF01AB900537E0D394004008BC
:10436800E014F0D3940050041158715822EEF0A3D1
:10437800EFF0A3020929AF82AE837D019005EF71AA
:1043880075E537707791205005C21D1237249005C6
:10439800EFE0FEA3E08E32F533A312092090056109
:1043A800120929AE32AF337DAA9189E4F5FF75D998
:1043B80008F531E5385421602BE53830E504E4FF91
:1043C8009105E49005F4F09005F4E004F01235D975
:1043D800EF60099005F4E0C3941040EB7F021201EE
:1043E800945338DE91755005E004FF80027F0091F8
:1043F8003CD21D123724D2EBA20F92ED2275FF0199
:10440800E5D530E602C322E4F5FF439A80EFF18A4E
:10441800E4F5FF539A7FD322C2EBA2ED920FC2EDCF
:10442800E5F4C330E701D32291285006F165500224
:104438008001C322910543FA04E4F5FF53D1FD43FB
:10444800D10122C21D12372491D8F5D1E5D120E03F
:10445800FBE4F5FF75D90891755005E004FF80026B
:104468007F00913CD21D123724E4F53122901215B9
:10447800E02401FFE433FEC3EF9403EE64809480EC
:1044880022E4F5FF75D102E5D120E0FBE4F5D1F592
:10449800FFEFF192EE540F42D6E4F5FFCFEDCF8F48
:1044A800D422E537702891205005C21D123724B157
:1044B800DF7F0812019491D8F5D1E5D120E0FB43C4
:1044C80038205338FEE4F531A20F92EDD322C322EF
:1044D800E4F5FFE5D154FE440222C0E0C0F0C083F9
:1044E800C082C0D075D008C0FF75FF01E5D530E6A1
:1044F800047F028009E5D57F0030E7027F018F3B0A
:10450800E53BB40212E53724F86002A1BAC2EB75A4
:104518003700433804A1BAE53B64016002A1BAF14F
:104528006C4002A1BAE5317049B1D3120920E5D92E
:10453800120594B1C7E090062EF0125FA812542F0E
:1045480090055DEFF090062EE0FFD39409403BEF15
:10455800D394AA4002803390062EE0F539F1D19029
:104568001215EFF075FF0090062EE0F5D9753103AE
:104578008040E5316403703AB1D312179DE5D91232
:10458800059475FF00E5D330E004914B8024C21DEB
:1045980012372475FF0091DBF5D1E5D120E0FBC28D
:1045A800EB4338027531001539B1C7E539F090038E
:1045B800D8F0D0FFD0D0D082D083D0F0D0E032E590
:1045C800332407F582E43532F5832275FF01F5EAD5
:1045D80075EAFF90056122E5FA30E1FB75FC80750C
:1045E800FF0153D5EFE4F5FC75FC40B1FBE5FC2079
:1045F800E6FB2275FF03E4F59122E5F730E50FE5C8
:10460800F754C0700512371940F0B1FBC322D3220A
:10461800902371EFF0EBF173E9F075FF011236EBBF
:10462800EF64016002C322E5F430E602C3221236C9
:10463800AD1235C3D102400122C21D123724902386
:1046480071E0FF910553F4DFD21D1237247F787E85
:1046580000D19275FF0153E4BFE5E430E7FBF19B1D
:104668007F8AD1ED30E605D1D5E4800775FF01D109
:10467800D5E5D912059475FF0143E440F182400362
:1046880043F420D102400122D322CDEFCDCCEECC91
:10469800D1E1AB94EF4BF10ACBEFCBFAE59130E7E0
:1046A8001DD1E4A994E9F582EF4582FFEB2DF5824F
:1046B800EA3CF583C3EF9582E5F0958340DEE5910A
:1046C80020E709CEECCECFEDCF1235CC2290237265
:1046D800E0FBA3E0FAA3E0F92275FF03AF93EF75BF
:1046E800F010A4FF22FED19290120FE022D1E1AD8A
:1046F80094EF4DF10A8FF01206BCE591C330E70143
:10470800D32224FBFFE5F034FF22E4F5FF75C2E174
:104718007F1ED1ED30E707E4F5FF75C2A122E4F56D
:10472800FF75C28122902384F17AF07F017C127D8B
:1047380001E4FE8D828C83ED2EF582E43CF583E066
:104748002FFF0EEEB412EC901213E06F6009902365
:1047580084D1D8E412059422E4F53781AAE5F75408
:10476800E024FF22E5F754C024FF22A3F0A3EAF0D7
:10477800A322EBF0A3EAF0A3E92290120EE0D3946F
:10478800012233333354F8F5F422F5D7E4F5FF5317
:10479800D6F02275FF01E4F5EA75EAFF22F19BAF36
:1047A800D922E4FFE5F754C0600280F175FF01E506
:1047B800D530E30DF1CA50F4F1A5EF60EFF1CA501E
:1047C800EB2275FF01E5E43322E5F45418131313C3
:1047D800541FFF22C4540FFDC374049DFDE422E45A
:1047E800F5FFE9F192EA540F42D6227B017A057966
:1047F80052022596123DE00206BCE92404121DFB74
:10480800FFAEF022E9121BF5C003C002C0017B0114
:104818007A0379D912242AD001D002D0037F040266
:104828000176AF05900614120929E9240B1216AF78
:10483800540FFEB40F04E4FE80010E900614120912
:1048480020AD069005C7EFF00219E5300408900581
:104858003BE0FF04F022900557E0FF22E4FEEF3032
:10486800E2057440FE8008EF30E104EE4420FEEEDD
:104878004403FF229005F51243781217954AC36046
:1048880001D35024E924BD1216AFC4540FFF90057C
:10489800F5E0B5071312179524BB1216AFFF3101C7
:1048A80024041216AF6F6002C322E49005F9F09059
:1048B80005F5E0FF9005F9E0FEC39F50293101247A
:1048C8000CF9E43AFAEEFF3109120508FD121795C2
:1048D80024BEF9E411F81205086D6002C3229005A0
:1048E800F9E004F080C9D322F9E43AFAE92DF9ECA9
:1048F8003AFAE92FF9EE3AFA229005F6120920E978
:10490800227E0029F9EE3AFA22900557E0FF600965
:10491800900538E0FEEFB50603D38001C322900569
:104928009012092912093E900596120929126172FE
:104938001262A5E4120594C205900541F01250A731
:1049480024051216AF540F640360227B017A0379A1
:10495800D99023101209299005961209207F041274
:10496800017BEF60081216A644801205941216A661
:1049780030E708200D05201402E1381250A724085A
:104988001216AF900557F01217954A6009E924BA34
:104998001216AFFF80027FFF900538EFF01250A784
:1049A80024051216AF540F24FE7002417D147002C4
:1049B800617224FB7002619D24076002E138900552
:1049C800961216A9FF740BD39F400261C41250A718
:1049D80024061216AF30E70D1250A7240A1216AF9C
:1049E8005407FF80027F007E001250A7122FED129D
:1049F80017A011FAC003C002C00112247B12095E7D
:104A08001250A724061216AF30E71730E70D1250E0
:104A1800A7240A1216AF5407FF80027F00EF04FF95
:104A280080027F009005961216A9C39F24F5126193
:104A3800712406121FBE1250A724091216AFFF6573
:104A48001D6006EFF46002E1381216A64401120553
:104A5800941250A724041216AF1261712408121F71
:104A6800BE1250A724051216AF20E702E13812162D
:104A7800A64404C16B1250A724061216AF30E71AD9
:104A88001250A724091216AF12631C1250A7126203
:104A98006EEA94001241F4FF80027F007E001250FB
:104AA800A724091216AF541FFD7C001250A7240A30
:104AB80011F0C003C002C00112247B12095E12501B
:104AC800A724061216AF30E71A1250A724091216A7
:104AD800AF12631C1250A712626EEA94001241F4DE
:104AE800FF80027F001250A724091216AF541F2F0F
:104AF800240BFF9005961216A9C39F126171240614
:104B0800121FBE1250A724091216AF54E0FDE51D6E
:104B1800D39D5002E138120508541F75F008A47C93
:104B2800002DFFEC35F0FED3E51D1225444002E1CF
:104B3800381250A724091216AF54E0FFC3E51D9F91
:104B480014FF1250A7240AF9E43AFAEF1313135486
:104B58001F291250AF12629A8002C333D8FC5E70CC
:104B680002E1381216A64401C16B1216A6440212BD
:104B78000594900538E0FF900557E06F6002E13832
:104B88001250A724091216AF651D6002E1381216EB
:104B9800A64401C16B1250A7240B1216AFC4540FC0
:104BA800900599F06016E0FFD39404500F90059695
:104BB8001216A9FEEF126344D39E400A12617212C4
:104BC80062A5E40205941250A7240A1216AF20E148
:104BD8000281771216A644201205941250A72406C3
:104BE8001216AF30E72130E7171250A7240B121620
:104BF800AF1261B69400FE1250A71241E8FF80027E
:104C08007F00EF04FF80027F007E001250A7240B74
:104C18001216AFC4540FFD7C001250A7240C11F0DB
:104C2800C003C002C00112247B12095E1250A724DF
:104C3800061216AF30E72030E7161250A7240B12E1
:104C480016AF1261B69EFE1250A71241E8FF80020D
:104C58007F00EF04FF80027F001250A7240B12167A
:104C6800AF1263241216A9C39EC39F24F3A1C412D2
:104C780050A7240A1216AFFF20E202A1361216A688
:104C880044401205941250A7240B1216AF12509AE2
:104C98001241FBFA1217A0C003C002C0011250A7AC
:104CA80024061216AF30E71730E70D1250A7240A72
:104CB8001216AF5407FE80027E00EE04FE80027ECC
:104CC80000EE7C00D001D002D00329F9EC3AFAC0FA
:104CD80003C002C00112247B12095E1250A72406E9
:104CE8001216AF30E72430E71A1250A7240B121619
:104CF800AF1247DC9C1250A624111241FD1241F458
:104D0800FE80027E00EE04FE80027E001250A72480
:104D18000B1216AFC4540FFD9005961216A9C39D29
:104D2800C39E24F2FE126172126230EEA1CB1250C1
:104D3800A7240B1216AF12509A1241FBFA1217A0B1
:104D4800C003C002C0011250A724061216AF30E7F4
:104D58001030E706EF5407FF80027F00EF04FF8062
:104D6800027F007E00D001D002D00311FAC003C038
:104D780002C00112247B12095E1250A724061216E3
:104D8800AF30E72230E7181250A7240B1216AF12E3
:104D980061B69EFE1250A724111241EAFF80027FDD
:104DA80000EF04FF80027F001250A7240B1216AFF9
:104DB8001263241216A9C39EC39F24F212617112B2
:104DC8006230EF1205941250A724091216AF651D20
:104DD8006002C1701250A7240B1216AF540FFFFEC9
:104DE800900599E06E70381250A724051216AF90FE
:104DF800059030E7071216A9440D80051216A9443C
:104E080009120594EE240BFDE4331250A62DF9EA9D
:104E18003CFA120508FE12617212620FEE8044EF2E
:104E2800640F6002E1381250A724051216AF30E76C
:104E3800081216A6440412059431115017900599CA
:104E4800E0FF900596120920117C50081216A6441E
:104E5800011205941250A7240C1216AF1261711298
:104E6800620FEF120594E1381250A7240B1216AF07
:104E7800540FFD31114002E1381250A7240A1216CE
:104E8800AF30E02CED2402540FFD1250A7240B1272
:104E980016AFC4540FFFEDC39F50321250A7240C15
:104EA800F9E43AFAED3109120508651D701F8016FC
:104EB800EDC394024017ED240AFFE433FE1250A715
:104EC8001262E2B51D071216A6126284F012179537
:104ED8004A605D1250A724041216AF651D70511266
:104EE800179524BB1216AFFF1250A724091216AF4C
:104EF8006F703D1250A7240B1216AFFF540FFD120E
:104F080050A7240A1216AF30E01BEFC4540F24FE3A
:104F1800540F6D701B1216A6440312059490054198
:104F28007403F0800BEDB401071216A6126284F028
:104F38001250A724051216AF540FFF64016008EF42
:104F480064086003025091EF640870761250A72439
:104F5800061216AF30E71730E70D1250A7240A12D1
:104F680016AF5407FF80027F00EF04FF80027F0026
:104F78007E001250A7240B1216AF12509A1241FB52
:104F880011F9E924011216AF90059CF01250A724DC
:104F9800061216AF30E71730E70D1250A7240A1291
:104FA80016AF5407FF80027F00EF04FF80027F00E6
:104FB8007E001250A7240B1216AF12509A1241FB12
:104FC80080511250A724061216AFFF30E70D125079
:104FD800A7240A1216AF5407FE80027E00EEFD7C5D
:104FE800001250A7122FEDE92DF9EC3AFAE9240145
:104FF8001216AF90059CF0EF30E70D1250A7240A67
:105008001216AF5407FF80027F007E0011A7240903
:10501800F9E43A1248F9E924021216AF90059AF019
:105028001216A690059BF0300D5F30E75C11A7249F
:10503800061216AFFF30E70C11A7240A1216AF5458
:1050480007FE80027E00EEFD7C0011A7122FED12F4
:1050580017A0E92D11AF64017027EF30E70C11A7F5
:10506800240A1216AF5407FF80027F007E0011A7A2
:105078002409F9E41248F8E924021216AF6403601F
:10508800081216A654FA1205941216A630E002D297
:105098000522C4540FFDC374049DFDE49400FC90E4
:1050A8000596120920E922F9EC3AFA020508EFC33D
:1050B8009403500774432F11C4EDF022F582E434B1
:1050C80005F58322E4FEEE11EBB5070FEE25E0248B
:1050D80054F582E43405F583E0FF220EEEB402E6CF
:1050E8007F012225E02453F582E43405F583E0228C
:1050F800902351EFF0A3EDF0A3EAF0A3EBF0122F09
:105108005D12249A902352E05457F0902351E0FF07
:1051180011CC122F5D123E8C902140E0900589F051
:10512800902352E090058AF0902353E0FDA3E0908D
:10513800058BCDF0A3EDF0902351023F4FEF54F8CB
:105148004DFF22900541E030E10AD209123CB0EF50
:105158009003CEF022EFB47F03D38001C3223175D0
:10516800C209E49003CEF090053A04F0227B017A5C
:105178000579537D04E4FF020162901216EFF022D4
:1051880090053AEFF02231A7E49003D931E6E4F52F
:105198001DFD31ED510831F61201677F0180E19064
:1051A80021437401F0E4A3F09020EB04F0E4A3F0B1
:1051B8009021107421F0A37441F090210F7403F032
:1051C8007B017A21791B902269120929511C12014D
:1051D800C11227DBE49020B3F0C20DC20E22FFFEFD
:1051E800FDFC0208D77B017A0379D902016C7B00A8
:1051F8007A00791D90232B1209290B7A0379D92279
:10520800E4FF75F0F3EF122DFEE4F00FEFB404F2B3
:10521800E4F544227A2079BA90226C1209297A217D
:10522800791590226F1209297A21790E22E4FFFE5E
:10523800FDFC9005681208D7E490056C31E6E4FFA0
:10524800FEFDFC9005700208D7E490239EF09023A1
:105258009EE0FFD3946F501FEF2410FF122F7F9012
:10526800239EE0FEE42EF582E4344FF583EFF090C0
:10527800239EE004F080D77B017A4F79009022C00A
:10528800E4F0A37470F07F0F7E1D1225F2EF4E7FBD
:105298000070027F01901218EFF024FF229012187C
:1052A800E024FF22901218E060057F10022F7F7F14
:1052B800FF22E4FFED60157E01EE600C1205085E2A
:1052C80060010FEE2EFE80F151D5DDEB227401292D
:1052D800F9E43AFA2251E404F0023E1EE49020E890
:1052E800F090210F229020B2E0FF14F0EF700D71C2
:1052F80056B40308E4F0FBFAF9FF7105227156B4BD
:10530800030280459020B3E0B40107C20DE51D708B
:1053180001F09020B3E0FF7006C20D9020E8F090F5
:10532800210AE0FCA3E0FD4C60158D828C83AD1D45
:105338001209D79020B3E0700690210AF0A3F090EC
:1053480020B3E0B401077403F07F04715E221227D2
:10535800DB9020B3E0229023A0EFF01227DB90230C
:10536800A0E060049020B2F07E527FED7BFF7D2F9D
:10537800122679902114EFF0BFFF0251ED22AB0500
:10538800AA049020B3E07017EF24FF920D300D09A6
:1053980090210AEAF0A3EBF02290210A0217831267
:1053A8001489E4FF6105E4F514F515F516F517758C
:1053B800FF0185FD1075FF0185C91175FF0185CABB
:1053C8001275FF0185CB1322EF71D7F00200009010
:1053D8001219F09023A122901219E0FFF4600590B1
:1053E80023A1EFF074FF71D7E0FF22901219E0FEBD
:1053F80064069023A16004EFF08008EEF090121983
:1054080074FFF09023A1E0FF22EFC3940340027FD2
:10541800029143123FBBE493FE60078F3C5406FFA2
:105428008005E4F53C7F02EF24FE600C24FE600555
:1054380080007F01227F02227F032275F01DE53064
:10544800900BC8020914AF37EFC36001D32212448E
:10545800304006914E400291622230121B75FF02C5
:10546800E5E430E10675E40675E403B1547B017A9E
:105478002379A2122596C21222902392EDF090234E
:1054880091EFF091D5AE07902392E0FF6E603B90CC
:105498002391E0FD91E99023A2E07023D2127B01D1
:1054A8007A2379A27C547D569022E7741EF0A37467
:1054B800FFF01225639023A2E0700C91628008909F
:1054C80023A2E0FF1227BB7F02227F012275FF0182
:1054D800E5C420E7FB8FC5B1D1E5C420E7FBAFC623
:1054E8002275FF01E5C420E7FBAE058EC58FC6B166
:1054F8004DF5C4E5C420E7FB9023A37401F02275A1
:10550800FF01E5C420E7FB75FF037596FF75841856
:105518007FFF91D5EF64AA602A75FF03E58430E523
:105528002075FF0175C6FF75C5FFB14DF5C4E5C40B
:1055380020E7FBAFC515C5EF70F0B1C8E5C420E79B
:10554800FBC322D322E5C4542044842275FF01E51D
:10555800C420E7FB75C5FFE5C454204481F5C4E5C4
:10556800C420E7FBAFC6B1D1E5C420E7FBEF65C6B1
:10557800604175FF0175C5FF75C6FFB14DF5C4E5FE
:10558800C420E7FB75FF0343840475FF01B1C875A8
:10559800FF01E5C420E7FB75FF035384FB75FF019A
:1055A80075C6AAE5C454204487F5C4E5C420E7FBC2
:1055B800E4F5C5AFC515C5EF709D9023A304F0228F
:1055C800E5C45420448EF5C422E5C454204480F533
:1055D800C42275FF02E5E430E10675E40675E403CC
:1055E800B107C212E49023A2F022EFC3940E500533
:1055F800900560EFF022E53A540FFF22E53AC39494
:10560800F0501F533AF0D12DFE740FC39F4005EEA2
:10561800940E4005433A0D8003EF423AE53A540FA1
:10562800FF227F0022E53AC4540FFEEF9004DC937A
:105638002E22D12DFFC3940E40027F0DEF9004BEA1
:1056480093FF22EF30E30774342DF8E6FF22743F0E
:105658002DF8E6FD201004EE30E00BE53AC394F097
:105668005020D18D8018E53D6006FDE4F53D80129F
:10567800E53AC394F0500BE53A540FFF6004D13A71
:10568800AD07AF0522900560E0FDFFC3740ED1B5EC
:10569800EFC4F8540FC868FFEEC454F048FEE53A6A
:1056A80054F0C31225447F005002AF05229FFFE447
:1056B8009400FE224338015338DF90061CE0FDD1E8
:1056C8004B90061CE0FDF1074004E4F5372243FA4D
:1056D800045338FB301505124441800A7F55D1F038
:1056E8007F55D1F0D2EBD32275FF01E5D520E60234
:1056F800C322E5FA540360FA75FF018FC3D32290E1
:105708000627EDF0A3EFF07F01120194900627E041
:10571800FFA3E0FBE49022F3F07D0212333A50EC51
:10572800D3229003E0E06402701F8F3FAF058F40E3
:10573800AF038F419005ECE0F534A3E0F535A3E025
:10574800F536AF3F12018AD322C322E53A54F0C49A
:10575800540F2FFFC3941040027F0FEF9004CC9397
:10576800FF227E10EE60091EEE9004CC93B507F47C
:10577800EEC3940E40027E0DEE9004BE93FF22C24B
:10578800AFEF4238D2AF22E53820E50FC21D1237FD
:10579800241244D8F5D1E5D120E0FBE4F53122907C
:1057A8000604120929900607EDF0E4A3F0ED54FE73
:1057B800900607F06030E4FF121D9FBF0128900695
:1057C80004120920123470501D900605E475F00289
:1057D800120665900608E02402F0900608E0FF90A3
:1057E8000607E06F70D87F01121D9F900608E0FF42
:1057F800227D02F1A7EFC36001D32290061DEFF0CE
:10580800ED24FE60191460262402703BEB2402FF8D
:10581800E43AFE7C007D501205C87D60801E117937
:10582800C333CE33CED8F9FF7C007D28800E1179A2
:10583800C333CE33CED8F9FF7C007D641205DA90ED
:10584800061EEEF0A3EFF090061DE01184F583C06C
:1058580083C08212089690061FE02401FF90061E5E
:10586800E03400FEE4FCFD1206DBD082D08302089F
:10587800D7EB2401FFE43AFEEF78032225E025E088
:105888002468F582E4340522EF1184F58312087A3E
:105898000208609003D9E0F4FFA3E06FFFA3E06F74
:1058A800FFA3E06FFF6455601DEF64056018EF64A7
:1058B800256013EF6445600EEF64656009EF644A84
:1058C8006004EFB40A010F90055EEFF022E4FF7563
:1058D800F0F3EF122DFEE060037F00220FEFB40417
:1058E800EE7F0122EF7011ED600775FF0143AE01F5
:1058F8002275FF0153AEFE22EFB40110ED6007756B
:10590800FF0143AE022275FF0153AEFD2275FF026F
:10591800E5E630E2037F0322E5E630E3037F002279
:10592800E5E630E1037F0422E5E67F0530E0027F0B
:105938000122EF600775FF0253E6BF2275FF02439D
:10594800E64022EF14600F146014240270188B8054
:1059580075FF018DFD228B9075FF018DC9228BA0EB
:1059680075FF018DCA22AF038FB075FF01AF058F98
:10597800CB229022EA120929EF146011146018242E
:1059880002701E31B4E58031BAE5FD801C31B4E502
:105998009031BAE5C9801231B4E5A031BAE5CA80C0
:1059A8000831B4E5B031BAE5CB0205949022ED0296
:1059B800092012059475FF019022EA020920E4F5F6
:1059C800FFAF9122E4F5FFAF92229023A3E0FF22DC
:1059D800E49023A3F022EB600875FF0153CDFD800E
:1059E8000675FF0143CD02ED600553FBDF800343DD
:1059F800FB20EF600775FF0243E1402275FF025369
:105A0800E1BF2243FB1075FF0243E640EF600D75CE
:105A1800FF02E5E120E7FB43FB0D800343FB0E801B
:105A2800FE90235551C251A3AC00AD01AE02AF03A5
:105A3800C006C00790235551BAFBAA06E4F9F8D06E
:105A480007D006D31208137E0050047F0180027F1E
:105A580000C006C00751A3D0E02FFFD0E03E90233E
:105A680055F0A3EFF053ECFC902355E0FCA3E0FDC8
:105A7800EC540342EC75FF02EDF5AF75ED0275EDE0
:105A880004A3E0600543EC08800353ECF790235827
:105A9800E0600443EC042253ECFB22902355E0FE23
:105AA800A3E0FBAA06E4F9F87F807E387D01FC02BA
:105AB8000076E0C313FEA3E01322EEF0A3EFF0A3F9
:105AC800EDF0A3EBF022EF600775FF0243E610222A
