:020000040000FA
:100000000218000218035B911F552202180B3D10C5
:0A0010007F042202181302200522CB
:06001B0002181B022EC8B2
:06002300021823023A6BF3
:06002B0002182B023A3618
:06003300021833D2032283
:06003B0002183BE4A19451
:060043000218437F0022B9
:06004B0002184B02573DB4
:0700530002185375ED0422B1
:07005B0002185B75ED0222A3
:06006300021863AFEF225A
:06006B0002186B8FEF226A
:10007300021873C2D5E830E70FB2D5E4C39BFBE4A3
:100083009AFAE499F9E498F8EC30E717B2D512003C
:10009300AC120773E4C39BFBE49AFAE499F9E4987E
:1000A300F8800312077330D50DE4C39FFFE49EFE6F
:1000B300E49DFDE49CFC227881E4F6D8FD900000E9
:1000C3007F007E10E4F0A3DFFCDEFA90239CA3E51F
:1000D30083C394204011FEAF829020000E0FE48072
:1000E30002F0A3DFFCDEFA120120020B2B22325AAC
:0B00F3002D5761766520342E36310059
:10010000C0437401C0E0C082C08375430AE5FF5458
:10011000CF4490F5FF22C0437401C0E0C082C08389
:10012000754320E5FF54CF4490F5FF22C04374018E
:10013000C0E0C082C083754336E5FF54CF44A0F5CC
:10014000FF22C0437401C0E0C082C08375434CE508
:10015000FF54CF44B0F5FF2290800021169080A775
:10016000211690812D211690807B2116908056219A
:100170001690814021169081492116908175211693
:100180009081B021169082DD21169083C5211690B2
:100190008343211690838D212C908277212C90828D
:1001A000DC212C9082AC212C908000212C90838E1D
:1001B000212C9083BE212C9082A3212C908362213C
:1001C0002C90840A212C000D0A4E657720686F6DF3
:1001D00065494420000A0D000A0D43757272656E70
:1001E0007420486F6D652049443A2000446973616A
:1001F000626C696E67206175746F2074657374201A
:100200006D6F64650A0D00456E61626C696E6720F2
:100210006175746F2074657374206D6F64650A0D69
:100220000056616C6964206672657175656E6369FC
:1002300065733A003A20000A0D4672657175656E65
:1002400063792073656C65637465643A20000A0DF8
:100250005573652027682720666F722068656C706B
:100260000A0D00526563656976656420000A0D56C3
:10027000657273696F6E2020312E343620000A0DAE
:1002800056616C696420636F6D6D616E64733A0AC8
:100290000D6820546869732068656C7020746578F7
:1002A000740A0D45205365742045550A0D55205399
:1002B00065742055530A0D482053657420484B0A35
:1002C0000D5A2053657420414E5A0A0D492053653A
:1002D0007420494E0A0D4D20536574204D590A0D66
:1002E0004A20536574204A500A0D532053656E64AA
:1002F0002074657374206672616D65730A0D412008
:100300004361707475726520486F6D65494420665D
:10031000726F6D204E494620616E642053656E6495
:100320002074657374206672616D65730A0D4320D5
:1003300053657420636F756E743D313030300A0D33
:100340004E20536574206E6F646549440A0D522037
:100350005265736574206D6F64756C650A0D462077
:10036000536574206672657175656E637920627974
:10037000206E756D6265720A0D0082D701A3455526
:1003800000555300414E5A00484B0054465F3836E2
:10039000360054465F3837300054465F39303600F7
:1003A00054465F393130004D5900494E004A5000E3
:1003B00054465F3837380054465F38383200544668
:1003C0005F3838360054465F3933325F3343480074
:1003D00054465F3934305F3343480054465F383405
:1003E000305F3343480054465F3835305F3343480D
:1003F000004A505F33324D485A0054465F38333616
:100400005F3343480054465F3834315F334348001C
:1004100054465F3835315F3343480054465F3933C3
:10042000335F3343480054465F3934315F334348C8
:100430000054465F3833355F334348004A505F39D4
:10044000353000525500494C004B5200434E0003DA
:100450007E038103840388038B0392039903A00323
:10046000A703AA03AD03B003B703BE03C503D003BC
:10047000DB03E603F103FA04050410041B0426045D
:1004800031043C044304460449044C0000000000CD
:100490000000000000010000000101010101010154
:1004A000010101010100000100EF9004B2939001ED
:1004B00000730A20364CE543FF22EFF543223F2428
:1004C0001E16110E0B09070504030201F0C8A791BF
:1004D000776760463835323024222014000101024B
:1004E000020303040405050606070718AE3D083C91
:0B04F000533C6B822D1C1613111010E2
:10050800BB010689828A83E0225002E722BBFE02F1
:10051800E32289828A83E49322BB010B89828A833E
:10052800F8E0C828F0E822500327C722BBFE07F8E6
:10053800E3C828F3E8228A838982E49322BB010C6A
:10054800E58229F582E5833AF583E0225006E9251C
:1005580082F8E622BBFE06E92582F8E222E5822936
:10056800F582E5833AF583E49322BB010989828AFF
:1005780083F8E028F022500327F722BBFE05F8E3B2
:1005880028F3228A838982F8E4932822BB0106890A
:10059800828A83F0225002F722BBFE01F322F8BBC5
:1005A800010DE58229F582E5833AF583E8F02250CA
:1005B80006E92582C8F622BBFE05E92582C8F22293
:1005C800EF8DF0A4A8F0CF8CF0A428CE8DF0A42E47
:1005D800FE22BC000BBE0029EF8DF084FFADF02297
:1005E800E4CCF875F008EF2FFFEE33FEEC33FCEEA9
:1005F8009DEC984005FCEE9DFE0FD5F0E9E4CEFD9C
:1006080022EDF8F5F0EE8420D21CFEADF075F0086E
:10061800EF2FFFED33FD4007985006D5F0F222C3C7
:1006280098FD0FD5F0EA22C2D5EC30E709B2D5E43F
:10063800C39DFDE49CFCEE30E715B2D5E4C39FFFF3
:10064800E49EFE1205DAC3E49DFDE49CFC800312DF
:1006580005DA30D507C3E49FFFE49EFE22C5F0F813
:10066800A3E028F0C5F0F8E582158270021583E052
:1006780038F022A3F8E0C5F025F0F0E58215827085
:10068800021583E0C838F0E822BB010A89828A8310
:10069800E0F5F0A3E022500687F009E71922BBFE37
:1006A80007E3F5F009E3192289828A83E493F5F0D8
:1006B80074019322BB010A89828A83F0E5F0A3F0D2
:1006C800225006F709A7F01922BBFE06F3E5F00948
:1006D800F31922EF2BFFEE3AFEED39FDEC38FC2240
:1006E800E88FF0A4CC8BF0A42CFCE98EF0A42CFCB1
:1006F8008AF0EDA42CFCEA8EF0A4CDA8F08BF0A42F
:100708002DCC3825F0FDE98FF0A42CCD35F0FCEB8D
:100718008EF0A4FEA9F0EB8FF0A4CFC5F02ECD3952
:10072800FEE43CFCEAA42DCE35F0FDE43CFC227549
:10073800F008758200EF2FFFEE33FECD33CDCC33BA
:10074800CCC58233C5829BED9AEC99E58298400C22
:10075800F582EE9BFEED9AFDEC99FC0FD5F0D6E400
:10076800CEFBE4CDFAE4CCF9A88222B800C1B900E6
:1007780059BA002DEC8BF084CFCECDFCE5F0CBF947
:100788007818EF2FFFEE33FEED33FDEC33FCEB333F
:10079800FB10D703994004EB99FB0FD8E5E4F9FA6D
:1007A800227818EF2FFFEE33FEED33FDEC33FCC952
:1007B80033C910D7059BE99A4007EC9BFCE99AF9E5
:1007C8000FD8E0E4C9FAE4CCFB2275F010EF2FFF54
:1007D800EE33FEED33FDCC33CCC833C810D7079BBE
:1007E800EC9AE899400AED9BFDEC9AFCE899F80F21
:1007F800D5F0DAE4CDFBE4CCFAE4C8F922C3E49FEF
:10080800FFE49EFEE49DFDE49CFC22EB9FF5F0EAEC
:100818009E42F0E99D42F0EC6480C864809845F0FF
:1008280022EB9FF5F0EA9E42F0E99D42F0E89C45F4
:10083800F022E8600FECC313FCED13FDEE13FEEF9E
:1008480013FFD8F122E8600FEFC333FFEE33FEED5C
:1008580033FDEC33FCD8F122BB010789828A83027D
:1008680008D75005E9F8020A06BBFE05E9F8020AAE
:100878001222E0FCA3E0FDA3E0FEA3E0FF22E49344
:10088800FC740193FD740293FE740393FF22E0F855
:10089800A3E0F9A3E0FAA3E0FB227401FF3395E09B
:1008A800FEFDFCA3A3A3E02FFFF0E58215827002F2
:1008B8001583E03EFEF0E582158270021583E03D67
:1008C800FDF0E582158270021583E03CFCF022EC15
:1008D800F0A3EDF0A3EEF0A3EFF022A8828583F059
:1008E800D083D0821208FA1208FA1208FA1208FA0B
:1008F800E473E493A3C583C5F0C583C8C582C8F073
:10090800A3C583C5F0C583C8C582C822A42582F5BE
:1009180082E5F03583F58322E0FBA3E0FAA3E0F952
:1009280022EBF0A3EAF0A3E9F022E493FB7401932D
:10093800FA740293F922BB010789828A830209208B
:100948005005E9F8020A1EBBFE05E9F8020A3089DB
:10095800828A83020932BB011A89828A83D0F0D045
:10096800E0F8D0E0F9D0E0FAD0E0FBE8C0E0C0F071
:100978000209295016E9F8D083D082D0E0F9D0E0F6
:10098800FAD0E0FBC082C083020A27BBFE16E9F852
:10099800D083D082D0E0F9D0E0FAD0E0FBC082C0AA
:1009A80083020A3922D083D082F8E493701274014A
:1009B80093700DA3A393F8740193F5828883E4736D
:1009C8007402936860EFA3A3A380DF8A838982E41B
:1009D80073EC8EF0A4CCC5F0CCCDF8EFA4CEC5F066
:1009E8002DFDE43CFCE8A42EC8C5F03DFDE43CFC2C
:1009F800EFA4FFE5F028FEE43DFDE43CFC22ECF624
:100A080008EDF608EEF608EFF622ECF208EDF2082B
:100A1800EEF208EFF222E6FB08E6FA08E6F922EB26
:100A2800F608EAF608E9F622E2FB08E2FA08E2F933
:100A380022EBF208EAF208E9F2224103A900410395
:100A4800A800C10AE002020000004AE00202000217
:100A58000034E00102000954E00102000AA5E005A3
:100A6800020031003402043DC10F41200100412041
:100A780062FF41205A00C10E41205B014120000065
:100A880041239700C11541053106011500011000E9
:100A98004105300141052E01C111011B000118005B
:100AA80043222E00000041222D0041223100C105C1
:100AB800C1074121E3004121F5014421DF00000085
:100AC800004221F200004221F800004221F6000A0B
:100AD8004121E5004121E4004C21E6556E6B6E6F23
:100AE800776E2020202000E0020200360013E00C80
:100AF8000200380000030A0003000A012E043DE04A
:100B0800050200440013FF012EE002020049000024
:100B18000075818175FF03759E021201200225D997
:100B28000200F0900A42E47E019360F4A3FF543F70
:100B380030E509541FFEE493A360010ECF54E0B4DE
:100B4800E00EEFFAEEF9A3A3A3A3DAFDD9FB80D652
:100B580054C025E0604B5026E493A3F85407240CB6
:100B6800C8C333C4540F4420C8834004F4568001DA
:100B780046F6DFE480B00102040810204080E493C8
:100B8800A3FAE493A3F8E493A3C8C582C8CAC583AB
:100B9800CAF0A3C8C582C8CAC583CADFE9DEE78030
:100BA80085E493A3F8E493A34003F68001F208DFF9
:100BB800F4020B2E000D45DA000D40300000000055
:100BC800020C00013F3F3F040404353535000000A6
:100BD80000000DFA20000DDC7000000000020C007F
:100BE800013F3F3F04040435353500000000000E86
:100BF80008F8000E0F3800000000020C00003F3F0C
:100C08003F04040440404000000000000E08F800C3
:100C18000E08F800000000020C00013F3F3F0404EA
:100C28000440404000000000000DBBA0000D3860EB
:100C380000000000020C00013F3F3F04040435356A
:100C48003500000000000DE8F0000D48000000002D
:100C580000020C00013F3F3F040404353535000015
:100C68000000000DFED0000DD4A000000000020C12
:100C780000013F3F3F040404353535000000000003
:100C88000D4E40000DE44000000000020C00013F42
:100C98003F3F04040435353500000000000D3F04D3
:100CA800000D3F0400000000020C00013F3F3F041C
:100CB800040440404000000000000D33B0000D3334
:100CC800B000000000020C00013F3F3F0404044054
:100CD800404000000000000E1384000E18FC000EB7
:100CE800225C020202003F3F3F0404043232320019
:100CF800020190000D5DE0000D65B00000000002EB
:100D08000C00013F3F3F0404044040400000000045
:100D1800000D6D80000D755000000000020C0001F0
:100D28003F3F3F04040440404000000000000D7DA8
:100D380020000D84F000000000020C00013F3F3F3E
:100D480004040440404000000000000E3C5A000E1D
:100D58004A6A000E4D8A020202053F3F3F0404041E
:100D680032323200020190000E5B99000E69A80031
:100D78000E6CC8020202053F3F3F040404323232BF
:100D880000020190000CD509000CE318000CE638AD
:100D9800020202053F3F3F040404323232000201DE
:100DA80090000CFC17000D0A27000D0D46020202E8
:100DB800053F3F3F04040432323200020190000E26
:100DC8000E0C000E18FC000E225C020202053F3FCA
:100DD8003F04040432323200020190000CC20400C5
:100DE8000CD014000CD334020202053F3F3F040428
:100DF8000432323200020190000CD58C000CE39CC6
:100E0800000CE6BC020202053F3F3F0404043232F4
:100E18003200020190000CFC9C000D0AAC000D0D84
:100E2800CC020202053F3F3F040404323232000282
:100E38000190000E3CEC000E4AFC000E4E1C020213
:100E480002053F3F3F0404043232320002019000A1
:100E58000E5C2C000E6A3C000E6D5C020202053F1F
:100E68003F3F04040432323200020190000CC18179
:100E7800000CCF91000CD2B1020202053F3F3F04A3
:100E8800040432323200020190000E82A7000E9054
:100E9800B7000E93D7020202053F3F3F0404043215
:100EA800323200020190000D4288000D4288000095
:100EB8000000020C00013F3F3F0404044040400092
:100EC800000000000DFA20000DFA200000000002CA
:100ED8000C00003F3F3F0404044040400000000075
:100EE800000E0D44000E1064000E15DC020202060E
:100EF8003F3F3F04040440404005320FA0000D402E
:100F080030000D403000000000020C00013F3F3F60
:100F180004040440404000000000000A4850001942
:100F2800E4FD7C0CAB050DEB9000F2938F828E8371
:100F3800F00FBF00010EDCEC0200108F828E83E4FC
:100F4800F0A37404F0F158743DF0F158A3E4F022D2
:100F58008F828E83A3A3229003B47402F09003A817
:100F6800E0FF1201B29003B47405F022123D37126B
:100F7800419A12490F1238349003AAE064017003B1
:100F880002104E7FFF12133690058431297F091213
:100F98003AE1BF540C7F0A123AE1BFA5047F0180F1
:100FA800027F009003A8EFF090058412152C701DA5
:100FB8007F04123AE1EF2401FFE433FEC374011207
:100FC80034F57F0050027F019003A8EFF09003A84A
:100FD800E064017049900584312012162A1260A637
:100FE80012132E90058AE0FEA3E0900584125FF3A9
:100FF800E43AFA900587120929E92408F9E43AFE47
:10100800AF017B011260A6712E90058AE064017021
:1010180004A3E0642E600711579003A8EFF0900333
:10102800A8E070227E007F04C006C3744A9404FEC0
:1010380074009400D14F7112D00612015874FFFD4C
:10104800FCE4FFFE71BA123CC31241880201677EBC
:101058007F7F88902220EEF0A3EFF0F5828E83B197
:101068001D6077711A7102902214125FF3E43AFA44
:1010780090221D120929D12A7A22792B712A9022CD
:101088002BE0FEA3E0FF907FC07401936F7003E430
:10109800936E7F0060027F01902222EFF090221D64
:1010A800F1D9F9E43AFEAF017B017A22792B712A52
:1010B800902222E0FF90222BE0FCA3E0FD907FC26B
:1010C8007401936D7003E4936C7E0060027E01EFFF
:1010D8004E902222F060037F0022D16CD139F0A318
:1010E800EFF0AE02AF01AC02AD01E02DFD9022257C
:1010F800E03CCD2402CD3400FC71BAB12970022144
:10110800A0219312609C947EEC947F500241D1D12F
:101118006CD139B153B11D603A711A7102FF902236
:1011280014123D80C3E99FF9EA9EFA51FC90221AF5
:10113800120920C003C002C00151F6D3D082D08367
:10114800D0E0E99582EA9583400D51E4125FB1B190
:101158005C8004710A51FC710212601F402D51F627
:10116800126012CF24FBCF34FFFEC0067113D145A5
:10117800F0D00612015851F6126039CF24FBCF3453
:10118800FF12602CFC71BA51F6D15690222074FFE0
:1011980075F0F6120665210B902220747FF0A37477
:1011A8007EF012609C9488EC947F400241D1D16C0F
:1011B80074069324FEFE74059334FF902225F0A351
:1011C800CEF08D828C83740393FF74049390222352
:1011D800CFF0A3EFF07102FF4E70024186902220FB
:1011E80012180D74079324FC601D14602B240370DF
:1011F800467B017A00790051FC51F6C3EF99FFEE66
:10120800D13190222380207B017A0079BF51FC5193
:10121800F6126045D131800F7B017A0079EF51FCDD
:1012280051F6126045D131F0A3EFF0E92402F9E458
:101238003AFA902217800DE4902223F0A3F0FBFAEB
:10124800F990221A12092990221A120920AE02AF27
:101258000151F6E96F7002EA6E600751E4125FB15E
:10126800B15C902220B114740793640270147F0952
:101278007D54123A8E7F0A7DA5123A8E8004710A37
:1012880051FC710212601F403451F6126012FEC008
:10129800067113D145F0D00612015851F612603983
:1012A80012602CFC71BA51F6E924FE902217F1F570
:1012B800902220B114D139F0A3EFF0D1569022201A
:1012C800E475F00A12066521AA9022257400F0A39D
:1012D800744AF07E007F00D15A7F022290221A12AF
:1012E8000920AE02AF01902227EEF0A3EFF0902282
:1012F8001702092090221A020929902223E0FEA34E
:10130800E022902223E4F0A37405F07B007A0079B0
:101318000022902214120920AE02AF017B017A222A
:1013280079239022F2E4F0A37402F002015D902286
:1013380075EFF07B027A007902A312092980679081
:10134800227C12382D6069902276120920E92FF943
:10135800EA3EFAE924FB902279F1F5D12A7A22793A
:101368007E712A90227EE0FEA3E0FF90227CE0B509
:10137800061FA3E0B5071A902279F1D9F9E43AAF2C
:1013880001123AE1902275E0B50708902279020926
:1013980020801D90227CE0FEA3E0FF902277D124DC
:1013A800902276120920D12A7A22797C712A808F9C
:1013B8006113902269126058A3740AF0A37442F072
:1013C800B111E4937002A110E493FF541F90226FAF
:1013D800F1E0EFC41354071209AD13FE0014000125
:1013E800140202141603142C04143D05144F061499
:1013F8005A07000013C8802C803BB111740193FF79
:10140800740293902271CF1260CA2403803FB133D3
:10141800740293FD740393902271CDF0A3EDF0EF65
:101428002404801EB111740193FF902271E41260AC
:10143800CA24028018B133740293902271F1E0EF4C
:101448002403FFE43EA106902270E0240112610A01
:10145800A10690226DE0FCA3E0FDF5828C83740167
:1014680093FB7A00902270E0FEE42BFFEA3EB15035
:10147800740393FE90226D12180F740493FDEDFF10
:1014880090227112281D90226AE09F902269E09EA6
:10149800506390226BF1E7902272E09F902271E0F6
:1014A8009E5052E4902273F0A3F090226FF1E790DF
:1014B8002274E09F902273E09E503AE0FCA3E0FD86
:1014C800902272E02DFF902271E03CFE90226EE0A7
:1014D8002405FB90226DE034008B82F583E5822D94
:1014E800F582E5833CF583E493FD12017190227344
:1014F80012308D80B5902270E0240512610A902286
:101508006D8FF012066561C82290226DE0FEA3E09F
:10151800F5828E8322740793FF7136902214120984
:1015280029902214120920E94A4B2290226DE0FCEE
:10153800A3E0FDF5828C83740193FB7A00902270FE
:10154800E0FEE42BFFEA3EFE90226FF0A3EFF08D61
:10155800828C8322902158126058AF03A3EAF0A32B
:10156800EFF0D3902159E09D902158E09C4048121B
:1015780060035002C12012611240047F80800690EF
:10158800215CA3E0FF90215EEFF0902158E0FEA3DC
:10159800E0FF7B017A21795F90215EE0FD9022F2E5
:1015A800E4125F8E1260C17E001260649EF0D12149
:1015B80090215AD12480B890215CE0FEA3E0FFD1AD
:1015C8002190215AD124126003404D126112400427
:1015D8007F80800690215CA3E0FF90215EEFF0FD04
:1015E8007C00C3902159E09DFF902158E09CFEF0BB
:1015F800A3EFF0C390215BE09DF090215AE09CF0AE
:101608007B017A21795F9022F2EC125F8E1260C121
:101618001260649400F080AE22902158EE8FF002A0
:101628000665AE02AF017B01229ACF24FECF34FFBC
:1016380022740593FF740693902225CF22A3E0F825
:10164800A3E0C39DFEE89C9022C6F0A3CE22AE0282
:10165800AF017B017A2279259022C6E4F0A37402B7
:10166800F0020158902220E0FEA3E0FFF5828E836D
:101678001209329022171209298F828E8322902311
:101688004F1237F0125BCDF12F4AC36001D34002ED
:10169800E124125BA0902234EFF0F12F24E5121D13
:1016A800BB90223AF0F12F24E6F1C6124041EFF048
:1016B800F1D312003EE4902231F0F12F24DBF1C681
:1016C80045F0605090234FE0602CA3121D717B0100
:1016D8007A2279357F05120176F1EEC003C002C087
:1016E80001F12F24DBF1C6F58285F083D001D00209
:1016F800D003E4FF801BF1EEC003C002C001F12F4C
:1017080024DBF1C6F58285F083D001D002D0037FB7
:10171800011209D7711390222E12092922E090058F
:1017280029F0901215E0FF90222E120920E922F1EB
:101738002F4AC36001D3507CF12F1221C174FF12CC
:101748000572120508FFD394014007EF9403500275
:101758008056F12F2401121DBB64017050F12FF146
:10176800C4FFAEF054076403703EF12F24B6121D77
:10177800BB653E7033F12F24B7121DBB20E729F15A
:101788002F24B9121DBBD39440501D200F1AF12FDE
:10179800122EDEEF54F84402FF123FEAF12F24B76D
:1017A800121DBB4410120594F1D3022EC8E49022F6
:1017B80031F0F1CD229005B0120920E92404F9E4B2
:1017C8003AFA0206917113E4FFC18690222E0209AB
:1017D80020120920E9240222FDE4F0A3EDF022E022
:1017E800FEA3E0FFC3227B017A22793222F9EA3490
:0517F800FFFA020929BF
:03180000020B19BF
:101808007FB890205EE0FCA3E0F5828C832275FF10
:101818000275E40475E40175E40222EFF0902353A5
:1018280002092002302A75FF0275E404E4F5E42277
:0F18380075FF02E5E430E10675E40675E403226E
:10184B00024AC39005D2EDF09005D1EFF0BF041121
:10185B00A3E0FB7D017F0111819005D17403F08022
:10186B000B9005D2E0FB7D01E4FF11819005D1E0E7
:10187B009003A9F0D322EB600875FF0153CDFD80D7
:10188B000675FF0143CD02ED600553FBDF8003437B
:10189B00FB20EF600775FF0243E1402275FF025307
:1018AB00E1BF2290205AE0902395F0EF6027E0FFF4
:1018BB00131313541FFE110AA3A3A3E5822EF1E009
:1018CB00C083C082E01247528002C333D8FCF45E5F
:1018DB00D082D083F0902395E004FF902385EFF026
:1018EB0090205E121514A3A3E033333354F89023E6
:1018FB0086F0200F0221A4902386E0FF902385E041
:10190B00FEC39F5057EE131313541FFF110AA3A3CB
:10191B00A3F1DDE0FD7C00EE5407FF74017E00A80F
:10192B0007088005C333CE33CED8F9FFEE5CFEEF4C
:10193B005D4E6020902385E090205AF0125089ADC7
:10194B000790205AE004FF7A187BAE123F31EF70FC
:10195B004A023C0C902385E004F0809BC211C20F1D
:10196B0090205D7401F0902002F0A37407F0E4A3C3
:10197B00F09020017403F090205BE0FF123FA974FC
:10198B0003F0902007F1F8F09020061248E5EF7075
:10199B000AFBFAF97F02023C6BC2112290228012E1
:1019AB000929902283EDF07401C39D4002A1679039
:1019BB002284123276902288F0E92401B1BB902266
:1019CB008AF09022841217D9B1BB902289F0902211
:1019DB0084120920902284120929123D2F40FB12F8
:1019EB0027F7902280123276FFC394204028EFD342
:1019FB0094FF5022902283E0FD949F5019C003C0A6
:101A0B0002C001A312092090230D120929D001D085
:101A1B0002D0030201BC9022801232766401600274
:101A2B00A167E92401B1BB1209AD1D4C001C640177
:101A3B001A4E021A6B031AB9041BAC051D4C180085
:101A4B00001D67902288E090228A30E109E0FFE4D4
:101A5B00FBFA7D038007E0FFE4FBFA7D0102489D62
:101A6B00300F02A167200E02A167902283E0C3947E
:101A7B00074003D38001C34002A16790200174018A
:101A8B00B1682402B1BBF53E902280122F89B1744C
:101A9B001241527F04120176124152AD3E12016C7B
:101AAB00E53E700312491E121313E4FF8161300FE0
:101ABB0002A167902283E0FFD394224002A167EF3B
:101ACB0094035002A167B1692402B1BBD3941D40AA
:101ADB0002A167900509E090205BF0902001740251
:101AEB00121312E4FF123C6BD20F1249F1B16824AE
:101AFB0002B1BBFF541F2403FDE433FC902283E0AF
:101B0B00D39DEC1234F7400D7E00B1692403122CE7
:101B1B002F902036F0902036E070067E207F8F804D
:101B2B00047E207F3790205E126070C003C002C01D
:101B3B0001902280B171D001D002D0037F2112011C
:101B4B0076B1692402B1BB541F2404FFE433FE9029
:101B5B002283E01234F4400EB1692FF9EA3EFA12F7
:101B6B00050890205DF090228AE0902006F0A37487
:101B7B0001F0902288E030E107902007E04402F06A
:101B8B00D211F1E82403FDE43EFAA9057B01120F03
:101B9B0058E0FD1249C8EF2407902000F0E4FF0144
:101BAB00E6E4902001F0123C42E4902036F09022C3
:101BBB0083E0D39402400AB1692402B1BB90203672
:101BCB00F0902036E0FB70067C207D8F80047C201B
:101BDB007D3790205EECF0A3EDF0F5828C837401E1
:101BEB00F0A37406F09022877401F0A3E030E107B4
:101BFB00902287E04402F0F1E8F5828E83A3A3E004
:101C0B007005120F5804F0F1E8F5828E83A3A3E060
:101C1B00120F58A32582F1E0EBF0F1E8AA06F97B4D
:101C2B000190057012167EA3A3E02404FF902036CA
:101C3B00E07E0070027E01C3EF9E900573F0902250
:101C4B0087F1F8F090228AE0FB123E7FEF6002A151
:101C5B0067FBFAF97F02023C6B902283E0FFC3948F
:101C6B0006E494005002A1678F3C7A2079137D2300
:101C7B001260DBB1692403B1BBFF20E25E440412A6
:101C8B000594902280B1717B017A20790B7F06122B
:101C9B000176902010E0A3F0122F94E4902012F024
:101CAB00053C053C1260F2E434FFFED3EF9400EEEA
:101CBB0094004076D3EF9423EE940040037429F004
:101CCB001260F2B169124743B1747B017A20791328
:101CDB00120176902283E0F53C804F902283E0D373
:101CEB00942B4005742BF0F53C902283E0FF90225F
:101CFB0080B1717B017A20790B12017690200EE076
:101D0B0020E127122F94902283E0B42B0414F0804F
:101D1B0002053C902283E024FBFFB169123D84B1A4
:101D2B00747B017A20791112017690228AE0FD7B77
:101D3B00017A207910E53C24FB90232FF07F8480DF
:101D4B0018200E18902001E0701290228AE0FD12EC
:101D5B001313E490232FF07F8312019922F090222A
:101D6B0080120920E9221209209022FF020929FF83
:101D7B001234FE9005B0120920E924B1F9E43AFAC5
:101D8B00120508FF9005B0120920E924D8F9E43AAE
:101D9B00FA1205082FFFE433FEEF2401FFE43EFEA9
:101DAB009005B0120920E924B2F9E43AFAE92407C4
:101DBB00F9E43AFA0205089005C5120929EF540F08
:101DCB00FEF14D24B8B1BB54F0FDEF54F0FFC454F9
:101DDB000F4D120594EE14605024FD7002C1C50422
:101DEB006002E136F14D124159C003C002C001122D
:101DFB004152B174D001D002D0037F04120176F1AD
:101E0B004D1260AFF14A12607B7403F14A24B8B1F2
:101E1B00BB54F01261024FF14A24B9F9E43AFA7457
:101E2B000AF14AF1F17409E133124133F14D1260B9
:101E3B007B7401F14A2402B1BB30E02320E70BF1A4
:101E4B004D24B7B1BB4440120594F14D2402B1BBF4
:101E5B009005C530E602800A1221BD7403800890FC
:101E6B0005C51221BD7401120594F14D2402B1BBBD
:101E7B0030E10BF14D24B7B1BB4420120594F14D69
:101E8B002402B1BB30E70BF14D24B7B1BB44801238
:101E9B0005949005C51217C05460FFF14D24B8B1DD
:101EAB00BB549FFEEF54604E1205947F09F14D24F5
:101EBB00B1B1BBF137F1F1EF806E124133F14D123D
:101ECB00607B74011205944480F14A2402B1BB304B
:101EDB00E00F9005C530E602800A1221BD74038025
:101EEB00089005C51221BD7401120594F14D24BB58
:101EFB00123DC830E318F14D24BCB1BB9005C5129F
:101F0B005F8324BD122C2FC4540F04FF80027F006B
:101F1B00F14D24BCB1BBC4540F240B2FFFF14D2446
:101F2B00B1B1BBF137F1F1EF12059422FEEF042EA4
:101F3B00FE9005C5120920E924B9F9E43AFAEE122C
:101F4B0005949005C5120920E92290235312092903
:101F5B00E94AC36001D350791125E92402B1BB30A2
:101F6B00E005112502203F125BCD1125125BA090DD
:101F7B0022341123E924E5B1BB90223A1124E92440
:101F8B00E61217C61240411123E924E4B1BB90239A
:101F9B00567003F080037401F01125E924DB12174E
:101FAB00C645F06027902356E0FF1217EEC003C022
:101FBB0002C0011125E924DB1217C6FDACF0F58236
:101FCB0085F083D001D002D0031209D7112512005E
:101FDB003E22E5822FF582E43583F5832290205E45
:101FEB00E0FEA3E0FF2224D8F9E43AFA22E09005C0
:101FFB0074F0A3743CF0A3746B2275FF028FE32281
:10200B009003A3E064AA2411FFF022AE07110BEE9C
:10201B0004FEEF8EF084AFF022110BEFC4540F6F60
:10202B00FEEFC41354076EFEEFC413131354016E6B
:10203B005403FF2290222E120929E924E4121DBB1E
:10204B006018E4902245F012172F31C1740112056C
:10205B00947E5B7F91FD7C0001F812172F240112F7
:10206B001DBBD3940140451124902245EFF07E5BBC
:10207B007F9112172F24B7121DBB30E71C12172F9D
:10208B0024BB121DBB20E01112172F24BC121DBB49
:10209B0031B4B504047D07800F12172F24B1121D24
:1020AB00BB75F00A842406FD7C008041E490224538
:1020BB00F07E5B7F9112172F24B7121DBB30E71CEC
:1020CB0012172F24BB121DBB20E01112172F24BC9B
:1020DB00121DBB31B4B504047D07800F12172F24DA
:1020EB00B1121DBB75F00A842406FD7C009005D54A
:1020FB00EEF0A3EFF090222D7401F0AE04AF0512B9
:10210B00408EAC06AD079005D5E0FEA3E0FFAB0714
:10211B00AA06123808ED4C70050DBD00010CD3ED6D
:10212B0094FFEC9403500D75FF02EDF586EC4430F3
:10213B00F585805BD3ED94FCEC940F501AEDAE0457
:10214B007802CEC313CE13D8F9AC0675FF02F58611
:10215B00EC4434F5858038D3ED94F0EC943F501972
:10216B00ECC4F854F0C868FCEDC4540F4875FF027A
:10217B00F586EC4438F5858016EDAE047806CEC3B3
:10218B0013CE13D8F975FF02F586EE443CF5859016
:10219B002383124A23D20BE4F54075FF024385409B
:1021AB0075FF02438580D20A22FDC4540FFCED5407
:1021BB000F22120920E92401F9E43AFA229005943E
:1021CB001209297F0212568690059712608C7002B5
:1021DB0061C671D031C17403120594900594120934
:1021EB0020E92406121DBBFF900594124702121D15
:1021FB00BBC39F14FF71D0121FF1EF71D8E92409F3
:10220B00121DBB30E33771D0121FF1C003C002C0E7
:10221B0001120508FF71DBE9240A121DBBFE1246F1
:10222B00C671DBE91246DEE92D12473BC4540F049D
:10223B00FEC3EF9ED001D002D00312059471D024BF
:10224B00D8121DBBFED39426AF0640027F2671D059
:10225B00124159C003C002C00171DB121D74D001C1
:10226B00D002D00312017671D024B1F9E43AFAE42A
:10227B0071CD24BB121DBB4401120594440271CDD8
:10228B001260AF71D8E92404121DBBFF71D024BAC0
:10229B00F9E43AFAEF71CD24BC121DBBFF540FFECB
:1022AB00EF54F012059454F0FFEE14540F4F71CD10
:1022BB0024BB121DBB440871CD24BC121DBBF1DF26
:1022CB0071D024BDF9E41246D73AFA740171CD24CA
:1022DB00BC121DBBC4540FFF71D024BD122C2F4454
:1022EB004071CD24BC121DBBC4540FFF71D071E4DF
:1022FB0024BE71C724BC121DBBC4540FFF71D07117
:10230B00E424BF71C724BC121DBBC4540FFF71D092
:10231B0071E424C071C724BC121DBBC4540FFF71E0
:10232B00D071E424C171C7121FF1740512057271CB
:10233B00D031C1740371CD2402121DBB30E609717B
:10234B00D031C1740112059471D024B1121DBBFFA1
:10235B0071D024D8121DBB2F04FF71D024B9F9E41E
:10236B003AFAEF71CD2403121DBB44201205949051
:10237B000509E0FF71D024B6121DBBFD71D024BA44
:10238B00121DBBFBC00371D01246ED90054712091D
:10239B002971D024B1121DBB90054AF0A37481F0B2
:1023AB00A37400F0A37419F0900597126093D003F7
:1023BB00123DD09003A2E07002915122F9E43AFA57
:1023CB00747F120594900597120920E92212059447
:1023DB0090059412092002093E2FF9EE3AFAE922F0
:1023EB009005BE1209299005C1EDF0122FE2900560
:1023FB00BE71DEE92409121DBB30E33B9005BE71B3
:10240B00DEE9240A121DBBF1DF9005BE71DEE91275
:10241B002C2D540FFDBD011F9005BE71DEE9240B61
:10242B00F9E41246D73AFA31C0121D747B017A05D2
:10243B00792A7F041201769005C1121725122D6699
:10244B001260B8021686E49005D9125703B194E0D6
:10245B0054F064407002A159E4FE75F0E8EEB199B6
:10246B00E0FDB401099005DAEEF0E4FF8023EDB452
:10247B00020B9005DAE0B4FF04EEF0800F75F0E884
:10248B00EEB199E054F0FDBD80027F010EEEB40475
:10249B00C9EF60069005DA74FFF09005DAE0F4708E
:1024AB0002A159123D1B5002A159E51630E102A1C0
:1024BB00599005DAE0900005F1D8E030E40990007E
:1024CB0007F1E6E0549FF09005DAE09000B9F1D8FF
:1024DB00E0540FFEBE05099000BDF1E6E030E120AF
:1024EB009005DAE0FF75F0E8900004120914E02083
:1024FB00E52E75F0E8EF9000BC120914E0B4FF2054
:10250B009005DAE075F0E8900006120914C083C05C
:10251B0082E04401FFA3E0D082D083CFF0A3EFF0A1
:10252B009005DAE01256F67B011232B0502090057E
:10253B00DAE0F54275F0E8B199E04440F09005D946
:10254B007401F090050CF0E51630E202D322E5168B
:10255B0030E22F7F04F1AFB194E0FF54F064407090
:10256B0018B194EF540FF0B194E04480F0E54212AF
:10257B0056F67B0112404D8009E51630E0047F01D1
:10258B00B1AF9005D9E024FF2275F0E8E542900049
:10259B00020209147BFF7DFF7F80B1D112018512EE
:1025AB00018F7F01EF600DF13BAF82AE83E4FD1233
:1025BB0036128009F1B8125612E433FF227F012242
:1025CB007BFF7DFF7F80901210F1F0EBF02275FF07
:1025DB000275E404E4F5E41200BA1249C140031297
:1025EB0049327B017A1279107D017F01F1597B0110
:1025FB007A1279117D017F21F1597B017A127912BF
:10260B007D017F22F1597B017A1279177D017F02BF
:10261B00F159901217E0B401057F01125B381201DA
:10262B0085125766124A709003AAEFF012492B12CB
:10263B004A2B9003AAE0FF1201ADEF24FFB39215D2
:10264B0075FF0253E6BF12300412018F120F742074
:10265B001509120F5F1248EC123D6890205CE030B8
:10266B00E0047F01B1AFD2AF30156B1238151238C1
:10267B007E1201B712018040F29003A9E06026E5BB
:10268B001570FCE51620E503125612123B1390034E
:10269B00A9E0B40204E4FF80099003A9E0B40305A8
:1026AB007F011258379151E51630E1BFF1C340025B
:1026BB00E4F0E51620E50BF13BAF82AE837D011212
:1026CB003612125FC6C0E0F1499003ACE0FDD0E0DA
:1026DB00FF1228C2809512381512387E1201A8906D
:1026EB0003A2E0700491518015C2ADAF1F9003A2FD
:1026FB00E0FEC3EF9EC394064002E4F0D2ADE516B4
:10270B0030E128F1C34002E4F0E51620E50BF13B84
:10271B00AF82AE837D01123612125FC6C0E0F14963
:10272B009003ACE0FDD0E0FF1228C2122FF280A67E
:10273B009003ABE0FD75F0AA9003B5120914ED758B
:10274B00F002A424A4F9740335F0FA7B0122902340
:10275B0030F1F0120929902331E06047901218E014
:10276B006013902330E02410FF124985902332121E
:10277B000920EF8017902330E0640190233270071B
:10278B001209207480800512092074FF12059490A1
:10279B00233312308D902331E014F0902330E0047A
:1027AB00F080B322C2AFEFF45216D2AF22125722EF
:1027BB00EF7004915180F6227F02F1AF9003ABE0F2
:1027CB009003B3F09003AB04F0C3940222FF75F0B7
:1027DB00E8020914C4540FFF7E002275F0E8EF02E3
:1027EB000914EEF0A3EFF0A3EDF0A322E51630E20F
:1027FB000FE51620E50AE51630E0057F011225AF3F
:10280B00229003B1E0FCA3E04C70059003B1800271
:10281B00C322EEF0A3EFF0D32290057C1209207DAA
:10282B00029005AB120929E49005AEF0A3F0FEEE81
:10283B00C39D50249124121DBBFFFB9005AEE48B6E
:10284B00F0120665124906500C9124121DBBFF9025
:10285B0005AEE480570E80D79005AEE0FEA3E0FFF7
:10286B007C001205DA9005AE111D9450EE940040D9
:10287B000B9005AEE4F0A3747EF080349005AE129D
:10288B0017E79428EE9400500B9005AEE4F0A37478
:10289B007DF0801C7C007D9B1205C8EF24DAFFEED7
:1028AB0034C2FE7D6412062F9005AEEEF0A3EFF05E
:1028BB009005AEA3E0FF2290057C12092990057AC2
:1028CB00126070900519120929900522EDF0D3942E
:1028DB0008500261C990057AE0FEA3E02407F9E4F1
:1028EB003EFA120508FFEDC39F500261C9E4900543
:1028FB0020F090052EE090050971D01246E5E924F1
:10290B0001121DBB6401702F90057AA3E0FFF582C5
:10291B008E83E09003ADF08F828E83A3E09003AEA5
:10292B00F090057A121516A3A3E09003AFF0120FE7
:10293B0058A3E09003B0F090057C12092090055548
:10294B0012092971D91241CA71D12404121DBB90ED
:10295B000514F0900520E044016062A202E433F517
:10296B0038E4900583F0900583E0FFC39402502078
:10297B00EF1248F3FF900514E0FEEFB5060A900541
:10298B0083E024FF92028008900583E004F080D658
:10299B00900583E0B40206E53824FF920290050906
:1029AB00E0FDA202E43325E0FFE433FE74252FF5AE
:1029BB008274053EF583EDF0A202B39202900520DE
:1029CB00E020E20241967F0112568690057F12604D
:1029DB008C7002419671CA7F03121DC271D12405FE
:1029EB00121DBB30E40D71CAE924B7121DBB441094
:1029FB0012059471CAE924B1123DC871CA125FDA8B
:102A0B0071CA1260D3740075F00A1206BC900521CE
:102A1B00E0FF71CAE924BAB16890057F1217C012A2
:102A2B0060FAFDEF4DFFE5F08FF01206BC71D1247B
:102A3B0005121DBB30E50F71CAE924B7121DBB444B
:102A4B0020120594803B90051C1232766401703184
:102A5B00E92401121DBB6418702790051FE0900537
:102A6B001CB40411120920E92403121DBBFF1250E0
:102A7B003E8F1B800C1217D9121DBBFF1255F28F04
:102A8B001B71CAD1C820080312245120040261AD66
:102A9B00900520E020E1026142E4F53812172F4A3D
:102AAB00605CE924B7121DBBFF540F6401704FEF3C
:102ABB0030E74112172F24D8121DBBFDD3940A50B7
:102ACB000261C912172F24BC121DBBFEEE540F90CE
:102ADB000583F0EDD3940A500261C912172F24BD60
:102AEB00F9E43AFA900583E07E00299135F5381226
:102AFB004005800A12172F24BA121DBBF538121786
:102B0B002F4A700261C971D12404121DBB65386054
:102B1B0008900513E0700261C971D12405121DBB29
:102B2B0030E70D71D12409121DBB540624FF92000E
:102B3B00112491B0C20022900520E05422FFBF2047
:102B4B000F902231E060771124AD0771D90223EB8E
:102B5B00900520E030E30571D91221C820155F7173
:102B6B00E0900582EFF07A05790E7D051260DB901F
:102B7B000582E090050E71D02404121DBB90050F49
:102B8B00F01124900511EFF090051FE0FD7B017A09
:102B9B0005790E90228412092990051C1209200236
:102BAB0019A71217D3EA494B601490222DE0600E3F
:102BBB0090050CE060081237F6E490050CF02290BB
:102BCB00057F020920F0900519120920E9227B01EB
:102BDB007A05791922E4FF71D12405121DBBFD3052
:102BEB00E5037402FF900520E030E704EF4480FF1B
:102BFB00ED540FFDBD011071D12408121DBBB4FFA4
:102C0B0017EF4404FF801171D12405121DBB540F23
:102C1B00FDBD0204EF4408FF229005AB120920E929
:102C2B002E22240BF9E43AFAE92FF9EE3AFA0205CF
:102C3B00089005A61237F012172F4AC36001D35024
:102C4B0024E924BC121DBBC4540FFF9005A6E0B5AC
:102C5B00071312172F24BA121DBBFF91A8240412BD
:102C6B001DBB6F6002C322E49005AAF09005A6E09D
:102C7B00FF9005AAE0FEC39F502191A81246DEEEFD
:102C8B00FF7E00299135FD12172F24BD912F6D600A
:102C9B0002C3229005AAE004F080D1D3229005A7AD
:102CAB00120920E9229005DBEFF012172F24B7123F
:102CBB001DBBFF20E702A149540F64016002A1492B
:102CCB0012172F24B6121DBB653E707220006F9039
:102CDB00223104F012172F24BB121DBB30E341121B
:102CEB00172F24BC121DBB90222E125F8324BD9183
:102CFB002F540F702B12172F1223E424BE121DBB5F
:102D0B005460601C12172F24BC121DBBC4540F241B
:102D1B000490050AF07E487F507D6E7C000240E9EE
:102D2B00E490050AF012172F24BC121DBBC4540FDC
:102D3B0075F03EA4FDACF07E487F500220F8F1E226
:102D4B007B017A05792A7D047F7F1201629005DB76
:102D5B00121725B1661260B802168624E5F9E43A1B
:102D6B00FAEF0205949005601227F01209299005DD
:102D7B0066E0FFD1D7E92402B168EF7E0030E104B1
:102D8B007F0880027F00D1D7D1DD123FEA90056525
:102D9B00E0FF74A9C39F500374A9F0D1D7E92403B2
:102DAB00121DBB20E51F900565E0FFD1D71246EC45
:102DBB00C003C002C001900562121D71D001D00288
:102DCB00D003120176900565E0FFD1D7E924B1B1AC
:102DDB0068900567E0FEA3E0FFA31209201260D301
:102DEB00EED1D2125FDA900560E090056CF09005A1
:102DFB0061E0540FFD64026031D1D7E924BA121D92
:102E0B00BBF538B4FF0B90056CE054F84401F0802F
:102E1B001990056CE0FF54077010900514E0B5385D
:102E2B0009EF1260FA4F90056CF09005691217C00C
:102E3B0054EFFFD1D0E92403121DBB20E54F300323
:102E4B0028ED6404700FD1E5BF0203D38001C39258
:102E5B000CD20D800DD1E5BF0203D38001C3920CC0
:102E6B00C20D1247CEEE4F800D900561E01261024C
:102E7B00C454F0FEEF4E900561F0D203900561E073
:102E8B00FFD1D7E924B7B168540F12059412570B31
:102E9B0090056CE0FFD1D7D1DDE4D1D2E924031248
:102EAB001DBB20E50A900561E0FFD1D7121DC29032
:102EBB0005691217C0FFD1D7124742D1D0120508AE
:102ECB00540F020594E5F08FF01206BC90056902D1
:102EDB000920E92404F9E43AFA22900561E0FE9016
:102EEB00056CE05407FF229023711209297D2AE417
:102EFB00FF120162F17A123D68F17AF1801221BD65
:102F0B00F1801217D9F9E43AFA7412120594902051
:102F1B005CE0FF30E0081205084480120594EF7F57
:102F2B000030E1027F80EF4414FF902371F189EFB1
:102F3B00120594F17AD1DD7401120594902063E0AF
:102F4B00D3942340037423F0902063E0FE24079076
:102F5B00208EF0AF06F17A12474AC003C002C001BF
:102F6B00902008121D71D001D002D003020176907F
:102F7B002371020920740112059490237122120906
:102F8B0020E92403F9E43AFA227B017A20790D90A7
:102F9B0023741209291260E22401121DBBFF30E1D8
:102FAB001890237412327630E706F18C7402801A73
:102FBB00902374F18974018011EF90237430E30630
:102FCB00F18974048004F18974031205941260E290
:102FDB002403121DBBFF22E490222DF0123808C2ED
:102FEB000AE4F540C20B229003B112382D6009CAD6
:102FFB00EECAC9EFC91209D32275FF02D2ADD2BDF9
:10300B0075FF02758E71753F0975FF02E58E546F62
:10301B004480F58E90233F1208E30000000022C08D
:10302B00E0C0F0C083C082C0D075D008C0FF75FF70
:10303B0002E58E30E43275FF02E58E54EF4410F555
:10304B008E90233F12087A124EF290233F1208D72C
:10305B00900000118DE53F700D753F09051FE51FB1
:10306B007002051E8002153F75FF02E58530E405F1
:10307B0012380E0540D0FFD0D0D082D083D0F0D004
:10308B00E032E475F00102066590044F120914E476
:10309B0093FE740193AA06F97BFF902380120929F2
:1030AB009023805176FF600911C0902381118D8090
:1030BB00EF22FF11DCE5ED20E0FB8FEF2290239C4C
:1030CB00EFF0E0C4540F11BD90239CE0FF11DC80A6
:1030DB00E4EF540FFFD39409EF50042430FF222464
:1030EB0037FF2290239BEFF075F00A8411BD9023DC
:1030FB009BE075F00A84AFF011DC80B911A5314D5E
:10310B00E49022D0F09022CFE0FFA3E0FEC39F50CB
:10311B00269022CC125F7A120545FF11C89022D05F
:10312B00E0540FFFBF0F04314D80047F2011C0907E
:10313B0022D0E004F080CE9022D0E0540F60023118
:10314B004D227F0D11C07F0A01C090231012092957
:10315B00902316E0C4540F31701205A6902316E08D
:10316B0031700205A6FF11DC9023131209207401A4
:10317B00120521FE9023101209208E82758300EF19
:10318B001205A69023131209207401120521FF903A
:10319B0023101209208F82758300E422C2AF75FFC2
:1031AB000375D404121816124FC0F1A031FED19A38
:1031BB00F1C9902389118DC390238AE094D7902372
:1031CB0089E0940340E875FF0175D30175FF027523
:1031DB00D28075FF0243E70431FE902389118D9055
:1031EB002389E0B403F4A3E0B4E8EF75FF0253E7DF
:1031FB00FB80FEE4902389F0A3F0229022B6E4F04A
:10320B00A3EDF09022B1F1ED9022B6125FE9604F81
:10321B009022B351769022B8F09022B4118D7D801C
:10322B00ED60E5516AEE7C0030E7027C019022B83C
:10323B00E05D7B0060027B01EB6CFCEF25E0FFEEB9
:10324B00339022B1F0A3EFF0AF04EF600C9022B1FA
:10325B00E06410F0A3E06421F0EDC313FD80C19096
:10326B0022B1E0FEA3E0FF229022D8120920020532
:10327B00089022DBECF0A3EDF09022D812092991F3
:10328B00DB9022DBE0FEA3E0FFA3E0FDA3E0FB125B
:10329B003C059022D81260515173B4FF04E412051F
:1032AB00945173FF229005B0120929D217C2EBE596
:1032BB0015600281C0E51630E202C32291C824E4F6
:1032CB00123DC81256601217BD5407FF900530F01F
:1032DB0012547B9005B3EFF0E51620E06EB1C440BD
:1032EB00057F011225AF9005B3E0FF7B017A0579CD
:1032FB00B4D1D3E4337004D2EB81B09005B3E024A6
:10330B0015124876E0FF9005B4E0D39F403DD2EB19
:10331B00A21092ED900535E0601491C824E4F9E415
:10332B003AFA740112059443160491D0D3229005F6
:10333B0043E070157B017A0579437C4F7DEB90223E
:10334B00DD7464F0E4A3F0517CC322B1C45004C219
:10335B001EB1CC124C14E5D120E0FBE4F511121791
:10336B00BD5407C39403E49400503591C824B112A3
:10337B001DBBFF91C824D8121DBB2FFFE433FED316
:10338B00EF9440EE64809480401691C824E4F9E4F5
:10339B003AFA7402120594431604A21092EDD3224A
:1033AB0091C82408F9E43ACFE9CFF5128F1391C8ED
:1033BB0024B1121DBBF517AE12125C1A1217BD54B5
:1033CB0007900530F075150891C8124159125C0E23
:1033DB0091C824D8121DBBFFAD17125C3690053077
:1033EB00E0640370247B01FD121D7A91F450057487
:1033FB0001120572B1A94414F5D21205082428FB59
:10340B00E433FA7D03E4FF819F900530E0640270A2
:10341B002A121D7E91F4400574FF120572B1A94466
:10342B000AF5D21205082414FBE433FA7D027F015E
:10343B00B132E4FB7D01FF91FE805BE4FB7D011269
:10344B001D7A91F4400574FF120572E4F5FF121713
:10345B00BD441045F07F0560027F0AEF547FFFE506
:10346B00D254804FF5D2E4F5FF43D280121DABFD51
:10347B007C001217BD441045F07E0060047F0A806B
:10348B00027F05EF25E0FFEE33FEEF2DFBEE3CFA5E
:10349B007D017F01B1321217BDFFAEF0A21792165C
:1034AB001252474006A21092EDC32291D0A2109265
:1034BB00EDD2EBD322A21092EDD2EBC3229005B04A
:1034CB00120920E922E4900535F07B017A05794356
:1034DB0090236B12092990236B5176FF123A369089
:1034EB00236B120920E4020594D39FEE6480F874D9
:1034FB00809822E4F5FF75D102E5D120E0FBE4F5DD
:10350B00FFF5D1EF6008E4F5FF43D2808006E4F5C8
:10351B00FF53D27FEB6006E4F5FF43D104ED600669
:10352B00E4F5FF43D108229005CEEFF0ED24FE60C9
:10353B00191460262402703BEB2402FFE43AFE7C54
:10354B00007D501205C87D60801EB1B1C333CE33F0
:10355B00CED8F9FF7C007D28800EB1B1C333CE33BA
:10356B00CED8F9FF7C007D641205DA9005CFEEF022
:10357B00A3EFF09005CEE0125654F583C083C082C2
:10358B001208969005D0E02401FF9005CFE034009F
:10359B00FEE4FCFD1206DBD082D0830208D7E4F5F3
:1035AB00FFE5D2548022EB2401FFE43AFEEF7803CF
:1035BB0022C2EBA2ED9210C2EDE5F4C330E701D3CA
:1035CB002290239AE5F4F0E0547FF5F47F827E009D
:1035DB00D1A1D19A124F0E5005E5FC20E6F6301E14
:1035EB000890239AE04480F5F4D194124F0E5005C5
:1035FB00E5FC20E6F675FF01E5D520E702C322E5E1
:10360B00F4D330E601C3229005A0F1EDE5157078F7
:10361B00B1BC5004C21EB1CC9005A0E0FEA3E08E5D
:10362B0012F513A3120920900532120929AE12AF1D
:10363B00137DAA125BE4E4F5FF75D908F511E516C5
:10364B005421602CE51630E505E4FF124C2FE49075
:10365B0005A5F09005A5E004F0125A02EF60099061
:10366B0005A5E0C3941040EB7F021201945316DEC4
:10367B0090052EE07F00B403027F01124C20D21E76
:10368B00B1CCD2EBA21092ED227FE87E03D1A175D3
:10369B00FF0343918022902357EEF0A3EFF07B01C1
:1036AB007A237959125C605014902359E0FEA3E001
:1036BB00FF902358E09F902357E09E400A9023579A
:1036CB00E0FEA3E0FFF1A422902367EFF0A31254D6
:1036DB0073F075FF01124F19EF64016002C322E50D
:1036EB00F430E602C322F1A0D19A124FC740012257
:1036FB00C21EB1CC902367E0FF124C2F53F4DFD2E4
:10370B001EB1CC7F787E00F15975FF0153E4BFE504
:10371B00E430E7FB125E687F8A125AD730E60A90D4
:10372B002368125437F9E4800C75FF01902368125B
:10373B005437F9E5D912059475FF0143E440126043
:10374B00EA400343F420124FC7400122D322CDEFAE
:10375B00CDCCEECC125C76FFAB94EF4B125C81CBF5
:10376B00EFCBFAE59130E71F125C79FFA994E9F5ED
:10377B0082EF4582FFEB2DF582EA3CF583C3EF9593
:10378B0082E5F0958340DCE59120E708CEECCECFC7
:10379B00EDCFF1C5227FE87E0375FF03D3EF9402D3
:1037AB00EE9400400874FE2FFF74FF3EFEEFF5927F
:1037BB00EE540FF591227F147E00F1A4D19A75FF80
:1037CB0003E59120E7FB2212608253DB7F75FF013B
:1037DB0075D502F1C112608243DB8075FF01E4F500
:1037EB00D522EEF0A3EFF0A3020929300A0E12380E
:1037FB0008E4F540D20B75FF024385802275FF026A
:10380B0053857F75FF0243851022300B14E5406012
:10381B00101540902383112D6007AA06A9071209E2
:10382B00D322E0FEA3E0FF4E22E4F540C20B229030
:10383B0022AAECF0A3EDF0AB07A312087A515C12AD
:10384B0008D7EB11701208D79022B0E0FFEB3109CB
:10385B00EFF09022AAE0FEA3E0FFEB3119EEF0A30C
:10386B00EFF022E54175F00CA424B0F582E434208E
:10387B00F58322E4902393F0D3900001E094009021
:10388B000000E094004074902393E0FF04F0EF9469
:10389B0005506890000074FFF5F0120665E4F541E1
:1038AB00E541C3940E50D1116E5186604A116E746E
:1038BB00FF1208A431AE703F3107E0FF6008F460DF
:1038CB00053107E014F03107E0600EE541515D1260
:1038DB00087A116E1208D78006E5415128E4F031C1
:1038EB0017E0FEA3E04E600C3117E0FEA3E0AA0642
:1038FB00F91209D31227F7054180A522E54175F08E
:10390B000CA424BAF582E43420F58322E54175F04A
:10391B000CA424B8F582E43420F583229022D11232
:10392B0027EDEBF09022D674FFF09022D5E0902299
:10393B00D7F09022D7E0FFC3940E505EEF11703199
:10394B00AB704F9022D5E07E0170027E029022D7A1
:10395B005126EEF0C0079022D3E0FF7E0060097C79
:10396B00007D0A1205C880027F0AE4FCFD9022ACA0
:10397B001208D79022D4E09022B0F09022D1E0FC34
:10398B00A3E0FDD007113A9022D7E004FF9022D696
:10399B00F0229022D7E004F080989022D6E0FF220C
:1039AB0012087AE4FBFAF9F8C30208299022A0EE78
:1039BB00F0A3EFF09022A774FFF09022A251866043
:1039CB00549022A87403F09022A8E0FFC3940E50E9
:1039DB0044EF117031AB70359022A851267405F06D
:1039EB00C0079022A212087A9022AC1208D790221C
:1039FB00A6E09022B0F09022A0E0FCA3E0FDD0075F
:103A0B00113A9022A8E0049022A7F080089022A8F7
:103A1B00E004F080B29022A7E0FF22E0FF75F00CEB
:103A2B00A424BBF582E43420F58322AB07E4FF1B0F
:103A3B00EBC3940E501A515C1208E300000000EB2C
:103A4B0011701208E300000000EB5128E4F07F0135
:103A5B0022EB75F00CA424B4F582E43420F5832218
:103A6B00AB07E4FA1BEBC3940E500D515C5186600F
:103A7B0007EB11701208D70AAF022212087AEC4D2D
:103A8B004E4F22902388EDF0902387EFF051E1AE5B
:103A9B0007902388E0FF6E603A902387E0FD51F595
:103AAB00902398E07023D2137B017A2379987C3D85
:103ABB007D109022DD741EF0A374FFF012327C9007
:103ACB002398E0700B71138007902398E0FF516BE4
:103ADB007F02227F012275FF01E5C420E7FB8FC522
:103AEB0071FCE5C420E7FBAFC62275FF01E5C420DE
:103AFB00E7FBAE058EC58FC67178F5C4E5C420E72C
:103B0B00FB9023997401F02230131B75FF02E5E43F
:103B1B0030E10675E40675E403717F7B017A237946
:103B2B00981234DBC2132275FF01E5C420E7FB7545
:103B3B00FF037596FF7584187FFF51E1EF64AA6050
:103B4B002A75FF03E58430E52075FF0175C6FF7507
:103B5B00C5FF7178F5C4E5C420E7FBAFC515C5EF0C
:103B6B0070F071F3E5C420E7FBC322D322E5C45404
:103B7B002044842275FF01E5C420E7FB75C5FFE5F2
:103B8B00C454204481F5C4E5C420E7FBAFC671FCE7
:103B9B00E5C420E7FBEF65C6604175FF0175C5FF06
:103BAB0075C6FF7178F5C4E5C420E7FB75FF0343C9
:103BBB00840475FF0171F375FF01E5C420E7FB7504
:103BCB00FF035384FB75FF0175C6AAE5C45420445B
:103BDB0087F5C4E5C420E7FBE4F5C5AFC515C5EF14
:103BEB00709D90239904F022E5C45420448EF5C4B3
:103BFB0022E5C454204480F5C422E49022D5F02160
:103C0B00277E3D7F08E4FB7D019105BFFF02B108D4
:103C1B0022902396EFF09142902396E0600490203F
:103C2B0000F07E3C7F537BFF7D2F9105902062EF50
:103C3B00F0BFFF02915322902062E0FFF46002512B
:103C4B003690206274FFF022902000E0FF14F0EF1A
:103C5B00700D91BCB40308E4F0FBFAF9FF916B22F1
:103C6B0091BCB403028045902001E0B40107C20E61
:103C7B00E53E7001F0902001E0FF7006C20E90202F
:103C8B0036F0902058E0FCA3E0FD4C60158D828C43
:103C9B0083AD3E1209D7902001E07006902058F0BA
:103CAB00A3F0902001E0B401077403F07F04911C92
:103CBB00229142902001E0229020917401F0E4A324
:103CCB00F090203904F0E4A3F090205E7420F0A370
:103CDB00748FF090205D7401F0FB7A20796990224B
:103CEB005F120929B14F1201C19142E4902001F0FA
:103CFB00C20EC20F229022D57403F0212712131388
:103D0B00E4FF0218AEB11B4006B12F400271132223
:103D1B001235C45006B12850028001C322E5F75476
:103D2B00E024FF22AF15EFC36001D32275FF02E53C
:103D3B00E430E10675E40675E4037132C213E490D6
:103D4B002398F0227A2079089022621209297A208E
:103D5B0079639022651209297A20795C2290236E6F
:103D6B0012092990236EB18090225F1209297B01E1
:103D7B00B14F0201C1120920E92405F9E43AFA22F4
:103D8B009005C81209299005C8120920E51DB1C17B
:103D9B001221BDE4B1C11217D9B1C89005C8122FB9
:103DAB0089E514B1C1120920E92404B1C89005C8F2
:103DBB00B180E40205941205949005C822F9E43A07
:103DCB00FAE4020594AE039005517401F0AC079030
:103DDB00054BE0FB20E72A90054AE0FAD3949F407D
:103DEB00037F0022EEB4FF09EAD3943640037F0031
:103DFB0022EB20E40C90054AE0D3949740037F001C
:103E0B0022D179E924B6F9E43AFAEDD176E924BA6C
:103E1B00F9E43AFAEED176E924DEB1C8EEB4FF0745
:103E2B0090054BE054FAF012050870057406120564
:103E3B0094AF04900551E0FD90054AE0900565F0C4
:103E4B0090054BE0900566F090054CE0FBA3E090ED
:103E5B000567CBF0A3EBF0D1799005691209299096
:103E6B000547120920122D707F012212059490052F
:103E7B004E020920AD3EE4FF90056D1227F0EBF0EA
:103E8B007F0212568690057712608C605CF1F6907B
:103E9B000577120920E924E6F9E43AFAF1EA9005EC
:103EAB006DE0FFA3E0FD900570120920900547F12E
:103EBB00B2E090054AF0900574E090054BF0900548
:103ECB0075E0FBA3E090054CCBF0A3EBF0900577EE
:103EDB0012609390056FE0FBB1D0EF60037F01227E
:103EEB0090057712092012003E1200367F002290B7
:103EFB00058D120929900591E05457F04420FEF0EE
:103F0B00C201AB07C00390058D12092090057012FA
:103F1B000929900590E0900573F0A3EEF0900592BF
:103F2B00F19CD003C17F9023431227F0EAF0A3EB5F
:103F3B00F09020027401F0A37418F0902344E0FF7A
:103F4B001255DB902004EFF0902344E0902005F015
:103F5B00753D0190205DE0FFB40203753D02EFB4A7
:103F6B000303753D03902036E0FF600C7F40B402E5
:103F7B00027F20EF4402F53DF1A97404F0A37451C4
:103F8B00F0902345F19C902343E0FBAD3EAF3DC148
:103F9B0083E0FFA3E0900575CFF0A3EFF0227B0148
:103FAB007A20790290057012092990057322E4FE9C
:103FBB00EFC3940E5012EF5128E05D7C00B5050263
:103FCB007C01EC2EFE0F80E8AF06227D02E4FF8021
:103FDB00DD7D017F03F1B9AB07F1D6EF2BFF22EEAD
:103FEB008FF00206BCE4FD7F0380C3A2AD9214C226
:103FFB00ADAF1FAE1EA21492AD22900513E030E1BF
:10400B000AD208123FF6EF9003A2F022AD07AC06DE
:10401B00123FF6C3EF9DEE9C4008EF9DFFEE9CFE1A
:10402B008013EDF4FDECF4FCED2401FDE43CFCED20
:10403B002FFFEC3EFE22FFAEF01117902232EEF076
:10404B00A3229005C21209297F011225AF118412F8
:10405B0017C645F060229005C2120920C003C002AA
:10406B00C00111841217C6FFAEF0F58285F083D024
:10407B0001D002D0031209D7229005C2120920E900
:10408B0024D9229005D3EEF0A3EFF012172F1217BD
:10409B00C45407FF64026005EF6403701611E0253A
:1040AB00E0FBEC33FAEDAE047803C333CE33CED85A
:1040BB00F9801C11E0AE047803C333CE33CED8F9AC
:1040CB00FBAA06EDAE047805C333CE33CED8F92B5D
:1040DB00FFEE3AFE229005D3E0FCA3E0FD229022F6
:1040EB002D7401F0C006C007EDAE047803C333CEC8
:1040FB0033CED8F9FBAA06AE04ED7805C333CE3325
:10410B00CED8F92BFDEE3AFCD007D0060221197B55
:10411B00017A0579230234DB122EDDEE8FF00206D5
:10412B00BC1217C3FFAEF0229005C5120920E9316E
:10413B0059C003C002C0013152121D74D001D0020C
:10414B00D0037F040201767B017A0379AD2224B27E
:10415B00F9E43AFA22123CC3E49003AD3181E4F561
:10416B003E3152FD12016C319A31881201677F0189
:10417B0090050DEFF022FFFEFDFC0208D77B007AC5
:10418B0000793E9023211209290B7A0379AD22E4A1
:10419B00FF75F0E8EF122599E4F00FEFB404F2E4A9
:1041AB00F54222E4FFFEFDFC9005371208D7E490A0
:1041BB00053B3181E4FFFEFDFC90053F0208D790E3
:1041CB00055212092912093E90055D120929D1BA2F
:1041DB00E92407123DC8C204900513F0D1B12405A0
:1041EB00121DBB540F6403601C315290230612093D
:1041FB0029D1C07F0412017BEF600AD1BA121DB81E
:10420B004480120594D1BA121DB830E708200E0570
:10421B00201502A1D4D1B12406121DBB540FFF905F
:10422B000509E07E00B402027E80EF4E900528F077
:10423B0012172F4A6045E924B7121DBBFF7B017A89
:10424B00057958F15D12172F1217C4540712172E48
:10425B0024B8121DBB540FFE900558E0540FFDBD42
:10426B0004047D4080027D00EE4DFEEF7F00B40222
:10427B00027F80EE4F90050BF0800690050B74FFCC
:10428B00F0D1B12405121DBBFF540F24FE7002A107
:10429B0019147002A1B324026002A1D4D1C0121D63
:1042AB00B8FE740AD39E40028029EF20E70281C634
:1042BB00900528E04440F0D1B1240A121DBBC45430
:1042CB000F900559F0600CE0FFD394045005740B6C
:1042DB009E4008D1BAF14AE4020594D1B1240912E7
:1042EB001DBB30E12330E320D1C0121DB8FDEF24FC
:1042FB000DFFE433FEC3ED1234F5500CD1B124099C
:10430B00121DBB54F7120594D1B12409121DBB30F9
:10431B00E316D1B1240A121DBB1227DFD1B1122C27
:10432B002DC4540F04FF80027F007E00D1B1240AFC
:10433B00121DBBD1C6D1B1D1CD3AFAC003C002C058
:10434B0001D1BA122F8C12095ED1B12409121DBBF7
:10435B0030E317D1B1240A121DBBC4540FFFD1B1E6
:10436B00122C2DC4540F04FF80027F00D1B1240AFC
:10437B00121DBBC4540FFED1C0121DB824F4C39E32
:10438B00C39FD19F2408121DBB653E60028157D18C
:10439B00B1240A121DBB540FFFFE900559E06E703D
:1043AB0041D1B12405121DBB90055230E60A12090A
:1043BB0020121DB8440D8008120920121DB84409A3
:1043CB00120594D1B1D1DEEE7C0029F9EC3AFAE971
:1043DB0024FFF9EA34FFFA120508FED1BAD1ECEE4C
:1043EB008067EF640F7065D1B12405121DBB30E6F9
:1043FB000AD1BA121DB84404120594F109501CD10C
:10440B00B1240A121DBBC4540FFFD1C0122C3C5057
:10441B000AD1BA121DB84401120594D1B124091264
:10442B001DBBFF30E109D1BA121DB84420800BEF40
:10443B0030E20AD1BA121DB84440120594D1B1240E
:10444B000B121DBBD1B9D1ECEF120594D1B12404E1
:10445B00121DBB653E6002A1D4F1094002A1D4D16B
:10446B00B1240A121DBBFF540FFE12172F4A700204
:10447B00A1D4E924BA121DBBFDD1B12408121DBB76
:10448B006D6002A1D4D1B12409121DBB30E019EF2C
:10449B00C4540F24FE540F6E6002A1D4D1BA121D66
:1044AB00B8D1F47403F0A1D4EE64016002A1D4D1AD
:1044BB00BA121DB8D1F47401F0A1D4D1B1240812F1
:1044CB001DBBFF653E6006EFF46002A1D4D1BA12AA
:1044DB001DB84401D1AE2404121DBBD1B9E9240887
:1044EB00D1A9D1E5C003C002C001D1BA122F8C12E1
:1044FB00095ED1C0121DB824F6D19F2405121DBB35
:10450B0020E602A1D4D1BA121DB84404A1D1D1B175
:10451B002408121DBB54E0FDE53ED39D5002A1D4EF
:10452B00120508541F75F008A47C002DFFEC35F024
:10453B00FED3E53E1234F54002A1D4D1B1240812CA
:10454B001DBB54E0FFC3E53E9F14FFD1B1D1E5EF96
:10455B00131313541F29F13BF1528002C333D8FCC0
:10456B005E6066D1BA121DB84401D1AE2408121D8B
:10457B00BB541FFF7E00D1B12409F9E4D1D73AFA1D
:10458B00C003C002C001D1BA122F8C12095ED1B187
:10459B002408121DBB541FFFD1C0121DB824F6C333
:1045AB009FD1B9F142EF801EF133600990050BE00A
:1045BB0054BFB50714D1B12408121DBBB53E0AD1A7
:1045CB00BA121DB84403120594D1B12405121DBBB8
:1045DB00FF540F64016002C194EF30E76AD1B1243C
:1045EB0009121DBB30E316D1B1240A121DBB1227D1
:1045FB00DFD1B1122C2DC4540F04FF80027F007E3B
:10460B0000D1B1240A121DBBD1C6D1B1D1DEE92D27
:10461B00F9EC122C31D1FD121DBB30E317D1B124B3
:10462B000A121DBBC4540FFFD1B1122C2DC4540F51
:10463B0004FF80027F007E00D1B1240A121DBBD182
:10464B00C6D1B1D1CD800BD1B12409121DBBD1FD87
:10465B00F9E43AFAE92401121DBB90055AF0D1BADC
:10466B00121DB890055BF0300E1F30E71CD1B12442
:10467B0009121DBBB4010890055AE06403600AD10E
:10468B00BA121DB854FA120594D1BA121DB830E003
:10469B0002D20422FF900552120920E92406F9E404
:1046AB003AFAEF12059490055D120920E922FF906A
:1046BB00055202092090055D020920C4540FFD7CB0
:1046CB000022240BF9E43AFAE92DF9EC3AFAE92F36
:1046DB00F9EE22240BF9E43AFA222409F9E43AFA26
:1046EB0022E92408F9E43AFA2244031205949005CE
:1046FB00132290055CF0A3120920E9240922F1335F
:10470B00602190050BE0FEEF6E601812172F4A60C8
:10471B0015E924B7121DBB30E70C900528E054BFF8
:10472B00B50603D38001C322900528E0FF540F2266
:10473B00F9EC3AFA020508E92406F9E43AFA22E917
:10474B002407F9E43AFA22FEEF5407FF7401A80795
:10475B000822EF540F24FE601614601714601824FF
:10476B00037019EF30E7047404800E7401800A742F
:10477B00028006740380027405120594229005BA18
:10478B00120929E9240A121DBBFF540FFE9005BD27
:10479B00F0BE0F04E4F080069005BDE004F0AE051A
:1047AB00EFD1C69005BA120920E92DF9EC3AFAE9D6
:1047BB00240CF9E43AFA9005BDE029F9EC3AFAEE4B
:1047CB00020594200C2A300D13E53A54F0FFBFF08C
:1047DB0003533A0F7410253AF53A803CE53A540FDF
:1047EB00FFBF0F03533AF0053AE53A540FC4802844
:1047FB00300D13E53954F0FFBFF00353390F74102C
:10480B002539F5398012E539540FFFBF0F035339A2
:10481B00F00539E539540FC454F0FF22E4FEEF30B4
:10482B00E2057440FE8008EF30E104EE4420FEEF19
:10483B00543824F0600724F070087F0322EE440202
:10484B00FF227F012290050AE0D394004008E01478
:10485B00F0D394005006122FE21217CD22EFC3941F
:10486B0003500774152F1176EDF022F582E4340511
:10487B00F58322E4FEEE11F3B5070FEE25E02425B8
:10488B00F582E43405F583E0FF220EEEB402E67FF9
:10489B0001229023471227F0EAF0A3EBF011EC1260
:1048AB002EF2902348E05457F0902347E0FF117EFF
:1048BB0011EC90057012092990208EE0900573F091
:1048CB00902348E0900574F0902349E0FDA3E0901D
:1048DB000575CDF0A3EDF0902347E0FBAD3E023E16
:1048EB00837B017A2079642225E02424F582E43449
:1048FB0005F583E022EF54F84DFF22EFB47F03D38D
:10490B008001C322311EC208E49003A2F090050D72
:10491B0004F0227B017A0579247D04E4FF02016215
:10492B00C201D203C20222E4902394F0902394E0BC
:10493B00FFD3946F501EEF2410FF3185902394E02A
:10494B00FEE42EF582E4344FF583EFF0902394E0F0
:10495B0004F080D87B017A4F79009022B6E4F0A363
:10496B007470F07F0F7E1D12320EEF4E7F007002BF
:10497B007F01901218EFF024FF2275FF03E4F597E7
:10498B003198E59720E1FB75FF03AF992275FF0383
:10499B008F9875FF0322901218E060047F1080DA65
:1049AB007FFF2275FF037597013198E59720E1FB97
:1049BB0075FF03AF9922901218E024FF22E4FFED5C
:1049CB0060157E01EE600C1205085E60010FEE2E85
:1049DB00FE80F131E3DDEB22740129F9E43AFA228E
:1049EB0031F1F0023F31E4902036F090205D04224B
:1049FB00AB05AA04902001E07016EF24FF920E3055
:104A0B000E09902058EAF0A3EBF022902058800872
:104A1B00121313E4FF023C6BAF03EAF0A3EFF02297
:104A2B00E4F534F535F536F53775FF0185FD307551
:104A3B00FF0185C93175FF0185CA3275FF0185CB31
:104A4B003322EF5154F0020000901219F09023978B
:104A5B0022901219E0FFF46005902397EFF074FF9A
:104A6B005154E0FF22901219E0FE640690239760E8
:104A7B0004EFF08008EEF090121974FFF09023977A
:104A8B00E0FF22EFC3940340027F02900BC8F1E3D7
:104A9B00121FDDE493FE60078F1A5406FF8005E4B6
:104AAB00F51A7F02EF24FE600C24FE600580007F68
:104ABB0001227F02227F0322C0E0C0F0C083C082AC
:104ACB00C0D075D008C0FF75FF01E5D530E6047F77
:104ADB00028009E5D57F0030E7027F018F19E519C8
:104AEB00B40212E51524F8600261C7C2EB7515001C
:104AFB0043160461C7E5196401600261C7F1DC402C
:104B0B000261C7E511705D71E0120920E5D912054C
:104B1B009471D4E09005DCF0125E1851AF90052E25
:104B2B00EFF09005DCE0FFD39409406190052EE097
:104B3B00D39402400CEFD394AA7F0040027F0180F4
:104B4B000D9005DCE0D394407F0040027F01EF60C5
:104B5B0002803A9005DCE0FFF51775FF008FD975E1
:104B6B0011038058E5116403705271E01221BDE509
:104B7B00D912059475FF0090052EE0C39403E5D37D
:104B8B0050055402FF80035401FFEF600471EC8069
:104B9B002BC21E1235CC75FF009117E5D120E0FB1F
:104BAB00C2EB43160275110090052EE0B4030715F6
:104BBB001771D4E517F09003ACE517F0D0FFD0D008
:104BCB00D082D083D0F0D0E032E5132407F582E415
:104BDB003512F5832275FF01F5EA75EAFF90053270
:104BEB0022C21E1235CC9114E5D120E0FBE4F5FF77
:104BFB0075D90890052EE07F00B403027F01912048
:104C0B00D21E1235CCE4F51122E4F5FFE5D154FEAA
:104C1B004402F5D122912F43FA04E4F5FF53D1FD61
:104C2B0043D1012275FF01E5D530E602C322E4F53D
:104C3B00FF439A80EFF1A1E4F5FF539A7FD32290C3
:104C4B0022E61227F0EBF09022EC7401F0C21D1259
:104C5B003694F10E5005E5FC20E6F7F119BF01087B
:104C6B00E4F5FC75FC408007F119BF0202D32275F5
:104C7B00FF0153D8EF9022E7E0FF125DE375FF01D0
:104C8B0053D5DF53FAFB9022E6E0FF912F9022E7FA
:104C9B00E09022E6B40808B1532452D1F58003B159
:104CAB0053FFF1659022E8E0FFF1BA75FF0175FF44
:104CBB0003759B0412369475FC42E5FC20E104F16C
:104CCB000E40F49022E9E0F075FF03E59B20E7042A
:104CDB00F10E40F4E59B20E70C75FF03759B1FF16C
:104CEB0049D21D804FF10712543F9022E7E0FD900F
:104CFB00120FE05D701C9022E6E0FFF1071250B836
:104D0B0090120FE0FF9022E7E0FEEF4E90120FF0B3
:104D1B00D1B01259E77B017A2279EA125C60500F0D
:104D2B00C39022EBE094209022EAE0940340E6F15A
:104D3B0007125AE01237C9301D0281529022ECE063
:104D4B00B40103D38001C322E025E025E02401F563
:104D5B0082E43412F583E0FCA3E0FDA3E0FEA3E0C4
:104D6B00229021FA1208D775FF0243E180F1491214
:104D7B0037D290220F1208E3002DC6C0E4F5FFF5E1
:104D8B00A490120EF0A3F090220A7402F0F1A9FF86
:104D9B00F595EF14601314601C240270279021FA10
:104DAB00B161F10090220680169021FEB161F100F5
:104DBB00902207800A902202B161F100902208E054
:104DCB00902213F0125D29902213E0700FF5FFF57E
:104DDB009675FF0175D70975F418805A90120EE07D
:104DEB0004F090220AE0F1A190220FB161FF902212
:104DFB000B125DD8FBC3120829500A90220BB1612C
:104E0B00FFA31208D7902213E0FF125C89902209AE
:104E1B00E0FFA3E0FDA21C921A125CD7A3B161FFC5
:104E2B009023361208D790220AE0FF125D369022AB
:104E3B000AB153FFF165F1B16002A1987402F0F170
:104E4B00A9F595E5F45407701990220FD1D6780186
:104E5B0012083A90220A125DC81208D7EBB154FF20
:104E6B00F165F1B170D975FF037595801260EA4059
:104E7B000343F420A21C921B1254F790220FB16132
:104E8B002420FFEE344ED1F8E4FB7A04F9F8D1E696
:104E9B00780112083AC2191258F5E4F5FFE5BD5432
:104EAB00F84404F5BD9012137401F07E127F01E4F7
:104EBB00FD8F828E83EF2DF582E43EF583E0FC902F
:104ECB001213E02CF00DEDB412E722FF7E04FDFC73
:104EDB00E0F8A3E0F9A3E0FAA3E0FB1206E8E47B19
:104EEB007DFAF9F8120773EF2401FFE43EFEE43D6F
:104EFB00FDE43CFC22FF90220B0208D77B017A22B7
:104F0B0079EC2275FF03E591C330E701D3227FFAD9
:104F1B007E001237A412369AE5FC30E604F10E40FF
:104F2B00F7E5FC30E6037F032275FF01E5D530E69C
:104F3B00037F0222E5D57F0030E7027F0122E5FAED
:104F4B0030E1FB75FC8075FF0153D5EFE4F5FC7583
:104F5B00FC40F1C0E5FC20E6FB2290235B1208D756
:104F6B0075FF0190235BA3E0FDA3A3E4FFFEE4FC2C
:104F7B00781012083A8FE190235BA3A3E0FEA3E421
:104F8B00FFE4FDFC780812083A8FE290235BA3A3A1
:104F9B00A3E0FF8FE32233333354F8F5F42275FF8C
:104FAB000390220AE02290220AE0FF14F0EF227510
:104FBB00FF018FDA2275FF03E4F59122E5F730E567
:104FCB000EE5F754C07004F10E40F1F1C0C322D3CB
:104FDB0022E5F754C024FF2275F01DE510020914D9
:104FEB00E4900543F090053504F022EFC3940E5086
:104FFB0005900531EFF022E518540FFF22E518C399
:10500B0094F0501F5318F01131FE740FC39F4005DD
:10501B00EE940E400543180D8003EF4218E518542B
:10502B000FFF227F0022E518C4540FFEEF9004DC23
:10503B00932E221131FFC3940E40027F0DEF90048B
:10504B00BE93FF22EF30E303AF1422AD1D201104FA
:10505B00EE30E00BE518C394F0502011898018E571
:10506B001B6006FDE4F51B8012E518C394F0500B92
:10507B00E518540FFF6004113EAD07AF05229005F4
:10508B0031E0FDFFC3740E11B1EFC4F8540FC868C3
:10509B00FFEEC454F048FEE51854F0C31234F57F0C
:1050AB00005002AF05229FFFE49400FE2290236381
:1050BB00EDF0901211E0F46005A3E0B4FF0C902327
:1050CB00657418F0A37413F08010901211E0902304
:1050DB0065F0901212E0902366F0120508640160EF
:1050EB00024121902363E0FE64086004EEB40408DF
:1050FB009023647428F08006902364743AF0EF12C6
:10510B004D54FF120805E45122EF24D8FFEE343F33
:10511B00FEED3493FDEC3416FC7B007A807903783A
:10512B000012007651D8902366E0FF902365E0C310
:10513B0011B1E4FCFD1206E8ECC0E0EDC0E0EEC0FE
:10514B00E0EFC0E0902366E0FFE4FCFDFE5122D0CF
:10515B00E0FBD0E0FAD0E0F9D0E0F8EB2FFBEA3E31
:10516B00FAE93DF9E83CF8902364E0FFE4FCFDFE2E
:10517B001206E8EF2454FFEE340B124EF8E47BA832
:10518B007A16F9F8120076CBEFCB902363E014601C
:10519B005D14601B24FE600C24FC707AE4F5FF7533
:1051AB00CE318006E4F5FF75CE21F5FF8BCF22E4DF
:1051BB00FAE4F5FFEA2440F5CEE4F5FFEAFFC37409
:1051CB000711B174F32FF58274043EF583E4512A71
:1051DB00C39DF5CFE4F5FFEA2448F5CEE4F5FFEAED
:1051EB009004F3512A2DF5CF0AEAB408C422E4F552
:1051FB00FF75CE01F5FF8BCFF5FF75CE0EF5FFEBEF
:10520B0025E0F5CFE4F5FF75CE0FF5FFCFEBCFEB38
:10521B0075F003A4F5CF227B64FAF9F80206E89344
:10522B0025E0FDE433FCEB75F010A4FFAEF01205A6
:10523B00DACDEFCDEBFFE4C313EF1322431601538B
:10524B0016DF114F51884004E4F5152243FA04533D
:10525B0016FB301605124C25800A7F5551717F5570
:10526B005171D2EBD32275FF01E5D520E602C322A3
:10527B00E5FA540360FA75FF018FC3D3229005CC76
:10528B00EFF0900530E0FF917B9005CDEFF09005AE
:10529B0030E024FD60130470089005CB7404F0809B
:1052AB000E9005CB7408F080069005CB7402F07F4E
:1052BB00011201949005CDE0FF9005CBE0FDA3E03A
:1052CB00FBE49022E9F0124C4A50E9D322C8ECC817
:1052DB00C9EDC9CAEECACBEFCB2290228B9173F0EA
:1052EB009022911208E3000000019022957401F0C6
:1052FB00F5FFE5D554C070051235C45002C322E446
:10530B00F5FF53967F75FF0175D5047F3FFE12376E
:10531B00C575FF0143D508E4F5FF5394FBF5FF5327
:10532B00847FF5FF7598FF90228FE5F4F075F49C60
:10533B0075FF01A3E5E4F075E4257B017A227995ED
:10534B00913F902295E0640160028116F5FF902257
:10535B008E7414F0902291124D61FF780112084D5A
:10536B009022911208D7E5A730E1FB43A7029022C8
:10537B0091124D61FFE5A730E005E47B018002E46B
:10538B00FBFAF9F8EF4BFFEE4AFEED49FDEC48FC5A
:10539B009022911208D790228EE014F070B69022D2
:1053AB0091124D61FF781012083A7B6D7A4E79C6D7
:1053BB0078411206E8EF2439FFEE3430124EF8E450
:1053CB00FBFA7901F8120773EE547FFEE4FDFC51F2
:1053DB00D8902291124D61FFEB6FFFEA6EFEE8CD84
:1053EB00EFCDCCEECCECFF90228B9137F9EF120581
:1053FB009490228B9137F9900001ED1205A6901233
:10540B000FE030E606E4F5FF75968075FF01E4F5D5
:10541B00D590228FE0F5F475FF01A3E0F5E4918BB5
:10542B00902295E0B40103D38001C322E0FBA3E0FB
:10543B00FAA3E02290237A9173F07F017C127D0115
:10544B00E4FE8D828C83ED2EF582E43CF583E02F18
:10545B00FF0EEEB412EC901213E06F600A90237AF9
:10546B009137F9E412059422EBF0A3EAF0A3E922B9
:10547B00EF24FD600680007E018002E4FEAF062271
:10548B00E4F5FF7584E6F5FF439404F5FF75981476
:10549B00229005B51209299005B8EDF0E4A3F0EDC3
:1054AB0054FE9005B8F0602FE4FF1225AFBF012723
:1054BB009005B512092051E5501D9005B6E475F025
:1054CB00021206659005B9E02402F09005B9E0FFE1
:1054DB009005B8E06F70D97F011225AF9005B9E048
:1054EB00FF227D02919CEFC36001D322E4F5FF758F
:1054FB00933F75FF03759A40918BE4F5FF759C9371
:10550B00F5FF75A1A3F5FF758531F5FF758628E5C8
:10551B00FA54304480F5FA75FF0175E74A75FF02BE
:10552B0075DF4975FF0143D30475FF0153D367E45E
:10553B00F5FF53E6BF75FF0175D825F5FF75B5036C
:10554B00F5FF75B215F5FF75BA02F5FF75AFB3F53B
:10555B00FF75CD0AF5FF75CB08F5FF75CA12F5FF80
:10556B0075BF0EF5FF75CC96F5FFF5BDF5FF75C252
:10557B0081F5FF75AEE1F5FF75DA55F5FF75F58031
:10558B00F5FF75E903F5FF75E933F5FF75972A7597
:10559B00FF01759B42759CA4759D29759E48759F4F
:1055AB002475A11275A312759AF8201B0CF5FF43F5
:1055BB00968090120FE04440F0229003B4E0B402C6
:1055CB000D8F1D90059DE0F51412018AD322C32285
:1055DB00E51854F0C4540F2FFFC3941040027F0FF3
:1055EB00EF9004CC93FF227E10EE60091EEE900428
:1055FB00CC93B507F4EEC3940E40027E0DEE9004EF
:10560B00BE93FF22E4F515E51570291235BC500544
:10561B00C21E1235CC124F497F08120194124C1442
:10562B00E5D120E0FB4316205316FEE4F511A21042
:10563B0092EDD322C322C2AFEF4216D2AF22EFD1EB
:10564B0054F58312087A02086025E025E02437F52B
:10565B0082E43405229003ADE0F4FFA3E06FFFA3D7
:10566B00E06FFFA3E06FFF64556009EF644A6004CD
:10567B00EFB40A010F90052FEFF0229005D7EFF151
:10568B0003FEFD75F0E8ED122599E0FC700C90051A
:10569B00D8E0B4FF02EDF00F8006EC30E0027E01A3
:1056AB000DEDB404DE9005D7E06401600DEFC394FB
:1056BB00025007EE7004A374FFF09005D8E0FFC30F
:1056CB0094045024EFD1F67B017DE8E4FF120162D4
:1056DB009005D7E04410FFA3E0FE75F0E812259982
:1056EB00EFF0EED1F67B012202131375F0E8A42440
:1056FB0002F9740035F0FA22F0A374FFF0E4FF22F4
:10570B00E4FF75F0E8EF122599E060037F00220FAC
:10571B00EFB404EE7F0122E4FF75F0E8EF12259958
:10572B00E054F0FEBE40037F00220FEFB404EA7F8B
:10573B000122EF7011ED600775FF0143AE01227579
:10574B00FF0153AEFE22EFB40110ED600775FF01B0
:10575B0043AE022275FF0153AEFD2275FF02E5E653
:10576B0030E2037F0322E5E630E3037F0022E5E628
:10577B0030E1037F0422E5E67F0530E0027F012262
:10578B00EF600775FF0253E6BF2275FF0243E64049
:10579B0022EF14600F146014240270188B8075FFB5
:1057AB00018DFD228B9075FF018DC9228BA075FF9A
:1057BB00018DCA22AF038FB075FF01AF058FCB22CE
:1057CB009022E0120929EF14601314601C2402705C
:1057DB0024125819E58012580DE5FD802212581934
:1057EB00E59012580DE5C98016125819E5A012580C
:1057FB000DE5CA800A125819E5B012580DE5CB0217
:10580B00059412059475FF019022E0020920902265
:10581B00E3020920E4F5FFAF9122E4F5FFAF9222FA
:10582B00902399E0FF22E4902399F02243FB10751B
:10583B00FF0243E640EF600D75FF02E5E120E7FB59
:10584B0043FB0D800343FB0E80FE90234B1227ED91
:10585B00EBF011D8120076AC00AD01AE02AF03C075
:10586B0006C00790234B11EDFBAA06E4F9F8D0070D
:10587B00D006D31208137E0050047F0180027F00F4
:10588B00C006C00711D8120076D0E02FFFD0E03E43
:10589B0090234BF0A3EFF053ECFC90234BE0FCA3D5
:1058AB00E0FDEC540342EC75FF02EDF5AF75ED0234
:1058BB0075ED04A3E0600543EC08800353ECF7900F
:1058CB00234EE0600443EC042253ECFB2290234B69
:1058DB00E0FEA3E0FBAA06E4F9F87F807E387D01A9
:1058EB00FC22E0C313FEA3E013229022461208D73A
:1058FB00E4F5FF75BB0575BB8575FF0175D50220FA
:10590B0019087F3FFE1237C531E775FF0143D520DC
:10591B0030190221C0E4F5FF538EF7438E077D0447
:10592B00E4F5FF8DBCF5FF43B102E5B130E2FBE4DA
:10593B00F5FFAFDFEFFEACDEECFBEBFFED25E0247C
:10594B0044F582E43422F583EEF0A3EFF0E4F5FFA7
:10595B00F5FF53B1FD0DEDB40CC6902246124D610F
:10596B00FF780912083AA3EEF0A3EFF0E4FDED2562
:10597B00E0244EF582E43422F583E0C313FAA3E06E
:10598B0013FB31DA11ED2BFFEE3AFE31DAEEF0A319
:10599B00EFF0ED240490120DF0EDC394075016CFE9
:1059AB00EDCF0DEF31DB1217E790224BE09F9022EA
:1059BB004AE09E50B9E4F5FF758EC8F5FF90120DC5
:1059CB00E0F5BCE4F5FF75BB8075FF01F5D522ED65
:1059DB0025E0244CF582E43422F58322E4F5FF75AF
:1059EB00C2E17F1E51D730E707E4F5FF75C2A12254
:1059FB00E4F5FF75C28122E490235FF0A304F0E489
:105A0B00902362F0E5FA30E1FB75FF01E5D530E755
:105A1B00037F0022E4F5FF75E50875FF0153D8EF0E
:105A2B00E5D530E61A75FF01902361E5DAF0E4F570
:105A3B00DA75FF01E5D630E3FB9023627401F07554
:105A4B00FF03759B0475FC4175FF03E59B30E7FB7A
:105A5B00E4FB75FF038B95EB124D54FF124F650B57
:105A6B00EBB403EE75FF03759580E4F5FF758EC8F7
:105A7B0031E775FF0153D5FB124FC01237C175FFCC
:105A8B000143D504902362E07008124FC07FC81207
:105A9B0037C37B017A23796051E0902360E0902338
:105AAB005F7006E04404FF8002E0FF90235FEFF09D
:105ABB0090120EE0B4010675FF0143D81075FF017B
:105ACB00902361E0F5DA90235FE0FF22FE12375955
