:020000040000FA
:1000000002180002180356BB18462202180B09AC4E
:1000100009B1220218130FF74F392202181B092FBA
:100020000A51220218230BB40CB32202182B4B7A6C
:100030007F0622021833120E96222202183B022556
:010040001BA4
:06004300021843020BAF9E
:06004B0002184BA21C226A
:060053000218530237E71A
:06005B0002185B023A8866
:06006300021863023A538B
:06006B0002186BC219220D
:100073000218734107350041073400E0010200050F
:1000830054E001020006A5C11A41046406011400EC
:100093004104630141046101C11D011900011700FD
:1000A3004303BE0000004303BB0103BE42357898FF
:1000B30007433B90000000423B8E0000E00102003A
:1000C3007900E00102008A00C10941327700413220
:1000D300F1FF4132E900C108C1074132F200413268
:1000E300F3004132EA01C10B41327600414468001A
:1000F300C13E434259000000434256014259433D29
:10010300DA000000413DD900413DDD004143B10229
:100113004143B00D4143B20860203AB642DB0100CF
:1001230000000000000000000000000000000000CC
:1001330000000000000000000000000060203AD62C
:1001430009000000000000000000000000000000A3
:10015300000000000000000000000000000000009C
:10016300503CDE0000000000000000000000000022
:10017300000000C114015800C111C112414137FFF1
:10018300C11EC120C1294229E198404129E30060F1
:100193002029A00000000000000000000000000073
:1001A300000000000000000000000000000000004C
:1001B3000000004326559F01005026580000000010
:1001C30000000000000000000000000161222C5B21
:1001D300000201050101020E0601010004070401EA
:1001E30002030000040006080504020803140400C7
:1001F3000400140501080908050208031405000496
:10020300001405000600140802020A0A080203018A
:100213000008000400140800060014080108001474
:100223000A020D000A0A020C000A0A02080B0A0A53
:1002330001050C0E0A000400140A000600140A014A
:100243000800140E000A0D110E020804140E000417
:1002530000140E000600140E010800140E01050020
:100263001411000C0C0E11020804141100040014E4
:1002730011000600141101080014110105001411E6
:10028300000A00141102050E1212020804141202CD
:100293000C0F0012000400141200060014120108CF
:1002A3000014120105001412000A001412020500C2
:1002B3001412000C001413020C01000002090000C8
:1002C30000020F0000140209010014020B001314B2
:1002D3000007100014020A0100140204001414029F
:1002E3000C001414020D010014020E001414020F6A
:1002F300010060242E660200FFFF0602FF000602D3
:10030300FF000301FF002300FFFF030000001300B1
:1003130000000200010103000000462DBD010002A0
:10032300010402422E430B9B412ECA00413064015B
:10033300412ED000432ECD012E8B432EC1012E8B97
:10034300410AA200602004CAEDFFFFFFFFFFFFFF89
:10035300FFFFFFFFFFFFFFFFFFFFFFFFFFFFFFFFAA
:10036300FFFFFFFFFFFFFF7F602825F90522000045
:1003730000030008EEEF7F88CF60C00F028124E006
:1003830040000000008080180000E83300000600F1
:100393000060000041215C0041216C0041215A01B1
:1003A30041215F1141215B0041238F004123AE00B6
:1003B30041238C004123B6004F239F0126270001D0
:1003C30023CA00012641000000004223C80100C1E6
:1003D3002BC12C4133529641334E0F414230FF41E2
:1003E300422E04C1C541422B0041422F0041422C01
:1003F300FF473C7C00000000000000433C79000004
:1004030000007581B075FF03759E0212082002314A
:100413000C02053E900076E47E019360F4A3FF5442
:100423003F30E509541FFEE493A360010ECF54E06F
:10043300B4E00EEFFAEEF9A3A3A3A3DAFDD9FB8090
:10044300D654C025E0604B5026E493A3F854072408
:100453000CC8C333C4540F4420C8834004F45680EB
:100463000146F6DFE480B00102040810204080E476
:1004730093A3FAE493A3F8E493A3C8C582C8CAC5B7
:1004830083CAF0A3C8C582C8CAC583CADFE9DEE749
:100493008085E493A3F8E493A34003F68001F20874
:1004A300DFF402041AC2D5E830E70FB2D5E4C39BE8
:1004B300FBE49AFAE499F9E498F8EC30E717B2D53B
:1004C3001204DE121CB2E4C39BFBE49AFAE499F92A
:1004D300E498F88003121CB230D50DE4C39FFFE407
:1004E3009EFEE49DFDE49CFC2208C608CB08D008D0
:0C04F300D508DF08EE08F308F8025306F5
:1005080078B0E4F6D8FD9000007F007E10E4F0A3F8
:10051800DFFCDEFA904485A3E583C394204011FEF6
:10052800AF829020000E0FE48002F0A3DFFCDEFA19
:100538001208200204172232556E6B6E6F776E20F8
:100548006576656E743A20000A002C0020000AE7E0
:100558000AEC0AF1EF90056593900800730A2036BB
:100568004CE571FF22EFF571220000010000000048
:100578001706000000001806000000061806000014
:10058800000118060000000818060000000101011B
:100598000000000115000000000102040000000135
:1005A8000B04000000060B04000000080B04000008
:1005B80000010D00000000010E0400000001100001
:1005C800000000010F000000000405010000000405
:1005D80006060000000407080000000205000000ED
:1005E80000030501000000010805000000000800E4
:1005F800000000010C0100000001120500000008C5
:100608000302000000012200000000081608000094
:10061800000808000000000116010000000616018D
:10062800000000050903000000050A00000000059D
:100638000302000000050400000000061B0600007D
:1006480000011B06000000061C07000000061D072D
:10065800000000070508000000081E070000000849
:100668002000000000081F00000000082100000012
:100678000008110600000001110600000008220011
:10068800000000061906000000061E000000000613
:100698002000000000061A080000000614010000EF
:1006A80000071401000000081B06000000072400D2
:1006B80000000008140100000009040000020A00FC
:1006C8000000070582022000000705020220000042
:1006D800090401000102020100052400100105249B
:1006E8000100010424020005240600010705810316
:1006F800080020120100020200000858060002004B
:10070800000000000109020000000100803204031B
:100718000409A280CACF0998445CAD5506414695A4
:1007280003860A74555555555555555555555555BE
:10073800555555333333333333333333333333331B
:100748003333338888888888888888888888888820
:100758008888000000000005000006000000100066
:100768000024288000002420800000113821000087
:100778004428800000442080000034382100003FD5
:10078800241E16110E0B09070504030201F0C8A761
:1007980091776760463835323024222014000101F1
:1007A800020203030404050506060707000000000B
:1007B8000000000000000000000000000000000031
:1007C800000000000000000000000087888888887A
:1007D800888888888888888888888826262626267B
:1007E80026262626262626262626265A2D576176AA
:0707F8006520342E363100AC
:10080000C0717408C0E0C082C08375710AE5FF54EE
:10081000CF4490F5FF22C0717408C0E0C082C0834D
:10082000757120E5FF54CF4490F5FF22C071740824
:10083000C0E0C082C083757136E5FF54CF44A0F597
:10084000FF22C0717408C0E0C082C08375714CE59E
:10085000FF54CF44B0F5FF229081AA0116909FF675
:10086000011690A022011690A03A011690A03B011B
:100870001690C089011690BC7A011690C3340116F7
:1008800090B8CA0116909EE2011690B7EB0116903F
:10089000C3AA011690C3C201169095B6011690C363
:1008A000C301169081F8011690D656011690D7C64E
:1008B000011690D877011690A149011690D916011A
:1008C0001690D932011690C264011690C1A7011684
:1008D00090D946011690AC7C011690DA1201169060
:1008E000AD75011690BC43011690B78D011690BDF1
:1008F00008011690BD54011690BE4C011690BDCA59
:10090000011690DACC011690BCAE011690AB5701DF
:100910001690C102011690AEEF011690DADF0116B3
:1009200090C280011690DA41011690D97601169096
:10093000BF8C011690DA7A011690BFC2011690DBC7
:1009400039011690DB67011690DB80011690DB9E63
:10095000011690DBE9011690DC8C011690DC3C015D
:100960001690AD98011690DCB3011690DCBA011612
:1009700090DCCE011690D6EE011690D6430116906B
:10098000D6DB011690C837011690DCD5011690A071
:100990007F011690DCDD011690A0FC011690A7A443
:1009A000011690DCE3011690DD5D011690AC6F013D
:1009B00016909D93011690CA2F011690D200011631
:1009C00090D486011690C94F011690DDE101169072
:1009D000DF1A011690DEE8011690DF9C011690E008
:1009E00014011690D736011690809701169080FB5F
:1009F0000116908000011690815F011690B5A30149
:100A00004290ADF6014290B62B014290B66A014287
:100A10009083D9014290886201429088900142906F
:100A2000888D01429083F8014290B6D4014290B77C
:100A30005C014290B86E014290B87101429080A36F
:100A400001429088AD014290B8740142908BD6016A
:100A50004290B8E00142908D7F014290BA980142E5
:100A60009083FB014290C0CD0142909FAA01429029
:100A7000C1A4014290C2BE014290C5D101429097EB
:100A800069014290C880014290C8CF014290800025
:100A900001429083ED014290C8F7014290C90901DB
:100AA0004290C922014290D06101429097180142C0
:100AB0009098A8014290CD46014290D0B401429056
:100AC000D0C5014290D0EE014290D114014290D1A4
:100AD0005B014290CD6A01429088DD014290CF1CBB
:100AE0000142908935014290D284014290D3210184
:100AF00042908F7A014290D2CD014290966101429C
:100B000090D3C0014290D46B014290BEAE0142909E
:100B1000D8A4014290D8FA014290DAC0014290DA9A
:100B2000C8014290DADE014290DB0A014290DB12FA
:100B3000014290DB1A014290DB36014290DB6001FA
:100B40004290DB6C014290DB77014290DB7E0142F8
:100B500090DB84014290DB8A014290DB900142905D
:100B6000DB96014290C8E3014290E2ED0142908F92
:100B70002D014290EB2E014290EC200142909053C7
:100B800001429087F7014290ECD6014290A3DF0129
:100B90004290ECDF014290ECEA014290ED2E0142DE
:100BA00090ED2F014290883E01429088370142909B
:100BB000ED38014290D34A014290966A014290E793
:100BC000C0014290EDC2014290EE78014290EF8662
:100BD000014290EEF7014290C78F014290E2E50199
:100BE0004290EF9C014290E4F8014290E4B7014248
:100BF00090B17C014290B1F9014290B08C014290D9
:100C0000AEF9014290B597014290B3C70142909866
:100C10007D014290D02E0142909825014290AF0074
:100C20000142909CE7012C909EA3012C909FD10142
:100C30002C909CF0012C909D08012C90A033012C4D
:100C4000909D25012C90A044012C909AE9012C90B4
:100C50009D11012C909D2E012C90A0CB012C90A0D9
:100C6000FE012C90A13B012C9081F6012C90A27CDE
:100C7000012C90A286012C90956B012C909B8D01EC
:100C80002C9099BE012C90A2BD012C909D43012C6B
:100C90009093D1012C909C72012C90A3B6012C90C2
:100CA0009BE3012C9080F3012C909DF9012C90A4E2
:100CB00043012C909AC0012C00000D3F04000D3F11
:100CC0000400000000020C00013F3F3F0404044008
:100CD0004040000000000C220C270C2C0C310C367C
:100CE0000C3B0C400C450C4A0C4F0C540C590C5E40
:100CF0000C630BBE0BC80BCD0BD20BD70BDC0BE17F
:100D00000BEB08620867088F089408990AA60AB5D1
:100D10000ABA0ABF0AC4822D1C1613111010000350
:100D2000010206040553DF545453F30C950C9A0C3E
:100D30009FE4FD7C0CAB050DEB9007F3938F828E47
:100D400083F00FBF00010EDCEC0200308F828E8337
:100D5000E4F0A37404F08F828E83A3A3743DF08F1C
:100D6000828E83A3A3A3E4F02290445AEFF0903F35
:100D70003EE0B40110C2ED7A44795A903FE312107C
:100D800028B186D2ED22903FE0121F7F903FE0D144
:100D90000EFF900002121991C39F400122903FE381
:100DA000121F5F903FE7121F7FE4903FE6F0903FF5
:100DB000E0F1D4903FE6E0FEC39F502FA3121F5FE7
:100DC0008E82D129FDD1178FF0A4FF903FE6E07A03
:100DD000002FFFEA35F0FE903FE0121F5FF1DFEDDC
:100DE000121A25903FE6E004F080C3D117F1C3D179
:100DF00011FD7C00121A59903FE0121F5F90000114
:100E0000ED121A2590000274011219E0D322121F6C
:100E10005F900003021991903FE0121F5F90000164
:100E2000021991121F5F85668275830002199190E5
:100E300042FC121F7F9042FF121823943F4003741C
:100E40003FF075FF02E5CD30E105E4F565800375FF
:100E50006501E5656031E5FD256604543FFFE5DD8C
:100E6000543F6F60229042FFF1F0501B9042FCD142
:100E700023AEFD12184E543F248EF582EC3406F555
:100E800083EFF0056680CBE5656008E5FD256654D7
:100E90003FF5FDAF6622904484EFF07B017A447900
:100EA000847D01D12F7F01227A0A7B7412BC2390AA
:100EB0003F3E7401F0FBD1CE7E0F7FF7900739E003
:100EC000FCA3E04C700690073902308AC3227A3FB7
:100ED00079479040BB121F7F9040BE7401F0A3740D
:100EE00005F07A3F793F9040B8121F7FF127E41256
:100EF0001A13F127900001E4121A259040BFE0F187
:100F0000EA900002E4121A259040BEE0900004121C
:100F10001A259040BB121F5FC003C002C001F12719
:100F2000900005122027229040B8021F5F7F011217
:100F300035D7903F3EE0B401047B01D1CE22903FF3
:100F4000B4121F7FE4903FBAF0F1CA121991D39402
:100F500000406F903FB7121F5F903FBC121F7FE4AD
:100F6000903FBBF0903FB4F1D4903FBBE0C39F50A3
:100F7000301219548FF0A4FF903FBBE07C002FFF8C
:100F8000EC35F0FEF1DF121991FF903FBC121F5FAC
:100F9000903FBBE0F582122504903FBBE004F08057
:100FA000C3903FB4D10EFD7C00121954F1C3121A44
:100FB00059903FB4121F5FED121A13F1CA74FF1259
:100FC00019E0222401FFE433FE22903FB4121F5F98
:100FD00090000222121F5F900004121991FF2290CC
:100FE0000005121FF78F828E8322900003021A25BC
:100FF000E0FFE566C39F22903F3EE0640170287BDE
:10100000017A3F793F121032EF701C90445BF0C2BE
:10101000ED7A44795B903FB71128120F3ED2ED90E4
:10102000445BE0FF120A6F227B01121F7F7A3F7937
:101030003F22900002121991D394007F0050027F4A
:101040000122C0E0C0F0C083C082C0D075D000C013
:1010500000C001C002C003C004C005C006C00790A4
:10106000445CE5FFF075FF02E5D430E60F75D4402F
:1010700090423831BD600531C41220E475FF02E5AD
:10108000D430E50F75D42090423A31BD600531C4AB
:101090001220E475FF02E5D430E41075D41031BAA3
:1010A00060098F828E837F051220E475FF02E5D4EC
:1010B00030E30C75D40890423831BD600231CB75F5
:1010C000FF02E5D430E20C75D40490423A31BD60A1
:1010D0000231CB75FF02E5D430E11675D40212253A
:1010E00043EF600D31BA600512609B8004510231FC
:1010F000D475FF02E5D430E01075D40131BA60092F
:101100008F828E837F071220E475FF02E5D530E4DD
:101110001075D51031BA60098F828E837F0312203B
:10112000E475FF02E5D530E11075D50231BA6009EA
:101130008F828E837F061220E475FF02E5D530E0B2
:101140001075D50131BA60098F828E837F04122019
:10115000E475FF02E5D530E21075D50431BA6009B7
:101160008F828E837F0A1220E475FF02E5D530E777
:101170001075D58031BA60098F828E837F08122066
:10118000E475FF02E5D530E61075D54031BA600947
:101190008F828E837F091220E490445CE0F5FFD0BB
:1011A00007D006D005D004D003D002D001D000D0A3
:1011B000D0D082D083D0F0D0E03290423CE0FEA389
:1011C000E0FF4E228F828E837F01228F828E83E406
:1011D000FF0220E45122E4F59E7F01229043101289
:1011E0001EC79032EF31BD600231EC22901244E014
:1011F000FD8F828E83E4FF1220E4E49032EFF0A3AF
:10120000F02275FF0153CCFD43FB405122759E0136
:1012100043FB0975FF03859E9E75FF03859E9E7F98
:10122000012275FF0243D20175FF0322904460EF53
:10123000F0903B8E31BD6024903B93517F903B8E6C
:10124000F0A3F0904460E0FE7003FF8003EE14FF13
:10125000903B93E0FCA3E0FDF582801D903B8C1257
:1012600060AE601A904460E0FE7003FF8003EE14ED
:10127000FF7B017A3B796D8D828C831220E422EE14
:10128000F0A3EFF0E422903E0B125F8E75BB057564
:10129000BB8575FF0175D502203604F186F1C57551
:1012A000FF0143D5203036026148E4F5FF538EF745
:1012B000438E077D04E4F5FF8DBCF5FF43B102E5E5
:1012C000B130E2FBE4F5FFAFDFEFFEACDEECFBEBB1
:1012D000FFED25E02409F582E4343EF583517FF5E6
:1012E000FFF5FF53B1FD0DEDB40CCA903E0BB12ECE
:1012F0007809121D86A3517FFDED25E02413F582A8
:10130000E4343EF583E0C313FAA3E013FB125F4D10
:10131000E0C313FEA3E0132BFFEE3AFE125F4DEE87
:10132000F0A3EFF0ED240490120DF0EDC3940750FC
:1013300017CFEDCF0DEF125F4E125F46903E10E0DB
:101340009F903E0FE09E50B1E4F5FF758EC8F5FF0B
:1013500090120DE0F5BCE4F5FF75BB8075FF01F55B
:10136000D522903CBE121EC7903CCE7401F0E4A37F
:10137000F0F19675FF02E5E630E00E903CCF740187
:10138000F0FB7A3C79CF124E0C903CD9125F86F577
:10139000A490120FF0903CD07402F075FF03903CC3
:1013A000D0E0FFF595EF1460171460242402703329
:1013B000903CBEB12E903CD5121EC7903CCA801EF8
:1013C000903CC2B12E903CD5121EC7903CCB800EF3
:1013D000903CC6B12E903CD5121EC7903CCCE090FC
:1013E0003CDDF0125C12903CDDE07005126006807E
:1013F0006590120EE004F0903CD012180A903CCF99
:10140000E07019903CD9B12E903CD5F1E7C3121D84
:10141000755009903CD5B12EA3121EC7903CDDE05B
:10142000FF125AA3903CCDE0FF903CD0E0FDA23AE1
:101430009237125AF1903CCFE07012903CD5B12E09
:101440009042C1121EC7903CD0E0FFD1B9903CD071
:10145000E0B12112594E1260EB6002619B903CCFCB
:10146000E0704EA37402F075FF03903CD0E0F59558
:10147000E5F454077013903CD9D190FC7801121D0B
:1014800086903CD0B10E12594E1260EB70D9903C50
:10149000D9125F702420FFEE344ED1B2FCE4FB7A07
:1014A00004F9F8D1A0FC7801121D86903CD1121EDF
:1014B000C7124F4D400343F420A23A9238125B43C7
:1014C000903CCFE024FF9236903CD1B12E126024A4
:1014D000F5BDE4F5FF75E508125A3EE59B30E7FBE4
:1014E000F14CF1E143D5047FC8F15ED16AF18D7B07
:1014F000017A3C79CE125A4B90120EE0B4010312DD
:1015000047DC903CCEE0B40103D38001C322E0FB72
:1015100025E025E02401F582E43412F583121EC78C
:10152000EB25E025E02401F582E43412F583E0FCAC
:10153000A3E0FDA3E0FEA3E0FF22903D8B121EC7B7
:10154000F196903DA0125F86F5A490120EF0A3F0E4
:10155000903D9B7402F075FF03903D9BE0FFF59575
:10156000EF14601714602424027033903D8BB12E69
:10157000903D9C121EC7903D97801E903D8FB12ECE
:10158000903D9C121EC7903D98800E903D93B12EC9
:10159000903D9C121EC7903D99E0903DA4F0125CD6
:1015A00012903DA4E07005126006805590120EE086
:1015B00004F0903D9B12180A903DA0B12E903D9CE6
:1015C000F1E7C3121D755009903D9CB12EA3121E68
:1015D000C7903DA4E0FF125AA3903D9AE0FFA3E01C
:1015E000FDA2399237125AF1A3B12E9042C1121EB8
:1015F000C7903D9BE0FFD1B9903D9BE0B1211259CE
:101600004E1260F46002A1567402F075FF03903D23
:101610009BE0F595E5F454077018FF7E04FDFC90FF
:101620003DA0D195FC7801121D86903D9BB10E1214
:10163000594E1260F470D4124F4D400343F420A26F
:10164000399238125B43903DA0125F702420FFEE68
:10165000344ED1B2FCE4FB7A04F9F8D1A0FC780155
:10166000121D86C236126024F5BD9012137401F06B
:101670007E127F01E4FD8F828E83EF2DF582E43EA2
:10168000F583E0FC901213E02CF00DEDB412E7228C
:10169000FF7E04FDFCE0F8A3E0F9A3E0FAA3E0FB81
:1016A000121C27E47B7DFAF9F8121CB2EF2401FF2B
:1016B000E43EFEE43DFDE43C229042C0EFF0E4A3B2
:1016C000D190FC7801121D869042C0E0FB123F745D
:1016D000121EC7901210E064806070E0C3947F50C7
:1016E00038EB123F74C083C082B12EEEC0E0EFC071
:1016F000E0901210E075F004A4AEF0FBCAEECAEA66
:101700003395E0F9F8D0E0FFD0E0FEC3EF9BFFEEA9
:101710009AFEED99FDEC98802A9042C0123F73C06A
:1017200083C082F1E7901210E0F40475F004A4FF86
:10173000AEF0EE3395E0FDFCEB2FFFEA3EFEE93D17
:10174000FDE83CFCD082D083121EC722E4F5FF7571
:101750008EC8F1C575FF0153D5FBF1F37F147E00F0
:10176000F16975FF034391802275FF03D3EF940263
:10177000EE9400400874FE2FFF74FF3EFEEFF592DA
:10178000EE540FF591227F3FFEF169F16275FF0380
:10179000E59120E7FB2275FF0243E180125C1F7593
:1017A000FF01438E1075FF0153DB7F75FF0175D577
:1017B00002F15CF1E1438E1075FF0143DB8075FFA0
:1017C00001E4F5D522E4F5FF75C2E17F1E124F1347
:1017D00030E707E4F5FF75C2A122E4F5FF75C28189
:1017E00022F18D75FF0122E0F8A3E0F9A3E0FAA34E
:0A17F000E0FB2275FF03E4F59122EF
:10180000020405A2349234227FB8E033333354F813
:10181000F5F42275FF028FD675FF02AF058FD77FD3
:1018200001800BEDF0E4F566EDD32202402EEF606F
:1018300003D2ED22C2ED2275FF02EFF452D475FF00
:0918400002EDF452D522020B91D5
:0E184B0002425CFFE566FDEE2DFD7C00ED2205
:10185B00021042E709F608DFFA8046E709F208DFD3
:10186B00FA803E88828C83E709F0A3DFFA8032E3AB
:10187B0009F608DFFA8078E309F208DFFA8070884E
:10188B00828C83E309F0A3DFFA806489828A83E088
:10189B00A3F608DFFA805889828A83E0A3F208DF77
:1018AB00FA804C80D280FA80C680D4806980F28026
:1018BB0033801080A680EA809A80A880DA80E2804C
:1018CB00CA803389828A83ECFAE493A3C8C582C8A1
:1018DB00CCC583CCF0A3C8C582C8CCC583CCDFE90B
:1018EB00DEE7800D89828A83E493A3F608DFF9ECA7
:1018FB00FAA9F0EDFB2289828A83ECFAE0A3C8C532
:10190B0082C8CCC583CCF0A3C8C582C8CCC583CC58
:10191B00DFEADEE880DB89828A83E493A3F208DFC7
:10192B00F980CC88F0EF60010E4E60C388F0ED2497
:10193B0002B4040050B9F582EB2402B4040050AF9A
:10194B0023234582239018AE73BB010689828A83B9
:10195B00E0225002E722BBFE02E32289828A83E463
:10196B009322BB010B89828A83F8E0C828F0E82216
:10197B00500327C722BBFE07F8E3C828F3E8228AE7
:10198B00838982E49322BB010CE58229F582E583EE
:10199B003AF583E0225006E92582F8E622BBFE06E3
:1019AB00E92582F8E222E58229F582E5833AF5837F
:1019BB00E49322BB010989828A83F8E028F0225044
:1019CB000327F722BBFE05F8E328F3228A838982DB
:1019DB00F8E4932822BB010FF8E58229F582E58311
:1019EB003AF583E028F0225009C58229F8E58226D2
:1019FB00F622BBFE09C58229F8E22582F222F8EA1B
:101A0B002583F583E9932822BB010689828A83F01B
:101A1B00225002F722BBFE01F322F8BB010DE58237
:101A2B0029F582E5833AF583E8F0225006E9258211
:101A3B00C8F622BBFE05E92582C8F222EF8DF0A481
:101A4B00A8F0CF8CF0A428CE8DF0A42EFE22BC00E3
:101A5B000BBE0029EF8DF084FFADF022E4CCF875BE
:101A6B00F008EF2FFFEE33FEEC33FCEE9DEC9840CD
:101A7B0005FCEE9DFE0FD5F0E9E4CEFD22EDF8F569
:101A8B00F0EE8420D21CFEADF075F008EF2FFFEDC9
:101A9B0033FD4007985006D5F0F222C398FD0FD5C1
:101AAB00F0EA22C2D5EC30E709B2D5E4C39DFDE4E0
:101ABB009CFCEE30E715B2D5E4C39FFFE49EFE120B
:101ACB001A59C3E49DFDE49CFC8003121A5930D5CE
:101ADB0007C3E49FFFE49EFE22C5F0F8A3E028F0C5
:101AEB00C5F0F8E582158270021583E038F022A369
:101AFB00F8E0C5F025F0F0E582158270021583E061
:101B0B00C838F0E822BB010A89828A83E0F5F0A38A
:101B1B00E022500687F009E71922BBFE07E3F5F038
:101B2B0009E3192289828A83E493F5F074019322E5
:101B3B00BB0110E58229F582E5833AF583E0F5F0E8
:101B4B00A3E0225009E92582F886F008E622BBFEC5
:101B5B000AE92582F8E2F5F008E222E5832AF5830B
:101B6B00E993F5F0A3E99322BB010DC58229C58248
:101B7B00C5833AC583021AE45011C58229F808E5DA
:101B8B00F026F618F5F0E58236F622BBFE11C5827B
:101B9B0029F808E225F0F5F0F218E23582F222F886
:101BAB00E58229F582E5832AF58374019325F0F507
:101BBB00F0E4933822BB010A89828A83F0E5F0A313
:101BCB00F0225006F709A7F01922BBFE06F3E5F049
:101BDB0009F31922F8BB0111E58229F582E5833A55
:101BEB00F583E8F0E5F0A3F0225009E92582C8F669
:101BFB0008A6F022BBFE09E92582C8F2E5F008F23F
:101C0B0022EF2BFFEE3AFEED39FDEC38FC22C3EF51
:101C1B009BFFEE9AFEED99FDEC98FC22E88FF0A469
:101C2B00CC8BF0A42CFCE98EF0A42CFC8AF0EDA458
:101C3B002CFCEA8EF0A4CDA8F08BF0A42DCC38258B
:101C4B00F0FDE98FF0A42CCD35F0FCEB8EF0A4FE6B
:101C5B00A9F0EB8FF0A4CFC5F02ECD39FEE43CFC00
:101C6B00EAA42DCE35F0FDE43CFC2275F00875821C
:101C7B0000EF2FFFEE33FECD33CDCC33CCC582330B
:101C8B00C5829BED9AEC99E58298400CF582EE9B10
:101C9B00FEED9AFDEC99FC0FD5F0D6E4CEFBE4CD2E
:101CAB00FAE4CCF9A88222B800C1B90059BA002DC8
:101CBB00EC8BF084CFCECDFCE5F0CBF97818EF2F81
:101CCB00FFEE33FEED33FDEC33FCEB33FB10D703B0
:101CDB00994004EB99FB0FD8E5E4F9FA227818EF59
:101CEB002FFFEE33FEED33FDEC33FCC933C910D7B8
:101CFB00059BE99A4007EC9BFCE99AF90FD8E0E4C5
:101D0B00C9FAE4CCFB2275F010EF2FFFEE33FEED9A
:101D1B0033FDCC33CCC833C810D7079BEC9AE8996A
:101D2B00400AED9BFDEC9AFCE899F80FD5F0DAE44C
:101D3B00CDFBE4CCFAE4C8F922EF5BFFEE5AFEEDE3
:101D4B0059FDEC58FC22C3E49FFFE49EFEE49DFD8D
:101D5B00E49CFC22EB9FF5F0EA9E42F0E99D42F0F9
:101D6B00EC6480C864809845F022EB9FF5F0EA9E06
:101D7B0042F0E99D42F0E89C45F022E8600FECC38D
:101D8B0013FCED13FDEE13FEEF13FFD8F122E86009
:101D9B000FEFC333FFEE33FEED33FDEC33FCD8F125
:101DAB0022BB010789828A83021E3A5005E9F80299
:101DBB00230DBBFE05E9F802231989828A83021ED3
:101DCB0046BB010DE58229F582E5833AF583021EB8
:101DDB003A5007E92582F802230DBBFE07E925825D
:101DEB00F8022319E58229F582E5833AF583021E71
:101DFB0046BB010789828A83021EC75005E9F80298
:101E0B00234FBBFE05E9F802235B22BB010DE582E4
:101E1B0029F582E5833AF583021EC75007E925822F
:101E2B00F802234FBBFE07E92582F802235B22E071
:101E3B00FCA3E0FDA3E0FEA3E0FF22E493FC74010E
:101E4B0093FD740293FE740393FF22E0F8A3E0F971
:101E5B00A3E0FAA3E0FB22BB010DE58229F582E5A5
:101E6B00833AF583021E565007E92582F802232593
:101E7B00BBFE07E92582F8022332E58229F582E5CC
:101E8B00833AF58302233F7401FF3395E0FEFDFC9B
:101E9B00A3A3A3E02FFFF0E582158270021583E068
:101EAB003EFEF0E582158270021583E03DFDF0E504
:101EBB0082158270021583E03CFCF022ECF0A3ED5E
:101ECB00F0A3EEF0A3EFF022A8828583F0D083D0AD
:101EDB0082121EEA121EEA121EEA121EEAE473E4D2
:101EEB0093A3C583C5F0C583C8C582C8F0A3C583BA
:101EFB00C5F0C583C8C582C822BB010789828A8306
:101F0B00021ED35005E9F8022367BBFE05E9F80270
:101F1B00238022BB010DE58229F582E5833AF58307
:101F2B00021ED35007E92582F8022367BBFE07E99F
:101F3B002582F802238022F5F0C582A4C582C5F064
:101F4B00C583A42583F58322A42582F582E5F0358C
:101F5B0083F58322E0FBA3E0FAA3E0F922F8E0FB90
:101F6B00A3A3E0F925F0F0E582158270021583E05A
:101F7B00FA38F022EBF0A3EAF0A3E9F022BB010759
:101F8B0089828A83021F5F5005E9F8022399BBFE01
:101F9B0005E9F80223AB89828A830223BDBB011AB0
:101FAB0089828A83D0F0D0E0F8D0E0F9D0E0FAD083
:101FBB00E0FBE8C0E0C0F0021F7F5016E9F8D083C9
:101FCB00D082D0E0F9D0E0FAD0E0FBC082C083022F
:101FDB0023A2BBFE16E9F8D083D082D0E0F9D0E083
:101FEB00FAD0E0FBC082C0830223B422BB010DE513
:101FFB008229F582E5833AF583021F5F5007E925B5
:10200B0082F8022399BBFE07E92582F80223ABE590
:10201B008229F582E5833AF5830223BDBB0120E5D6
:10202B008229F582E5833AF583D0F0D0E0F8D0E051
:10203B00F9D0E0FAD0E0FBE8C0E0C0F0021F7F501F
:10204B0018E92582F8D083D082D0E0F9D0E0FAD01D
:10205B00E0FBC082C0830223A2BBFE18E92582F8F5
:10206B00D083D082D0E0F9D0E0FAD0E0FBC082C0C0
:10207B00830223B422D083D082F8E49370127401CC
:10208B0093700DA3A393F8740193F5828883E47383
:10209B007402936860EFA3A3A380DFD083D082E4A4
:1020AB00937012740193700DA3A393F8740193F5BD
:1020BB00828883E4737402936C70127403936D7053
:1020CB000C7404936E70067405936F60DDA3A3A369
:1020DB00A3A3A380CA8A838982E473E56C2582F566
:1020EB0082E56B3583F583B56B0485826C2210AF6B
:1020FB000685826CF56B2285826CF56BD2AF22EC78
:10210B008EF0A4CCC5F0CCCDF8EFA4CEC5F02DFD50
:10211B00E43CFCE8A42EC8C5F03DFDE43CFCEFA478
:10212B00FFE5F028FEE43DFDE43CFC22E3F5F0097D
:10213B00E208B5F06BDFF58067E3F5F009E608B56B
:10214B00F05EDFF5805A87F009E608B5F052DFF64E
:10215B00804E87F009E208B5F046DFF680428882B0
:10216B008C8387F009E0A3B5F036DFF680328882E6
:10217B008C8387F009E493A3B5F025DFF5802188E4
:10218B00828C83E3F5F009E0A3B5F014DFF5801042
:10219B0088828C83E3F5F009E493A3B5F002DFF4B6
:1021AB00022266808780E9809080D4803E801580F3
:1021BB006E807E809D80B7808D80A38051807480DF
:1021CB003C02227289828A83ECFAE493F5F0A3C86D
:1021DB00C582C8CCC583CCE493A3C8C582C8CCC583
:1021EB0083CCB5F076DFE3DEE1807089828A83E40D
:1021FB0093F5F0A3E208B5F062DFF4805E89828A82
:10220B0083E0F5F0A3E608B5F051DFF5804D898248
:10221B008A83E0F5F0A3E208B5F040DFF5803C8956
:10222B00828A83E493F5F0A3E608B5F02EDFF48001
:10223B002A8002805789828A83ECFAE493F5F0A313
:10224B00C8C582C8CCC583CCE0A3C8C582C8CCC5E1
:10225B0083CCB5F006DFE4DEE280007FFFB5F00251
:10226B000F2240027F012289828A83ECFAE0F5F08B
:10227B00A3C8C582C8CCC583CCE0A3C8C582C8CCD3
:10228B00C583CCB5F0D5DFE5DEE380CF89828A83C9
:10229B00ECFAE0F5F0A3C8C582C8CCC583CCE493B7
:1022AB00A3C8C582C8CCC583CCB5F0AFDFE4DEE2F2
:1022BB0080A988F0EF60010E4E60ABED2402B404F0
:1022CB00005098F582EB2402B40400508E23234572
:1022DB0082239021AE73EF4E6012EF60010EEDBBC7
:1022EB00010B89828A83F0A3DFFCDEFA2289F0508E
:1022FB0007F709DFFCA9F022BBFEFCF309DFFCA901
:10230B00F022E6FC08E6FD08E6FE08E6FF22E2FC0A
:10231B0008E2FD08E2FE08E2FF22E6FB08E6F90808
:10232B00E6FA08E6CBF822E2FB08E2F908E2FA0843
:10233B00E2CBF822E493F8740193F9740293FA74E4
:10234B000393FB22ECF608EDF608EEF608EFF62207
:10235B00ECF208EDF208EEF208EFF222D083D08215
:10236B00E493F608740193F608740293F608740369
:10237B0093F6740473D083D082E493F208740193C0
:10238B00F208740293F208740393F2740473E6FB7D
:10239B0008E6FA08E6F922EBF608EAF608E9F6226F
:1023AB00E2FB08E2FA08E2F922EBF208EAF208E9AA
:1023BB00F222E493FB740193FA740293F922E4750D
:1023CB00FF02AFD4CDEFCD75FF02AFD5EFFCEDCE55
:1023DB00ECCEFF22904300121F7F904303EDF0756C
:1023EB00FF02E4F566EDD3941F4003741FF075FFF5
:1023FB0002E5CD30E205E4F5658003756501E56521
:10240B006033E5C9256604541FFFE5DE541F6F607A
:10241B0024904303120FF0501C904300120E23AE76
:10242B00C912184E541F24EEF582EC3406F583EFD7
:10243B00F0056680C9E5656008E5C92566541FF59A
:10244B00C9AF6622904304121F7F904307121823D3
:10245B00943F4003743FF075FF02E5CB2566543F74
:10246B00FFE5DB543F6F6026904307120FF0501EC1
:10247B00ADCBED2566FF7E00EF543F244EF582EE8B
:10248B003406F583E090430491FD056680CCE56648
:10249B00600625CB543FF5CBAF6622904308121F45
:1024AB007F90430B121823941F4003741FF075FF8A
:1024BB0002E5CC2566541FFFE5DC541F6F602690A8
:1024CB00430B120FF0501EADCCED2566FF7E00EFD7
:1024DB00541F24CEF582EE3406F583E09043089129
:1024EB00FD056680CCE566600625CC541FF5CCAFA8
:1024FB006622FF121F5F856682758300EF021A2525
:10250B007B017A4479587D01914F904458E0FF222A
:10251B0075FF02E5DB543FFFE5CB543F6F7F006057
:10252B00027F012275FF02E5DC541FFFE5CC541F2F
:10253B006F7F0060027F012275FF02AFD3EF7F0038
:10254B0030E6027F012290073C7402F0900734E0E2
:10255B00FF120C7790073C7405F022F167F12D12F6
:10256B0009931208BC120AA1D156603E7F05D141D6
:10257B00BF540B7F06D141BFA5047F0180027F00B2
:10258B00900734EFF070237E007F00C006C374F316
:10259B009400FE7400D1657A007900D006120858B9
:1025AB0074FFFDFCE4FFFE120961D1567F0060024F
:1025BB007F011209077F05D141BF54097F06D14125
:1025CB00EF64A560117E007F00C006D15D7A0079B3
:1025DB0000D006120858120911120871125EC27A45
:1025EB00127946120A15123815FE4FFDA3E0FC4D69
:1025FB00FDA3E0FB4D600BEE5FFFEC5FFFEB5FF4C9
:10260B007003123661901244E0FF54032446F582A6
:10261B00E43412F583E06F90072FF0E49041A4F0BF
:10262B009041A2F0A3F002000A75FF0275E4047555
:10263B00E40175E4022275FF01E5C420E7FB8FC5B9
:10264B00125939E5C420E7FBAFC622900736E06488
:10265B000122C374799400FE7400940090410DF034
:10266B00A3CEF07B0022E490121BF07F8AD1419025
:10267B004431EFF07021F106E924DC122936FFAE6C
:10268B00F04E607590121B7401F0AA06A907FB901F
:10269B0041E8121F7F8051904431E0FF74E8C39FE3
:1026AB004057E4904430F0904430E0FFC394055021
:1026BB0048EF75F027A4FFAEF0F106E92FF9EA3EDB
:1026CB00FAE92402F9EA3401FA121954FD90443163
:1026DB00E0B5051D90121B7401F105E91254F5E9E3
:1026EB002FF9EA3EFA1255E27A12791D7F27020A78
:1026FB003D904430E004F080AE22F0903B90021FFE
:10270B005FF106E9240FF1257009F106E9240DF1BB
:10271B002560047F0180027F0022F9EA3402FA026D
:10272B001954E4FF75F0EDEF123513E4F00FEFB42D
:10273B0004F2E4F56FF161904392121F7F7B007AF4
:10274B00007900C003C002C001904392121F5F12B8
:10275B001FA822121F7F9003BB021F5F75FF02E5AC
:10276B00E430E10675E40675E403F17FC222E490E0
:10277B00445EF02275FF01E5C420E7FB75FF03758E
:10278B0096FF7584187FFFD141EF64AA602A75FF0D
:10279B0003E58430E52075FF0175C6FF75C5FF1293
:1027AB005927E5C420E7FBAFC515C5EF70F11259EA
:1027BB0030E5C420E7FBC322D322900A7F121F7F90
:1027CB00AF05125E81EC8FF0121BC0900A7F121FB7
:1027DB005F904046F15E904043121F7FC003C002E2
:1027EB00C001904046121F5F903F9F121F7FD00188
:1027FB00D002D00312284E7B007A007900C003C0B0
:10280B0002C001904046121F5F121FA89040431256
:10281B001F5F125D97904049121F7FE94A90404617
:10282B00700E121F5FC003C002C001904043800CAA
:10283B00121F5FC003C002C001904049121F5F12FC
:10284B001FA822903F9C125DCAE94A700201DF7BF0
:10285B00007A007900903FA5121F7F903F9C806605
:10286B0011E0E94A606E903F9F121F5FC003C002E8
:10287B00C00111E0D082D083D0E06B7008E9658293
:10288B007003EA65837034903FA5121F5FE94A908D
:10289B003FA27011121F5F121F88C003C002C0013C
:1028AB00903F9C800F121F5F121F88C003C002C095
:1028BB0001903FA5121F5F121FA82211E0903FA5A8
:1028CB00121F7F903FA2121F5F121F88903FA21210
:1028DB001F7F808C22903FA2021F5FE4121A1312FB
:1028EB003537EF6401703D122761125D94802DD155
:1028FB00CAE94A602FD1CA903F9F12275E114E90B2
:10290B000A82F1EA313645F0600D900A82F1EA3124
:10291B0036AAF0F91220E0D1CA121F88900A82124F
:10292B001F7F80CB22121F5FE92404F9E43AFA02DD
:10293B001B109004FB121F7FD230C2EBE514600218
:10294B0061BFE51530E202C322910F24E5F9E43AA9
:10295B00FAE4121A131252749004FB31305407FF2D
:10296B00900463F012511A9004FEEFF0E51520E08D
:10297B0075124CB340057F011235D79004FEE0FF72
:10298B007B017A0479FF124E4AE4337004D2EB6177
:10299B009E9004FEE024EDF582E43403F583E0FF22
:1029AB009004FFE0D39F403ED2EB1251A5A21B92A5
:1029BB00ED900474E06014910F24E5125F2343152E
:1029CB00041260D07983123AFFD322900483E07013
:1029DB00137A0479837C4C7D9074641260C2E4A3F7
:1029EB00F0123B18C322124CB35005C23C12361BDB
:1029FB001247A4E5D120E0FBE4F510C21C9004FBC8
:102A0B0031305407C39403E49400502C910F24B13C
:102A1B009107910E24D891072FFFE433FED3EF9447
:102A2B0040EE648094804010910F24E512608C433B
:102A3B001504A21B92EDD322910F2408F9E43ACF8F
:102A4B00E9CFF5118F12910F24B19107F516AE1145
:102A5B00125E06910F24B2F9E43A8B1CF51D891E08
:102A6B00910F24D89107F51F9004FB3130FDACF08A
:102A7B005460602E910F24D99107FF125169C23017
:102A8B0071F7FB7A00900484E0FE7D181260DAEF98
:102A9B002BFFEA3EFEEF2414FBE43EFA7D027F019E
:102AAB00618A9004FB31305407900463F07514086D
:102ABB00910F125EEF125DFA910F24D89107FFADC3
:102ACB0016125E25900463E0640370247B01FD7194
:102ADB00C7125EA1500574011219BEE4F5FF126016
:102AEB00FD1219542428FBE433FA7D03E4FF618AB9
:102AFB00900463E06402702B71CA125EA1400574EE
:102B0B00FF1219BEE4F5FFE5D25480440AF5D21248
:102B1B0019542414FBE433FA7D027F011251C09146
:102B2B0073805FE4FB7D0171C7125EA1400574FFEA
:102B3B001219BEE4F5FF9004FB3130441045F07FD1
:102B4B000560027F0AEF547FFFE5D254804FF5D228
:102B5B00E4F5FF43D28071F7FD7C009004FB31302C
:102B6B00441045F07E0060047F0A80027F05EF254C
:102B7B00E0FFEE33FEEF2DFBEE3CFA7D017F011201
:102B8B0051C09004FB3130FFAEF0A230922F1250A7
:102B9B00894006A21B92EDC3221260D07983123AB0
:102BAB00FF9004FEE0910E24E71249C4A21B92EDA4
:102BBB00D2EBD322A21B92EDD2EBC322FF917890E2
:102BCB0004FB121F5FE924B1F9E43AFA121954FF1E
:102BDB009004FB121F5FE924D8F9E43AFA12195456
:102BEB002FFFE433FEEF2401FFE43EFE9004FB12C3
:102BFB001F5FE924B2F9E43AFAE92407F9E43AFA57
:102C0B00021954FF9004FB121F5FE922903F8212BE
:102C1B001F7FD1C4E924059107903F8AF0D1C4E905
:102C2B0024019107903F8BF0903F82D1E0903F8C35
:102C3B00F0E924069107903F8DF0D1C491040490E4
:102C4B003F8EF0903F88125F469402EE940040173F
:102C5B00AD077B017A3F798A904235121F7F903FF7
:102C6B0085121F5F120CAE22E4FB7D01FFE4F5FF22
:102C7B0075D102E5D120E0FBE4F5FFF5D1EF60085B
:102C8B00E4F5FF43D2808006E4F5FF53D27FEB607F
:102C9B0006E4F5FF43D104ED6006E4F5FF43D108EC
:102CAB0022903E4B121F7F903E50121F5FE9240172
:102CBB009107903E55F0903E50D1E0903E56F0E992
:102CCB0024039107903E57F0903E50D1D691079038
:102CDB003E59F0903B8CE0FFA3E0903E5DCFF0A31C
:102CEB00EFF0903E5312603E903E50D1B2910714DC
:102CFB00903E5CF0903E4B121F5F903EF3121F7F95
:102D0B00AF05903EF6EC1257B57A3E7955120B781B
:102D1B00EF60037F0122903E5D12603E7F002290A8
:102D2B003997121F7F90399AEDF0A3121F5FE92498
:102D3B000191079039A2F0903997121F5F90399E3D
:102D4B00121F7F90399BD1E07F0030E1027F02EFB1
:102D5B0044219039A1F0D1D0E924019107122080B0
:102D6B002DF2022DCD042D84062E1A402E26802EF8
:102D7B003F812E3FC100002E92D1AF9107640460BA
:102D8B0002C192D1A87D02120B14EF7002C1929076
:102D9B00399AE0FF7412D39F4002C19290399ED1B1
:102DAB00D6F9E43AFA120AB0120AD3500BD1A8E4BE
:102DBB007F01FEFDFC120B5FD196123C28120B37E4
:102DCB00C19212004690399AE0C394034015D1A8E2
:102DDB00E47F01FEFDFC120B55D196123C28120B21
:102DEB0032C192F1A5C192D1AF910764046002C1C7
:102DFB0092D196123C28120B4B7B007A00790090F3
:102E0B0042A1121F7F0B7A35797A120B238078D16E
:102E1B00B99039A1E0FB120ADD806C90399AE0C3BE
:102E2B00940A4063D1B990399ED1D6F9E43AFA129B
:102E3B000ACE8053D1B990399AE0903B31F07B01A7
:102E4B007A3979A3A3121F7FD1D0120AE29039E30A
:102E5B00EFF0601FD1AFF9E43AFA7404121A139031
:102E6B0039E3E0FD90399B125FCF7B017A3979A36F
:102E7B00120916D1D0E924019107B4C10DD1B99033
:102E8B0039A1E0FB020ADD1253D1227B017A35799D
:102E9B007A9039A1E0FFE4FCFDFE120B417B017A35
:102EAB0035797A2290399B121F5FE92404229039DD
:102EBB00A2E0FF901244E0FD22903F82021F5F9040
:102ECB000A82021F5F90399E021F5F121F5FE92467
:102EDB000222904197121F5F0219549040F8121F63
:102EEB007F7B017A3B79611256549040F8D1E09088
:102EFB003B62F0E924019107903B61F09040F8D1DF
:102F0B00B29107903B63F0903B667401F09040FEEA
:102F1B00A37A3B7961123C1E1256989040FB121F0C
:102F2B005F0208A3903E99121F7F903E9E121F5F77
:102F3B00E924019107903EA3F0903E9ED1E0903E94
:102F4B00A4F0E4A3F0E924029107903EA7F0903E91
:102F5B009EF1EA910714903EAAF0903B8EE0FFA3FE
:102F6B00E0903B93CFF0A3EFF0903EA11260319035
:102F7B003E99121F5F903F03121F7FAF05903F06D4
:102F8B00EC1257B57A3E79A3120B96EF60037F01D3
:102F9B0022903B931260317F0022D1A87D09120B46
:102FAB0014EF700AD1A8120B00D1A8120B052290B6
:102FBB000A76121F7F900A76121F5FE51B125F388D
:102FCB001244BF125F37D1D6125F33125E7EE51308
:102FDB00125F38D1B2125F33125F65E4021A13121B
:102FEB001F5FE924032275FF0275E404E4F5E42274
:102FFB0075FF02E5E430E10675E40675E403229003
:10300B000A73EFF0900A75EBF0900A74EDF054022E
:10301B00901262F01260C9600712004E5002C32278
:10302B00120AD8EF6002C32212270CEF6002C322F0
:10303B00122671900A73E0B4040BA31191900A73DA
:10304B007403F08025900A73E06405701890124C9D
:10305B00E0900A7430E50611917F1F80041199E40A
:10306B00FFF1E78005900A741199900A73E09007BD
:10307B0035F0900A75E0901261F0F1ED90073DEE9E
:10308B00F0A3EFF0D322E0FB7D017F018006E0FB94
:10309B007D01E4FFEB600875FF0153CDFD800675E4
:1030AB00FF0143CD02ED600553FBDF800343FB20A3
:1030BB00EF600775FF0243E1402275FF0253E1BF4A
:1030CB002290126BE0FD7F011257CB90124CE090D7
:1030DB00126230E50611917F1F80041199E4FFF114
:1030EB00E77F0143FB1075FF0243E640EF600D7570
:1030FB00FF02E5E120E7FB43FB0D800343FB0E8062
:10310B00FE75FF0275E404E4F5E4C21C75FF029042
:10311B001215E0603AE5E654036401703212094D72
:10312B00F19B401F901261E0600DE014F0700812EB
:10313B000508E4901215F0901215E0700221EC11C5
:10314B00CC21EC120508D21CE4901215F021EC12E4
:10315B0005081257F8900736EFF0901200E0B47A9A
:10316B0014901214E0B49C0D900736E0FF640560D8
:10317B0004EFB40330E490073BF090073BE0FFC350
:10318B0094805013E42FF582E43412F583E4F0902D
:10319B00073BE004F080E3901200747AF090121475
:1031AB00749CF0D215120A884003120A837B017AB1
:1031BB001279107D017F01120A7E7B017A1279113F
:1031CB007D017F21120A7E7B017A1279127D017FAC
:1031DB0022120A7E7B017A12794B7D017F02120A41
:1031EB007E90124BE0B401057F01125D3A12095239
:1031FB001257F8120948900736EFF01208C112095E
:10320B003E900736E0FFB40602800C301C047F02B0
:10321B008005900736E0FF120C72EF24FFB3923E4D
:10322B0075FF0253E6BF1226566005E4901215F0A7
:10323B0012400812095C12256630150B7B017A12BD
:10324B00794D7D10124F6C12546E901215E0700F69
:10325B00203E0C1225517B017A3279FA1208E49048
:10326B00124CE030E0028003301C047F01B1D7D256
:10327B00AF303E6E120A9C12384B120C6D120A794B
:10328B0040F2900735E0602DB137EF700512484ED4
:10329B004023E51470FCE51520E502B1F2D1B190A5
:1032AB000735E0B40204E4FF8009900735E0B4036E
:1032BB00047F0111EE71CBE51530E1B8B12240026C
:1032CB00E4F0E51520E50471ADB14D125F95AE83C9
:1032DB00EFC0E071BB900738E0FDD0E0FF1208B7FC
:1032EB008092123FC0F1FC5002D161900735E06033
:1032FB0049903277E07043B137EF700512484E407A
:10330B0039E51470FCE51520E50990124CE020E03E
:10331B0002B1F2D1B1900735E0B40203E48018900A
:10332B000735E0B403047F01800E900735E0B40548
:10333B00099012157401F0FF11EE120A9C12384B12
:10334B00125346120C6820160471CB8021F1ED90BC
:10335B00072EE0FEEFC39E4005EF9EFF800890070F
:10336B002EE0F4042FFF7406D39F5002C216E5150E
:10337B0030E124B1224002E4F0E51520E50471AD03
:10338B00B14D125F95AE83EFC0E071BB900738E093
:10339B00FDD0E0FF1208B7120A561253D1123FF6B6
:1033AB0041ED900737E0FD75F0AA90073F121F53D0
:1033BB00ED75F002A42430F9740735F0FA7B012285
:1033CB00E4900A92F0A374FFF0E4FFB10EE054F026
:1033DB006440700281D5E4FE75F0EDEEB113E0FDB3
:1033EB00B40109900A93EEF0E4FF8023EDB4020BD5
:1033FB00900A93E0B4FF04EEF0800F75F0EDEEB1A0
:10340B0013E054F0FDBD80027F010EEEB404C9EF52
:10341B006006900A9374FFF0900A93E0F4700281B7
:10342B00D5124C9B500281D5E51530E10281D59028
:10343B000A93E090000A125FDF30E40990000C124F
:10344B005FF5549FF0900A93E09000BE125FDF543B
:10345B000FFEBE05099000C2125FF530E120900A05
:10346B0093E0FF75F0ED900009121F53E020E52E5D
:10347B0075F0EDEF9000C1121F53E0B4FF20900ADE
:10348B0093E075F0ED90000B121F53C083C082E0E8
:10349B004401FFA3E0D082D083CFF0A3EFF0900ADA
:1034AB0093E0124B1212293D5020900A93E0F56FD6
:1034BB0075F0EDB113E04440F0900A927401F09076
:1034CB0003CCF0E51530E202D322E51530E22D7F77
:1034DB0004B119B10EE0FF54F064407016B10EEF59
:1034EB00540FF0B10EE04480F0E56F124B1212084E
:1034FB006C8009E51530E0047F01B1D7900A92E0AA
:10350B0024FF2275F0EDE56F900007021F53C2AF49
:10351B00EFF45215D2AF227F02B119900737E0902A
:10352B00073BF090073704F0C3940222E4FF75F0D9
:10353B00EDEFB113E060037F00220FEFB404EF7FD8
:10354B000122AF82AE837D01900A33124B21E51429
:10355B007079124CAB5004C23CD11B900A33E0FE85
:10356B00A3E08E11F512A3121F5F900465121F7F4B
:10357B00AE11AF127DAA125DD0E4F5FF75D901F53E
:10358B0010E5155421602CE51530E505E4FF1247D5
:10359B0060E4900A38F0900A38E004F012598AEF90
:1035AB006009900A38E0C3941040EB7F02120C863E
:1035BB005315DE900461E07F00B403027F011247D4
:1035CB0051D23CD11BD2EBA21B92ED22EF600C71BE
:1035DB00ADAF82AE83E4FDB15380091252FBB1F261
:1035EB00E433FF227F0122E5147023124CAB50040D
:1035FB00C23CD11B125C3C1247A4E5D120E0FB433B
:10360B0015205315FEE4F510A21B92EDD322C32215
:10361B00904463E5F4F0E0547FF5F47F827E001272
:10362B003F0F123ED55005E5FC20E6F6303C0890E6
:10363B004463E04480F5F4123F0B123ED55005E590
:10364B00FC20E6F675FF01E5D520E702C322E5F481
:10365B00D330E601C322E4FFB1D7EF60497B017A97
:10366B00127946124CBB5009901246E0C394C040ED
:10367B00EC7B017A127948124CBB500F1238155F54
:10368B00FFA3E05FFFA3E05FF460E690124CE03035
:10369B00E0047F01B1D7E4901244F07B017A1279F8
:1036AB0046E0FD120A1A30221C75FF02E5E430E1F8
:1036BB000675E40675E4031258B57B017A44795E0E
:1036CB00123AFFC22222900A8EEFF0C23D1247033C
:1036DB00D223900A8EE090438FF0D224A3E4F0A380
:1036EB00740DF0124650E4900A8FF0124CB3506FE9
:1036FB00900A8FE07069E5F754C060EFF180F193A9
:10370B0064557047F193901244E06F6007900A8FF5
:10371B00E0F47032F19364556018E0FF644A601274
:10372B00EF640A600D901244E0FF900A8FE0FE6F89
:10373B007005900A8F800A900462E06E900A8F7079
:10374B00197402F080A5900A8F800F900A8FE0B455
:10375B0054057433F08094900A8F7401F0808C9030
:10376B000A8FE0B40206C23CD11B80001246439084
:10377B000A8FE0FF22E5F720E008E5F754C070F56B
:10378B00FF2243F701AFF922F180900A8FEFF0226D
:10379B001252747F02120C867F01D1D1900A9CEFDA
:1037AB00F0BF02028013900A9CE0B43311E4F07F67
:1037BB0001D1D1BF020D900A9C7401F08005E490F9
:1037CB000A9CF0900A9CE0700C124CB35004C23C63
:1037DB00D11B125C3C900A9CE024FF2275FF028FE8
:1037EB00E322A2AD922DC2ADAF68AE67A22D92AD12
:1037FB0022901244E070111238154FFFA3E04FFFD7
:10380B00A3E04F7003D38001C322901246E0FFA3C5
:10381B00E02290072FE064AA2411FFF022AE0711DB
:10382B001DEE04FEEF8EF084AFF022E51530E20FB3
:10383B00E51520E50AE51530E0057F011235D722A5
:10384B00E490445DF0D3900001E09400900000E020
:10385B009400407690445DE0FF04F0EF9405506ACD
:10386B0090000074FFF5F0121AE4E4F56E11D651D6
:10387B00F7604911D674FF121E9431C8703E11E6E1
:10388B00E0FF6008F4600511E6E014F011E6E0607B
:10389B000EE56E517A121E3A11D6121EC78006E53E
:1038AB006E5145E4F011F6E0FEA3E04E600C11F60C
:1038BB00E0FEA3E0AA06F91220E01136056EE56ED4
:1038CB00C3940E40A812098E015022E56E75F00CC0
:1038DB00A424B7F582E43434F58322E56E75F00C3D
:1038EB00A424C1F582E43434F58322E56E75F00C23
:1038FB00A424BFF582E43434F583229040C1ECF06C
:10390B00A3EDF0AB07A3121E3A5179121EC7EB11B0
:10391B00D8121EC79040C7E0FFEB11E8EFF09040C4
:10392B00C1E0FEA3E0FFEB11F8EEF0A3EFF0229065
:10393B004190F15DEBF090419574FFF0904194E074
:10394B00904196F0904196E0FFC3940E5061EF11B9
:10395B00D8121E3A31C8704F904194E07E0170022C
:10396B007E029041965143EEF0C007904192E0FFEA
:10397B007E0060097C007D0A121A4780027F0AE4F0
:10398B00FCFD9040C3121EC7904193E09040C7F0DE
:10399B00904190E0FCA3E0FDD0073106904196E00A
:1039AB0004FF904195F022904196E004F0809590B1
:1039BB004195E0FF229041947403F0213AE4FBFA25
:1039CB00F9F8C3021D7590403AEEF0A3EFF090406A
:1039DB004174FFF090403C51F760579040427403A4
:1039EB00F0904042E0FFC3940E5047EF11D8121EE7
:1039FB003A31C8703590404251437405F0C007907E
:103A0B00403C121E3A9040C3121EC7904040E090BB
:103A1B0040C7F090403AE0FCA3E0FDD007310690A0
:103A2B004042E004904041F08008904042E004F0B6
:103A3B0080AF904041E0FF22E0FF75F00CA424C260
:103A4B00F582E43434F58322AB07E4FF1BEBC3941C
:103A5B000E501A5179121ED300000000EB11D81230
:103A6B001ED300000000EB5145E4F07F0122EB7503
:103A7B00F00CA424BBF582E43434F58322AB07E4C9
:103A8B00FA1BEBC3940E500D517951F76007EB11F4
:103A9B00D8121EC70AAF0222904429EDF090442899
:103AAB00EFF0122641AE07904429E0FF6E603A908A
:103ABB004428E0FD715390445EE07023D2227B01D9
:103ACB007A44795E7C4F7D3990419C741EF0A374CF
:103ADB00FFF0711890445EE0700C1236B1800790C5
:103AEB00445EE0FF51887F02227F0122121E3AECD6
:103AFB004D4E4F22904380121F7F904380122EE039
:103B0B00FF5153904380121F5FE4021A1390419AA6
:103B1B00ECF0A3EDF0904197121F7F51FF90419A6B
:103B2B00126081FB714C9041977145122EDDB4FFF1
:103B3B0004E4121A13122EDDFF22121F5FEF021A7A
:103B4B0013E4904194F0213A75FF01E5C420E7FBA3
:103B5B00AE058EC58FC6125927E5C420E7FB9044EE
:103B6B00627401F022903F75121EC7122EA8120B21
:103B7B0050903F81EFF0122EA8120B3CA804A90520
:103B8B00AA06AB07903F81912B121D449035C4744C
:103B9B0098F0A37405F0EF30E00354FEFF9035C6A8
:103BAB00EFF0903F75121E3AC0077B017A3579C44E
:103BBB009042487403F0903F791255EB903F7D5142
:103BCB00F724FF9233D007904244124B247A357975
:103BDB005F125652904244E090355FF0904249E0BC
:103BEB00903561F07F003033027F04903563EFF046
:103BFB009042487A35795F911E900A1F7453F0A357
:103C0B0074DFF0904245122F29EF7006122EA81286
:103C1B000B2D22E0FD7B01900A1C021F7F9039A225
:103C2B00E0FFE4FCFDFE22904324EDF0901211E046
:103C3B00F46005A3E0B4FF0C9043267418F0A37452
:103C4B0013F08010901211E0904326F0901212E0C6
:103C5B00904327F012195464016002A196904324FB
:103C6B00E0FE64086004EEB404089043257428F069
:103C7B008006904325743AF0EF121521121D51E482
:103C8B00B19EEF24D8FFEE343FFEED3493FDEC34C0
:103C9B0016FC7B007A80790378001204A8124F2C53
:103CAB00904327E0FF904326E0C3B197E4FCFD125D
:103CBB001C27ECC0E0EDC0E0EEC0E0EFC0E09043AD
:103CCB0027912BB19ED0E0FBD0E0FAD0E0F9D0E009
:103CDB00F8EB2FFBEA3EFAE93DF9E83CF890432577
:103CEB00912B121C27EF2454FFEE340B1216B2FC4F
:103CFB00E47BA87A16F9F81204A8CBEFCB904324F7
:103D0B00E014605F14601B24FE600C24FC707CE4E8
:103D1B00F5FF75CE318006E4F5FF75CE21F5FF8BEF
:103D2B00CF22E4FAE4F5FFEA2440F5CEE4F5FFEA0E
:103D3B00FFC37407B19774162FF582740D3EF5838C
:103D4B00E4B1A613C39DF5CFE4F5FFEA2448F5CE05
:103D5B00E4F5FFEA900D16B1A6132DF5CF0AEAB4E0
:103D6B0008C222E4F5FF75CE01F5FF8BCFF5FF7589
:103D7B00CE0EF5FFEB25E0F5CFE4F5FF75CE0FF595
:103D8B00FFCFEBCFEB75F003A4F5CF229FFFE494AD
:103D9B0000FE227B64FAF9F8021C279325E0FDE470
:103DAB0033FCEB75F010A4FFAEF0121A59CDEFCD2A
:103DBB00EBFFE4C313EF229041ACF160EBF09041C9
:103DCB00B27401F0C23BF10BD1D55005E5FC20E6F6
:103DDB00F7D1E0BF0108E4F5FC75FC408007D1E0AA
:103DEB00BF0202D3221247D59041ADE0FF125C43D4
:103DFB0075FF0153D5DF53FAFB9041ACE0FF12473F
:103E0B00609041ADE09041ACB4080DF173125F705E
:103E1B0024521216AFFC8004E012152112594E9059
:103E2B0041AEE0FF125C9175FF0175FF03759B04BA
:103E3B00F10B75FC42E5FC20E104D1D540F4904137
:103E4B00AFE0F075FF03E59B20E704D1D540F4E527
:103E5B009B20E70D75FF03759B1F125C1FD23B80E8
:103E6B004ED1CE124E0C9041ADE0FD90120FE05DA5
:103E7B00701C9041ACE0FFD1CE913290120FE0FF5D
:103E8B009041ADE0FEEF4E90120FF012166A121732
:103E9B00C57B017A4179B0F143500FC39041B1E03A
:103EAB0094209041B0E0940340E7D1CE125A4B12CC
:103EBB00178D303B02A1C99041B2E0B40103D3800E
:103ECB0001C3227B017A4179B22275FF03E591C3CD
:103EDB0030E701D3227FFA12175EE5FC30E604D1FE
:103EEB00D540F7E5FC30E6037F032275FF01E5D5EE
:103EFB0030E6037F0222E5D57F0030E7027F012207
:103F0B007FE87E03F114021762904318EE1257B547
:103F1B007A43791AF143501490431AE0FEA3E0FF61
:103F2B00904319E09F904318E09E400B904318E09C
:103F3B00FEA3E0FF12176922F167AD94EF4D24FB4E
:103F4B00FFE5F034FF8FF0121BC0E591C330E701A2
:103F5B00D322EEF0A3EFF0A3EDF0A32275FF03AF96
:103F6B0093EF75F010A4FF22E025E025E02401F586
:103F7B0082E43412F58322E5F730E50FE5F754C000
:103F8B007004D1D540F11217F3C322D322900464ED
:103F9B00E0FDFFC3740EB197EFC4F8540FC868FF70
:103FAB00EEC454F048FEE51754F0C3125EA27F0036
:103FBB005002AF052230170C903277E07006FF12DB
:103FCB004C01C217301C23AF68900482E0FEEFC394
:103FDB009E400AEF9ED394024010C21C2290048292
:103FEB00E0F42FD394014002C21C22900739121126
:103FFB00BD6009CAEECAC9EFC91220E02275FF02E3
:10400B00D2ADD2BD75FF02758E71756D0975FF024C
:10401B00E58E546F4480F58E90430C121ED3000036
:10402B00000022C0E0C0F0C083C082C0D075D008B1
:10403B00C0FF75FF02E58E30E43A75FF02E58E5442
:10404B00EF4410F58E90430C121E3A1216ACFC90F6
:10405B00430C121EC790000011A0E56D30E0020565
:10406B0059E56D700D756D090568E568700205679A
:10407B008002156D75FF02E58530E40875FF02437C
:10408B0085100570D0FFD0D0D082D083D0F0D0E097
:10409B0032F09042B8E475F001021AE49042B6EEA9
:1040AB00F0A3EFF020190F9003C1E0B4010B5155B1
:1040BB00E0514A20E7037FFF225155E07B012404A6
:1040CB00514EF1CE6002800A5155E07B012408511C
:1040DB004EFFAD07D1249042BAEFF0F4705490121A
:1040EB0016E0C394025036E004F0E49042BAF0902C
:1040FB0042BAE0FFC39402501074192FB1C1E060B3
:10410B00089042BAE004F080E69042BAE0B40203B1
:10411B007401F09042BAE024FF92188015201A0C1B
:10412B00B218A218E4339042BAF080069042BA74E7
:10413B0001F09042BAB1BEED514120E70221DFEF11
:10414B002409514E30E31F9042B6A3E0240A514E8E
:10415B00125EFFE92401122C075418FF9042BAE0BB
:10416B0091B5EFF080089042BAE091B5E4F051556B
:10417B00E07B01240A514EC4540FFF91CAEFF0901B
:10418B0042B6E0FCA3E0240BF9E43CAD01A3F0A3A1
:10419B00EDF09042B6A3E02409F9E43CFA1219546D
:1041AB0020E016AE071FEE6041B1D1E0FEB1ACE5E9
:1041BB00822FB1C9EE119C80EAE4FEAD071FED60C2
:1041CB0029B1D1E0FDAC060EB1ACE5822CB1C9ED45
:1041DB00119C80E79042BAE0FF91CEE4F074172F68
:1041EB0091B7E4F0EFB1B074FEF091CAC083C08216
:1041FB00E0FF9003C1E0C454F0FEEF4ED082D083B9
:10420B00514130E708EF2409514E20E4085155E0A5
:10421B00514A30E40BD1038002C333D8FC4F800AE0
:10422B00D1038002C333D8FCF45F90121CF0D21977
:10423B009042BAE0FF22F09042B6E0FEA3E0FF7B93
:10424B00012405F9E43EFA0219549042B6E0FEA3AC
:10425B0022C0E0C0F0C083C082C0D075D008C0FFC0
:10426B0075FF01E5D530E6047F028009E5D57F00B7
:10427B0030E7027F018F18E518640260026136E5B2
:10428B001412208042A80142BB0243230842C609F4
:10429B0042D10A42DF0B42FD0C000044A075FF0126
:1042AB0075C355151AE51A600281A075140281A019
:1042BB0075FF0175C3F075140981A075FF0175C3F6
:1042CB005575140A81A075FF01900475E0F5C3754F
:1042DB00140B81A075FF01900462E0F5C375140106
:1042EB00751A149004841260A4600281A075140CDA
:1042FB0081A0AB1CAA1DA91E125DFAAD16AF1F1231
:10430B005E25122C7375FF001260FD43FA0475FFD6
:10431B0000F15975140881A0C2EB75140043150404
:10432B00125197400281A011A081A0E51864016091
:10433B000281A0F1C7400281A0E510702291AEE08E
:10434B00FF64556004EFB4540BD21CAF6890048229
:10435B00EFF0811E75100275FF0075D90881A0E57D
:10436B00106402705DB1F7121F5FE5D9121A1312B8
:10437B005C6D125155900461EFF0B1EBE090051FAD
:10438B00F0E0FFD394094025900461E0D394024000
:10439B000CEFD394AA7F0040027F01800D90051F84
:1043AB00E0D394407F0040027F01EF6004B1E380D3
:1043BB006290051FE0F51675FF008516D975100381
:1043CB0081A0E5106403600281A0B1F791BFE5D92C
:1043DB00121A13B1E375FF00900461E0C39403E577
:1043EB00D350055402FF80035401FFEF602930E1E5
:1043FB0011C390046FE094FF90046EE094FF501390
:10440B00800FC3900471E094FF900470E094FF5010
:10441B000211A0F17C807EC23C12361B75FF00F1AD
:10442B00A7E5D120E0FBC2EB43150291AEA3E0FF61
:10443B00901247E0FEEF6E91ADE0FE901246B1DDBB
:10444B0091ADA3A3E0FE901248E0FDEE6D4F91AD50
:10445B00A3A3A3E0FE901249B1DD6011C3900473D6
:10446B00E094FF900472E094FF500211A0C39004FB
:10447B006DE094FF90046CE094FF500211A0751056
:10448B0000900461E0B403071516B1EBE516F0904C
:10449B000738E516F0D0FFD0D0D082D083D0F0D043
:1044AB00E032FF851282851183222417F582E434D2
:1044BB0012F58322121F5FE92401F9E43AFA2290E4
:1044CB0042BAE0245DF582E43412F58322F9E43A32
:1044DB00AD01904384F0A3EDF0AD0779FF301902E5
:1044EB00A1A9D124A907EFF4702C901216E0C39464
:1044FB0002501AE004F0E4F9741929B1C1E0600527
:10450B0009E9B402F3E9B4020D79018009201A0418
:10451B00E4F980027901741929B1C1EDF0741729FE
:10452B0091B7E4F0904384B1D4E0540FFE745D294D
:10453B0091D0EEF0745D2991D0C083C082E0FD90E4
:10454B0003C1E0C454F0FCED4CD082D083F0EE609C
:10455B002DE4FDAC061EEC602B904384E475F0015A
:10456B00302E0DD113AB050DE9B1B0E5822B8008D0
:10457B00D113E9B1B0E5822EB1C9ECF080D5E9B128
:10458B00B074FEF090121CE0FEAF017401A8070896
:10459B008002C333D8FCF45E90121CF0D219AF0129
:1045AB00229042BAE025E025E02463F582E4341240
:1045BB00F58322E02419F582E43412F58322F58287
:1045CB00E43583F583229042B8E0FCA3E0F5828CBE
:1045DB008322E0FDEE6D4F22301C04C21CD143221E
:1045EB00E5122407F582E43511F5832275FF01F5F9
:1045FB00EA75EAFF9004652290121CE0FF9042BA24
:10460B00E0FE7401A8060822121AE4904384E0FA33
:10461B00A3E0F5828A83E0FC227E02EF6017901202
:10462B0016E0601174182EF1E3E0B50706C3EE94A3
:10463B0001FF22DEEF7FFF22C223E490438FF0C203
:10464B0024A3F0A3F075FF01E5D520E702C322C236
:10465B003DF103202302C1F453F4DF90438FE0FFBD
:10466B00F160F1DC30240543F440800353F4BFE4E4
:10467B00F5FF53F5F0904390E0FAA3E0FBEA42F527
:10468B00EBF5F6D23DF1037FC812175EE4F5FFE5BB
:10469B009320E605123ED540F330245AE5F430E37F
:1046AB00047D288010E5F430E2047D288007E5F4D2
:1046BB0030E1027D281217F37F2812175E123ED5C8
:1046CB0040FB7F7812175E123ED5502AF12450F72B
:1046DB00F14BEFC39D50F0F12450ECE5F720E5E7EB
:1046EB00C23DF1031217F380DE53F4BF124F534058
:1046FB000543F420F1D5D322AFF4EF547FF5F4301A
:10470B003D05EF4480F5F475FF01E5D520E702C3C5
:10471B0022E5F4D330E601C32275FF01E5E4332231
:10472B00E4FFE5F754C06002801675FF01E5D53054
:10473B00E30DF12450F4F14BEF60EFF12450EB2239
:10474B00124F22AFD922F16043FA04E4F5FF53D1A3
:10475B00FD43D1012275FF01E5D530E602C322E40A
:10476B00F5FF439A80EF12180BE4F5FF539A7FD3B2
:10477B0022C23C12361BF1A4E5D120E0FBE4F5FF8D
:10478B0075D901900461E07F00B403027F01F15100
:10479B00D23C12361BE4F51022E4F5FFE5D154FEB2
:1047AB004402F5D122D124EFF46010201A0D7419B4
:1047BB002FB1C1E4F0901216E014F022E5F754C0CB
:1047CB0024FF22FF901244E06F2275FF0153D8EFB4
:1047DB002275FF0143D81022F582E43412F58322AF
:1047EB00E4FEEFC3940E5013EF123A45E05D7C00EC
:1047FB00B505027C01EC2EFE0F80E7AF06227D0291
:10480B00E4FF80DC7D017F031247EBAB071109EF5F
:10481B002BFF22E4FD7F0380C7AD07AC061237EDFB
:10482B00C3EF9DEE9C4008EF9DFFEE9CFE8013EDC9
:10483B00F4FDECF4FCED2401FDE43CFCED2FFFEC6E
:10484B003EFE2290073DE0FEA3E0FF1124D3EF9440
:10485B00C8EE940022901216E0B40207301A047FBF
:10486B000180027F00227F02E4901216F074182F51
:10487B001247E3E4F0DFF62290423F121F7F904293
:10488B003EEFF09042427402F0EF700221A19012C1
:10489B0016E0700221A1904242E0FF24181247E378
:1048AB00E0FE90423EE06E6002219731A4FE540F71
:1048BB00904243F090423F12293054F8FDEEC4541D
:1048CB000FFFE5F0FEED4FFF31B090423F121F5F3F
:1048DB0012087BEF549FFF904242E02416F582E4CE
:1048EB003412F583E05460FDEF4DFF90423F121FF1
:1048FB005F12087690423F121F5F31BDFAC003C0B2
:10490B0002C001904242E075F004A4245FF97412D6
:10491B0035F0FA7B019041E8121F7F904243E0FF94
:10492B00D001D002D003120A3D904243E090423FA7
:10493B0031B6E924BC31C4904242E014712A80059F
:10494B00C333CE33CED8F9FF90121CE0FDEF5D6080
:10495B003890423F122FEA122C074404121A13907C
:10496B004242E0FF245C31A7548FF031A44430F075
:10497B0090121CE0FF904242E01412460C8002C3DE
:10498B0033D8FCF45F90121CF07F0122904242E07E
:10499B0014F0600201A17F0022745C2FF582E434D5
:1049AB0012F583E022EE8FF0021BC0C454F0FF021D
:1049BB001F5FE924BDF9E43A22F9E43AFAEF021A4F
:1049CB0013903F5A7124903F62E05437F0E0FE544D
:1049DB00209040B2F0903F63E0FDA3E09040AFCD5C
:1049EB00F0A3EDF0903F5E121F5F9040B5121F7F5A
:1049FB00903F61E0FD9040B3F0903F5B121F5F90E2
:104A0B0003C8121F7FEE44209040B1F0E49040B4F5
:104A1B00F0C201EDD3948240037F00227F02519EAE
:104A2B00903F65121F7FEA494B605C903F5AE0FF55
:104A3B00903F65121F5FE924B631C4903F62E0FFDF
:104A4B0030E00FE49003F0F05195EF6401A3713364
:104A5B0080185195903F62E09009DEF09040AFE0F6
:104A6B00FFA3E09009DFCFF0A3EFF0903F65121F9B
:104A7B005F9009E1121F7F903F5E121F5F7D027FE7
:104A8B00011208807F01227F0022903F61E0900994
:104A9B00DDF022900A90EFF0A374FFF0E4FFFEFD2F
:104AAB0075F0EDED123513E0FC700C900A91E0B44B
:104ABB00FF02EDF00F8006EC30E0027E010DEDB44D
:104ACB0004DE900A90E06401600DEFC3940250077E
:104ADB00EE7004A374FFF0900A91E0FFC3940450AE
:104AEB001FEF71127DEDE4FF120A10900A90E04463
:104AFB0010FFA3E0FE75F0ED123513EFF0EE80071B
:104B0B007B007A0079002275F0EDA42407F974007C
:104B1B0035F0FA7B0122EEF0A3EFF0A3021F7FFF2B
:104B2B0074017E00A8070822F0A3744BF0A3747ADB
:104B3B0022901244E0FFC003C002C0019040331228
:104B4B001F5F903F5E121F7F904036E0903F61F0F9
:104B5B00904037E0903F62F0904038E0FDA3E0904A
:104B6B003F63CDF0A3EDF0D001D002D00321CCEF09
:104B7B0060049040B4F09003F0E0FF9003C8121F64
:104B8B005F1209A79003F0EFF0604D20014A9040AF
:104B9B00B2E0C330E501D39206901244E0FD9040A1
:104BAB00B5121F5F9009F5121F7F9040B3E090097B
:104BBB00F8F09040B1E09009F97133F09003F0E018
:104BCB00FBE4FF12088AEF70239040B47402F0905C
:104BDB0040AF71F87F0280119040B4E0FF9040AF7E
:104BEB00E0FCA3E0FDF5828C831220E422E0FEA31F
:104BFB00E0F5828E8322EF7002818DD21A12462449
:104C0B00AD07ED6401707D90121AE0901219F0E47B
:104C1B00A3F090125EE090125DF0901218E09012EB
:104C2B0017F0901216E014F074017E00A8050880AE
:104C3B0005C333CE33CED8F9FF90121CE0FCFBEF4B
:104C4B005B6006EC4401F0800790121CE054FEF010
:104C5B0090121CE0FF7401A805088002C333D8FC36
:104C6B00F45F90121CF0E4FD74672DF582E43412AE
:104C7B00F583E0FF74632D1245B6EFF00DEDB40430
:104C8B00E722C21A22E4900483F090047404F02209
:104C9B0091B35004F11B4003301C03D38001C3229A
:104CAB00C2EBA2ED921BC2EDE5F4C330E701D322B8
:104CBB00903FBFD103E47F01FEFDB1FC903FC9746F
:104CCB0001F0F5FFE5D554C0700491B35002C32237
:104CDB00E4F5FF53967F75FF0175D50412178675A2
:104CEB00FF0143D508E4F5FF5394FBF5FF53847F95
:104CFB00F5FF7598FF903FC3E5F4F075F49C75FFD5
:104D0B0001A3E5E4F075E4257B017A3F79C9D10C69
:104D1B00903FC9E064016002A1DBF5FF903FC274D4
:104D2B0014F0903FC512152E7801121D99B1FDE5B7
:104D3B00A730E1FB43A702903FC512152EE5A73024
:104D4B00E005E47B018002E4FBFAF9F8EF4BFFEEA0
:104D5B004AFEED49FDEC48B1FC903FC2E014F07007
:104D6B00C1903FC512152E7810121D867B6D7A4EA1
:104D7B0079C67841121C27EF2439FFEE3430121616
:104D8B00B2FCE4FBFA7901F8121CB2EE547FFEE49C
:104D9B00FDFCF12C903FC512152EEB6FFFEA6EFE5A
:104DAB00E8CDEFCDCCEECCECFF903FBFD141EF1275
:104DBB001A13903FBFE0FBA3E0FAA3E01244C3ED4C
:104DCB00121A1390120FE030E606E4F5FF75968089
:104DDB0075FF01E4F5D5903FC3E0F5F475FF01A332
:104DEB00E0F5E4F15B903FC9E0B40103D38001C36C
:104DFB0022FC903FC5021EC7EBF0A3EAF0A3E9F03B
:104E0B002290438CD1037F017C127D01E4FE8D82C5
:104E1B008C83ED2EF582E43CF583E02FFF0EEEB490
:104E2B0012EC901213E06F600990438CD141E412A5
:104E3B001A1322904329E0FBA3E0FAA3E0F9229096
:104E4B004328EFF0A3D10375FF01123EE0EF64019D
:104E5B006002C322E5F430E602C3227FE87E031230
:104E6B001769121762123F82400122C23C12361B95
:104E7B00904328E0FF12476053F4DFD23C12361BFD
:104E8B007F787E00D1C975FF0153E4BFE5E430E7BD
:104E9B00FBF1227F8AF11330E605D13EE4800775E2
:104EAB00FF01D13EE5D9121A1375FF0143E440F11E
:104EBB0053400343F420123F82400122D322CDEF13
:104ECB00CDCCEECC123F67AB94EF4B24FBFFE5F060
:104EDB0034FFCBEFCBFAE59130E71E123F6AA99472
:104EEB00E9F582EF4582FFEB2DF582EA3CF583C3B2
:104EFB00EF9582E5F0958340DDE59120E709CEEC57
:104F0B00CECFEDCF12178922FED1C990120FE0221E
:104F1B00E5F754E024FF2275FF01E4F5EA75EAFF9B
:104F2B0022C8ECC8C9EDC9CAEECACBEFCB22919B04
:104F3B004007F14540031236B122AF14EFC36001B5
:104F4B00D32275FF0375958090120EE0D394012246
:104F5B00E4F5FF7584E6F5FF439404F5FF759814AB
:104F6B0022900A4B121F7F900A4EEDF0E4A3F0ED56
:104F7B0054FE900A4EF0602FE4FF1235D7BF012785
:104F8B00900A4B121F5F91BB501D900A4CE475F0B9
:104F9B0002121AE4900A4FE02402F0900A4FE0FF4D
:104FAB00900A4EE06F70D97F011235D7900A4FE00F
:104FBB00FF227D02F16CEFC36001D322EFC3940E8D
:104FCB005005900464EFF022E517540FFF22E5170C
:104FDB00C394F050205317F0125041FE740FC39F2F
:104FEB004005EE940E400543170D8003EF4217E585
:104FFB0017540FFF227F002290073CE0B4020D8F65
:10500B001B900A30E0F513120957D322C322E51780
:10501B0054F0C4540F2FFFC3941040027F0FEF9036
:10502B00079593FF221141FFC3940E40027F0DEFB2
:10503B0090078793FF22E517C4540FFEEF9007A547
:10504B00932E22EF30E303AF1322AD1B201D04EE92
:10505B0030E00CE517C394F05021123F988018E50F
:10506B00196006FDE4F5198012E517C394F0500B97
:10507B00E517540FFF60041130AD07AF0522431540
:10508B00015315DF114E11CA4004E4F5142243FA03
:10509B00045315FB302F05124756800A7F5511B369
:1050AB007F5511B3D2EBD32275FF01E5D520E60274
:1050BB00C322E5FA540360FA75FF018FC3D3229024
:1050CB000A7AEFF0900463E0FF311A900A7BEFF05D
:1050DB00900463E024FD6013047008900A79740453
:1050EB00F0800E900A797408F08006900A797402A9
:1050FB00F07F01120C86900A7BE0FF900A79E0FDAD
:10510B00A3E0FBE49041AFF0123DC250E9D322EF94
:10511B0024FD600680007E018002E4FEAF06227E45
:10512B0010EE60091EEE90079593B507F4EEC3944D
:10513B000E40027E0DEE90078793FF22E4F51402DA
:10514B0035F2C2AFEF4215D2AF22EF24FE600C2432
:10515B00FE600580007F01227F02227F03227514EF
:10516B0001751A13900475EFF09004637402F0ED5F
:10517B0090048430E507E4F0A3743AF022E4F0A342
:10518B0074E6F022319750031240A022C3900469B9
:10519B00E094FF900468E094FF22C390046BE094CA
:1051AB00FF90046AE094FF50031240A02290048405
:1051BB00E0A3E0FF22900A7CEFF0ED24FE601914CF
:1051CB0060262402703BEB2402FFE43AFE7C007D58
:1051DB0050121A477D60801E5134C333CE33CED864
:1051EB00F9FF7C007D28800E5134C333CE33CED8EB
:1051FB00F9FF7C007D64121A59900A7DEEF0A3EF43
:10520B00F0900A7CE0513FC083C082121E56900A78
:10521B007EE02401FF900A7DE03400FEE4FCFD12E9
:10522B001C0CD082D083021EC7EB2401FFE43AFE94
:10523B00EF78032225E025E02476F582E43404F5AB
:10524B008322EF513F121E3A021DFCE4FFFEFDFCD0
:10525B00900476516B90047A516B90047E021EC7BA
:10526B00121EC7E4FFFEFDFC22901246E0F4FFA3E2
:10527B00E06FFFA3E06FFFA3E06FFF64556009EFE2
:10528B00644A6004EFB40A010F900462EFF022A2AB
:10529B00EB9231C2EB7A0479687B017D0CE4FF124F
:1052AB000A10A23192EB22A2EB9232C2EBEBC0E0DE
:1052BB00EAC0E0E9C0E07B017A0479689041E8122A
:1052CB001F7FD0E0F9D0E0FAD0E0FB7F0C120A3D53
:1052DB00A23292EB22E4FF75F0EDEF123513E0549E
:1052EB00F0FEBE40037F00220FEFB404EA7F0122E1
:1052FB0051E0EF70051233CB80F622900A85121F16
:10530B007F900A85122EE0540F121A13900A851201
:10531B001F5FE924E8F9E43AFA74010219BEC003ED
:10532B00C002C0017B017A4179A09041E8121F7F36
:10533B00D001D002D0037F02020A3D123EE0EF649F
:10534B0001706471BD90442AEFF0D39402505890D1
:10535B0041A4E0FF90442AE06F704C12472B90441D
:10536B002BEFF07B017A44792B7D011208B290442C
:10537B002AE024A0F582E43441F583EFF09041A4B8
:10538B00E0045401F070209041A2E07002A3E060B1
:10539B00167B017A41799E71297B017A41799E9026
:1053AB0041A271B31220E422E0FEA3E0FFF5828E4E
:1053BB008322E5F45418131313541FFF229041A2B8
:1053CB00EEF0A3EFF02290357AE090445FF0122ECE
:1053DB00A8020B0AEF122EA87005120B28800312DD
:1053EB000B2D71D171D180DEEF122EA87005120B2F
:1053FB00288003120B2D71D180CC90442CEEF0A39E
:10540B00EFF0122EA87D08120B14BF010D90442C47
:10541B009147122EA8120B1971D12290442EEEF047
:10542B00A3EFF0122EA87D09120B14BF010D9044AF
:10543B002E9147122EA8120B1E71D122E0FFA3E072
:10544B009032EFCFF0A3EFF022904386121F7F90A4
:10545B004386121F5F90429B121F7F122EA8120BC6
:10546B000F61D1122EA8120B00122EA8120B0512CF
:10547B000AD3122EA8E450047F018001FFFEFDFC2D
:10548B00120B5F91A4122EA8E4FD120B46120C8B8B
:10549B00AB077D017F02020BB9120B7D90124612F6
:1054AB001E3A120B82903B90121F7F91CA7E0A7F8D
:1054BB00F1120BA0120984EF5407C36001D32290A1
:1054CB00121BE0B40123122706E991F5C003C002B9
:1054DB00C0017B017A12791D9041E8121F7FD00128
:1054EB00D002D0037F27120A3D2224E0F9E43AFAD6
:1054FB00227FFF120975816E900026121DCC900041
:10550B000C121E16E92441F9E43AFAE49040CFF06C
:10551B007F107E27FDFC9040C8121F7F903FEF74D9
:10552B0054B1407454F09040C8121F5FB1477A35A4
:10553B00796C020998AD07AC06F0A322903FF112EB
:10554B001F7F7B0122AD07AC06903FEF7418F0A3D1
:10555B007446122705B1477A3B7980020998F9E422
:10556B003AFA904389121F7F7B017A35796C0209D5
:10557B009D903F68121EC7E4903F70F0A3F09035EA
:10558B00C47498F0A37403F0E4A3F07B017A3F7921
:10559B007190402A121F7F7A3F097F04120CA99049
:1055AB003F71B1DCB1E27A3579C7120A3D903F68A1
:1055BB00121E3AC0077B017A3579C4903F71E02403
:1055CB0003904248F0903F6CB1EBD233D007023BD3
:1055DB00D2E0FFA3021F5F9041E8121F7F7B0122E5
:1055EB00121E3A904249EFF022122EA8020B5A7F5C
:1055FB0080120975020AAB9040D0121EC77B017A4C
:10560B00357965D1549040D0121E3A903565EFF044
:10561B009040D4121E3A903567EFF09035697404C0
:10562B00F07B017A357965123C22900A1F7453F096
:10563B00A374F3F07A3579787D021208A3EF700624
:10564B00122EA8120B2D227B017D06E4FF020A10FD
:10565B00904100121F7F7A3B7967D1529041001223
:10566B002EE0903B68F0903B6774FFF0E924041246
:10567B002C07903B69F0904106A3E0FD7B017A3B40
:10568B007967123C22D198904103022F29900A1F6F
:10569B007456F0A374BBF0229040D8021EC7904002
:1056AB00E0021EC79040E8021EC79040F0021EC7E2
:1056BB00904461EFF0786D7C3B7D017E007F13128F
:1056CB00192E904461E0FF7DF47C01020B73904234
:1056DB00BB121F7F9042BEEDF0C394104004A37425
:1056EB0010F09042BFE0FF7B017A12794D9041E8B8
:1056FB00121F7F9042BB121F5F120A3D9042BB12DA
:10570B001F5F9042BFF11C9042BEE0C39FFD024F52
:10571B006CE0FF7C0029F9EC3AFA22903F20121F33
:10572B007F903F23EDF0A3121F5FE92401122C079A
:10573B00FC903F28F0901244E0FD903F27F0903F03
:10574B0024122EE0540C7E0060027E01903F2AEE64
:10575B00F0121954903F2CF07E0030E1027E02EEE5
:10576B004405903F2BF0903F24122FEA122C079008
:10577B003F2DF0903F20122EE0649F702CE9240106
:10578B00122C07B40405AF04120B87903F20121F95
:10579B005F903DC2121F7F903F23E0FF903DC5E419
:1057AB00F1B57A3F7927120B8C22F0A3EFF07B0136
:1057BB0022AE077F8AAD06023AA3020AF6020966F9
:1057CB00EF7011ED600775FF0143AE012275FF010C
:1057DB0053AEFE22EFB4011490126BEDF06007751F
:1057EB00FF0143AE022275FF0153AEFD2275FF028E
:1057FB00E5E630E2037F0322E5E630E3037F002298
:10580B00E5E630E1037F0422E5E67F0530E0027F29
:10581B000122EF600775FF0253E6BF2275FF0243BB
:10582B00E64022EF14600F146014240270188B8072
:10583B0075FF018DFD228B9075FF018DC9228BA009
:10584B0075FF018DCA22AF038FB075FF01AF058FB6
:10585B00CB229041A6121F7FEF1460111460182405
:10586B0002701E1197E580119DE5FD801C1197E5D7
:10587B0090119DE5C980121197E5A0119DE5CA8095
:10588B00081197E5B0119DE5CB021A139041A902BF
:10589B001F5F121A1375FF019041A6021F5FE4F5FB
:1058AB00FFAF9122E4F5FFAF922275FF01E5C42013
:1058BB00E7FB75C5FFE5C454204481F5C4E5C4205E
:1058CB00E7FBAFC63139E5C420E7FBEF65C6603FA8
:1058DB0075FF0175C5FF75C6FF3127E5C420E7FBD2
:1058EB0075FF0343840475FF01313075FF01E5C477
:1058FB0020E7FB75FF035384FB75FF0175C6AAE513
:10590B00C454204487F5C4E5C420E7FBE4F5C5AFD8
:10591B00C515C5EF709F90446204F022E5C4542076
:10592B004484F5C422E5C45420448EF5C422E5C456
:10593B0054204480F5C422904462E0FF22E490445A
:10594B0062F02290431C121EC775FF0190431CA3EB
:10595B00E0FDA3A3E4FFFEE4FC7810121D868FE1AB
:10596B0090431CA3A3E0FEA3E4FFE4FDFC78081224
:10597B001D868FE290431CA3A3A3E0FF8FE322E4D9
:10598B00904320F0A304F0E4904323F0E5FA30E1D8
:10599B00FB75FF01E5D530E7037F0022E4F5FF75CA
:1059AB00E5081247D5E5D530E61A75FF019043227D
:1059BB00E5DAF0E4F5DA75FF01E5D630E3FB904369
:1059CB00237401F0513EE59B30E7FBE4FB75FF03CD
:1059DB008B95121520314E0BEBB403F175FF03754C
:1059EB00958012174C1217E143D504904323E070B6
:1059FB000B1217F37FC812175E12178D7B017A43B8
:105A0B007921514B904321E09043207006E04404F0
:105A1B00FF8002E0FF904320EFF090120EE0B40104
:105A2B00031247DC75FF01904322E0F5DA90432027
:105A3B00E0FF2275FF03759B0475FC4175FF032284
:105A4B00C23575FF03759B1F75FF0390120FE02086
:105A5B00E71BE59A540FC394024012E04480F0E434
:105A6B00F5FF75C2A143FC0475FF03D235E5FC308D
:105A7B00E609E59A540FC3940540CDE5FC30E611D9
:105A8B00E4121A1375FC80F5FC75FC40E5FC20E66E
:105A9B00FB30350312166A22EF30E00E43F401E4BB
:105AAB00F5FF43A404F5FF759624EF30E10E43F4A4
:105ABB0001E4F5FF43A408F5FF759624EF30E209E6
:105ACB0043F402E4F5FF75961EEF30E30943F4044B
