:020000040000FA
:10000000021800021803568256C82202180B5ABB67
:100010005B5922021813615529922202181B0FA363
:100020004BF82202182309570A6F2202182B0BD211
:100030000CD122021833623B7F062202183B1224A5
:02004000462256
:060043000218430225969D
:06004B0002184BA21D2269
:060053000218530237F30E
:06005B0002185B023817D9
:06006300021863020BCD40
:06006B0002186B02495966
:100073000218734107350041073400E0010200050F
:1000830054E001020006A5C11B4104940601560079
:100093004104930141049101C11E015B0001590018
:1000A3004303EA0000004303E70103EA423657989B
:1000B30007433C6F000000423C6D0000433EB90023
:1000C3000000413EB800413EBC00E001020079005F
:1000D300E00102008A00C10A41334C004133C6FFEC
:1000E3004133BE00C109C1084133C7004133C800D1
:1000F3004133BF01C10C41334B0041455000C13D69
:1001030043434000000043433D01434041449702C1
:100113004144960D4144980860203B9542DB010021
:1001230000000000000000000000000000000000CC
:1001330000000000000000000000000060203BB54C
:1001430009000000000000000000000000000000A3
:10015300000000000000000000000000000000009C
:10016300503DBD0000000000000000000000000042
:10017300000000C115011800C112C11341421FFF45
:10018300C11FC121C1284229E198404129E30060F0
:100193002029A00000000000000000000000000073
:1001A300000000000000000000000000000000004C
:1001B3000000004326559F01005026580000000010
:1001C30000000000000000000000000161222C5B21
:1001D300000201050101020E0601010004070401EA
:1001E30002030000040006080504020803140400C7
:1001F3000400140501080908050208031405000496
:10020300001405000600140802020A0A080203018A
:100213000008000400140800060014080108001474
:100223000A020D000A0A020C000A0A02080B0A0A53
:1002330001050C0E0A000400140A000600140A014A
:100243000800140E000A0D110E020804140E000417
:1002530000140E000600140E010800140E01050020
:100263001411000C0C0E11020804141100040014E4
:1002730011000600141101080014110105001411E6
:10028300000A00141102050E1212020804141202CD
:100293000C0F0012000400141200060014120108CF
:1002A3000014120105001412000A001412020500C2
:1002B3001412000C001413020C01000002090000C8
:1002C30000020F0000140209010014020B001314B2
:1002D3000007100014020A0100140204001414029F
:1002E3000C001414020D010014020E001414020F6A
:1002F300010060242E660200FFFF0602FF000602D3
:10030300FF000301FF002300FFFF030000001300B1
:1003130000000200010103000000462DBD010002A0
:10032300010402422E430BB94130BE004132580151
:100333004130C4004330C101307F4330B501307FC9
:10034300410AFA00602009D8EDFFFFFFFFFFFFFF1E
:10035300FFFFFFFFFFFFFFFFFFFFFFFFFFFFFFFFAA
:10036300FFFFFFFFFFFFFF7F602825F90522000045
:1003730000030008EEEF7F88CF60C00F028124E006
:1003830040000000008080180000E83300000600F1
:100393000060000041215C0041216C0041215A01B1
:1003A30041215F1141215B0041238F004123AE00B6
:1003B30041238C004123B6004F239F0126270001D0
:1003C30023CA00012641000000004223C80100C1E6
:1003D3002AC12B413427964134230F414311FF4156
:1003E300430F04C1C441430C004143100041430D7A
:1003F300FF473D5B00000000000000433D58000044
:1004030000007581B075FF03759E0212082002304B
:100413003802053E900076E47E019360F4A3FF5416
:100423003F30E509541FFEE493A360010ECF54E06F
:10043300B4E00EEFFAEEF9A3A3A3A3DAFDD9FB8090
:10044300D654C025E0604B5026E493A3F854072408
:100453000CC8C333C4540F4420C8834004F45680EB
:100463000146F6DFE480B00102040810204080E476
:1004730093A3FAE493A3F8E493A3C8C582C8CAC5B7
:1004830083CAF0A3C8C582C8CAC583CADFE9DEE749
:100493008085E493A3F8E493A34003F68001F20874
:1004A300DFF402041AC2D5E830E70FB2D5E4C39BE8
:1004B300FBE49AFAE499F9E498F8EC30E717B2D53B
:1004C3001204DE121CB2E4C39BFBE49AFAE499F92A
:1004D300E498F88003121CB230D50DE4C39FFFE407
:1004E3009EFEE49DFDE49CFC2208EE08F308F80858
:0C04F300FD09070916091B0920024A8DAB
:1005080078B0E4F6D8FD9000007F007E10E4F0A3F8
:10051800DFFCDEFA90456DA3E583C394204011FE0D
:10052800AF829020000E0FE48002F0A3DFFCDEFA19
:100538001208200204172232556E6B6E6F776E20F8
:100548006576656E743A20000A002C0020000B05C1
:100558000B0A0B0FEF90056593900800730A20367D
:100568004CE573FF22EFF573220000010000000044
:100578001706000000001806000000061806000014
:10058800000118060000000818060000000101011B
:100598000000000115000000000102040000000135
:1005A8000B04000000060B04000000080B04000008
:1005B80000010D00000000010E0400000001100001
:1005C800000000010F000000000405010000000405
:1005D80006060000000407080000000205000000ED
:1005E80000030501000000010805000000000800E4
:1005F800000000010C0100000001120500000008C5
:100608000302000000012200000000081608000094
:10061800000808000000000116010000000616018D
:10062800000000050903000000050A00000000059D
:100638000302000000050400000000061B0600007D
:1006480000011B06000000061C07000000061D072D
:10065800000000070508000000081E070000000849
:100668002000000000081F00000000082100000012
:100678000008110600000001110600000008220011
:10068800000000061906000000061E000000000613
:100698002000000000061A080000000614010000EF
:1006A80000071401000000081B06000000072400D2
:1006B80000000008140100000009040000020A00FC
:1006C8000000070582022000000705020220000042
:1006D800090401000102020100052400100105249B
:1006E8000100010424020005240600010705810316
:1006F800080020120100020200000858060002004B
:10070800000000000109020000000100803204031B
:100718000409A280CACF0998445CAD5506414695A4
:1007280003860A92555555555555555555555555A0
:10073800555555333333333333333333333333331B
:100748003333338888888888888888888888888820
:100758008888000000000005000006000000100066
:100768000024288000002420800000113821000087
:100778004428800000442080000034382100003FD5
:10078800241E16110E0B09070504030201F0C8A761
:1007980091776760463835323024222014000101F1
:1007A800020203030404050506060707000000000B
:1007B8000000000000000000000000000000000031
:1007C800000000000000000000000087888888887A
:1007D800888888888888888888888826262626267B
:1007E80026262626262626262626265A2D576176AA
:0707F8006520342E363100AC
:10080000C0737408C0E0C082C08375730AE5FF54EA
:10081000CF4490F5FF22C0737408C0E0C082C0834B
:10082000757320E5FF54CF4490F5FF22C073740820
:10083000C0E0C082C083757336E5FF54CF44A0F595
:10084000FF22C0737408C0E0C082C08375734CE59A
:10085000FF54CF44B0F5FF229081AA01169088057D
:100860000116908FFE0116909016011690901701B8
:100870001690A8010116909073011690AFEE011624
:1008800090B028011690C2B30116908FDB0116902C
:100890008FF50116908C68011690C354011690B81C
:1008A000090116908376011690C812011690C82A85
:1008B00001169085B3011690C84001169081F80189
:1008C0001690C89E011690D444011690AE090116E8
:1008D00090A809011690D461011690D48C0116904D
:1008E000D609011690D69E0116908D4E011690D90C
:1008F00076011690B5FD011690B7E4011690D79ECB
:10090000011690D53B011690D7DB011690D99001C6
:100910001690B872011690C2F3011690C13B0116F1
:1009200090C223011690C1A8011690DAC501169055
:10093000C443011690B0DC011690B16C011690B85A
:10094000DC011690B6FA011690D833011690D492B5
:10095000011690DAD8011690DB05011690DA7E01B7
:100960001690D5D0011690DB13011690DB440116CA
:1009700090DBEA011690DC08011690DC530116901A
:10098000DD29011690DC9A011690C56E011690DDE6
:1009900050011690D3CD011690D3D4011690D39563
:1009A000011690D36F011690D382011690C898015A
:1009B0001690D47D011690D6B2011690D727011655
:1009C00090D64B011690D5FB011690DD570116907D
:1009D000DDCF011690CBA5011690CA3A011690CE34
:1009E0004A011690C931011690DB58011690D3EDDB
:1009F000011690DB9C011690DE77011690DEF40163
:100A00001690D039011690809701169080FB011640
:100A1000908000011690815F011690C1AD01429057
:100A200099A7014290C235014290C2B5014290801F
:100A300004014290815F014290C04E01429098ECC7
:100A400001429090BA014290ADD4014290B3BE01F0
:100A50004290C428014290C42B014290810401427B
:100A60009098F7014290C42E01429090BD014290AF
:100A7000C5500142908C28014290A84A01429081C1
:100A8000F0014290AC62014290C06A014290C921DB
:100A9000014290CACC014290D4A7014290A56C01BA
:100AA0004290D4ED014290D54D0142908014014214
:100AB0009080F2014290D57D014290D58F01429005
:100AC000D5A8014290B89C014290A735014290AD53
:100AD000CA014290D824014290D87E014290D88F1A
:100AE000014290D8B8014290D8DE014290D833013B
:100AF0004290C5D80142909940014290D79101425D
:100B00009085AA014290D9E9014290D2F801429021
:100B1000AAEF014290DA69014290DC35014290DC93
:100B200081014290DCF9014290BEDB014290D40584
:100B3000014290DDBE014290DFF7014290DFFF01EC
:100B40004290E015014290E041014290E0490142AB
:100B500090E051014290E06D014290E09701429097
:100B6000E0A3014290E0AE014290E0B5014290E086
:100B7000BB014290E0C1014290E0C7014290E0CD4C
:100B8000014290D53A014290CCBF01429080AA0127
:100B90004290EB1B014290ECE50142909D5B0142CB
:100BA000908187014290ED43014290DAA101429089
:100BB0008DAA014290ED4C014290ED8C014290EDE6
:100BC0008D014290858601429081E9014290ED9627
:100BD000014290D320014290DC3E014290D19D0120
:100BE0004290D04E014290D110014290EE1101424C
:100BF00090B99A014290BBFF014290EE20014290D1
:100C0000EE23014290ADE4014290D1CB014290A08D
:100C100079014290C8030142909E15014290A07252
:100C2000014290A2FB014290A167014290A15E01A6
:100C300042909DCA014290A1160142909ED101426C
:100C4000909D78012C909D95012C909FC9012C902E
:100C5000A028012C90A032012C90A04B012C909C3C
:100C60007D012C90A05D012C909BEF012C90A0BEEB
:100C7000012C90A0C8012C909858012C909B300119
:100C80002C90A107012C9081E3012C90A188012CCC
:100C900090A189012C9091EF012C90974F012C90FD
:100CA00095AE012C90A1C0012C909A9A012C9081B4
:100CB000D6012C909C40012C90A271012C90989709
:100CC000012C908068012C909A4E012C90A2F30187
:100CD0002C909BE3012C00000E1384000E18FC00E6
:100CE0000E225C020202003F3F3F04040432323213
:100CF000000201900C400C450C4A0C4F0C540C594E
:100D00000C5E0C630C680C6D0C720C770C7C0C8107
:100D10000BDC0BE60BEB0BF00BF50BFA0BFF0C09E6
:100D20000862086708A808AD08B20AC40AD30AD83E
:100D30000ADD0AE2822D1C161311101000030102B5
:100D400006040537A9577658C70CB30CB80CBDE498
:100D5000FD7C0CAB050DEB9007F3938F828E83F037
:100D60000FBF00010EDCEC0200388F828E83E4F0AE
:100D7000A37404B17D743DB17DA3E4F022F08F82B1
:100D80008E83A3A322904542EFF090401DE0B40172
:100D90000FC2ED7A4579429040C2F199B1A1D2EDEE
:100DA000229040BF121F7F9040BFD12DFF900002C4
:100DB000121991C39F4001229040C2121F5F9040C0
:100DC000C6121F7FE49040C5F09040BFD13EFF9017
:100DD00040C5E0FEC39F5030A3121F5FD136FDD146
:100DE000231219918FF0A4FF9040C5E07A002FFFE5
:100DF000EA35F0FE9040BF121F5FD1DFED121A25D9
:100E00009040C5E004F080C1D123121991D1D8D10E
:100E100030FD7C00121A59D123EDF14674011219EC
:100E2000E0D3229040BF121F5F90000122121F5F8B
:100E30009000030219918E82758300021991121F8E
:100E40005F900004021991904093121F7FE490403C
:100E500099F0904093D1CD121991D39400406D90A8
:100E60004096121F5F90409B121F7FE490409AF0C3
:100E7000904093D13EFF90409AE0C39F502A1219B0
:100E8000548FF0A4FF90409AE02FF191D1DF121916
:100E900091FF90409B121F5F90409AE0F582F1D83D
:100EA00090409AE004F080C8904093D12DFD7C00E2
:100EB000121954D1D8121A59904093121F5FED1293
:100EC0001A13904093D1CD74FF1219E022121F5FC4
:100ED00090000222901244E02401FFE433FE2290AD
:100EE0000005121FF78F828E83227A407926904167
:100EF000A3121F7F9041A67401F0A37405F07A40FD
:100F0000791E9041A0121F7F9041A0F1839041A0D3
:100F1000D126E4121A259041A7E0900003F146E49F
:100F2000121A259041A6E0900004121A259041A3C0
:100F3000121F5FC003C002C0019041A0121F5F904A
:100F4000000512202722121A25900002227F01128A
:100F5000354990401DE0B401047B01D1EA227A0AB0
:100F60007B9212C8F690401D7401F0FBD1EA7E0F0F
:100F70007FA3900739E0FCA3E04C7005900739800F
:100F800009C322121F5FE4021A13EEF0A3EFF0D39D
:100F9000227C00FFEC35F0FE227B01121F7F7A409D
:100FA000791E2290401DE0640170257B017A407912
:100FB0001EF1DFEF701A904543F0C2ED7A45794398
:100FC000904096F199D147D2ED904543E0FF518D85
:100FD00022FF121F5F851F82758300EF021A259082
:100FE0000002121991D394007F0050027F0122C0A9
:100FF000E0C0F0C083C082C0D075D000C000C00186
:10100000C002C003C004C005C006C007904544E547
:10101000FFF075FF02E5D430E60C75D4409043191B
:1010200031646002316B75FF02E5D430E50C75D494
:101030002090431B31646002316B75FF02E5D430B0
:10104000E41075D410316160098F828E837F0512A0
:1010500020E475FF02E5D430E30C75D40890431901
:1010600031646002317475FF02E5D430E20C75D44E
:101070000490431B31646002317475FF02E5D43083
:10108000E11675D4021225BEEF600D3161600512C4
:10109000653E800431AD317D75FF02E5D430E0104E
:1010A00075D401316160098F828E837F071220E43D
:1010B00075FF02E5D530E41075D510316160098FF8
:1010C000828E837F031220E475FF02E5D530E110A4
:1010D00075D502316160098F828E837F061220E40C
:1010E00075FF02E5D530E01075D501316160098FDB
:1010F000828E837F041220E475FF02E5D530E21072
:1011000075D504316160098F828E837F0A1220E4D5
:1011100075FF02E5D530E71075D580316160098F24
:10112000828E837F081220E475FF02E5D530E61039
:1011300075D540316160098F828E837F091220E46A
:10114000904544E0F5FFD007D006D005D004D00389
:10115000D002D001D000D0D0D082D083D0F0D0E067
:101160003290431DE0FEA3E0FF4E228F828E837FEC
:10117000010220E48F828E83E4FF0220E431CDE47B
:10118000F59E7F01229043F6121EC79033C431644E
:101190006004319F319722E49033C4F0A3F0229091
:1011A0001243E0FD8F828E83E4FF0220E475FF018D
:1011B00053CCFD43FB4031CD759E0143FB0975FFC8
:1011C00003859E9E75FF03859E9E7F012275FF020B
:1011D00043D20175FF0322904548EFF0903C6D31FA
:1011E000646024903C72512A903C6DF0A3F09045CD
:1011F00048E0FE7003FF8003EE14FF903C72E0FCB9
:10120000A3E0FDF582801D903C6B126547601A904B
:101210004548E0FE7003FF8003EE14FF7B017A3C3B
:10122000794C8D828C831220E422EEF0A3EFF0E45F
:1012300022903EEAF1EC75BB0575BB8575FF017523
:10124000D502203505F179124E9C75FF0143D5205A
:1012500030350241F0E4F5FF538EF7438E077D04ED
:10126000E4F5FF8DBCF5FF43B102E5B130E2FBE4EC
:10127000F5FFAFDFEFFEACDEECFBEBFFED25E0248E
:10128000E8F582E4343EF583512AF5FFF5FF53B1CA
:10129000FD0DEDB40CCA903EEA91BA7809121D8694
:1012A000A3512AFDED25E024F2F582E4343EF583D6
:1012B000E0C313FAA3E013FBF1D7E0C313FEA3E0EE
:1012C000132BFFEE3AFEF1D7EEF0A3EFF0ED24047E
:1012D00090120DF0EDC394075016CFEDCF0DEFF146
:1012E000D81263D1903EEFE09F903EEEE09E50B466
:1012F000E4F5FF758EC8F5FF90120DE0F5BCE4F53E
:10130000FF75BB8075FF01F5D522903D9D121EC76C
:10131000903DAD7401F0E4A3F0125FC075FF02E5EB
:10132000E630E00E903DAE7401F0FB7A3D79AE12EE
:101330004EDA903DB8F1E4F5A490120FF0903DAF75
:101340007402F075FF03903DAFE0FFF595EF146078
:101350001314601C24027027903D9D91BAF1CA902D
:101360003DA98016903DA191BAF1CA903DAA800A8C
:10137000903DA591BAF1CA903DABE0903DBCF01212
:101380005FF1903DBCE070051264C4806690120E5F
:10139000E004F0903DAF124FD0903DAEE0701A9057
:1013A0003DB891BA903DB4126366C3121D755009E1
:1013B000903DB491BAA3121EC7903DBCE0FF125EEF
:1013C00041903DACE0FF903DAFE0FDA23992361276
:1013D0005F6E903DAEE07013903DB491BA9043A320
:1013E000121EC7903DAFE0FF124F28903DAF91AC69
:1013F000125CE512657C60026143903DAEE0705086
:10140000A37402F075FF03903DAF1265B5701B9099
:101410003DB8D1117801121D86903DAFE0FB124F0F
:101420001A121EC7EB91AD125CE512657C70D59067
:101430003DB81264292420FFEE344ED133E4FB7A08
:1014400004F9F8D1217801121D86903DB0121EC713
:101450001263E2400343F420A2399237125EA09057
:101460003DAEE024FF9235903DB091BA126487E41E
:10147000F5FF75E508125DDCE59B30E7FBF1A61290
:10148000180A43D5047FC8F1B9B1EBF1807B017A2A
:101490003D79AD125DE990120EE0B40103125DD505
:1014A000903DADE0B40103D38001C322E025E025E7
:1014B000E02401F582E43412F583E0FCA3E0FDA30F
:1014C000E0FEA3E0FF22903E6A121EC7125FC090AA
:1014D0003E7FF1E4F5A490120EF0A3F0903E7A74F2
:1014E00002F075FF03903E7AE0FFF595EF1460136C
:1014F00014601C24027027903E6A91BAF1C4903E99
:10150000768016903E6E91BAF1C4903E77800A9034
:101510003E7291BAF1C4903E78E0903E83F0125F43
:10152000F1903E83E070051264C4805690120EE084
:1015300004F0903E7A124FD0903E7F91BA903E7B5D
:10154000126366C3121D755009903E7B91BAA312B7
:101550001EC7903E83E0FF125E41903E79E0FFA3FC
:10156000E0FDA2389236125F6EA391BA9043A312A7
:101570001EC7903E7AE0FF124F28903E7A91AC123F
:101580005CE5126585600281E27402F075FF0390EC
:101590003E7A1265B57020FF7E04FDFC903E7FD13F
:1015A000167801121D86903E7AE0FB124F1A121E29
:1015B000C7EB91AD125CE512658570D01263E24015
:1015C0000343F420A2389237125EA0903E7F12644B
:1015D000292420FFEE344ED133E4FB7A04F9F8D10C
:1015E000217801121D86C23512648790121374018E
:1015F000F07E127F01E4FD8F828E83EF2DF582E471
:101600003EF583E0FC901213E02CF00DEDB412E7F0
:1016100022FF7E04FDFCE0F8A3E0F9A3E0FAA3E0DA
:10162000FB121C27E47B7DFAF9F8121CB2EF2401AF
:10163000FFE43EFEE43DFDE43CFC2290409E124E61
:1016400070E47F01FEFDF1D09040A87401F0F5FF39
:10165000E5D554C07005124B735002C322E4F5FF68
:1016600053967F75FF0175D504F17975FF0143D558
:1016700008E4F5FF5394FBF5FF53847FF5FF75985D
:10168000FF9040A2E5F4F075F49C75FF01A3E5E43A
:10169000F075E4257B017A4079A8124EDA9040A8D3
:1016A000E064016002E157F5FF9040A17414F090EE
:1016B00040A491BA7801121D99F1D1E5A730E1FB60
:1016C00043A7029040A491BAE5A730E005E47B016E
:1016D0008002E4FBFAF9F8EF4BFFEE4AFEED49FD1C
:1016E000EC48F1D09040A1E014F070C39040A49178
:1016F000BA7810121D867B6D7A4E79C67841121C1D
:1017000027EF2439FFEE3430D133E4FBFA7901F8C6
:10171000121CB2EE547FFEE4FDFC1252969040A4DF
:1017200091BAEB6FFFEA6EFEE8CDEFCDCCEECCECDC
:10173000FF90409E124E7CEF121A1390409EE0FBE9
:10174000A3E0FAA3E0240112657490120FE030E6E2
:1017500006E4F5FF75968075FF01E4F5D59040A28B
:10176000E0F5F475FF01A3E0F5E4125E8F9040A868
:10177000E0B40103D38001C3227F3FFEF189F1BDB4
:1017800075FF03E59120E7FB2275FF03D3EF940279
:10179000EE9400400874FE2FFF74FF3EFEEFF592BA
:1017A000EE540FF59122E4F5FF758EC8124E9C752C
:1017B000FF0153D5FBF1F37F147E00F18975FF0320
:1017C00043918022903E7B021EC7903DB4021EC70B
:1017D000FC9040A4021EC7ED25E024F0F582E4341D
:1017E0003EF583227FC07EC67D2D7C00121EC7E49D
:0A17F000F5FF2275FF03E4F59122D6
:06180000020405C21A22D9
:101808007FB812178075FF012275FF028FD675FF0A
:1018180002AF058FD77F01EF6003D2ED22C2ED2220
:10182B00024822E475FF02AFD4CDEFCD75FF02AFB6
:10183B00D5EFFCEDCEECCEFF22E0FFE51FC39F22E0
:10184B00023A06EDF0E4F51FEDD322A233923322D8
:10185B00020FEFE709F608DFFA8046E709F208DF27
:10186B00FA803E88828C83E709F0A3DFFA8032E3AB
:10187B0009F608DFFA8078E309F208DFFA8070884E
:10188B00828C83E309F0A3DFFA806489828A83E088
:10189B00A3F608DFFA805889828A83E0A3F208DF77
:1018AB00FA804C80D280FA80C680D4806980F28026
:1018BB0033801080A680EA809A80A880DA80E2804C
:1018CB00CA803389828A83ECFAE493A3C8C582C8A1
:1018DB00CCC583CCF0A3C8C582C8CCC583CCDFE90B
:1018EB00DEE7800D89828A83E493A3F608DFF9ECA7
:1018FB00FAA9F0EDFB2289828A83ECFAE0A3C8C532
:10190B0082C8CCC583CCF0A3C8C582C8CCC583CC58
:10191B00DFEADEE880DB89828A83E493A3F208DFC7
:10192B00F980CC88F0EF60010E4E60C388F0ED2497
:10193B0002B4040050B9F582EB2402B4040050AF9A
:10194B0023234582239018AE73BB010689828A83B9
:10195B00E0225002E722BBFE02E32289828A83E463
:10196B009322BB010B89828A83F8E0C828F0E82216
:10197B00500327C722BBFE07F8E3C828F3E8228AE7
:10198B00838982E49322BB010CE58229F582E583EE
:10199B003AF583E0225006E92582F8E622BBFE06E3
:1019AB00E92582F8E222E58229F582E5833AF5837F
:1019BB00E49322BB010989828A83F8E028F0225044
:1019CB000327F722BBFE05F8E328F3228A838982DB
:1019DB00F8E4932822BB010FF8E58229F582E58311
:1019EB003AF583E028F0225009C58229F8E58226D2
:1019FB00F622BBFE09C58229F8E22582F222F8EA1B
:101A0B002583F583E9932822BB010689828A83F01B
:101A1B00225002F722BBFE01F322F8BB010DE58237
:101A2B0029F582E5833AF583E8F0225006E9258211
:101A3B00C8F622BBFE05E92582C8F222EF8DF0A481
:101A4B00A8F0CF8CF0A428CE8DF0A42EFE22BC00E3
:101A5B000BBE0029EF8DF084FFADF022E4CCF875BE
:101A6B00F008EF2FFFEE33FEEC33FCEE9DEC9840CD
:101A7B0005FCEE9DFE0FD5F0E9E4CEFD22EDF8F569
:101A8B00F0EE8420D21CFEADF075F008EF2FFFEDC9
:101A9B0033FD4007985006D5F0F222C398FD0FD5C1
:101AAB00F0EA22C2D5EC30E709B2D5E4C39DFDE4E0
:101ABB009CFCEE30E715B2D5E4C39FFFE49EFE120B
:101ACB001A59C3E49DFDE49CFC8003121A5930D5CE
:101ADB0007C3E49FFFE49EFE22C5F0F8A3E028F0C5
:101AEB00C5F0F8E582158270021583E038F022A369
:101AFB00F8E0C5F025F0F0E582158270021583E061
:101B0B00C838F0E822BB010A89828A83E0F5F0A38A
:101B1B00E022500687F009E71922BBFE07E3F5F038
:101B2B0009E3192289828A83E493F5F074019322E5
:101B3B00BB0110E58229F582E5833AF583E0F5F0E8
:101B4B00A3E0225009E92582F886F008E622BBFEC5
:101B5B000AE92582F8E2F5F008E222E5832AF5830B
:101B6B00E993F5F0A3E99322BB010DC58229C58248
:101B7B00C5833AC583021AE45011C58229F808E5DA
:101B8B00F026F618F5F0E58236F622BBFE11C5827B
:101B9B0029F808E225F0F5F0F218E23582F222F886
:101BAB00E58229F582E5832AF58374019325F0F507
:101BBB00F0E4933822BB010A89828A83F0E5F0A313
:101BCB00F0225006F709A7F01922BBFE06F3E5F049
:101BDB0009F31922F8BB0111E58229F582E5833A55
:101BEB00F583E8F0E5F0A3F0225009E92582C8F669
:101BFB0008A6F022BBFE09E92582C8F2E5F008F23F
:101C0B0022EF2BFFEE3AFEED39FDEC38FC22C3EF51
:101C1B009BFFEE9AFEED99FDEC98FC22E88FF0A469
:101C2B00CC8BF0A42CFCE98EF0A42CFC8AF0EDA458
:101C3B002CFCEA8EF0A4CDA8F08BF0A42DCC38258B
:101C4B00F0FDE98FF0A42CCD35F0FCEB8EF0A4FE6B
:101C5B00A9F0EB8FF0A4CFC5F02ECD39FEE43CFC00
:101C6B00EAA42DCE35F0FDE43CFC2275F00875821C
:101C7B0000EF2FFFEE33FECD33CDCC33CCC582330B
:101C8B00C5829BED9AEC99E58298400CF582EE9B10
:101C9B00FEED9AFDEC99FC0FD5F0D6E4CEFBE4CD2E
:101CAB00FAE4CCF9A88222B800C1B90059BA002DC8
:101CBB00EC8BF084CFCECDFCE5F0CBF97818EF2F81
:101CCB00FFEE33FEED33FDEC33FCEB33FB10D703B0
:101CDB00994004EB99FB0FD8E5E4F9FA227818EF59
:101CEB002FFFEE33FEED33FDEC33FCC933C910D7B8
:101CFB00059BE99A4007EC9BFCE99AF90FD8E0E4C5
:101D0B00C9FAE4CCFB2275F010EF2FFFEE33FEED9A
:101D1B0033FDCC33CCC833C810D7079BEC9AE8996A
:101D2B00400AED9BFDEC9AFCE899F80FD5F0DAE44C
:101D3B00CDFBE4CCFAE4C8F922EF5BFFEE5AFEEDE3
:101D4B0059FDEC58FC22C3E49FFFE49EFEE49DFD8D
:101D5B00E49CFC22EB9FF5F0EA9E42F0E99D42F0F9
:101D6B00EC6480C864809845F022EB9FF5F0EA9E06
:101D7B0042F0E99D42F0E89C45F022E8600FECC38D
:101D8B0013FCED13FDEE13FEEF13FFD8F122E86009
:101D9B000FEFC333FFEE33FEED33FDEC33FCD8F125
:101DAB0022BB010789828A83021E3A5005E9F80299
:101DBB00230DBBFE05E9F802231989828A83021ED3
:101DCB0046BB010DE58229F582E5833AF583021EB8
:101DDB003A5007E92582F802230DBBFE07E925825D
:101DEB00F8022319E58229F582E5833AF583021E71
:101DFB0046BB010789828A83021EC75005E9F80298
:101E0B00234FBBFE05E9F802235B22BB010DE582E4
:101E1B0029F582E5833AF583021EC75007E925822F
:101E2B00F802234FBBFE07E92582F802235B22E071
:101E3B00FCA3E0FDA3E0FEA3E0FF22E493FC74010E
:101E4B0093FD740293FE740393FF22E0F8A3E0F971
:101E5B00A3E0FAA3E0FB22BB010DE58229F582E5A5
:101E6B00833AF583021E565007E92582F802232593
:101E7B00BBFE07E92582F8022332E58229F582E5CC
:101E8B00833AF58302233F7401FF3395E0FEFDFC9B
:101E9B00A3A3A3E02FFFF0E582158270021583E068
:101EAB003EFEF0E582158270021583E03DFDF0E504
:101EBB0082158270021583E03CFCF022ECF0A3ED5E
:101ECB00F0A3EEF0A3EFF022A8828583F0D083D0AD
:101EDB0082121EEA121EEA121EEA121EEAE473E4D2
:101EEB0093A3C583C5F0C583C8C582C8F0A3C583BA
:101EFB00C5F0C583C8C582C822BB010789828A8306
:101F0B00021ED35005E9F8022367BBFE05E9F80270
:101F1B00238022BB010DE58229F582E5833AF58307
:101F2B00021ED35007E92582F8022367BBFE07E99F
:101F3B002582F802238022F5F0C582A4C582C5F064
:101F4B00C583A42583F58322A42582F582E5F0358C
:101F5B0083F58322E0FBA3E0FAA3E0F922F8E0FB90
:101F6B00A3A3E0F925F0F0E582158270021583E05A
:101F7B00FA38F022EBF0A3EAF0A3E9F022BB010759
:101F8B0089828A83021F5F5005E9F8022399BBFE01
:101F9B0005E9F80223AB89828A830223BDBB011AB0
:101FAB0089828A83D0F0D0E0F8D0E0F9D0E0FAD083
:101FBB00E0FBE8C0E0C0F0021F7F5016E9F8D083C9
:101FCB00D082D0E0F9D0E0FAD0E0FBC082C083022F
:101FDB0023A2BBFE16E9F8D083D082D0E0F9D0E083
:101FEB00FAD0E0FBC082C0830223B422BB010DE513
:101FFB008229F582E5833AF583021F5F5007E925B5
:10200B0082F8022399BBFE07E92582F80223ABE590
:10201B008229F582E5833AF5830223BDBB0120E5D6
:10202B008229F582E5833AF583D0F0D0E0F8D0E051
:10203B00F9D0E0FAD0E0FBE8C0E0C0F0021F7F501F
:10204B0018E92582F8D083D082D0E0F9D0E0FAD01D
:10205B00E0FBC082C0830223A2BBFE18E92582F8F5
:10206B00D083D082D0E0F9D0E0FAD0E0FBC082C0C0
:10207B00830223B422D083D082F8E49370127401CC
:10208B0093700DA3A393F8740193F5828883E47383
:10209B007402936860EFA3A3A380DFD083D082E4A4
:1020AB00937012740193700DA3A393F8740193F5BD
:1020BB00828883E4737402936C70127403936D7053
:1020CB000C7404936E70067405936F60DDA3A3A369
:1020DB00A3A3A380CA8A838982E473E56E2582F564
:1020EB0082E56D3583F583B56D0485826E2210AF65
:1020FB000685826EF56D2285826EF56DD2AF22EC70
:10210B008EF0A4CCC5F0CCCDF8EFA4CEC5F02DFD50
:10211B00E43CFCE8A42EC8C5F03DFDE43CFCEFA478
:10212B00FFE5F028FEE43DFDE43CFC22E3F5F0097D
:10213B00E208B5F06BDFF58067E3F5F009E608B56B
:10214B00F05EDFF5805A87F009E608B5F052DFF64E
:10215B00804E87F009E208B5F046DFF680428882B0
:10216B008C8387F009E0A3B5F036DFF680328882E6
:10217B008C8387F009E493A3B5F025DFF5802188E4
:10218B00828C83E3F5F009E0A3B5F014DFF5801042
:10219B0088828C83E3F5F009E493A3B5F002DFF4B6
:1021AB00022266808780E9809080D4803E801580F3
:1021BB006E807E809D80B7808D80A38051807480DF
:1021CB003C02227289828A83ECFAE493F5F0A3C86D
:1021DB00C582C8CCC583CCE493A3C8C582C8CCC583
:1021EB0083CCB5F076DFE3DEE1807089828A83E40D
:1021FB0093F5F0A3E208B5F062DFF4805E89828A82
:10220B0083E0F5F0A3E608B5F051DFF5804D898248
:10221B008A83E0F5F0A3E208B5F040DFF5803C8956
:10222B00828A83E493F5F0A3E608B5F02EDFF48001
:10223B002A8002805789828A83ECFAE493F5F0A313
:10224B00C8C582C8CCC583CCE0A3C8C582C8CCC5E1
:10225B0083CCB5F006DFE4DEE280007FFFB5F00251
:10226B000F2240027F012289828A83ECFAE0F5F08B
:10227B00A3C8C582C8CCC583CCE0A3C8C582C8CCD3
:10228B00C583CCB5F0D5DFE5DEE380CF89828A83C9
:10229B00ECFAE0F5F0A3C8C582C8CCC583CCE493B7
:1022AB00A3C8C582C8CCC583CCB5F0AFDFE4DEE2F2
:1022BB0080A988F0EF60010E4E60ABED2402B404F0
:1022CB00005098F582EB2402B40400508E23234572
:1022DB0082239021AE73EF4E6012EF60010EEDBBC7
:1022EB00010B89828A83F0A3DFFCDEFA2289F0508E
:1022FB0007F709DFFCA9F022BBFEFCF309DFFCA901
:10230B00F022E6FC08E6FD08E6FE08E6FF22E2FC0A
:10231B0008E2FD08E2FE08E2FF22E6FB08E6F90808
:10232B00E6FA08E6CBF822E2FB08E2F908E2FA0843
:10233B00E2CBF822E493F8740193F9740293FA74E4
:10234B000393FB22ECF608EDF608EEF608EFF62207
:10235B00ECF208EDF208EEF208EFF222D083D08215
:10236B00E493F608740193F608740293F608740369
:10237B0093F6740473D083D082E493F208740193C0
:10238B00F208740293F208740393F2740473E6FB7D
:10239B0008E6FA08E6F922EBF608EAF608E9F6226F
:1023AB00E2FB08E2FA08E2F922EBF208EAF208E9AA
:1023BB00F222E493FB740193FA740293F92275FFF2
:1023CB0002EFF452D475FF02EDF452D5229043DEA6
:1023DB00121F7F9043E112184E943F4003743FF05D
:1023EB0075FF02E5CD30E105E4F51E8003751E0196
:1023FB00E51E6038E5FD251F04543FFFE5DD543F26
:10240B006F60299043E112184450219043DE121F54
:10241B005F851F82120E38AEFDB17B543F248EF5C3
:10242B0082EC3406F583EFF0051F80C4E51E6008CF
:10243B00E5FD251F543FF5FDAF1F2290456CEFF0D6
:10244B007B017A45796C7D0171D87F01229043E243
:10245B00121F7F9043E5EDF075FF02E4F51FEDD3FE
:10246B00941F4003741FF075FF02E5CD30E205E4C5
:10247B00F51E8003751E01E51E6038E5C9251F0496
:10248B00541FFFE5DE541F6F60299043E51218447B
:10249B0050219043E2121F5F851F82120E38AEC986
:1024AB00B17B541F24EEF582EC3406F583EFF00577
:1024BB001F80C4E51E6008E5C9251F541FF5C9AF71
:1024CB001F229043E6121F7F9043E912184E943F50
:1024DB004003743FF075FF02E5CB251F543FFFE52A
:1024EB00DB543F6F60229043E9121844501AADCB76
:1024FB00B173543F244EF582EE3406F583E09043DE
:10250B00E6120FD1051F80D0E51F600625CB543F87
:10251B00F5CBAF1F229043EA121F7F9043ED1218A9
:10252B004E941F4003741FF075FF02E5CC251F541A
:10253B001FFFE5DC541F6F60229043ED12184450CF
:10254B001AADCCB173541F24CEF582EE3406F5834D
:10255B00E09043EA120FD1051F80D0E51F600625DE
:10256B00CC541FF5CCAF1F22ED251FFF7E00EF22B1
:10257B00FFE51FFDEE2DFD7C00ED227B017A4579F9
:10258B00407D0191CD904540E0FF2275FF02E5DBD8
:10259B00543FFFE5CB543F6F7F0060027F012275F4
:1025AB00FF02E5DC541FFFE5CC541F6F7F00600278
:1025BB007F012275FF02AFD3EF7F0030E6027F0170
:1025CB002290073C7402F0900734E0FF120C9590B8
:1025DB00073C7405F022124A75F1E41209BB12088C
:1025EB00D5120ABFD1CD603C7F05D1B9BF540B7F4B
:1025FB0006D1B9BFA5047F0180027F00900734EF9D
:10260B00F070217E007F00C006C374F39400FE744B
:10261B0000D1DCD1E9D00612085874FFFDFCE4FFB1
:10262B00FE120989D1CD7F0060027F0112092F7F35
:10263B0005D1B9BF54097F06D1B9EF64A5600F7EF0
:10264B00007F00C006D1D4D1E9D006120858120978
:10265B0039120880F1C9F1BD7A127945120A33F1AA
:10266B00ACFE4FFDA3E0FC4DFDA3E0FB4D600BEE7C
:10267B005FFFEC5FFFEB5FF4700312371B901243AD
:10268B00E0FF54032445F582E43412F583E06F90A8
:10269B00072FF0E490412AF0904128F0A3F00200BC
:1026AB000A75FF0275E40475E40175E4022275FFF7
:1026BB0001E5C420E7FB8FC5F1B4E5C420E7FBAF10
:1026CB00C622900736E0640122C374799400FE742D
:1026DB000094009041F5F0A3CEF022121F7F7B00F7
:1026EB007A0079002290407BF1A6E94A6075D1E926
:1026FB00904084121F7F90407B805EF175E94A60A9
:10270B006290407E121F5FC003C002C001F175D002
:10271B0082D083D0E06B7008E965827003EA658331
:10272B00702C904084121F5FE94A904081700DF12C
:10273B006FC003C002C00190407B800BF16FC003E0
:10274B00C002C001904084121F5F121FA822F175B6
:10275B00904084121F7F904081F16F904081121F37
:10276B007F809822121F5F021F88904081021F5F9B
:10277B00904331F1A6E94A7004FBFAF922904331F8
:10278B00F16F8009904334F16FE94A60089043344C
:10279B00121F7F80EF904334021F5F121F7F021FB7
:1027AB0088901245E0FFA3E022E5C454204480F555
:1027BB00C4227B017A12794390435E021F7FE4901F
:1027CB00432AF0FBFAF9F1DC900490F0904325F0EA
:1027DB0022904326121F7FE422E4FF123481E4F09F
:1027EB000FEFB404F6E4F57112565E90447BD1E61C
:1027FB00C003C002C00190447B121F5F121FA822AE
:10280B0075FF0275E404E4F5E42275FF02E5E4309C
:10281B00E10675E40675E40322900AC1EFF0900A15
:10282B00C3EBF0900AC2EDF05402901261F0125615
:10283B00C1600712004E5002C322120AF6EF60026B
:10284B00C32211DBEF6002C32211FA900AC1E0B47C
:10285B00040A11A7900AC17403F08027900AC1E003
:10286B006405701411A790124BE030E5047F1F80B4
:10287B00027F73123817800B900AC2E0FB7D01E4D4
:10288B00FF11AE900AC1E0900735F0900AC3E090BB
:10289B001260F0124AE390073D020F8AA3E0FB7D22
:1028AB00017F01EB600875FF0153CDFD800675FFBD
:1028BB000143CD02ED600553FBDF800343FB20EFAB
:1028CB00600775FF0243E1402275FF0253E1BF220F
:1028DB0011F2240FF1DE700811F2240DF1DE600409
:1028EB007F0180027F0022903C6F121F5FE922E480
:1028FB0090121BF07F8A1226B9904519EFF0701BCE
:10290B0011F224DCD103FFAEF04E607090121B74F9
:10291B0001F0AA06A907FB318C8050904519E0FF06
:10292B0074E8C39F4056E4904518F0904518E0FFBB
:10293B00C394055047EF75F027A4FFAEF0903C6FA2
:10294B00126396E92402F9EA3401FA121954FD9044
:10295B004519E0B5051E90121B7401F011F224E02D
:10296B00F9E43AFA126399318C7B017A12791C7F64
:10297B0027020A5B904518E004F080AF22A3121FD8
:10298B005F9042C9021F7F90441A121F7FE94AC30E
:10299B006001D3400241AC51AE240251C430E01966
:1029AB0090441A51BE540FFFBF0503D38001C3409F
:1029BB000890441A121F5FC10A12616490441A12E4
:1029CB001F5FF1E65014E0FF9404500280027F0475
:1029DB0051AE124518318C12653590441AB1FD5425
:1029EB0067903ECC51AD24E851C4903EC751AD2405
:1029FB00F351C4903ECD51AD24F451C4903ECE5111
:102A0B00AD24F551C4903ECF51AD24F151C4903E4D
:102A1B00C551AD24F251C4903EC651AD24F6D1033D
:102A2B00124B2B51AD24EE51C490441D7003F0801A
:102A3B00037401F051AE240351C430E33551AE247D
:102A4B00E9D10345F0605290441DE0FF51AE126492
:102A5B00A3C003C002C00151AE24E9D103D1EAD017
:102A6B0001D002D0031220E451AE1263C7121BC077
:102A7B00802751AE24E5D10345F0601D90441D1213
:102A8B00617CC003C002C00151AE24E5D103D1EA81
:102A9B00D001D002D0031220E490441A121F5FF130
:102AAB001722F090441A121F5FE922F07E617F55C6
:102ABB00903EB9121F5FE924B7F9E43AFA021954B0
:102ACB00900AA1121F7FD22FC2EBE556600281C480
:102ADB00E55730E202C32291D124EEF9E43AFAE44D
:102AEB00121A13125558A2ED921CC2EDB1FA546092
:102AFB00604191D1240351C420E13890432AE06412
:102B0B0004603091D124BB51C491D024E21243BC58
:102B1B00904329740FF0900AA1121F5F9043261265
:102B2B0026E6F1D890432A7405F0123563A21C9265
:102B3B00EDD322900AA1F1D2540FFFBF0111E9246A
:102B4B00EF51C4700A901244E0900AA4F0800E90EA
:102B5B000AA1121F5F1208DF900AA4EFF0E55720BD
:102B6B00E062124B7340057F01123549900AA47A3B
:102B7B000A79A5124DF3E43391D024EFF1F1121938
:102B8B00BEEF7002803A900AA4E0FF1264D2E0FE1E
:102B9B00900AA5E0D39E40051253F0C32291D12495
:102BAB00B951C4FD900AA1F1D2FB12396E900AA55E
:102BBB00EFF0E0FF7006D2EBD20081AFEFB402046E
:102BCB00D2EB81AFB1FA5460600E91D1240351C4A2
:102BDB0020E105E490432AF0124B735005C23B12DF
:102BEB0036B11252E8E5D120E0FBE4F550C21D915D
:102BFB00D12408F9E43ACFE9CFF5518F5291D12482
:102C0B00B151C4F558AE511261F291D124B151C4F6
:102C1B0091D024E151C42FFFE433FEEF2401FFE4F4
:102C2B003EFE91D124B951C4D312524350057401C5
:102C3B001219BE91D124B2F9E43A8B60F561896225
:102C4B0091D124E151C4F563B1FA5407900493F088
:102C5B0075560891D124B2F9E43AFA1261E691D192
:102C6B0024E151C4FFAD581262117B01E4FDFF1248
:102C7B006188E4F5FFE5D25480440CF5D291CC2465
:102C8B00B951C42418FBE433FA7D031254A4B1FAEE
:102C9B00FFAEF0A22F922E900AA4E0900AC9F01278
:102CAB00524C4006A21C92EDC32291CC24F212434B
:102CBB00BCA21C92EDD2EBD322A21C92EDD2EBC3A1
:102CCB0022900AA4E0FF900AA1121F5FE922904410
:102CDB001612452A126164B1F24AC36001D3400255
:102CEB00A1F0F1E65014E0FF9404500280027F043F
:102CFB00B1F2124518318C126535903EB9B1FD54C5
:102D0B0067903ECCB1F124E851C4903EC7B1F12499
:102D1B00F351C4903ECDB1F124F451C4903ECEB1E9
:102D2B00F124F551C4903ECFB1F124F151C4903E42
:102D3B00C5B1F124F251C4903EC6B1F124F6D103D2
:102D4B00124B2BF0903EB9121F5FF117E4903EBC73
:102D5B00F0904416E0600D31887B017A3E79C07F9C
:102D6B0005120A5B904416E07F0160027F009044DD
:102D7B0016EFB1F1240351C430E335B1F224E9D19C
:102D8B000345F06021904416E0FFB1F21264A3C03A
:102D9B0003C002C001B1F224E9D103D1EAD001D0C2
:102DAB0002D0031220E4B1F21263C7121BC08027BA
:102DBB00B1F224E5D10345F0601D90441612617CFD
:102DCB00C003C002C001B1F224E5D103D1EAD001A6
:102DDB00D002D0031220E490432AE0B40402E4F0C2
:102DEB001226E9F1D822F0903EB9121F5FE922902A
:102DFB000AA1121F5FE92404F9E43AFA021B10F14D
:102E0B00D8E924EE51C46016E4903ED0B1F1240110
:102E1B00F1F1121A137E617F55FD7C008073B1F2C4
:102E2B00240151C4D394014038120885903ED0EF51
:102E3B00F0E00451B6540F64087019B1F224BC5180
:102E4B00C420E010B1F224BD51C4126562B5040474
:102E5B007D078009B1F224B151C41265967C0080C4
:102E6B0030E4903ED051B6540F64087019B1F2247F
:102E7B00BC51C420E010B1F224BD51C4126562B53F
:102E8B0004047D078009B1F224B151C41265967C0C
:102E9B0000020876B1F24AC36001D35041D200B1AF
:102EAB00F22401126470121954FFD394014007EFFE
:102EBB00940350028009B1F2240151C4B40109906A
:102ECB003EB9121F5F0237F3903EB9B1FD546060FB
:102EDB0005E490432AF0E4903EBCF01208A322FDD7
:102EEB00ACF0F58285F08322904478121F7F9044DA
:102EFB007851BE540FFFBF0810904478121F5FE942
:102F0B0024BD51C4C4540FFF227F0022E4121A13B4
:102F1B00123494EF6401704912565E126185803948
:102F2B00900AD3121F5FE94A6037900AD3121F5FD2
:102F3B0090407E12565B1226F0900AD3123F4BD173
:102F4B000345F0600E900AD3123F4BD103AAF0F960
:102F5B001220E0900AD312276F900AD3121F7F80A2
:102F6B00BF22904061121F7F904061121F5FE924C6
:102F7B000551C4904069F0904061123EF751C490E6
:102F8B00406AF0904061F1D290406BF0E924065119
:102F9B00C490406CF090406112640651C4049040A0
:102FAB006DF09040671263D19402EE94004017AD20
:102FBB00077B017A407969904316121F7F9040641A
:102FCB00121F5F120CCC22121F5F021954903EB9D4
:102FDB00021F7FF9EA3402FA021954D1F3903EBF73
:102FEB00EFF0E4C39F22F9E43AFA74012290126ADB
:102FFB00E0FD7F01125BEF9012611228A890124B3B
:10300B00E030E5047F1F80027F721238177F014387
:10301B00FB1075FF0243E640EF600D75FF02E5E123
:10302B0020E7FB43FB0D800343FB0E80FE75FF0285
:10303B0075E404E4F5E4C21D75FF02901215E0601F
:10304B003CE5E6540364017034120975124B7B4066
:10305B0020901260E0600DE014F07008120508E497
:10306B00901215F0901215E07002211A122FF82110
:10307B001A120508D21DE4901215F0211A12050838
:10308B00125C1C900736EFF0901200E0B47A1490AB
:10309B001214E0B49C0D900736E0FF64056004EF5A
:1030AB00B40330E490073BF090073BE0FFC3948000
:1030BB005013E42FF582E43412F583E4F090073BD0
:1030CB00E004F080E3901200747AF0901214749C78
:1030DB00F0D216120AA64003120AA17B017A1279CA
:1030EB00107D017F01120A9C7B017A1279117D01FF
:1030FB007F21120A9C7B017A1279127D017F2212A9
:10310B000A9C7B017A12794A7D017F02120A9C90FC
:10311B00124AE0B401057F011260FB12097A125CBE
:10312B001C120970900736EFF01208E41209669032
:10313B000736E0FFB40602800C301D047F028005C9
:10314B00900736E0FF120C90EF24FFB3923D75FF12
:10315B000253E6BF1226CD6005E4901215F012471C
:10316B00FC1209841225E130160B7B017A12794C83
:10317B007D101253FF1247A6901215E0700F203DE1
:10318B000C1225CC7B017A3379CF12090C90124BA0
:10319B00E030E0028003301D047F01B149D2AF3033
:1031AB001D031208E9303D6E120ABA123864120C74
:1031BB008B120A9740F2900735E0602B9194EF70D9
:1031CB0007124B1B9400401FE55670FCE55720E59A
:1031DB0002D1F3F18AB40204E4FF8009900735E0D1
:1031EB00B403047F01111A7109E55730E1BA91A6B6
:1031FB004002E4F0E55720E50451EB91BB12634B21
:10320B00AF82AE83EFC0E051F9900738E0FDD0E01C
:10321B00FF1208D08092123FF412381D5002F11B9E
:10322B00900735E0604790334CE070419194EF701C
:10323B0007124B1B94004035E55670FCE55720E513
:10324B000990124BE020E002D1F3F18AB40203E4BF
:10325B008018900735E0B403047F01800E9007358A
:10326B00E0B405099012157401F0FF111A120ABA95
:10327B001238641256EA904325E07003120C862034
:10328B00170471098022124AE390072EE0FEEFC368
:10329B009E4005EF9EFF800890072EE0F4042FFF61
:1032AB007401D39F5002C217E55730E12691A64017
:1032BB0002E4F0E55720E50451EB91BB12634BAFF1
:1032CB0082AE83EFC0E051F9900738E0FDD0E0FF0C
:1032DB001208D0120A74F19C12569B1247EA412134
:1032EB00900737E0FD75F0AA90073F121F53ED755D
:1032FB00F002A42430F9740735F0FA7B0122E49034
:10330B000ACE12451F75F0F8E5719185E054F06413
:10331B004070028139E4900ACDF0900ACDE0FEC3F3
:10332B009404503A75F0F8EE9185E0FEB40106F185
:10333B00D5E4FF8029EEB4020B900ACFE0B4FF0472
:10334B00F1D58012900ACDE075F0F89185E054F03C
:10335B00FEBE80027F01900ACDE004F080BCEF60DE
:10336B0006900ACF74FFF0900ACFE0F47002813917
:10337B00124B5B50028139E55730E1028139900ADB
:10338B00CD7405F0900ACFE090000AF1BDE030E477
:10339B000890000CF1CC549FF0900ACFE09000BE47
:1033AB00F1BDE0540FFEBE05089000C3F1CC30E137
:1033BB0025900ACFE0FF75F0F8900009121F53E03B
:1033CB0020E53375F0F8EF9000C2121F53E0B4FF05
:1033DB0025EE64036020900ACFE075F0F890000BA7
:1033EB00121F53C083C082E04401FFA3E0D082D000
:1033FB0083CFF0A3EFF0900ACFE0124502122ACB55
:10340B005020900ACFE0F57175F0F89185E04440BB
:10341B00F0900ACE7401F09003F9F0E4900ACDF02D
:10342B008006900ACDE014F0900ACDE070C8E55705
:10343B0030E23C7F04918B75F0F8E5719185E0FFEC
:10344B0054F06440702075F0F8E5719185EF540FDE
:10345B00F075F0F8E5719185E04480F0E571124567
:10346B000212086C8009E55730E0047F01B14990E6
:10347B000ACEE024FF2275F0F8EF900007021F53ED
:10348B00C2AFEFF45257D2AF22E4FF9181E0600359
:10349B007F00220FEFB404F37F01227F02918B9008
:1034AB000737E090073BF090073704F0C3940222F4
:1034BB00AF82AE837D01900A6B124527E556707D76
:1034CB00124B6B5004C23BD1B1900A6BE0FEA3E0F0
:1034DB008E51F552A3121F5F900495121F7FAE51B0
:1034EB00AF527DAA1261BCE4F5FF75D901F550E529
:1034FB00575421602CE55730E505E4FF124EBFE42D
:10350B00900A70F0900A70E004F0125D21EF6009F0
:10351B00900A70E0C3941040EB7F02120CA4535737
:10352B00DE120ED41252D95005E004FF80027F0048
:10353B001252A3D23BD1B1D2EBA21C92ED22EF607F
:10354B000C51EBAF82AE83E4FD91C18008F191D1B8
:10355B00F3E433FF227F012290432AE024FC700224
:10356B00C18B147002C184147002C16F147002C13C
:10357B009324066002C1AAE5566002C1AAC2EBD130
:10358B00AB1208DF90450EEFF0E55730E002C16C4F
:10359B00124F0C60047F01B14990450E7A45790FAB
:1035AB00124DF34005D2EB0253DD90450EE0126451
:1035BB00D2E0FF90450FE0D39F40030253F09043BE
:1035CB0029E0640F702D90450EE0FFD1ABE924B9D3
:1035DB00122AC4FD904326122FD2FB12396E90454E
:1035EB000FEFF0E0FF7005D2EBD20022EFB4020335
:1035FB00D2EB221252F4D1ABE924E2122AC4FF908F
:10360B004326122DFDFDACF0E4FB1253A6C22E9007
:10361B00450EE0900AC9F0E4FFFE12524C503FD227
:10362B00EB90432A7402F01253F77E00E4FCFD7B0F
:10363B00D07A127913F8121C27E47BE87A03F9F895
:10364B001204A8AB07AA0690450EE0FF7D031254A7
:10365B00A47E567F827D147C0012087B8003D2EB04
:10366B0022D2EB22E55720E509E55730E0047F0134
:10367B00B14990432A7403F02290432A7401F0223B
:10368B00120871D1AB0200561253C7D200D1AB90C6
:10369B003EB91226E61227DC90432AF01208A32229
:1036AB00904326021F5F90454BE5F4F0E0547FF505
:1036BB00F47F827E00F1E2F1E85005E5FC20E6F7AD
:1036CB00303B0890454BE04480F5F4F1DEF1E850D7
:1036DB0005E5FC20E6F775FF01E5D520E702C322DF
:1036EB00E5F4D330E601C322E5567022124B6B5042
:1036FB0004C23BD1B1F1C41252E8E5D120E0FB4347
:10370B0057205357FEE4F550A21C92EDD322C3224F
:10371B00E4FFB149EF6041F18312163B500990125F
:10372B0045E0C394C040F07B017A12794712163BF7
:10373B00500F1227AC5FFFA3E05FFFA3E05FF460C5
:10374B00E690124BE030E0047F01B149E490124364
:10375B00F0F183E0FD120A3830231C75FF02E5E41B
:10376B0030E10675E40675E4031249ED7B017A45F9
:10377B007946124924C223227B017A12794522F120
:10378B0063900735E02212566BEF7004710980F6D7
:10379B0022903659E0904547124583020B28EF12D1
:1037AB0045847005120B468003120B4BF19CF19C68
:1037BB0080DFFF75F0F8021F53124C0C7F08020CD0
:1037CB00A475F0F8EF121F53E022900ACDE0900A97
:1037DB00CFF0227FE87E03124D660217BD75FF0303
:1037EB00E591C330E701D322900AD6121F7F900ACE
:1037FB00D6122FD2540F121A13900AD61238101257
:10380B002FF10219BE121F5FE924F32275FF028FFD
:10381B00E322901243E070111227AC4FFFA3E04F4D
:10382B00FFA3E04F7003D38001C32290072FE06406
:10383B00AA2411FFF022AE071136EE04FEEF8EF034
:10384B0084AFF022E55730E20FE55720E50AE55744
:10385B0030E0057F0112354922E4904545F0D390C5
:10386B000001E09400900000E0940050022133909E
:10387B004545E0FF04F0EF94054002213390000032
:10388B0031FFE4F5703140E0FEA3E04E602531409E
:10389B0031FF45F0701D3134E0B401133134740243
:1038AB00F09004A7E0FF3140E4F0A3EFF080043187
:1038BB0034E4F00570E570640370CA90358FE0FF57
:1038CB006006F46003E014F0E4F570314EF1DD6056
:1038DB0049314E74FF121E94F155703E315EE0FF7C
:1038EB006008F46005315EE014F0315EE0600EE5D7
:1038FB0070F1E6121E3A314E121EC78006E570F1CA
:10390B00CFE4F09164E0FEA3E04E600C9164E0FE26
:10391B00A3E0AA06F91220E0114F0570E570C394DD
:10392B000E40A81209B601692274DE2570F582E4F7
:10393B003434F58322E57025E02489F582E43435AF
:10394B00F58322E57075F00CA424E1F582E43434A0
:10395B00F58322E57075F00CA424EBF582E4343486
:10396B00F58322900AEBEFF0A3EBF0900AEBE02447
:10397B00DE3138E0FEB402037F0022EE701E900AA7
:10398B00EBE0FF24DE31387401F09004A4E0FCA3DB
:10399B00E0FDEF3142ECF0A3EDF0802AED241BFFAC
:1039AB00E433FEE4FCFD7B0CFAF9F81204A8EF24D7
:1039BB0005FF900AEBE03142E0FCA3E0C39FEC94DF
:1039CB000050037F002290358FE0B4FF15900AEC76
:1039DB00E0540FFFBF0103E480049004B5E0903581
:1039EB008FF090358FE060037F022290358F74FF4C
:1039FB00F07F012274FFF5F0021AE4C0E0C0F0C0C2
:103A0B0083C082C0D075D008C0FF75FF01E5D530EB
:103A1B00E6047F028009E5D57F0030E7027F018F46
:103A2B005AE55A6402600241C6E5561220803A52AA
:103A3B00013A65023AB3083A70093A7B0A3A890BA4
:103A4B003AA80C00003C0B75FF0175C355155CE5DE
:103A5B005C6002810B755602810B75FF0175C3F01B
:103A6B00755609810B75FF0175C35575560A810B88
:103A7B0075FF019004A6E0F5C375560B810B75FF1E
:103A8B0001900492E0F5C3755601755C089004B67D
:103A9B0031FF45F06002810B75560C810B90432A68
:103AAB007406F0755600810BC2EB75560043570434
:103ABB001253CF4002810B912A810BE55A640160AE
:103ACB0002810B12604C4002810BE5507022911F5A
:103ADB00E0FF64556004EFB4540B75500575FF009F
:103AEB0075D901810B75500275FF0075D908810BD3
:103AFB00E550640270409158121F5FE5D9121A13FA
:103B0B00126028125392900491EFF0914CE09005C3
:103B1B001FF0E0FFD394094006EFD394AA40049121
:103B2B0031806890051FE0F558913975FF00855875
:103B3B00D9755003810BE5506405701F911FA3E0ED
:103B4B00FF901243E0FEEF6E700C90049004F09126
:103B5B0039E0FF1208DA7550008030E550640360DD
:103B6B0002810B9158D1F7F9E43AFAE5D9121A13FD
:103B7B00913175FF00E5D330E016C39004A1E094BA
:103B8B00FF9004A0E094FF5002912A1252B3807070
:103B9B00C23B1236B175FF001252EBE5D120E0FBB0
:103BAB00C2EB435702911FA3E0FF901246E0FEEFDA
:103BBB006E911EE09012459118A3A3E090124791CD
:103BCB0018A3A3A3E0FE901248E0FDEE6D4F601129
:103BDB00C39004A3E094FF9004A2E094FF500291E1
:103BEB002AC390049DE094FF90049CE094FF500244
:103BFB00912A7550001558914CE558F0900738F004
:103C0B00D0FFD0D0D082D083D0F0D0E032FEE0FD18
:103C1B00EE6D4FFF85528285518322F09043F4E481
:103C2B0075F001021AE4301D04C21DB12A22914124
:103C3B00901244EFF022E5F45418131313541FFFA2
:103C4B0022E5522407F582E43551F5832275FF01F5
:103C5B00F5EA75EAFF90049522E57075F00CA42443
:103C6B00E9F582E43434F583229041A9ECF0A3ED1D
:103C7B00F0AB07A3121E3AF1E5121EC7EB3150123F
:103C8B001EC79041AFE0FFEB3160EFF09041A9E030
:103C9B00FEA3E0FFEB9166EEF0A3EFF022904278EB
:103CAB001260E190427D74FFF090427CE090427E86
:103CBB00F090427EE0FFC3940E505EEF3150F15214
:103CCB00704F90427CE07E0170027E0290427EF14A
:103CDB00CDEEF0C00790427AE0FF7E0060097C00D9
:103CEB007D0A121A4780027F0AE4FCFD9041AB1259
:103CFB001EC790427BE09041AFF0904278E0FCA36E
:103D0B00E0FDD007917490427EE004FF90427DF07D
:103D1B002290427EE004F0809890427DE0FF22C228
:103D2B0024E4904475F0C225A3F0A3F075FF01E5E0
:103D3B00D520E702C322C23CD1A9202402A1DD5326
:103D4B00F4DF904475E0FF124EBF125DD5302505B0
:103D5B0043F440800353F4BFE4F5FF53F5F0904474
:103D6B0076E0FAA3E0FBEA42F5EBF5F6D23CD1A9FB
:103D7B007FC81217B9E4F5FFE59320E6051237E883
:103D8B0040F330255BE5F430E3047D288010E5F447
:103D9B0030E2047D288007E5F430E1027D2812171C
:103DAB00F37F281217B91237E840FB7F781217B947
:103DBB001237E8502BD1CA50F7D1F1EFC39D50F019
:103DCB00D1CA50ECE5F720E5E7C23CD1A91217F3B5
:103DDB0080DE53F4BF1263E8400643F420124FC158
:103DEB00D322900AE7EFF0C23CD1A9D224900AE784
:103DFB00E0904475F0D225A3E4F0A37434F0B1370E
:103E0B00E4900AE8F0124B735063900AE8E0705D9F
:103E1B00E5F754C060EFD18ED1A16455703BD1A1B1
:103E2B00901243E06F7030D1A164556014E0FF64D1
:103E3B0005600EEF64256009EF64456004EFB4651F
:103E4B0005900AE8800C900492E0FF900AE8E06F7E
:103E5B0070137402F080AE800C900AE8E0B4540545
:103E6B007433F080A0900AE87401F08098900AE80F
:103E7B00E0B40207C23B1236B18000B12A900AE8C7
:103E8B00E0FF22E5F720E008E5F754C070F5FF22CC
:103E9B0043F701AFF922D18E900AE8EFF022AFF48D
:103EAB00EF547FF5F4303C05EF4480F5F475FF01DA
:103EBB00E5D520E702C322E5F4D330E601C3227532
:103ECB00FF01E5E43322E4FFE5F754C060028016FE
:103EDB0075FF01E5D530E30DD1CA50F4D1F1EF6098
:103EEB00EFD1CA50EB22124FE3AFD922121F5FE979
:103EFB00240122900AC4121F7F900AC4121F5FE58F
:103F0B005DF144D1F7F9E43AFAE55EF1441247D991
:103F1B00F9E43AFAE55FF144F14BF9E43AFAE55387
:103F2B00F144126341FAE554F144121F5FE9240591
:103F3B00F9E43AFAE555021A13121A13900AC4223D
:103F4B00121F5FE9240322121E3AE4FBFAF9F8C3AD
:103F5B00021D75904119EEF0A3EFF090412074FF14
:103F6B00F090411BF1DD60549041217403F09041BE
:103F7B0021E0FFC3940E5044EF3150F15270359055
:103F8B004121F1CD7405F0C00790411B121E3A90F0
:103F9B0041AB121EC790411FE09041AFF090411909
:103FAB00E0FCA3E0FDD0079174904121E004904127
:103FBB0020F08008904121E004F080B2904120E095
:103FCB00FF22E0FF75F00CA424ECF582E43434F509
:103FDB008322121E3AEC4D4E4F22EB75F00CA424AB
:103FEB00E5F582E43434F5832230180C90334CE041
:103FFB007006FF12402AC218301D23AF689004B41C
:10400B00E0FEEFC39E400AEF9ED394024010C21D08
:10401B00229004B4E0F42FD394014002C21D22EF8E
:10402B006040D21B517CEF6401703990121AE09002
:10403B001219F0E4A3F090125DE090125CF0901274
:10404B0018E090121751C3E4FF74662FF582E43425
:10405B0012F583E0FE74622F1177EEF00FEFB404CC
:10406B00E822C21B22EF25E025E02462F582E4342E
:10407B0012F583229043F2EEF0A3EFF0201A169084
:10408B0003EDE064017011319E540FFFBF0803D3A1
:10409B008001C340037FFF2251AA240431A9519B05
:1040AB006002800751AA240931A9FFAB07517CADEF
:1040BB0007EDF4703151D3501FE004F0E4FD741997
:1040CB002D515DE060050DEDB402F3EDB402027D00
:1040DB0001ED24FF9219800E201B09B219A219E4DD
:1040EB0033FD80027D0174192D515DEBF0319E542F
:1040FB000F640870709043F2A3E0240B31A9C454F1
:10410B000FFC745C2D5152ECF09043F2E0FAA3E0FB
:10411B00FB240CFEE43AA3F0A3CEF0A9037B01E948
:10412B00240A122AC420E01DAF041CEF604B9043FD
:10413B00F451DB8E83E0FFED1171E5822C5165EFBD
:10414B00123C2680E3E4FFAE041CEE602C9043F49B
:10415B005173E0FEAB070FED1171E5822B5165EE4C
:10416B00123C2680E2745C2D5152E4F074172D51F1
:10417B00A2E4F0ED117174FEF0745C2D5152C0830A
:10418B00C082E0FF51CBFEEF4ED082D083F0D21A2B
:10419B00AF05229043F2E0FEA3E07B012405F9E496
:1041AB003EFA021954AD077FFF301A02414EAF059C
:1041BB00517CEFF4702451D35017E004F0E4FF511D
:1041CB005AE060050FEFB402F6EFB4020D7F0180E9
:1041DB0009201B04E4FF80027F01515AEDF0741794
:1041EB002F51A2E4F090446AE0FCA3E0F5828C83AB
:1041FB00E0540FFE514FEEF0514FC083C082E0FDF3
:10420B0051CBFCED4CD082D083F0EE602FE4FDACB3
:10421B00061EEC602C90446AE475F001302D0E51B3
:10422B006DE0FCAB050D1170E5822B8009516DE043
:10423B00FC1170E5822E5165ECF080D3117074FE89
:10424B00F0D21A22745C2FF582E43412F5832274B7
:10425B00192FF582E43412F58322F582E43583F5C8
:10426B008322121AE490446AE0FAA3E0F5828A836F
:10427B00227E02EF6017901216E0601174182E5117
:10428B00E2E0B50706C3EE9401FF22DEEF7FFF22CB
:10429B00FF901243E06F22F582E43412F5832290F3
:1042AB0043F2E0FEA3E07B0122517CEFF460082097
:1042BB001B05515AE451C322F0901216E014F02260
:1042CB009003EDE0C454F022901216E0C394022246
:1042DB00E0FEA3E0F58222F582E43412F58322900E
:1042EB004320121F7F90431FEFF09043237402F083
:1042FB00EF700261B3901216E0700261B39043232A
:10430B00E0FF241851E2E0FE90431FE06E60026173
:10431B00A9745B2FF582E43412F583E0FE540F9001
:10432B004324F0904320122DFD54F8FDEEC4540F9E
:10433B00FFE5F0FEED4FFFEE8FF0121BC071B612D2
:10434B00088FEF549FFF904323E02416F582E4344B
:10435B0012F583E05460FDEF4DFF71B612088A71C0
:10436B00B6E9B118C003C002C001904323E075F059
:10437B0004A4245EF9741235F0FA7B0112298C9097
:10438B004324E0FFD001D002D003120A5B904324F8
:10439B00E0904320B111E924BD71BC7F0122904311
:1043AB0023E014F0600261087F0022904320021F7B
:1043BB005FF9E43AFAEF021A13904039B12A9040B0
:1043CB0041E05437F0E0FE542090419AF090404287
:1043DB00E0FDA3E0904197CDF0A3EDF090403D12AE
:1043EB001F5F90419D121F7F904040E0FD90419BCD
:1043FB00F090403A121F5F9003F5121F7FEE44209E
:10440B00904199F0E490419CF0C202EDD39481402D
:10441B00037F00227F029197904044121F7FEA494D
:10442B004B605D904039E0FF904044121F5FE924E0
:10443B00B671BC904041E0FF30E010E490041EF0F8
:10444B00918EEF6401A31262BF8018918E90404150
:10445B00E0900A36F0904197E0FFA3E0900A37CF47
:10446B00F0A3EFF0904044121F5F900A39121F7FA8
:10447B0090403D121F5F7D027F011208947F012245
:10448B007F0022904040E0900A35F022900AEDEF39
:10449B00B11FFEFD75F0F8ED123485E0FC700C9049
:1044AB000AEEE0B4FF02EDF00F8006EC30E0027E86
:1044BB00010DEDB404DE900AEDE06401600DEFC375
:1044CB0094025007EE7004A374FFF0900AEEE0FF25
:1044DB00C39404501FEFB1027DF8E4FF120A2E9033
:1044EB000AEDE04410FFA3E0FE75F0F8123485EFFF
:1044FB00F0EE80030226E975F0F8A42407F97400A6
:10450B0035F0FA7B0122C454F0FF021F5F24BEF981
:10451B00E43AFA22F0A374FFF0E4FF22EEF0A3EFEB
:10452B00F0A3021F7F90432BB12A7A36793E1259A2
:10453B00B490432BE090363EF0904330E090364001
:10454B00F07F003032027F04903642EFF090432F21
:10455B00E0FD7B017A36793E12592F900A4F743762
:10456B00F0A374A9F090432C125969EF7005B18434
:10457B00120B4B22EEF0A3EFF07B017A3679592226
:10458B00903A76121F7F903A79EDF0A3123EF71214
:10459B002AC4903A81F0903A76121F5F903A7D12BE
:1045AB001F7F903A7A122FD27F0030E1027F02EF09
:1045BB004421903A80F0903A7D123EF7122AC412B1
:1045CB00208046670246390445E60646964046A2D9
:1045DB008046BB8146BBC10000471BF1E0122AC4D9
:1045EB0064046002E11BB1847D02120B32EF700296
:1045FB00E11B903A79E0FF7412D39F4002E11B90CC
:10460B003A7DF1D9F9E43AFA120ACE120AF1500BBB
:10461B00B184E47F01FEFDFC120B7DB184903A80E6
:10462B00F122120B5FB184F11F120B55E11B12002B
:10463B0066903A79E0C39403401EB184E47F01FE97
:10464B00FDFC120B73B184903A80F122120B5FB117
:10465B0084F11F120B50E11BF191E11BF1E0122AC7
:10466B00C464046002E11BB184903A80F122120B06
:10467B005FB184F11F120B691226E9904388121F58
:10468B007F0B7A367959120B41E11BF186903A80F8
:10469B00E0FB120AFB8079903A79E0C3940A4070F0
:1046AB00F186903A7DF1D9F9E43AFA120AEC80607E
:1046BB00F186903A79E0903C10F07B017A3A79825E
:1046CB00A3121F7F903A7D121F5F120B00903AC20C
:1046DB00EFF06026903A7A126341FA7404121A13BF
:1046EB00903AC2E0FD903A7A121F5F904072121F0F
:1046FB007F7B017A3A798212093E903A7D123EF71E
:10470B00122AC4B4C10DF186903A80E0FB020AFB79
:10471B0012379C22903A81E0FFE4FCFDFE22904090
:10472B0054121EC7B184120B6E904060B182120BF3
:10473B005AA804A905AA06AB07904060F122121DE6
:10474B00441258657405F0EF30E00354FEFF9036C9
:10475B00A5EFF0904054121E3AC0077B017A3679D0
:10476B00A390432F7403F090405812586D90405C07
:10477B00123FDD24FF9232D007A130903A81E0FF47
:10478B00901243E0FD22B1847D09120B32EF700AC7
:10479B00B184120B1EB184120B2322B184120B1E97
:1047AB00B184120B23120AF1B184E450047F01800F
:1047BB0001FFFEFDFC120B7D1259E0B184E4FD12EA
:1047CB000B64120CA9AB077D017F02020BD7121FE2
:1047DB005FE9240222903A7A121F5FE924042290A7
:1047EB0007391211646009CAEECAC9EFC91220E079
:1047FB002275FF02D2ADD2BD75FF02758E71756F3A
:10480B000975FF02E58E546F4480F58E9043EE12CE
:10481B001ED30000000022C0E0C0F0C083C082C0E5
:10482B00D075D008C0FF75FF02E58E30E43A75FFF6
:10483B0002E58E54EF4410F58E9043EE121E3A12A1
:10484B00162D9043EE121EC7900000123C2AE56F06
:10485B0030E0020519E56F700D756F090568E568A5
:10486B00700205678002156F75FF02E58530E4085D
:10487B0075FF024385100572D0FFD0D0D082D08354
:10488B00D0F0D0E032E490427CF0023CA89042821F
:10489B00ECF0A3EDF090427F121F7F312490428207
:1048AB005169119090427F311D90427F122FD2B4EB
:1048BB00FF04E4121A1390427F122FD2FF22AF0192
:1048CB00E4FD904511EDF0904510EFF01226B9AED6
:1048DB0007904511E0FF6E6035904510E0FD313DCE
:1048EB00904546E0701ED2237A4579467C4B7DF885
:1048FB00741E318F74FFF01198904546E0700C12C6
:10490B0037638007904546E0FF518D7F02227F0180
:10491B0022FF121F5FEF021A13904466121F7F9043
:10492B004466122FD2FF3159904466121F5FE40286
:10493B001A1375FF01E5C420E7FBAE058EC58FC6C4
:10494B00319FE5C420E7FB90454A7401F022AB0789
:10495B00E4FF1BEBC3940E501D123FE5121ED30058
:10496B00000000EB123950121ED300000000EB12B6
:10497B003FCFE4F07F01227BFF7D0190427C7403EB
:10498B00F0023CA87B01904284F0A322AE077F8A01
:10499B00AD0601CDE5C454204484F5C42275FF0156
:1049AB00E5C420E7FB75FF037596FF7584187FFF41
:1049BB001226B9EF64AA602875FF03E58430E51E63
:1049CB0075FF0175C6FF75C5FF319FE5C420E7FB79
:1049DB00AFC515C5EF70F25160E5C420E7FBC322EC
:1049EB00D32275FF01E5C420E7FB75C5FFE5C45471
:1049FB00204481F5C4E5C420E7FBAFC61227B4E51C
:104A0B00C420E7FBEF65C6603F75FF0175C5FF75F9
:104A1B00C6FF319FE5C420E7FB75FF034384047594
:104A2B00FF01516075FF01E5C420E7FB75FF0353E0
:104A3B0084FB75FF0175C6AAE5C454204487F5C4F1
:104A4B00E5C420E7FBE4F5C5AFC515C5EF709E9037
:104A5B00454A04F022E5C45420448EF5C422E0FEFE
:104A6B00A3E0FFA3E0FDA3E0FB2275FF02E5E4302A
:104A7B00E10675E40675E40331A8C223E4904546CC
:104A8B00F022AB07E4FA1BEBC3940E5010123FE578
:104A9B00123FDD6008EB123950121EC70AAF02221B
:104AAB00E4FEEFC3940E5013EF123FCFE05D7C009A
:104ABB00B505027C01EC2EFE0F80E7AF06227D02CE
:104ACB00E4FF80DC7D017F0351ABAB0751C9EF2BBA
:104ADB00FF22E4FD7F0380C8A2AD922CC2ADAF686C
:104AEB00AE67A22C92AD22AD07AC0651E3C3EF9D8E
:104AFB00EE9C4008EF9DFFEE9CFE8013EDF4FDEC69
:104B0B00F4FCED2401FDE43CFCED2FFFEC3EFE221A
:104B1B0090073DE0FEA3E0FF51F2D3EF94C8EE22E5
:104B2B00FFAEF051F2903EBDEEF0A3EF22901216C5
:104B3B00E0B40207301B047F0180027F00227F025A
:104B4B00E4901216F074182F1242E2E4F0DFF62212
:104B5B007173500471F14003301D03D38001C322E4
:104B6B00C2EBA2ED921CC2EDE5F4C330E701D322F8
:104B7B001255587F02120CA4E4900AE9F0A3F090AE
:104B8B000AEAE0FFC39403503A123DED900AE9EFB5
:104B9B00F0BF02028015900AE9E0B43319E4F0A3E8
:104BAB00E0FF123DEDBF0213900AE97401F0A3E0A0
:104BBB00901244F0800DE4900AE9F0900AEAE004C8
:104BCB00F080BC900AE9E0700E71735005C23B1285
:104BDB0036B11237C48008901244E0FF1208DA9005
:104BEB000AE9E024FF22E5F754E024FF22715B4041
:104BFB00079104400312376322AF56EFC36001D312
:104C0B0022E5FA30E1FB75FC8075FF0153D5EFE42B
:104C1B00F5FC75FC401217F3E5FC20E6FB229042F5
:104C2B008D1260E49042937401F0C23A1237DE1297
:104C3B0037E85005E5FC20E6F6B13ABF0108E4F58C
:104C4B00FC75FC408007B13ABF0202D322F1C19040
:104C5B00428EE0FF125FFE75FF0153D5DF53FAFB67
:104C6B0090428DE0FFD1BF90428EE090428DB40810
:104C7B000DE0F11A1264292452121630800312141B
:104C8B00AC125CE590428FE0FFF1BB75FF0175FF45
:104C9B0003759B041237DE75FC42E5FC20E105121F
:104CAB0037E840F3904290E0F075FF03E59B20E777
:104CBB00051237E840F3E59B20E70C75FF03759B66
:104CCB001F910CD23A804DB133D1DA90428EE0FD78
:104CDB0090120FE05D701D90428DE0FFB1331250CA
:104CEB00B690120FE0FF90428EE0FEEF4E90120F47
:104CFB00F01215EBD19C7B017A427991B194500F54
:104D0B00C3904292E09420904291E0940340E7B12B
:104D1B0033125DE9121780303A02812F904293E0F3
:104D2B00B40103D38001C3227B017A427993227FA2
:104D3B00FA1217B9E5FC30E6051237E840F6E5FC48
:104D4B0030E6037F032275FF01E5D530E6037F02D2
:104D5B0022E5D57F0030E7027F01229043FEEEF182
:104D6B00DC7A447900B1945014904400E0FEA3E047
:104D7B00FF9043FFE09F9043FEE09E400B9043FE6D
:104D8B00E0FEA3E0FF12178922B1A9AD94EF4DF11C
:104D9B00128FF0121BC0E591C330E701D32275FFD0
:104DAB0003AF93EF75F010A4FF22CDEFCDCCEECC7B
:104DBB00B1A9AB94EF4BF112CBEFCBFAE59130E706
:104DCB0018B1ACA994E9F582EF4582FFEBF1C8C3AA
:104DDB00EF9582E5F0958340E3E59120E709CEEC72
:104DEB00CECFEDCF12177C22E0FF7B0190440EEF6C
:104DFB00F0A3D17075FF01F10C6002C322E5F43012
:104E0B00E602C3227FE87E031217891217BDD185F4
:104E1B00400122C23B1236B190440EE0FFD1BF538A
:104E2B00F4DFD23B1236B17F787E00B1B575FF014E
:104E3B0053E4BFE5E430E7FBF1E37F8AD1B730E61B
:104E4B0005D179E4800775FF01D179E5D9121A13E1
:104E5B0075FF0143E4401263E8400343F420D1851E
:104E6B00400122D322EBF0A3EAF0A3E9F022904415
:104E7B000FE0FBA3E0FAA3E0F922E5F730E510E53C
:104E8B00F754C070051237E840F01217F3C322D362
:104E9B0022E4F5FF75C2E17F1ED1B730E707E4F5D9
:104EAB00FF75C2A122E4F5FF75C28122FEB1B59058
:104EBB00120FE02275FF01E5D530E602C322E4F5BF
:104ECB00FF439A80EFF1D1E4F5FF539A7FD3229001
:104EDB004472D1707F017C127D01E4FE8D828C8344
:104EEB00ED2EF582E43CF583E02FFF0EEEB412ECD1
:104EFB00901213E06F6009904472D17CE4121A1384
:104F0B0022B13AEF64012224FBFFE5F034FF2225A6
:104F1B00E025E02401F582E43412F583229043A2CC
:104F2B00EFF0E4A31216117801121D869043A2E054
:104F3B00FBF11A121EC7901210E064806071E0C37F
:104F4B00947F5038EBF11AC083C0821214BAEEC0B2
:104F5B00E0EFC0E0901210E075F004A4AEF0FBCAD5
:104F6B00EECAEA3395E0F9F8D0E0FFD0E0FEC3EFEC
:104F7B009BFFEE9AFEED99FDEC98802B9043A2E0FF
:104F8B00F11AC083C082126366901210E0F40475AC
:104F9B00F004A4FFAEF0EE3395E0FDFCEB2FFFEA3F
:104FAB003EFEE93DFDE83CFCD082D083121EC722B9
:104FBB0075FF018FDA2275FF0153D8EF222DF58291
:104FCB00EA3CF58322E033333354F8F5F422AF0592
:104FDB00ECF0A3EFF07B012275FF01E4F5EA75EA33
:104FEB00FF22EFC3940E5005900494EFF022E55985
:104FFB00540FFF22E559C394F050205359F012502F
:10500B0029FE740FC39F4005EE940E400543590DC6
:10501B008003EF4259E559540FFF227F0022E559D7
:10502B00C4540FFEEF9007A5932E221129FFC394B2
:10503B000E40027F0DEF90078793FF22EF30E307BF
:10504B0074532DF8E6FF22745D2DF8E6FD201E0447
:10505B00EE30E00BE559C394F0502011898018E530
:10506B005B6006FDE4F55B8012E559C394F0500BD1
:10507B00E559540FFF60041136AD07AF05229004BC
:10508B0094E0FDFFC3740E11AFEFC4F8540FC86862
:10509B00FFEEC454F048FEE55954F051427F0050E6
:1050AB0002AF05229FFFE49400FE2290440AEDF02C
:1050BB00901211E0F46005A3E0B4FF0C90440C7463
:1050CB0018F0A37413F08010901211E090440CF0C0
:1050DB00901212E090440DF01219546401600241D9
:1050EB001A90440AE0FE64086004EEB4040890448D
:1050FB000B7428F0800690440B743AF0EF1214AD49
:10510B00121D51E4511BEF24D8FFEE343FFEED345A
:10511B0093FDEC3416FC7B007A8079037800120443
:10512B00A8519690440DE0FF90440CE0C311AFE4FE
:10513B00FCFD121C27ECC0E0EDC0E0EEC0E0EFC0C0
:10514B00E090440D124722511BD0E0FBD0E0FAD087
:10515B00E0F9D0E0F8EB2FFBEA3EFAE93DF9E83C49
:10516B00F890440B124722121C27EF2454FFEE3405
:10517B000B121633E47BA87A16F9F81204A8CBEFBE
:10518B00CB90440AE014605F14601B24FE600C2477
:10519B00FC707CE4F5FF75CE318006E4F5FF75CE2F
:1051AB0021F5FF8BCF22E4FAE4F5FFEA2440F5CE9C
:1051BB00E4F5FFEAFFC3740711AF74342FF5827463
:1051CB000D3EF583E4512313C39DF5CFE4F5FFEAC0
:1051DB002448F5CEE4F5FFEA900D345123132DF559
:1051EB00CF0AEAB408C222E4F5FF75CE01F5FF8BB6
:1051FB00CFF5FF75CE0EF5FFEB25E0F5CFE4F5FF10
:10520B0075CE0FF5FFCFEBCFEB75F003A4F5CF22E7
:10521B007B64FAF9F8021C279325E0FDE433FCEBE1
:10522B0075F010A4FFAEF0121A59CDEFCDEBFFE4E1
:10523B00C313EF2233FEE0C39FEE6480F8748098B3
:10524B00224357015357DF900AC9E0FD1147900ADB
:10525B00C9E0FD71044004E4F5562243FA045357A8
:10526B00FB302E0451A9800A7F55517F7F55517F0A
:10527B00D2EBD32275FF01E5D520E602C322E5FA76
:10528B00540360FA75FF018FC3D322C8ECC8C9ED74
:10529B00C9CAEECACBEFCB22124EBF43FA04E4F5D8
:1052AB00FF53D1FD43D1012251E3E5D120E0FBE4D3
:1052BB00F5FF75D901120ED451D95005E004FF80CA
:1052CB00027F0051A3D23B1236B1E4F55022C3EF5B
:1052DB009403EE6480948022C23B1236B1E4F5FF56
:1052EB00E5D154FE4402F5D122E55720E50751E301
:1052FB00E5D120E0FBE4F55022900AE5EDF0A3EFB9
:10530B00F07F01120CA4900AE5E0FFA3E0FBE49010
:10531B004290F07D02124C2950ECD32290073CE0D6
:10532B006402701F8F5DAF058F5EAF038F5F900AB6
:10533B0068E0F553A3E0F554A3E0F555AF5D120912
:10534B007FD322C322E55954F0C4540F2FFFC394CB
:10535B001040027F0FEF90079593FF227E10EE60B7
:10536B00091EEE90079593B507F4EEC3940E400219
:10537B007E0DEE90078793FF22E4F5560236F3C2BB
:10538B00AFEF4257D2AF22EF24FE600C24FE600534
:10539B0080007F01227F02227F0322755601755CFC
:1053AB00079004A6EFF09004937403F0C374799BF9
:1053BB009004B7F0E494009004B6F02271CF500340
:1053CB00123C2A22C3900499E094FF900498E09435
:1053DB00FF22C390049BE094FF90049AE094FF504B
:1053EB0003123C2A22D2EB71DDD200229004B6E0EC
:1053FB00A3E0FF22900AA6121F7F900AA9EDF0E40A
:10540B00A3F0ED54FE900AA9F06030E4FF12354989
:10541B00BF0128900AA6121F5F12163B501D900A5F
:10542B00A7E475F002121AE4900AAAE02402F090A5
:10543B000AAAE0FF900AA9E06F70D87F01123549E4
:10544B00900AAAE0FF2290439D121F7F9043A0ED8C
:10545B00F0C394104004A37410F09043A1E0FF7BC1
:10546B00017A12794C12298C90439D121F5F120AFC
:10547B005B90439D121F5F9043A1E0FF919290437D
:10548B00A0E0C39FFD61FF7C0029F9EC3AFA227D75
:10549B000271FFEFC36001D322900ACAEFF0ED2433
:1054AB00FE60191460262402703BEB2402FFE43AE1
:1054BB00FE7C007D50121A477D60801EB118C333ED
:1054CB00CE33CED8F9FF7C007D28800EB118C333C4
:1054DB00CE33CED8F9FF7C007D64121A59900ACBDB
:1054EB00EEF0A3EFF0900ACAE0B123C083C08212A2
:1054FB001E56900ACCE02401FF900ACBE03400FE4C
:10550B00E4FCFD121C0CD082D083021EC7EB2401DD
:10551B00FFE43AFEEF78032225E025E024A8F5828C
:10552B00E43404F58322EFB123121E3A021DFCE48E
:10553B009004A8B151E49004ACB151E4FFFEFDFC22
:10554B009004B0021EC7FFFEFDFC021EC790124561
:10555B00E0F4FFA3E06FFFA3E06FFFA3E06FFF6436
:10556B0055601DEF64056018EF64256013EF64450B
:10557B00600EEF64656009EF644A6004EFB40A01E2
:10558B000F900492EFF022A2EB9230C2EB7A0479E7
:10559B00987B017D0CE4FF120A2EA23092EB22A223
:1055AB00EB9231C2EBEBC0E0EAC0E0E9C0E07B017B
:1055BB007A04799812298CD0E0F9D0E0FAD0E0FB8C
:1055CB007F0C120A5BA23192EB22900AD0121F7F42
:1055DB00AF05D164FAEC8FF0121BC0900AD0121FEA
:1055EB005F90412ED15B90412B121F7FC003C002F5
:1055FB00C00190412E121F5F90407E121F7FD00181
:10560B00D002D0031226F01226E9C003C002C0015B
:10561B0090412E121F5F121FA890412B121F5F1279
:10562B00277B904131121F7FE94A90412E700E1259
:10563B001F5FC003C002C00190412B800C121F5F83
:10564B00C003C002C001904131121F5F121FA8227C
:10565B00121F7F9003E7021F5FE92403F9E43A224C
:10566B00E4FF123481E054F0FEBE40037F00220FB2
:10567B00EFB404EE7F0122120871904329E014F07D
:10568B006005A37405800590432A7407F002356307
:10569B0090432AE0FF64066004EFB4010312356304
:1056AB00900490E0600FE4F0904325E07007D1C1C7
:1056BB0060031208E92290124BE0543022E490432D
:1056CB0025F0022992C003C002C0017B017A417907
:1056DB002512298CD001D002D0037F03020A5B1262
:1056EB004F0C7075123C41904512EFF0D394035060
:1056FB006890412AE0FF904512E06F705C123ED13A
:10570B00904513EFF07B017A4579137D011208CB9D
:10571B00904512E02425F582E43441F583EFF090B7
:10572B00412A120ED77C007D03121A59AF05EFF0F8
:10573B007027904128E07002A3E0601D7B017A4145
:10574B007922D1D07B017A417922904128E0FEA3C6
:10575B00E0FFF5828E831220E422904128EEF0A325
:10576B00EFF0227FFF12099D0247A690446C121F97
:10577B007F90446C121F5F904382121F7F124584EF
:10578B00120B2D02379C900026121DCC90000C1290
:10579B001E16E92441F9E43AFAE49041B7F07F1080
:1057AB007E27FDFC9041B0121F7F7457F1C87476B1
:1057BB00F09041B0F1D27A36794B0209C0AD07AC0B
:1057CB00069040CEF0A322121F5F9040D0121F7F95
:1057DB007B0122745BF1C87459F0903C6FF1D27A63
:1057EB003C795F0209C0E92442F9E43AFA90446F2C
:1057FB00121F7F7B017A36794B0209C59040471205
:10580B001EC7E490404FF0A3F011657403F0E4A3BE
:10581B00F07B017A407950904109121F7F7A400941
:10582B007F04120CC7904050E0FF1229887B017A4D
:10583B003679A6120A5B904047121E3AC0077B01CD
:10584B007A3679A3904050E0240390432FF0904098
:10585B004B116DD232D0070245309036A37498F0BD
:10586B00A322121E3A904330EFF022124584020B12
:10587B007890451412457F7D08120B32BF010E90B4
:10588B0045141199124580120B3712379C22E0FFF9
:10589B00A3E09033C4CF2290451612457F7D0912A9
:1058AB000B32BF010E9045161199124580120B3C1D
:1058BB0012379C227F8012099D020AC9EF12458480
:1058CB007005120B468003120B4B12379C02379C50
:1058DB009041B8121EC77B017A36794431B690419C
:1058EB00B8121E3A903644EFF09041BC121E3A901B
:1058FB003646EFF09036487404F07B017A367944E3
:10590B00312F900A4F7458F0A374C7F07A36795739
:10591B007D021208BCEF7006124584120B4B22A3BA
:10592B00E0FD7B01900A4C021F7F9041E8121F7F24
:10593B007A3C794631B49041E8122FD2903C47F033
:10594B00903C4674FFF0E92404122AC4903C48F0C2
:10595B009041EE7A3C7946312A31BD9041EB121FD2
:10596B005F0208BC9041E0121F7F7B017A3C7940BB
:10597B0031B69041E0122FD2903C41F0E924011254
:10598B002AC4903C40F09041E01247E3122AC490A5
:10599B003C42F0903C457401F09041E67A3C7940F2
:1059AB00312A31BD9041E380B57B017D06E4FF02D6
:1059BB000A2E900A4F745AF0A374BBF0229041C088
:1059CB00021EC79041C8021EC79041D0021EC7904D
:1059DB0041D8021EC7120B9B901245121E3A120B96
:1059EB00A0903C6F121F7F51067E0B7F0F120BBED8
:1059FB001209ACEF5407C36001D32290121BE0B421
:105A0B0001231228F224E0F9E43AFAC003C002C0E1
:105A1B00017B017A12791C12298CD001D002D003A0
:105A2B007F27120A5B22903F2A121F7F903F2F1273
:105A3B003EF7122AC4903F34F0903F2F122FD29092
:105A4B003F35F0E92403122AC4903F36F0903F2FE4
:105A5B001247D9122AC4903F38F0903C6BE0FFA359
:105A6B00E0903F3CCFF0A3EFF0903F3251AE903F30
:105A7B002F1247E3122AC414903F3BF0903F2A1297
:105A8B001F5F903FD2121F7F903FD5124FD97A3FA5
:105A9B007934120B96EF60037F0122903F3C51AE9D
:105AAB007F0022E0FFA3E0903C6BCFF0A3EFF0224E
:105ABB00904549EFF0784C7C3C7D017E007F1312C2
:105ACB00192E904549E0FF7DF47C01020B91903F2C
