:020000040000FA
:1000000002180002180308C608CB2202180B0A8D3A
:020010000A974D
:070013000218130608455B0B
:0F001B0002181B2CAC7F0122021823E4FFE1E83E
:06002B0002182B0221BBAC
:0E003300021833A23B92252202183B022DF543
:06004300021843023439EB
:06004B0002184B0237F918
:060053000218530245B43F
:07005B0002185B75ED0422A1
:0700630002186375ED022293
:06006B0002186BAFEF224A
:1000730002187341073500C12541073400E002022D
:100083000000381FE0020200022FCFE00402000448
:1000930046524545E00102001554E001020016A551
:1000A300E0E8022568FEFEFEFEFEFEFEFEFEFEFE0C
:1000B300FEFEFEFEFEFEFEFEFEFEFEFEFEFEFEFE5D
:1000C300FEFEFEFEFEFEFEFEFEFEFEFEFEFEFEFE4D
:1000D300FEFEFEFEFEFEFEFEFEFEFEFEFEFEFEFE3D
:1000E300FEFEFEFEFEFEFEFEFEFEFEFEFEFEFEFE2D
:1000F300FEFEFEFEFEFEFEFEFEFEFEFEFEFEFEFE1D
:10010300FEFEFEFEFEFEFEFEFEFEFEFEFEFEFEFE0C
:10011300FEFEFEFEFEFEFEFEFEFEFEFEFEFEFEFEFC
:10012300FEFEFEFEFEFEFEFEFEFEFEFEFEFEFEFEEC
:10013300FEFEFEFEFEFEFEFEFEFEFEFEFEFEFEFEDC
:10014300FEFEFEFEFEFEFEFEFEFEFEFEFEFEFEFECC
:10015300FEFEFEFEFEFEFEFEFEFEFEFEFEFEFEFEBC
:10016300FEFEFEFEFEFEFEFEFEFEFEFEFEFEFEFEAC
:10017300FEFEFEFEFEFEFEFEFEFEFEFEFEFEFEFE9C
:10018300FEFEFEFEFEFEFEFEFEFEFEFEFEE00102A3
:100193002650FFE00102268B28E001022F9EFFE09C
:1001A30005022FCC2FCF02043D4104120601360075
:1001B3004104110141040F01C12C013B000139002D
:1001C300412B7C00412852004127F3055D2A86001C
:1001D300000000000000000000000000000000001C
:1001E300000000000000000000000000C1324326B0
:1001F300EB0000004126FC00C111412EDB00C1557C
:10020300432AF4000000412AF300412AF700412C5D
:100213007EFFC128C12AC135412B1B00014E00C1FD
:100223001EC11C412B0D00412B1A006028264905D5
:1002330022000000030008FE877F88CF7FC04FFBAA
:10024300DFFD8067000080008096000000E87F00EB
:10025300000E00000000004121810041218B00417C
:1002630021850041217C0141218A0241217F0141F5
:1002730023C90041241B0041215CFFC1B84124195B
:10028300004123CA00C139C13A4128639641285F1E
:100293000FE002022FD10033E005022FFF003304E9
:1002A3000522E0020230040807E0050238060807C9
:1002B300050522E00202380B0013E00C02380D00A2
:1002C300000308000300080522043DE00502381975
:1002D3000013FF0522E00202381E0000007581882A
:1002E30075FF03759E021208200222380203FD9057
:1002F3000076E47E019360F4A3FF543F30E5095494
:100303001FFEE493A360010ECF54E0B4E00EEFFAB6
:10031300EEF9A3A3A3A3DAFDD9FB80D654C025E04D
:10032300604B5026E493A3F85407240CC8C333C48A
:10033300540F4420C8834004F456800146F6DFE49A
:1003430080B00102040810204080E493A3FAE493F0
:10035300A3F8E493A3C8C582C8CAC583CAF0A3C8D7
:10036300C582C8CAC583CADFE9DEE78085E493A3F3
:10037300F8E493A34003F68001F208DFF40202F5E8
:10038300C2D5E830E70FB2D5E4C39BFBE49AFAE4A5
:1003930099F9E498F8EC30E717B2D51203B91210C3
:1003A3000CE4C39BFBE49AFAE499F9E498F880031C
:1003B30012100C30D50DE4C39FFFE49EFEE49DFDB7
:1003C300E49CFC227888E4F6D8FD9000007F007E50
:1003D30010E4F0A3DFFCDEFA902EECA3E583C394D4
:1003E300204011FEAF829020000E0FE48002F0A3A4
:1003F300DFFCDEFA1208200202F22232EF90040838
:1004030093900800730A20364CE54FFF22EFF54F17
:100413002209020907090C09110916091B092009F8
:1004230025092A092F0934094309480952095C0996
:10043300AC09B109B609BB09C009C509CA09CF0985
:10044300DE09E309F709FC0A010A100A150A4C0A36
:10045300510A5609040000020A000000070582023F
:100463002000000705020220000009040100010228
:1004730002010005240010010524010001042402E7
:10048300000524060001070581030800201201006E
:1004930002020000085806000200000000000109E3
:1004A300020000000100803204030409A280CACFC5
:1004B3000998445CAD550641469503860AD30BE67D
:1004C3000BEB0BF00BF50BFA0BFF0C040C090C0EEA
:1004D3000C130C180C1D0C220C270C2C0C310C3695
:1004E3000C3B0C400C450C4A0000000000005A2D48
:0D04F3005761766520342E3631008FEF22E0
:1005080000000000000500000600000010000024A4
:100518002880000024208000001138210000442891
:10052800800000442080000034382100003F241E51
:1005380016110E0B09070504030201F0C8A79177ED
:100548006760463835323024222014000101020247
:1005580003030404050506060707000E1384000EAE
:1005680018FC000E225C020202003F3F3F04040414
:10057800323232000201900B730B780B7D0B820B29
:10058800870B8C0B960BA00BA50BBE0BC3822D1CE7
:1005980016131110100B0A0B370B3C0B410003010B
:1005A80002060405E4FD7C0CAB050DEB9004F19309
:1005B8008F828E83F00FBF00010EDCEC01208F824A
:1005C8008E83E4F07404B1D9743DB1D9A3A3E4F0E7
:1005D80022A3F08F828E83A322902EC0EFF0902B5F
:1005E8008DE0B40110C2ED7A2E79C0902C0EB1FEC8
:1005F800120AFBD2ED227B011211CF7A2B798E22BF
:10060800902B8DE0640170287B017A2B798E120B78
:1006180005EF701C902EC1F0C2ED7A2E79C1902B97
:10062800EFB1FE120B00D2ED902EC1E0FF120ACE00
:1006380022902B8D7401F0FBD15E7E067F08900717
:100648003DE0FCA3E04C700590073D8002C322EE1C
:10065800F0A3EFF0D3227A2B7996902C9A1211CF2F
:10066800902C9D7401F0A37405F07A2B798E020A00
:10067800F67F01D189902B8DE0B401047B01D15E16
:1006880022EF600E12247BAF82AE83E4FD12249F1A
:1006980080103025037F0022120ABA12256EE43337
:1006A800FF227F01229004D21211CF9004D5EDF0E1
:1006B800E4A3F0ED54FE9004D5F0602AE4FFD1895C
:1006C800BF01239004D21211C6123B6C501890043B
:1006D800D3D1F89004D6E02402F09004D6E0FF903D
:1006E80004D5E06F70DD7F01D1899004D6E0FF2248
:1006F800E475F002020EFE7D02D1ADEFC36001D3B6
:1007080022E53730E20EE53720E509E53730E00429
:100718007F01D18922902C3112117D902C35121134
:10072800CF12162B1214BAEF6004F10980F61215D5
:10073800F564026008902C31121614F189902C315E
:10074800121371F189902C31121120E48022902C1F
:1007580038124E72601E902C35124E556010902C37
:1007680035123086FFF189902C36F1F480E0E4FFF1
:10077800F18980DAF1E3902B737401F022121120D1
:10078800E4E5C820E2FB8FEB22902D8A12117D90C0
:100798002D8A121120121379902D8EE06F60381275
:1007A800162B1214BAEF6004F10980F61215F564DD
:1007B800026008902D8A121614F189902D8A12135E
:1007C80071F189902D8AF185902D8EE0FFF1E190ED
:1007D8002B737401F0D322C322F1891214FEE4FFB3
:1007E800EFB4010443FE202253FEDF22E475F0013A
:0607F800020EFE0208C122
:10080000C04F7408C0E0C082C083754F0AE5FF5432
:10081000CF4490F5FF22C04F7408C0E0C082C0836F
:10082000754F20E5FF54CF4490F5FF22C04F740868
:10083000C0E0C082C083754F36E5FF54CF44A0F5B9
:10084000FF22C04F7408C0E0C082C083754F4CE5E2
:10085000FF54CF44B0F5FF22909A49011690A01A98
:100860000116909EEB011690A01D011690A7F801AD
:100870001690A7FB011690A802011690A854011625
:1008800090A85701169087A3011690A866011690AC
:10089000A82D011690AFFB011690AE69011690B815
:1008A0001C011690AFD1011690BFF7011690C02120
:1008B000011690B712011690B7AD011690B2F4016F
:1008C0001690BCE5011690C160011690C7F801169C
:1008D00090C859011690B6B8011690ABBC0116909D
:1008E000C9C3011690A1C20116909FC8011690CAF3
:1008F00044011690CA47011690AAD4011690CAB2B4
:1009000001169097EC011690CF99011690A901015C
:100910001690CFA7011690CFAE011690CF610116A9
:1009200090CEF2011690CFFC011690D0980116904F
:10093000CE1D011690CC9001169085F50116908180
:1009400050011690CE3F011690C3DB0116909E30E9
:10095000011690BF42011690D29C011690BF6D0106
:100960001690D2AC011690D2E7011690B7E90116A5
:1009700090A9F4011690CC75011690CB51011690F8
:10098000A9770116909AAF011690D37D011690D0E9
:10099000AC011690C6CF011690D0A2011690C56684
:1009A000011690B8A8011690B840011690BE6501D6
:1009B0001690BDED011690BF81011690D3930116DC
:1009C00090A896011690CDBA011690D3A201169068
:1009D000D3B60116909F3101169087E701169087D4
:1009E000CF011690C422011690AB86011690D35405
:1009F000011690CD1C011690D3FB011690D408016E
:100A000016908189011690A4A4011690A6E80116FB
:100A100090A9BA011690A603011690D43B01169036
:100A2000C5C3011690D44F011690D135011690D44C
:100A300066011690A91D011690D469011690D4B1D3
:100A4000011690D4B401169097E0011690AF7A0188
:100A50001690C497011690C467011690B67A0116D5
:100A600090B228011690CC11011690CB88011690F7
:100A7000D53E011690D56F011690D583011690D5FD
:100A8000A1011690D67B011690D5F5011690D6A23D
:100A900001169097FB0116909909011690B8C001B4
:100AA0001690BA3F011690B8DE011690BAE401160E
:100AB000909FC4011690AAA4011690BADA0116906C
:100AC000AFF2011690AB79014290A0FE014290A2D4
:100AD00098014290AE59014290B290014290AAE131
:100AE000014290B2CB014290B3A4014290B3C9013C
:100AF0004290B43F014290B445014290A6E90142C0
:100B000090B493014290B523014290B543014290C5
:100B10009E7A014290A0EE014290807C014290B505
:100B20005F014290B5990142909D5801429080002A
:100B30000142909224014290B630014290B64801A1
:100B400042909432014290B6EA014290B7020142CB
:100B500090B77E014290B81D0142908134014290CD
:100B6000B8BC014290B8CF014290B902014290A0B6
:100B7000460142909ED5014290B7B8014290B00024
:100B8000014290AFD1014290B744014290961001CA
:100B90004290B79D014290A04C01429095BB01420A
:100BA00090B06D014290B3DE014290A08901429065
:100BB000AD69014290AEB4014290B1DE014290B9FC
:100BC000470142909AF90142909C64014290AF091A
:100BD000014290B9AB014290B23B014290AC4F014F
:100BE0004290BA8B01429099CE012C9099D7012C5A
:100BF000909BE1012C909D99012C909DE1012C90FE
:100C00009DA2012C909DF3012C909AFB012C909DAC
:100C1000AB012C909C61012C909CBD012C909DB44B
:100C2000012C909D2F012C909DBD012C909DC60103
:100C30002C909BEC012C909DCF012C909E3E012C82
:100C4000909E20012C909E53012C9095D4012C90C5
:100C50008236012C909F01012C909F02012C9080E4
:100C6000BB012C909693012C9094B4012C908000A1
:100C7000012C909F4E012C00E709F608DFFA804610
:100C8000E709F208DFFA803E88828C83E709F0A347
:100C9000DFFA8032E309F608DFFA8078E309F20828
:100CA000DFFA807088828C83E309F0A3DFFA806426
:100CB00089828A83E0A3F608DFFA805889828A83D2
:100CC000E0A3F208DFFA804C80D280FA80C680D49C
:100CD000806980F28033801080A680EA809A80A8A4
:100CE00080DA80E280CA803389828A83ECFAE493D6
:100CF000A3C8C582C8CCC583CCF0A3C8C582C8CC64
:100D0000C583CCDFE9DEE7800D89828A83E493A383
:100D1000F608DFF9ECFAA9F0EDFB2289828A83EC70
:100D2000FAE0A3C8C582C8CCC583CCF0A3C8C582ED
:100D3000C8CCC583CCDFEADEE880DB89828A83E425
:100D400093A3F208DFF980CC88F0EF60010E4E60CB
:100D5000C388F0ED2402B4040050B9F582EB2402FC
:100D6000B4040050AF2323458223900CC873BB0109
:100D70000689828A83E0225002E722BBFE02E32238
:100D800089828A83E49322BB010B89828A83F8E0FB
:100D9000C828F0E822500327C722BBFE07F8E3C8A3
:100DA00028F3E8228A838982E49322BB010CE5823E
:100DB00029F582E5833AF583E0225006E92582F899
:100DC000E622BBFE06E92582F8E222E58229F582C9
:100DD000E5833AF583E49322BB010989828A83F88B
:100DE000E028F022500327F722BBFE05F8E328F3A2
:100DF000228A838982F8E4932822BB010FF8E582D6
:100E000029F582E5833AF583E028F0225009C5826E
:100E100029F8E58226F622BBFE09C58229F8E225DB
:100E200082F222F8EA2583F583E9932822BB0106A2
:100E300089828A83F0225002F722BBFE01F322F856
:100E4000BB010DE58229F582E5833AF583E8F022BE
:100E50005006E92582C8F622BBFE05E92582C8F2C4
:100E600022EF8DF0A4A8F0CF8CF0A428CE8DF0A4B2
:100E70002EFE22BC000BBE0029EF8DF084FFADF0EA
:100E800022E4CCF875F008EF2FFFEE33FEEC33FCD4
:100E9000EE9DEC984005FCEE9DFE0FD5F0E9E4CE0A
:100EA000FD22EDF8F5F0EE8420D21CFEADF075F0D9
:100EB00008EF2FFFED33FD4007985006D5F0F222E2
:100EC000C398FD0FD5F0EA22C2D5EC30E709B2D5C0
:100ED000E4C39DFDE49CFCEE30E715B2D5E4C39F6E
:100EE000FFE49EFE120E73C3E49DFDE49CFC8003B0
:100EF000120E7330D507C3E49FFFE49EFE22C5F0B7
:100F0000F8A3E028F0C5F0F8E58215827002158399
:100F1000E038F022A3F8E0C5F025F0F0E582158274
:100F200070021583E0C838F0E822BB010A89828A82
:100F300083E0F5F0A3E022500687F009E71922BB11
:100F4000FE07E3F5F009E3192289828A83E493F529
:100F5000F074019322BB010A89828A83F0E5F0A331
:100F6000F0225006F709A7F01922BBFE06F3E5F0C0
:100F700009F31922EF2BFFEE3AFEED39FDEC38FCB8
:100F800022E88FF0A4CC8BF0A42CFCE98EF0A42CEA
:100F9000FC8AF0EDA42CFCEA8EF0A4CDA8F08BF036
:100FA000A42DCC3825F0FDE98FF0A42CCD35F0FC34
:100FB000EB8EF0A4FEA9F0EB8FF0A4CFC5F02ECD00
:100FC00039FEE43CFCEAA42DCE35F0FDE43CFC22E5
:100FD00075F008758200EF2FFFEE33FECD33CDCCD8
:100FE00033CCC58233C5829BED9AEC99E58298405B
:100FF0000CF582EE9BFEED9AFDEC99FC0FD5F0D638
:10100000E4CEFBE4CDFAE4CCF9A88222B800C1B961
:101010000059BA002DEC8BF084CFCECDFCE5F0CB9F
:10102000F97818EF2FFFEE33FEED33FDEC33FCEBD8
:1010300033FB10D703994004EB99FB0FD8E5E4F993
:10104000FA227818EF2FFFEE33FEED33FDEC33FC80
:10105000C933C910D7059BE99A4007EC9BFCE99A74
:10106000F90FD8E0E4C9FAE4CCFB2275F010EF2FB9
:10107000FFEE33FEED33FDCC33CCC833C810D707B9
:101080009BEC9AE899400AED9BFDEC9AFCE899F8F4
:101090000FD5F0DAE4CDFBE4CCFAE4C8F922EF5B3B
:1010A000FFEE5AFEED59FDEC58FC22C3E49FFFE42D
:1010B0009EFEE49DFDE49CFC22EB9FF5F0EA9E423F
:1010C000F0E99D42F0EC6480C864809845F022EB22
:1010D0009FF5F0EA9E42F0E99D42F0E89C45F0223F
:1010E000E8600FECC313FCED13FDEE13FEEF13FFEE
:1010F000D8F122E8600FEFC333FFEE33FEED33FD8E
:10110000EC33FCD8F122BB010789828A8302117D6E
:101110005005E9F8021335BBFE05E9F80213412238
:10112000E0FCA3E0FDA3E0FEA3E0FF22E493FC7457
:101130000193FD740293FE740393FF22E0F8A3E091
:10114000F9A3E0FAA3E0FB227401FF3395E0FEFD72
:10115000FCA3A3A3E02FFFF0E582158270021583A4
:10116000E03EFEF0E582158270021583E03DFDF061
:10117000E582158270021583E03CFCF022ECF0A3BE
:10118000EDF0A3EEF0A3EFF022A8828583F0D083E8
:10119000D0821211A01211A01211A01211A0E4739A
:1011A000E493A3C583C5F0C583C8C582C8F0A3C5B1
:1011B00083C5F0C583C8C582C822A42582F582E50F
:1011C000F03583F58322E0FBA3E0FAA3E0F922EBFC
:1011D000F0A3EAF0A3E9F022E493FB740193FA741C
:1011E0000293F922BB010789828A830211C6500546
:1011F000E9F802134DBBFE05E9F802135F89828A04
:10120000830211D8BB011A89828A83D0F0D0E0F81A
:10121000D0E0F9D0E0FAD0E0FBE8C0E0C0F0021185
:10122000CF5016E9F8D083D082D0E0F9D0E0FAD0E0
:10123000E0FBC082C083021356BBFE16E9F8D083E0
:10124000D082D0E0F9D0E0FAD0E0FBC082C08302C7
:10125000136822BB010DE58229F582E5833AF58307
:101260000211C65007E92582F802134DBBFE07E9BB
:101270002582F802135FE58229F582E5833AF5833A
:101280000211D8BB0120E58229F582E5833AF58376
:10129000D0F0D0E0F8D0E0F9D0E0FAD0E0FBE8C040
:1012A000E0C0F00211CF5018E92582F8D083D08237
:1012B000D0E0F9D0E0FAD0E0FBC082C08302135640
:1012C000BBFE18E92582F8D083D082D0E0F9D0E0C7
:1012D000FAD0E0FBC082C08302136822D083D082A0
:1012E000F8E4937012740193700DA3A393F8740142
:1012F00093F5828883E4737402936860EFA3A3A3D9
:1013000080DF8A838982E473EC8EF0A4CCC5F0CCB4
:10131000CDF8EFA4CEC5F02DFDE43CFCE8A42EC82A
:10132000C5F03DFDE43CFCEFA4FFE5F028FEE43D04
:10133000FDE43CFC22ECF608EDF608EEF608EFF6CC
:1013400022ECF208EDF208EEF208EFF222E6FB08DA
:10135000E6FA08E6F922EBF608EAF608E9F622E2F0
:10136000FB08E2FA08E2F922EBF208EAF208E9F2F5
:10137000223120780811E0E422902D85317DD12B97
:1013800091BAEF600512070980F691577F03D10CDF
:1013900064026008902D85D114120789902D857103
:1013A00071120789902D8512078571CD902D89EFD7
:1013B000F01207E3902D89E0FF22915C7FD712079E
:1013C000897FFF12078971D2902B6FEFF07FFF1298
:1013D0000789E5C820E2FBAFEB227F011207E89006
:1013E0002EC57401F0902EC5E0602ED11C71CD90F9
:1013F0002EC5EFF091FE71BA902B70EFF091FE9038
:101400002EC5E05401D18360DCA3E0F460D7EF3057
:10141000E7D3E4902EC5F080CC915C7F9F120789C2
:1014200071CD902B7171CB902B7671CB902B77EF88
:10143000F01207E3902B6FE0F4601BA3E0F460165A
:10144000902B76E0FD541F240FA3F0EDC413540736
:101450004480902B76F0227F011207E8902B74E0F5
:1014600051DC147E04148614148B1514901714A0E8
:101470003014A53414AA3614AF370000149853144E
:10148000EF851480802F5315EF80085315DF8003FC
:1014900053157F851590801D5316DF8516A0801586
:1014A0005317FE800D5317EF80085317BF80035367
:1014B000177F8517B07F0CDFFE227F011207E8300F
:1014C0004114D11C71CD902EC7EFF091FE902EC724
:1014D000E020E002C24130411771BA902B70EFD189
:1014E00083600BA3E0F46006EF30E702C24191FE97
:1014F000E4FF1207E8A241E433FF22120789F1CE8C
:10150000EF70FB902B76E0F4600A902EC47406F026
:10151000D12370FC902B74E051DC153604153E1479
:10152000154315154817155830155D3415623615D5
:10153000673700001550431410851480802F431521
:101540001080084315208003431580851590801D69
:101550004316208516A08015431701800D431710F0
:10156000800843174080034317808517B0902EC42E
:10157000740CF0D12370FC22D12B91BAEF600512CC
:10158000070980F67F011207E8D241915C7F06913E
:10159000FB915C7F011207897F0391FBE4FF020747
:1015A000E8902C3A317D902C3E31CFD12B91BAEF7F
:1015B000600512070980F691577F03D10C64026021
:1015C00008902C3AD114120789902C3A71711207A5
:1015D00089902C3A120785902C41124E72600F713F
:1015E000CD902C3EF1D5902C3F1207F480E991FE6E
:1015F000E4FF0207E87F011207E8D241915C7F0611
:1016000012078991FE915C902B72E0FF120789907E
:101610002B75E0223120781011E0E422915C7F05E7
:10162000020789902EC4E014F0E02275FF02E5E481
:1016300030E10675E40675E403229026B8E075F003
:1016400016A424E9F9741F35F0FEAF01E4FCFD6136
:1016500079902EC6EFF0902B7DE0640270249157B4
:10166000902EC6E07FAB60027FB912078991FE9091
:101670002EC6E0902B7CF070047F1EDFFEE4FF128C
:1016800007E822F0902B6FE0FFF422D12B91BAEF04
:10169000600512070980F622902B6FE020E016917A
:1016A000577F3D1207897F2A1207897F8012078999
:1016B0007FA61207E122902A53317D902A5731CF1D
:1016C000E4902A7AF0D3902A5BE0941E902A5AE0A4
:1016D00094004001227B017A2A795C902A5A124FA9
:1016E0002E902A533120B1A1902A5731C6E94A6081
:1016F0000B902A7AE0F582F12CFF80027F00902A7D
:101700007AE0245CF582E4342AF583E06F6002C35A
:1017100022902A7AE004FFF0D3902A5BE09F902A7F
:101720005AE0940050C22231C61E8E827583000298
:101730000DAB902D7AF1A1E58F20E0FBF1A7E4FF3E
:10174000902D7A31C68F82F12CF5930FEFB410F003
:10175000E4FF902D7D31C68F82F12CF5940FEFB40C
:1017600010F022902C5EF1A1E58F20E0FBF1A77E26
:1017700010902C61F127F593EE70F67E10902C5EA0
:10178000F127F594EE70F67F01F1B7124DB6EF70C8
:10179000FA7E10902C6431C61E8E82F1DBEE70F35F
:1017A0002231CF75FF012275FF01538F0675FF01AE
:1017B000538FF075FF0122EFB40107F1E34401F507
:1017C0008F2275FF01E58F54F04406F58F22E5C89E
:1017D0005404FF22FF31C6EF020E2D758300E593FE
:1017E000020E3F75FF01E58F54F622F1E34408F540
:0A17F0008F22902AE021CF020AC9DF
:071800000202E075C801229D
:101808007FB8902D24E0FEA3E0FF4E228F828E83C6
:101818007F010213068F828E83E4FF021306124DA6
:021828006F222D
:10182B00022E5D75FF028FD675FF02AF058FD77F36
:0A183B0001EF6003D2ED22C2ED229E
:0C184B000240F39029CCEE8FF0020EFE5C
:10185B008000C0E0C0F0C083C082C0D075D000C093
:10186B0000C001C002C003C004C005C006C0079081
:10187B002EC2E5FFF075FF02E5D430E60C75D440BF
:10188B00902D20110D6002111475FF02E5D430E587
:10189B000C75D420902D22110D6002111475FF02CE
:1018AB00E5D430E40A75D410110A6003124FBF75EA
:1018BB00FF02E5D430E30C75D408902D20110D6098
:1018CB0002111D75FF02E5D430E20C75D404902D86
:1018DB0022110D6002111D75FF02E5D430E1187560
:1018EB00D402122215EF600F110A6005124FB68059
:1018FB00061221E312220D75FF02E5D430E01075BC
:10190B00D401110A60098F828E837F07121306752B
:10191B00FF02E5D530E41075D510110A60098F82EE
:10192B008E837F0312130675FF02E5D530E10A752E
:10193B00D502110A6003124E7C75FF02E5D530E02B
:10194B001075D501110A60098F828E837F041213E3
:10195B000675FF02E5D530E21075D504110A600952
:10196B008F828E837F0A12130675FF02E5D530E74F
:10197B001075D580110A60098F828E837F08121330
:10198B000675FF02E5D530E61075D540110A6009E2
:10199B008F828E837F09121306902EC2E0F5FFD043
:1019AB0007D006D005D004D003D002D001D000D090
:1019BB00D0D082D083D0F0D0E032E475FF02AFD428
:1019CB00CDEFCD75FF02AFD5EFFCEDCEECCEFF2208
:1019DB007E7F7F9C902AE6EEF0A3EFF0F5828E835C
:1019EB0091B1E94A4B70024173F11FF18EFF91BD2A
:1019FB00122C74E92407F9E43AFA902AE31211CF76
:101A0B00F1537A2A79F1F12FD178902AF1E0FEA3E4
:101A1B00E0FF907FC07401936F7003E4936E7F00BF
:101A2B0060027F01902AE8EFF0902AE3F1BCF9E421
:101A3B003AFEAF017B017A2A79F1F12FD178902A06
:101A4B00E8E0FF902AF1E0FCA3E0FD907FC2740177
:101A5B00936D7003E4936C7E0060027E01EF4E90F9
:101A6B002AE8F060037F0022F198F1EAAC02AD01A5
:101A7B00E02DFD902AEBE03CCD2402CD3400FC128E
:101A8B0028FC91BDE94A4B7002612B611E124FC8B5
:101A9B00947EEC947F5002817BF198CF122A739144
:101AAB00B1E94A4B6033F11FF18EFF91BDE924057B
:101ABB00122C701217F2902AE01211C6C003C0024A
:101ACB00C001919CD3D082D083D0E0124F644010E0
:101ADB00918A124E9BB1A98007F1E1F14B1217F2DB
:101AEB00124EB0402E919C124F3BCF24FBCF34FFB4
:101AFB00FEC006F14C124ECFF0D00691D2919C1243
:101B0B004F6BCF24FBCF34FF1228EF919CAE02AF6B
:101B1B000191C3902AE674FF75F0F6120EFE419800
:101B2B00902AE6747FF0A3747EF0124FC8949CEC5D
:101B3B00947F4002817B902AE61243E41211D890E5
:101B4B002ADD1211CF8F828E8374069324FEFE74CE
:101B5B00059334FF902AEBF0A3CEF08D828C837427
:101B6B000393FF740493902AE9CFF0A3EFF0902A2C
:101B7B00E9110D70028130902AE6122C99740793AB
:101B8B0024FC6023146033240370507B017A0079AA
:101B9B00041217F2919CC3EF99FFEE9ACF24FECF5C
:101BAB0034FF902AE980247B017A6079001217F2C6
:101BBB00919C124EF1CF34FF80117B017A607940FA
:101BCB001217F2919C124EF1CF34FFF0A3EFF0E914
:101BDB002402F9E43AFA902ADD800DE4902AE9F028
:101BEB00A3F0FBFAF9902AE01211CF902AE0121120
:101BFB00C6AE02AF01919CE96F7002EA6E6007916D
:101C0B008A124E9BB1A9902AE6122A4A7407936452
:101C1B000270197E007F157D54F1367E007F167D94
:101C2B00A5F1368007F1E1F14B1217F2124EB040DD
:101C3B0033919C124F3BFEC006F14C124ECFF0D0AD
:101C4B000691D2919C124F6B1228EF919CE924FEC6
:101C5B00902ADDF1D1902AE6E0FEA3E0F582F1AF08
:101C6B00F1EA91C3902AE6E475F00A120EFE613593
:101C7B00902AEB12500D7E007F0091C37F022290C1
:101C8B002AE01211C6AE02AF01902AEDEEF0A3EFDF
:101C9B00F0902ADD0211C675FF02EFF452D475FFE6
:101CAB0002EDF452D522740793FFD197902ADA12E2
:101CBB0011CF902ADA0211C67B017A2A79EB902C8C
:101CCB00D1E4F0A37402F0902CCEF1CAC007902C93
:101CDB00CE1211C6902CD1124F4FD007902BCB1296
:101CEB00117D902BCF1211CF124E20902BD2124779
:101CFB00EA902BCB1211201216B65002A1A7902BF3
:101D0B0079E024FFFF902B78E034FFFEE4FCFD909C
:101D1B002BCB12113C12109E902BD4124FAF603A6A
:101D2B00902BD4F1F4902B79E09FFF902B78E09ED1
:101D3B00FE902BD4F0A3EFF0902BD2F1C39FEC9E2F
:101D4B005006A3ECF0A3EDF0124DDBE94A6005F170
:101D5B00D9FF803F7E007F008039902BD2110D6020
:101D6B0039902B78F1C3EF9DEE9C400A902BD4EC6D
:101D7B00F0A3EDF0800D902BD2E0FFA3E0A3CFF00A
:101D8B00A3EFF0124DDBE94A6005F1D9FF80047E29
:101D9B00007F00902BD0115180C0D322C3229029F9
:101DAB00CC122C7CECF0A3EDF0A3124F77D390293F
:101DBB00CDE09D9029CCE09C403B124F0F5002C1CF
:101DCB0059F18640047F8080069029D0A3E0FF90D4
:101DDB0029D2EFF09029CCE0FEA3E0FFF15A91D28B
:101DEB009029D2E0FF7E00124F7F9EF0114E90297A
:101DFB00CE115180C59029D0E0FEA3E0FF114E908B
:101E0B0029CE1151124F0F4045F18640047F80803F
:101E1B00069029D0A3E0FF9029D2EFF0FD7C00C300
:101E2B009029CDE09DFF9029CCE09CFEF0A3EFF034
:101E3B00C39029CFE09DF09029CEE09CF0F15A9110
:101E4B00D29029D2E0FF124F7F9400F080B62290FF
:101E5B002E27E075F005A42411F9742B35F0FEAF95
:101E6B00017B017A2A7981902D317405F0902D2E0A
:101E7B00F1CAC007902D2E1211C6902D31E0FF90A4
:101E8B002C41E4F0A3EFF0D0070215A1902BC0EF8B
:101E9B00F07B027A007902A31211CF8069902BC7D5
:101EAB00110D606E902BC11211C6E92FF9EA3EFAA3
:101EBB00E924FB902BC4F1D1F1537A2B79C9F12F83
:101ECB00D178902BC9E0FEA3E0FF902BC7E0B506BD
:101EDB0020A3E0B5071B902BC4F1BCF9E43AFEAF8D
:101EEB000112164C902BC0E0B50708902BC40211C1
:101EFB00C6801F902BC7E0FEA3E0FF902BC21151B1
:101F0B00902BC11211C6F1537A2B79C7F12FD178CF
:101F1B00808B802D902ADA1211C6AE02AF017B01A5
:101F2B007A2A79E9902D317402F022AB05E4FCFD9D
:101F3B00902D8EEBF00207919400902CD1F0A3CE54
:101F4B00F07B007A00790022AE02AF017B01227B8D
:101F5B00017A2979D39029D2E0902D31F0D1789064
:101F6B0029CEE0FEA3E0FF7B017A2979D39029D219
:101F7B00E0FD902CD1E4F0A3EDF022D3EF9480EEB2
:101F8B00940022D178902AE9E0FEA3E022902AE681
:101F9B00E0FEA3E0FFF5828E831211D8902ADD12AA
:101FAB0011CF8F828E83740593FF740693902AEB67
:101FBB00221211C6E9240222E0FCA3E0FDD3221277
:101FCB0011CFE4FCFD22F9EA34FFFA0211CF902B7A
:101FDB00D4E0FEA3E022902AE9E4F0A3740522CF1B
:101FEB00F0A3EFF0AE02AF0122E0FEA3E0FFC322AD
:101FFB00902DB21211CF902DB51220BD943F4003FE
:10200B00743FF075FF02E5CD30E105E4F51D80036B
:10201B00751D01E51D6037E5FD251E04543FFFE5E9
:10202B00DD543F6F6028902DB511685021902DB273
:10203B001211C6851E8212172CAEFD312C543F2473
:10204B008EF582EC3406F583EFF0051E80C5E51D99
:10205B006008E5FD251E543FF5FDAF1E22E0FFE5B0
:10206B001EC39F22902DBA1211CF902DBD11BD947E
:10207B003F4003743FF075FF02E5CB251E543FFF35
:10208B00E5DB543F6F601E902DBD11685017ADCB33
:10209B003113543F244EF582EE3406F583E0902D38
:1020AB00BA311B80D4E51E600625CB543FF5CBAF70
:1020BB001E22EDF0E4F51EEDD322902DBE1211CFB2
:1020CB00902DC111BD941F4003741FF075FF02E5E5
:1020DB00CC251E541FFFE5DC541F6F601E902DC1D5
:1020EB0011685017ADCC3113541F24CEF582EE344A
:1020FB0006F583E0902DBE311B80D4E51E600625CE
:10210B00CC541FF5CCAF1E22ED251EFF7E00EF2217
:10211B00FF1211C6851E82758300EF120E3F051E3E
:10212B0022FFE51EFDEE2DFD7C00ED22902DB6125B
:10213B0011CF902DB9EDF075FF02E4F51EEDD394A0
:10214B001F4003741FF075FF02E5CD30E205E4F587
:10215B001D8003751D01E51D6037E5C9251E04545F
:10216B001FFFE5DE541F6F6028902DB911685021B9
:10217B00902DB61211C6851E8212172CAEC9312CAA
:10218B00541F24EEF582EC3406F583EFF0051E8028
:10219B00C5E51D6008E5C9251E541FF5C9AF1E22F4
:1021AB007B017A2E79BE7D01116F902EBEE0FF224E
:1021BB0075FF02E5DB543FFFE5CB543F6F7F0060BB
:1021CB00027F012275FF02E5DC541FFFE5CC541F93
:1021DB006F7F0060027F012275FF0153CCFD43FB33
:1021EB00405103759E0143FB0975FF03859E9E7548
:1021FB00FF03859E9E7F012275FF0243D20175FF6F
:10220B0003225103E4F59E7F012275FF02AFD3EF4A
:10221B007F0030E6027F01229007407402F09007A6
:10222B0034E0FF120C5E9007407405F02275FF023C
:10223B0075E404E4F5E41203C71245DD900736EFAD
:10224B00F0901200E0B47A14901214E0B49C0D904C
:10225B000736E0FF64056004EFB4032EE490073FFC
:10226B00F090073FE0FFC394805013E42FF582E416
:10227B003412F583E4F090073FE004F080E3901212
:10228B0000747AF0901214749CF0120AE740031257
:10229B000AE27B017A1279107D017F01120ADD7B44
:1022AB00017A1279117D017F21120ADD7B017A12ED
:1022BB0079127D017F22120ADD7A1279177F0212C1
:1022CB002C8A901217E0B401057F0112476B120A9A
:1022DB007E1245DD120A79900736EFF0120B691268
:1022EB000A6F900736E0FF120C59EF24FFB392559B
:1022FB0075FF0253E6BF122E37120A8812280720E9
:10230B0055085123124F481209617F01120689D2D9
:10231B00AF20550261AB120AECB19E120C54120A9B
:10232B00D840F3900735E06047120AABEF700A9084
:10233B000741122DC7F1D54037E53670FCE5372044
:10234B00E502B16E12085DEF70FA12459950051255
:10235B00458550057F01121651900735E0B40204F4
:10236B00E4FF8009900735E0B403057F011246A412
:10237B00120AA6E53730E19E124E854002E4F0E5E5
:10238B003720E504917B9199F1E6AF82AE83EFC0E4
:10239B00E09189900738E0FDD0E0FF120B5A6121E4
:1023AB00122E14900735E0604D20190320094712B7
:1023BB000AABEF700A900741122DC7F1D54037E5F4
:1023CB003670FCE53720E502B16E12085DEF70FA4E
:1023DB00124599500512458550057F0112165190F3
:1023EB000735E0B40204E4FF8009900735E0B4033D
:1023FB00057F011246A4900735E0600C20190930C7
:10240B000906200203120939120AECB19E12433C51
:10241B00120C4F202605120AA68022122DB590070A
:10242B002EE0FEEFC39E4005EF9EFF800890072E27
:10243B00E0F4042FFF7401D39F5002C226E537301E
:10244B00E126124E854002E4F0E53720E504917B4E
:10245B009199F1E6AF82AE83EFC0E0918990073896
:10246B00E0FDD0E0FF120B5A124574122E2561AB22
:10247B00900737E0FD75F0AA9007431211BAED757E
:10248B00F002A42430F9740735F0FA7B0122AF82F5
:10249B00AE837D019004A3122C7C1211CFE5367014
:1024AB007D12340B5004C248B12A9004A3E0FEA362
:1024BB00E08E31F532A31211C69004131211CFAE78
:1024CB0031AF327DAA124837E4F5FF75D908F530E4
:1024DB00E5375421602CE53730E505E4FF12430462
:1024EB00E49004A8F09004A8E004F012490BEF600C
:1024FB00099004A8E0C3941040EB7F02120C7253B6
:10250B0037DE1243AD1243275005E004FF80027FF4
:10251B00001242F5D248B12AD2EBA22B92ED2290B7
:10252B002EC8E5F4F0E0547FF5F47F827E00F1A62F
:10253B00F15BF14A5005E5FC20E6F7304808902E98
:10254B00C8E04480F5F4F155F14A5005E5FC20E66E
:10255B00F775FF01E5D520E702C322E5F4D330E69A
:10256B0001C322E536702A12340B5004C248B12A3B
:10257B00123F5A7F08120C721242EBF5D1E5D120B3
:10258B00E0FB4337205337FEE4F530A22B92EDD31B
:10259B0022C322E4902EC3F0D3900001E09400906C
:1025AB000000E094005002C17A902EC3E0FF04F0CB
:1025BB00EF94054002C17A900000F143E4F549D154
:1025CB0087E0FEA3E04E6025D187F14345F0701DF7
:1025DB00D17BE0B40113D17B7402F0900425E0FFB2
:1025EB00D187E4F0A3EFF08004D17BE4F00549E55B
:1025FB0049640370CA9029CBE0FF6006F46003E0E6
:10260B0014F0E4F549E549C3940E508CE549D1A487
:10261B001238176056E549D1A474FF12114A1238CB
:10262B00957048E549D195E0FF600AF46007E549EC
:10263B00D195E014F0E549D195E06010E549F1F949
:10264B00121120E549D1A412117D8007E5491238FA
:10265B009EE4F0F162E0FEA3E04E600CF162E0FE5E
:10266B00A3E0AA06F9121302120709054980962264
:10267B00741A2549F582E43429F58322E54925E0CE
:10268B0024C5F582E43429F5832275F00CA42427A4
:10269B00F582E43429F58322EB75F00CA4241DF5A7
:1026AB0082E43429F5832290050FEFF0A3EBF09031
:1026BB00050FE0241AD17FE0FEB402037F0022EE67
:1026CB00701E90050FE0FF241AD17F7401F0900467
:1026DB0022E0FCA3E0FDEFD189ECF0A3EDF0802A22
:1026EB00ED241BFFE433FEE4FCFD7B0CFAF9F8123E
:1026FB000383EF2405FF90050FE0D189E0FCA3E0F5
:10270B00C39FEC940050037F00229029CBE0B4FFD1
:10271B0015900510E0540FFFBF0103E480049004F3
:10272B0032E09029CBF09029CBE060037F0222901E
:10273B0029CB74FFF07F012274FFF5F0020EFE75BA
:10274B00FF03E591C330E701D3227FE87E03F1A6B7
:10275B0075FF0343918022E54975F00CA42425F500
:10276B0082E43429F58322902C68ECF0A3EDF0ABD6
:10277B0007A3121120EBF1F912117DD1A312117DD8
:10278B00902C6EE0FFEBD195EFF0902C68E0FEA360
:10279B00E0FFEBF164EEF0A3EFF022902DCA124FA5
:1027AB00FD7A2D79CC1237775014902DCCE0FEA307
:1027BB00E0FF902DCBE09F902DCAE09E400B902D1B
:1027CB00CAE0FEA3E0FF12362222D3EF94C8EE94A8
:1027DB000022C2AFEFF45237D2AF2290073FE0FD99
:1027EB0075F0AA9007430211BAE4F536A16E75F0A5
:1027FB000CA42421F582E43429F58322122A9D129C
:10280B000A9C120B5F120AF1900736E0640170020A
:10281B0001BC7FFF121E979004851211CF7E007FA3
:10282B001512164CBF540E7E007F1612164CBFA508
:10283B00047F0180027F00900734EFF06401705138
:10284B009004851211C6121F537A04798B121F2F15
:10285B00517CFEA3E0FF9004851211C69174E9240C
:10286B0007F9E43AFA9004881211CFE92408F9E445
:10287B003AFEAF017B017A04798B121F2F517C64D6
:10288B00057004A3E0642260081219DB900734EF93
:10289B00F0900734E0701A7E007F10C006C3741FDF
:1028AB009410FE7438121F43D0069191E4FFFE1171
:1028BB00FC1209ED12094D1208D5B12130550575E1
:1028CB001F018005B131120862E4902C30F0902C7E
:1028DB002EF0A3F002000A75FF0275E40475E40103
:1028EB0075E40222FE902AECE029FD902AEBE03AF7
:1028FB00FC902BA8917C91837400F0A37476F0511B
:10290B0047E49370024146E493FF541F902BAE5162
:10291B008CC41354071212DC293F002941012943AF
:10292B0002295603296C04297C05298D0629970752
:10293B000000290A802B80395147740193FF7402E0
:10294B0093902BB0CF51942403803D515374029339
:10295B00FD740393902BB0CDF0A3EDF0EF24048026
:10296B001C5147740193FF902BB0E45194240280C7
:10297B00175153740293902BB0518C2403FFE43EF8
:10298B00413C902BAFE024015184413C902BAC9106
:10299B00A2740193FB7A00902BAFE0FEE42BFFEACD
:1029AB003E5170740393FE902BAC919B740493FD7A
:1029BB00EDFF902BB0120657902BA9E09F902BA800
:1029CB00E09E5065902BAA121FF4902BB1E09F90C4
:1029DB002BB0E09E5053E4902BB2F0A3F0902BAEB3
:1029EB00121FF4902BB3E09F902BB2E09E503AE075
:1029FB00FCA3E0FD902BB1E02DFF902BB0E03CFE53
:102A0B00902BADE02405FB902BACE034008B82F5D2
:102A1B0083E5822DF582E5833CF583E493FD120873
:102A2B0071902BB21207F480B4902BAFE0240551B8
:102A3B0084902BAC8FF0120EFE210A22902BACE06F
:102A4B00FEA3E0F5828E8322902BACE0FCA3E0FD8D
:102A5B00F5828C83740193FB7A00902BAFE0FEE43C
:102A6B002BFFEA3EFE902BAEF0A3EFF08D828C8312
:102A7B0022121E7890048BE022FF902BAEE03400E4
:102A8B0022FDE4F0A3EDF0EF22F0A3EFF0902BAFDB
:102A9B00E0227B017A2B79747D017F03120ADD7AA8
:102AAB002B797D7F08918A7A2B797A7F09915F7ACE
:102ABB002B79787F0B915F902B7812180D6006BEE7
:102ACB00FF1BBFFF18902B7DE024FD6003047004F7
:102ADB0091668009902B78E4F0A37440F0902B7DE5
:102AEB00E024FD6003047008902B757403F08006DE
:102AFB00902B757402F0902B74E01212DC2B2404D3
:102B0B002B2F142B37152B3F172B55302B5D342BBD
:102B1B0065362B6D3700002B4A75FF015310EF857F
:102B2B0010FD804775FF015311EF800E75FF0153A8
:102B3B0011DF800675FF0153117F8511C9802C753C
:102B4B00FF015312DF8512CA802175FF015313FE5B
:102B5B00801675FF015313EF800E75FF015313BFE2
:102B6B00800675FF0153137F8513CB1214FE7F1163
:102B7B009151E4FF1216511213DA902B727402F07A
:102B8B00902B76E0247F60090470169157740A80AD
:102B9B000712169891577458F0902B757403F09197
:102BAB0066902B77E0F46002814E902B7AE0FEA3C7
:102BBB00E0FF64104E7006902B77740EF0EF6420DC
:102BCB004E7006902B77740FF0EF64404E700690AA
:102BDB002B777410F0EF64804E7006902B77741186
:102BEB00F0E4B5070AEEB40106902B777412F0E40B
:102BFB00B5070AEEB40206902B777413F0E4B50711
:102C0B000AEEB40406902B777414F0E4B5070AEEC1
:102C1B00B40806902B777415F0E4B5070AEEB410E0
:102C2B0006902B777416F0E4B5070AEEB4200690E5
:102C3B002B777417F0E4B5070AEEB44006902B77A8
:102C4B007418F0021578EF4420F5FE227F10915195
:102C5B00902B72227B017D02020ADD902B7874018E
:102C6B00F0A3E4F022F9E43AFAC3E99FF9EA9EFAF9
:102C7B0022EEF0A3EFF0A322ECF0A3EDF0A3227B66
:102C8B00017D01020ADD121CD274FFFDFC22E0FC67
:102C9B00A3E0F5828C8322E0FCA3E0FDF5828C831C
:102CAB0022EF6004902CB3F09003F7E0FF9003E663
:102CBB001211C61208A89003F7EFF0603D20223ADC
:102CCB00902CB4B11A1211CF902CB2E090044CF0AE
:102CDB00902CB1B113742CF0A374ACF09003F7E00B
:102CEB00FBAD1FE4FF120B2DEF701C902CB3740285
:102CFB00F0902CAF514A7F02800A902CB3E0FF90EA
:102D0B002CAF91A212130622E090044DF0A32212D5
:102D1B0011C690044922E4902D2BF0FBFAF9902D6B
:102D2B00270211CFC20A7B007A00791F902D351232
:102D3B0011CF0B7A0779392275FF0275E404E4F59C
:102D4B00E42290050CEDF090050BEFF0BF0411A3FE
:102D5B00E0FB7D017F01B18890050B7403F0800BC4
:102D6B0090050CE0FB7D01E4FFB18890050BE09032
:102D7B000735F0D209B1B5900741020657EB600851
:102D8B0075FF0153CDFD800675FF0143CD02ED604C
:102D9B000553FBDF800343FB20EF600775FF024306
:102DAB00E1402275FF0253E1BF22A2AD923CC2ADBE
:102DBB00AF45AE44A23C92AD22902797E0FEA3E034
:102DCB00FFAD07AC06B1B5C3EF9DEE9C4008EF9D80
:102DDB00FFEE9CFE8013EDF4FDECF4FCED2401FD05
:102DEB00E43CFCED2FFFEC3EFE2275FF028FE3224D
:102DFB0090072FE064AA2411FFF022AE07B1FBEE7F
:102E0B0004FEEF8EF084AFF02230270D1208FDEF99
:102E1B006007C24E1208E9C2272290073D12180D17
:102E2B006009CAEECAC9EFC91213022275FF02D29A
:102E3B00ADD2BD75FF02758E7175480975FF02E540
:102E4B008E546F4480F58E902DC2121189000000B4
:102E5B000022C0E0C0F0C083C082C0D075D008C0D3
:102E6B00FF75FF02E58E30E43275FF02E58E54EFFD
:102E7B004410F58E902DC2121120D1DF902DC2126D
:102E8B00117D9000001207F4E548700D7548090597
:102E9B0045E545700205448002154875FF02E5853E
:102EAB0030E40875FF02438510054CD0FFD0D0D01D
:102EBB0082D083D0F0D0E032FF7E04FDFCE0F8A39B
:102ECB00E0F9A3E0FAA3E0FB120F81E47B7DFAF9B2
:102EDB00F812100CEF2401FFE43EFEE43DFDE43C50
:102EEB00FC22902D8FEFF0E4A3D1C378011210E0F8
:102EFB00902D8FE0FBF17D12117D901210E064801C
:102F0B00606FE0C3947F5037EBF17DC083C082F1DB
:102F1B00A5EEC0E0EFC0E0901210E075F004A4AE97
:102F2B00F0FBCAEECAEA3395E0F9F8D0E0FFD0E047
:102F3B00FEC3EF9BFFEE9AFEED99FDEC98802A9075
:102F4B002D8FE0F17DC083C082F18B901210E0F4E5
:102F5B000475F004A4FFAEF0EE3395E0FDFCEB2F0F
:102F6B00FFEA3EFEE93DFDE83CFCD082D083121126
:102F7B007D2225E025E02401F582E43412F583223D
:102F8B00E0F8A3E0F9A3E0FAA3E0FB22E025E025BB
:102F9B00E02401F582E43412F583E0FCA3E0FDA309
:102FAB00E0FEA3E0FF22902CB7124761EBF0902CD0
:102FBB00BC74FFF0902CBBE0902CBDF0902CBDE0CE
:102FCB00FFC3940E5067EF1226A4121120123895EE
:102FDB007053902CBBE07E0170027E02902CBDE002
:102FEB00FF12389EEEF0C007902CB9E0FF7E006018
:102FFB00097C007D0A120E6180027F0AE4FCFD90C1
:10300B002C6A12117D902CBAE0902C6EF0902CB79C
:10301B00E0FCA3E0FDD007122772902CBDE004FF6B
:10302B00902CBCF022902CBDE004F0808F902CBC37
:10303B00E0FF22E4FB7D01E4902CBBF0022FB1906A
:10304B002CC1ECF0A3EDF0902CBE1211CF9121907E
:10305B002CC1E0FEA3E0FFA3E0FDA3E0FB11429037
:10306B002CBE1217D5902CBE1186B4FF04E4120EA1
:10307B002D902CBE1186FF229004CD1211C6020D8D
:10308B006E9004CD1211CFD23EC2EBE536600241F9
:10309B0065E53730E202C322517224EE124E26123E
:1030AB0044DBA2ED922BC2ED71D25460604251729F
:1030BB002403518320E139902D2BE06404603151BE
:1030CB007224BB5183517124E271FC902D2A740F31
:1030DB00F09004CD1211C6902D271211CF121F4C58
:1030EB00F1A3902D2B7405F0518AA22B92EDD322D4
:1030FB001183540FFFBF0111E924EF5183700A9024
:10310B001215E09004D0F0800E9004CD1211C6126F
:10311B000B649004D0EFF0E53720E05C9113400591
:10312B007F011206899004D07A0479D1B12FE43350
:10313B00517124EF124E63120DD8EF70028035904F
:10314B0004D0E0FFF1D4E0FE9004D1E0D39E400424
:10315B009104C322517224B95183FD1183FB1226B2
:10316B00B29004D1EFF0E0FF7006D2EBD2204151C8
:10317B00EFB40204D2EB415171D25460600E517224
:10318B002403518320E105E4902D2BF0911350057E
:10319B00C24812252A1242EBF5D1E5D120E0FBE41F
:1031AB00F53051722408F9E43ACFE9CFF5318F327B
:1031BB00517224B15183F538AE3112486D517224DE
:1031CB00B15183FF517A2FFFE433FEEF2401FFE46B
:1031DB003EFE517224B95183D3123B5650057401F4
:1031EB00120DD8517224B2F9E43A8B40F541894261
:1031FB00517AF54371D25407900411F0753608518A
:10320B007271E2124861517AFFAD381248897B0125
:10321B00E4FDFF124803E4F5FFE5D25480440CF5BE
:10322B00D2516D24B951832418FBE433FA7D0391F9
:10323B00AF71D2FFAEF0A23E923D9004D0E090046D
:10324B00F2F091624006A22B92EDC322516D24F253
:10325B0071FCA22B92EDD2EBD322A22B92EDD2EBEF
:10326B00C3229004D0E0FF9004CD1211C6E9229046
:10327B0004CD1211C6E924E1F9E43AFA020D6E907D
:10328B002D2BE024FC700261A914700261A2147052
:10329B0002618C14700261B12406600261CBE536C9
:1032AB00600261CBC2EB71CC120B64902E8AEFF0F3
:1032BB00E53730E0026189B1EC60057F01120689C8
:1032CB00902E8A7A2E798BB12F4004D2EB61E99044
:1032DB002E8AE0F1D4E0FF902E8BE0D39F40028149
:1032EB0004902D2AE0640F702B902E8AE0FF71CC96
:1032FB00E924B95183FD902D271186FB1226B2903C
:10330B002E8BEFF0E0FF7005D2EBD22022EFB40250
:10331B0003D2EB2212440E71CCE924E25183FF90CD
:10332B002D2771D5FDACF0E4FB12447DC23D902EF0
:10333B008AE09004F2F0E4FFFE9162503ED2EB90F3
:10334B002D2B7402F012449E7E00E4FCFD7BD07AA0
:10335B00127913F8120F81E47BE87A03F9F8120360
:10336B0083AB07AA06902E8AE0FF7D0391AF7E45C3
:10337B007F5B7D147C00120B1E8003D2EB22D2EB01
:10338B0022E53720E50AE53730E0057F0112068993
:10339B00902D2B7403F022902D2B7401F022120B25
:1033AB001471CC020ABF124406D22071CCF1A312C5
:1033BB001F4C902D271211CFE4902D2BF0120B32B6
:1033CB0022902D270211C69004CD1211C6E92404B8
:1033DB00F9E43AFA020F2A24B2F9E43AFA22C3903A
:1033EB000419E094FF900418E094FF50031207F4C3
:1033FB0022F9E43AFAEF020E2DD2EB71E9D2202238
:10340B00C2EBA2ED922BC2EDE5F4C330E701D32260
:10341B007B017A27790F902E1E1211CF902E1E1141
:10342B0086FF9139902E1E1211C6E4020E2DAB07AA
:10343B00E4FF1BEBC3940E501DEB1227F9121189FD
:10344B00000000001226A312118900000000EB12ED
:10345B00389EE4F07F01224337015337DF9004F2AB
:10346B00E0FD1239589004F2E0FD1240A94004E44B
:10347B00F5362243FA045337FB303D051242FA80EE
:10348B000A7F5591987F559198D2EBD32275FF0106
:10349B00E5D520E602C322E5FA540360FA75FF0175
:1034AB008FC3D3229004F3EFF0ED24FE6019146068
:1034BB00262402703BEB2402FFE43AFE7C007D5095
:1034CB00120E617D60801EB124C333CE33CED8F98A
:1034DB00FF7C007D28800EB124C333CE33CED8F9C8
:1034EB00FF7C007D64120E739004F4EEF0A3EFF0FA
:1034FB009004F3E01244CDC083C08212113C9004BF
:10350B00F5E02401FF9004F4E03400FEE4FCFD122E
:10351B000F74D082D08302117DEB2401FFE43AFEBD
:10352B00EF780322E0FF7B01902DDAEFF0A3123C42
:10353B00EC75FF01B1EC6002C322E5F430E602C387
:10354B00227FE87E03D12212275BF18C400122C23D
:10355B004812252A902DDAE0FF12430453F4DFD2F0
:10356B004812252A7F787E00B1AE75FF0153E4BF68
:10357B00E5E430E7FB1243EE7F8AF1B130E605F16B
:10358B00DEE4800775FF01F1DEE5D9120E2D75FF24
:10359B000143E440123FC1400343F420F18C40014E
:1035AB0022D322CDEFCDCCEECCF16BAB94EF4BF124
:1035BB00A9CBEFCBFAE59130E719F16EA994E9F5B8
:1035CB0082EF4582FFEB125005C3EF9582E5F09534
:1035DB008340E2E59120E708CEECCECFEDCFF15D55
:1035EB0022B1F2EF6401227FFA7E00D12212275B17
:1035FB00E5FC30E60512274A40F6E5FC30E6037F92
:10360B00032275FF01E5D530E6037F0222E5D57F66
:10361B000030E7027F012275FF03D3EF9402EE9493
:10362B0000400874FE2FFF74FF3EFEEFF592EE5440
:10363B000FF59122902CDA124764EBF0902CE0748A
:10364B0001F0C24712275512274A5005E5FC20E628
:10365B00F6B1F2BF0108E4F5FC75FC408007B1F24E
:10366B00BF0202D32275FF0153D8EF902CDBE0FF92
:10367B00124B9775FF0153D5DF53FAFB902CDAE011
:10368B00FF124304902CDBE0902CDAB4080EE0120E
:10369B002F7D123FD12452122EE28003122F97124C
:1036AB003F7D902CDCE0FFF1F375FF0175FF037597
:1036BB009B0412275575FC42E5FC20E10512274AB5
:1036CB0040F3902CDDE0F075FF03E59B20E705123E
:1036DB00274A40F3E59B20E70D75FF03759B1F12EF
:1036EB003F5AD247804EF152123CB9902CDBE0FD91
:1036FB0090120FE05D701D902CDAE0FFF152123941
:10370B00C890120FE0FF902CDBE0FEEF4E90120FF3
:10371B00F0123F28F1B97B017A2C79DEF177500F4B
:10372B00C3902CDFE09420902CDEE0940340E7F173
:10373B00521248B3F162304702C147902CE0E0B41B
:10374B000103D38001C3227B017A2C79E0227F1401
:10375B007E00D12212275B75FF03E59120E7FB2248
:10376B0075FF03AF93EF75F010A4FF22F16BAD94CF
:10377B00EF4DF1A98FF0120F55E591C330E701D34F
:10378B0022E5F730E510E5F754C0700512274A40E3
:10379B00F0123F76C322D322902AF40211CF24FBDE
:1037AB00FFE5F034FF22FEB1AE90120FE022E4F5FC
:1037BB00FF75C2E17F1EF1B130E707E4F5FF75C27B
:1037CB00A122E4F5FF75C2812224F3F582E43403D0
:1037DB00F58322902DDBE0FBA3E0FAA3E0F9229026
:1037EB002CBB7404F0022FB175FF018FDA22AB07EB
:1037FB00E4FA1BEBC3940E5010EB1227F912381797
:10380B0060071226A312117D0AAF0222121120ECBF
:10381B004D4E4F22902C1FEEF0A3EFF0902C267400
:10382B00FFF0902C211117605B902C277404F09003
:10383B002C27E0FFC3940E504BEF1226A41211203D
:10384B0011957038902C27E0FF119E7405F0C0077E
:10385B00902C21121120902C6A12117D902C25E0B6
:10386B00902C6EF0902C1FE0FCA3E0FDD0071227EC
:10387B0072902C27E004902C26F08008902C27E0E7
:10388B0004F080AB902C26E0FF22E4FBFAF9F8C39E
:10389B000210CF75F00CA42428F582E43429F583AB
:1038AB0022E4FEEFC3940E5012EF119EE05D7C00FC
:1038BB00B505027C01EC2EFE0F80E8AF06227D02DF
:1038CB00E4FF80DD7D017F0411ACAB0711C9EF2B49
:1038DB00FF22E4FD7F0480C9123413500611F0500F
:1038EB00028001C322E5F754E024FF22AF36EFC379
:1038FB006001D322EFC3940E5005900412EFF02217
:10390B00E539540FFF22E539C394F0501F5339F0BA
:10391B00313AFE740FC39F4005EE940E40054339B8
:10392B000D8003EF4239E539540FFF227F0022E56A
:10393B0039C4540FFEEF900553932E22313AFFC337
:10394B00940E40027F0DEF90053593FF22EF30E38D
:10395B000774332DF8E6FF22743D2DF8E6FD202C7D
:10396B0004EE30E00BE539C394F05020319A801807
:10397B00E53B6006FDE4F53B8012E539C394F0505E
:10398B000BE539540FFF60043147AD07AF052290AB
:10399B000412E0FDFFC3740E31C1EFC4F8540FC81D
:1039AB0068FFEEC454F048FEE53954F0C371567FFE
:1039BB00005002AF05229FFFE49400FE22902DD60B
:1039CB00EDF0901211E0F46005A3E0B4FF0C902D24
:1039DB00D87418F0A37413F08010901211E0902D8E
:1039EB00D8F0901212E0902DD9F0120D6E64016098
:1039FB00026130902DD6E0FE64086004EEB404083A
:103A0B00902DD77428F08006902DD7743AF0EF12D2
:103A1B002F981210ABE47131EF24D8FFEE343FFE38
:103A2B00ED3493FDEC3416FC7B007A80790378003F
:103A3B00120383715F902DD9E0FF902DD8E0C33135
:103A4B00C1E4FCFD120F81ECC0E0EDC0E0EEC0E084
:103A5B00EFC0E0902DD9E0FFE4FCFDFE7131D0E02A
:103A6B00FBD0E0FAD0E0F9D0E0F8EB2FFBEA3EFA1E
:103A7B00E93DF9E83CF8902DD7E0FFE4FCFDFE12A0
:103A8B000F81EF2454FFEE340B122EE5E47BA87A62
:103A9B0016F9F8120383CBEFCB902DD6E014605DB3
:103AAB0014601B24FE600C24FC707AE4F5FF75CEC9
:103ABB00318006E4F5FF75CE21F5FF8BCF22E4FABA
:103ACB00E4F5FFEA2440F5CEE4F5FFEAFFC3740703
:103ADB0031C174952FF58274053EF583E47139C3BA
:103AEB009DF5CFE4F5FFEA2448F5CEE4F5FFEA9027
:103AFB00059571392DF5CF0AEAB408C422E4F5FF18
:103B0B0075CE01F5FF8BCFF5FF75CE0EF5FFEB25CF
:103B1B00E0F5CFE4F5FF75CE0FF5FFCFEBCFEB75EF
:103B2B00F003A4F5CF227B64FAF9F8020F819325F9
:103B3B00E0FDE433FCEB75F010A4FFAEF0120E7356
:103B4B00CDEFCDEBFFE4C313EF13229FEE6480F8B0
:103B5B0074809822C8ECC8C9EDC9CAEECACBEFCBAA
:103B6B0022902BD691EC902BDC12118900000001D6
:103B7B00902BE07401F0F5FFE5D554C070051234BD
:103B8B00135002C322E4F5FF53967F75FF0175D5E1
:103B9B00047F3FFE12375D75FF0143D508E4F5FF47
:103BAB005394FBF5FF53847FF5FF7598FF902BDA49
:103BBB00E5F4F075F49C75FF01A3E5E4F075E425DD
:103BCB007B017A2B79E091B9902BE0E064016002E4
:103BDB008198F5FF902BD97414F0902BDC122FA544
:103BEB0078011210F3902BDC12117DE5A730E1FB6D
:103BFB0043A702902BDC122FA5E5A730E005E47B51
:103C0B00018002E4FBFAF9F8EF4BFFEE4AFEED49B7
:103C1B00FDEC48FC902BDC12117D902BD9E014F0BD
:103C2B0070B8902BDC122FA578101210E07B6D7AF8
:103C3B004E79C67841120F81EF2439FFEE343012E2
:103C4B002EE5E4FBFA7901F812100CEE547FFEE43A
:103C5B00FDFC715F902BDC122FA5EB6FFFEA6EFE64
:103C6B00E8CDEFCDCCEECCECFF902BD61237E1EFBD
:103C7B00120E2D902BD61237E1900001ED120E3F54
:103C8B0090120FE030E606E4F5FF75968075FF01A4
:103C9B00E4F5D5902BDAE0F5F475FF01A3E0F5E43C
:103CAB0091F5902BE0E0B40103D38001C322902E59
:103CBB002191EC7F017C127D01E4FE8D828C83EDE2
:103CCB002EF582E43CF583E02FFF0EEEB412EC9060
:103CDB001213E06F600A902E211237E1E4120E2DC1
:103CEB0022EBF0A3EAF0A3E9F022E4F5FF7584E6FA
:103CFB00F5FF439404F5FF75981422E4F5FF7593D3
:103D0B003F75FF03759A4091F5E4F5FF759C93F5AC
:103D1B00FF75A1A3F5FF758531F5FF758628E5FACB
:103D2B0054304480F5FA75FF0175E74A75FF02754B
:103D3B00DF4975FF0143D30475FF0153D367E4F5E6
:103D4B00FF53E6BF75FF0175D825F5FF75B503F574
:103D5B00FF75B215F5FF75BA02F5FF75AFB3F5FF39
:103D6B0075CD0AF5FF75CB08F5FF75CA12F5FF7512
:103D7B00BF0EF5FF75CC96F5FFF5BDF5FF75C2814E
:103D8B00F5FF75AEE1F5FF75DA55F5FF75F580F5C5
:103D9B00FF75E903F5FF75E933F5FF75972A75FF95
:103DAB0001759B42759CA4759D29759E48759F2432
:103DBB0075A11275A312759AF820450CF5FF439661
:103DCB008090120FE04440F022902AC012117D75B2
:103DDB00FF0243E180F15A124B73902AD5121189DD
:103DEB00002DC6C0E4F5FFF5A490120EF0A3F090E1
:103DFB002AD07402F0F149FFF595EF1460181460A6
:103E0B002624027036902AC0122FA5902AD11211A7
:103E1B007D902ACC8020902AC4122FA5902AD112F3
:103E2B00117D902ACD800F902AC8122FA5902AD1F0
:103E3B0012117D902ACEE0902AD9F0F1DC902AD98C
:103E4B00E0700FF5FFF59675FF0175D70975F4183E
:103E5B00805990120EE004F0902AD0E0F1C9902A1C
:103E6B00D5122FA5902AD1122F8BC31210CF500A27
:103E7B00902AD1122FA5A312117D902AD9E0FF12FF
:103E8B004AD3902ACFE0FFA3E0FDA2469244124B07
:103E9B0021A3122FA5902D9012117D902AD0E0FF17
:103EAB00122EED902AD0122F97F17DF1516002C1A5
:103EBB00007402F0F149F595E5F45407701C902A53
:103ECB00D5122EC378011210E0902AD0E0FB122FEE
:103EDB007D12117DEB122F98F17DF15170D675FF8C
:103EEB0003759580F1C1400343F420A2469245B17E
:103EFB0006902AD5F1D12420FFEE344E122EE5E4A4
:103F0B00FB7A04F9F8122ED378011210E0C2431297
:103F1B0049E0E4F5FFE5BD54F84404F5BD901213F8
:103F2B007401F07E127F01E4FD8F828E83EF2DF101
:103F3B00B9FC901213E02CF00DEDB412EC2275FFCE
:103F4B0003902AD0E022902AD0E0FF14F0EF22E574
:103F5B00FA30E1FB75FC8075FF0153D5EFE4F5FCFE
:103F6B0075FC40F176E5FC20E6FB2275FF03E4F5DA
:103F7B009122902DCE12117D75FF01902DCEA3E0D5
:103F8B00FDA3A3E4FFFEE4FC78101210E08FE19098
:103F9B002DCEA3A3E0FEA3E4FFE4FDFC78081210F2
:103FAB00E08FE2902DCEA3A3A3E0FF8FE322F58257
:103FBB00E43EF583E02290120EE0D39401223333DA
:103FCB003354F8F5F422E0FCA3E0FDA3E0FEA3E0FC
:103FDB002275FF0175E46575FF0175D647229007C1
:103FEB0040E06402701F8F3DAF058F3EAF038F3FE4
:103FFB009004A0E0F533A3E0F534A3E0F535AF3D35
:10400B00120A83D322C3229004ED1211CF1158E56B
:10401B003D120E2D1158E92401F9E43AFAE53E124E
:10402B000E2D9004ED121FBCF9E43AFAE53F120E87
:10403B002D1158E9115EE533120E2D11581165E55E
:10404B0034120E2D1158116DE535020E2D9004ED25
:10405B000211C62403F9E43AFA22E92404F9E43AFA
:10406B00FA22E92405F9E43AFA22E53954F0C4546A
:10407B000F2FFFC3941040027F0FEF90054393FF68
:10408B00227E10EE60091EEE90054393B507F4EE09
:10409B00C3940E40027E0DEE90053593FF229005E2
:1040AB000DEDF0A3EFF07F01120C7290050DE0FF08
:1040BB00A3E0FBE4902CDDF07D0212363F50ECD3F5
:1040CB002251E6F5D1E5D120E0FBE4F5FF75D908E7
:1040DB0071AD71275005E004FF80027F0051F5D2CE
:1040EB004812252AE4F53022C0E0C0F0C083C0821C
:1040FB00C0D075D008C0FF75FF01E5D530E6047F51
:10410B00028009E5D57F0030E7027F018F3AE53A5F
:10411B006402600221B4E5361212DC413F014152C8
:10412B000241A108415D0941680A41760B41960C99
:10413B00000042B175FF0175C355153CE53C6002AB
:10414B0041B175360241B175FF0175C3F075360982
:10415B0041B175FF0175C35575360A41B175FF0144
:10416B00900424E0F5C375360B41B175FF01900443
:10417B0010E0F5C3753601753C08900433122743E4
:10418B0045F0600241B175360C41B1902D2B740690
:10419B00F075360041B1C2EB75360043370471F848
:1041AB00400241B11207F441B1E53A6401600241AA
:1041BB00B17120400241B1E530704451D8E5D912BC
:1041CB000E2D51CCE09004FFF09151912090040FF3
:1041DB00EFF09004FFE0FFD394094053EFD394AA80
:1041EB004002804B9004FFE0F5387131901215EFCF
:1041FB00F075FF009004FFE0F5D975300341B1E590
:10420B00306403600241B151D8E92401F9E43AFA70
:10421B00E5D9120E2D75FF00E5D330E016C39004DF
:10422B001FE094FF90041EE094FF50031207F4115B
:10423B00CC8073C24812252A75FF0051EEF5D1E5EB
:10424B00D120E0FBC2EB43370251C5A3E0FF90073F
:10425B003AE0FEEF6E51C4E090073951BEA3A3E0E4
:10426B0090073B51BEA3A3A3E0FE90073CE0FDEEFD
:10427B006D4F6012C3900421E094FF900420E094F2
:10428B00FF50031207F4C390041BE094FF90041A31
:10429B00E094FF50031207F4753000153851CCE54C
:1042AB0038F0900738F0D0FFD0D0D082D083D0F048
:1042BB00D0E032FEE0FDEE6D4FFF8532828531831B
:1042CB0022E5322407F582E43531F5832275FF01AF
:1042DB00F5EA75EAFF9004130211C6C24812252AAB
:1042EB00E4F5FFE5D154FE440222710443FA04E4E1
:1042FB00F5FF53D1FD43D1012275FF01E5D530E622
:10430B0002C322E4F5FF439A80EF123FC9E4F5FFA5
:10431B00539A7FD322E5F754C024FF22C3EF9403B3
:10432B00EE6480948022E5F45418131313541FFF8A
:10433B00221235EC706B7131902E8CEFF0D394030D
:10434B00505F902C30E0FF902E8CE06F705371B863
:10435B00902E8DEFF07B017A2E798D7D01120B550E
:10436B00902E8CE0242BF582E4342CF583EFF09027
:10437B002C3071B07C007D03120E73AF05EFF07023
:10438B0020902C2EE07002A3E060167B017A2C7932
:10439B002891347B017A2C7928902C2E71E41213FE
:1043AB000622901215E02401FFE433FE22E4FFE520
:1043BB00F754C06002801675FF01E5D530E30D712F
:1043CB00DD50F471D8EF60EF71DD50EB2271EEAF81
:1043DB00D92275FF01E5E43322E0FEA3E0FFF5826D
:1043EB008E832275FF01E4F5EA75EAFF22C3900480
:1043FB0017E094FF900416E094FF2271F85003121B
:10440B0007F422E53720E50951E6F5D1E5D120E0A7
:10441B00FBE4F53022EF24FE600C24FE60058000E7
:10442B007F01227F02227F0322C003C002C0017BD7
:10443B00017A2C792B902CEC1211CFD001D002D019
:10444B00037F03020885E5F75406FFBF06037F08C9
:10445B0022E5F75406FFBF04037F0422E5F7540659
:10446B00FFBF02037F02227F0122C2AFEF4237D28E
:10447B00AF22753601753C07900424EFF0900411C0
:10448B007403F0C374799B900434F0E494009004AB
:10449B0033F022900433E0A3E0FF22E4FFFEFDFCA7
:1044AB0090042691BB90042A91BB90042E02117D9F
:1044BB0012117DE4FFFEFDFC22EF91CD12112002C3
:1044CB00110625E025E02426F582E43404F5832249
:1044DB00900739E0F4FFA3E06FFFA3E06FFFA3E0C9
:1044EB006FFF6455601DEF64056018EF6425601362
:1044FB00EF6445600EEF64656009EF644A6004EF9A
:10450B00B40A010F900410EFF022A2EB923FC2EB22
:10451B007A0479167B017D0CE4FF120858A23F92B6
:10452B00EB22A2EB9240C2EBEBC0E0EAC0E0E9C0A9
:10453B00E07B017A047916902CEC1211CFD0E0F9C4
:10454B00D0E0FAD0E0FB7F0C120885A24092EB2260
:10455B00120B14902D2AE014F06005A3740580054E
:10456B00902D2B7407F002328A902D2BE0FF6406FE
:10457B006004EFB4010312328A227F017E00901790
:10458B00FCE4935EFE7401935F4E24FFB322900014
:10459B0001740193B40007E493B41802C322D3222D
:1045AB00902C2EEEF0A3EFF022EF7011ED6007755B
:1045BB00FF0143AE012275FF0153AEFE22EFB401A2
:1045CB0010ED600775FF0143AE022275FF0153AE7C
:1045DB00FD2275FF02E5E630E2037F0322E5E630BC
:1045EB00E3037F0022E5E630E1037F0422E5E67F6B
:1045FB000530E0027F0122EF600775FF0253E6BF33
:10460B002275FF0243E64022EF14600F146014245E
:10461B000270188B8075FF018DFD228B9075FF0149
:10462B008DC9228BA075FF018DCA22AF038FB07588
:10463B00FF01AF058FCB22902CC61211CFEF146068
:10464B001414601E24027027D188E580D18E1211BC
:10465B00C6E5FD8025D188E590D18E1211C6E5C93E
:10466B008018D188E5A0D18E1211C6E5CA800BD176
:10467B0088E5B0D18E1211C6E5CB020E2D902CC958
:10468B000211C6120E2D75FF01902CC622E4F5FF08
:10469B00AF9122E4F5FFAF922243FB1075FF02436B
:1046AB00E640EF600D75FF02E5E120E7FB43FB0DF4
:1046BB00800343FB0E80FE902DC6F161EBF0F144BD
:1046CB00120383AC00AD01AE02AF03C006C007906E
:1046DB002DC6F159FBAA06E4F9F8D007D006D31280
:1046EB0010B97E0050047F0180027F00C006C00716
:1046FB00F144120383D0E02FFFD0E03E902DC6F0A3
:10470B00A3EFF053ECFC902DC6E0FCA3E0FDEC54C2
:10471B000342EC75FF02EDF5AF75ED0275ED04A3E9
:10472B00E0600543EC08800353ECF7902DC9E06083
:10473B000443EC042253ECFB22902DC6E0FEA3E0D5
:10474B00FBAA06E4F9F87F807E387D01FC22E0C3EA
:10475B0013FEA3E01322EEF0A3EFF0A3EDF0A322E0
:10476B00EF600775FF0243E6102275FF0253E6EF79
:10477B0022E5ED30E2FB75ED04AFEF22E5ED20E035
:10478B00FB8FEF22EF600443EC042253ECFB22EF90
:10479B00600443EC082253ECF722E5ED5402FF22B0
:1047AB00E5ED5404FF22E5ED5401FF22902B71E05F
:1047BB00120E2D902B76E0900001120E3F902B776E
:1047CB00E0900002020E3F902CD5121FCAC007903A
:1047DB002CD51211C6902CD8F1EAD0070216B6E0F0
:1047EB00FFA3E0902A5ACFF0A3EFF022902B73E0B7
:1047FB00FF22E4902B73F022E4F5FF75D102E5D193
:10480B0020E0FBE4F5FFF5D1EF6008E4F5FF43D2C0
:10481B00808006E4F5FF53D27FEB6006E4F5FF439F
:10482B00D104ED6006E4F5FF43D10822E4F5FF75F2
:10483B00D102E5D120E0FBE4F5D1F5FFEF1158EE05
:10484B00540F42D6E4F5FFCFEDCF8FD422F5D7E44A
:10485B00F5FF53D6F022E4F5FFE91158EA540F4265
:10486B00D622E4F5FFEFF5D8E4F5FF53D60FEE545F
:10487B000FC4F854F0C8E4C4540F4842D622E4F5F0
:10488B00FF8FD4F5FFCFEDCF8FD522E4F5FF8FD47B
:10489B0022E4F5FFE5D1540133333354F8FFE4F54B
:1048AB00FFE5D354074FFF22C24275FF03759B1FD1
:1048BB0075FF0390120FE020E71BE59A540FC3948A
:1048CB00024012E04480F0E4F5FF75C2A143FC0402
:1048DB0075FF03D242E5FC30E609E59A540FC39409
:1048EB000540CDE5FC30E611E4120E2D75FC80F58C
:1048FB00FC75FC40E5FC20E6FB304203123F28220E
:10490B00E4902DD2F0A304F0E4902DD5F0E5FA302D
:10491B00E1FB75FF01E5D530E7037F0022E4F5FFEE
:10492B0075E50875FF0153D8EFE5D530E61A75FF2D
:10493B0001902DD4E5DAF0E4F5DA75FF01E5D63018
:10494B00E3FB902DD57401F075FF03759B0475FC8B
:10495B004175FF03E59B30E7FBE4FB75FF038B958C
:10496B00EB122F98123F7D0BEBB403EF75FF037522
:10497B009580E4F5FF758EC81237B975FF0153D5D5
:10498B00FB123F7612375975FF0143D504902DD595
:10499B00E07008123F767FC812375B7B017A2D7966
:1049AB00D311B3902DD3E0902DD27006E04404FFC9
:1049BB008002E0FF902DD2EFF090120EE0B40106D2
:1049CB0075FF0143D81075FF01902DD4E0F5DA90F7
:1049DB002DD2E0FF22902B2412117DE4F5FF75BB45
:1049EB000575BB8575FF0175D5022043097F3FFE19
:1049FB0012375D1237B975FF0143D52030430241A1
:104A0B00ACE4F5FF538EF7438E077D04E4F5FF8D81
:104A1B00BCF5FF43B102E5B130E2FBE4F5FFAFDFDC
:104A2B00EFFEACDEECFBEBFFED25E02422F582E4A0
:104A3B00342BF583EEF0A3EFF0E4F5FFF5FF53B164
:104A4B00FD0DEDB40CC6902B24122FA57809121076
:104A5B00E0A3EEF0A3EFF0E4FDED25E0242CF582CE
:104A6B00E4342BF583E0C313FAA3E013FB51C61216
:104A7B0047592BFFEE3AFE51C6EEF0A3EFF0ED24B3
:104A8B000490120DF0EDC394075016CFEDCF0DEF40
:104A9B0051C7121FF4902B29E09F902B28E09E50BA
:104AAB00B8E4F5FF758EC8F5FF90120DE0F5BCE488
:104ABB00F5FF75BB8075FF01F5D522ED25E0242AA6
:104ACB00F582E4342BF58322EF30E00E43F401E45E
:104ADB00F5FF43A404F5FF759624EF30E10E43F484
:104AEB0001E4F5FF43A408F5FF759624EF30E209C6
:104AFB0043F402E4F5FF75961EEF30E30943F4042B
:104B0B00E4F5FF75961075FF01EF5403600475D73C
:104B1B00122275D72D22CCEFCCCFEDCF74017E00B6
:104B2B00C8EFC8088005C333CE33CED8F9FFCDEC20
:104B3B00CDEF5D601B30441875FF0175DCAD75FF63
:104B4B000175DDCDE4F5FF759A74F5FF759484223C
:104B5B0075FF0175DC5375FF0175DD33E4F5FF75EA
:104B6B009A14F5FF75940422718D53DB7F75FF0149
:104B7B0075D502123759718D43DB8075FF01E4F552
:104B8B00D52275FF01438E1075FF012275FF01E5DC
:104B9B00D530E602C32253FACFEFB4080543FA30FF
:104BAB008012EFB4040543FA208009EFB4020543E9
:104BBB00FA108000D322EFB40109D2AD75FF014387
:104BCB00AE4022C2AD75FF0153AEBF22E5C8540201
:104BDB00FF75C80222E5C85401FF22902B7EEFF02F
:104BEB00A31211CF902B897403F0902B86E05457AE
:104BFB00FFF0A3E0FDA3E0902CAFCDF0A3EDF0917F
:104C0B00E1902CB41211CF902B85E0902CB2F09048
:104C1B002B7F1211C69003E61211CFEF4420902C7C
:104C2B00B1F0E4902CB3F0C222F54D902B7F121112
:104C3B00C6AF4D1208A88F4DEF601E7D03120A60A0
:104C4B0040E9AF4D120A5B5008902B897401F0803C
:104C5B0008902B897402F080D2902B85E0D394813D
:104C6B0040037F00227F02120AA1902B8A1211CFE0
:104C7B00EA494B605E902B7EE0FF902B8A1211C6A7
:104C8B00E924B61233FC902B86E0FE30E01DE49055
:104C9B0003F7F091E7EE6401A3F0A3742CF074AC6E
:104CAB0091F091E1902B89E0FF8020902B89E0FF20
:104CBB0091E7902B86E0900473F0902CAFE0FDA36E
:104CCB00E0900474CDF0ED91F091E17D02120B2890
:104CDB007F01227F0022902B820211C6902B85E050
:104CEB00900472F022A3F0902B8A1211C6900476D6
:104CFB000211CFC003C002C001902C181211C69034
:104D0B002B821211CF902C1BE0902B85F0902C1C3A
:104D1B00E0902B86F0902C1DE0FFA3E0902B87CF2B
:104D2B00F0A3EFF0D001D002D003AF1F61E6E4FF98
:104D3B003025037402FF22200005D21502099DC302
:104D4B0022902EECE0701C7BFF7A04796D7D231290
:104D5B000AC47BFF7A0479567D17120AC4902EEC95
:104D6B007401F022902EEBEFF07B017A2E79EB7D24
:104D7B0001121FFB7F0122902E871217A1E4FF90D7
:104D8B002E871211C68F821217DB0FEFB410F02291
:104D9B0075FF01E58F5408FF22EFB4010775FF0182
:104DAB0043AE202275FF0153AEDF2275FF01E58F65
:104DBB005401FF22EFB4010775FF014391202275C7
:104DCB00FF015391DF221211CF902B1BE0540F22C6
:104DDB00902BCF1211C6902BD4E0FFA3E0902C3870
:104DEB00CFF0A3EFF0902BCB12112012071D902BBD
:104DFB00D4E0FEA3E0FFC3902BD3E09FF0902BD227
:104E0B00E09EF0902BCB12113CE4FCFD120F749042
:104E1B002BCB12117D902BCF0211C6F9E43AFAE499
:104E2B00020E2DE0FFA3E090044ECFF0A3EFF02293
:104E3B00FDEF4DFFE5F08FF0020F55F0A3F0A3F05F
:104E4B00A3F0222408F9E43AFA221211C6EA494BDC
:104E5B00227B017A07793922F9E43AFA740122F9B3
:104E6B00E43AFAEE020E2D74FFF5F0120F1445F032
:104E7B00228F828E837F060213067F021227DD901C
:104E8B000737E090073FF090073704F0C3940222F6
:104E9B00AC02AD01902AEFECF0A3EDF0902AE9E023
:104EAB00FAA3E0FB22902AE9E0FEA3E0FFD3902ACD
:104EBB00ECE09F902AEBE09E22E4120E2D0429F9E0
:104ECB00E43AFA22A3E0F8A3E0C39DFEE89C902C01
:104EDB00D1F0A3CE2224BEF9E43AFA22FEAF017B35
:104EEB00017A2D798022C3902AEAE099FF902AE972
:104EFB00E09ACF24FE22E0FFA30211C6EFC454F0C8
:104F0B00FF0211C69029D0E0FEA3E0FFD39400EE80
:104F1B00940022A3F0E4A3F0A3F022E92406F9E421
:104F2B003AFA22E0FFA3E0902C41CFF0A3EFF0225E
:104F3B00902AE9E0FCA3E0FD29FFEC3A227B017A01
:104F4B0027791022E0FFA3E0902BD2CFF0A3EFF054
:104F5B0022FF8D828C83021306E99582EA958322C8
:104F6B00902AEAE029FF902AE9E03A22AF03EAF01F
:104F7B00A3EFF022C39029D1E09FF09029D0E0223B
:104F8B0029F9EC3AFA120D6EFEEF22F09027F1742C
:104F9B0001F02275F005A424F3F97400227407F0D4
:104FAB00E4A3F022EEF0A3EFF04E228F828E837FEC
:104FBB00020213068F828E837F05021306902AE668
:104FCB00E0FCA3E0FDC32274FF120DD8020D6EF9B5
:104FDB00E43AFA1211E4E9227B017A2D79837F02FC
:104FEB0022F9EA34FFFA020D6EE0FF902713F07BF3
:104FFB000122EEF0A3EFF07B01222DF582EA3CF5C6
:10500B0083227438F0A3741FF0227401F0AE04AF46
:09501B000522AA06A907021302EE
:107F7E000200022B162FCF02043D022FD12FFF003D
:107F8E00330405220230043806080705052202389C
:087F9E000B38190013FF052246
:107FB000FFFFFFFFFFFFFFFF7FC600000000000084
:067FC000000003080000B0
:10800000EF547024F0602624F0603C24F060522489
:1080100030706730490B117E8002C333D8FC428038
:1080200022117E8002C333D8FCF452802230490BE7
:10803000117E8002C333D8FC429022117E8002C39D
:1080400033D8FCF452902230490B117E8002C333A6
:10805000D8FC42A022117E8002C333D8FCF452A087
:108060002230490B117E8002C333D8FC42B022116A
:108070007E8002C333D8FCF452B02275FF01EF5466
:1080800007FF7401A8070822EF547024F06017243A
:10809000F0601E24F060252430702B117B8002C319
:1080A00033D8FC42FD22117B8002C333D8FC42C985
:1080B00022117B8002C333D8FC42CA22117B80028A
:1080C000C333D8FC42CB22EF547024F0601824F064
:1080D000602024F060282430702F117B8002C3338D
:1080E000D8FCF452FD22117B8002C333D8FCF45239
:1080F000C922117B8002C333D8FCF452CA22117BFF
:108100008002C333D8FCF452CB22902E3C122C7C3C
:10811000EDF0E0FF14F0EF7002C32212D7981216B0
:108120004CAD07305010902E3EE0117F8002C333DB
:10813000D8FC4DFD800F902E3EE0117F8002C333AE
:10814000D8FCF45DFD12D798021F3690276BE0FF34
:10815000902ED0EFF0E51BB51F03D38001C350096B
:10816000902ED012B5F530E70F7E1F7FCA902ED02B
:10817000E0FDD250310AC219902709E0700A0412BA
:10818000D53012CE9312CDD422902ED9EFF0C00369
:10819000C002C001A801AC02AD03D001D002D003DF
:1081A0007E007F13120D4890276AE01212DC81D9FD
:1081B00001826D02849B0384B004842605844806F2
:1081C000846E0784B50884D10984E50B85190C8574
:1081D000040F84D71000008542E4902743F0301E3E
:1081E00033124DD46401702C90276BE064EF70174C
:1081F000902770E020E71012AF70600B90276CE0C2
:10820000FF121F4C12A4A490276BE0B4EF06A3E06A
:10821000FF12D359C206E4902710F090276A740227
:10822000F09026BDE0FFB4030A90276CE090276B26
:10823000F0800FEF640160079026BDE0B4020312E6
:10824000A7599026BDE07F06B403027F01902691D6
:10825000EFF0902743E0FFD1E290044C740112BD8F
:10826000F8AD1F120B2DEF6002A14261F7E49026DA
:10827000EAF0902ED9E070026115902691E014F09A
:108280006012D1E290044C740112BDF8F1816002D9
:10829000A14261F79026BDE064036002611C902753
:1082A0006AF0902770E020E75F90276CE0FF12D320
:1082B0005990276CE0FF7D0112A6E820170512AF48
:1082C00070604A90276CE0FF121F4C12A4A4301972
:1082D0002B300C28E51B6024651F602012D36C90A6
:1082E000276CE0902712F090276A7405F0D1E29095
:1082F000044C7409F1726002A14261F720190E90DA
:10830000276CE0FF31508005E490276CF090276CDB
:10831000E0FDA381409026BDE0B40307E4FBFD7FB0
:1083200023819812D8316007EF64026002A1429065
:10833000276BE0FFF1CF90267AEFF090276B129E2B
:108340002712A4A490276BE0FD12BFDBFB7F211254
:10835000C64420190261FA200C0261FAE51B700282
:1083600061FA90276BE0651B700261FAE51B651FDF
:10837000700261FA90267AE060079026C2E030E150
:10838000797406129FE5740D12D28890276DE090E3
:108390002740F024FEFF1297B2F1977A277913F164
:1083A000A3902714E020E10D12D77412D786F1971D
:1083B0007A2719F1A3B1EF12B02F902740E004FF04
:1083C0009026FCF012D6B112A540E94A7019902609
:1083D000FCF090276A7406F0D1E2902740E004F1A7
:1083E0006F6002A14280109026FCE0FF124F48F11E
:1083F00097B1EFF1A3314B02D275201902314B1224
:10840000CD686002A14290276BE0FD12BFDBFB7FCD
:108410002212C64430170990267AE0600302D7453D
:10842000E490276BF02212D7B0700B90276BE0FF1F
:10843000B1BF30020322314B90276BE0FD90276DD6
:10844000E024FBFB7F21805012D7B090276B700691
:10845000E0FFB1BF8004E0FF315012CD686002A19F
:108460004290276BE0FD12BFDBFB7F22802A902E1B
:10847000D9E0701590276BE0FF12C582EFD394020C
:108480004009E4902B1BF08002314B124DD4700355
:1084900012B7AD12BF0D7F2202C644D1DB12B8372E
:1084A0002406FEE433902771F0A3CEF07F2F8024C2
:1084B00012D7BA801FD1DB12B83725E0FFE433FEB4
:1084C000EF2407FFE43E902771F0A3EFF07FB48024
:1084D0000312D7BA02D0BA12BE5C7E097FB6E4FBA3
:1084E0007D14023042902ED9E070177C097DFC7417
:1084F0001412D7CEE4A3F012CDD490270FE070422F
:108500008014801212D7B0700DB1BA7C097DF712B9
:10851000CEE5E4A3802102A90B902ED9E0701C9037
:10852000276A740DF09026EE7480F07C097DBB7490
:108530003E12D7CEA374FFF002CDD4E490276AF0A8
:10854000B1F522AD07ED547024F0602024F06033C3
:1085500024F0604324307054B1AE8005C333CE3371
:10856000CED8F9AC8012D7ED6001D322B1AE800530
:10857000C333CE33CED8F9FFAC90ECFBEF5BC360D6
:1085800001D322B1AE8005C333CE33CED8F9ACA02F
:1085900012D7ED6001D322B1AE8005C333CE33CE06
:1085A000D8F9FFADB0EF5DC36001D322C322ED5413
:1085B00007FF74017E00A8070822902680E0FF9044
:1085C0002ED1EFF0FD7E1F7FCAC250310AB1EFE914
:1085D0004A601B1296D8FF902ED1E0B50710B1EF7C
:1085E00012B02F121F4C12A540E49026FCF02290EE
:1085F00026EB0211C6124DD46003C202227F011283
:10860000068912B8AE301902C1D9D23B1200362009
:108610000205E4902680F0D202902680E004F0D398
:1086200094E84002C1D67E1F7FCAE0FD12CEA8406A
:1086300002C1D1E51B7004B1BAC1D6E51BB51F0755
:10864000902680E0FFA1BF90276A740BF0B1EFE99C
:108650004A601F1296D8FF902680E0B50714902636
:10866000FCE0FF902740F0B1EFF197124F48F1A3E3
:1086700080539027407409129FE8740DF090268073
:10868000E0FF902712F0F1CFEF6028902680E0FF06
:10869000D1DB129AAF902714E020E11E902740E032
:1086A00014F012D786F1977A2719F1A3E4902718CE
:1086B000F08007D1DB7D05129FCDE4902719F09063
:1086C0002740E004F0D1E2902740E0F16F700A808B
:1086D00005120709C11912A90B22F07B017A27792B
:1086E00013227B017A2779109004490211CF7D0370
:1086F000AF1C902E9EEFF0A3EDF030071D9026F7F3
:10870000E0B40E0B121F4CE4FF12A901D207229015
:108710002E9FE06404605102A8DCD20712C7E77400
:108720000BF0902E9FE090268FF09026F7E0640EDD
:10873000701B12C735D1E812C4387409F0740C12DA
:10874000D851F1817022FBFAF9FF02A90112C73555
:10875000D1E812C4387409F0740712D851F181704D
:1087600007FBFAF9FF12CF9922902713E024049017
:10877000044CF0A37405F0A3740AF0A37401F0ABE9
:108780001BAD1FE4FF120B2DEF22902B9B1211C685
:10879000E92403F9E43AFA902CEC0211CF7A267915
:1087A0007B7F05902CE91211CFAE071FEE601F9062
:1087B0002CEC129FD6FE902CE91211C6EE120E2D53
:1087C000902CEA1207F4902CED1207F480DB22EFD4
:1087D0006005D394E840037F0022EF75F005A424E0
:1087E000F6F97400021647902B9B1211CF902B9E26
:1087F000EDF07401C39D40030296C7902B9F129F1A
:10880000D6902BA2F0E924011296DB902BA4F090D5
:108810002B9F1296D5902BA3F01238F740FB12072E
:1088200009902B9B129FD6FFC394204032EFD39424
:10883000FF502C902B9EE0FD949E5023902BA2E0A5
:1088400030E7030296C71296D8902B1EF0902B9F0C
:108850001211C6902D161211CF1296E7020C6390DA
:108860002B9B129FD6640160030296C7902BA2E057
:1088700030E6030296C7E924011296DB1212DC8A65
:1088800010018ED3028EE403903E0490DB058D3EF2
:10889000068C74078F65088F82098FD80A8FE80BC2
:1088A00091420D92DA0E90320F94DD109373119471
:1088B000641293DA13953E1588CB169666198FF4D9
:1088C0001A897A1F89E920000096C7E51B651F7089
:1088D0006E12CAB2EF70030296C79026F7740BF0BF
:1088E0001296D27A27794D12B70AD2051296D2FF84
:1088F00012BEDC1296D2FF90276B1297B1129AAF7C
:1089000090276F7405F09026F57409F0A374C0F0F9
:108910009026BD7402F01296D2FF902BA4E0B5070A
:108920000CAD1F12A766121F4CE4FF804A1296D2AC
:10893000FF902BA4E0FD12A76612D3AD0230429047
:108940002708E020E0030296C7E51B70030296C7E4
:108950001296D290276B129FE8741612D288128654
:10896000E212C4387409F0A374CF12877E60030248
:1089700096C7FBFAF97F0202D3B6129FE97420F082
:108980001296D27054902712F0A304F012979E1200
:1089900096DBFF33333354F8902BA5F01296E71291
:1089A0004065902BA512AFCB7025902BA512AF730D
:1089B000601D902BA5E0FF121F4C12A4A4902BA5C4
:1089C000E0FD121F4CE4902D79F07F20120C6D9089
:1089D0002BA5E014F070C58005E4902713F01286F3
:1089E000E212C6D1A3040296BB9026F7E070030200
:1089F00096C712D71512979E1296DBB4010B12BCC4
:108A0000C112BC48AD18121F367D02AF1C0296631E
:108A1000902B9EE0C39406E4940050030296C79006
:108A20002741E0FF60209026BDE0B40314902BA204
:108A3000E030E7030296C7902BA4E0FEEF6E6006DD
:108A400022E4902741F01296D25407C394035009B0
:108A50001296E7E92404124E26124DD464017018D0
:108A6000301E1512979E1296DB5406FFBF020912A4
