:020000040000FA
:100000000202DF0218034100E0002202180B222244
:0100100022CD
:07001300021813E4FFE1D223
:07001B0002181B75C8012249
:030023000218239D
:03002B0002182B8D
:030033000218337D
:03003B0002183B6D
:030043000218435D
:03004B0002184B4D
:030053000218533D
:03005B0002185B2D
:030063000218631D
:03006B0002186B0D
:10007300021873BB010689828A83E0225002E722B9
:10008300BBFE02E32289828A83E49322BB010CE54F
:100093008229F582E5833AF583E0225006E9258239
:1000A300F8E622BBFE06E92582F8E222E58229F57D
:1000B30082E5833AF583E49322BB010689828A832E
:1000C300F0225002F722BBFE01F322F8BB010DE53B
:1000D3008229F582E5833AF583E8F0225006E92583
:1000E30082C8F622BBFE05E92582C8F222C5F0F8D4
:1000F300A3E028F0C5F0F8E582158270021583E0CD
:1001030038F022A3F8E0C5F025F0F0E582158270FF
:10011300021583E0C838F0E822EF2BFFEE3AFEED3C
:1001230039FDEC38FC2275F008758200EF2FFFEEE5
:1001330033FECD33CDCC33CCC58233C5829BED9A10
:10014300EC99E58298400CF582EE9BFEED9AFDEC6E
:1001530099FC0FD5F0D6E4CEFBE4CDFAE4CCF9A8B4
:100163008222B800C1B90059BA002DEC8BF084CFBC
:10017300CECDFCE5F0CBF97818EF2FFFEE33FEED93
:1001830033FDEC33FCEB33FB10D703994004EB99BD
:10019300FB0FD8E5E4F9FA227818EF2FFFEE33FED0
:1001A300ED33FDEC33FCC933C910D7059BE99A4005
:1001B30007EC9BFCE99AF90FD8E0E4C9FAE4CCFB1D
:1001C3002275F010EF2FFFEE33FEED33FDCC33CC71
:1001D300C833C810D7079BEC9AE899400AED9BFDFA
:1001E300EC9AFCE899F80FD5F0DAE4CDFBE4CCFA0D
:1001F300E4C8F922EF5BFFEE5AFEED59FDEC58FC23
:1002030022EB9FF5F0EA9E42F0E99D42F0E89C451F
:10021300F022E8600FECC313FCED13FDEE13FEEFC9
:1002230013FFD8F122E8600FEFC333FFEE33FEED87
:1002330033FDEC33FCD8F122E0FCA3E0FDA3E0FEA8
:10024300A3E0FF22E0F8A3E0F9A3E0FAA3E0FB2296
:10025300ECF0A3EDF0A3EEF0A3EFF022A8828583E8
:10026300F0D083D082120276120276120276120244
:1002730076E473E493A3C583C5F0C583C8C582C878
:10028300F0A3C583C5F0C583C8C582C822E0FBA31C
:10029300E0FAA3E0F922F8E0FBA3A3E0F925F0F0EC
:1002A300E582158270021583E0FA38F022EBF0A3A1
:1002B300EAF0A3E9F022D083D082F8E493701274B9
:1002C3000193700DA3A393F8740193F5828883E4DB
:1002D300737402936860EFA3A3A380DF75812F0279
:1002E3000855900A1951B0AE071FEE6012900A1C10
:1002F30071031176FE900A197103EE11BC80E82296
:10030300E475F0018090900A54EEF0A3EFF09000B2
:100313004FE064016002619BC3900A54E09408506B
:100323000BE4FF914F900A54918380ECE4F50DFBAD
:1003330071C4AF0C121010E50DC39408504771C27D
:10034300E50D7F0071BCEF29F9EA3EFA900A1C51D2
:10035300B07B017A0979007FFF51E5E50DFEE424C6
:10036300FFFFE43E71BC8F828E83118F9009FFF0F3
:100373007B017A097900900A3DE50DF0AD0C12106E
:1003830037050D80B2900050513BE42FFFEE340847
:10039300919490005002167F900054E0FEA3E0FF7A
:1003A30071BD900A54E0FDA3E0900A05CD120AA89E
:1003B300900054EEF0A3EFF022FE90200141907BD9
:1003C300007A00791091D175FF031176F5D375FF8B
:1003D3000390000171EF90000271EF90000371EF41
:1003E30075D40175FF03E5D55402FF22118FF5D3B0
:1003F30075FF0322900A33E0FEA3E0FF912D914F96
:10040300900A35513BEF24019191900A3551539055
:100413000A589149900A58E07002A3E0700BFF7EDE
:1004230008710991DFF01215FD2291B3CD24FFCDA0
:1004330034FFFCC3ED9FFFEC9E541FFE74082F9105
:10044300E8FF22900A1374FFF5F001F091B3541FF3
:10045300FC74082DF58274203CF583EFF0902006A0
:10046300E0B42019A3E0B40014902005E02401FFB8
:10047300902004E03400541FF0A3EFF022902006F4
:10048300E475F00101F09000CE513BEF241BFFE433
:100493003EFEE43DFDE43CFC2291C7EF2401919133
:1004A300120C867404F0D1E3918991CC91F1F0227E
:1004B300902006E0FCA3E0FD902005E02DFD9020B8
:1004C30004E03C229000CE413B900087415375FFEE
:1004D3000375D40222900A17E0FF8101900A587431
:1004E30008F0A3E422F58274203EF583E022900015
:0704F300817408F0A3E4226C
:10050800AEFFEE54CFFEEFC454F024804EF5FF2228
:10051800D119EF541FFFF1E0A37401F01215C09038
:100528000A10E0FCA3E0FDAE047805CEC313CE1399
:10053800D8F9FF900A13EEF0A3EFF0ED541FA3F0E3
:10054800A3E4F0900A33F0A3F0C3900A11E09420DA
:10055800900A10E09400407C9146900A15E0FEA3B2
:10056800E0FF900A33EE8FF011F0900A13E0700468
:10057800A3E06406700AD119900A13E48FF011F011
:10058800D119900A33E48FF011F0120DB2EF600424
:10059800F1DE8005E4900A12F0900A33120FD2704F
:1005A8001D912D900A17EFF0910191D891D8900ADA
:1005B80013E07002A3E0604791D8914680F071F78C
:1005C80071F771F7900A13E07002A3E0603171F7D8
:1005D800914680F0900A109183800A900A10E0708A
:1005E80002A3E0600BD1199101900A10914980EBA8
:1005F800120DB2EF6004F1DE8005E4900A12F0906B
:100608000A12E06002A12712166E7109900A35419C
:100618003B900081E0B4082DA3E0B40028120DA59A
:100628007B017A0179009000FD7408F0A3E4F0D111
:10063800E3120DA5E42FFFEE3408919491CCE490D9
:100648000081F0A3F0900083120E8990008351532B
:10065800900081E475F0013106FE740025F0F58202
:1006680074013EF583E0FF229000ED51539000F1B4
:1006780051B0110FF134EF6004111080F7120F7CA4
:1006880060099000ED513B7810D1D89000EDD1D49D
:100698009000ED513BE480279000F4120FD945F00B
:1006A80060219000F15190EA494B60119000F1519E
:1006B800901176FFD1DB9000F2918380DBE4FFD1CB
:1006C800DB80D5F1CD9000D77401F022513B78083A
:1006D8005115E4E5C820E2FB8FEB229000F6515358
:1006E8009000FA51B0110FF134EF6004111080F747
:0806F800F1EE120F956009906C
:1007000000F6513B7810D1D89000F6D1D49000F685
:10071000F1E99000FD120FD945F06011F1889000C9
:10072000FA5190EF11BC9000FB918380E5120EF915
:10073000E4FFE1D27F01F1D23002161212D2F18829
:10074000900A5DEFF0120EF9900A5DE020E002C21F
:1007500002300219F1779000D4EF1212DA600BA385
:10076000E0F46006EF30E702C202120EF9E4FFF196
:10077000D2A202E433FF22F1F77FD7D1DB7FFFD192
:10078000DBF18C9000D3EFF07FFFD1DBE5C820E2F6
:10079000FBAFEB22900A3E5153110FF134EF60048E
:1007A000111080F7F1EE120F956009900A3E513B4F
:1007B0007810D1D8900A3ED1D4900A3EF1E9F18860
:1007C000900A42F1CB900A42E0FF22EFF0120EF9BC
:1007D000E4FFEFB4010443FE202253FEDF22D119CF
:1007E000900A10E4F0A3EFF022513BE4C1DB7F015B
:1007F000F1D2F1F77F03229000D8E051B908190433
:10080000082114082615082B17083B300840340827
:100810004536084A3700000833531AEF851A80809E
:100820002F531BEF8008531BDF8003531B7F851B57
:1008300090801D531CDF851CA08015531DFE800D6C
:10084000531DEF8008531DBF8003531D7F851DB0CE
:100850007F0CDFFE2275FF03759E029017FAE4936A
:10086000900A51F075FF02E5E654036002419F755E
:1008700010DE7511AD7512BE7513EFC2AF75FF02B4
:1008800075E404F5E4751AFF751BFF751CFF751DF3
:10089000FF7516FF7517FF7518FF7519FF75FF02B5
:1008A00053E6BF91B6121102B108EF640160024134
:1008B0009690180893FE740193FF90007FEEF0A3CA
:1008C000EFF0F5828E83E493FE740193FFC3EE9400
:1008D00080500280047E807F008E148F159193FFDC
:1008E000F5828E83740293F51E740393F51F7404CE
:1008F00093F508740593F509740693F50A74079344
:10090000F50BC201EF4E700221F4EFF4FFEEF44F4D
:10091000700221F4E514451EFEE515451FFFE508AC
:100920004EFEE5094FFFE50A4EFEE50B4F4E700205
:1009300021F4E51FF4FFE51EF4FEE515F4FDE514D2
:10094000F44EFEED4FFFE509F4FDE508F44EFEEF31
:100950004DFFE50BF4FDE50AF44EFEEF4D4E70023F
:1009600021F47F03120508E50B24FFFFE50A712B34
:10097000640370247F02120508E50924FFFFE508DF
:10098000712BB402137F01120508E51F24FFFFE558
:100990001E712BB40102D2012001597F01120508FA
:1009A000713F900A05E51EF0E51FB1AB71207F0293
:1009B0007134900A05E508F0E509711E7F03713472
:1009C000900A05E50AF0E50B711E7F0112050890FB
:1009D0000A52E0FEA3E0FF7BFF7A187900E42515B8
:1009E000900A06F0E51434E8900A05711F4EC370B2
:1009F00001D39201300109D159EF6401600241969F
:100A0000D2001204C77B017A007964918C741BF0C8
:100A10001206E3900064E0B4800B71D3EF7006120D
:100A2000161BEF6002C20030006830011A9193F586
:100A3000828E83740C93FE740D93FF90007DE06EA4
:100A40007003A3E06F604B90005012025F0000182B
:100A5000001204C71204CCB1A5EF24011204919135
:100A6000867404F01206E390008712048C900087CD
:100A700012167F1204F1F090004F04F01205187462
:100A800040D3950C400C1203C2AF0C121010050C91
:100A900080EDE4FFB1D4E4F510F511F512F5130281
:100AA0001800E0FD900A05E4F0A3EDF0900A00EED6
:100AB000F0A3EFF0A31202B0900A05F1D945F0605F
:100AC00054900A02120290120076900A07F0900ADF
:100AD000031204837D80ED60DF7115EE7C0030E74A
:100AE000027C01900A07E05D7B0060027B01EB6CF9
:100AF000FCEF25E0FFEE33900A00F0A3EFF0AF0427
:100B0000EF600C900A00E06410F0A3E06421F0EDC7
:100B1000C313FD80C1900A00E0FEA3E0FF22A3F012
:100B200051AC900A52EEF0A3EFF022347F8F82F5A1
:100B300083E49322120508900A52E0FEA3E0FF7BB3
:100B4000FF7A80790022900000EEF0A3EFF0A3126C
:100B5000023B900008120253900006E0FFA3E090D1
:100B6000000CCF805F90000CF1D2605EC3EF944028
:100B7000EE94004006A37440F0800590000EEFF064
:100B8000919BE0FF918CEFF090000812023B12065F
:100B9000E390000EE0FFC390000DE09FF090000C8A
:100BA000E09400F090000812024790000EE4FCFD73
:100BB000FE12011C90000812025371CA919B51A2AF
:100BC000900000EEF0A3EFF0809B900000E0FEA309
:100BD000E0FF221204C79180900006E4F07405B192
:100BE000AB9175C006C0071204C7EF240712049129
:100BF0009180900006E4F0A37414F0D007D0069121
:100C000075C006C007120489918091A540067EFF39
:100C10007FFF800690006512023B900006EEF0A375
:100C2000EFF0D007D006917591A540301204C7EFC0
:100C3000241AFFE43EFEED3401FDE43CFC9180907B
:100C4000006512023BEF2401FFE43E900006F0A392
:100C5000EFF0900A56E0FEA3E0FF9175900069E086
:100C6000FEA3E0FF900A56E06E7003A3E06F7F00E2
:100C700060027FFF227146900A56EEF0A3EFF02249
:100C80009000020202537B017A0079839000FDE418
:100C9000F0A32290007FE0FEA3E0227B017A00799E
:100CA0000F90000E22E47FFF7EFFFDFC9000651296
:100CB0000247D3020204E4900A5EF0900A5EE0FF6D
:100CC000D3946F501EEF2410FFB1E6900A5EE0FE51
:100CD000E42EF582E4344FF583EFF0900A5EE004F1
:100CE000F080D87B017A4F7900900A05E4F0A37474
:100CF00070F07F0F7E1D51ACEF4E7F0070027F01C0
:100D0000901218EFF024FF22E49000D2F07B017AD9
:100D10000079BD1213429000BFE0FF7411D39F50C1
:100D20005DE4FFFEFDFC7B017A0A794F9000FDF047
:100D3000A37402F01206E3900A4FE0FEA3E0FFE482
:100D4000FCFDB19F1204C7EF2402120491B19F125F
:100D500015619000CE1202471201F7900A4DEEF095
:100D6000A3EFF09000CE120247900A4D12154FFEED
:100D7000E4FCFD12011CB19F9000D27401F09000C0
:100D8000D2E0FB6017E4FFFE7D02FC9000BFE02490
:100D9000EFF9F81202289000B7120253AF03229025
:100DA00000CE02025390008702023BA3F07F0F7E29
:100DB0001D22E4FFFEFDFC90008391AF7F00400206
:100DC0007F01227F0F7E1D51A4900A0C1202909089
:100DD0000A0F41A2AB07E4FF9000D2E06007D18682
:100DE000D19DE433FF2275FF03E4F597F1E7E59722
:100DF00020E1FB75FF03AF9922900A48EFF0A3EDC5
:100E0000F0A31202B0900A49E06046901218E06028
:100E100012900A48E02410FFB1E6900A4A120290AC
:100E2000EF8017900A48E06401900A4A70071202A6
:100E3000907480800512029074FF1200BC900A4BDF
:100E4000120483900A49E014F0900A48E004F0800C
:100E5000B4227D01B1F97B0122E49000FFF0900003
:100E6000D2E0601C9000B712023BE4FBFA7902F872
:100E7000D3120204500AD1861207949000FFEFF0BB
:100E80009000FFE0FF229000CE12023BEF24FFFF14
:100E9000EE34FFFEED34FFFDEC34FFFC22900A47F8
:100EA000EBF0900A43120253900A4312023B1207DE
:100EB00094900A47E06F603C12000F120734EF6015
:100EC0000512001080F5F17C600B900A4312023B82
:100ED00078101206D8900A431206D4900A431207DB
:100EE000E9900A47E0FF1206DB1207CD9000D774A5
:100EF00001F0D322C3221206DBF1CCEF70FB90008D
:100F0000DAE0F4600A900A5A7406F0F17470FC900A
:100F100000D8E01202B90F32040F3A140F3F150F38
:100F200044170F54300F59340F5E360F63370000EB
:100F30000F4C431A10851A80802F431B10800843E2
:100F40001B208003431B80851B90801D431C208534
:100F50001CA08015431D01800D431D108008431DFA
:100F6000408003431D80851DB0900A5A740CF0F137
:100F70007470FC22900A5AE014F0E0227F011207FC
:100F8000D2D2021207F77F061206DBD1F91207F759
:100F90009000D6E0FF1206DB9000D9E06402221236
:100FA000000F120734EF600512001080F57F011268
:100FB00007D2D2021207F77F06D1F61207F77F0198
:100FC0001206DB7F03D1F6E4FF0207D2E5C8540422
:100FD000FF22E0FEA3E0FF4E2274FFF5F0020106BF
:100FE000AB05E4FCFDC19D75FF038F9875FF0322DF
:100FF00075FF03759701F1E7E59720E1FB75FF03A6
:10100000AF99221204D175FF03E5D5F45402FF22F3
:1010100075FF03EF543F4480F5D1E5D520E20AE5A2
:10102000D520E005E5D530E1F1E5D55403FF75FFA6
:101030000375D5050204D175FF03ACD5EC20E13C66
:1010400075FF03ED543FF5D175FF03E9F5D375FF47
:1010500003EA540FFF900A3DE0C4547044804FF5FA
:10106000D2E5D520E205E5D530E0F6E5D55401FC22
:1010700075FF0343D40275FF0375D505AF04227FC6
:10108000011207D2900A5B7401F0900A5BE06032B3
:1010900051D2120788900A5BEFF0120EF91207770F
:1010A0009000D4EFF0120EF9900A5BE0540151DA8F
:1010B00060D8A3E0F460D3EF30E7CFE4900A5BF0B0
:1010C00080C81207F77F9F1206DB1207889000D5B1
:1010D0001207869000DA1207869000DB1207CB9089
:1010E00000D3E0F4601BA3E0F460169000DAE0FDAA
:1010F000541F240FA3F0EDC413540744809000DA6A
:10110000F0227B017A0079D87F03120E527A00799F
:10111000E17F08120E527A0079DE7D027F09120DFE
:10112000F97B017A0079DC7D027F0B120DF99000CA
:10113000DC120FD26006BEFF1BBFFF189000E1E07B
:1011400024FD600304700451C880099000DCE4F0C1
:10115000A37440F09000E1E024FD60030470089067
:1011600000D97403F080069000D97402F09000D882
:10117000E01202B9119004119B1411A31511AB17C1
:1011800011C13011C93411D13611D937000011B64F
:1011900075FF015316EF8516FD804775FF01531744
:1011A000EF800E75FF015317DF800675FF0153179F
:1011B0007F8517C9802C75FF015318DF8518CA80F9
:1011C0002175FF015319FE801675FF015319EF8039
:1011D0000E75FF015319BF800675FF0153197F85F6
:1011E00019CB120EF97F1151BAE4FF7109117F90EA
:1011F00000D67402F09000DAE0247F6009047015D4
:1012000051C0740A800651E251C07458F09000D960
:101210007403F051C89000DBE0F4600241B7900025
:10122000DEE0FEA3E0FF64104E70069000DB740E5B
:10123000F0EF64204E70069000DB740FF0EF644016
:101240004E70069000DB7410F0EF64804E700690D4
:1012500000DB7411F0E4B5070AEEB401069000DB80
:101260007412F0E4B5070AEEB402069000DB7413C2
:10127000F0E4B5070AEEB404069000DB7414F0E461
:10128000B5070AEEB408069000DB7415F0E4B50764
:101290000AEEB410069000DB7416F0E4B5070AEE0F
:1012A000B420069000DB7417F0E4B5070AEEB440F2
:1012B000069000DB7418F0020F9FEF4420F5FE2229
:1012C0007F1051BA9000D6229000DC7401F0A3E4A4
:1012D000F0221207F77F050206DBF09000D3E0FF53
:1012E000F4229000D3E020E01F7F011207D2120702
:1012F000F77F3D1206DB7F2A1206DB7F801206DBBA
:101300007FA61206DB1207CD22900A5CEFF0900058
:10131000E1E06402702B7F011207D21207F7900AF6
:101320005CE07FAB60027FB91206DB120EF9900A17
:101330005CE09000E0F070047F1EDFFEE4FF120727
:10134000D2229000D5E01200BC9000DAE0900001BB
:101350001200CE9000DBE09000020200CEE4FCFD23
:10136000020794900A2F717FC007900A2F120290F3
:10137000900A32E0FF120C8CEFF0D0070206E31265
:1013800002B0E4FCFD22900A28717FC007900A2871
:10139000120290900A2BB122D00790008F120253B4
:1013A0009000931202B0E49000B6F0D3900097E062
:1013B000941E900096E094004001227B017A00790F
:1013C00098900096E0FFA3E09000FDCFF0A3EFF02F
:1013D00090008F12023B1206E3900093120290E9F4
:1013E0004A600F9000B6E0F58275830012008FFF0F
:1013F00080027F009000B6E02498F582E43400F586
:1014000083E06F6002C3229000B6E004FFF0D39047
:101410000097E09F900096E0940050BD229000E27B
:101420001202539000E61202B0B1139000E9B1220B
:101430009000E212023B719A500281CCB16190009F
:10144000E21202471201F79000EBEEF0A3EFF04E2C
:1014500060319000EBB14FFE9000EBF0A3EFF09005
:1014600000E9E0FCA3E0FDD39FEC9E5006A3ECF066
:10147000A3EDF091CEE94A6004B11980427E007F6D
:1014800000803C9000E9120FD2603F9000DCE0FC4D
:10149000A3E0FDD3EF9DEE9C400A9000EBECF0A39F
:1014A000EDF0800D9000E9E0FFA3E0A3CFF0A3EF03
:1014B000F091CEE94A6004B11980047E007F00906B
:1014C00000E7EE8FF01200F080B9D322C322900023
:1014D000E61202909000EBE0FFA3E09000F4CFF062
:1014E000A3EFF09000E212023B1206709000EBE0D6
:1014F000FEA3E0FFC39000EAE09FF09000E9E09EC9
:10150000F09000E2120247E4FCFD12011C9000E2A0
:101510001202539000E60202909000EBE0FEA3E07E
:10152000FF22E0FFA3E0900096CFF0A3EFF022901F
:101530000A21717FC007900A21120290900A24E0CC
:10154000FFA3E09000E9CFF0A3EFF0D007811DE00A
:10155000FEA3E0FFC39000DDE09FFF9000DCE09E73
:10156000229000DDE024FFFF9000DCE034FFFEE489
:10157000FCFD2212000F120734EF600512001080EC
:10158000F5229000D7E0FF22E49000D7F0229012DD
:1015900018E024FF22901218E060057F10020DE68B
:1015A0007FFF22E4902004F0A3F0A3F0A3F07B01DE
:1015B0007A2079089020011202B0E4902000F022F5
:1015C0001204DFF0900A3512025F0000000080D3A1
:1015D000902004E0FEA3E0FF24081204E8FDEF24BD
:1015E00001FFE43E541F902004F0A3EFF0A3120487
:1015F00049AF0522902006E0FEA3E0FF22902000E4
:10160000E0045403F07F0033333354F8FEEF240832
:10161000F974203EFA7B01A30202B0900054741DBD
:10162000F0A3740FF012049CE490004FF012051820
:1016300090006BE0FEA3E0FF900054E06E7003A307
:10164000E06F7F0060027FFF22EFB40109D2AD7529
:10165000FF0143AE4022C2AD75FF0153AEBF22E58C
:10166000C85402FF75C80222E5C85401FF22900A3F
:1016700058E0FEA3E0FFC3E49FFF74089EFE221221
:101680000253E4FB7A08F9F890005012023B120171
:04169000658F0C2234
:1017FA00043DFFFCFFFF02184E1A071A0C227FB89D
:10180A00EF90181393901900730A20364CE556FF8F
:10181A0022EFF556221BC91BD3024F6E1B9252911F
:10182A00FF024046000E08F8000E0F3800000000C4
:10183A00020C00003F3F3F04040440404000000007
:10184A00000243F075819075FF03759E02121920FC
:10185A00023CDC0226BC9024C6E47E019360F4A319
:10186A00FF543F30E509541FFEE493A360010ECFF5
:10187A0054E0B4E00EEFFAEEF9A3A3A3A3DAFDD97C
:10188A00FB80D654C025E0604B5026E493A3F8545D
:10189A0007240CC8C333C4540F4420C8834004F43B
:1018AA0056800146F6DFE480B001020408102040A9
:1018BA0080E493A3FAE493A3F8E493A3C8C582C887
:1018CA00CAC583CAF0A3C8C582C8CAC583CADFE924
:1018DA00DEE78085E493A3F8E493A34003F680014E
:1018EA00F208DFF40218635A2D5761766520342E08
:1018FA003631007F0222C0567419C0E0C082C0830C
:10190A0075560AE5FF54CF4490F5FF22C056741964
:10191A00C0E0C082C083755620E5FF54CF4490F5DD
:10192A00FF22C0567419C0E0C082C083755636E5DE
:10193A00FF54CF44A0F5FF22C0567419C0E0C082FC
:10194A00C08375564CE5FF54CF44B0F5FF22908012
:10195A00002116909800211690808821169080C741
:10196A002116909F8A211690A020211690A023214B
:10197A001690A801211690AFF5211690AFF82116FE
:10198A0090AFFF211690B7DB211690B7F52116907C
:10199A009B53211690B7F8211690B02A211690ADC4
:1019AA004F211690901A211690B83A211690B10537
:1019BA00211690B0E4211690B2E1211690B27D2151
:1019CA001690B7DE211690A7C0211690B789211666
:1019DA0090A06D211690A77B211690C037211690F2
:1019EA00C101211690C133211690A348211690C136
:1019FA0039211690BBF6211690A526211690D024DF
:101A0A00211690A601211690D15F211690BB95212F
:101A1A001690ADDE211690AAE7211690D25D211606
:101A2A0090A9D8211690B7BF211690D2E42116901A
:101A3A00D2E7211690D3AD211690D755211690C121
:101A4A0092211690C210211690C1C9211690D66C07
:101A5A00211690C3002116908153211690C140216E
:101A6A001690CC42211690AFE1211690A0A821161B
:101A7A0090B756211690CF5E211690B75121169035
:101A8A00D8612116909E9E211690C05B211690BAAD
:101A9A002B211690D651211690D57B211690A1554F
:101AAA002116909F9A211690D8C8211690D93221D2
:101ABA001690CFF2211690D96E211690D95221167E
:101ACA0090CE3E211690CDD0211690CB4E21169065
:101ADA00C603211690C573211690D98B21169085BD
:101AEA0051211690A13D2116909F02211690D7AC44
:101AFA00211690A62A211690DA50211690D6A121F5
:101B0A001690C7AE211690C544211690817B2116E6
:101B1A0090CC25211690C887211690D4682116905A
:101B2A00B9E1211690C6A1211690D444211690D36A
:101B3A00C5211690D63B211690C60B211690DA5570
:101B4A00211690C27E211690DA58211690DA912138
:101B5A001690DA94211690CE4D211690C8F42116CB
:101B6A0090CACB211690CADB2116909FF9211690B4
:101B7A009F192116909AD1211690D5A9211690DD88
:101B8A006F2116909BA9211690DD0B211690DB413F
:101B9A00211690BAF6211690B3B3211690CF1F21C1
:101BAA001690DDC4211690DE0C211690DE51211606
:101BBA0090DE6F211690DF0A211690DEC32116905F
:101BCA00DF3121169092F121169094A0211690CE21
:101BDA006A211690CE87211690DF57211690E0BC15
:101BEA0021169097ED2116909B86211690E0EE2102
:061BFA001690AA812142B1
:101C000090AABC214290AB5B214290ABAD214290A7
:101C1000AC41214290AD1E214290B034214290A9A6
:101C2000E2214290A63E214290808B214290B0D288
:101C300021429087762142908913214290800B2186
:101C40004290824B214290B2FE214290B316214233
:101C500090B3CD214290B285214290B3E5214290CC
:101C6000A82421429099D8214290B3FE214290B4F9
:101C70000B214290A3DB214290A7CD214290A39853
:101C8000214290B417214290A6F2214290A75E21F2
:101C90004290B44A214290A30C214290B432214296
:101CA00090B4582142908A59214290A791214290A4
:101CB000B482214290A65D214290B4E8214290A4D2
:101CC00052214290B1BD214290B21A214290B55C9E
:101CD0002142908C0B214290A11D214290A7E92125
:101CE0004290B5E2214290B2C1214290AF9C214284
:101CF00090B60D214290AC59214290AEC92142903C
:101D0000B639214290B669214290AB16214290B774
:101D100088214290A0DC212C90A0EE212C90A16C77
:101D2000212C90A176212C90A1F9212C90A20321A5
:101D30002C90A2D5212C90A2F3212C909B85212CB4
:101D400090A2DF212C90A191212C90A218212C90FF
:101D5000A2E9212C90A271212C90A365212C90A3A3
:101D60006F212C90A2FD212C90A39E212C90A3A842
:101D7000212C908000212C909FE4212C90A01621F2
:101D80002C9081BE212C90A487212C90A488212CFA
:101D9000909903212C90972E212C9098BB212C9068
:101DA000966D212C90A4AB212C90A051212C90A5B4
:101DB0005F212C909B01212C00E709F608DFFA80B7
:101DC00046E709F208DFFA803E88828C83E709F053
:101DD000A3DFFA8032E309F608DFFA8078E309F23C
:101DE00008DFFA807088828C83E309F0A3DFFA8031
:101DF0006489828A83E0A3F608DFFA805889828AA0
:101E000083E0A3F208DFFA804C80D280FA80C6809B
:101E1000D4806980F28033801080A680EA809A8026
:101E2000A880DA80E280CA803389828A83ECFAE46F
:101E300093A3C8C582C8CCC583CCF0A3C8C582C84B
:101E4000CCC583CCDFE9DEE7800D89828A83E49309
:101E5000A3F608DFF9ECFAA9F0EDFB2289828A8368
:101E6000ECFAE0A3C8C582C8CCC583CCF0A3C8C532
:101E700082C8CCC583CCDFEADEE880DB89828A8336
:101E8000E493A3F208DFF980CC88F0EF60010E4EF6
:101E900060C388F0ED2402B4040050B9F582EB244D
:101EA00002B4040050AF2323458223901E0973BB64
:101EB000010689828A83E0225002E722BBFE02E308
:101EC0002289828A83E49322BB010CE58229F58270
:101ED000E5833AF583E0225006E92582F8E622BB45
:101EE000FE06E92582F8E222E58229F582E5833AB9
:101EF000F583E49322BB010989828A83F8E028F004
:101F000022500327F722BBFE05F8E328F3228A8339
:101F10008982F8E4932822BB010FF8E58229F58233
:101F2000E5833AF583E028F0225009C58229F8E5D7
:101F30008226F622BBFE09C58229F8E22582F2221A
:101F4000F8EA2583F583E9932822BB010689828A72
:101F500083F0225002F722BBFE01F322F8BB010DF1
:101F6000E58229F582E5833AF583E8F0225006E917
:101F70002582C8F622BBFE05E92582C8F222EF8D34
:101F8000F0A4A8F0CF8CF0A428CE8DF0A42EFE22D1
:101F9000BC000BBE0029EF8DF084FFADF022E4CC35
:101FA000F875F008EF2FFFEE33FEEC33FCEE9DECFE
:101FB000984005FCEE9DFE0FD5F0E9E4CEFD22ED44
:101FC000F8F5F0EE8420D21CFEADF075F008EF2F8E
:101FD000FFED33FD4007985006D5F0F222C398FD7F
:101FE0000FD5F0EA22C2D5EC30E709B2D5E4C39DA3
:101FF000FDE49CFCEE30E715B2D5E4C39FFFE49E00
:10200000FE121F90C3E49DFDE49CFC8003121F9010
:1020100030D507C3E49FFFE49EFE22C5F0F8A3E09D
:1020200028F0C5F0F8E582158270021583E038F0DB
:1020300022A3F8E0C5F025F0F0E5821582700215C4
:1020400083E0C838F0E822BB010A89828A83E0F580
:10205000F0A3E022500687F009E71922BBFE07E350
:10206000F5F009E3192289828A83E493F5F074017B
:102070009322BB010789828A8302201B500B09C56A
:10208000F027F7C5F01937F722BBFE0D09F8E32555
:10209000F0F3C5F019E338F322F889828A837401DA
:1020A0009325F0C5F0F8E4933822BB010A89828AAF
:1020B00083F0E5F0A3F0225006F709A7F01922BB40
:1020C000FE06F3E5F009F31922EF2BFFEE3AFEEDE1
:1020D00039FDEC38FC22E88FF0A4CC8BF0A42CFC6A
:1020E000E98EF0A42CFC8AF0EDA42CFCEA8EF0A47E
:1020F000CDA8F08BF0A42DCC3825F0FDE98FF0A40D
:102100002CCD35F0FCEB8EF0A4FEA9F0EB8FF0A403
:10211000CFC5F02ECD39FEE43CFCEAA42DCE35F03F
:10212000FDE43CFC2275F008758200EF2FFFEE33D2
:10213000FECD33CDCC33CCC58233C5829BED9AEC3A
:1021400099E58298400CF582EE9BFEED9AFDEC99A4
:10215000FC0FD5F0D6E4CEFBE4CDFAE4CCF9A882AE
:1021600022B800C1B90059BA002DEC8BF084CFCE53
:10217000CDFCE5F0CBF97818EF2FFFEE33FEED3311
:10218000FDEC33FCEB33FB10D703994004EB99FBD8
:102190000FD8E5E4F9FA227818EF2FFFEE33FEEDC1
:1021A00033FDEC33FCC933C910D7059BE99A4007CE
:1021B000EC9BFCE99AF90FD8E0E4C9FAE4CCFB22E5
:1021C00075F010EF2FFFEE33FEED33FDCC33CCC8AE
:1021D00033C810D7079BEC9AE899400AED9BFDECB9
:1021E0009AFCE899F80FD5F0DAE4CDFBE4CCFAE4F8
:1021F000C8F922EF5BFFEE5AFEED59FDEC58FC22C8
:10220000C3E49FFFE49EFEE49DFDE49CFC22EB9F63
:10221000F5F0EA9E42F0E99D42F0EC6480C86480EB
:102220009845F022EB9FF5F0EA9E42F0E99D42F0DE
:10223000E89C45F022E8600FECC313FCED13FDEEC3
:1022400013FEEF13FFD8F122E8600FEFC333FFEE68
:1022500033FEED33FDEC33FCD8F122BB010789825C
:102260008A830222D25005E9F802248ABBFE05E9DE
:10227000F802249622E0FCA3E0FDA3E0FEA3E0FF29
:1022800022E493FC740193FD740293FE740393FFA4
:1022900022E0F8A3E0F9A3E0FAA3E0FB227401FF37
:1022A0003395E0FEFDFCA3A3A3E02FFFF0E582152C
:1022B0008270021583E03EFEF0E582158270021501
:1022C00083E03DFDF0E582158270021583E03CFC61
:1022D000F022ECF0A3EDF0A3EEF0A3EFF022A88241
:1022E0008583F0D083D0821222F51222F51222F5D6
:1022F0001222F5E473E493A3C583C5F0C583C8C572
:1023000082C8F0A3C583C5F0C583C8C582C822A40E
:102310002582F582E5F03583F58322E0FBA3E0FA20
:10232000A3E0F922EBF0A3EAF0A3E9F022E493FBA7
:10233000740193FA740293F922BB010789828A839C
:1023400002231B5005E9F80224A2BBFE05E9F802AE
:1023500024B489828A8302232DBB011A89828A834D
:10236000D0F0D0E0F8D0E0F9D0E0FAD0E0FBE8C05F
:10237000E0C0F00223245016E9F8D083D082D0E0E8
:10238000F9D0E0FAD0E0FBC082C0830224ABBBFEF0
:1023900016E9F8D083D082D0E0F9D0E0FAD0E0FBA3
:1023A000C082C0830224BD22BB010DE58229F582D3
:1023B000E5833AF58302231B5007E92582F80224BE
:1023C000A2BBFE07E92582F80224B4E58229F58242
:1023D000E5833AF58302232DBB0120E58229F582AE
:1023E000E5833AF583D0F0D0E0F8D0E0F9D0E0FA18
:1023F000D0E0FBE8C0E0C0F00223245018E92582B9
:10240000F8D083D082D0E0F9D0E0FAD0E0FBC082EF
:10241000C0830224ABBBFE18E92582F8D083D082AA
:10242000D0E0F9D0E0FAD0E0FBC082C0830224BD46
:1024300022D083D082F8E4937012740193700DA3BC
:10244000A393F8740193F5828883E473740293680C
:1024500060EFA3A3A380DF8A838982E473EC8EF00C
:10246000A4CCC5F0CCCDF8EFA4CEC5F02DFDE43C56
:10247000FCE8A42EC8C5F03DFDE43CFCEFA4FFE55C
:10248000F028FEE43DFDE43CFC22ECF608EDF60805
:10249000EEF608EFF622ECF208EDF208EEF208EFA5
:1024A000F222E6FB08E6FA08E6F922EBF608EAF67D
:1024B00008E9F622E2FB08E2FA08E2F922EBF20868
:1024C000EAF208E9F2224103BD00C12AC12D41030D
:1024D000BC00E0020200003199E00202000229493A
:1024E000E00402000446524545E00102001554E0B4
:1024F00001020016A5E00102200528E001022918CA
:10250000FFE005022946294902043D410554060120
:1025100014004105530141055101C1360119000163
:102520001700412E1C0041298300412924055D2DFF
:102530004B00000000000000000000000000000050
:102540000000000000000000000000000000C13C8E
:102550004329F9000000412A0A00C10EC1310138A7
:1025600000C12EC12F41315000C15D432DB9000083
:1025700000412DB800412DBC00C132C134C13D41E4
:102580002DE000015500C123412DD200412DDF0077
:10259000602827450522000000030008FE877F8889
:1025A000CF7FC04FFBD7FDE0670080800C808200AA
:1025B0000000E87300800F0000600000412164000B
:1025C00041217600412167004121610041216901DB
:1025D0004121620141244400C141C142412A6C961B
:1025E000412A680FE00202294B0033E005022979F5
:1025F0000033040522E00202297E0807E0050231CB
:10260000800807050522412F0AFF412F03FF412FB4
:102610000600412F0900C15EE0020231850013E08F
:102620000C02318700000308000300080522043D66
:10263000E0050231930013FF0522E0020231980009
:102640000000C2D5E830E70FB2D5E4C39BFBE49AA3
:10265000FAE499F9E498F8EC30E717B2D512267845
:10266000122161E4C39BFBE49AFAE499F9E498F837
:10267000800312216130D50DE4C39FFFE49EFEE488
:102680009DFDE49CFC227890E4F6D8FD9000007F4C
:10269000007E10E4F0A3DFFCDEFA90315BA3E5835B
:1026A000C394204011FEAF829020000E0FE4800200
:1026B000F0A3DFFCDEFA12192002186022321D138B
:1026C0001D181D1D1D221D271D2C1D311D361D3BD6
:1026D0001D401D451D4A1D4F1D541D591D5E1D6386
:1026E0001D681D6D1D721D771D7C0000000000001F
:1026F0003F241E16110E0B09070504030201F0C842
:10270000A7917767604638353230242220140001C3
:10271000010202030304040505060607071A431A0B
:10272000481A4D1A521A571A661A6B1A7A1A841ACC
:10273000D41AD91ADE1AED1AF71B0B1B101B151B26
:10274000291B2E1B651B6A1B6F1C781C821C871C97
:102750008C1C911C961CA01CAA1CAF1CCD1CD282E8
:102760002D1C16131110101C191C461C4B1DA91DE5
:10277000AE1DB3E4FD7C0CAB050DEB9018F1938F0F
:10278000828E83F00FBF00010EDCEC0218FD8F82F9
:102790008E83E4F0A37404F1A1743DF1A1A3E4F0ED
:1027A00022F08F828E83A3A3229003C87402F0903C
:1027B00003BCE0FF121D909003C87405F022122C98
:1027C000B9121BD8121C69121C149003BEE06401DC
:1027D000700302286C7FFF1219A89005C571247E32
:1027E000007F15125077BF540E7E007F161250776F
:1027F000BFA5047F0180027F009003BCEFF064015D
:10280000703C9005C512231BAE02122EA4FEA3E05D
:102810009005C5125655E92407F9E43AFA9005C81F
:10282000122324E92408F9E43AFED1A464057004D3
:10283000A3E0642260081219AD9003BCEFF090038E
:10284000BCE070287E007F10C006C374999410FE0F
:1028500074319400902F70F0A3CEF07B007A007951
:1028600000D006125783E4FFFE1219B2121B0112A8
:102870001A75121A16305D05754F018039125523ED
:102880001219761257ABFE4FFDA3E0FC4DFDA3E0FD
:10289000FB4D600BEE5FFFEC5FFFEB5FF47003122C
:1028A000309AE54F540324C1F582E43403F583E004
:1028B000654F9003B7F0E4902F5CF0902F5AF0A38F
:1028C000F002180775FF0275E40475E40175E4026F
:1028D000229030B5E075F005A4248BF9742435F00E
:1028E000FEAF017B017A2D7946902FC47405F090DC
:1028F0002FC1125204C007902FC112231B902FC466
:10290000125661D007902EC41222D2902EC81223E4
:1029100024D16C5107EF6004D17B80F751917F0384
:102920009166600A902EC412227578103163902E41
:10293000C4315E902EC4122275E43167902ECB1202
:1029400055EA601431FB902EC81255A3902EC9E4AD
:1029500075F00112201B80E47172E4FF41FA12222B
:10296000757808122235E4E5C820E2FB8FEB227F60
:102970000151FA9031387401F0903138E0603851EB
:10298000957F0531F9903138EFF0717231F5902E65
:102990000FEFF031FB902E10EFF07172903138E0B4
:1029A000540112578B60D2A3E0F460CDEF30E7C939
:1029B000E4903138F080C251957F9F31F9902E110B
:1029C000EFF031FB902E16EFF031FB902E17EFF069
:1029D00051F6902E0FE0F4601BA3E0F46016902EE9
:1029E00016E0FD541F240FA3F0EDC41354074480D8
:1029F000902E16F02251957FD731677FFF3167E522
:102A0000C820E2FBAFEB227F0151FA3050165195FE
:102A10007F0531F990313AEFF0717290313AE02050
:102A2000E002C25030501F31F5902E0FEFF031FB15
:102A3000902E10EF12578B600BA3E0F46006EF307E
:102A4000E702C2507172E4FF51FAA250E433FF2250
:102A500090301C1222D2D19671EE903020E06F603F
:102A60002ED16C5107EF6004D17B80F79151600645
:102A7000D1967810316390301C315ED196E4316785
:102A8000903020E0FF51F4902E137401F0D322C354
:102A9000227F0151FA902E14E01224312AB8042A20
:102AA000C0142AC5152ACA172ADA302ADF342AE4C4
:102AB000362AE93700002AD25334EF853480802F3C
:102AC0005335EF80085335DF800353357F853590CC
:102AD000801D5336DF8536A080155337FE800D5399
:102AE00037EF80085337BF800353377F8537B07F78
:102AF0000CDFFE2231677172E4FFEFB4010443FE84
:102B0000202253FEDF22902EBB1222D2902EBF1223
:102B10002324D16C5107EF6004D17B80F791516081
:102B20000A902EBB12227578103163902EBB315E55
:102B3000902EBB122275E4802A902EC21255EA60B4
:102B400026902EBF1255BD6018902EBF12231B1267
:102B50001EAFFF3167902EC0E475F00112201B807C
:102B6000D8E4FF316780D251F6902E137401F02221
:102B70003167125285EF70FA902E16E0F4600A90D9
:102B800031377406F0F10870FC902E14E0122431F5
:102B90002BAC042BB4142BB9152BBE172BCE302B1A
:102BA000D3342BD8362BDD3700002BC643341085A9
:102BB0003480802F4335108008433520800343350F
:102BC00080853590801D4336208536A0801543379B
:102BD00001800D433710800843374080034337801E
:102BE0008537B0903137740CF0F10870FC229030CA
:102BF000171222D2D16C5107EF6004D17B80F751BC
:102C0000917F039166600A90301712227578103117
:102C100063903017315E903017122275E431F990CD
:102C2000301BEFF051F690301BE0FF22D16C5107C2
:102C3000EF6004D17B80F77F0151FAD25051957F2C
:102C400006717051957F0131677F037170E4FF4118
:102C5000FA7F0151FAD25051957F06316771725156
:102C600095902E12E0FF3167902E15E064022290BD
:102C70002E0FE020E01251917F3D31677F2A3167AE
:102C80007F8031677FA651F422903139EFF0902E8A
:102C90001DE0640270225191903139E07FAB6002F7
:102CA0007FB931677172903139E0902E1CF0700459
:102CB0007F1EDFFEE4FF51FA227B017A2E79147D1C
:102CC000017F03121C007A2E791D7F081256A57A07
:102CD0002E791A7F09F1017A2E79187F0BF1019074
:102CE0002E18E0FEA3E0FF4E6006BEFF1BBFFF18DC
:102CF000902E1DE024FD6003047004F11080099003
:102D00002E18E4F0A37440F0902E1DE024FD600323
:102D1000047008902E157403F08006902E1574022E
:102D2000F0902E14E01224312D44042D4F142D5711
:102D3000152D5F172D75302D7D342D85362D8D3752
:102D400000002D6A75FF015330EF8530FD80477517
:102D5000FF015331EF800E75FF015331DF8006759F
:102D6000FF0153317F8531C9802C75FF015332DF5C
:102D70008532CA802175FF015333FE801675FF012D
:102D80005333EF800E75FF015333BF800675FF018B
:102D900053337F8533CB71727F11D190E4FF9189DA
:102DA000316F902E127402F0902E16E0247F60098D
:102DB000047015D19C740A8006916FD19C7458F0F0
:102DC000902E157403F0F110902E17E0F46002C1FC
:102DD0006A902E1AE0FEA3E0FF64104E7006902E5B
:102DE00017740EF0EF64204E7006902E17740FF0DB
:102DF000EF64404E7006902E177410F0EF64804E12
:102E00007006902E177411F0E4B5070AEEB40106AF
:102E1000902E177412F0E4B5070AEEB40206902E55
:102E2000177413F0E4B5070AEEB40406902E177475
:102E300014F0E4B5070AEEB40806902E177415F0E6
:102E4000E4B5070AEEB41006902E177416F0E4B538
:102E5000070AEEB42006902E177417F0E4B5070A9F
:102E6000EEB44006902E177418F0812C75FF02E521
:102E7000E430E10675E40675E40322E51530E20F5F
:102E8000E51520E50AE51530E0057F01123812222C
:102E9000EF4420F5FE2290301C0222757F10D19065
:102EA000902E1222AF017B017A0579CB902FC4744A
:102EB00002F011EF9005CBE02290315BEFF0E5439B
:102EC000C394204004D17B80F5E53FC394204003A8
:102ED000E4F53FC2AC12503DEF700EE543700A902E
:102EE000315BE0FF125010801390315BE0FFAE3F8A
:102EF000053F74C12E125734EFF00543D2AC7F0169
:102F0000227B017D02021C00903137E014F0E022A8
:102F1000902E187401F0A3E4F022D16C5107EF60F9
:102F200004D17B80F7227405F0902F6D125204C0FB
:102F300007902F6D12231B902F701255DDD0079034
:102F40002E681222D2902E6C122324902E6C122303
:102F50001B902E6F12520B902E6812227512508AFF
:102F60005003023000125638902E6812229112211E
:102F7000F3902E71EEF0A3EFF04E6036902E7112AA
:102F800055D6125673902E71F0A3EFF0902E6FE08D
:102F9000FCA3E0FDD39FEC9E5006A3ECF0A3EDF064
:102FA0001255354A6006125724FF80477E007F0085
:102FB0008041902E6FE0FEA3E0FF4E6041902E18FE
:102FC000E0FCA3E0FDD3EF9DEE9C400A902E71EC57
:102FD000F0A3EDF0800D902E6FE0FFA3E0A3CFF003
:102FE000A3EFF01255354A6006125724FF80047E85
:102FF000007F00902E6DEE8FF012201B80B4D32244
:10300000C32275FF0275E404E4F5E422A243922A88
:103010002290062CEDF090062BEFF0BF0411A3E0F8
:10302000FB7D017F01115190062B7403F0800B9002
:10303000062CE0FB7D01E4FF115190062BE090038C
:10304000BDF0D2061219CB9003C9EEF0A3EFF0D376
:1030500022EB600875FF0153CDFD800675FF01432B
:10306000CD02ED600553FBDF800343FB20EF6007DB
:1030700075FF0243E1402275FF0253E1BF22900336
:10308000C5E0FCA3E04C70059003C580BDC322756C
:10309000FF028FE322A244922D22E4FF123812EFA6
:1030A000603812561E11DB500512577B40F47B012D
:1030B0007A0379C311DB500F1257AB5FFFA3E05FB8
:1030C000FFA3E05FF460E7754F017E007F081256B2
:1030D0001E902F70E4F0A31256E522902E5D124C44
:1030E00006902E631222DE00000001902E6774010C
:1030F000F0F5FFE5D554C07005123BDD5002C32248
:10310000E4F5FF53967F75FF0175D5047F3FFED12F
:103110008A75FF0143D508E4F5FF5394FBF5FF538F
:10312000847FF5FF7598FF902E61E5F4F075F49CAF
:1031300075FF01A3E5E4F075E4257B017A2E79673C
:10314000124BD3902E67E0640160024108F5FF90B6
:103150002E607414F0902E635138FF7801122248CB
:10316000902E631222D2E5A730E1FB43A702902EF6
:10317000635138FFE5A730E005E47B018002E4FB02
:10318000FAF9F8EF4BFFEE4AFEED49FDEC48FC90F2
:103190002E631222D2902E60E014F070B8902E634D
:1031A0005138FF78101222357B6D7A4E79C67841FE
:1031B0001220D6EF2439FFEE343071D1E4FBFA79D6
:1031C00001F8122161EE547FFEE4FDFC1243C3902E
:1031D0002E635138FFEB6FFFEA6EFEE8CDEFCDCCEA
:1031E000EECCECFF902E5D123FE0EF121F4A902EC6
:1031F0005D123FE0900001ED121F5C90120FE03075
:10320000E606E4F5FF75968075FF01E4F5D5902E8E
:1032100061E0F5F475FF01A3E0F5E4124CF1902EA6
:1032200067E0B40103D38001C322EB25E025E0244D
:1032300001F582E43412F583E0FCA3E0FDA3E0FE97
:10324000A3E022902D851222D275FF0243E1801265
:103250004E2FF185902D9A1222DE002DC6C0E4F586
:10326000FFF5A490120EF0A3F0902D957402F012C9
:1032700057A3FFF595EF14601314601C2402702708
:10328000902D855138B18B902D918016902D8951BC
:1032900038B18B902D92800A902D8D5138B18B9042
:1032A0002D93E0902D9EF0124E22902D9EE0700FF7
:1032B000F5FFF59675FF0175D70975F418805A90DA
:1032C000120EE004F0902D95E012579B902D9A512C
:1032D00038FF902D96F1ECC3122224500A902D96BF
:1032E0005138FFA31222D2902D9EE0FF124CA390E2
:1032F0002D94E0FFA3E0FDA24D924B124DD0A351BF
:1033000038FF9030131222D2902D95E0FF91EC906F
:103310002D95E0512BFF124C0F12571B6002416F8D
:103320007402F01257A3F595E5F454077018902D28
:103330009A71AF7801122235902D95B17B1222D26D
:10334000512AFF124C0F12571B70D875FF03759549
:1033500080125793400343F420A24D924C124D0229
:10336000902D9A51382420FFEE344E71D1E4FB7A2F
:1033700004F9F871BF7801122235C24AB1A3E4F50D
:10338000FFE5BD54F84404F5BD9012137401F07EBE
:10339000127F01E4FD8F828E83EF2DF582E43EF5EE
:1033A00083E0FC901213E02CF00DEDB412E722FF45
:1033B0007E04FDFCE0F8A3E0F9A3E0FAA3E0FB1231
:1033C00020D6E47B7DFAF9F8122161EF2401FFE4B5
:1033D0003EFEE43DFDE43CFC22902F64124F36EBB0
:1033E000F0902F6A7401F0C24E7FE87E03B199F12C
:1033F000CE5005E5FC20E6F7F1A0BF0108E4F5FC9E
:1034000075FC408007F1A0BF0202D32275FF015373
:10341000D8EF902F65E0FF124E4C75FF0153D5DFBA
:1034200053FAFB902F64E0FF123F37902F65E09036
:103430002F64B40809E0512B245271CE8004E0516E
:103440002BFF124C0F902F66E0FF124E7675FF0196
:1034500075FF03759B04124B08B19C75FC42E5FC9B
:1034600020E104F1CE40F4902F67E0F075FF03E512
:103470009B20E704F1CE40F4E59B20E70D75FF03A8
:10348000759B1F124E2FD24E804FB192124BD3908C
:103490002F65E0FD90120FE05D701C902F64E0FF3F
:1034A000B1921241A190120FE0FF902F65E0FEEF64
:1034B0004E90120FF07189124BA07B017A2F796820
:1034C000124B39500FC3902F69E09420902F68E081
:1034D000940340E6B192124C4BD18E304E0261E122
:1034E000902F6AE0B40103D38001C322903012EF21
:1034F000F0E4A371AF7801122235903012B17B1243
:1035000022D2901210E064806070E0C3947F503843
:10351000EBB17DC083C0825138FFEEC0E0EFC0E068
:10352000901210E075F004A4AEF0FBCAEECAEA33C4
:1035300095E0F9F8D0E0FFD0E0FEC3EF9BFFEE9AF4
:10354000FEED99FDEC98802A903012E0B17DC083A9
:10355000C082F1EC901210E0F40475F004A4FFAE08
:10356000F0EE3395E0FDFCEB2FFFEA3EFEE93DFD7A
:10357000E83CFCD082D0831222D222E0FB25E02559
:10358000E02401F582E43412F58322FF902D9602A7
:1035900022D27B017A2F796A22124B0C75FF0343EA
:1035A000918022902DE91222D2E4F5FF75BB0575BA
:1035B000BB8575FF0175D502204A087F3FFED18A81
:1035C000124BA075FF0143D520304A02C16CE4F5CF
:1035D000FF538EF7438E077D04E4F5FF8DBCF5FFA6
:1035E00043B102E5B130E2FBE4F5FFAFDFEFFEAC43
:1035F000DEECFBEBFFED25E024E7F582E4342D1251
:10360000569DE4F5FFF5FF53B1FD0DEDB40CCA90E6
:103610002DE95138FF7809122235A3EEF0A3EFF01F
:10362000E4FDED25E024F1F582E4342DF583E0C3DB
:1036300013FAA3E013FBEDF1D9124F2B2BFFEE3A57
:10364000FEEDF1D9EEF0A3EFF0ED240490120DF0B1
:10365000EDC394075016CFEDCF0DEFF1D91255D62B
:10366000902DEEE09F902DEDE09E50B6E4F5FF75B5
:103670008EC8F5FF90120DE0F5BCE4F5FF75BB8038
:1036800075FF01F5D5227F147E00F168B19C75FFAE
:1036900003E59120E7FB22E4903050F0A304F0E42E
:1036A000903053F0E5FA30E1FB75FF01E5D530E7E6
:1036B000037F0022E4F5FF75E50875FF0153D8EF9D
:1036C000E5D530E61A75FF01903052E5DAF0E4F501
:1036D000DA75FF01E5D630E3FB9030537401F075E5
:1036E000FF03759B0475FC4175FF03E59B30E7FB09
:1036F000E4FB75FF038B95512AFF124C0F0BEBB4C3
:1037000003F075FF03759580E4F5FF758EC8124BC5
:10371000A075FF0153D5FBF1E5D18675FF0143D5B7
:1037200004903053E07006F1E57FC8D1887B017AC0
:10373000307951124C4B903051E09030507006E08F
:103740004404FF8002E0FF903050EFF090120EE052
:10375000B4010675FF0143D81075FF01903052E0A7
:10376000F5DA903050E0FF2275FF03D3EF9402EEBC
:103770009400400874FE2FFF74FF3EFEEFF592EEBA
:10378000540FF591221256FF53DB7F75FF0175D55B
:1037900002D1861256FF43DB8075FF01E4F5D52286
:1037A0007FFA7E00F168B19CE5FC30E604F1CE4082
:1037B000F7E5FC30E6037F032275FF01E5D530E62F
:1037C000037F0222E5D57F0030E7027F012275FFEB
:1037D00003E591C330E701D32225E024EFF582E42D
:1037E000342DF5832275FF03E4F59122E0F8A3E080
:1037F000F9A3E0FAA3E0FB229003B7E064AA241146
:10380000FFF022AE071237F8EE04FEEF8EF084AF21
:10381000F022EF600CF119AF82AE83E4FD71E58018
:103820000F302A037F0022121BF691B0E433FF22EF
:103830007F01229005F4122324D246C2EBE51460E6
:10384000024192E51530E202C32251E224E5F9E497
:103850003AFAE4121F4A12489851EA5407FF9005B9
:1038600053F01243D09005F7EFF0E51520E06D71AD
:10387000DD40047F0111129005F7E0FF7B017A051E
:1038800079F8F153E4337004D2EB41779005F7E017
:10389000243212574CE0FF9005F8E0D39F403DD210
:1038A000EB1247E8A23592ED900564E0601051E21A
:1038B00024E57143121F4A43150471C7D3229005B2
:1038C00072E070167B017A0579727C407DB8902F8A
:1038D0009A7464F0E4A3F01219DAC32271DD500483
:1038E000C24F9167F1EEE5D120E0FBE4F51051EA1B
:1038F0005407C39403E49400503251E224B151DAE6
:1039000051E124D851DA2FFFE433FED3EF9440EE97
:1039100064809480401651E224E5F9E43AFA740296
:10392000121F4A431504A23592EDD32251E2240816
:10393000F9E43ACFE9CFF5118F1251E224B151DA0F
:10394000F516AE1112522951E224B2F9E43A8B1C59
:10395000F51D891E51E224D851DAF51F51EAFDAC5C
:10396000F05460602F51E224D951DAFF1247C2C2ED
:103970004651CAFB7A009005731257447D18121FF6
:103980007EEF2BFFEA3EFEEF2414FBE43EFA7D02BD
:103990007F01416751EA5407900553F075140851AF
:1039A000E224B2F9E43AFA12464A51E224D851DA52
:1039B000FFAD161246AA900553E0640370237B0105
:1039C000FD519A713350057401121EF5E4F5FF1292
:1039D0004697121EAF2428FBE433FA7D03E4FF412F
:1039E00067900553E064027029519D71334005745E
:1039F000FF121EF5E4F5FFE5D25480440AF5D21219
:103A00001EAF2414FBE433FA7D027F01714A51FAA0
:103A10008057E4FB7D01519A7133400574FF121EFB
:103A2000F5E4F5FF51EA441045F07F0560027F0A96
:103A3000EF547FFFE5D254804FF5D2E4F5FF43D237
:103A40008051CAFD7C0051EA441045F07E006004BC
:103A50007F0A80027F05EF25E0FFEE33FEEF2DFBAE
:103A6000EE3CFA7D017F01714A51EAFFAEF0A246B9
:103A700092451243304006A23592EDC32271C790A1
:103A800005F7E051E124E7125449A23592EDD2EB5B
:103A9000D322A23592EDD2EBC322FF51FF9005F461
:103AA00012231BE924B1F9E43AFA121EAFFF900584
:103AB000F412231BE924D8F9E43AFA121EAF2FFFBF
:103AC000E433FEEF2401FFE43EFE9005F412231BD5
:103AD000E924B2F9E43AFAE92407F9E43AFA021ED1
:103AE000AFFF9005F412231BE9229005F412231B6B
:103AF000E92404F9E43AFA022047E4FB7D01FFE4FB
:103B0000F5FF75D102E5D120E0FBE4F5FFF5D1EF3B
:103B10006008E4F5FF43D2808006E4F5FF53D27FCE
:103B2000EB6006E4F5FF43D104ED6006E4F5FF43E6
:103B3000D10822D39FEE6480F87480982212231B50
:103B4000E92401F9E43AFA74012290061FEFF0ED3E
:103B500024FE60191460262402703BEB2402FFE46B
:103B60003AFE7C007D50121F7E7D60801E71BCC3BA
:103B700033CE33CED8F9FF7C007D28800E71BCC3D4
:103B800033CE33CED8F9FF7C007D64121F909006AF
:103B900020EEF0A3EFF090061FE012488AC083C029
:103BA00082122291900621E02401FF900620E03449
:103BB00000FE1256C2D082D0830222D2EB2401FF33
:103BC000E43AFEEF780322E4900564F07B017A0585
:103BD00079720219D5C2EBA2ED9235C2EDE5F4C3BC
:103BE00030E701D3229005E2125451E51470777149
:103BF000D55004C24F91679005E2E0FEA3E08E111C
:103C0000F512A312231B900555122324AE11AF12F7
:103C10007DAA1246E5E4F5FF75D908F510E51554BF
:103C200021602BE51530E504E4FFF137E49005E76A
:103C3000F09005E7E004F0123697EF60099005E791
:103C4000E0C3941040EB7F02121DA45315DE9005D3
:103C500051E07F00B403027F011243E0D24F91672D
:103C6000D2EBA23592ED22903136E5F4F0E0547FAC
:103C7000F5F47F827E001235991237CE5005E5FCAF
:103C800020E6F6304F08903136E04480F5F4124BD0
:103C90000812359C1237CE5005E5FC20E6F675FF7C
:103CA00001E5D520E702C322E5F4D330E601C322C3
:103CB000E514702671D55004C24F9167124E2F7FC4
:103CC00008121DA4F1EEE5D120E0FB4315205315A9
:103CD000FEE4F510A23592EDD322C32275FF0275E2
:103CE000E404E4F5E4122686124A2D9003BEEFF0B8
:103CF000901200E0B47A14901214E0B49C0D90037A
:103D0000BEE0FF64056004EFB4032EE49003C7F047
:103D10009003C7E0FFC394805013E42FF582E4348E
:103D200012F583E4F09003C7E004F080E390120002
:103D3000747AF0901214749CF0121C0A4003121C46
:103D4000057B017A1279107D017F01121C007B0135
:103D50007A1279117D017F21121C007B017A127980
:103D6000127D017F22121C007A1279177F021256EF
:103D7000A5901217E0B401057F01124F55121BBA2E
:103D8000124A2D121BB59003BEEFF0121C6E121BCF
:103D9000B09003BEE0FF121D8BEF24FFB3925D7560
:103DA000FF0253E6BF124020121BC41227BE205D43
:103DB0000C1227A97B017A2A791E121A89D2AF2008
:103DC0005D02C14C121C0F1219B7121D86121BFB8B
:103DD00040F29003BDE06042121BE7EF70051256FF
:103DE000254037E51470FCE51520E50291B0121965
:103DF00071EF70FA124918500512490450057F01FD
:103E0000122C899003BDE0B40204E4FF8009900302
:103E1000BDE0B403057F01124AEA121BE2E515304A
:103E2000E1A21255F44002E4F0E51520E50AF1198B
:103E3000AF82AE837D0171E512560AC0E0F1279092
:103E400003C0E0FDD0E0FF121C64A1C4F1FA9003AE
:103E5000BDE06048201703200642121BE7EF700503
:103E60001256254037E51470FCE51520E50291B0A7
:103E7000121971EF70FA12491850051249045005D1
:103E80007F01122C899003BDE0B40204E4FF800995
:103E90009003BDE0B403057F01124AEA9003BDE040
:103EA000600C201709300606200103121A5C121C50
:103EB0000F1219B7124947121D81202B05121BE260
:103EC00080221219CB9003B6E0FEEFC39E4005EFAF
:103ED0009EFF80089003B6E0F4042FFF7406D39F82
:103EE0005002C22BE51530E1281255F44002E4F0EF
:103EF000E51520E50AF119AF82AE837D0171E51267
:103F0000560AC0E0F1279003C0E0FDD0E0FF121C8C
:103F100064121B9712400BC14C9003BFE0FD75F07B
:103F2000AA9003CB12230FED75F002A424B8F97404
:103F30000335F0FA7B012275FF01E5D530E602C3B7
:103F400022E4F5FF439A80EF12579BE4F5FF539A62
:103F50007FD322903058EFF0A3124C0675FF011268
:103F600037A0EF64016002C322E5F430E602C32209
:103F70007FE87E0312376812359C124E7C40012286
:103F8000C24F9167903058E0FFF13753F4DFD24FC2
:103F900091677F787E00124B5A75FF0153E4BFE5AD
:103FA000E430E7FB1249E67F8A124BBB30E605F1AD
:103FB000DDE4800775FF01F1DDE5D9121F4A75FFC9
:103FC0000143E440125793400343F420124E7C40D7
:103FD0000122D322C2AFEFF45215D2AF2290305952
:103FE000E0FBA3E0FAA3E0F922E4F51481B0E4F5E4
:103FF000FFE5D154FE4402F5D122302C0D121A3EB9
:10400000EF6007C257121A2FC22C229003C5E0FEA0
:10401000A3E0FF4E6009CAEECAC9EFC912245722B5
:1040200075FF02D2ADD2BD75FF02758E7175500954
:1040300075FF02E58E546F4480F58E903044122255
:10404000DE0000000022C0E0C0F0C083C082C0D00B
:1040500075D008C0FF75FF02E58E30E43E75FF02A3
:10406000E58E54EF4410F58E9030441222751233D1
:10407000CB9030441222D2900000E475F00112205F
:104080001BE55030E0020539E550700D755009050B
:104090004CE54C7002054B8002155075FF02E5851A
:1040A00030E40875FF024385100554D0FFD0D0D00E
:1040B00082D083D0F0D0E032E4900572F0900564B5
:1040C00004F022123BDD500611D050028001C322C1
:1040D000E5F754E024FF22AF14EFC36001D322EFD1
:1040E000C3940E5005900554EFF022E517540FFFCE
:1040F00022E517C394F0501F5317F0311AFE740FC6
:10410000C39F4005EE940E400543170D8003EF4218
:1041100017E517540FFF227F0022E517C4540FFE46
:10412000EF90270E932E22311AFFC3940E40027F88
:104130000DEF9026F093FF22EF30E303AF1322AD93
:104140001B203604EE30E00BE517C394F05020310D
:10415000728018E5196006FDE4F5198012E517C3B1
:1041600094F0500BE517540FFF60043127AD07AFF3
:104170000522900554E0FDFFC3740E319AEFC4F898
:10418000540FC868FFEEC454F048FEE51754F0C35E
:10419000123B347F005002AF05229FFFE49400FEE3
:1041A00022903054EDF0901211E0F46005A3E0B4D9
:1041B000FF0C9030567418F0A37413F08010901216
:1041C00011E0903056F0901212E0903057F0121E2D
:1041D000AF64016002610A903054E0FE640860043C
:1041E000EEB404089030557428F080069030557471
:1041F0003AF0EF12322BFF122200E4710BEF24D8B9
:10420000FFEE343FFEED3493FDEC3416FC7B007A78
:10421000807903780012264271C3903057E0FF90F6
:104220003056E0C3319AE4FCFD1220D6ECC0E0ED3C
:10423000C0E0EEC0E0EFC0E0903057E0FFE4FCFDEE
:10424000FE710BD0E0FBD0E0FAD0E0F9D0E0F8EB63
:104250002FFBEA3EFAE93DF9E83CF8903055E0FFE3
:10426000E4FCFDFE1220D6EF2454FFEE340B123393
:10427000D1E47BA87A16F9F8122642CBEFCB903026
:1042800054E014605D14601B24FE600C24FC707A02
:10429000E4F5FF75CE318006E4F5FF75CE21F5FF1C
:1042A0008BCF22E4FAE4F5FFEA2440F5CEE4F5FFF3
:1042B000EAFFC37407319A745F2FF58274273EF5C5
:1042C00083E47113C39DF5CFE4F5FFEA2448F5CEEE
:1042D000E4F5FFEA90275F71132DF5CF0AEAB408E1
:1042E000C422E4F5FF75CE01F5FF8BCFF5FF75CE47
:1042F0000EF5FFEB25E0F5CFE4F5FF75CE0FF5FFEA
:10430000CFEBCFEB75F003A4F5CF227B64FAF9F87D
:104310000220D69325E0FDE433FCEB75F010A4FFFA
:10432000AEF0121F90CDEFCDEBFFE4C313EF1322DD
:104330004315015315DF313871704004E4F5142240
:1043400043FA045315FB30450471E6800A7F55712A
:10435000597F557159D2EBD32275FF01E5D520E67F
:1043600002C322E5FA540360FA75FF018FC3D3221A
:1043700090061DEFF0900553E0FF71D090061EEF00
:10438000F0900553E024FD601304700890061C743F
:1043900004F0800E90061C7408F0800690061C74D1
:1043A00002F07F01121DA490061EE090061C71BC55
:1043B000E4902F67F01233D950EDD322FFE0FDA334
:1043C000E0FB22C8ECC8C9EDC9CAEECACBEFCB22CC
:1043D000EF24FD600680007E018002E4FEAF06222D
:1043E000123F3743FA04E4F5FF53D1FD43D10122D4
:1043F000C0E0C0F0C083C082C0D075D008C0FF75D7
:10440000FF01E5D530E6047F028009E5D57F003065
:10441000E7027F018F18E5186402600281CAE51483
:10442000122431443C01444F0244B308445A094425
:10443000650A44730B44900C0000461475FF017527
:10444000C355151AE51A6002C114751402C114751A
:10445000FF0175C3F0751409C11475FF0175C355CB
:1044600075140AC11475FF01900565E0F5C3751454
:104470000BC11475FF01900552E0F5C37514017569
:104480001A14900573D1A06002C11475140CC114E4
:10449000AB1CAA1DA91ED14AAD16AF1FD1AA123A54
:1044A000FA75FF00D19743FA0475FF0071E975149E
:1044B00008C114C2EB751400431504D1B74002C102
:1044C00014E475F00112201BC114E51864016002A8
:1044D000C114D17F4002C114E510705BD13CE5D915
:1044E000121F4AD130E0900635F0F106D1D1900587
:1044F00051EFF0900635E0FFD394095002A18B9064
:104500000551E0D39402400CEFD394AA7F004002FF
:104510007F01800D900635E0D394407F0040027FFC
:1045200001EF60028065900635E0FFF51675FF002B
:104530008FD9751003C114E51064036002C114D152
:104540003CD186E5D9121F4A75FF00900551E0C3A2
:104550009403E5D350055402FF80035401FFEF603C
:104560002E30E111C390055FE094FF90055EE0946A
:10457000FF5018800FC3900561E094FF900560E044
:1045800094FF5007E475F00112201BD156C114C2EC
:104590004F123C6775FF00123FF1E5D120E0FBC2EE
:1045A000EB431502D128E0FF9003C2E0FEEF6EFF5F
:1045B000851282851183E09003C1D121A3E090038D
:1045C000C3D121A3A3E0FE9003C4E0FDEE6D4F60D4
:1045D00016C3900563E094FF900562E094FF5007D6
:1045E000E475F00112201BC390055DE094FF900577
:1045F0005CE094FF5007E475F00112201B75100079
:10460000900551E0B403071516D130E516F090037C
:10461000C0E516F0D0FFD0D0D082D083D0F0D0E06B
:1046200032FEE0FDEE6D4FFF851282851183A322DD
:10463000E5122407F582E43511F5832275FF01F5B3
:10464000EA75EAFF90055502231BE4F5FFE9D18ED8
:10465000EA540F42D622C24F123C67123FEEE5D118
:1046600020E0FBE4F5FF75D908900551E07F00B428
:1046700003027F0171E0D24F123C67E4F51022E59E
:10468000F754C024FF22E92401F9E43AFA22F5D7CD
:10469000E4F5FF53D6F022E5D254804414F5D2223B
:1046A00074FFF5F012201B45F022E4F5FF8FD4F5DE
:1046B000FFCFEDCF8FD522C3900559E094FF900531
:1046C00058E094FF22D1B75007E475F00112201B87
:1046D00022EF24FE600C24FE600580007F01227F13
:1046E00002227F0322E4F5FF75D102E5D120E0FB31
:1046F000E4F5D1F5FFEFD18EEE540F42D6E4F5FF8D
:10470000CFEDCF8FD422E5F75406FFBF06037F0815
:1047100022E5F75406FFBF04037F0422E5F75406A1
:10472000FFBF02037F02227F01229003C8E0B40290
:104730000D8F1B9005DFE0F513121BBFD322C322A0
:1047400090061912232490061912231BE51BF16D04
:104750002401F1682402F168F178E513F16D240475
:10476000F168F17FE4021F4AF9E43AFAE4121F4AC1
:1047700090061912231BE9222403F9E43AFA2224B1
:1047800005F9E43AFA22E51754F0C4540F2FFFC399
:10479000941040027F0FEF9026FE93FF227E10EED2
:1047A00060091EEE9026FE93B507F4EEC3940E400A
:1047B000027E0DEE9026F093FF22C2AFEF4215D29B
:1047C000AF22751401751A13900565EFF09005532B
:1047D0007402F0ED90057330E507E4F0A3743AF04D
:1047E00022E4F0A374E6F022C390055BE094FF900E
:1047F000055AE094FF5007E475F00112201B229047
:104800000573E0A3E0FF229005F91223249005FC34
:10481000EDF0E4A3F0ED54FE9005FCF06030E4FF11
:10482000123812BF01289005F912231B1230DB50F9
:104830001D9005FAE475F00212201B9005FDE0249E
:1048400002F09005FDE0FF9005FCE06F70D87F015D
:104850001238129005FDE0FF227D021107EFC360C0
:1048600001D322E4FFFEFDFC900566117890056AF5
:10487000117890056E0222D21222D2E4FFFEFDFCD6
:1048800022EF118A12227502225B25E025E02466C0
:10489000F582E43405F583229003C1E0F4FFA3E040
:1048A0006FFFA3E06FFFA3E06FFF64556009EF6443
:1048B0004A6004EFB40A010F900552EFF022A2EB18
:1048C0009247C2EB7A0579587B017D0CE4FF1219FF
:1048D0006CA24792EB22A2EB9248C2EBEBC0E0EA5B
:1048E000C0E0E9C0E07B017A057958902F8412235B
:1048F00024D0E0F9D0E0FAD0E0FB7F0C121999A2A5
:104900004892EB227F017E009017FCE4935EFE74D8
:1049100001935F4E24FFB322900001740193B40011
:1049200007E493B41802C322D322C003C002C0011B
:104930007B017A2F7958902F84122324D001D00242
:10494000D0037F020219991237A0EF6401706A3117
:10495000F0903106EFF0D39402505E902F5CE0FFB0
:10496000903106E06F705231BA903107EFF07B0161
:104970007A3179077D01121C5F903106E02458F5E9
:1049800082E4342FF583EFF0902F5CE0045401F0C3
:104990007027902F5AE07002A3E0601D7B017A2FF0
:1049A0007956312A7B017A2F7956902F5AE0FEA34F
:1049B000E0FFF5828E8312245B22E4FFE5F754C00A
:1049C0006002801675FF01E5D530E30D31DF50F44C
:1049D00031DAEF60EF31DF50EB2231E6AFD92275EB
:1049E000FF01E5E4332275FF01E4F5EA75EAFF22F1
:1049F000E5F45418131313541FFF22902F5AEEF0AE
:104A0000A3EFF022EF7011ED600775FF0143AE01D7
:104A10002275FF0153AEFE22EFB40110ED60077561
:104A2000FF0143AE022275FF0153AEFD2275FF0266
:104A3000E5E630E2037F0322E5E630E3037F002270
:104A4000E5E630E1037F0422E5E67F0530E0027F02
:104A50000122EF600775FF0253E6BF2275FF024394
:104A6000E64022EF14600F146014240270188B804B
:104A700075FF018DFD228B9075FF018DC9228BA0E2
:104A800075FF018DCA22AF038FB075FF01AF058F8F
:104A9000CB22902F5E122324EF146011146018248F
:104AA00002701E51CCE58051D2E5FD801C51CCE551
:104AB0009051D2E5C9801251CCE5A051D2E5CA800F
:104AC0000851CCE5B051D2E5CB021F4A902F6102CC
:104AD000231B121F4A75FF01902F5E02231BE4F572
:104AE000FFAF9122E4F5FFAF922243FB1075FF0266
:104AF00043E640EF600D75FF02E5E120E7FB43FB75
:104B00000D800343FB0E80FE7FE87E0390304871EA
:104B1000C37A30794A7139501490304AE0FEA3E0EC
:104B2000FF903049E09F903048E09E400B90304825
:104B3000E0FEA3E0FF12376822714EAD94EF4D7195
:104B4000988FF01220AAE591C330E701D32275FFB8
:104B500003AF93EF75F010A4FF22CDEFCDCCEECCD8
:104B6000714EAB94EF4B7198CBEFCBFAE59130E7F8
:104B7000187151A994E9F582EF4582FFEB71CBC31F
:104B8000EF9582E5F0958340E3E59120E709CEECCF
:104B9000CECFEDCF12368A2224FBFFE5F034FF2280
:104BA000E4F5FF75C2E17F1E71BB30E707E4F5FF56
:104BB00075C2A122E4F5FF75C28122FE715A9012DE
:104BC0000FE022EEF0A3EFF07B01222DF582EA3C0C
:104BD000F583229030AC91067F017C127D01E4FECA
:104BE0008D828C83ED2EF582E43CF583E02FFF0E61
:104BF000EEB412EC901213E06F600A9030AC123FEA
:104C0000E0E4121F4A22EBF0A3EAF0A3E9F02290BD
:104C1000304C1222D275FF0190304CA3E0FDA3A3CB
:104C2000E4FFFEE4FC78101222358FE190304CA3B3
:104C3000A3E0FEA3E4FFE4FDFC78081222358FE236
:104C400090304CA3A3A3E0FF8FE322C24975FF037A
:104C5000759B1F75FF0390120FE020E71BE59A5428
:104C60000FC394024012E04480F0E4F5FF75C2A146
:104C700043FC0475FF03D249E5FC30E609E59A548C
:104C80000FC3940540CDE5FC30E611E4121F4A75D0
:104C9000FC80F5FC75FC40E5FC20E6FB3049031286
:104CA000338922EF30E00E43F401E4F5FF43A4041E
:104CB000F5FF759624EF30E10E43F401E4F5FF4370
:104CC000A408F5FF759624EF30E20943F402E4F5F9
:104CD000FF75961EEF30E30943F404E4F5FF759683
:104CE0001075FF01EF5403600475D7122275D72D9C
:104CF00022E4F5FF7584E6F5FF439404F5FF75980B
:104D00001422E4F5FF75933F75FF03759A4091F106
:104D1000E4F5FF759C93F5FF75A1A3F5FF7585314B
:104D2000F5FF758628E5FA54304480F5FA75FF01E1
:104D300075E74A75FF0275DF4975FF0143D30475B6
:104D4000FF0153D367E4F5FF53E6BF75FF0175D844
:104D500025F5FF75B503F5FF75B215F5FF75BA02B8
:104D6000F5FF75AFB3F5FF75CD0AF5FF75CB08F507
:104D7000FF75CA12F5FF75BF0EF5FF75CC96F5FFEE
:104D8000F5BDF5FF75C281F5FF75AEE1F5FF75DA8A
:104D900055F5FF75F580F5FF75E903F5FF75E93306
:104DA000F5FF75972A75FF01759B42759CA4759D4B
:104DB00029759E48759F2475A11275A312759AF8DE
:104DC000204C0CF5FF43968090120FE04440F022F7
:104DD000CCEFCCCFEDCF74017E00C8EFC8088005C2
:104DE000C333CE33CED8F9FFCDECCDEF5D601B30B1
:104DF0004B1875FF0175DCAD75FF0175DDCDE4F570
:104E0000FF759A74F5FF7594842275FF0175DC5364
:104E100075FF0175DD33E4F5FF759A14F5FF7594A0
:104E2000042275FF0175E46575FF0175D64722E51B
:104E3000FA30E1FB75FC8075FF0153D5EFE4F5FC1A
:104E400075FC401237E5E5FC20E6FB2275FF01E525
:104E5000D530E602C32253FACFEFB4080543FA3047
:104E60008012EFB4040543FA208009EFB402054331
:104E7000FA108000D32275FF018FDA22E5F730E5C2
:104E800010E5F754C070051237CE40F01237E5C375
:104E900022D32290305CF133EBF0F117FC12264262
:104EA000AC00AD01AE02AF03C006C00790305CF1AC
:104EB0002BFBAA06E4F9F8D007D006D312220E7E07
:104EC0000050047F0180027F00C006C007F117FC7C
:104ED000122642D0E02FFFD0E03E90305CF0A3EFEE
:104EE000F053ECFC90305CE0FCA3E0FDEC5403429A
:104EF000EC75FF02EDF5AF75ED0275ED04A3E06012
:104F00000543EC08800353ECF790305FE060044306
:104F1000EC042253ECFB2290305CE0FEA3E0FBAA01
:104F200006E4F9F87F807E387D0122E0C313FEA3FA
:104F3000E01322EEF0A3EFF0A3EDF0A322C2ACE465
:104F4000F543F542F541F53FF540F53E7B017D0126
:104F5000D193D2AC22EF600775FF0243E6102275B1
:104F6000FF0253E6EF2275ED042275ED0222C0E048
:104F7000C0F0C083C082C0D075D000C000C001C0E6
:104F800002C003C004C005C006C007C0FF125037EE
:104F9000EF6029F16612500DE53EC3942040037581
:104FA0003E00E542C394205010AE3E053E74A12E53
:104FB0001254D3EFF005428003754220125031EFB6
:104FC0006023F16AE543D39400401AE54194204000
:104FD00003754100AF41054174C12F125734E0FF02
:104FE0001250101543D0FFD007D006D005D004D002
:104FF00003D002D001D000D0D0D082D083D0F0D066
:10500000E032E5ED30E2FB75ED04AFEF22AFEF22C9
:105010008FEF22E5ED20E0FB8FEF22EF600443EC01
:10502000042253ECFB22EF600443EC082253ECF71C
:1050300022E5ED5402FF22E5ED5404FF22E5ED5494
:1050400001FF22C2AC113DEF7004E54360047F0113
:1050500080027F00D2AC22902E11E0121F4A902EC7
:1050600016E0900001121F5C902E17E090000202E3
:105070001F5C35F0FEAF01E4FCFD022BEEAB05E456
:10508000FCFD903020EBF0022A50902D181222D215
:10509000902D1C122324E4902D3FF0D3902D20E07E
:1050A000941E902D1FE094004001227B017A2D79FF
:1050B00021902D1F31E1902D181222751229059093
:1050C0002D1C12231BE94A600B902D3FE0F5823125
:1050D00005FF80027F00902D3FE02421F582E4341B
:1050E0002DF583E06F6002C322902D3FE004FFF0B6
:1050F000D3902D20E09F902D1FE0940050C12212EC
:10510000231B1E8E82758300021EC8903007317CDF
:10511000E58F20E0FB3183E4FF90300712231B8FE3
:10512000823105F5930FEFB410EFE4FF90300A12CF
:10513000231B8F823105F5940FEFB410EF22902FCF
:1051400015317CE58F20E0FB31837E10902F181104
:10515000FFF593EE70F67E10902F1511FFF594EE8B
:1051600070F67F01319331D8EF70FB7E10902F1BCA
:1051700012231B1E8E8231AAEE70F2221223247596
:10518000FF012275FF01538F0675FF01538FF075E4
:10519000FF0122EFB4010731C94401F58F2275FFE9
:1051A00001E58F54F04406F58F22758300E59302E4
:1051B0001F5C903103317CE4FF90310312231B8F7D
:1051C0008231AA0FEFB410F12275FF01E58F54F67A
:1051D0002231C94408F58F2275FF01E58F5401FF84
:1051E00022E0FFA3E0902ECBCFF0A3EFF022902F90
:1051F000745104C007902F7412231B902F77510B0A
:10520000D007018A122324E4FCFD22E0FFA3E090F2
:105210002D1FCFF0A3EFF022E4FF022AFA902E1305
:10522000E0FF22E4902E13F022E4F5FFEFF5D8E43E
:10523000F5FF53D60FEE540FC4F854F0C8E4C4542D
:105240000F4842D622E4F5FF8FD422E4F5FFE5D1E2
:10525000540133333354F8FFE4F5FFE5D354074FDB
:10526000FF22EFB40109D2AD75FF0143AE4022C267
:10527000AD75FF0153AEBF2275C80122E5C85402C7
:10528000FF75C80222E5C85404FF22E5C85401FF97
:1052900022EF6004902F11F0900536E0FF90052674
:1052A00012231B1219E9900536EFF0604B201B48C2
:1052B000902F0FE0C330E501D3921F902F1271148D
:1052C000902F10E09005A5F0902F0E710D7452F004
:1052D000A37491F0900536E0FBAD4FE4FF121C3C47
:1052E000EF7029902F117402F0902F0CE0FEA3E0D4
:1052F000F5828E837F028011902F11E0FF902F0C9A
:10530000E0FCA3E0FDF5828C8312245B22E0900593
:10531000A6F0A32212231B9005A2022324902E1E86
:105320009154902E297403F0902E26E05437F0E02B
:10533000FE5420902F0FF0902E27E0FDA3E0902F39
:105340000CCDF0A3EDF0902E2212231B902F121201
:105350002324902E25E0902F10F0902E1F12231B57
:10536000900526122324EE4420902F0EF0E4902F77
:1053700011F0C21BF548902E1F12231BAF481219C3
:10538000E98F48EF602A7D03121B7940E9902E25B2
:10539000E0D3941940037F0022AF48121B745008D9
:1053A000902E297401F08008902E297402F080C696
:1053B000902E25E0D3948240037F00227F02121BAF
:1053C000DD902E2A122324EA494B605F902E1EE0C6
:1053D000FF902E2A12231BE924B69149902E26E035
:1053E000FE30E01EE4900536F0912EEE6401A3F04D
:1053F000A37452F07491913712231B902E29E0FF71
:105400008021902E29E0FF912E902E26E090058B92
:10541000F0902F0CE0FDA3E090058CCDF0ED9137DE
:1054200012231B7D02121C327F01227F0022902E4C
:1054300025E090058AF022A3F0902E2A12231B90DB
:10544000058E122324902E2222F9E43AFAEF021F4D
:105450004AEEF0A3EFF0A3022324C003C002C00170
:10546000902EB412231B902E22122324902EB7E0EC
:10547000902E25F0902EB8E0902E26F0902EB9E0D8
:10548000FFA3E0902E27CFF0A3EFF0D001D002D001
:1054900003AF4F611D021A02E4FF302A037402FFBA
:1054A00022200005D212021AC5C322D322AF422203
:1054B000E540C394204003E4F540AF40054074A1AB
:1054C0002F91D3E0FFC2ACE542D3940040021542D5
:1054D000D2AC22F582E4342CF58322C2ACC3742012
:1054E0009543FFD2AC22122EB92275FF01E58F54ED
:1054F00008FF22EFB4010775FF0143AE202275FFBC
:105500000153AEDF22EFB4010775FF014391202262
:1055100075FF015391DF22122324902DE0E0540FF8
:1055200022C2077B007A00794F902FC81223240BE8
:105530007A0379C122902E6C12231B902E71E0FF0A
:10554000A3E0902EC2CFF0A3EFF0902E6812227548
:10555000122B06902E71E0FEA3E0FFC3902E70E0A8
:105560009FF0902E6FE09EF0902E68122291E4FC46
:10557000FD1220C9902E681222D2902E6C12231B8D
:10558000E92275F005A424F3F9740035F0FEAF01AB
:10559000222409F9E43AFA22FDEF4DFFE5F08FF0FD
:1055A0000220AA12231BEF021F4A12231BE9240226
:1055B000F9E43AFA22E92404F9E43AFA2212231B24
:1055C000EA494B2212231BE92408F9E43AFA221291
:1055D000231BE9240422E0FEA3E0FFC322E0FFA393
:1055E000E0902E6FCFF0A3EFF02274FFF5F01220C1
:1055F0003145F0227F02123FD49003BFE09003C7F1
:10560000F09003BF04F0C39402229003C7E0FD753D
:10561000F0AA9003CB12230FAF82AE83EF227B015F
:105620007A0379C1229003C9E0FEA3E0FF1219D0EA
:10563000D3EF94C8EE940022902E19E024FFFF903F
:105640002E18E034FFFEE4FCFD22E924FFF9EA34E1
:10565000FFFA021EAFFF12231BC3E99FF9EA9EFA6D
:1056600022E0FF902ECBE4F0A3EFF0227B017A053D
:10567000792022902E19E09FFF902E18E09EFE22A6
:10568000F0E4A3F0A3F022E4F0A37405F022FF8D70
:10569000828C8302245BE0FCA3E0FD4C22F583EEC8
:1056A000F0A3EFF0227B017D01021C00242DF9E420
:1056B0003AFA7D04E4FF22EEF0A3EFF0AA06F97BAC
:1056C0000122E4FCFD0220C9902F8B022324FDE47B
:1056D000F0A3EDF022FFE0FCA3E0FD22FA740775D1
:1056E000F0D00220AA7404F0022F29122324021EF3
:1056F000AF7407F0E4A3F0227B017A2A79222275A5
:10570000FF01438E1075FF0122242CF9E43AFA744C
:1057100040227B017A3079107F0222902D95E0FFA4
:1057200014F0EF22902E71E0FEA3E022F0A3F0A38C
:10573000F0A3F022F582E4342CF583227431F0A337
:105740007499F022E0FEA3E0FF7C0022F582E434AD
:1057500005F58322902EEFF0A3EFF022FF54F0C462
:10576000540FFE227401F0AE04AF0522AA06A90769
:10577000022457AF03EAF0A3EFF0229003C1E0C385
:1057800094C022122F2974FFFDFC22F0902E0FE00E
:10579000FFF42290120EE0D394012233333354F8F5
:1057A000F5F42275FF03902D95E0229003C1E0FFF0
:1057B000A3E022FFFFFFFFFFFFFFFFFFFFFFFFFF51
:1057C000FFFFFFFFFFFFFFFFFFFFFFFFFFFFFFFFE9
:1057D000FFFFFFFFFFFFFFFFFFFFFFFFFFFFFFFFD9
:1057E000FFFFFFFFFFFFFFFFFFFFFFFFFFFFFFFFC9
:1057F000FFFFFFFFFFFFFFFFFFFFFFFFFFFFFFFFB9
:107F7000FFFFFFFFFFFFFFFFFFFFFFFFFFFF02000D
:107F8000022490294902043D02294B297900330437
:107F9000052202297E31800807050522023185313C
:107FA000930013FF0522FFFFFFFFFFFFFFFFFFFF0F
:107FB000FFFFFFFFFFFFFFFF7FC6635C28B938AC00
:107FC0000000030805AAFFFFFFFFFFFFFFFFFFFF01
:107FD000FFFFFFFFFFFFFFFFFFFFFFFFFFFFFFFFB1
:107FE000FFFFFFFFFFFFFFFFFFFFFFFFFFFFFFFFA1
:107FF000FFFFFFFFFFFFFFFFFFFFFFFFFFFFFFFF91
:10800000EF547024F0602624F0603C24F060522489
:1080100030706730510B117E8002C333D8FC428030
:1080200022117E8002C333D8FCF452802230510BDF
:10803000117E8002C333D8FC429022117E8002C39D
:1080400033D8FCF452902230510B117E8002C3339E
:10805000D8FC42A022117E8002C333D8FCF452A087
:108060002230510B117E8002C333D8FC42B0221162
:108070007E8002C333D8FCF452B02275FF01EF5466
:1080800007FF7401A8070822EF547024F06017243A
:10809000F0601E24F060252430702B117B8002C319
:1080A00033D8FC42FD22117B8002C333D8FC42C985
:1080B00022117B8002C333D8FC42CA22117B80028A
:1080C000C333D8FC42CB22EF547024F0601824F064
:1080D000602024F060282430702F117B8002C3338D
:1080E000D8FCF452FD22117B8002C333D8FCF45239
:1080F000C922117B8002C333D8FCF452CA22117BFF
:108100008002C333D8FCF452CB229030C4EEF0A3EB
:10811000EFF0A3EDF0E0FF14F0EF7002C32212E2E3
:1081200010125077AD073058109030C6E0117F80A4
:1081300002C333D8FC4DFD800F9030C6E0117F8024
:1081400002C333D8FCF45DFD12E21002507D902A88
:1081500057E0FFAD07E546600D30090A7E1F7FCA74
:10816000D258310AC217902A17E0700E902A1904CB
:1081700012DB0312C2CBF012C1622290314BEFF03E
:10818000C003C002C001A801AC02AD03D001D002FF
:10819000D0037E007F13121E89902A56E0122431EC
:1081A00081C80182780284C20384D8048451058482
:1081B000740684950784DF0884FC0985120B8538D2
:1081C0000F85041000008550E4902A51F0302331CF
:1081D00012551A6401702A902A57E064EF701590C6
:1081E0002A5CE020E70E902A5812A7A060061290A1
:1081F0000E12C887902A57E0B4EF06A3E0FF12D80A
:10820000B6C21E90314BE0C37001D39218C204E491
:10821000902A1EF0902A567402F09029CBE0FFB409
:10822000030A902A58E0902A57F0800FEF6401600B
:10823000079029CBE0B4020312C78A9029CBE07FD4
:1082400006B403027F0190299FEFF0902A5BE0FEC5
:1082500030E502D21F1298889005A57401F0EE1245
:10826000C7BE902A57E0FB902A51E0FFAD4F121C89
:108270003CEF6002A1508128E49029F8F090314B46
:10828000E07002613F90299FE014F07015E07008E3
:1082900030180F12E314600A9029CBE064016002E9
:1082A000613F90299FE06020902A5BE0FF30E5026B
:1082B000D21F129888740112C7B9902A57E0FB1296
:1082C000C2F76002A150812812E314707B902A56F5
:1082D000F0902A5CE020E75A902A58E0FF12D8B6C6
:1082E000902A58E0FF7D0112D468201408902A5883
:1082F00012A7A0604212900E12C8873017283009CA
:1083000025E546602112C77A902A58E0902A20F08D
:10831000902A5674051298879005A5740912C2E830
:108320006002A150812820170E902A58E0FF315397
:108330008005E4902A58F0902A58E0FDA3816CC291
:10834000189029CBE0B40307E4FBFD7F2381BF1223
:10835000E34B6007EF64026002A150902A57E0FFF0
:1083600012A13D902988EFF0902A57129E9512C8CD
:108370008712E2287F2112C991201702812B200940
:1083800002812BE5467002812B902A57E0654670EA
:1083900002812B902988E060099029D0E020E10239
:1083A000812B902A56740612C507740D12E30090B3
:1083B0002A59E0902A4EF024FEFF12D6F41297B00C
