:020000040000FA
:100000000218000218030907090C2202180B0ACE75
:020010000AD80C
:0700130002181307900A9286
:0F001B0002181B3FCE7F02220218231218D82290
:10002B0002182BE4FF021D28021833A245922A2244
:06003B0002183B022A63DB
:0E004300021843A246922D2202184B0238B436
:0700530002185375ED0422B1
:07005B0002185B75ED0222A3
:06006300021863AFEF225A
:06006B0002186B8FEF226A
:1000730002187341073500C12AC12D41073400E03E
:10008300020200003199E0020200022949E0040261
:10009300000446524545E00102001554E001020008
:1000A30016A5E00102200528E001022918FFE0055A
:1000B300022946294902043D4103EB06011400418C
:1000C30003EA014103E801C13601190001170041A8
:1000D3002C270041282F004127D0055D2B3100003C
:1000E300000000000000000000000000000000000D
:1000F3000000000000000000000000C13C4328A5F0
:100103000000004128B600C10EC131013800C12EE4
:10011300C12F412FAD00C15F432B9F000000412B36
:100123009E00412BA200412D44FFC132C134C13F87
:10013300412BC600015100C123412BB800412BC5FF
:1001430000602825F10522000000030008FE877FD8
:1001530088CF7FC04FFBD7FDE0670000800C808213
:10016300000000E87300800F00006000004121647C
:10017300004121760041216700412161004121694D
:10018300014121620141239A00C143C1444129181D
:10019300964129140FE00202294B0033E00502299E
:1001A300790033040522E00202297E0807E00502F4
:1001B30031800807050522412D19FF412D12FF410A
:1001C3002D1500412D1800C165E002023185001391
:1001D300E00C023187000003080003000805220435
:1001E3003DE0050231930013FF0522E0020231983E
:1001F30000000075819075FF03759E0212082002AE
:100203002076020313900076E47E019360F4A3FF4B
:10021300543F30E509541FFEE493A360010ECF540D
:10022300E0B4E00EEFFAEEF9A3A3A3A3DAFDD9FB42
:1002330080D654C025E0604B5026E493A3F85407BE
:10024300240CC8C333C4540F4420C8834004F45659
:10025300800146F6DFE480B00102040810204080EC
:10026300E493A3FAE493A3F8E493A3C8C582C8CAAA
:10027300C583CAF0A3C8C582C8CAC583CADFE9DE7D
:10028300E78085E493A3F8E493A34003F68001F2A7
:1002930008DFF402020BC2D5E830E70FB2D5E4C39E
:1002A3009BFBE49AFAE499F9E498F8EC30E717B287
:1002B300D51202CF121094E4C39BFBE49AFAE4999B
:1002C300F9E498F8800312109430D50DE4C39FFF2E
:1002D300E49EFEE49DFDE49CFC227890E4F6D8FDC8
:1002E3009000007F007E10E4F0A3DFFCDEFA902F85
:1002F300BCA3E583C394204011FEAF829020000E7F
:100303000FE48002F0A3DFFCDEFA120820020208E9
:100313002232EF90031E93900800730A20364CE5B7
:1003230052FF22EFF5522209040000020A000000E6
:1003330007058202200000070502022000000904CD
:10034300010001020201000524001001052401003F
:1003530001042402000524060001070581030800A7
:10036300200C220C270C2C0C310C360C3B0C400CB3
:10037300450C4A0C4F0C540C590C5E0C630C680C66
:100383006D0C720C770C7C0C810C860C8B000000BE
:1003930000000012010002020000085806000200DB
:1003A3000000000001090200000001008032040384
:1003B3000409A280CACF0998445CAD55064146950D
:1003C30003860B0F0000000000050000060000007C
:1003D3001000002428800000242080000011382110
:1003E30000004428800000442080000034382100AD
:1003F300003F241E16110E0B09070504030201F02A
:10040300C8A791776760463835323024222014001C
:100413000101020203030404050506060707094355
:100423000948094D095209570966096B097A098474
:1004330009D409D909DE09ED09F70A0B0A100A15CF
:100443000A290A2E0A650A6A0A6F000D4030000D58
:10045300403000000000020C00013F3F3F04040451
:10046300404040000000000BA50BAF0BB40BB90BD1
:10047300BE0BC30BCD0BD70BDC0BFA0BFF5A2D575F
:1004830061766520342E363100822D1C161311102F
:1004930010000301020604050B460B730B780CB81E
:1004A3000CBD0CC2E4FD7C0CAB050DEB90048093FA
:1004B3008F828E83F00FBF00010EDCEC01208F8250
:1004C3008E83E4F0A3740491D4743D91D4A3E4F037
:1004D30022F08F828E83A3A322902F90EFF0902C93
:1004E30038E0B40110C2ED7A2F7990902CB9B12D78
:0D04F300120B37D2ED227B017A07793922F6
:10050800902C387401F0FBB1377E077F9090073D3F
:10051800E0FCA3E04C700590073D8002C322EEF09A
:10052800A3EFF0D3227B011212577A2C7939227A61
:100538002C7941902D60121257902D637401F0A30D
:100548007405F07A2C7939020B327F01B162902C54
:1005580038E0B401047B01B13722EF600DB185AFFB
:1005680082AE83E4FD1222AB8010302A037F002282
:10057800120AFB1223F4E433FF227F01229007378B
:10058800E0FD75F0AA900743121242ED75F002A43F
:100598002430F9740735F0FA7B0122900490121286
:1005A80057900493EDF0E4A3F0ED54FE900493F01B
:1005B800602EE4FFB162BF012790049012124EB181
:1005C800F2501D900491E475F002120F4E900494BD
:1005D800E02402F0900494E0FF900493E06F70D957
:1005E8007F01B162900494E0FF22902C76F1EA90AA
:1005F8002C7C12121100000001902C807401F0F57F
:10060800FFE5D554C070051224295002C322E4F531
:10061800FF53967F75FF0175D5047F3FFE12176C57
:1006280075FF0143D508E4F5FF5394FBF5FF5384A8
:100638007FF5FF7598FF902C7AE5F4F075F49C75BA
:10064800FF01A3E5E4F075E4257B017A2C7980129B
:1006580013F9902C80E064016002E11EF5FF902CF4
:10066800797414F0902C7CF14EFF780112117B9074
:100678002C7C121205E5A730E1FB43A702902C7CE5
:10068800F14EFFE5A730E005E47B018002E4FBFAC8
:10069800F9F8EF4BFFEE4AFEED49FDEC48FC902CD3
:1006A8007C121205902C79E014F070B8902C7CF133
:1006B8004EFF78101211687B6D7A4E79C678411218
:1006C8001009EF2439FFEE3430122B5DE4FBFA7980
:1006D80001F8121094EE547FFEE4FDFC12330390EF
:1006E8002C7CF14EFFEB6FFFEA6EFEE8CDEFCDCC30
:1006F800EECCECFF902C76F1CAEF120E7D902C76A2
:10070800F1CA900001ED120E8F90120FE030E6064C
:10071800E4F5FF75968075FF01E4F5D5902C7AE035
:10072800F5F475FF01A3E0F5E4123AF0902C80E0AF
:10073800B40103D38001C322EB25E025E02401F5B1
:1007480082E43412F583E0FCA3E0FDA3E0FEA3E01D
:1007580022E4FFB162EF602F91F9B1F25004F1DAAF
:1007680040F67B017A07793BB1F2500EF1E25FFF68
:10077800A3E05FFFA3E05FF460E8754B017E007FB4
:100788000891F9F1D3F1C122902C38E06401702866
:100798007B017A2C7939120B41EF701C902F91F064
:1007A800C2ED7A2F7991902C9AB12D120B3CD2ED93
:1007B800902F91E0FF120B0A227404F00229419055
:1007C8002EA9E0FBA3E0FAA3E0F922902D8FE4F034
:1007D800A322900739E0C394C022900739E0FFA311
:1007E800E022EBF0A3EAF0A3E9F0227B017A2D796D
:0607F800892275C80122F0
:10080000C0527408C0E0C082C08375520AE5FF542C
:10081000CF4490F5FF22C0527408C0E0C082C0836C
:10082000755220E5FF54CF4490F5FF22C052740862
:10083000C0E0C082C083755236E5FF54CF44A0F5B6
:10084000FF22C0527408C0E0C082C08375524CE5DC
:10085000FF54CF44B0F5FF2290800001169098021B
:10086000011690808801169080C701169098B301F8
:100870001690A8040116909DA6011690A8070116CF
:1008800090AFFF011690A602011690B1610116907B
:10089000B7F7011690B7FA0116909884011690B731
:1008A000FD011690B18C011690A2EE0116909FBB2F
:1008B000011690A380011690B3F4011690B2440182
:1008C0001690B59D011690B560011690AFA901165E
:1008D00090AE80011690A7970116909C8601169005
:1008E000C07B011690C7F5011690BB6E011690C82B
:1008F000190116909EE0011690BF600116909B9919
:10090000011690AB13011690CFF3011690D00A0197
:100910001690C3DD011690C0F8011690C88D01161F
:1009200090B8EC011690B9FA011690BA7C011690B5
:10093000A7F6011690D1A5011690B883011690D1A3
:10094000A8011690D6DC011690D6F4011690D72592
:10095000011690D741011690D3DA011690BD080117
:1009600016908152011690BF41011690D7A9011629
:1009700090AFF5011690A891011690B31D01169045
:10098000CFBA011690B318011690D857011690D619
:10099000710116909CC10116909E0A011690D3BF5A
:1009A000011690D2D50116909B5B011690D4BF0121
:1009B0001690D892011690D950011690D94501167B
:1009C00090D947011690D95D011690D979011690FA
:1009D000C7ED011690CBFE011690BFCE011690D93F
:1009E000A7011690B24C01169085CE011690A4DD99
:1009F000011690C1F7011690C6F9011690C3870140
:100A00001690DA1E011690D40F011690DA23011603
:100A100090DA300116908179011690D7D70116909F
:100A2000A9B6011690BC79011690DA5F011690BB49
:100A300095011690D395011690D1C0011690D3A9B7
:100A4000011690DAB7011690DBE9011690DB690117
:100A50001690DBEC011690DC25011690DBC2011626
:100A600090B2E6011690CE7C011690CE1C01169035
:100A7000CE4C011690C74D011690C20C011690C2C3
:100A800056011690D303011690DD0F0116909903BD
:100A9000011690DCA80116909A84011690DE2B01B5
:100AA00016909093011690DEEA011690DF39011638
:100AB00090DF66011690DF97011690DFB301169064
:100AC000DFD1011690E078011690E025011690E044
:100AD0009F01169095A90116909404011690E110BB
:100AE000011690B5C0011690B633011690E12001B1
:100AF000169097F501169098E0011690B7AA011686
:100B000090B3A3014290A839014290A8900142906D
:100B1000B492014290B682014290B2F0014290B587
:100B200056014290B871014290B889014290B8AE26
:100B3000014290B8B4014290ACEF014290ADA201E5
:100B40004290B902014290B90F014290B4EE0142C5
:100B500090A84F014290808B014290B9A50142902C
:100B60009A8F0142909C1B014290800B0142908D14
:100B7000C3014290BA25014290BA3D014290BA7039
:100B8000014290BA88014290BAD3014290BC3B0125
:100B900042908143014290BCD6014290BDC40142C3
:100BA00090ACD2014290B46C014290A301014290FA
:100BB000BDDC014290A4F4014290A66F014290BEB8
:100BC0000E014290A312014290BDF6014290A80F7F
:100BD000014290A196014290A6CF014290BD6501CD
:100BE0004290A69B014290A7330142909F30014260
:100BF00090BCE3014290BB24014290BE6701429049
:100C0000A01C014290A202014290BBE4014290BEAE
:100C1000CD014290BB7F014290B34E014290BF7420
:100C2000014290A0FD012C909D27012C90A107016D
:100C30002C90A111012C90A128012C90A141012CF4
:100C400090A156012C90A160012C909A72012C90D9
:100C5000A18D012C909D99012C909DF3012C90A1C8
:100C6000AA012C909E5C012C90A1B4012C90A1BEF5
:100C7000012C909EBA012C90A1C8012C90A1DB01FF
:100C80002C908000012C909F83012C909FB3012C0D
:100C9000908035012C90A2C0012C90A2C1012C9013
:100CA00093EA012C909723012C9099B8012C9099EC
:100CB0004E012C90A350012C90A38D012C90A339B0
:100CC000012C9099FE012C00E709F608DFFA804616
:100CD000E709F208DFFA803E88828C83E709F0A3F7
:100CE000DFFA8032E309F608DFFA8078E309F208D8
:100CF000DFFA807088828C83E309F0A3DFFA8064D6
:100D000089828A83E0A3F608DFFA805889828A8381
:100D1000E0A3F208DFFA804C80D280FA80C680D44B
:100D2000806980F28033801080A680EA809A80A853
:100D300080DA80E280CA803389828A83ECFAE49385
:100D4000A3C8C582C8CCC583CCF0A3C8C582C8CC13
:100D5000C583CCDFE9DEE7800D89828A83E493A333
:100D6000F608DFF9ECFAA9F0EDFB2289828A83EC20
:100D7000FAE0A3C8C582C8CCC583CCF0A3C8C5829D
:100D8000C8CCC583CCDFEADEE880DB89828A83E4D5
:100D900093A3F208DFF980CC88F0EF60010E4E607B
:100DA000C388F0ED2402B4040050B9F582EB2402AC
:100DB000B4040050AF2323458223900D1873BB0168
:100DC0000689828A83E0225002E722BBFE02E322E8
:100DD00089828A83E49322BB010B89828A83F8E0AB
:100DE000C828F0E822500327C722BBFE07F8E3C853
:100DF00028F3E8228A838982E49322BB010CE582EE
:100E000029F582E5833AF583E0225006E92582F848
:100E1000E622BBFE06E92582F8E222E58229F58278
:100E2000E5833AF583E49322BB010989828A83F83A
:100E3000E028F022500327F722BBFE05F8E328F351
:100E4000228A838982F8E4932822BB010FF8E58285
:100E500029F582E5833AF583E028F0225009C5821E
:100E600029F8E58226F622BBFE09C58229F8E2258B
:100E700082F222F8EA2583F583E9932822BB010652
:100E800089828A83F0225002F722BBFE01F322F806
:100E9000BB010DE58229F582E5833AF583E8F0226E
:100EA0005006E92582C8F622BBFE05E92582C8F274
:100EB00022EF8DF0A4A8F0CF8CF0A428CE8DF0A462
:100EC0002EFE22BC000BBE0029EF8DF084FFADF09A
:100ED00022E4CCF875F008EF2FFFEE33FEEC33FC84
:100EE000EE9DEC984005FCEE9DFE0FD5F0E9E4CEBA
:100EF000FD22EDF8F5F0EE8420D21CFEADF075F089
:100F000008EF2FFFED33FD4007985006D5F0F22291
:100F1000C398FD0FD5F0EA22C2D5EC30E709B2D56F
:100F2000E4C39DFDE49CFCEE30E715B2D5E4C39F1D
:100F3000FFE49EFE120EC3C3E49DFDE49CFC80030F
:100F4000120EC330D507C3E49FFFE49EFE22C5F016
:100F5000F8A3E028F0C5F0F8E58215827002158349
:100F6000E038F022A3F8E0C5F025F0F0E582158224
:100F700070021583E0C838F0E822BB010A89828A32
:100F800083E0F5F0A3E022500687F009E71922BBC1
:100F9000FE07E3F5F009E3192289828A83E493F5D9
:100FA000F074019322BB010789828A83020F4E509D
:100FB0000B09C5F027F7C5F01937F722BBFE0D095D
:100FC000F8E325F0F3C5F019E338F322F889828AB3
:100FD0008374019325F0C5F0F8E4933822BB010A2D
:100FE00089828A83F0E5F0A3F0225006F709A7F082
:100FF0001922BBFE06F3E5F009F31922EF2BFFEEF1
:101000003AFEED39FDEC38FC22E88FF0A4CC8BF0F1
:10101000A42CFCE98EF0A42CFC8AF0EDA42CFCEAB4
:101020008EF0A4CDA8F08BF0A42DCC3825F0FDE9EE
:101030008FF0A42CCD35F0FCEB8EF0A4FEA9F0EBE4
:101040008FF0A4CFC5F02ECD39FEE43CFCEAA42DF0
:10105000CE35F0FDE43CFC2275F008758200EF2FE0
:10106000FFEE33FECD33CDCC33CCC58233C5829B6E
:10107000ED9AEC99E58298400CF582EE9BFEED9A94
:10108000FDEC99FC0FD5F0D6E4CEFBE4CDFAE4CC30
:10109000F9A88222B800C1B90059BA002DEC8BF032
:1010A00084CFCECDFCE5F0CBF97818EF2FFFEE33EF
:1010B000FEED33FDEC33FCEB33FB10D7039940041A
:1010C000EB99FB0FD8E5E4F9FA227818EF2FFFEE41
:1010D00033FEED33FDEC33FCC933C910D7059BE972
:1010E0009A4007EC9BFCE99AF90FD8E0E4C9FAE4CE
:1010F000CCFB2275F010EF2FFFEE33FEED33FDCC6D
:1011000033CCC833C810D7079BEC9AE899400AED56
:101110009BFDEC9AFCE899F80FD5F0DAE4CDFBE4FE
:10112000CCFAE4C8F922EF5BFFEE5AFEED59FDEC74
:1011300058FC22C3E49FFFE49EFEE49DFDE49CFC7A
:1011400022EB9FF5F0EA9E42F0E99D42F0EC6480CC
:10115000C864809845F022EB9FF5F0EA9E42F0E9E2
:101160009D42F0E89C45F022E8600FECC313FCEDD3
:1011700013FDEE13FEEF13FFD8F122E8600FEFC36B
:1011800033FFEE33FEED33FDEC33FCD8F122BB012F
:101190000789828A830212055005E9F80213BDBB54
:1011A000FE05E9F80213C922E0FCA3E0FDA3E0FE7E
:1011B000A3E0FF22E493FC740193FD740293FE7498
:1011C0000393FF22E0F8A3E0F9A3E0FAA3E0FB22F7
:1011D0007401FF3395E0FEFDFCA3A3A3E02FFFF015
:1011E000E582158270021583E03EFEF0E5821582ED
:1011F00070021583E03DFDF0E582158270021583D3
:10120000E03CFCF022ECF0A3EDF0A3EEF0A3EFF055
:1012100022A8828583F0D083D0821212281212284D
:10122000121228121228E473E493A3C583C5F0C5F3
:1012300083C8C582C8F0A3C583C5F0C583C8C5826D
:10124000C822A42582F582E5F03583F58322E0FBF0
:10125000A3E0FAA3E0F922EBF0A3EAF0A3E9F0227D
:10126000E493FB740193FA740293F922BB0107899A
:10127000828A8302124E5005E9F80213D5BBFE059F
:10128000E9F80213E789828A83021260BB011A8996
:10129000828A83D0F0D0E0F8D0E0F9D0E0FAD0E054
:1012A000FBE8C0E0C0F00212575016E9F8D083D036
:1012B00082D0E0F9D0E0FAD0E0FBC082C083021314
:1012C000DEBBFE16E9F8D083D082D0E0F9D0E0FA98
:1012D000D0E0FBC082C0830213F022BB010DE58287
:1012E00029F582E5833AF58302124E5007E92582FB
:1012F000F80213D5BBFE07E92582F80213E7E58261
:1013000029F582E5833AF583021260BB0120E5826C
:1013100029F582E5833AF583D0F0D0E0F8D0E0F902
:10132000D0E0FAD0E0FBE8C0E0C0F002125750185D
:10133000E92582F8D083D082D0E0F9D0E0FAD0E07D
:10134000FBC082C0830213DEBBFE18E92582F8D001
:1013500083D082D0E0F9D0E0FAD0E0FBC082C08335
:101360000213F022D083D082F8E4937012740193B8
:10137000700DA3A393F8740193F5828883E47374CA
:1013800002936860EFA3A3A380DF8A838982E4735A
:10139000EC8EF0A4CCC5F0CCCDF8EFA4CEC5F02DEA
:1013A000FDE43CFCE8A42EC8C5F03DFDE43CFCEFA8
:1013B000A4FFE5F028FEE43DFDE43CFC22ECF60849
:1013C000EDF608EEF608EFF622ECF208EDF208EE84
:1013D000F208EFF222E6FB08E6FA08E6F922EBF65D
:1013E00008EAF608E9F622E2FB08E2FA08E2F92246
:1013F000EBF208EAF208E9F222902EF81207EA7FEF
:10140000017C127D01E4FE8D828C83ED2EF582E459
:101410003CF583E02FFF0EEEB412EC901213E06F58
:10142000600A902EF81207CAE4120E7D22902D83D6
:10143000123D0CEBF0902D897401F0C250D1EAD12D
:10144000B15005E5FC20E6F7D1BCBF0108E4F5FC8E
:1014500075FC408007D1BCBF0202D32275FF015347
:10146000D8EF902D84E0FF123C4B75FF0153D5DF80
:1014700053FAFB902D83E0FF122395902D84E0908A
:101480002D83B4080BE01207412452122B5A800519
:10149000E0120741FF122D8B902D85E0FFF1F275D0
:1014A000FF0175FF03759B04D1EA75FC42E5FC2042
:1014B000E104D1B140F4902D86E0F075FF03E59B87
:1014C00020E704D1B140F4E59B20E70D75FF0375DB
:1014D0009B1F123C2ED25080511207F371F9902DB0
:1014E00084E0FD90120FE05D701E902D83E0FF12EE
:1014F00007F31230E090120FE0FF902D84E0FEEF32
:101500004E90120FF0122CAD122ECA7B017A2D795B
:1015100087F179500FC3902D88E09420902D87E0BB
:10152000940340E71207F3123975F17030500281CD
:1015300035902D89E0B40103D38001C322C0E0C0FF
:10154000F0C083C082C0D075D000C000C001C0020E
:10155000C003C004C005C006C007902F92E5FFF08D
:1015600075FF02E5D430E60A75D440F1E94E600219
:10157000F1D075FF02E5D430E50A75D420F1E04ED4
:101580006002F1D075FF02E5D430E40C75D410D1BF
:10159000A9FF4E60031243E975FF02E5D430E30A68
:1015A00075D408F1E94E6002F1D875FF02E5D43038
:1015B000E20A75D404F1E04E6002F1D875FF02E54D
:1015C000D430E11A75D402122053EF6011D1A9FF73
:1015D0004E60051243D0800612202112204B75FF69
:1015E00002E5D430E01175D401D1A9FF4E60088F17
:1015F000828E837F07718E75FF02E5D530E4117509
:10160000D510D1A9FF4E60088F828E837F03718E23
:1016100075FF02E5D530E10C75D502D1A9FF4E600A
:101620000312433B75FF02E5D530E01175D501D1BA
:10163000A9FF4E60088F828E837F04718E75FF0232
:10164000E5D530E21175D504D1A9FF4E60088F822F
:101650008E837F0A718E75FF02E5D530E71175D54F
:1016600080D1A9FF4E60088F828E837F08718E75AE
:10167000FF02E5D530E61175D540D1A9FF4E6008CF
:101680008F828E837F09718E902F92E0F5FFD007B5
:10169000D006D005D004D003D002D001D000D0D0E5
:1016A000D082D083D0F0D0E032902DF7E0FEA3E0DE
:1016B0002275FF03E591C330E701D3227FFA7E0054
:1016C000F190D1F0E5FC30E604D1B140F7E5FC3013
:1016D000E6037F032275FF01E5D530E6037F022292
:1016E000E5D57F0030E7027F01227FE87E03F13BF2
:1016F00075FF0343918022902F93E5F4F0E0547F2F
:10170000F5F47F827E00F13BD1F0D1B15005E5FCCC
:1017100020E6F7305108902F93E04480F5F4D1EAA9
:10172000D1B15005E5FC20E6F775FF01E5D520E7CE
:1017300002C322E5F4D330E601C322902E9812446E
:101740001D7A2E799AF1795014902E9AE0FEA3E03A
:10175000FF902E99E09F902E98E09E400A902E9840
:10176000E0FEA3E0FFF190227F147E00F190D1F023
:1017700075FF03E59120E7FB22122F24AD94EF4D76
:1017800012447C8FF0120FDDE591C330E701D322C4
:1017900075FF03D3EF9402EE9400400874FE2FFF10
:1017A00074FF3EFEEFF592EE540FF59122F1C65311
:1017B000DB7F75FF0175D502F168F1C643DB8075EB
:1017C000FF01E4F5D52275FF01438E1075FF01225C
:1017D0008F828E837F01618E8F828E83E4FF618E84
:1017E000902DF5E0FEA3E0FF22902DF3E0FEA3E0B4
:0817F000FF2275FF018FDA22D0
:061800000201F6020902DC
:101808007FB875FF028FD675FF02AF058FD77F01AE
:10181800EF6003D2ED22C2ED22E0FFE546C39F222E
:10182B00022ACEE475FF02AFD4CDEFCD75FF02AF28
:10183B00D5EFFCEDCEECCEFF2212124E1E8E822285
:0F184B00023386E0F582758300020DFB020B0568
:10185B0002153D75FF02EFF452D475FF02EDF45201
:10186B00D522902E84121257902E87515A943F40B6
:10187B0003743FF075FF02E5CD30E105E4F54580DB
:10188B0003754501E5456036E5FD254604543FFFEC
:10189B00E5DD543F6F6027902E8711215020902E4D
:1018AB008412124E8546821151AEFD315D543F2498
:1018BB008EF582EC3406F583EFF0054680C6E545E0
:1018CB006008E5FD2546543FF5FDAF4622902FBB42
:1018DB00EFF07B017A2F79BB7D01116D7F01229097
:1018EB002E88121257902E8BEDF075FF02E4F54601
:1018FB00EDD3941F4003741FF075FF02E5CD30E26A
:10190B0005E4F5458003754501E5456036E5C925D8
:10191B004604541FFFE5DE541F6F6027902E8B117A
:10192B00215020902E8812124E8546821151AEC93D
:10193B00315D541F24EEF582EC3406F583EFF00590
:10194B004680C6E5456008E5C92546541FF5C9AF75
:10195B004622FFE546FDEE2DFD7C00ED22902E4745
:10196B0031DBE58F20E0FB31E2E4FF902E471212D2
:10197B004E8F821151F5930FEFB410EFE4FF902EC1
:10198B004A12124E8F821151F5940FEFB410EF22C1
:10199B00902D2431DBE58F20E0FB31E27E10902D82
:1019AB002711441151F593EE70F47E10902D2411F4
:1019BB00441151F594EE70F47F0131F212426BEF4A
:1019CB0070FA7E10902D2A1144124239EE70F522D6
:1019DB0012125775FF012275FF01538F0675FF0118
:1019EB00538FF075FF0122EFB401081242484401F6
:1019FB00F58F2275FF01E58F54F04406F58F229089
:101A0B002E8C121257902E8F515A943F4003743FD5
:101A1B00F075FF02E5CB2546543FFFE5DB543F6FE6
:101A2B006020902E8F11215019ADCB51B2543F2411
:101A3B004EF582EE3406F583E0902E8C51BA0546B6
:101A4B0080D2E546600625CB543FF5CBAF4622ED61
:101A5B00F0E4F546EDD322902E90121257902E9370
:101A6B00515A941F4003741FF075FF02E5CC2546B5
:101A7B00541FFFE5DC541F6F6020902E93112150F3
:101A8B0019ADCC51B2541F24CEF582EE3406F5833A
:101A9B00E0902E9051BA054680D2E546600625CCE3
:101AAB00541FF5CCAF4622ED2546FF7E00EF22FFFB
:101ABB0012124E854682758300EF020E8F902AFE1E
:101ACB00121205902B02121257E4902B25F0D39093
:101ADB002B06E0941E902B05E094004001227B0125
:101AEB007A2B7907902B0512436B902AFE1211A8C3
:101AFB00713A902B0212124EE94A6008902B251175
:101B0B004EFF80027F00902B25E02407F582E43402
:101B1B002BF583E06F6002C322902B25E004FFF0CE
:101B2B00D3902B06E09F902B05E0940050C422909D
:101B3B002CD3121205902CD7121257D1AE9136EF2F
:101B4B006004D1BD80F791BF7F03D18B600A902CCD
:101B5B00D31211A878107193902CD3718E902CD333
:101B6B001211A8E47197902CDA1241CD600F912AD3
:101B7B00902CD71242F4902CD8F1E280E9B197E483
:101B8B00FFA1281211A87808121168E4E5C820E219
:101B9B00FB8FEB227F01B128902F957401F0902FD2
:101BAB0095E0603791C37F059128902F95EFF0B1A9
:101BBB00979124902C1AEFF0912A902C1BEFF0B1F7
:101BCB0097902F95E05401F1E960D3A3E0F460CE38
:101BDB00EF30E7CAE4902F95F080C391C37F9F91BC
:101BEB0028902C1CEFF0912A902C21EFF0912A9049
:101BFB002C22EFF0B124902C1AE0F4601BA3E0F43C
:101C0B006016902C21E0FD541F240FA3F0EDC4139C
:101C1B0054074480902C21F02291C37FD771977F7A
:101C2B00FF7197E5C820E2FBAFEB227F01B12830B3
:101C3B00521691C37F059128902F97EFF0B1979093
:101C4B002F97E020E002C25230521E9124902C1AA2
:101C5B00EFF0912A902C1BEFF1E9600BA3E0F460FD
:101C6B0006EF30E702C252B197E4FFB128A252E46B
:101C7B0033FF22902E5C121205F102D113902E60CD
:101C8B00E06F602ED1AE9136EF6004D1BD80F7D1FD
:101C9B00766006F10278107193902E5C718EF102D2
:101CAB00E47197902E60E0FFB122902C1E7401F02E
:101CBB00D322C3227F01B128902C1FE01213641C86
:101CCB00E6041CEE141CF3151CF8171D08301D0D33
:101CDB00341D12361D173700001D005334EF8534A9
:101CEB0080802F5335EF80085335DF800353357FCA
:101CFB00853590801D5336DF8536A080155337FE12
:101D0B00800D5337EF80085337BF800353377F85E0
:101D1B0037B07F0CDFFE227197B197E4FFEFB40170
:101D2B000443FE202253FEDF22902CCA1212059090
:101D3B002CCE121257D1AE9136EF6004D1BD80F785
:101D4B00D176600A902CCA1211A878107193902C3E
:101D5B00CA718E902CCA1211A8E48021902CD1123A
:101D6B0041CD601D902CCE12430D600F902CCE12E6
:101D7B0044157197902CCFF1E280E1E4FF719780CD
:101D8B00DBB124902C1E7401F0227197123FC2EF2D
:101D9B0070FA902C21E0F4600A902F947406F0F105
:101DAB00F170FC902C1FE01213641DD1041DD9148B
:101DBB001DDE151DE3171DF3301DF8341DFD361EFA
:101DCB00023700001DEB433410853480802F4335E0
:101DDB001080084335208003433580853590801D66
:101DEB004336208536A08015433701800D433710CD
:101DFB00800843374080034337808537B0902F945A
:101E0B00740CF0F1F170FC22902E57121205D1AE2A
:101E1B009136EF6004D1BD80F791BF7F03D18B600A
:101E2B000A902E571211A878107193902E57718E1D
:101E3B00902E571211A8E49128902E5BEFF0B1244D
:101E4B00902E5BE0FF22D1AE9136EF6004D1BD80C6
:101E5B00F77F01B128D25291C37F06B19591C37F11
:101E6B000171977F03B195E4FFA1287F01B128D2BF
:101E7B005291C37F067197B19791C3902C1DE0FFD0
:101E8B007197902C20E0640222902C1AE020E01233
:101E9B0091BF7F3D71977F2A71977F8071977FA646
:101EAB00B1222275FF02E5E430E10675E40675E424
:101EBB000322E51530E20FE51520E50AE51530E0C4
:101ECB00057F0112056222902F96EFF0902C28E0EF
:101EDB006402702291BF902F96E07FAB60027FB9B6
:101EEB007197B197902F96E0902C27F070047F1E7E
:101EFB00DFFEE4FFB12822902E5C0211A8902C810A
:101F0B00121205902C85121257902C8512124E909E
:101F1B002C881229E3902C811211A851C85002E190
:101F2B00D4902C24E024FFFF902C23E034FFFEE41C
:101F3B00FCFD902C811211C4121126902C8A124395
:101F4B00C9603A902C8A122EB7902C24E09FFF90F8
:101F5B002C23E09EFE902C8AF0A3EFF0902C88E0CF
:101F6B00FCA3E0FDD39FEC9E50031243341242902E
:101F7B0060051243FB80457E007F00803F902C88DC
:101F8B00E0FEA3E0FF4E603F902C23E0FCA3E0FDBE
:101F9B00D3EF9DEE9C400A902C8AECF0A3EDF080E1
:101FAB000D902C88E0FFA3E0A3CFF0A3EFF012423B
:101FBB009060051243FB80047E007F00902C86EE20
:101FCB008FF0120F4E80B6D322C322D1AE9136EFD3
:101FDB006004D1BD80F722E475F001020F4EF09042
:101FEB002C1AE0FFF422902F94E014F0E02275FFFE
:101FFB0002E5DB543FFFE5CB543F6F7F0060027F70
:10200B00012275FF02E5DC541FFFE5CC541F6F7FE7
:10201B000060027F012275FF0153CCFD43FB401191
:10202B0041759E0143FB0975FF03859E9E75FF035A
:10203B00859E9E7F012275FF0243D20175FF03220D
:10204B001141E4F59E7F012275FF02AFD3EF7F00B4
:10205B0030E6027F01229007407402F0900734E0D3
:10206B00FF120C9F9007407405F02275FF0275E478
:10207B0004E4F5E41202DD71CF900736EFF0901215
:10208B0000E0B47A14901214E0B49C0D900736E083
:10209B00FF64056004EFB4032EE490073FF0900754
:1020AB003FE0FFC394805013E42FF582E43412F524
:1020BB0083E4F090073FE004F080E3901200747A21
:1020CB00F0901214749CF0120B234003120B1E7B26
:1020DB00017A1279107D017F01120B197B017A12A3
:1020EB0079117D017F21120B197B017A1279127DF7
:1020FB00017F22120B197A1279177F02F1EF9012DE
:10210B0017E0B401057F01123D13120ABF71CF1204
:10211B000ABA900736EFF0120B9B120AB0900736F3
:10212B00E0FF120C9AEF24FFB3925F75FF0253E6A8
:10213B00BF122AA8120AC9F1FD205F0B11617B01A6
:10214B007A2879CA120989D2AF205F0221DC120BDF
:10215B00281208B7120C95120B1440F2900735E0B9
:10216B00603E120AECEF7004716E4034E51470FCA3
:10217B00E51520E50271F4120871EF70FA715C50ED
:10218B0004718150057F01121ED2900735E0B40215
:10219B0004E4FF8009900735E0B403047F0171B1BB
:1021AB00120AE7E51530E1A671394002E4F0E515B6
:1021BB0020E50512058551A5714EAF82AE83EFC0A8
:1021CB00E0120593900738E0FDD0E0FF120B912150
:1021DB0059122A82900735E0604420170320063EEF
:1021EB00120AECEF7004716E4034E51470FCE515C7
:1021FB0020E50271F4120871EF70FA715C500471F2
:10220B008150057F01121ED2900735E0B40204E421
:10221B00FF8009900735E0B403047F0171B190078B
:10222B0035E0600C20170930060620010312095C0B
:10223B00120B281208B71237FE120C90202B051226
:10224B000AE780221208CB90072EE0FEEFC39E40D8
:10225B0005EF9EFF800890072EE0F4042FFF740615
:10226B00D39F5002C22BE51530E12771394002E4B0
:10227B00F0E51520E50512058551A5714EAF82AE2F
:10228B0083EFC0E0120593900738E0FDD0E0FF121A
:10229B000B91120A97122A9321DCAF82AE837D0138
:1022AB00900479F1F6121257E514707891215005CC
:1022BB00C2511216F7900479E0FEA3E08E11F512CD
:1022CB00A312124E9003EC121257AE11AF127DAA4D
:1022DB00123629E4F5FF75D908F510E51554216080
:1022EB002BE51530E504E4FF7195E490047EF09046
:1022FB00047EE004F01239CDEF600990047EE0C358
:10230B00941040EB7F02120CB35315DE9003E8E000
:10231B007F00B403027F01F1B3D2511216F7D2EB57
:10232B00A23592ED22C2AFEFF45215D2AF227F024B
:10233B007130900737E090073FF090073704F0C3F8
:10234B0094022290073FE0FD75F0AA90074302121A
:10235B0042900001740193B40007E493B41802C3D4
:10236B0022D322900741E0FEA3E0FF1208D0D3EF67
:10237B0094C8EE9400227F017E009017FCE4935EDC
:10238B00FE7401935F4E24FFB32275FF01E5D53038
:10239B00E602C322E4F5FF439A80EF122FEEE4F539
:1023AB00FF539A7FD32243FB1075FF0243E640EFA6
:1023BB00600D75FF02E5E120E7FB43FB0D80034356
:1023CB00FB0E80FE75FF02E5E630E2037F0322E59C
:1023DB00E630E3037F0022E5E630E1037F0422E5EC
:1023EB00E67F0530E0027F0122E514702791215032
:1023FB0005C2511216F7123C2E7F08120CB3F1993D
:10240B00E5D120E0FB4315205315FEE4F510A23572
:10241B0092EDD322C322C2EBA2ED9235C2EDE5F4CD
:10242B00C330E701D32290048B121257D248C2EB70
:10243B00E5146002C19AE51530E202C322D1A32450
:10244B00E5F15512376ED1F2120F7A5407FF900354
:10245B00EAF012331090048EEFF0E51520E0709146
:10246B002940057F0112056290048EE0FF7B017A03
:10247B0004798F122F38E4337004D2EBC1809004AF
:10248B008EE024C912444DE0FF90048FE0D39F40AF
:10249B003ED2EB123694A23592ED9003FBE0601125
:1024AB00D1A324E51242E4120E7D431504F1A5D30A
:1024BB0022900409E070167B017A0479097C2F7D48
:1024CB00F6902DB97464F0E4A3F01208DAC32291EC
:1024DB00295005C2511216F7F199E5D120E0FBE422
:1024EB00F510D1F2120F7A5407C39403E494005001
:1024FB0032D1A324B1D1EBD1A224D8D1EB2FFFE45D
:10250B0033FED3EF9440EE648094804016D1A32425
:10251B00E5F9E43AFA7402120E7D431504A23592E2
:10252B00EDD322D1A32408F9E43ACFE9CFF5118FEB
:10253B0012D1A324B1D1EBF516AE11123F6AD1A380
:10254B0024B2F9E43A8B1CF51D891ED1A324D8D1F2
:10255B00EBF51FD1F2120F7AFDACF05460602FD166
:10256B00A324D9D1EBFF12366EC248D1DBFB7A0024
:10257B0090040A1244457D18120EB1EF2BFFEA3E70
:10258B00FEEF2414FBE43EFA7D027F01C16CD1F215
:10259B00120F7A54079003EAF0751408D1A324B2F2
:1025AB00F9E43AFA1235D0D1A324D8D1EBFFAD160A
:1025BB001236069003EAE0640370237B01FDD1AB76
:1025CB00F14150057401120E28E4F5FF1235F31298
:1025DB000DBE2428FBE433FA7D03E4FFC16C9003AA
:1025EB00EAE06402702AD1AEF141400574FF120E8D
:1025FB0028E4F5FFE5D25480440AF5D2120DBE242F
:10260B0014FBE433FA7D027F011236BAF1008054D9
:10261B00E4FB7D01D1ABF141400574FF120E28E4C0
:10262B00F5FFD1F2F14B7F0560027F0AEF547FFF7C
:10263B00E5D254804FF5D2E4F5FF43D280D1DBFDD8
:10264B007C00D1F2F14B7E0060047F0A80027F0593
:10265B00EF25E0FFEE33FEEF2DFBEE3CFA7D017F25
:10266B00011236BAD1F2120F7AFFAEF0A24892479E
:10267B0012326F4006A23592EDC322F1A590048E63
:10268B00E0D1A224E7F139A23592EDD2EBD322A20D
:10269B003592EDD2EBC322FF90048B12124EE9223E
:1026AB00FFF10590048B12124EE924B1F9E43AFACA
:1026BB00120DBEFF90048B12124EE924D8F9E43AA6
:1026CB00FA120DBE2FFFE433FEEF2401FFE43EFEB2
:1026DB0090048B12124EE924B2F9E43AFAE924077A
:1026EB00F9E43AFA020DBE90048B12124EE924045F
:1026FB00F9E43AFA22E4FB7D01FFE4F5FF75D10220
:10270B00E5D120E0FBE4F5FFF5D1EF6008E4F5FF40
:10271B0043D2808006E4F5FF53D27FEB6006E4F5ED
:10272B00FF43D104ED6006E4F5FF43D10822F9E441
:10273B003AFAEF020E7DD39FEE6480F874809822F4
:10274B00120F7A441045F0222401F9E43AFAE4021C
:10275B000E7D9004B0121257F193E51BF190E9F145
:10276B0053F193E92402F155F193124344E513120B
:10277B000E7D9004B0D1F5E4F190E92405F9E43A2B
:10278B00FAE4020E7D120E7D9004B002124EE4F5B7
:10279B00FFE5D154FE4402F5D122E49003FBF07B1C
:1027AB00017A0479090208D5719543FA04E4F5FF1F
:1027BB0053D1FD43D10122C2511216F7F199E5D144
:1027CB0020E0FBE4F5FF75D9089003E8E07F00B447
:1027DB0003027F01F1B3D2511216F7E4F51022E494
:1027EB00F51461F47B017D01020B19EEF0A3EFF000
:1027FB00A322123D7A120ADD120B96120B2D9007B3
:10280B0036E06401700201B27FFF1208A890045CED
:10281B001212577E007F153138BF540D7E007F1684
:10282B003138BFA5047F0180027F00900734EFF0A1
:10283B006401704690045C12124EAE023116900485
:10284B0062E0FEA3E0FF90045C12124E319CE9247F
:10285B0007F9E43AFA90045F121257E92408F9E4F5
:10286B003AFE3116900462E064057004A3E0642222
:10287B0060081208AD900734EFF0900734E0702732
:10288B007E007F10C006C374999410FE74319400BF
:10289B00902D8FF0A3CEF07B007A007900D006311B
:1028AB00A4E4FFFE1208B2120A01120975120916EE
:1028BB00305F05754B01803831BA1208761207E28A
:1028CB00FE4FFDA3E0FC4DFDA3E0FB4D600BEE5F67
:1028DB00FFEC5FFFEB5FF47003120759E54B5403FA
:1028EB002439F582E43407F583E0654B90072FF02C
:1028FB00E4902D7BF0902D79F0A3F002000A75FF88
:10290B000275E40475E40175E40222AF017B017AE0
:10291B00047962902DFE7402F08050F0E0131313D3
:10292B00541F7E002419F9EE3429FEAF01E4FCFD9F
:10293B00021E137405F0902D8C3195C007902D8CD1
:10294B0012124E902D8F31ABD007021F08902F0122
:10295B00E075F005A4248BF9742435F0FEAF017BF0
:10296B00017A2B792C902DFE7405F0902DFB31956F
:10297B00C007902DFB12124E902DFEE0FF902CDA2B
:10298B00E4F0A3EFF0D007021B3A121257E4FCFD60
:10299B0022C3E99FF9EA9EFA22314174FFFDFC2222
:1029AB00E0FFA3E0902C88CFF0A3EFF022C2077BCF
:1029BB00007A00794B902E021212570B7A07793955
:1029CB0022902D933195C007902D9312124E902D7E
:1029DB009631E3D007021AC8E0FFA3E0902B05CF96
:1029EB00F0A3EFF02275FF0275E404E4F5E4229006
:1029FB0004C3EDF09004C2EFF0BF0411A3E0FB7D24
:102A0B00017F0151369004C27403F0800B9004C314
:102A1B00E0FB7D01E4FF51369004C2E0900735F0F6
:102A2B00D2061208CB900741020526EB600875FF12
:102A3B000153CDFD800675FF0143CD02ED600553BB
:102A4B00FBDF800343FB20EF600775FF0243E14090
:102A5B002275FF0253E1BF2275FF028FE32290071D
:102A6B002FE064AA2411FFF022AE075169EE04FE99
:102A7B00EF8EF084AFF022302C0D12093EEF600781
:102A8B00C25912092FC22C2290073DE0FEA3E0FF92
:102A9B004E6009CAEECAC9EFC912138A2275FF022A
:102AAB00D2ADD2BD75FF02758E71754C0975FF02E3
:102ABB00E58E546F4480F58E902E94121211000007
:102ACB00000022C0E0C0F0C083C082C0D075D00827
:102ADB00C0FF75FF02E58E30E43975FF02E58E54B9
:102AEB00EF4410F58E902E941211A87157902E94DE
:102AFB00121205900000121FE2E54C30E00205397E
:102B0B00E54C700D754C090548E54870020547808A
:102B1B0002154C75FF02E58530E40875FF0243850D
:102B2B00100550D0FFD0D0D082D083D0F0D0E0327F
:102B3B00FF7E04FDFCE0F8A3E0F9A3E0FAA3E0FBC1
:102B4B00121009E47B7DFAF9F8121094EF2401FFBF
:102B5B00E43EFEE43DFDE43CFC22902B6B1212059F
:102B6B0075FF0243E180123C2E1217AD902B8012A1
:102B7B001211002DC6C0E4F5FFF5A490120EF0A3C0
:102B8B00F0902B7B7402F0B17AFFF595EF14601483
:102B9B0014601E2402702A902B6B12074E91D39057
:102BAB002B778018902B6F12074E91D3902B788038
:102BBB000B902B7312074E91D3902B79E0902B84B3
:102BCB00F0123C21902B84E0700FF5FFF59675FF0A
:102BDB000175D70975F418805C90120EE004F09023
:102BEB002B7BE0F1EE902B8012074EFF902B7CD1CC
:102BFB00BEC3121157500B902B7C12074EFFA31222
:102C0B001205902B84E0FF123AA2902B7AE0FFA3DF
:102C1B00E0FDA24F924D123BCFA312074EFF902E19
:102C2B0053121205902B7BE0FF91DA902B7BE01275
:102C3B000741FFB18BB182600261927402F0B17AED
:102C4B00F595E5F454077018902B80713B780112C1
:102C5B001168902B7BB16A121205120740FFB18BE2
:102C6B00B18270DA75FF03759580F1B9400343F4B7
:102C7B0020A24F924E123B01902B8012074E242024
:102C8B00FFEE344E715DE4FB7A04F9F8714B780179
:102C9B00121168C24CB1C7E4F5FFE5BD54F844040A
:102CAB00F5BD9012137401F07E127F01E4FD8F824B
:102CBB008E83EF2DF582E43EF583E0FC901213E05A
:102CCB002CF00DEDB412E722FF902B7C0212059035
:102CDB002E52EFF0E4A3713B7801121168902E5243
:102CEB00B16A121205901210E064806071E0C39417
:102CFB007F5039EBB16CC083C08212074EFFEEC020
:102D0B00E0EFC0E0901210E075F004A4AEF0FBCA47
:102D1B00EECAEA3395E0F9F8D0E0FFD0E0FEC3EF5E
:102D2B009BFFEE9AFEED99FDEC98802A902E52E0D7
:102D3B00B16CC083C082D1BE901210E0F40475F068
:102D4B0004A4FFAEF0EE3395E0FDFCEB2FFFEA3E63
:102D5B00FEE93DFDE83CFCD082D08312120522E057
:102D6B00FB25E025E02401F582E43412F58322757E
:102D7B00FF03902B7BE022902B7BE0FF14F0EF22E4
:102D8B00902E9C12120575FF01902E9CA3E0FDA3C3
:102D9B00A3E4FFFEE4FC78101211688FE1902E9CE7
:102DAB00A3A3E0FEA3E4FFE4FDFC78081211688FF7
:102DBB00E2902E9CA3A3A3E0FF8FE322902BCF12D4
:102DCB001205E4F5FF75BB0575BB8575FF0175D560
:102DDB0002204C087F3FFE12176CD1CA75FF0143CE
:102DEB00D520304C02C189E4F5FF538EF7438E0793
:102DFB007D04E4F5FF8DBCF5FF43B102E5B130E294
:102E0B00FBE4F5FFAFDFEFFEACDEECFBEBFFED25FC
:102E1B00E024CDF582E4342BF583D1B0F5FFF5FF3B
:102E2B0053B1FD0DEDB40CCA902BCF12074EFF78AA
:102E3B0009121168A3D1B0FDED25E024D7F582E48A
:102E4B00342BF583E0C313FAA3E013FBD1A3F1E614
:102E5B002BFFEE3AFED1A3EEF0A3EFF0ED2404909E
:102E6B00120DF0EDC394075015CFEDCF0DEFD1A49C
:102E7B00D1B7902BD4E09F902BD3E09E50BAE4F5C2
:102E8B00FF758EC8F5FF90120DE0F5BCE4F5FF75EC
:102E9B00BB8075FF01F5D522ED25E024D5F582E445
:102EAB00342BF58322EEF0A3EFF0E422E0FEA3E057
:102EBB00FFC322E0F8A3E0F9A3E0FAA3E0FB22E4CE
:102ECB00F5FF75C2E17F1EF13030E707E4F5FF75C2
:102EDB00C2A122E4F5FF75C28122CDEFCDCCEECCA1
:102EEB00F124AB94EF4B12447CCBEFCBFAE5913052
:102EFB00E718F127A994E9F582EF4582FFEBF1DEA4
:102F0B00C3EF9582E5F0958340E3E59120E709CE89
:102F1B00ECCECFEDCF12176C2275FF03AF93EF758D
:102F2B00F010A4FF22FED1E590120FE022902EA804
:102F3B00EFF0A31207EA75FF011216BCEF640160F4
:102F4B0002C322E5F430E602C3227FE87E031217A8
:102F5B00901216F0F1C1400122C2511216F7902EB9
:102F6B00A8E0FF12239553F4DFD2511216F77F78A6
:102F7B007E00D1E575FF0153E4BFE5E430E7FB12BA
:102F8B00389F7F8AF13030E6061207C7E480087558
:102F9B00FF011207C7E5D9120E7D75FF0143E4400F
:102FAB00F1B9400343F420F1C1400122D322901226
:102FBB000EE0D3940122E5F730E50FE5F754C0702E
:102FCB00051216B140F0F1D7C322D32275FF03E4EB
:102FDB00F591222DF582EA3CF58322E0C313FEA383
:102FEB00E0132233333354F8F5F422E4900409F060
:102FFB009003FB04F022122429500712300F5002C9
:10300B008001C322E5F754E024FF22AF14EFC36025
:10301B0001D322EFC3940E50059003EBEFF022E5A2
:10302B0017540FFF22E517C394F0501F5317F011DD
:10303B0059FE740FC39F4005EE940E400543170DC8
:10304B008003EF4217E517540FFF227F0022E5178D
:10305B00C4540FFEEF900412932E221159FFC39408
:10306B000E40027F0DEF9003F493FF22EF30E3034A
:10307B00AF1322AD1B203604EE30E00BE517C394E3
:10308B00F0502011B18018E5196006FDE4F51980A8
:10309B0012E517C394F0500BE517540FFF600411A2
:1030AB0066AD07AF05229003EBE0FDFFC3740E1175
:1030BB00D9EFC4F8540FC868FFEEC454F048FEE5CE
:1030CB001754F0C31227427F005002AF05229FFF17
:1030DB00E49400FE22902EA4EDF0901211E0F46027
:1030EB0005A3E0B4FF0C902EA67418F0A37413F094
:1030FB008010901211E0902EA6F0901212E0902EFC
:10310B00A7F0120DBE640160024149902EA4E0FEAF
:10311B0064086004EEB40408902EA57428F08006B1
:10312B00902EA5743AF0EF120741FF121133E451C0
:10313B004AEF24D8FFEE343FFEED3493FDEC34160A
:10314B00FC7B007A80790378001202997103902E30
:10315B00A7E0FF902EA6E0C311D9E4FCFD121009E5
:10316B00ECC0E0EDC0E0EEC0E0EFC0E0902EA7E0D9
:10317B00FFE4FCFDFE514AD0E0FBD0E0FAD0E0F9D1
:10318B00D0E0F8EB2FFBEA3EFAE93DF9E83CF8908A
:10319B002EA5E0FFE4FCFDFE121009EF2454FFEE18
:1031AB00340B122B5DE47BA87A16F9F8120299CB3B
:1031BB00EFCB902EA4E014605D14601B24FE600C1A
:1031CB0024FC707AE4F5FF75CE318006E4F5FF75CB
:1031DB00CE21F5FF8BCF22E4FAE4F5FFEA2440F58C
:1031EB00CEE4F5FFEAFFC3740711D9748C2FF58277
:1031FB0074043EF583E45152C39DF5CFE4F5FFEA29
:10320B002448F5CEE4F5FFEA90048C51522DF5CF0E
:10321B000AEAB408C422E4F5FF75CE01F5FF8BCFA3
:10322B00F5FF75CE0EF5FFEB25E0F5CFE4F5FF7559
:10323B00CE0FF5FFCFEBCFEB75F003A4F5CF227BD1
:10324B0064FAF9F80210099325E0FDE433FCEB7501
:10325B00F010A4FFAEF0120EC3CDEFCDEBFFE4C325
:10326B0013EF13224315015315DF117751B04004AF
:10327B00E4F5142243FA045315FB3047051227B823
:10328B00800A7F5551997F555199D2EBD32275FF07
:10329B0001E5D520E602C322E5FA540360FA75FF77
:1032AB00018FC3D3229004B4EFF09003EAE0FF71D7
:1032BB00109004B5EFF09003EAE024FD6013047066
:1032CB00089004B37404F0800E9004B37408F0807B
:1032DB00069004B37402F07F01120CB39004B5E0B6
:1032EB009004B351FCE4902D86F012142D50EDD3C5
:1032FB0022FFE0FDA3E0FB22C8ECC8C9EDC9CAEE72
:10330B00CACBEFCB22EF24FD600680007E0180024A
:10331B00E4FEAF0622900740E0B4020D8F1B900431
:10332B0076E0F513120AC4D322C322E51754F0C476
:10333B00540F2FFFC3941040027F0FEF90040293A2
:10334B00FF227E10EE60091EEE90040293B507F487
:10335B00EEC3940E40027E0DEE9003F493FF22C257
:10336B00AFEF4215D2AF22EF24FE600C24FE6005B6
:10337B0080007F01227F02227F0322C0E0C0F0C0C9
:10338B0083C082C0D075D008C0FF75FF01E5D53072
:10339B00E6047F028009E5D57F0030E7027F018FCD
:1033AB0018E51864026002815DE51412136433D2D0
:1033BB000133E502344A0833F00933FB0A34090BB5
:1033CB0034260C0000359B75FF0175C355151AE5A6
:1033DB001A6002A19B751402A19B75FF0175C3F0C6
:1033EB00751409A19B75FF0175C35575140AA19B33
:1033FB0075FF019003FCE0F5C375140BA19B75FFE2
:10340B00019003E9E0F5C3751401751A1490040AD1
:10341B00B1FC6002A19B75140CA19BAB1CAA1DA94E
:10342B001EB1D0AD16AF1FD10612270075FF00B12C
:10343B00F343FA0475FF001227BB751408A19BC256
:10344B00EB751400431504D1134002A19B121FE22C
:10345B00A19BE51864016002A19BB1DC4002A19B1A
:10346B00E510705BB1C2E5D9120E7DB1B6E09004E8
:10347B00CCF0D14A71729003E8EFF09004CCE0FFEE
:10348B00D394095002A11B9003E8E0D39402400CA3
:10349B00EFD394AA7F0040027F01800D9004CCE013
:1034AB00D394407F0040027F01EF60028062900462
:1034BB00CCE0FFF51675FF008FD9751003A19BE5C6
:1034CB001064036002A19BB1C2B1E3FAE5D9120EFD
:1034DB007D75FF009003E8E0C39403E5D3500554DA
:1034EB0002FF80035401FFEF602B30E111C3900307
:1034FB00F6E094FF9003F5E094FF5014800FC39017
:10350B0003F8E094FF9003F7E094FF5003121FE2DF
:10351B001227C2807BC2511216F775FF0012279C2F
:10352B00E5D120E0FBC2EB431502B1AFA3E0FF9066
:10353B00073AE0FEEF6EB1AEE0900739B1A8A3A356
:10354B00E090073BB1A8A3A3A3E0FE90073CE0FDEE
:10355B00EE6D4F6012C39003FAE094FF9003F9E015
:10356B0094FF5003121FE2C39003F4E094FF900307
:10357B00F3E094FF5003121FE27510009003E8E094
:10358B00B403071516B1B6E516F0900738E516F03B
:10359B00D0FFD0D0D082D083D0F0D0E032FEE0FD8F
:1035AB00EE6D4FFF85128285118322E5122407F5FC
:1035BB0082E43511F5832275FF01F5EA75EAFF9078
:1035CB0003EC02124EE4F5FFE9B1EAEA540F42D6DE
:1035DB0022E5F754C024FF22E92401F9E43A22F54D
:1035EB00D7E4F5FF53D6F022E5D254804414F5D23C
:1035FB002274FFF5F0120F4E45F022E4F5FF8FD445
:10360B00F5FFCFEDCF8FD522C39003F0E094FF9061
:10361B0003EFE094FF22D1135003121FE222E4F5D3
:10362B00FF75D102E5D120E0FBE4F5D1F5FFEFB159
:10363B00EAEE540F42D6E4F5FFCFEDCF8FD422E55F
:10364B00F75406FFBF06037F0822E5F75406FFBFBA
:10365B0004037F0422E5F75406FFBF02037F022217
:10366B007F0122751401751A139003FCEFF0900380
:10367B00EA7402F0ED90040A30E507E4F0A3743A23
:10368B00F022E4F0A374E6F022C39003F2E094FF7F
:10369B009003F1E094FF5003121FE22290040AE022
:1036AB00A3E0FF227D021205A3EFC36001D322909A
:1036BB0004B6EFF0ED24FE60191460262402703B73
:1036CB00EB2402FFE43AFE7C007D50120EB17D60CC
:1036DB00801EF12EC333CE33CED8F9FF7C007D286C
:1036EB00800EF12EC333CE33CED8F9FF7C007D6430
:1036FB00120EC39004B7EEF0A3EFF09004B6E0F116
:10370B0039C083C0821211C49004B8E02401FF9029
:10371B0004B7E03400FEE4FCFD120FFCD082D08332
:10372B00021205EB2401FFE43AFEEF78032225E0B9
:10373B0025E024FDF582E43403F58322EFF1391201
:10374B0011A802118EE4FFFEFDFC9003FDF16590C4
:10375B000401F165900405021205121205E4FFFE47
:10376B00FDFC22900739E0F4FFA3E06FFFA3E06FAD
:10377B00FFA3E06FFF64556009EF644A6004EFB488
:10378B000A010F9003E9EFF022A2EB9249C2EB7A08
:10379B000379EF7B017D0CE4FF12086CA24992EBDD
:1037AB0022A2EB924AC2EBEBC0E0EAC0E0E9C0E038
:1037BB007A0379EFF1D4D0E0F9D0E0FAD0E0FB7FD7
:1037CB000C120899A24A92EB227B01902DA30212B4
:1037DB0057C003C002C0017B017A2D7977F1D6D097
:1037EB0001D002D0037F02020899902D79EEF0A34D
:1037FB00EFF0221216BCEF6401706C1238A9902FF7
:10380B0058EFF0D39402505F902D7BE0FF902F5830
:10381B00E06F70531173902F59EFF07B017A2F7972
:10382B00597D01120B8C902F58E02477F582E434EC
:10383B002DF583EFF0902D7BE0045401F070289070
:10384B002D79E07002A3E0601E7B017A2D79751251
:10385B0037DC7B017A2D7975902D79E0FEA3E0FFA3
:10386B00F5828E8312138E22E4FFE5F754C06002BB
:10387B00801675FF01E5D530E30D119850F41193C7
:10388B00EF60EF119850EB22119FAFD92275FF011A
:10389B00E5E4332275FF01E4F5EA75EAFF22E5F46E
:1038AB005418131313541FFF22EF7011ED6007759B
:1038BB00FF0143AE012275FF0153AEFE22EFB401AF
:1038CB0010ED600775FF0143AE022275FF0153AE89
:1038DB00FD22EF600775FF0253E6BF2275FF02431F
:1038EB00E64022EF14600F146014240270188B80D2
:1038FB0075FF018DFD228B9075FF018DC9228BA069
:10390B0075FF018DCA22AF038FB075FF01AF058F15
:10391B00CB22902D7D121257EF14601114601824D6
:10392B0002701E3157E580315DE5FD801C3157E596
:10393B0090315DE5C980123157E5A0315DE5CA8054
:10394B00083157E5B0315DE5CB020E7D902D80023D
:10395B00124E120E7D75FF01902D7D02124EE4F575
:10396B00FFAF9122E4F5FFAF9222C24B75FF0375B7
:10397B009B1F75FF0390120FE020E71BE59A540F76
:10398B00C394024012E04480F0E4F5FF75C2A143FA
:10399B00FC0475FF03D24BE5FC30E609E59A540FA6
:1039AB00C3940540CDE5FC30E611E4120E7D75FCA9
:1039BB0080F5FC75FC40E5FC20E6FB304B03122C3C
:1039CB00AD22E4902EA0F0A304F0E4902EA3F0E53A
:1039DB00FA30E1FB75FF01E5D530E7037F0022E408
:1039EB00F5FF75E50875FF0153D8EFE5D530E61AFD
:1039FB0075FF01902EA2E5DAF0E4F5DA75FF01E52B
:103A0B00D630E3FB902EA37401F075FF03759B0476
:103A1B0075FC4175FF03E59B30E7FBE4FB75FF038A
:103A2B008B95120740FF122D8B0BEBB403EF75FF39
:103A3B0003759580E4F5FF758EC8122ECA75FF01CC
:103A4B0053D5FB122FD712176875FF0143D504907E
:103A5B002EA3E07008122FD77FC812176A7B017A4A
:103A6B002E79A13175902EA1E0902EA07006E04426
:103A7B0004FF8002E0FF902EA0EFF090120EE0B456
:103A8B00010675FF0143D81075FF01902EA2E0F5DA
:103A9B00DA902EA0E0FF22EF30E00E43F401E4F5C4
:103AAB00FF43A404F5FF759624EF30E10E43F401B8
:103ABB00E4F5FF43A408F5FF759624EF30E20943C4
:103ACB00F402E4F5FF75961EEF30E30943F404E4CA
:103ADB00F5FF75961075FF01EF5403600475D7124F
:103AEB002275D72D22E4F5FF7584E6F5FF43940488
:103AFB00F5FF75981422E4F5FF75933F75FF037579
:103B0B009A4051F0E4F5FF759C93F5FF75A1A3F571
:103B1B00FF758531F5FF758628E5FA54304480F53D
:103B2B00FA75FF0175E74A75FF0275DF4975FF01ED
:103B3B0043D30475FF0153D367E4F5FF53E6BF7519
:103B4B00FF0175D825F5FF75B503F5FF75B215F5B2
:103B5B00FF75BA02F5FF75AFB3F5FF75CD0AF5FF2B
:103B6B0075CB08F5FF75CA12F5FF75BF0EF5FF751E
:103B7B00CC96F5FFF5BDF5FF75C281F5FF75AEE18E
:103B8B00F5FF75DA55F5FF75F580F5FF75E903F56A
:103B9B00FF75E933F5FF75972A75FF01759B427524
:103BAB009CA4759D29759E48759F2475A11275A3BC
:103BBB0012759AF8204E0CF5FF43968090120FE089
:103BCB004440F022CCEFCCCFEDCF74017E00C8EF98
:103BDB00C8088005C333CE33CED8F9FFCDECCDEF7B
:103BEB005D601B304D1875FF0175DCAD75FF017500
:103BFB00DDCDE4F5FF759A74F5FF7594842275FF9E
:103C0B000175DC5375FF0175DD33E4F5FF759A140F
:103C1B00F5FF7594042275FF0175E46575FF017559
:103C2B00D64722E5FA30E1FB75FC8075FF0153D5D1
:103C3B00EFE4F5FC75FC40122FD7E5FC20E6FB22E8
:103C4B0075FF01E5D530E602C32253FACFEFB40876
:103C5B000543FA308012EFB4040543FA208009EFD4
:103C6B00B4020543FA108000D322902EACEEF0A3E1
:103C7B00B10CEBF091F5AC00AD01AE02AF03C00699
:103C8B00C007902EAC122FE6FBAA06E4F9F8D0077A
:103C9B00D006D31211417E0050047F0180027F00B9
:103CAB00C006C00791F5D0E02FFFD0E03E902EACC0
:103CBB00F0A3EFF053ECFC902EACE0FCA3E0FDEC9A
:103CCB00540342EC75FF02EDF5AF75ED0275ED0493
:103CDB00A3E0600543EC08800353ECF7902EAFE0B4
:103CEB00600443EC042253ECFB22902EACE0FEA3C9
:103CFB00E0FBAA06E4F9F87F807E387D01FC020226
:103D0B0099EFF0A3EDF0A322EF600775FF0243E6F6
:103D1B00102275FF0253E6EF22E5ED30E2FB75ED65
:103D2B0004AFEF22E5ED20E0FB8FEF22EF600443C1
:103D3B00EC042253ECFB22EF600443EC082253EC1F
:103D4B00F722E5ED5402FF22E5ED5404FF22E5EDE9
:103D5B005401FF22902C1CE0120E7D902C21E09040
:103D6B000001120E8F902C22E0900002020E8F7B2E
:103D7B00017A2C791F7D017F03120B197A2C79287C
:103D8B007F081227EF7A2C79257F09F1407A2C795D
:103D9B00237F0BF140902C23E0FEA3E0FF4E600647
:103DAB00BEFF1BBFFF18902C28E024FD600304709E
:103DBB0004F1478009902C23E4F0A37440F0902C7D
:103DCB0028E024FD6003047008902C207403F0801D
:103DDB0006902C207402F0902C1FE01213643E0509
:103DEB00043E10143E18153E20173E36303E3E342E
:103DFB003E46363E4E3700003E2B75FF015330EFEB
:103E0B008530FD804775FF015331EF800E75FF0143
:103E1B005331DF800675FF0153317F8531C9802C0B
:103E2B0075FF015332DF8532CA802175FF01533391
:103E3B00FE801675FF015333EF800E75FF01533370
:103E4B00BF800675FF0153337F8533CB121D977FE0
:103E5B0011F132E4FF121ED2121B9F902C1D740223
:103E6B00F0902C21E0247F6009047016F138740A5D
:103E7B008007121E94F1387458F0902C207403F0C4
:103E8B00F147902C22E0F46002E12F902C25E0FE0C
:103E9B00A3E0FF64104E7006902C22740EF0EF64BA
:103EAB00204E7006902C22740FF0EF64404E70067B
:103EBB00902C227410F0EF64804E7006902C2274BC
:103ECB0011F0E4B5070AEEB40106902C227412F03F
:103EDB00E4B5070AEEB40206902C227413F0E4B595
:103EEB00070AEEB40406902C227414F0E4B5070A0A
:103EFB00EEB40806902C227415F0E4B5070AEEB464
:103F0B001006902C227416F0E4B5070AEEB42006C6
:103F1B00902C227417F0E4B5070AEEB44006902CEF
:103F2B00227418F0021E51EF4420F5FE227F10F18F
:103F3B0032902C1D227B017D02020B19902C2374D5
:103F4B0001F0A3E4F022AB05E4FCFD902E60EBF056
:103F5B00021C7E902C1EE0FF22E4902C1EF022E42B
:103F6B00F5FFEFF5D8E4F5FF53D60FEE540FC4F879
:103F7B0054F0C8E4C4540F4842D622E4F5FF8FD462
:103F8B0022E4F5FFE5D1540133333354F8FFE4F564
:103F9B00FFE5D354074FFF22EFB40109D2AD75FFF4
:103FAB000143AE4022C2AD75FF0153AEBF22E5C83F
:103FBB005402FF75C80222E5C85404FF22E5C85419
:103FCB0001FF22EF6004902D20F09003CDE0FF90D5
:103FDB0003BD12124E1208E99003CDEFF060492099
:103FEB001B46902D1EE0C330E501D3921F902D216F
:103FFB0012124E124053902D1FE090043CF0902D66
:10400B001DE090043DF0A3743FF0A374CEF0900339
:10401B00CD1162120B69EF7023902D207402F0907A
:10402B002D1B11597F028011902D20E0FF902D1B2D
:10403B00E0FCA3E0FDF5828C8312138E22A3F0A388
:10404B007401F0FB7A2879CA900439021257E0FE0A
:10405B00A3E0F5828E8322E0FBAD4BE4FF22902C94
:10406B0029EFF0A3121257902C347403F0902C31DB
:10407B00E05437F0E0FE5420902D1EF0902C32E0EF
:10408B00FDA3E0902D1BCDF0A3EDF03183902D21FE
:10409B00121257902C30E0902D1FF0902C2A1212F8
:1040AB004E9003BD121257EE4420902D1DF0E4905C
:1040BB002D20F0C21BF542902C2A12124EAF421249
:1040CB0008E98F42EF602A7D03120A7940E9902CB0
:1040DB0030E0D3941940037F0022AF42120A745090
:1040EB0008902C347401F08008902C347402F0800A
:1040FB00C6902C30E0D3948240037F00227F0212C3
:10410B000AE2902C35121257EA494B605A902C292F
:10411B00E0FF902C3512124EE924B6122739902C61
:10412B0031E0FE30E01BE49003CDF03189EE640109
:10413B00A3F0A3743FF074CE3175902C34E0FF8064
:10414B001E902C34E0FF3189902C31E0900422F04A
:10415B00902D1BE0FDA3E0900423CDF0ED31757D98
:10416B0002120B5F7F01227F0022A3F0902C3512ED
:10417B00124E900425121257902C2D02124E902C99
:10418B0030E0900421F022C003C002C001902CC388
:10419B0012124E902C2D121257902CC6E0902C30F0
:1041AB00F0902CC7E0902C31F0902CC8E0FFA3E0EE
:1041BB00902C32CFF0A3EFF0D001D002D003AF4B55
:1041CB00016974FFF5F0120F6445F022E4FF302A09
:1041DB00037402FF22200005D2120209C5C32290EC
:1041EB002FBCE0701C7BFF7A0379417D23120B00FF
:1041FB007BFF7A03792A7D17120B00902FBC740179
:10420B00F022021FF97B017A2F798E7D01121A0A97
:10421B00902F8EE0FF22902F551219DBE4FF902F89
:10422B005512124E8F8251390FEFB410F122758354
:10423B0000E593020E8F51484408F58F2275FF015C
:10424B00E58F54F62275FF01E58F5408FF22EFB47A
:10425B00010775FF0143AE202275FF0153AEDF222C
:10426B0075FF01E58F5401FF22EFB4010775FF01C4
:10427B004391202275FF015391DF22121257902B8D
:10428B00C6E0540F22902C8512124E902C8AE0FF20
:10429B00A3E0902CD1CFF0A3EFF0902C811211A8BA
:1042AB00121D34902C8AE0FEA3E0FFC3902C89E012
:1042BB009FF0902C88E09EF0902C811211C4E4FCAE
:1042CB00FD120FFC902C81121205902C8512124EB0
:1042DB00E94A2212124EE92401F9E43AFA74012256
:1042EB00F0A3F0A3F0A3F022FF12124EEF020E7D0B
:1042FB00FDEF4DFFE5F08FF0020FDD2409F9E43AF5
:10430B00FA2212124EEA494B22E92408F9E43AFA4E
:10431B002212124EE924BDF9E43AFA22E92402F9F9
:10432B00E43AFA22EEF0A3EFF0A3ECF0A3EDF022C7
:10433B008F828E837F0602138EE92403F9E43AFA07
:10434B0022E4120E7D0429F9E43AFA22E924FFF95A
:10435B00EA34FFFA020DBE240AF9E43CFA020DBE60
:10436B00E0FFA3E0902CDACFF0A3EFF0227B017AF1
:10437B000379B722FF8D828C8302138EE0FCA3E0BE
:10438B00FD4C22E99582EA958322AF03EAF0A3EF75
:10439B00F022242DF9E43AFA7D04E4FF22AF05EC78
:1043AB00F0A3EFF022EEF0A3EFF0AA06F97B0122C7
:1043BB00FFE0FCA3E0FD227407F0E4A3F022EEF093
:1043CB00A3EFF04E228F828E837F0202138E7B012E
:1043DB007A2879CE227A0379E47F040208998F82B6
:1043EB008E837F0502138E242CF9E43AFA74402253
:1043FB00902C8AE0FEA3E0FF227B017A2E79507F7E
:10440B000222740775F0D0020FDD12124E120DBE90
:10441B00FF22EEF0A3EFF07B012235F0FEAF017B24
:10442B000122FFAEF054076403227431F0A3749998
:10443B00F022F0A3EDF0E4A3F022E0FEA3E0FF7C7A
:10444B000022F582E43403F58322902CFEF0A3EFD7
:10445B00F022FF54F0C4540FFE227401F0AE04AFEF
:10446B000522AA06A90702138AE0FFA3E0FEC39F59
:09447B002224FBFFE5F034FF22CE
:107F7E000200022490294902043D02294B2979006E
:107F8E003304052202297E318008070505220231BD
:087F9E008531930013FF052259
:107FB000FFFFFFFFFFFFFFFF7FC600000000000084
:067FC000000003080000B0
:10800000EF547024F0602624F0603C24F060522489
:1080100030706730530B117E8002C333D8FC42802E
:1080200022117E8002C333D8FCF452802230530BDD
:10803000117E8002C333D8FC429022117E8002C39D
:1080400033D8FCF452902230530B117E8002C3339C
:10805000D8FC42A022117E8002C333D8FCF452A087
:108060002230530B117E8002C333D8FC42B0221160
:108070007E8002C333D8FCF452B02275FF01EF5466
:1080800007FF7401A8070822EF547024F06017243A
:10809000F0601E24F060252430702B117B8002C319
:1080A00033D8FC42FD22117B8002C333D8FC42C985
:1080B00022117B8002C333D8FC42CA22117B80028A
:1080C000C333D8FC42CB22EF547024F0601824F064
:1080D000602024F060282430702F117B8002C3338D
:1080E000D8FCF452FD22117B8002C333D8FCF45239
:1080F000C922117B8002C333D8FCF452CA22117BFF
:108100008002C333D8FCF452CB22902F101227F6F2
:10811000EDF0E0FF14F0EF7002C32212E279FE12DC
:108120002938AD07305A10902F12E0117F8002C31A
:1081300033D8FC4DFD800F902F12E0117F8002C3D9
:1081400033D8FCF45DFD12E279FE023F5190290321
:10815000E0FFAD07E540600D30090A7E1F7FCAD2FF
:108160005A310AC2179028C3E0700D9028C5041236
:10817000DC6A12BF6712BF2722902FA8EFF0C0035E
:10818000C002C001A801AC02AD03D001D002D003EF
:108190007E007F13120D98902902E012136481C6AD
:1081A00001827D0284D90384EF04846A05848C06ED
:1081B00084AC0784F60885130985290B854F0F8544
:1081C0001B1000008566E49028FDF0302336124233
:1081D000896401702F902903E064EF701A902908D8
:1081E000E020E71390290412C7BA600B902904E03D
:1081F000FF129ECD12A9B6902903E0B4EF06A3E0CA
:10820000FF12B2F2C21E902FA8E0C37001D39218E1
:10821000C204E49028CAF09029027402F0902877F2
:10822000E0FFB4030A902904E0902903F0800FEFE7
:1082300064016007902877E0B4020312BCEA90283A
:1082400077E07F06B403027F0190284BEFF090297E
:1082500007E0FE30E502D21F7B0112404F90043C44
:108260007401F0EE12CCE2902903E0FB9028FDE0CF
:10827000FFAD4B120B69EF6002A1668141E49028CB
:10828000A4F0902FA8E07002615190284BE014F008
:108290007015E0700830180F12E30A600A90287712
:1082A000E064016002615190284BE060249029074E
:1082B000E0FF30E502D21F7B0112404F90043C7476
:1082C0000112CCE0902903E0FBB1C56002A16681F8
:1082D0004112E30A6002615A902902F0902908E0F5
:1082E00020E761902904E0FF12B2F2902904E0FF38
:1082F0007D0112BC7920140890290412C7BA604984
:10830000902904E0FF129ECD12A9B630172A300939
:1083100027E540602312BCF1902904E09028CCF0BE
:108320009029027405F07B0112404F90043C7409BF
:10833000B1B66002A166814120170E902904E0FFCA
:1083400031528005E4902904F0902904E0FDA381D6
:1083500084C218902877E0B40307E4FBFD7F2381F3
:10836000D612E3466007EF64026002A1669029031B
:10837000E0FF12A4DD902834EFF0902903E0FF1213
:10838000D65212A9B612E26C7F2112CD8B201702B1
:1083900081442009028144E5407002814490290310
:1083A000E0654070028144902834E0600990287CA8
:1083B000E020E1028144902902740612BDF4740D9C
:1083C00012E300902905E09028FAF024FEFF7B01DB
:1083D0007A28797B1297307A2879CD129884902860
:1083E000CEE020E1149028FAE0FF14F0EF12E18AC9
:1083F0001297307A281912988412BDEE12A927908C
:1084000028FAE004FF9028B6F012C09512E136E990
:108410004A701C9028B6F09029027406F07B011275
:10842000404F9028FAE004B1B36002A16680129038
:1084300028B6E0FF7B0112972C12BDEE1298843112
:108440004D02D994201702314D12D4656002A16605
:1084500012E26C7F2212CD8B301409902834E06038
:108460000302E2C2E4902903F02212E290700B9022
:108470002903E0FFB16C30010322314D902903E064
:10848000FD902905E024FBFB7F21804A12E29090B9
:1084900029037006E0FFB16C8004E0FF315212D472
:1084A000656002A16612E26C7F22802A902FA8E00C
:1084B0007015902903E0FF12C70FEFD39402400913
:1084C000E4902BC6F08002314D124289700312BF36
:1084D0006012BFDE7F2202CD8B12BD0112E2582452
:1084E00006FEE433902909F0A3CEF07F2F802912F5
:1084F000E2B87F7C802212BD0112E25825E0FFE441
:1085000033FEEF2407FFE43E902909F0A3EFF07F4C
:10851000B4800512E2B87F7C02D79012CC637E094A
:108520007FDEE4FB7D1402B1B6902FA8E0701E7BC5
:10853000017A2879C97C0A7D10902DCE7414F0E45C
:10854000A3F012BF279028C9E0701B801680141278
:10855000E290700FB1677C0A7D0B12E194E4A3F006
:1085600002BF2712B7CD2290283AE0FF902FA0EF4C
:10857000F0E540600D30090A7E1F7FCAE0FDC25A57
:10858000310A12BDEEE94A6016129089FF902FA0C1
:10859000E0B5070B129EC412E136E49028B6F02233
:1085A000F07B017A2879CA9004391212579028CDAD
:1085B000E0240490043CF0A37405F0A3740AF0A333
:1085C0007415F0AB40AD4BE4FF120B69EF22902C19
:1085D0005E121257902C61EDF07401C39D400302AE
:1085E0009082902C6212124E120DBE902C65F0E912
:1085F000240112908C902C67F0902C62129086903F
:108600002C66F012301640FB121EBD12959C120D06
:10861000BEFFC394204032EFD394FF502C902C61C6
:10862000E0FD949F5023902C65E030E70302908298
:10863000129089902BC9F0902C6212124E902DE965
:1086400012125712959C020CA412959C120DBE6436
:10865000016003029082902C65E030E60302908274
:10866000E9240112908C121364872E018B37028B40
:1086700048038CAD048D4B0589DA06898D078BCEB6
:10868000088C1B098C3F0A8C520B8DB90D8F150E6F
:108690008CA00F8F83118FF1138C5E1A86A61F8713
:1086A00022230000908212BDF57420F01290837096
:1086B000579028CCF0A304F012959CE92403129063
:1086C0008CFF33333354F8902C68F0902C5E1226D4
:1086D000F5902C6812AB6F7025902C6812C7BA60A9
:1086E0001D902C68E0FF129ECD12A9B6902C68E078
:1086F000FD129ECDE4902E46F07F20120CAE902C01
:1087000068E014F070C58005E49028CDF07B01127C
:10871000404F12CFBF0412BFD7902C6712406202A5
:108720000B69E53864046006E49028FBF022902C85
:1087300061E0C39406E4940050030290829028FB09
:10874000E0FF6020902877E0B40314902C65E030BF
:10875000E703029082902C67E0FEEF6E600622E451
:108760009028FBF01290835407C39403500A902C76
:108770005E1226F5E4120E7D1242896401701A30F1
:10878000231712959CE9240312908C5406FFBF0214
:108790000812E32EC223028943300B030290829019
:1087A0002902E06003029082902C61E0902905F09C
:1087B00012959C12D581902C67E0FC902904F090D2
:1087C0002C65E0902908F07F1030E4027F00EF4430
:1087D00001FF902C65E0FE54024F902907F012E350
:1087E0000A704912959CE9240112908CB4230EEE74
:1087F0007F0070027F01EF30E403029082200F0AB5
:1088000090287CE030E10302908220050A90287CC9
:10881000E020E103029082E4902903F090287CE0BC
:108820007F0030E102AF04902BCA01CD12959CE984
:10883000240112908CB423012212E3466007EF64F6
:108840000260022178200F0A90287CE030E10302C8
:10885000908220050A90287CE020E103029082901B
:108860002846E020E00BD21E1243781297301243C4
:10887000E0902C67E0FF7002214B30080A90287CC2
:10888000E020E103029082902C65E020E7699028C7
:1088900077E0B40204C20F803712E31B5025124266
:1088A000896401702B90287CE030E124202305EFBF
:1088B00064EF701C3023047FEF800312CEEC90290C
:1088C00003800A902C67E0B4EF0612CEE6EF806DCD
:1088D000902C67E0902903F012E27012CE13601121
:1088E0009029027402F0129ECDE4FF128179D22009
:1088F00022E4902902F0221242896401600302906E
:108900008290287CE020E10302908230230D12E364
:108910001B5008902C6874EFF08018902903E070C9
:108920000A12CEEC902C68EFF08008902903E090BA
:108930002C68F0902C68E0FF6006902903F08030EE
:1089400012E32E129ECD7F01020BB490287CE03002
:10895000E103029082902903E0FF600912A4DDEF99
:10896000600820080512CEE6EFF0902903E06003CE
:1089700002CD1CE4FBFD6133902C6712CFE09029FF
:1089800005E024FB902E46F07F84020CAE90290275
:10899000E0FF64036004EFB4080302CC7E902BC6B2
:1089A000E0FF20E503029082129083FE902BC9E045
:1089B0006E6003029082300B0F902C67E0FE9029CE
:1089C00003E06E6003029082EF54DF902BC6F0301C
:1089D000E703029082E4FF020BC8902902E0FF64E3
:1089E000046008EF6409600302908212CC63129065
:1089F00083FD2403F53E902C61E0C3953E50026157
:108A000030300B0B12D57312C7F5EF6002C2119014
:108A10002902E0B4090C129597AC02AD0112AF30F7
:108A20008013902C6712C25030E70A129597AC025F
:108A3000AD0112C81FE4F53E129083FFE53EC39FCF
:108A400050277457253EF582E43427F583C083C050
:108A500082E012D572E53E12E182120DBEFEEF4EAB
:108A6000D082D083F0053E80CF129083FF9027CF35
:108A7000E0FEEFD39E4002EFF0E4FF12D470EF600F
:108A80000122300B03201137902C67E0FD7B017A27
:108A90002779577F1D12CB2F8F3EEF7022902C67C6
:108AA00012CC77600B300908902C67E0FF128152DE
:108AB0007F22300B027F2312E2CF12CD8BC20BE458
:108AC000902902F0300925E5406021902C67E09064
:108AD00028CCF09027CFE0FF9028CDF07B017A27BB
:108AE00079571297307A2879CE129884300B083053
:108AF000110512E2CF803C902C67E0FF12CCEF9082
:108B000029027410F0E540601F902C67E0FF12C747
:108B10000FBF0414902C67E0FF7C0A7D1512D94723
:108B2000500302908202BFCE129ECDE4FF028179F3
:108B300012E2CF7F23819D902C67E0FF12E2E34495
:108B400005FDE4FBFA02D671902C61E0C394074066
:108B500003D38001C34003029082902BC6E020E43F
:108B600003029082200403029082300715C2077B23
:108B7000007A00794B902E021212577A0079001277
:108B80009DA61290837007FBFAF9AF4B8005129EE9
:108B9000CD7F0112A9B6C20412E247129083F54BB1
:108BA00012D5731297301204F97F041298841204BC
:108BB000F9AD4B12A80712E2F5120BE1E54B600389
:108BC00002908212D6C712D6527F0102A9B6902B0C
:108BD000C6E020E403029082200403029082902CDD
:108BE00061E0FFC394035006201603029082EFC396
:108BF00094034021129083FF30E01AE538B4010756
:108C0000EF30E103029082E538B40207EF30E2036F
:108C1000029082D21912E2F5020BE6C20412959C70
:108C2000E9240312908CFFE4FD12DA0512428964F4
:108C3000066003029082902C6112959A020BEB124F
:108C4000428964066003029082902C6112959A0218
:108C50000BF0902C67E0FF129083FD02B24C12CF14
:108C6000C76008EF64146003029082129083540F6F
:108C7000602612959CE9240312908C902903F0FD44
:108C80007E207F07123F51902902E06414600302A6
:108C90009082F07F0102CE2CE4FBFD7F2402CD8B7D
:108CA000902BC6E020E403029082D22322300B03F3
:108CB00002908212428964017003029082C20430E1
:108CC0000A03029082902C61E0FFD39422400302B9
:108CD0009082D20A12959C1297307B017A28794CA7
:108CE00012988412E2EA12E34E2403FDE433FC906E
:108CF0002C61E0FB7A00D312CA9F400B744F2F12F5
:108D0000B3DCE09028A4F012E34E2404FDE433FC2D
:108D1000D3EB9DEC6480F8EA648098400F74502F88
:108D2000F582E43428F583E09028C4F0902C67E0C5
:108D300090286D12E2E2440190286EF0D236900342
:108D4000B6E09028B5F0E4FF02B348300B03029080
:108D5000821242896401700302908290284C74014F
:108D6000F0A3740612E2E24401FC90284EE0700287
:108D700004F09028A4E0FE90284EE0FD12B3DAEE55
:108D8000F07B017A28794C1240539028A4E07E00B1
:108D900070027E01ED2404C39E90043CF0A3ECF02D
:108DA000A312E14B902C67E0FB1285C56003029093
:108DB00082FBFAF97F0102B31D129083902C69F0B7
:108DC0007003029082902C61E0FFC39407E494004A
:108DD0005003029082EFD3942C4003742CF012E2E3
:108DE0009A600302908212959CE9240612908C707E
:108DF00002C1D990288174FFF012959CE9240412D5
:108E0000908CFF20E2504404120E7D12D57312970D
:108E1000307B017A28797B7F047E0012D516E4909E
:108E20002880F0902C61E0FF24F9FDE434FFFCD3AE
:108E3000ED9400EC94004015EF24F912959B12B0CC
:108E4000F21297307B017A287981129884902C61F4
:108E5000E02402F0803D902C61E024FD12D57212D6
:108E600097307B017A28797B12D6CC20E12512D568
:108E70001F902C61E024FA12959BE92406F9E43A4C
:108E8000FA1297307B017A28797F129884902C61AE
:108E9000E004F0902C61E024F7F53EC37423953E86
:108EA000FD7481253EF9E43428FA1298AF902C69BC
:108EB000E0FF12D65212A9B612E29A7043902C69C2
:108EC00012CFE0902C61E024FA902E46F07F401201
:108ED0000CAE7F0112BFA58027902C6912C7BA7013
:108EE0000C12E29A60030290827F05E1809028B123
:108EF000E0B4030312E153902C69E0F54112D7610D
:108F00009028B1E0600302908212BFEE9028A8740E
:108F10001FF002BF41129083700302908212E29A06
:108F2000600302908212959CE9240312908CFF90BA
:108F30002C61E024FC6F600302908212959C124326
:108F4000271297307B017A2879CC7F211298849060
:108F500028CDE0FF9028CCE0FD1243D912CB2F8F13
:108F60003EEF9028CC7007E0FF12CBCD8005E0FFEC
:108F700012CCEF12E29A600302908212E1537F0258
:108F800002BFA5902C61E0FFD394044003029082BD
:108F9000EFC394035003029082902C6712C7BA600B
:108FA0000C902C6712C6F320E1030290821290838A
:108FB000FF12A4DDEF600E129083FF12C6F9EF20BE
:108FC000E10302908212908312B2FC12E2D74016A3
:108FD00012959CE9240312908C30E006D214D20939
:108FE0008004A20D920912B2E6129ECDE4FF02D6D1
:108FF000DC9028B1E064066003029082C2141290F3
:1090000083605CE4F53E9028CCE0601C85403E9097
:109010002C67E0F54012E2D74018B19CE924031117
:109020008C30E00ED214800A902C67E0B540031219
:10903000E31112B303129ECDE4FF12D6DC12A6098F
:1090400060031243E9E53E6033654B602FE53E6502
:10905000406029E4FBFA7D05AF3E120BF5801D90C0
:109060002C67E0B5400E12E31112B303129ECDE45B
:10907000FF12D6DC12A609600312433B12B2E612BD
:10908000B7B422902C5E12124EE92402F9E43AFAA7
:10909000020DBE902D0012125712126CE924091114
:1090A0008C541FF53D71F92407118CFFE5386401DC
:1090B0006022E5386402601C7412D39F5016E53DAF
:1090C000B402067419D39F500BE53DB40108741E19
:1090D000D39F4002C32271F9240A118C30E214712B
:1090E000F92408118C654B600A71F92404118CFF76
:1090F00012DE2BE53D64027037F1E8E92407118C9C
:1091000020E72B71F92408118C654B702130301E3B
:10911000C23071F92404118CFD7F0312DC7571F9E2
:109120002404118CFFD25871F9241312C9DAC32216
:1091300071F92404118CFF71F92406118C540FFD70
:1091400012DD7C5002C32271F92408118CFF654B9B
:109150006009202D06EFF4600261F4F1E8E92407CC
:10916000118C20E704E53D602EE53864056002615E
:10917000F4E53D6401600261F4202E0261F471F9AE
:109180002411F9E43AFEAF0112B82F400261F490C5
:109190002902E0600261F471F92411F9E43AFAC09D
:1091A00003C002C001902D0012D57612128C71F905
:1091B0002407118C24EEFF12C1E0122739302D0F45
:1091C00071F92408118CFF654B6004EFB4FF0EF1B8
:1091D000E8E92407118C4401120E7D8002C322E5C8
:1091E0003D6401601071F92404118CFFC25871F9BB
:1091F000240C12C9DA71F92405118C20E60261ED04
:10920000E53D640160026178C22E902D0012D57692
:1092100009E970010AE475F004120FA512C1E0F922
:10922000E43AFA74FC120E2871F9240C118C540FD4
:10923000902D06F06056E4902745F0902D06E0C48E
:1092400054F0902746F0E4902D07F0902D0612443C
:10925000745032EEFDC3EF9DFFE49400CF240CCF99
:109260003400FE71F92FF9EA3EFA120DBEFF902D7F
:1092700007E02447F582E43427F583EFF0902D07CB
:10928000E004F080C6902D06E02402F0902D06E068
:10929000902D08F0D22F7A0379C27D051298AF90F5
:1092A00003C2741471F82408118C9003C471F8245B
:1092B00004118C9003C3F0902D0312124E7D021204
:1092C0000B8C9003C5EFF0902D0012D57612126C26
:1092D000C003C002C00112C1E0118CFD7B017A0302
:1092E00079C2902C62121257D001D002D00312859D
:1092F000CEC22F902902E06025902D08E02445F988
:10930000E43427FA7B01C002C001F12CD001D00265
:109310007F07129884902D08E02407F08002C32272
:10932000E4F5389028CCE0FFC25871F9240C12C93A
:10933000DA12E247D21C71F92404118CFBC0037BC2
:10934000017A277945124053902D08E0FDD3940708
:109350007E0040027E01ED2E90043CF0EDD3940798
:109360007F0140027FC190043DEF12CCE5D003ADF8
:109370004B7F02120B69C322F1E812126CF1307BB1
:10938000017A2679EB7F111298849026F0E054BF81
:1093900071F82404118C9026FC71F82406118C5469
:1093A0000F9026FD71F8240CF9E43AFAF1307A2690
:1093B00079FE12E33F9026EFE54BF09026F2741908
:1093C00071F82404118CFD9026F3F0A37422F0A30D
:1093D0007407F0C21C7B017A2679EB90042E741975
:1093E000F0744012BFD6AF4B120B648009E53DC349
:1093F0007001D322C322D322F0902D0012124E12FC
:10940000126CE922902ED4121257E94AC36001D39C
:10941000400281E5902ED4118630E01791E7E924CF
:10942000B7118C540FFFBF0503D38001C3400491D3
:10943000E781ED12E0F991E712E0EE501AE0FF94B7
:1094400004500280027F0491E712431FF1307B0138
:109450007A2B79AE129884902ED41226F5F1F991D8
:10946000E6E924DF118C902BAD91E6E924E8118C1C
:10947000902BB391E6E924E9118C902BB491E6E9A5
:1094800024EA118C902BB591E6E924E6118C902BFF
:10949000AB91E6E924E7118C902BAC91E6E924EB43
:1094A000F12512E2A191E6E924E5118C902ED77006
:1094B00003F080037401F091E7F12245F0602290FF
:1094C0002ED7E0FFF1EEC003C002C00191E7F12208
:1094D000FDACF0F58285F083D001D002D0031213E9
:1094E0008E91E7F1F522F0902ED402124E902B9F30
:1094F000121257E924E5118C6015E4902BB6B1A245
:109500001242E1120E7D7E0A7FCEFD7C00A194B155
:10951000A3E92401118CD39401403F120B5A902BE4
:10952000B6EFF07E0A7FCEB1A3E924B7118C30E705
:109530001BB1A3E924BB118C20E011B1A3E924BC29
:10954000118C12E325B504047D07800AB1A3E92438
:10955000B1118C12E3377C00803AE4902BB6F07E98
:109560000A7FCEB1A3E924B7118C30E71BB1A3E980
:1095700024BB118C20E011B1A3E924BC118C12E3AF
:1095800025B504047D07800AB1A3E924B1118C122A
:10959000E3377C00020B55902C67E0FF902C5E02B5
:1095A000124EF0902B9F02124E902ED0EFF0A3128D
:1095B000125712E0F9B1A3E94AC36001D34002C1D6
:1095C0009112E0EE501AE0FF9404500280027F04F2
:1095D000B1A312431FF1307B017A2B79AE1298842C
:1095E000902B9F1226F5F1F9B1A2E924DF118C909E
:1095F0002BADB1A2E924E8118C902BB3B1A2E924E0
:10960000E9118C902BB4B1A2E924EA118C902BB50E
:10961000B1A2E924E6118C902BABB1A2E924E711A9
