:020000040000FA
:100000000202DF0218034100E0002202180B222244
:0100100022CD
:07001300021813E4FFE1D223
:07001B0002181B75C8012249
:030023000218239D
:03002B0002182B8D
:030033000218337D
:03003B0002183B6D
:030043000218435D
:03004B0002184B4D
:030053000218533D
:03005B0002185B2D
:030063000218631D
:03006B0002186B0D
:10007300021873BB010689828A83E0225002E722B9
:10008300BBFE02E32289828A83E49322BB010CE54F
:100093008229F582E5833AF583E0225006E9258239
:1000A300F8E622BBFE06E92582F8E222E58229F57D
:1000B30082E5833AF583E49322BB010689828A832E
:1000C300F0225002F722BBFE01F322F8BB010DE53B
:1000D3008229F582E5833AF583E8F0225006E92583
:1000E30082C8F622BBFE05E92582C8F222C5F0F8D4
:1000F300A3E028F0C5F0F8E582158270021583E0CD
:1001030038F022A3F8E0C5F025F0F0E582158270FF
:10011300021583E0C838F0E822EF2BFFEE3AFEED3C
:1001230039FDEC38FC2275F008758200EF2FFFEEE5
:1001330033FECD33CDCC33CCC58233C5829BED9A10
:10014300EC99E58298400CF582EE9BFEED9AFDEC6E
:1001530099FC0FD5F0D6E4CEFBE4CDFAE4CCF9A8B4
:100163008222B800C1B90059BA002DEC8BF084CFBC
:10017300CECDFCE5F0CBF97818EF2FFFEE33FEED93
:1001830033FDEC33FCEB33FB10D703994004EB99BD
:10019300FB0FD8E5E4F9FA227818EF2FFFEE33FED0
:1001A300ED33FDEC33FCC933C910D7059BE99A4005
:1001B30007EC9BFCE99AF90FD8E0E4C9FAE4CCFB1D
:1001C3002275F010EF2FFFEE33FEED33FDCC33CC71
:1001D300C833C810D7079BEC9AE899400AED9BFDFA
:1001E300EC9AFCE899F80FD5F0DAE4CDFBE4CCFA0D
:1001F300E4C8F922EF5BFFEE5AFEED59FDEC58FC23
:1002030022EB9FF5F0EA9E42F0E99D42F0E89C451F
:10021300F022E8600FECC313FCED13FDEE13FEEFC9
:1002230013FFD8F122E8600FEFC333FFEE33FEED87
:1002330033FDEC33FCD8F122E0FCA3E0FDA3E0FEA8
:10024300A3E0FF22E0F8A3E0F9A3E0FAA3E0FB2296
:10025300ECF0A3EDF0A3EEF0A3EFF022A8828583E8
:10026300F0D083D082120276120276120276120244
:1002730076E473E493A3C583C5F0C583C8C582C878
:10028300F0A3C583C5F0C583C8C582C822E0FBA31C
:10029300E0FAA3E0F922F8E0FBA3A3E0F925F0F0EC
:1002A300E582158270021583E0FA38F022EBF0A3A1
:1002B300EAF0A3E9F022D083D082F8E493701274B9
:1002C3000193700DA3A393F8740193F5828883E4DB
:1002D300737402936860EFA3A3A380DF75812F0279
:1002E3000855900A1951B0AE071FEE6012900A1C10
:1002F30071031176FE900A197103EE11BC80E82296
:10030300E475F0018090900A54EEF0A3EFF09000B2
:100313004FE064016002619BC3900A54E09408506B
:100323000BE4FF914F900A54918380ECE4F50DFBAD
:1003330071C4AF0C121010E50DC39408504771C27D
:10034300E50D7F0071BCEF29F9EA3EFA900A1C51D2
:10035300B07B017A0979007FFF51E5E50DFEE424C6
:10036300FFFFE43E71BC8F828E83118F9009FFF0F3
:100373007B017A097900900A3DE50DF0AD0C12106E
:1003830037050D80B2900050513BE42FFFEE340847
:10039300919490005002167F900054E0FEA3E0FF7A
:1003A30071BD900A54E0FDA3E0900A05CD120AA89E
:1003B300900054EEF0A3EFF022FE90200141907BD9
:1003C300007A00791091D175FF031176F5D375FF8B
:1003D3000390000171EF90000271EF90000371EF41
:1003E30075D40175FF03E5D55402FF22118FF5D3B0
:1003F30075FF0322900A33E0FEA3E0FF912D914F96
:10040300900A35513BEF24019191900A3551539055
:100413000A589149900A58E07002A3E0700BFF7EDE
:1004230008710991DFF01215FD2291B3CD24FFCDA0
:1004330034FFFCC3ED9FFFEC9E541FFE74082F9105
:10044300E8FF22900A1374FFF5F001F091B3541FF3
:10045300FC74082DF58274203CF583EFF0902006A0
:10046300E0B42019A3E0B40014902005E02401FFB8
:10047300902004E03400541FF0A3EFF022902006F4
:10048300E475F00101F09000CE513BEF241BFFE433
:100493003EFEE43DFDE43CFC2291C7EF2401919133
:1004A300120C867404F0D1E3918991CC91F1F0227E
:1004B300902006E0FCA3E0FD902005E02DFD9020B8
:1004C30004E03C229000CE413B900087415375FFEE
:1004D3000375D40222900A17E0FF8101900A587431
:1004E30008F0A3E422F58274203EF583E022900015
:0704F300817408F0A3E4226C
:10050800AEFFEE54CFFEEFC454F024804EF5FF2228
:10051800D119EF541FFFF1E0A37401F01215C09038
:100528000A10E0FCA3E0FDAE047805CEC313CE1399
:10053800D8F9FF900A13EEF0A3EFF0ED541FA3F0E3
:10054800A3E4F0900A33F0A3F0C3900A11E09420DA
:10055800900A10E09400407C9146900A15E0FEA3B2
:10056800E0FF900A33EE8FF011F0900A13E0700468
:10057800A3E06406700AD119900A13E48FF011F011
:10058800D119900A33E48FF011F0120DB2EF600424
:10059800F1DE8005E4900A12F0900A33120FD2704F
:1005A8001D912D900A17EFF0910191D891D8900ADA
:1005B80013E07002A3E0604791D8914680F071F78C
:1005C80071F771F7900A13E07002A3E0603171F7D8
:1005D800914680F0900A109183800A900A10E0708A
:1005E80002A3E0600BD1199101900A10914980EBA8
:1005F800120DB2EF6004F1DE8005E4900A12F0906B
:100608000A12E06002A12712166E7109900A35419C
:100618003B900081E0B4082DA3E0B40028120DA59A
:100628007B017A0179009000FD7408F0A3E4F0D111
:10063800E3120DA5E42FFFEE3408919491CCE490D9
:100648000081F0A3F0900083120E8990008351532B
:10065800900081E475F0013106FE740025F0F58202
:1006680074013EF583E0FF229000ED51539000F1B4
:1006780051B0110FF134EF6004111080F7120F7CA4
:1006880060099000ED513B7810D1D89000EDD1D49D
:100698009000ED513BE480279000F4120FD945F00B
:1006A80060219000F15190EA494B60119000F1519E
:1006B800901176FFD1DB9000F2918380DBE4FFD1CB
:1006C800DB80D5F1CD9000D77401F022513B78083A
:1006D8005115E4E5C820E2FB8FEB229000F6515358
:1006E8009000FA51B0110FF134EF6004111080F747
:0806F800F1EE120F956009906C
:1007000000F6513B7810D1D89000F6D1D49000F685
:10071000F1E99000FD120FD945F06011F1889000C9
:10072000FA5190EF11BC9000FB918380E5120EF915
:10073000E4FFE1D27F01F1D23002161212D2F18829
:10074000900A5DEFF0120EF9900A5DE020E002C21F
:1007500002300219F1779000D4EF1212DA600BA385
:10076000E0F46006EF30E702C202120EF9E4FFF196
:10077000D2A202E433FF22F1F77FD7D1DB7FFFD192
:10078000DBF18C9000D3EFF07FFFD1DBE5C820E2F6
:10079000FBAFEB22900A3E5153110FF134EF60048E
:1007A000111080F7F1EE120F956009900A3E513B4F
:1007B0007810D1D8900A3ED1D4900A3EF1E9F18860
:1007C000900A42F1CB900A42E0FF22EFF0120EF9BC
:1007D000E4FFEFB4010443FE202253FEDF22D119CF
:1007E000900A10E4F0A3EFF022513BE4C1DB7F015B
:1007F000F1D2F1F77F03229000D8E051B908190433
:10080000082114082615082B17083B300840340827
:100810004536084A3700000833531AEF851A80809E
:100820002F531BEF8008531BDF8003531B7F851B57
:1008300090801D531CDF851CA08015531DFE800D6C
:10084000531DEF8008531DBF8003531D7F851DB0CE
:100850007F0CDFFE2275FF03759E029017FAE4936A
:10086000900A51F075FF02E5E654036002419F755E
:1008700010DE7511AD7512BE7513EFC2AF75FF02B4
:1008800075E404F5E4751AFF751BFF751CFF751DF3
:10089000FF7516FF7517FF7518FF7519FF75FF02B5
:1008A00053E6BF91B6121102B108EF640160024134
:1008B0009690180893FE740193FF90007FEEF0A3CA
:1008C000EFF0F5828E83E493FE740193FFC3EE9400
:1008D00080500280047E807F008E148F159193FFDC
:1008E000F5828E83740293F51E740393F51F7404CE
:1008F00093F508740593F509740693F50A74079344
:10090000F50BC201EF4E700221F4EFF4FFEEF44F4D
:10091000700221F4E514451EFEE515451FFFE508AC
:100920004EFEE5094FFFE50A4EFEE50B4F4E700205
:1009300021F4E51FF4FFE51EF4FEE515F4FDE514D2
:10094000F44EFEED4FFFE509F4FDE508F44EFEEF31
:100950004DFFE50BF4FDE50AF44EFEEF4D4E70023F
:1009600021F47F03120508E50B24FFFFE50A712B34
:10097000640370247F02120508E50924FFFFE508DF
:10098000712BB402137F01120508E51F24FFFFE558
:100990001E712BB40102D2012001597F01120508FA
:1009A000713F900A05E51EF0E51FB1AB71207F0293
:1009B0007134900A05E508F0E509711E7F03713472
:1009C000900A05E50AF0E50B711E7F0112050890FB
:1009D0000A52E0FEA3E0FF7BFF7A187900E42515B8
:1009E000900A06F0E51434E8900A05711F4EC370B2
:1009F00001D39201300109D159EF6401600241969F
:100A0000D2001204C77B017A007964918C741BF0C8
:100A10001206E3900064E0B4800B71D3EF7006120D
:100A2000161BEF6002C20030006830011A9193F586
:100A3000828E83740C93FE740D93FF90007DE06EA4
:100A40007003A3E06F604B90005012025F0000182B
:100A5000001204C71204CCB1A5EF24011204919135
:100A6000867404F01206E390008712048C900087CD
:100A700012167F1204F1F090004F04F01205187462
:100A800040D3950C400C1203C2AF0C121010050C91
:100A900080EDE4FFB1D4E4F510F511F512F5130281
:100AA0001800E0FD900A05E4F0A3EDF0900A00EED6
:100AB000F0A3EFF0A31202B0900A05F1D945F0605F
:100AC00054900A02120290120076900A07F0900ADF
:100AD000031204837D80ED60DF7115EE7C0030E74A
:100AE000027C01900A07E05D7B0060027B01EB6CF9
:100AF000FCEF25E0FFEE33900A00F0A3EFF0AF0427
:100B0000EF600C900A00E06410F0A3E06421F0EDC7
:100B1000C313FD80C1900A00E0FEA3E0FF22A3F012
:100B200051AC900A52EEF0A3EFF022347F8F82F5A1
:100B300083E49322120508900A52E0FEA3E0FF7BB3
:100B4000FF7A80790022900000EEF0A3EFF0A3126C
:100B5000023B900008120253900006E0FFA3E090D1
:100B6000000CCF805F90000CF1D2605EC3EF944028
:100B7000EE94004006A37440F0800590000EEFF064
:100B8000919BE0FF918CEFF090000812023B12065F
:100B9000E390000EE0FFC390000DE09FF090000C8A
:100BA000E09400F090000812024790000EE4FCFD73
:100BB000FE12011C90000812025371CA919B51A2AF
:100BC000900000EEF0A3EFF0809B900000E0FEA309
:100BD000E0FF221204C79180900006E4F07405B192
:100BE000AB9175C006C0071204C7EF240712049129
:100BF0009180900006E4F0A37414F0D007D0069121
:100C000075C006C007120489918091A540067EFF39
:100C10007FFF800690006512023B900006EEF0A375
:100C2000EFF0D007D006917591A540301204C7EFC0
:100C3000241AFFE43EFEED3401FDE43CFC9180907B
:100C4000006512023BEF2401FFE43E900006F0A392
:100C5000EFF0900A56E0FEA3E0FF9175900069E086
:100C6000FEA3E0FF900A56E06E7003A3E06F7F00E2
:100C700060027FFF227146900A56EEF0A3EFF02249
:100C80009000020202537B017A0079839000FDE418
:100C9000F0A32290007FE0FEA3E0227B017A00799E
:100CA0000F90000E22E47FFF7EFFFDFC9000651296
:100CB0000247D3020204E4900A5EF0900A5EE0FF6D
:100CC000D3946F501EEF2410FFB1E6900A5EE0FE51
:100CD000E42EF582E4344FF583EFF0900A5EE004F1
:100CE000F080D87B017A4F7900900A05E4F0A37474
:100CF00070F07F0F7E1D51ACEF4E7F0070027F01C0
:100D0000901218EFF024FF22E49000D2F07B017AD9
:100D10000079BD1213429000BFE0FF7411D39F50C1
:100D20005DE4FFFEFDFC7B017A0A794F9000FDF047
:100D3000A37402F01206E3900A4FE0FEA3E0FFE482
:100D4000FCFDB19F1204C7EF2402120491B19F125F
:100D500015619000CE1202471201F7900A4DEEF095
:100D6000A3EFF09000CE120247900A4D12154FFEED
:100D7000E4FCFD12011CB19F9000D27401F09000C0
:100D8000D2E0FB6017E4FFFE7D02FC9000BFE02490
:100D9000EFF9F81202289000B7120253AF03229025
:100DA00000CE02025390008702023BA3F07F0F7E29
:100DB0001D22E4FFFEFDFC90008391AF7F00400206
:100DC0007F01227F0F7E1D51A4900A0C1202909089
:100DD0000A0F41A2AB07E4FF9000D2E06007D18682
:100DE000D19DE433FF2275FF03E4F597F1E7E59722
:100DF00020E1FB75FF03AF9922900A48EFF0A3EDC5
:100E0000F0A31202B0900A49E06046901218E06028
:100E100012900A48E02410FFB1E6900A4A120290AC
:100E2000EF8017900A48E06401900A4A70071202A6
:100E3000907480800512029074FF1200BC900A4BDF
:100E4000120483900A49E014F0900A48E004F0800C
:100E5000B4227D01B1F97B0122E49000FFF0900003
:100E6000D2E0601C9000B712023BE4FBFA7902F872
:100E7000D3120204500AD1861207949000FFEFF0BB
:100E80009000FFE0FF229000CE12023BEF24FFFF14
:100E9000EE34FFFEED34FFFDEC34FFFC22900A47F8
:100EA000EBF0900A43120253900A4312023B1207DE
:100EB00094900A47E06F603C12000F120734EF6015
:100EC0000512001080F5F17C600B900A4312023B82
:100ED00078101206D8900A431206D4900A431207DB
:100EE000E9900A47E0FF1206DB1207CD9000D774A5
:100EF00001F0D322C3221206DBF1CCEF70FB90008D
:100F0000DAE0F4600A900A5A7406F0F17470FC900A
:100F100000D8E01202B90F32040F3A140F3F150F38
:100F200044170F54300F59340F5E360F63370000EB
:100F30000F4C431A10851A80802F431B10800843E2
:100F40001B208003431B80851B90801D431C208534
:100F50001CA08015431D01800D431D108008431DFA
:100F6000408003431D80851DB0900A5A740CF0F137
:100F70007470FC22900A5AE014F0E0227F011207FC
:100F8000D2D2021207F77F061206DBD1F91207F759
:100F90009000D6E0FF1206DB9000D9E06402221236
:100FA000000F120734EF600512001080F57F011268
:100FB00007D2D2021207F77F06D1F61207F77F0198
:100FC0001206DB7F03D1F6E4FF0207D2E5C8540422
:100FD000FF22E0FEA3E0FF4E2274FFF5F0020106BF
:100FE000AB05E4FCFDC19D75FF038F9875FF0322DF
:100FF00075FF03759701F1E7E59720E1FB75FF03A6
:10100000AF99221204D175FF03E5D5F45402FF22F3
:1010100075FF03EF543F4480F5D1E5D520E20AE5A2
:10102000D520E005E5D530E1F1E5D55403FF75FFA6
:101030000375D5050204D175FF03ACD5EC20E13C66
:1010400075FF03ED543FF5D175FF03E9F5D375FF47
:1010500003EA540FFF900A3DE0C4547044804FF5FA
:10106000D2E5D520E205E5D530E0F6E5D55401FC22
:1010700075FF0343D40275FF0375D505AF04227FC6
:10108000011207D2900A5B7401F0900A5BE06032B3
:1010900051D2120788900A5BEFF0120EF91207770F
:1010A0009000D4EFF0120EF9900A5BE0540151DA8F
:1010B00060D8A3E0F460D3EF30E7CFE4900A5BF0B0
:1010C00080C81207F77F9F1206DB1207889000D5B1
:1010D0001207869000DA1207869000DB1207CB9089
:1010E00000D3E0F4601BA3E0F460169000DAE0FDAA
:1010F000541F240FA3F0EDC413540744809000DA6A
:10110000F0227B017A0079D87F03120E527A00799F
:10111000E17F08120E527A0079DE7D027F09120DFE
:10112000F97B017A0079DC7D027F0B120DF99000CA
:10113000DC120FD26006BEFF1BBFFF189000E1E07B
:1011400024FD600304700451C880099000DCE4F0C1
:10115000A37440F09000E1E024FD60030470089067
:1011600000D97403F080069000D97402F09000D882
:10117000E01202B9119004119B1411A31511AB17C1
:1011800011C13011C93411D13611D937000011B64F
:1011900075FF015316EF8516FD804775FF01531744
:1011A000EF800E75FF015317DF800675FF0153179F
:1011B0007F8517C9802C75FF015318DF8518CA80F9
:1011C0002175FF015319FE801675FF015319EF8039
:1011D0000E75FF015319BF800675FF0153197F85F6
:1011E00019CB120EF97F1151BAE4FF7109117F90EA
:1011F00000D67402F09000DAE0247F6009047015D4
:1012000051C0740A800651E251C07458F09000D960
:101210007403F051C89000DBE0F4600241B7900025
:10122000DEE0FEA3E0FF64104E70069000DB740E5B
:10123000F0EF64204E70069000DB740FF0EF644016
:101240004E70069000DB7410F0EF64804E700690D4
:1012500000DB7411F0E4B5070AEEB401069000DB80
:101260007412F0E4B5070AEEB402069000DB7413C2
:10127000F0E4B5070AEEB404069000DB7414F0E461
:10128000B5070AEEB408069000DB7415F0E4B50764
:101290000AEEB410069000DB7416F0E4B5070AEE0F
:1012A000B420069000DB7417F0E4B5070AEEB440F2
:1012B000069000DB7418F0020F9FEF4420F5FE2229
:1012C0007F1051BA9000D6229000DC7401F0A3E4A4
:1012D000F0221207F77F050206DBF09000D3E0FF53
:1012E000F4229000D3E020E01F7F011207D2120702
:1012F000F77F3D1206DB7F2A1206DB7F801206DBBA
:101300007FA61206DB1207CD22900A5CEFF0900058
:10131000E1E06402702B7F011207D21207F7900AF6
:101320005CE07FAB60027FB91206DB120EF9900A17
:101330005CE09000E0F070047F1EDFFEE4FF120727
:10134000D2229000D5E01200BC9000DAE0900001BB
:101350001200CE9000DBE09000020200CEE4FCFD23
:10136000020794900A2F717FC007900A2F120290F3
:10137000900A32E0FF120C8CEFF0D0070206E31265
:1013800002B0E4FCFD22900A28717FC007900A2871
:10139000120290900A2BB122D00790008F120253B4
:1013A0009000931202B0E49000B6F0D3900097E062
:1013B000941E900096E094004001227B017A00790F
:1013C00098900096E0FFA3E09000FDCFF0A3EFF02F
:1013D00090008F12023B1206E3900093120290E9F4
:1013E0004A600F9000B6E0F58275830012008FFF0F
:1013F00080027F009000B6E02498F582E43400F586
:1014000083E06F6002C3229000B6E004FFF0D39047
:101410000097E09F900096E0940050BD229000E27B
:101420001202539000E61202B0B1139000E9B1220B
:101430009000E212023B719A500281CCB16190009F
:10144000E21202471201F79000EBEEF0A3EFF04E2C
:1014500060319000EBB14FFE9000EBF0A3EFF09005
:1014600000E9E0FCA3E0FDD39FEC9E5006A3ECF066
:10147000A3EDF091CEE94A6004B11980427E007F6D
:1014800000803C9000E9120FD2603F9000DCE0FC4D
:10149000A3E0FDD3EF9DEE9C400A9000EBECF0A39F
:1014A000EDF0800D9000E9E0FFA3E0A3CFF0A3EF03
:1014B000F091CEE94A6004B11980047E007F00906B
:1014C00000E7EE8FF01200F080B9D322C322900023
:1014D000E61202909000EBE0FFA3E09000F4CFF062
:1014E000A3EFF09000E212023B1206709000EBE0D6
:1014F000FEA3E0FFC39000EAE09FF09000E9E09EC9
:10150000F09000E2120247E4FCFD12011C9000E2A0
:101510001202539000E60202909000EBE0FEA3E07E
:10152000FF22E0FFA3E0900096CFF0A3EFF022901F
:101530000A21717FC007900A21120290900A24E0CC
:10154000FFA3E09000E9CFF0A3EFF0D007811DE00A
:10155000FEA3E0FFC39000DDE09FFF9000DCE09E73
:10156000229000DDE024FFFF9000DCE034FFFEE489
:10157000FCFD2212000F120734EF600512001080EC
:10158000F5229000D7E0FF22E49000D7F0229012DD
:1015900018E024FF22901218E060057F10020DE68B
:1015A0007FFF22E4902004F0A3F0A3F0A3F07B01DE
:1015B0007A2079089020011202B0E4902000F022F5
:1015C0001204DFF0900A3512025F0000000080D3A1
:1015D000902004E0FEA3E0FF24081204E8FDEF24BD
:1015E00001FFE43E541F902004F0A3EFF0A3120487
:1015F00049AF0522902006E0FEA3E0FF22902000E4
:10160000E0045403F07F0033333354F8FEEF240832
:10161000F974203EFA7B01A30202B0900054741DBD
:10162000F0A3740FF012049CE490004FF012051820
:1016300090006BE0FEA3E0FF900054E06E7003A307
:10164000E06F7F0060027FFF22EFB40109D2AD7529
:10165000FF0143AE4022C2AD75FF0153AEBF22E58C
:10166000C85402FF75C80222E5C85401FF22900A3F
:1016700058E0FEA3E0FFC3E49FFF74089EFE221221
:101680000253E4FB7A08F9F890005012023B120171
:04169000658F0C2234
:1017FA00043DFFFCFFFF02269C1A071A0C227FB841
:10180A00EF90181393901900730A20364CE554FF91
:10181A0022EFF554225A2D5761766520342E36313F
:10182A000002493F000E1384000E18FC000E225CD1
:10183A00020202003F3F3F04040432323200020136
:10184A0090022D16822D1C16131110101BC41BCECC
:10185A00FF0233A5C2D5E830E70FB2D5E4C39BFB3C
:10186A00E49AFAE499F9E498F8EC30E717B2D51259
:10187A0018941221B7E4C39BFBE49AFAE499F9E4B9
:10188A0098F880031221B730D50DE4C39FFFE49E78
:10189A00FEE49DFDE49CFC227890E4F6D8FD9000DD
:1018AA00007F007E10E4F0A3DFFCDEFA903133A360
:1018BA00E583C394204011FEAF829020000E0FE40E
:1018CA008002F0A3DFFCDEFA1219200226AE2232D1
:1018DA001CAA1CB41CB91CBE1CC31CC81CD21CDC10
:1018EA001CE11CFF1D04000301020604051C411C27
:1018FA00731C7828CBFFC0547419C0E0C082C0831F
:10190A0075540AE5FF54CF4490F5FF22C054741968
:10191A00C0E0C082C083755420E5FF54CF4490F5DF
:10192A00FF22C0547419C0E0C082C083755436E5E2
:10193A00FF54CF44A0F5FF22C0547419C0E0C082FE
:10194A00C08375544CE5FF54CF44B0F5FF22908014
:10195A00002116909802211690808821169080C73F
:10196A002116909A242116909A342116909FD221FA
:10197A001690A0D4211690A515211690A8D221164A
:10198A0090A8E2211690AC85211690B7F621169000
:10199A0098CA211690B7F9211690B870211690A40A
:1019AA0002211690A11E211690A518211690BA1C84
:1019BA00211690B926211690BD0D211690BBEC2157
:1019CA001690C02E211690B2EB211690A837211638
:1019DA00909EDC211690AF4E211690C7F0211690EA
:1019EA00C814211690CFE8211690AC8D211690A02C
:1019FA00C6211690B1CE211690AD8A211690B6A4B2
:101A0A00211690AEF9211690D38A211690C04F2143
:101A1A0016909AAC211690CC4A211690CB412116E9
:101A2A0090A0C1211690D423211690CD2921169079
:101A3A00C563211690D426211690A4D0211690BFF2
:101A4A00CF211690C3C8211690C57B211690C1EAF2
:101A5A002116908156211690C362211690B6BF2195
:101A6A001690A513211690BDA4211690B9462116E9
:101A7A0090D21E211690B941211690D506211690B2
:101A8A00BF22211690D55D211690A679211690D7EE
:101A9A0026211690D716211690987E211690C1926B
:101AAA00211690D267211690D246211690D14A214A
:101ABA001690D23D211690D27C211690D0FA21168A
:101ACA0090D100211690A859211690C60B21169084
:101ADA00D741211690A01C21169085B8211690A8EE
:101AEA0014211690B366211690AC70211690A91F86
:101AFA00211690C151211690C511211690D7942113
:101B0A001690D7A1211690817E211690C16E2116BA
:101B1A0090BD312116909A3B211690D7D321169069
:101B2A00C68D211690D818211690C613211690D862
:101B3A002C211690D843211690D96E211690D8F2EE
:101B4A00211690D971211690A8D9211690D9492128
:101B5A001690A0B5211690A956211690CF152116D8
:101B6A0090C79F211690B3E4211690B31C211690BA
:101B7A00D5CB211690DA8E211690991C211690DA6F
:101B8A002A2116909E0E211690DC8E2116909080A6
:101B9A00211690D29B211690D2F3211690DD48216E
:101BAA001690DD79211690DD97211690DDB5211664
:101BBA0090DE8F211690DE092116909DB221169093
:101BCA0094A62116909596211690D2532116909B91
:101BDA00C72116909C3B211690DECD21169097F7CF
:101BEA0021169098F6211690DEFF211690D29821A0
:061BFA001690A6612142D5
:101C000090B22F214290B329214290B46F2142908B
:101C1000B7BC214290A563214290B834214290B9CB
:101C20000F214290B9C3214290B9E4214290B9F703
:101C3000214290A124214290A1BC214290A754218D
:101C40004290BBD0214290BBD1214290A9F02142C9
:101C5000908085214290BCA2214290A32B214290EA
:101C60008C5F214290A8E821429080042142908F0D
:101C700063214290BE63214290BE7B214290BE917F
:101C8000214290BEA9214290BEF4214290BFB921C9
:101C90004290813D214290C051214290C0CF2142CB
:101CA00090C102214290B1FF214290C10E21429089
:101CB000ACD1214290B64D214290B537214290B629
:101CC000B4214290B11B214290AD89214290B6359A
:101CD000214290B205214290AD32214290B5A72118
:101CE0004290C11B214290AD01214290B18C214212
:101CF00090ABD6214290C184214290BF13214290E3
:101D0000C1E421429085E121429087D8214290ACE4
:101D1000B5214290B669214290BF60214290BB310B
:101D2000214290BD36214290B92F214290BB15210E
:101D30004290BD61214290BC20214290A7232142C4
:101D400090B70A214290A0F7212C909F1F212C9040
:101D5000A101212C90A10B212C90A117212C90A145
:101D600021212C90A142212C90A14C212C909DBA94
:101D7000212C90A179212C909FCF212C90A18321FF
:101D80002C90A1F0212C90A230212C90A208212C83
:101D900090A212212C90A320212C90A21C212C90E7
:101DA000A226212C908000212C909F9E212C90A077
:101DB0002B212C908040212C90A476212C90A4776C
:101DC000212C9094B1212C909BC2212C909D7421A8
:101DD0002C909AFB212C90A49A212C90A066212C67
:101DE00090A30C212C9098AF212C00E709F608DF76
:101DF000FA8046E709F208DFFA803E88828C83E7A2
:101E000009F0A3DFFA8032E309F608DFFA8078E30D
:101E100009F208DFFA807088828C83E309F0A3DF7F
:101E2000FA806489828A83E0A3F608DFFA80588901
:101E3000828A83E0A3F208DFFA804C80D280FA80A5
:101E4000C680D4806980F28033801080A680EA80CA
:101E50009A80A880DA80E280CA803389828A83EC03
:101E6000FAE493A3C8C582C8CCC583CCF0A3C8C587
:101E700082C8CCC583CCDFE9DEE7800D89828A8306
:101E8000E493A3F608DFF9ECFAA9F0EDFB228982CE
:101E90008A83ECFAE0A3C8C582C8CCC583CCF0A382
:101EA000C8C582C8CCC583CCDFEADEE880DB898286
:101EB0008A83E493A3F208DFF980CC88F0EF600115
:101EC0000E4E60C388F0ED2402B4040050B9F582D0
:101ED000EB2402B4040050AF2323458223901E3B21
:101EE00073BB010689828A83E0225002E722BBFE8F
:101EF00002E32289828A83E49322BB010B89828ACE
:101F000083F8E0C828F0E822500327C722BBFE0769
:101F1000F8E3C828F3E8228A838982E49322BB018C
:101F20000CE58229F582E5833AF583E0225006E943
:101F30002582F8E622BBFE06E92582F8E222E58248
:101F400029F582E5833AF583E49322BB010989826E
:101F50008A83F8E028F022500327F722BBFE05F819
:101F6000E328F3228A838982F8E4932822BB010FB5
:101F7000F8E58229F582E5833AF583E028F02250DE
:101F800009C58229F8E58226F622BBFE09C5822909
:101F9000F8E22582F222F8EA2583F583E9932822E4
:101FA000BB010689828A83F0225002F722BBFE0120
:101FB000F322F8BB010DE58229F582E5833AF5832A
:101FC000E8F0225006E92582C8F622BBFE05E92585
:101FD00082C8F222EF8DF0A4A8F0CF8CF0A428CE16
:101FE0008DF0A42EFE22BC000BBE0029EF8DF084E4
:101FF000FFADF022E4CCF875F008EF2FFFEE33FED2
:10200000EC33FCEE9DEC984005FCEE9DFE0FD5F008
:10201000E9E4CEFD22EDF8F5F0EE8420D21CFEAD11
:10202000F075F008EF2FFFED33FD4007985006D50F
:10203000F0F222C398FD0FD5F0EA22C2D5EC30E7CA
:1020400009B2D5E4C39DFDE49CFCEE30E715B2D5A2
:10205000E4C39FFFE49EFE121FE6C3E49DFDE49CE3
:10206000FC8003121FE630D507C3E49FFFE49EFE09
:1020700022C5F0F8A3E028F0C5F0F8E582158270DB
:10208000021583E038F022A3F8E0C5F025F0F0E572
:1020900082158270021583E0C838F0E822BB010A7D
:1020A00089828A83E0F5F0A3E022500687F009E7F1
:1020B0001922BBFE07E3F5F009E3192289828A831E
:1020C000E493F5F074019322BB010789828A8302AD
:1020D0002071500B09C5F027F7C5F01937F722BB5F
:1020E000FE0D09F8E325F0F3C5F019E338F322F803
:1020F00089828A8374019325F0C5F0F8E49338222D
:10210000BB010A89828A83F0E5F0A3F0225006F72A
:1021100009A7F01922BBFE06F3E5F009F31922EF37
:102120002BFFEE3AFEED39FDEC38FC22E88FF0A4EF
:10213000CC8BF0A42CFCE98EF0A42CFC8AF0EDA44E
:102140002CFCEA8EF0A4CDA8F08BF0A42DCC382581
:10215000F0FDE98FF0A42CCD35F0FCEB8EF0A4FE61
:10216000A9F0EB8FF0A4CFC5F02ECD39FEE43CFCF6
:10217000EAA42DCE35F0FDE43CFC2275F008758212
:1021800000EF2FFFEE33FECD33CDCC33CCC5823301
:10219000C5829BED9AEC99E58298400CF582EE9B06
:1021A000FEED9AFDEC99FC0FD5F0D6E4CEFBE4CD24
:1021B000FAE4CCF9A88222B800C1B90059BA002DBE
:1021C000EC8BF084CFCECDFCE5F0CBF97818EF2F77
:1021D000FFEE33FEED33FDEC33FCEB33FB10D703A6
:1021E000994004EB99FB0FD8E5E4F9FA227818EF4F
:1021F0002FFFEE33FEED33FDEC33FCC933C910D7AE
:10220000059BE99A4007EC9BFCE99AF90FD8E0E4BA
:10221000C9FAE4CCFB2275F010EF2FFFEE33FEED90
:1022200033FDCC33CCC833C810D7079BEC9AE89960
:10223000400AED9BFDEC9AFCE899F80FD5F0DAE442
:10224000CDFBE4CCFAE4C8F922EF5BFFEE5AFEEDD9
:1022500059FDEC58FC22C3E49FFFE49EFEE49DFD83
:10226000E49CFC22EB9FF5F0EA9E42F0E99D42F0EF
:10227000EC6480C864809845F022EB9FF5F0EA9EFC
:1022800042F0E99D42F0E89C45F022E8600FECC383
:1022900013FCED13FDEE13FEEF13FFD8F122E860FF
:1022A0000FEFC333FFEE33FEED33FDEC33FCD8F11B
:1022B00022BB010789828A830223285005E9F8029C
:1022C00024E0BBFE05E9F80224EC22E0FCA3E0FDDB
:1022D000A3E0FEA3E0FF22E493FC740193FD7402EB
:1022E00093FE740393FF22E0F8A3E0F9A3E0FAA3BE
:1022F000E0FB227401FF3395E0FEFDFCA3A3A3E005
:102300002FFFF0E582158270021583E03EFEF0E5B6
:1023100082158270021583E03DFDF0E58215827022
:10232000021583E03CFCF022ECF0A3EDF0A3EEF00C
:10233000A3EFF022A8828583F0D083D08212234BB2
:1023400012234B12234B12234BE473E493A3C58354
:10235000C5F0C583C8C582C8F0A3C583C5F0C583D1
:10236000C8C582C822A42582F582E5F03583F583AD
:1023700022E0FBA3E0FAA3E0F922EBF0A3EAF0A34A
:10238000E9F022E493FB740193FA740293F922BBFF
:10239000010789828A830223715005E9F80224F833
:1023A000BBFE05E9F802250A89828A83022383BBE2
:1023B000011A89828A83D0F0D0E0F8D0E0F9D0E029
:1023C000FAD0E0FBE8C0E0C0F002237A5016E9F84A
:1023D000D083D082D0E0F9D0E0FAD0E0FBC082C058
:1023E00083022501BBFE16E9F8D083D082D0E0F944
:1023F000D0E0FAD0E0FBC082C08302251322BB01EB
:102400000DE58229F582E5833AF5830223715007B1
:10241000E92582F80224F8BBFE07E92582F80225A7
:102420000AE58229F582E5833AF583022383BB011D
:1024300020E58229F582E5833AF583D0F0D0E0F8F3
:10244000D0E0F9D0E0FAD0E0FBE8C0E0C0F0022331
:102450007A5018E92582F8D083D082D0E0F9D0E014
:10246000FAD0E0FBC082C083022501BBFE18E9253B
:1024700082F8D083D082D0E0F9D0E0FAD0E0FBC07F
:1024800082C08302251322D083D082F8E493701295
:10249000740193700DA3A393F8740193F58288835C
:1024A000E4737402936860EFA3A3A380DF8A838937
:1024B00082E473EC8EF0A4CCC5F0CCCDF8EFA4CEC2
:1024C000C5F02DFDE43CFCE8A42EC8C5F03DFDE4BC
:1024D0003CFCEFA4FFE5F028FEE43DFDE43CFC22DB
:1024E000ECF608EDF608EEF608EFF622ECF208ED51
:1024F000F208EEF208EFF222E6FB08E6FA08E6F947
:1025000022EBF608EAF608E9F622E2FB08E2FA080E
:10251000E2F922EBF208EAF208E9F222410735007B
:10252000C12BC12E41073400E0020200003199E0C6
:10253000020200022949E00402000446524545E037
:102540000102001554E001020016A5E00102200579
:1025500028E001022918FFE0050229462949020462
:102560003D41041A060136004104190141041701D6
:10257000C137013B00013900412D8C004129040085
:102580004128A5055D2C9600000000000000000019
:10259000000000000000000000000000000000003B
:1025A00000000000C13D43297A00000041298B0052
:1025B000C10EC132011800C12FC13041312300C109
:1025C0005E432D04000000412D0300412D07004112
:1025D0002EBBFFC133C135C140412D2B000153003B
:1025E000C124412D1D00412D2A00602825F105221E
:1025F000000000030008FE877F88CF7FC04FFBD715
:10260000FDE0670080800C8082000000E87300809D
:102610000F0000600000412164004121760041214B
:10262000670041216100412169014121620141238B
:102630009A00C142C1434129ED964129E90FE002C8
:1026400002294B0033E0050229790033040522E01A
:102650000202297E0807E0050231800807050522ED
:10266000412E90FF412E89FF412E8C00412E8F007C
:10267000C164E0020231850013E00C0231870000E2
:102680000308000300080522043DE0050231930021
:1026900013FF0522E0020231980000007581907559
:1026A000FF03759E021219200241CF0218D890250F
:1026B0001CE47E019360F4A3FF543F30E509541FEE
:1026C000FEE493A360010ECF54E0B4E00EEFFAEE07
:1026D000F9A3A3A3A3DAFDD9FB80D654C025E060FB
:1026E0004B5026E493A3F85407240CC8C333C454B6
:1026F0000F4420C8834004F456800146F6DFE4808E
:10270000B00102040810204080E493A3FAE493A3EC
:10271000F8E493A3C8C582C8CAC583CAF0A3C8C5D4
:1027200082C8CAC583CADFE9DEE78085E493A3F8DF
:10273000E493A34003F68001F208DFF40226B10916
:10274000040000020A0000000705820220000007C2
:102750000502022000000904010001020201000537
:1027600024001001052401000104240200052406B0
:102770000001070581030800201D451D4A1D4F1D4E
:10278000541D591D5E1D631D681D6D1D721D771D35
:102790007C1D811D861D8B1D901D951D9A1D9F1DE5
:1027A000A41DA91DAE0000000000001201000202DD
:1027B00000000858060002000000000001090200A5
:1027C00000000100803204030409A280CACF0998E6
:1027D000445CAD550641469503861C0A0000000086
:1027E0000005000006000000100000242880000002
:1027F000242080000011382100004428800000447B
:102800002080000034382100003F241E16110E0BDA
:1028100009070504030201F0C8A7917767604638ED
:102820003532302422201400010102020303040483
:102830000505060607071A3E1A431A481A4D1A528A
:102840001A611A661A751A7F1ACF1AD41AD91AE899
:102850001AF21B061B0B1B101B241B291B601B657C
:102860001B6A1DDB1DE01DE5500A1B8858DEE4FDD8
:102870007C0CAB050DEB90181F938F828E83F00FAD
:10288000BF00010EDCEC7F02228F828E83E4F0A376
:102890007404119C743D119CA3E4F022F08F828E8D
:1028A00083A3A322903106EFF0902D9DE0B4011098
:1028B000C2ED7A317906902E1D11C1121C32D2ED73
:1028C000227B0112237A7A2D799E22902D9DE0643D
:1028D0000170287B017A2D799E121C3CEF701C90B0
:1028E0003107F0C2ED7A317907902DFE11C1121C2B
:1028F00037D2ED903107E0FF121C05227A1C7B0ACB
:1029000012B2F8902D9D7401F0FB31287E287FCB08
:1029100090073DE0FCA3E04C700590073D8002C3AA
:1029200022EEF0A3EFF0D3227A2D79A6902ED712C3
:10293000237A902EDA7401F0A37405F07A2D799E33
:10294000021C2D7F013153902D9DE0B401047B01C9
:10295000312822EF600E12440BAF82AE83E4FD12E9
:10296000442F8010302B037F0022121BF11244F9F8
:10297000E433FF227F01229004E012237AD247C27F
:10298000EBE53660026176E53730E202C322717F03
:1029900024EEF9E43AFAE4121FA0124F81A2ED925C
:1029A00036C2ED91DA12209D54606043717F24039A
:1029B000719020E13A902F60E064046032717F24CE
:1029C000BB7190717E24E291F5902F5F740FF090AF
:1029D00004E0122371902F5C12237A902D04125C74
:1029E00016902F607405F07197A23692EDD322F104
:1029F000DA540FFFBF0111E924EF7190700A9012B1
:102A000015E09004E3F0800E9004E0122371121C94
:102A10009B9004E3EFF0E53720E05D1249C14004EC
:102A20007F0131539004E37A0479E4124704E433DC
:102A3000717E24EFF9E43AFA7401121F4BEF700231
:102A400080329004E3E0FF125C91E0FE9004E4E049
:102A5000D39E4004F1E9C3227187FDF1DAFB124EE7
:102A6000289004E4EFF0E0FF7006D2EBD21A615E2A
:102A7000EFB40204D2EB615E91DA12209D546060E3
:102A80000E717F2403719020E105E4902F60F01215
:102A900049C15005C2501244B31247AEE5D120E0FF
:102AA000FBE4F530717F2408F9E43ACFE9CFF53142
:102AB0008F32717F24B17190F538AE3112586F7139
:102AC0007F24B17190717E24E171902FFFE433FE79
:102AD000EF2401FFE43EFE7187D39FEE124C7F503E
:102AE000057401121F4B717F24B2F9E43A8B40F553
:102AF000418942717F24E17190F54391DA12209D62
:102B00005407900419F0753608717F24B2F9E43A3D
:102B1000FA125863717F24E17190FFAD3812588B1F
:102B20007B01E4FDFF125805E4F5FFE5D254804433
:102B30000CF5D29004E3E0FF71872418FBE433FA2C
:102B40007D03124ECB91DA12209DFFAEF0A2479288
:102B5000469004E3E090050AF0124C324006A2369B
:102B600092EDC3229004E3E0717E24F291F5A23647
:102B700092EDD2EBD322A23692EDD2EBC322FF909C
:102B800004E0122371E9229004E0122371E924B9D0
:102B9000F9E43AFA021EE1902F60E024FC70028111
:102BA000BA14700281B3147002819E14700281C243
:102BB0002406600281D9E536600281D9C2EB91E832
:102BC000121C9B9030CAEFF0E53730E002819B1277
:102BD00047D160047F0131539030CA7A3079CB12EB
:102BE00047044004D2EB81FD9030CAE0125C91E0D2
:102BF000FF9030CBE0D39F4002E1E9902F5FE0648B
:102C00000F70299030CAE0FF902F5C718AFD902FE1
:102C10005CF1DDFB124E289030CBEFF0E0FF700549
:102C2000D2EBD21A22EFB40203D2EB22124DB391AF
:102C3000E8E924E27190FF902F5C91DD12209DFD68
:102C4000ACF0E4FB124D92C2469030CAE090050A07
:102C5000F0E4FFFE124C32503FD2EB902F60740232
:102C6000F0124DC47E00E4FCFD7BD07A127913F89B
:102C700012212CE47BE87A03F9F812185EAB07AA5C
:102C8000069030CAE0FF7D03124ECB7E507F0A7D56
:102C9000147C00121C558003D2EB22D2EB22E537C4
:102CA00020E509E53730E0047F013153902F60744F
:102CB00003F022902F607401F022121C4B91E80265
:102CC0001BF6F1F0D21A91E8125D1C902F5C125C99
:102CD00016E4902F60F0121C6E229004E012237113
:102CE000E92404F9E43AFA22902F5C022371FF12DE
:102CF0002371E92402F9E43AFAEF021FA0C3900419
:102D000021E094FF900420E094FF5002B10F22E4F0
:102D100075F001022071C0E0C0F0C083C082C0D055
:102D200075D008C0FF75FF01E5D530E6047F02804D
:102D300009E5D57F0030E7027F018F3AE53A64026A
:102D40006002A1D5E5361224872D62012D75022D72
:102D5000C2082D80092D8B0A2D990B2DB70C000070
:102D60002ED675FF0175C355153CE53C6002C1D6F2
:102D7000753602C1D675FF0175C3F0753609C1D627
:102D800075FF0175C35575360AC1D675FF019004EC
:102D90002CE0F5C375360BC1D675FF01900418E021
:102DA000F5C3753601753C0890043B125BD8600290
:102DB000C1D675360CC1D6902F607406F0753600FA
:102DC000C1D6C2EB753600433704125C9B4002C18A
:102DD000D6B10FC1D6E53A64016002C1D612569B46
:102DE0004002C1D6E530704C125CFD122371E5D96A
:102DF000121FA0125CF1E09004FFF0125677124D02
:102E00007E900417EFF09004FFE0FFD39409405048
:102E1000EFD394AA400280489004FFE0F5381251A5
:102E20002D901215EFF075FF009004FFE0F5D975B5
:102E30003003C1D6E53064036002C1D6125CFD12D6
:102E40004D1AE5D9121FA075FF00E5D330E016C377
:102E5000900427E094FF900426E094FF5002B10F05
:102E60001246B08071C2501244B375FF001247B1D0
:102E7000E5D120E0FBC2EB433702D1EAA3E0FF90AB
:102E8000073AE0FEEF6ED1E9E0900739D1E3A3A362
:102E9000E090073BD1E3A3A3A3E0FE90073CE0FD55
:102EA000EE6D4F6011C3900429E094FF900428E078
:102EB00094FF5002B10FC3900423E094FF900422CA
:102EC000E094FF5002B10F7530001538125CF1E547
:102ED00038F0900738F0D0FFD0D0D082D083D0F037
:102EE000D0E032FEE0FDEE6D4FFF8532828531830A
:102EF00022902E41122328902E4512237A12361C3E
:102F00001230FBEF600512362B80F5123578600A1F
:102F1000902E411222CB7810F15B902E41F1569009
:102F20002E411222CBE48021902E48125BEF601DCF
:102F3000902E45125BC3600F902E45F1DDFFF15FCF
:102F4000902E46B10F80E1E4FFF15F80DBF1AF909E
:102F50002D837401F0221222CB780812228BE4E533
:102F6000C820E2FB8FEB22902FCA122328F1E31234
:102F70003536902FCEE06F603212361C1230FBEFE8
:102F8000600512362B80F51235786006F1E3781073
:102F9000F15B902FCAF156F1E3E4F15F902FCEE0A0
:102FA000FFF1AD902D837401F0D322C322F15F12A3
:102FB0003148E4FFEFB4010443FE202253FEDF2238
:102FC000902D7FE020E012F1FC7F3DF15F7F2AF140
:102FD0005F7F80F15F7FA6F1AD229004E012237144
:102FE000021EE1902FCA0222CBD2EB91FDD21A220F
:102FF000125C9B5002B10F22FFFFFFFF7F01122FD7
:10300000B4902D84E0122487302404302C14303105
:1030100015303617304630304B3430503630553757
:103020000000303E5314EF851480802F5315EF803D
:10303000085315DF800353157F851590801D5316A7
:10304000DF8516A080155317FE800D5317EF8008FB
:103050005317BF800353177F8517B07F0CDFFE2205
:103060007F01122FB490310B7401F090310BE060AE
:103070003711017F0511EB90310BEFF0314811E76B
:10308000902D7FEFF011EE902D80EFF031489031D0
:103090000BE05401F1F760D3A3E0F460CEEF30E72A
:1030A000CAE490310BF080C311017F9F11EB902D8A
:1030B00081EFF011EE902D86EFF011EE902D87EF5D
:1030C000F0122FAF902D7FE0F4601BA3E0F46016A8
:1030D000902D86E0FD541F240FA3F0EDC413540778
:1030E0004480902D86F02211017FD7122F5F7FFF41
:1030F000122F5FE5C820E2FBAFEB227F01122FB455
:1031000030511611017F0511EB90310DEFF0314870
:1031100090310DE020E002C25130511E11E7902D98
:103120007FEFF011EE902D80EFF1F7600BA3E0F44C
:103130006006EF30E702C2513148E4FF122FB4A21B
:1031400051E433FF22122F5FF1F1EF70FB902D86D7
:10315000E0F4600A90310A7406F0D10170FC902D01
:1031600084E0122487318104318914318E15319322
:103170001731A33031A83431AD3631B237000031C8
:103180009B431410851480802F431510800843152D
:10319000208003431580851590801D4316208516D9
:1031A000A08015431701800D431710800843174076
:1031B00080034317808517B090310A740CF0D10159
:1031C00070FC22D11C11FBEF6004D12B80F77F0132
:1031D000122FB4D25111017F06314511017F011226
:1031E0002F5F7F033145E4FF022FB47B017A2D79F5
:1031F000847D017F03121C147A2D798D7F08125C67
:10320000EA7A2D798A7F09B1FA7A2D79887F0BB114
:10321000FA902D88719E6006BEFF1BBFFF18902D8F
:103220008DE024FD6003047004D1128009902D8884
:10323000E4F0A37440F0902D8DE024FD6003047051
:1032400008902D857403F08006902D857402F0900F
:103250002D84E0122487327204327D1432851532B7
:103260008D1732A33032AB3432B33632BB37000065
:10327000329875FF015310EF8510FD804775FF01EF
:103280005311EF800E75FF015311DF800675FF01AA
:1032900053117F8511C9802C75FF015312DF8512F0
:1032A000CA802175FF015313FE801675FF01531369
:1032B000EF800E75FF015313BF800675FF01531396
:1032C0007F8513CB31487F11B128E4FFD14C1160C9
:1032D000902D827402F0902D86E0247F60090470A6
:1032E00016B12E740A8007122FC0B12E7458F090B8
:1032F0002D857403F0D112902D87E0F4600261995E
:10330000902D8AE0FEA3E0FF64104E7006902D879A
:10331000740EF0EF64204E7006902D87740FF0EF5E
:1033200064404E7006902D877410F0EF64804E70EC
:1033300006902D877411F0E4B5070AEEB4010690EB
:103340002D877412F0E4B5070AEEB40206902D87BB
:103350007413F0E4B5070AEEB40406902D877414D4
:10336000F0E4B5070AEEB40806902D877415F0E472
:10337000B5070AEEB41006902D877416F0E4B50771
:103380000AEEB42006902D877417F0E4B5070AEE14
:10339000B44006902D877418F021C3902F55E0FE9D
:1033A000A3E0FF4E22C0E0C0F0C083C082C0D07551
:1033B000D000C000C001C002C003C004C005C006E8
:1033C000C007903108E5FFF075FF02E5D430E60C48
:1033D00075D440719B6005B1F31224B175FF02E50D
:1033E000D430E50F75D420902F57719E6005B1F34E
:1033F0001224B175FF02E5D430E40D75D410902F7E
:1034000059719E6003125D6C75FF02E5D430E309CB
:1034100075D408719B6002D10975FF02E5D430E2D2
:103420000C75D404902F57719E6002D10975FF026C
:10343000E5D430E11B75D4021241ACEF6012902F3D
:1034400059719E6005125D53800612417A1241A4A3
:1034500075FF02E5D430E01375D401902F59719EA9
:1034600060098F828E837F071224B175FF02E5D534
:1034700030E41375D510902F59719E60098F828E9C
:10348000837F031224B175FF02E5D530E10D75D5B8
:1034900002902F59719E6003125BF975FF02E5D50A
:1034A00030E01375D501902F59719E60098F828E7F
:1034B000837F041224B175FF02E5D530E21375D580
:1034C00004902F59719E60098F828E837F0A122487
:1034D000B175FF02E5D530E71375D580902F59718E
:1034E0009E60098F828E837F081224B175FF02E5EA
:1034F000D530E61375D540902F59719E60098F82A3
:103500008E837F091224B1903108E0F5FFD007D0F7
:1035100006D005D004D003D002D001D000D0D0D046
:1035200082D083D0F0D0E032EF4420F5FE227F102D
:10353000B128902D8222902FC5122328D11C11FB77
:10354000EF6004D12B80F7122FFC7F03B18F600B4B
:10355000902FC51222CB7810122F5B902FC5122FFF
:1035600056902FC51222CBE411EB902FC9EFF01229
:103570002FAF902FC9E0FF227F01122FB4D251113B
:10358000017F06122F5F31481101902D82E0FF125A
:103590002F5F902D85E0640222902E4A12232890FE
:1035A0002E4E12237AD11C11FBEF6004D12B80F731
:1035B000122FFC7F03B18F600B902E4A1222CB7822
:1035C00010122F5B902E4A122F56902E4A1222CBA9
:1035D000E4122F5F902E51125BEF601011EE902ECF
:1035E0004E125BA5902E4F122D0F80E83148E4FF5C
:1035F000022FB48F828E837F01227B017D02021C09
:103600001490310AE014F0E0228F828E83E4FF02EE
:1036100024B1902D887401F0A3E4F02275FF02E537
:10362000E430E10675E40675E40322E53730E20F85
:10363000E53720E50AE53730E0057F0112295322FE
:10364000D11C11FBEF6004D12B80F72290310CEFDD
:10365000F0902D8DE064027025122FFC90310CE06B
:103660007FAB60027FB9122F5F314890310CE09040
:103670002D8CF070047F1EDFFEE4FF122FB422E0D9
:1036800075F005A4248BF9742435F0FEAF017B019D
:103690007A2C7991902F667405F0902F631257E081
:1036A000C007902F63122371902F66125C86D0079B
:1036B000A19931EB121BD3121C96121C28900736CD
:1036C000E064017002E1537FFF1219A890048C128C
:1036D000237A7E007F15F1ECBF540D7E007F16F13A
:1036E000ECBFA5047F0180027F00900734EFF064F7
:1036F00001703B90048C122371AE02F1C5FEA3E071
:1037000090048C125C6AE92407F9E43AFA90048F79
:1037100012237AE92408F9E43AFEF1C5640570043D
:10372000A3E0642260081219AD900734EFF090070F
:1037300034E0701F7E007F10C006C374999410FEA1
:103740007431125C60125D29D006125DE6E4FFFE62
:103750001219B2121AFC121A70121A16124FFC30F9
:103760005E05754C018039125B731219761248D5CB
:10377000FE4FFDA3E0FC4DFDA3E0FB4D600BEE5FB3
:10378000FFEC5FFFEB5FF47003124887E54C5403D6
:103790002439F582E43407F583E0654C90072FF077
:1037A000E4902E40F0902E3EF0A3F002180775FF33
:1037B000028FD675FF02AF058FD77F01EF6003D26E
:1037C000ED22C2ED22AF017B017A047992902F663F
:1037D0007402F0D19A900492E022F0E01313135493
:1037E0001F7E002419F9EE3429FEAF01E4FCFDA18F
:1037F00036E5C85404FF22F0902D7FE0FFF422E468
:1038000075FF02AFD4CDEFCD75FF02AFD5EFFCED64
:10381000CEECCEFF2275FF02EFF452D475FF02ED1D
:10382000F452D522902FF212237A902FF51240C62F
:10383000943F4003743FF075FF02E5CD30E105E4AD
:10384000F51E8003751E01E51E6038E5FD251F0489
:10385000543FFFE5DD543F6F6029902FF512407112
:103860005021902FF2122371851F8211ADAEFD12EF
:103870004135543F248EF582EC3406F583EFF00594
:103880001F80C4E51E6008E5FD251F543FF5FDAF10
:103890001F22903132EFF07B017A3179327D0111B4
:1038A000247F01221192221223711E8E82758300C1
:1038B000021F1E902FB53126E58F20E0FB312DE44D
:1038C000FF902FB51223718F8211ADF5930FEFB4D6
:1038D00010EFE4FF902FB81223718F8211ADF59491
:1038E0000FEFB410EF22902E9B3126E58F20E0FBE6
:1038F000312D7E10902E9E11A7F593EE70F67E105E
:10390000902E9B11A7F594EE70F67F01313D125B6E
:1039100051EF70FA7E10902EA11223711E8E82122A
:103920005B1FEE70F12212237A75FF012275FF01F1
:10393000538F0675FF01538FF075FF0122EFB4011D
:1039400008125B2E4401F58F2275FF01E58F54F0BC
:103950004406F58F22902C63122328902C671223A3
:103960007AE4902C8AF0D3902C6BE0941E902C6A11
:10397000E094004001227B017A2C796C902C6A1231
:103980005CA9902C631222CB123599902C671223DC
:1039900071E94A600B902C8AE0F58211ADFF80023C
:1039A0007F00902C8AE0246CF582E4342CF583E0CF
:1039B0006F6002C322902C8AE004FFF0D3902C6B3E
:1039C000E09F902C6AE0940050C122902DDA1223DF
:1039D00028902DDE12237A902DDE122371902DE196
:1039E0001257E7902DDA1222CB31555002417D1249
:1039F0005C43902DDA1222E7122249902DE3125DEA
:103A00004C6032902DE3710E125CB6902DE3F0A362
:103A1000EFF0902DE1E0FCA3E0FDD39FEC9E50067B
:103A2000A3ECF0A3EDF051C14A6004517F80417EC8
:103A3000007F00803B902DE112339E603E902D88E8
:103A4000E0FCA3E0FDD3EF9DEE9C400A902DE3EC5B
:103A5000F0A3EDF0800D902DE1E0FFA3E0A3CFF007
:103A6000A3EFF051C14A6004517F80047E007F00C3
:103A7000902DDFEE8FF012207180BAD322C32290F6
:103A80002DE3E0FEA3E0FF22903073E075F005A483
:103A9000248BF9742435F0FEAF017B017A2C798CEC
:103AA000902EFFE4F0A37405F0902EFC1257E0C0B6
:103AB00007902EFC122371902EFF125BE2D007219B
:103AC000CB902DDE122371902DE3E0FFA3E0902E2A
:103AD00048CFF0A3EFF0902DDA1222CB122EF19006
:103AE0002DE3E0FEA3E0FFC3902DE2E09FF0902DD8
:103AF000E1E09EF0902DDA1222E7E4FCFD12211F96
:103B0000902DDA122328902DDE122371E922E0FE97
:103B1000A3E0FFC322902D34122328E4F5FF75BBE8
:103B20000575BB8575FF0175D502204B077F3FFEEC
:103B3000F13DF1D575FF0143D520304B0261D6E44C
:103B4000F5FF538EF7438E077D04E4F5FF8DBCF53A
:103B5000FF43B102E5B130E2FBE4F5FFAFDFEFFE7A
:103B6000ACDEECFBEBFFED25E02432F582E4342DF6
:103B7000F583F107F5FFF5FF53B1FD0DEDB40CCA68
:103B8000902D34B178FF780912228BA3F107FDED57
:103B900025E0243CF582E4342DF583E0C313FAA339
:103BA000E013FBD1FA1257352BFFEE3AFED1FAEEB5
:103BB000F0A3EFF0ED240490120DF0EDC394075044
:103BC00015CFEDCF0DEFD1FB710E902D39E09F9009
:103BD0002D38E09E50B9E4F5FF758EC8F5FF9012C0
:103BE0000DE0F5BCE4F5FF75BB8075FF01F5D5224E
:103BF000902CD012232875FF0243E18012535AF112
:103C0000A6902CE5122334002DC6C0E4F5FFF5A4E0
:103C100090120EF0A3F0902CE07402F0F10EFFF57C
:103C200095EF14601814602624027036902CD0B1E1
:103C300078FF902CE1122328902CDC8020902CD44B
:103C4000B178FF902CE1122328902CDD800F902C6E
:103C5000D8B178FF902CE1122328902CDEE0902C34
:103C6000E9F0125589902CE9E0700FF5FFF5967593
:103C7000FF0175D70975F418805C90120EE004F00E
:103C8000902CE0E0125DF6902CE5B178FF902CE1ED
:103C9000125641C312227A500A902CE1B178FFA348
:103CA000122328902CE9E0FF12540A902CDFE0FF49
:103CB000A3E0FDA24E924C125537A3B178FF902F8E
:103CC000C1122328902CE0E0FF125596902CE0E0E2
:103CD000B16BFF12531EF1166002811C7402F0F1E9
:103CE0000EF595E5F454077019902CE5D1D07801C4
:103CF00012228B902CE012562E12563AB16AFF1205
:103D0000531EF11670D975FF03759580125DEE4054
:103D10000343F420A24E924D125469902CE5B178E1
:103D20002420FFEE344ED1F2E4FB7A04F9F8D1E01E
:103D3000780112228BC24B7115E4F5FFE5BD54F8F2
:103D40004404F5BD9012137401F07E127F01E4FD6E
:103D50008F828E83EF2DF582E43EF583E0FC901296
:103D600013E02CF00DEDB412E722EB25E025E02462
:103D700001F582E43412F583E0FCA3E0FDA3E0FE4C
:103D8000A3E022902DCF125401902DD512233400A0
:103D9000000001902DD97401F0F5FFE5D554C070F5
:103DA000051249C15002C322E4F5FF53967F75FF07
:103DB0000175D5047F3FFEF13D75FF0143D508E451
:103DC000F5FF5394FBF5FF53847FF5FF7598FF9043
:103DD0002DD3E5F4F075F49C75FF01A3E5E4F075CF
:103DE000E4257B017A2D79D91253CE902DD9E06448
:103DF000016002C1AEF5FF902DD27414F0902DD564
:103E0000B178FF780112229E902DD5122328E5A7C4
:103E100030E1FB43A702902DD5B178FFE5A730E054
:103E200005E47B018002E4FBFAF9F8EF4BFFEE4A70
:103E3000FEED49FDEC48FC902DD5122328902DD2A3
:103E4000E014F070B8902DD5B178FF781012228B65
:103E50007B6D7A4E79C6784112212CEF2439FFEE22
:103E60003430D1F2E4FBFA7901F81221B7EE547F35
:103E7000FEE4FDFC124C86902DD5B178FFEB6FFF70
:103E8000EA6EFEE8CDEFCDCCEECCECFF902DCFF17D
:103E900022EF121FA0902DCFF122900001ED121FF2
:103EA000B290120FE030E606E4F5FF75968075FFDC
:103EB00001E4F5D5902DD3E0F5F475FF01A3E0F50D
:103EC000E4125458902DD9E0B40103D38001C322E9
:103ED000FF7E04FDFCE0F8A3E0F9A3E0FAA3E0FB19
:103EE00012212CE47B7DFAF9F81221B7EF2401FFAF
:103EF000E43EFEE43DFDE43CFC22ED25E0243AF501
:103F000082E4342DF58322EEF0A3EFF0E42275FF76
:103F100003902CE0E022902CE0E0FF14F0EF2290E0
:103F20003017E0FBA3E0FAA3E0F9227FE87E03125A
:103F3000465F75FF03439180227F147E00F14AF1B2
:103F40003275FF03E59120E7FB2275FF03D3EF9461
:103F500002EE9400400874FE2FFF74FF3EFEEFF562
:103F600092EE540FF59122CDEFCDCCEECCF1C9AB52
:103F700094EF4B125DFECBEFCBFAE59130E719F1F0
:103F8000CCA994E9F582EF4582FFEB125DAFC3EF58
:103F90009582E5F0958340E2E59120E708CEECCEEE
:103FA000CFEDCFF13D22F1BF53DB7F75FF0175D51A
:103FB00002F139F1BF43DB8075FF01E4F5D52275CD
:103FC000FF01438E1075FF012275FF03AF93EF755C
:103FD000F010A4FF22E4F5FF75C2E17F1EF1F53079
:103FE000E707E4F5FF75C2A122E4F5FF75C281225F
:103FF0007404F041A9FEF16790120FE022902FF6B1
:1040000012237A902FF9EDF075FF02E4F51FEDD33E
:10401000941F4003741FF075FF02E5CD30E205E404
:10402000F51E8003751E01E51E6037E5C9251F04D6
:10403000541FFFE5DE541F6F6028902FF911715057
:1040400021902FF6122371851F821238ADAEC9312F
:1040500035541F24EEF582EC3406F583EFF0051F8E
:1040600080C5E51E6008E5C9251F541FF5C9AF1FAF
:1040700022E0FFE51FC39F22902FFA12237A902F90
:10408000FD11C6943F4003743FF075FF02E5CB2558
:104090001F543FFFE5DB543F6F601E902FFD1171F1
:1040A0005017ADCB311C543F244EF582EE3406F54B
:1040B00083E0902FFA312480D4E51F600625CB548D
:1040C0003FF5CBAF1F22EDF0E4F51FEDD322902F8B
:1040D000FE12237A90300111C6941F4003741FF022
:1040E00075FF02E5CC251F541FFFE5DC541F6F60F0
:1040F0001E90300111715017ADCC311C541F24CECD
:10410000F582EE3406F583E0902FFE312480D4E56D
:104110001F600625CC541FF5CCAF1F22ED251FFFD5
:104120007E00EF22FF122371851F82758300EF123C
:104130001FB2051F22FFE51FFDEE2DFD7C00ED22C5
:104140007B017A3179047D011178903104E0FF22FE
:1041500075FF02E5DB543FFFE5CB543F6F7F006006
:10416000027F012280EA75FF02E5DC541FFFE5CCE7
:10417000541F6F7F0060027F012275FF0153CCFD49
:1041800043FB40319A759E0143FB0975FF03859EF1
:104190009E75FF03859E9E7F012275FF0243D2011B
:1041A00075FF0322319AE4F59E7F012275FF02AF6D
:1041B000D3EF7F0030E6027F01229007407402F0C7
:1041C000900734E0FF121DC29007407405F022757D
:1041D000FF0275E404E4F5E41218A212516A900794
:1041E00036EFF0901200E0B47A14901214E0B49C10
:1041F0000D900736E0FF64056004EFB4032EE490F1
:10420000073FF090073FE0FFC394805013E42FF581
:1042100082E43412F583E4F090073FE004F080E399
:10422000901200747AF0901214749CF0121C1E40CC
:1042300003121C197B017A1279107D017F01121C77
:10424000147B017A1279117D017F21121C147B01EC
:104250007A1279127D017F22121C147A1279177F4B
:1042600002125CEA901217E0B401057F0112574771
:10427000121BB512516A121BB0900736EFF0121CD8
:10428000A0121BA6900736E0FF121DBDEF24FFB35E
:10429000925E75FF0253E6BF124919121BBF123618
:1042A000B2205E0B31BA7B017A29799F121A84D22F
:1042B000AF205E02613C121C231219B7121DB81206
:1042C0001C0F40F2900735E06042121BE2EF7005D0
:1042D000125C254037E53670FCE53720E50291F9A0
:1042E000121971EF70FA12504850051250345005EF
:1042F0007F0112364C900735E0B40204E4FF8009D8
:10430000900735E0B403057F01125227121BDDE54B
:104310003730E1A2B12F4002E4F0E53720E5049107
:104320000B9129125BACAF82AE83EFC0E091199084
:104330000738E0FDD0E0FF121C9141B61248F6901C
:104340000735E06048201703200642121BE2EF7099
:1043500005125C254037E53670FCE53720E5029113
:10436000F9121971EF70FA1250485005125034507A
:10437000057F0112364C900735E0B40204E4FF805B
:1043800009900735E0B403057F01125227900735E5
:10439000E0600C201709300606200103121A57129C
:1043A0001C231219B7125073121DB3202C05121BB7
:1043B000DD80221219CB90072EE0FEEFC39E400550
:1043C000EF9EFF800890072EE0F4042FFF7401D3C6
:1043D0009F5002C22CE53730E126B12F4002E4F0B5
:1043E000E53720E504910B9129125BACAF82AE83D7
:1043F000EFC0E09119900738E0FDD0E0FF121C916A
:10440000121B8D125023124907613C900737E0FDC3
:1044100075F0AA900743122365ED75F002A42430CD
:10442000F9740735F0FA7B0122AF82AE837D0190EB
:1044300004AA125A87E53670791249B95004C2505D
:1044400091B39004AAE0FEA3E08E31F532A31223CB
:104450007190041B12237AAE31AF327DAA12583903
:10446000E4F5FF75D908F530E5375421602BE537C1
:1044700030E504E4FFD194E49004AFF09004AFE0A1
:1044800004F012524CEF60099004AFE0C394104066
:10449000EB7F02121DD65337DEF1E1F1D75005E074
:1044A00004FF80027F00F19BD25091B3D2EBA23681
:1044B00092ED22903109E5F4F0E0547FF5F47F822B
:1044C0007E00D15F123F32B1445005E5FC20E6F793
:1044D000305008903109E04480F5F4123F2BB1448C
:1044E0005005E5FC20E6F775FF01E5D520E702C39E
:1044F00022E5F4D330E601C322E53670271249B92C
:104500005004C25091B312535A7F08121DD6F1AE17
:10451000E5D120E0FB4337205337FEE4F530A236E7
:1045200092EDD322C322C2AFEFF45237D2AF227F33
:1045300002B126900737E090073FF090073704F06C
:10454000C394022275FF03E591C330E701D32290A3
:104550002EF3125740EBF0902EF97401F0C24F1277
:104560003F2BB1445005E5FC20E6F7D1D4BF01084C
:10457000E4F5FC75FC408007D1D4BF0202D322755C
:10458000FF0153D8EF902EF4E0FF12564D75FF0156
:1045900053D5DF53FAFB902EF3E0FFD194902EF425
:1045A000E0902EF3B4080BE0123D6B2452123EEF64
:1045B0008005E0123D6BFF12531E902EF5E0FFF1D7
:1045C000F175FF0175FF03759B04123F2B75FC42CB
:1045D000E5FC20E104B14440F4902EF6E0F075FFD4
:1045E00003E59B20E704B14440F4E59B20E70D750B
:1045F000FF03759B1F12535AD24F804FD18D125318
:10460000CE902EF4E0FD90120FE05D701D902EF321
:10461000E0FFD18D124AA390120FE0FF902EF4E03C
:10462000FEEF4E90120FF0123D44123FD57B017AFF
:104630002E79F7F1BA500FC3902EF8E09420902E07
:10464000F7E0940340E7D18D125376123F41304F8B
:1046500002A157902EF9E0B40103D38001C3229048
:104660003006125DA77A307908F1BA5014903008FC
:10467000E0FEA3E0FF903007E09F903006E09E4010
:104680000B903006E0FEA3E0FF123F4A227B017A46
:104690002E79F92275FF01E5D530E602C322E4F553
:1046A000FF439A80EF125DF6E4F5FF539A7FD32221
:1046B000F1AAE5D120E0FBE4F5FF75D908F1E1F1BD
:1046C000D75005E004FF80027F00F19BD25091B3E8
:1046D000E4F530227FFA7E00123F4A123F32E5FCB9
:1046E00030E604B14440F7E5FC30E6037F03227571
:1046F000FF01E5D530E6037F0222E5D57F0030E7F4
:10470000027F0122E0FF7B01903016EFF0A31254EC
:104710000175FF01F1D16002C322E5F430E602C366
:10472000227FE87E03123F4A123F32F18540012288
:10473000C25091B3903016E0FFD19453F4DFD250C1
:1047400091B37F787E00123F6775FF0153E4BFE5A8
:10475000E430E7FB1251237F8A123FF530E6061260
:104760003F1FE4800875FF01123F1FE5D9121FA00B
:1047700075FF0143E440125DEE400343F420F185F0
:10478000400122D322E5F730E50FE5F754C070046D
:10479000B14440F1125245C322D322D19443FA04CA
:1047A000E4F5FF53D1FD43D10122C25091B3E4F5AA
:1047B000FFE5D154FE4402F5D122123FC9AD94EF7A
:1047C0004D125DFE8FF0122100E591C330E701D359
:1047D00022D1D4EF640122C3EF9403EE648094806D
:1047E00022901215E02401FFE433FE22E4F5368125
:1047F000F975FF018FDA2275FF0275E40475E40193
:1048000075E4022275FF0275E404E4F5E422A24493
:10481000922B2290051EEDF090051DEFF0BF0411C4
:10482000A3E0FB7D017F01114F90051D7403F08013
:104830000B90051EE0FB7D01E4FF114F90051DE08C
:10484000900735F0D2061219CB900741022921EBCF
:10485000600875FF0153CDFD800675FF0143CD0251
:10486000ED600553FBDF800343FB20EF600775FF1E
:104870000243E1402275FF0253E1BF2275FF028F20
:10488000E322A245922E22E4FF122953EF60361153
:10489000C6123D83500411CD40F57B017A07793B68
:1048A000123D83500E11D55FFFA3E05FFFA3E05FD1
:1048B000F460E7754C017E007F0811C6902EFFE47E
:1048C000F0A3123FF0227B017A0779392290073951
:1048D000E0C394C022900739E0FFA3E02290072FA5
:1048E000E064AA2411FFF022AE0711DDEE04FEEF12
:1048F0008EF084AFF022302D0D121A39EF6007C20E
:1049000058121A2AC22D2290073D12339E6009CAFE
:10491000EECAC9EFC91224AD2275FF02D2ADD2BDD5
:1049200075FF02758E71754D0975FF02E58E546F26
:104930004480F58E9030021223340000000022C023
:10494000E0C0F0C083C082C0D075D008C0FF75FF42
:1049500002E58E30E43A75FF02E58E54EF4410F51F
:104960008E9030021222CB123EEC9030021223289D
:10497000900000122D0FE54D30E0020519E54D7055
:104980000D754D090549E549700205488002154D30
:1049900075FF02E58530E40875FF02438510055177
:1049A000D0FFD0D0D082D083D0F0D0E03231C1500F
:1049B0000631C950028001C322C2EBA2ED9236C279
:1049C000EDE5F4C330E701D322E5F754E024FF22FC
:1049D000AF36EFC36001D322EFC3940E50059004AD
:1049E0001AEFF022E539540FFF22E539C394F05055
:1049F0001F5339F05113FE740FC39F4005EE940E00
:104A0000400543390D8003EF4239E539540FFF2249
:104A10007F0022E539C4540FFEEF902827932E2201
:104A20005113FFC3940E40027F0DEF90280993FFAE
:104A300022EF30E30774332DF8E6FF22743D2DF8A2
:104A4000E6FD203704EE30E00BE539C394F050204A
:104A500051738018E53B6006FDE4F53B8012E539B3
:104A6000C394F0500BE539540FFF60045120AD079B
:104A7000AF052290041AE0FDFFC3740E519CEFC4F1
:104A8000F8540FC868FFEEC454F048FEE53954F0FE
:104A9000C39FEE917F7F005002AF05229FFFE494F9
:104AA00000FE22903012EDF0901211E0F46005A3A8
:104AB000E0B4FF0C9030147418F0A37413F080105D
:104AC000901211E0903014F0901212E0903015F036
:104AD000121EE164016002810C903012E0FE640855
:104AE0006004EEB404089030137428F0800690300F
:104AF00013743AF0EF123D6BFF122256E4910DEF62
:104B000024D8FFEE343FFEED3493FDEC3416FC7BED
:104B1000007A807903780012185E9186903015E053
:104B2000FF903014E0C3519CE4FCFD12212CECC03A
:104B3000E0EDC0E0EEC0E0EFC0E0903015E0FFE453
:104B4000FCFDFE910DD0E0FBD0E0FAD0E0F9D0E022
:104B5000F8EB2FFBEA3EFAE93DF9E83CF890301318
:104B6000E0FFE4FCFDFE12212CEF2454FFEE340B99
:104B7000123EF2E47BA87A16F9F812185ECBEFCB5E
:104B8000903012E014605D14601B24FE600C24FC65
:104B9000707AE4F5FF75CE318006E4F5FF75CE211D
:104BA000F5FF8BCF22E4FAE4F5FFEA2440F5CEE4EA
:104BB000F5FFEAFFC37407519C744E2FF5827418F9
:104BC0003EF583E49115C39DF5CFE4F5FFEA244853
:104BD000F5CEE4F5FFEA90184E91152DF5CF0AEACF
:104BE000B408C422E4F5FF75CE01F5FF8BCFF5FFC5
:104BF00075CE0EF5FFEB25E0F5CFE4F5FF75CE0F92
:104C0000F5FFCFEBCFEB75F003A4F5CF227B64FA71
:104C1000F9F802212C9325E0FDE433FCEB75F0104C
:104C2000A4FFAEF0121FE6CDEFCDEBFFE4C313EF10
:104C300013224337015337DF90050AE0FD513190CD
:104C4000050AE0FD91934004E4F5362243FA04534B
:104C500037FB3046051247A0800A7F5591667F5585
:104C60009166D2EBD32275FF01E5D520E602C3227F
:104C7000E5FA540360FA75FF018FC3D3229DEC64FB
:104C800080F874809822C8ECC8C9EDC9CAEECACBB6
:104C9000EFCB22900897EDF0A3EFF07F01121DD625
:104CA000900897E0FFA3E0FBE4902EF6F07D02125F
:104CB000454F50ECD322900740E06402701F8F3DB7
:104CC000AF058F3EAF038F3F9004A7E0F533A3E01D
:104CD000F534A3E0F535AF3D121BBAD322C32290C1
:104CE00004FC12237A9004FC122371E53DB113B148
:104CF0001AE53EB113B125FAE53FB113122371B1A4
:104D00002FE533B113122CDDE534B113B137E5359E
:104D1000021FA0121FA09004FC22122371E924019B
:104D2000F9E43AFA22122371E92402F9E43A22E979
:104D30002403F9E43AFA22122371E92405F9E43A4A
:104D4000FA22E53954F0C4540F2FFFC394104002E7
:104D50007F0FEF90281793FF227E10EE60091EEE62
:104D600090281793B507F4EEC3940E40027E0DEE23
:104D700090280993FF22C2AFEF4237D2AF22EF242F
:104D8000FE600C24FE600580007F01227F02227FEE
:104D90000322753601753C0790042CEFF09004193E
:104DA0007403F0C374799B90043CF0E49400900485
:104DB0003BF022E53720E5081247AAE5D120E0FBC9
:104DC000E4F5302290043BE0A3E0FF229004E512DA
:104DD000237A9004E8EDF0E4A3F0ED54FE9004E8AB
:104DE000F06030E4FF122953BF01289004E512233C
:104DF00071123D83501D9004E6E475F0021220719B
:104E00009004E9E02402F09004E9E0FF9004E8E077
:104E10006F70D87F011229539004E9E0FF227D02D0
:104E2000B1CCEFC36001D322900899EFF0A3EBF06F
:104E3000900899E0D1B5E0FEB402037F0022EE7045
:104E40001C900899E0FFD1B57401F090042AE0FCB1
:104E5000A3E0FDEFD1BFECF0A3EDF0802AED241B21
:104E6000FFE433FEE4FCFD7B0CFAF9F812185EEF68
:104E70002405FF900899E0D1BFE0FCA3E0C39FECBC
:104E8000940050037F0022902B55E0B4FF1590084A
:104E90009AE0540FFFBF0103E4800490043AE090CD
:104EA0002B55F0902B55E060037F0222902B557418
:104EB000FFF07F012224A4F582E4342AF583222521
:104EC000E0244FF582E4342BF5832290050BEFF0BC
:104ED000ED24FE60191460262402703BEB2402FFCF
:104EE000E43AFE7C007D50121FD47D60801EF13BB1
:104EF000C333CE33CED8F9FF7C007D28800EF13B42
:104F0000C333CE33CED8F9FF7C007D64121FE69008
:104F1000050CEEF0A3EFF090050BE0F14CC083C060
:104F2000821222E790050DE02401FF90050CE03489
:104F300000FEF146D082D083022328EB2401FFE457
:104F40003AFEEF780322E4FCFD02211F25E025E074
:104F5000242EF582E43404F58322EFF14C1222CBA7
:104F60000222B1E4FFFEFDFC90042EF178900432A1
:104F7000F178900436022328122328E4FFFEFDFC7A
:104F800022900739E0F4FFA3E06FFFA3E06FFFA3D7
:104F9000E06FFF6455601DEF64056018EF642560E5
:104FA00013EF6445600EEF64656009EF644A6004C6
:104FB000EFB40A010F900418EFF022A2EB9248C25E
:104FC000EB7A04791E7B017D0CE4FF12196CA24878
:104FD00092EB22A2EB9249C2EBEBC0E0EAC0E0E91F
:104FE000C0E07A04791E125113D0E0F9D0E0FAD073
:104FF000E0FB7F0C121999A24992EB22E4902F60FA
:10500000F0FBFAF9902F5C02237A121C4B902F5F71
:10501000E014F06005A374058005902F607407F01C
:10502000022B97902F60E0FF64066004EFB4010349
:10503000122B97227F017E009017FCE4935EFE7492
:1050400001935F4E24FFB322900001740193B400DA
:1050500007E493B41802C322D322C003C002C001E4
:105060007B017A2E793B3115D001D002D0037F032A
:105070000219991247D1706E312D9030CCEFF0D3D8
:1050800094035062902E40E0FF9030CCE06F705659
:1050900011E79030CDEFF07B017A3079CD7D0112B0
:1050A0001C8C9030CCE0243BF582E4342EF583EF69
:1050B000F0902E401247E47C007D03121FE6AF05FE
:1050C000EFF07022902E3EE07002A3E060187B01AA
:1050D0007A2E7938115A7B017A2E7938902E3E310A
:1050E0001B8E831224B122E4FFE5F754C0600280D6
:1050F0001675FF01E5D530E30D310C50F43107EFA3
:1051000060EF310C50EB223123AFD92275FF01E55E
:10511000E433227B01902F1302237AE0FEA3E0FF09
:10512000F5822275FF01E4F5EA75EAFF22E5F45401
:1051300018131313541FFF22902E3EEEF0A3EFF02E
:1051400022EF7011ED600775FF0143AE012275FF7C
:105150000153AEFE22EFB40110ED600775FF01436D
:10516000AE022275FF0153AEFD2275FF02E5E63067
:10517000E2037F0322E5E630E3037F0022E5E63029
:10518000E1037F0422E5E67F0530E0027F0122EFA4
:10519000600775FF0253E6BF2275FF0243E6402217
:1051A000EF14600F146014240270188B8075FF01D7
:1051B0008DFD228B9075FF018DC9228BA075FF019B
:1051C0008DCA22AF038FB075FF01AF058FCB229040
:1051D0002EED12237AEF1460111460182402701E51
:1051E0005109E580510FE5FD801C5109E590510FF3
:1051F000E5C980125109E5A0510FE5CA800851099F
:10520000E5B0510FE5CB021FA0902EF002237112E2
:105210001FA075FF01902EED022371E4F5FFAF9101
:1052200022E4F5FFAF922243FB1075FF0243E640F4
:10523000EF600D75FF02E5E120E7FB43FB0D800306
:1052400043FB0E80FE75FF03E4F59122E490300EDF
:10525000F0A304F0E4903011F0E5FA30E1FB75FFC3
:1052600001E5D530E7037F0022E4F5FF75E5087519
:10527000FF0153D8EFE5D530E61A75FF01903010E5
:10528000E5DAF0E4F5DA75FF01E5D630E3FB9030BE
:10529000117401F075FF03759B0475FC4175FF03E4
:1052A000E59B30E7FBE4FB75FF038B95123D6AFF3E
:1052B000711E0BEBB403F075FF03759580E4F5FFE9
:1052C000758EC8123FD575FF0153D5FB5145123F6E
:1052D0003975FF0143D504903011E0700751457FC7
:1052E000C8123F3B7B017A30790F717690300FE026
:1052F00090300E7006E04404FF8002E0FF90300E14
:10530000EFF090120EE0B4010675FF0143D810755E
:10531000FF01903010E0F5DA90300EE0FF2290307F
:105320000A12232875FF0190300AA3E0FDA3A3E42D
:10533000FFFEE4FC781012228B8FE190300AA3A3C9
:10534000E0FEA3E4FFE4FDFC780812228B8FE290DC
:10535000300AA3A3A3E0FF8FE322E5FA30E1FB7557
:10536000FC8075FF0153D5EFE4F5FC75FC40514519
:10537000E5FC20E6FB22C24A75FF03759B1F75FF03
:105380000390120FE020E71BE59A540FC3940240EC
:1053900012E04480F0E4F5FF75C2A143FC0475FF00
:1053A00003D24AE5FC30E609E59A540FC394054060
:1053B000CDE5FC30E611E4121FA075FC80F5FC750C
:1053C000FC40E5FC20E6FB304A03123D44229030CD
:1053D0006A91017F017C127D01E4FE8D828C83ED58
:1053E0002EF582E43CF583E02FFF0EEEB412EC9034
:1053F0001213E06F600A90306A123F22E4121FA07D
:1054000022EBF0A3EAF0A3E9F022EF30E00E43F440
:1054100001E4F5FF43A404F5FF759624EF30E10E97
:1054200043F401E4F5FF43A408F5FF759624EF303B
:10543000E20943F402E4F5FF75961EEF30E30943F9
:10544000F404E4F5FF75961075FF01EF5403600452
:1054500075D7122275D72D22E4F5FF7584E6F5FF86
:10546000439404F5FF75981422E4F5FF75933F7596
:10547000FF03759A409158E4F5FF759C93F5FF750D
:10548000A1A3F5FF758531F5FF758628E5FA54303F
:105490004480F5FA75FF0175E74A75FF0275DF492B
:1054A00075FF0143D30475FF0153D367E4F5FF5340
:1054B000E6BF75FF0175D825F5FF75B503F5FF75D6
:1054C000B215F5FF75BA02F5FF75AFB3F5FF75CDEF
:1054D0000AF5FF75CB08F5FF75CA12F5FF75BF0E0B
:1054E000F5FF75CC96F5FFF5BDF5FF75C281F5FFAB
:1054F00075AEE1F5FF75DA55F5FF75F580F5FF75C9
:10550000E903F5FF75E933F5FF75972A75FF017516
:105510009B42759CA4759D29759E48759F2475A115
:105520001275A312759AF8204D0CF5FF43968090E2
:10553000120FE04440F022CCEFCCCFEDCF74017ECF
:1055400000C8EFC8088005C333CE33CED8F9FFCDED
:10555000ECCDEF5D601B304C1875FF0175DCAD754F
:10556000FF0175DDCDE4F5FF759A74F5FF75948440
:105570002275FF0175DC5375FF0175DD33E4F5FF1E
:10558000759A14F5FF7594042275FF0175E465752D
:10559000FF0175D64722902FC0EFF0E4A3123ED052
:1055A000780112228B902FC0D12ED13A901210E0A8
:1055B00064806079E0C3947F503DEBD1303412F5C4
:1055C00083C083C082123D78FFEEC0E0EFC0E09060
:1055D0001210E075F004A4AEF0FBCAEECAEA3395EF
:1055E000E0F9F8D0E0FFD0E0FEC3EF9BFFEE9AFEBB
:1055F000ED99FDEC98802E902FC0E0D1303412F55B
:1056000083C083C082D141901210E0F40475F0048D
:10561000A4FFAEF0EE3395E0FDFCEB2FFFEA3EFE7B
:10562000E93DFDE83CFCD082D08312232822E0FB38
:1056300025E025E02401F582E4223412F5830223DB
:1056400028E0F8A3E0F9A3E0FAA3E0FB2275FF014C
:10565000E5D530E602C32253FACFEFB4080543FA8A
:10566000308012EFB4040543FA208009EFB402053C
:1056700043FA108000D322E5F75406FFBF06037FEC
:105680000822E5F75406FFBF04037F0422E5F75420
:1056900006FFBF02037F02227F0122E5F754C024E8
:1056A000FF2290301AF13DEBF0F11EAC00AD01AEDF
:1056B00002AF03C006C00790301AF135FBAA06E41A
:1056C000F9F8D007D006D31222647E0050047F017F
:1056D00080027F00C006C007F11ED0E02FFFD0E09F
:1056E0003E90301AF0A3EFF053ECFC90301AE0FC3F
:1056F000A3E0FDEC540342EC75FF02EDF5AF75ED50
:105700000275ED04A3E0600543EC08800353ECF759
:1057100090301DE0600443EC042253ECFB229030F7
:105720001AE0FEA3E0FBAA06E4F9F87F807E387D4C
:1057300001FC02185EE0C313FEA3E01322EEF0A307
:10574000EFF0A3EDF0A322EF600775FF0243E61030
:105750002275FF0253E6EF2275ED042275ED022259
:10576000E5ED30E2FB75ED04AFEF22AFEF228FEFF6
:1057700022E5ED20E0FB8FEF22EF600443EC0422F2
:1057800053ECFB22EF600443EC082253ECF722E5D4
:10579000ED5402FF22E5ED5404FF22E5ED5401FF34
:1057A00022902D81E0121FA0902D86E09000011222
:1057B0001FB2902D87E0900002021FB2AB05E4FCFF
:1057C000FD902FCEEBF0022F67902F03F1E0C00782
:1057D000902F03122371902F06F1E7D0070239555D
:1057E00012237AE4FCFD22E0FFA3E0902C6ACFF0C4
:1057F000A3EFF022E4FF022FB4902D83E0FF22E418
:10580000902D83F022E4F5FF75D102E5D120E0FB75
:10581000E4F5FFF5D1EF6008E4F5FF43D2808006A0
:10582000E4F5FF53D27FEB6006E4F5FF43D104EDCE
:105830006006E4F5FF43D10822E4F5FF75D102E5E7
:10584000D120E0FBE4F5D1F5FFEF115AEE540F4201
:10585000D6E4F5FFCFEDCF8FD422F5D7E4F5FF5393
:10586000D6F022E4F5FFE9115AEA540F42D622E4B9
:10587000F5FFEFF5D8E4F5FF53D60FEE540FC4F85B
:1058800054F0C8E4C4540F4842D622E4F5FF8FD444
:10589000F5FFCFEDCF8FD522E4F5FF8FD422E4F5CD
:1058A000FFE5D1540133333354F8FFE4F5FFE5D37A
:1058B00054074FFF22EFB40109D2AD75FF0143AE8B
:1058C0004022C2AD75FF0153AEBF2275C80122E56B
:1058D000C85402FF75C80222E5C85401FF22EF60D8
:1058E00004902E97F09003FBE0FF9003EA122371DF
:1058F0001219E99003FBEFF06052201C4F902E9597
:10590000E0C330E501D39220902E981223713168C4
:10591000902E96E0900460F0902E94E0900461F058
:10592000A37458F0A374DEF09003FBE0FBAD4CE4ED
:10593000FF121C69EF7029902E977402F0902E923E
:10594000E0FEA3E0F5828E837F028011902E97E027
:10595000FF902E92E0FCA3E0FDF5828C831224B12F
:1059600022F07B017A29799F90045D02237A902DA1
:105970008E518A902D997403F0902D96E05437F053
:10598000E0FE5420902E95F0902D97E0FDA3E0903E
:105990002E92CDF0A3EDF05178902E9812237A90AC
:1059A0002D95E0902E96F0902D8F1223719003EAA2
:1059B00012237AEE4420902E94F0E4902E97F0C2B9
:1059C0001CF552902D8F122371AF521219E98F528C
:1059D000EF601E7D03121B7440E9AF52121B6F5023
:1059E00008902D997401F08008902D997402F08030
:1059F000D2902D95E0D3948140037F00227F021244
:105A00001BD8902D9A12237AEA494B605A902D8E1A
:105A1000E0FF902D9A122371E924B6122CF5902DF7
:105A200096E0FE30E01BE49003FBF0517EEE640153
:105A3000A3F0A37458F074DE516A902D99E0FF80B2
:105A40001E902D99E0FF517E902D96E090047AF003
:105A5000902E92E0FDA3E090047BCDF0ED516A7DA5
:105A600002121C5F7F01227F0022A3F0902D9A1268
:105A7000237190047D12237A902D92022371902D30
:105A800095E0900479F022EEF0A3EFF0A302237AE0
:105A9000C003C002C001902E31122371902D9212CA
:105AA000237A902E34E0902D95F0902E35E0902DB5
:105AB00096F0902E36E0FFA3E0902D97CFF0A3EF65
:105AC000F0D001D002D003AF4C216E021A02E4FFE5
:105AD000302B037402FF22200005D212021AC0C329
:105AE00022903133E0701C7BFF7A2779567D231298
:105AF0001BFB7BFF7A27793F7D17121BFB9031330D
:105B00007401F022021C009030C7123926E4FF9085
:105B100030C71223718F82711F0FEFB410F12275FD
:105B20008300E593021FB2712E4408F58F2275FFA2
:105B300001E58F54F62275FF01E58F5408FF22EF2F
:105B4000B4010775FF0143AE202275FF0153AEDF9C
:105B50002275FF01E58F5401FF22EFB4010775FFA5
:105B6000014391202275FF015391DF22902D2BE0FC
:105B7000540F227B007A00794C902F6A12237A0B03
:105B80007A07793922A3F090299F7401F0A322F9B2
:105B9000E43AFAEE8FF0022100FDEF4DFFE5F08FC1
:105BA000F0022100FF122371EF021FA090073FE0D7
:105BB000FD75F0AA900743022365F0E4A3F0A3F07B
:105BC000A3F022122371EA494B22A3F0E4A3F0A32D
:105BD000F02212237102238F74FFF5F01220714519
:105BE000F022E0FFA3E0902DE1CFF0A3EFF02274CC
:105BF000FFF5F012208745F0228F828E837F060208
:105C000024B1EEF0A3EFF0A3ECF0A3EDF0A3221289
:105C10002371E92402227B007A00790002237AE0D2
:105C2000FFA3022371900741E0FEA3E0FF1219D009
:105C3000D3EF94C8EE9400227B01902F29F0A37437
:105C4000FFF022902D89E024FFFF902D88E034FFA3
