:020000040000FA
:100000000218000218030907090C2202180B0AC97A
:020010000AD311
:070013000218130A923A974C
:0F001B0002181B7F0222D322021823E4FF81DF89
:07002B0002182B12143C2205
:0E003300021833A243922A2202183B021756EB
:060043000218438FEF22BA
:0E004B0002184BA244922D2202185302308B51
:07005B0002185B75ED0422A1
:0700630002186375ED022293
:06006B0002186BAFEF224A
:100073000218734103BD00C12AC12D4103BC00E036
:10008300020200003199E0020200022949E0040261
:10009300000446524545E00102001554E001020008
:1000A30016A5E00102200528E001022918FFE0055A
:1000B300022946294902043D410554060114004121
:1000C30005530141055101C13601190001170041D2
:1000D3002D960041298300412924055D2CC500008C
:1000E300000000000000000000000000000000000D
:1000F3000000000000000000000000C13C4329F99B
:10010300000000412A0A00C10EC131013800C12E8E
:10011300C12F4130BA00C15D432D33000000412D92
:100123003200412D3600C132C134C13D412D5A0048
:10013300015500C123412D4C00412D590060282752
:10014300450522000000030008FE877F88CF7FC09B
:100153004FFBD7FDE0670000800C8082000000E8C1
:100163007300800F0000600000412164004121768C
:100173000041216700412161004121690141216260
:100183000141244400C141C142412A6C96412A687D
:100193000FE00202294B0033E00502297900330402
:1001A3000522E00202297E0807E0050231800807E4
:1001B300050522412E7AFF412E73FF412E76004121
:1001C3002E7900C15EE0020231850013E00C02319A
:1001D3008700000308000300080522043DE0050230
:1001E30031930013FF0522E00202319800000075ED
:1001F300819075FF03759E021208200220140203EA
:100203000F900076E47E019360F4A3FF543F30E542
:1002130009541FFEE493A360010ECF54E0B4E00E33
:10022300EFFAEEF9A3A3A3A3DAFDD9FB80D654C05A
:1002330025E0604B5026E493A3F85407240CC8C36D
:1002430033C4540F4420C8834004F456800146F657
:10025300DFE480B00102040810204080E493A3FA95
:10026300E493A3F8E493A3C8C582C8CAC583CAF0BC
:10027300A3C8C582C8CAC583CADFE9DEE78085E4AF
:1002830093A3F8E493A34003F68001F208DFF4029A
:100293000207C2D5E830E70FB2D5E4C39BFBE49A6B
:1002A300FAE499F9E498F8EC30E717B2D51202CBE7
:1002B300121043E4C39BFBE49AFAE499F9E498F837
:1002C300800312104330D50DE4C39FFFE49EFEE488
:1002D3009DFDE49CFC227890E4F6D8FD9000007F1D
:1002E300007E10E4F0A3DFFCDEFA9030C4A3E583C4
:1002F300C394204011FEAF829020000E0FE48002D1
:10030300F0A3DFFCDEFA1208200202042232EF908F
:10031300031A93900800730A20364CE556FF22EF28
:10032300F556220BF50BFA0BFF0C040C090C0E0C03
:10033300130C180C1D0C220C270C2C0C310C360C36
:100343003B0C400C450C4A0C4F0C540C590C5E00F2
:1003530000000000003F241E16110E0B09070504C0
:10036300030201F0C8A7917767604638353230241D
:1003730022201400010102020303040405050606FA
:10038300070709430948094D095209570966096BCB
:10039300097A098409D409D909DE09ED09F70A0B99
:1003A3000A100A150A290A2E0A650A6A0A6F000E3C
:1003B30008F8000E0F3800000000020C00003F3F59
:1003C3003F040404404040000000000B780B820B04
:1003D300870B8C0B910B960BA00BAA0BAF0BCD0BC2
:1003E300D25A2D5761766520342E363100822D1C6A
:1003F30016131110100B190B460B4B0C8B0C900C96
:1004030095E4FD7C0CAB050DEB9003E4938F828E9A
:1004130083F00FBF00010EDCEC011E8F828E83E49C
:10042300F0A374049131743D9131A3E4F022F08F71
:10043300828E83A3A3229003C87402F09003BCE0CE
:10044300FF120C729003C87405F022E4902ECCF0D6
:10045300902ECAF0A3F0010A75FF0275E40475E457
:100463000175E40222FEAF01E4FCFD902F87121117
:10047300B4B1FFD1A5EF600512142780F6F1337FE5
:1004830003F1D4600A902F87121157781091B0901E
:100493002F8791AB902F87121157E4D197902F8B11
:1004A30091D8902F8BE0FF22121157780812111761
:1004B300E4E5C820E2FB8FEB22902D89E020E014D5
:1004C300F1337F3D91B47F2A91B47F8091B47FA6AD
:1004D30091B491DA22EFF01213ABE4FFEFB401040D
:1004E30043FE202253FEDF2275FF0275E404E4F588
:0A04F300E4229030A1E014F0E022B2
:10050800122374120AD8120B69120B149003BEE05E
:1005180064017002A1B37FFF1208A89005C51212EA
:10052800067E007F15916BBF540D7E007F16916B80
:10053800BFA5047F0180027F009003BCEFF0640137
:10054800703D9005C51211FDAE02123E43FEA3E0B8
:100558009005C5123E8DE92407F9E43AFA9005C8DA
:10056800121206E92408F9E43AFE123E43640570C3
:1005780004A3E0642260081208AD9003BCEFF09079
:1005880003BCE070267E007F10C006C374999410E7
:10059800FE7431123E647B007A007900D006121690
:1005A8004274FFFDFCE4FFFE1208B2120A011209B0
:1005B80075120916305D05754F018039123DE41238
:1005C8000876123FC4FE4FFDA3E0FC4DFDA3E0FBFF
:1005D8004D600BEE5FFFEC5FFFEB5FF470031218EA
:1005E8004EE54F540324C1F582E43403F583E065F6
:1005F8004F9003B7F0814E75FF02E5E430E10675D0
:10060800E40675E403227F0191DF9030A27401F0C3
:100618009030A2E06039F1377F05D1979030A2EF92
:10062800F01213ABD193902D89EFF0D199902D8AC8
:10063800EFF01213AB9030A2E05401F1DD60D1A3CA
:10064800E0F460CCEF30E7C8E49030A2F080C1F16C
:10065800377F9FD197902D8BEFF0D199902D90EF08
:10066800F0D199902D9191D8902D89E0F4601BA339
:10067800E0F46016902D90E0FD541F240FA3F0EDD8
:10068800C41354074480902D90F022F1377FD791FE
:10069800B47FFF91B4E5C820E2FBAFEB227F019164
:1006A800DF305017F1377F05D1979030A4EFF01263
:1006B80013AB9030A4E020E002C25030501FD19319
:1006C800902D89EFF0D199902D8AEFF1DD600BA381
:1006D800E0F46006EF30E702C2501213ABE4FF917A
:1006E800DFA250E433FF22902F8C1211B4F1E59170
:1006F8006E902F90E06F6031B1FFD1A5EF600512C9
:10070800142780F6F1BE6006F1E5781091B0902FBD
:100718008C91ABF1E5E491B4902F90E0FF91B49106
:10072800DA902D8D7401F0D322C3227F0191DF90DE
:100738002D8EE0121313075A040762140767150772
:100748006C17077C30078134078636078B37000023
:1007580007745334EF853480802F5335EF80085366
:1007680035DF800353357F853590801D5336DF850F
:1007780036A080155337FE800D5337EF8008533766
:10078800BF800353377F8537B07F0CDFFE22B1FF70
:10079800D1A5EF600512142780F67F0191DFD250B2
:1007A800F1377F061213A8F1377F0191B47F031246
:1007B80013A8E4FF81DF7F0191DFD250F1377F0674
:1007C80091B41213ABF137902D8CE0FF91B4902DBA
:1007D8008FE0640222F0902D89E0FFF422902F8CA4
:1007E800021157B1FFD1A5EF600512142780F62238
:0707F800EEF0A3EFF0D322A5
:10080000C0567408C0E0C082C08375560AE5FF5424
:10081000CF4490F5FF22C0567408C0E0C082C08368
:10082000755620E5FF54CF4490F5FF22C05674085A
:10083000C0E0C082C083755636E5FF54CF44A0F5B2
:10084000FF22C0567408C0E0C082C08375564CE5D4
:10085000FF54CF44B0F5FF2290800001169098011C
:10086000011690808801169080C70116909F8E0116
:100870001690A01C011690A01F011690A80001164A
:1008800090AFF7011690AFFA011690B001011690E3
:10089000B7FA011690B7FD0116909B55011690B856
:1008A00000011690B02C011690ADBE011690901A62
:1008B000011690BFF6011690B12C011690B0E3011D
:1008C0001690B412011690B2AC011690BFB6011684
:1008D00090BEEA011690C7A0011690A06D01169077
:1008E000A794011690D02D011690D2F2011690D344
:1008F00024011690A331011690CBEE011690BAAEEA
:10090000011690A51F011690D7EE011690A60501BD
:100910001690D929011690BA41011690AE5C0116C5
:1009200090AA69011690DAA6011690A9EB0116901B
:10093000A7F2011690B83A011690B889011690C432
:1009400027011690DB2D011690CBBB011690CB959D
:10095000011690CB4F011690DB3C011690B2D401EA
:100960001690814E011690CBF5011690DC81011690
:1009700090AFCD011690A0AC011690D378011690DF
:10098000D585011690D42E011690D2500116909E56
:1009900096011690C58F011690C1D9011690C77F98
:1009A000011690C664011690A15A0116909F9E01EF
:1009B0001690D66C011690D65F011690D5E50116FB
:1009C00090D5E7011690D681011690DD1D01169095
:1009D000C7C0011690CF3B011690CF0D011690CDE8
:1009E0003E011690C83D0116908551011690A14018
:1009F0000116909F00011690DD9A011690A62E0117
:100A00001690D29F011690C673011690B7E5011695
:100A100090DE080116908176011690D2CE011690D4
:100A2000D051011690B9D7011690C191011690B816
:100A3000FE011690C754011690C5F4011690C769BF
:100A4000011690CDCF011690DE3A011690CCA5018B
:100A50001690DE3D011690DE76011690D69A0116AC
:100A600090C831011690BC2E011690DC50011690F2
:100A7000DC1E011690DE790116909F170116909AE0
:100A8000D1011690C509011690DF680116909BAB45
:100A9000011690DF04011690BC76011690C2A201E7
:100AA0001690B437011690D76D011690D7C1011674
:100AB00090DFD6011690E01C011690E03A011690E6
:100AC000E0D5011690E08E011690E0FC01169092A0
:100AD000FF01169094A2011690C8F0011690CA74F6
:100AE000011690C90D011690CB0601169097F601DC
:100AF00016909B88011690CAE5011690A9D601426E
:100B000090AA50014290AB2A014290AC6C014290F5
:100B1000ACA4014290AD3F014290AFEC014290A3E2
:100B200098014290A3CF0142908080014290B08909
:100B30000142908769014290890B01429080040133
:100B40004290823A014290B171014290B1890142D2
:100B500090B243014290AD45014290B25B01429098
:100B6000A8A001429099BE014290B286014290B283
:100B700093014290A3F0014290A787014290A655AD
:100B8000014290B29F014290A7E3014290AAF40172
:100B90004290B2D2014290A5AB014290B2BA01425A
:100BA00090A6650142908A54014290B2E0014290C1
:100BB000ADEB014290A7AF014290AF85014290A3F7
:100BC000F6014290ABA2014290ACB9014290B3331E
:100BD0000142908C01014290A268014290AB7C01DD
:100BE0004290B3AD014290AD32014290AAAA0142B7
:100BF00090B48A0142909E62012C909DEA012C9053
:100C00009F47012C909F51012C90A014012C90A083
:100C10001E012C90A033012C90A04C012C909B3CE9
:100C2000012C90A056012C909EC8012C909F5D0134
:100C30002C90A077012C909FB6012C90A081012CC4
:100C400090A08B012C909E6C012C90A095012C9073
:100C5000A09F012C908000012C909BDE012C909C89
:100C600041012C90817A012C90A194012C90A195A6
:100C7000012C90975F012C9095BA012C90957701EB
:100C80002C9094A9012C90A1B8012C909C7B012C54
:100C900090A3F2012C90A40A012C00E709F608DFCA
:100CA000FA8046E709F208DFFA803E88828C83E703
:100CB00009F0A3DFFA8032E309F608DFFA8078E36F
:100CC00009F208DFFA807088828C83E309F0A3DFE1
:100CD000FA806489828A83E0A3F608DFFA80588963
:100CE000828A83E0A3F208DFFA804C80D280FA8007
:100CF000C680D4806980F28033801080A680EA802C
:100D00009A80A880DA80E280CA803389828A83EC64
:100D1000FAE493A3C8C582C8CCC583CCF0A3C8C5E8
:100D200082C8CCC583CCDFE9DEE7800D89828A8367
:100D3000E493A3F608DFF9ECFAA9F0EDFB2289822F
:100D40008A83ECFAE0A3C8C582C8CCC583CCF0A3E3
:100D5000C8C582C8CCC583CCDFEADEE880DB8982E7
:100D60008A83E493A3F208DFF980CC88F0EF600176
:100D70000E4E60C388F0ED2402B4040050B9F58231
:100D8000EB2402B4040050AF2323458223900CEBE4
:100D900073BB010689828A83E0225002E722BBFEF0
:100DA00002E32289828A83E49322BB010CE5822933
:100DB000F582E5833AF583E0225006E92582F8E6DC
:100DC00022BBFE06E92582F8E222E58229F582E5CA
:100DD000833AF583E49322BB010989828A83F8E090
:100DE00028F022500327F722BBFE05F8E328F32260
:100DF0008A838982F8E4932822BB010FF8E58229CF
:100E0000F582E5833AF583E028F0225009C582296E
:100E1000F8E58226F622BBFE09C58229F8E2258282
:100E2000F222F8EA2583F583E9932822BB0106899B
:100E3000828A83F0225002F722BBFE01F322F8BB24
:100E4000010DE58229F582E5833AF583E8F0225029
:100E500006E92582C8F622BBFE05E92582C8F222F2
:100E6000EF8DF0A4A8F0CF8CF0A428CE8DF0A42EA6
:100E7000FE22BC000BBE0029EF8DF084FFADF022F6
:100E8000E4CCF875F008EF2FFFEE33FEEC33FCEE08
:100E90009DEC984005FCEE9DFE0FD5F0E9E4CEFDFB
:100EA00022EDF8F5F0EE8420D21CFEADF075F008CE
:100EB000EF2FFFED33FD4007985006D5F0F222C327
:100EC00098FD0FD5F0EA22C2D5EC30E709B2D5E49F
:100ED000C39DFDE49CFCEE30E715B2D5E4C39FFF53
:100EE000E49EFE120E72C3E49DFDE49CFC8003129E
:100EF0000E7230D507C3E49FFFE49EFE22C5F0F8D2
:100F0000A3E028F0C5F0F8E582158270021583E0B1
:100F100038F022A3F8E0C5F025F0F0E582158270E4
:100F2000021583E0C838F0E822BB010A89828A836F
:100F3000E0F5F0A3E022500687F009E71922BBFE96
:100F400007E3F5F009E3192289828A83E493F5F037
:100F500074019322BB010789828A83020EFD500B24
:100F600009C5F027F7C5F01937F722BBFE0D09F8C0
:100F7000E325F0F3C5F019E338F322F889828A8378
:100F800074019325F0C5F0F8E4933822BB010A8977
:100F9000828A83F0E5F0A3F0225006F709A7F01942
:100FA00022BBFE06F3E5F009F31922EF2BFFEE3A20
:100FB000FEED39FDEC38FC22E88FF0A4CC8BF0A4D8
:100FC0002CFCE98EF0A42CFC8AF0EDA42CFCEA8E1B
:100FD000F0A4CDA8F08BF0A42DCC3825F0FDE98F3E
:100FE000F0A42CCD35F0FCEB8EF0A4FEA9F0EB8F35
:100FF000F0A4CFC5F02ECD39FEE43CFCEAA42DCE02
:1010000035F0FDE43CFC2275F008758200EF2FFFFF
:10101000EE33FECD33CDCC33CCC58233C5829BEDD0
:101020009AEC99E58298400CF582EE9BFEED9AFDD4
:10103000EC99FC0FD5F0D6E4CEFBE4CDFAE4CCF984
:10104000A88222B800C1B90059BA002DEC8BF084F7
:10105000CFCECDFCE5F0CBF97818EF2FFFEE33FEC5
:10106000ED33FDEC33FCEB33FB10D703994004EB7D
:1010700099FB0FD8E5E4F9FA227818EF2FFFEE3349
:10108000FEED33FDEC33FCC933C910D7059BE99A5B
:101090004007EC9BFCE99AF90FD8E0E4C9FAE4CCEC
:1010A000FB2275F010EF2FFFEE33FEED33FDCC3356
:1010B000CCC833C810D7079BEC9AE899400AED9B3F
:1010C000FDEC9AFCE899F80FD5F0DAE4CDFBE4CC1E
:1010D000FAE4C8F922EF5BFFEE5AFEED59FDEC5839
:1010E000FC22C3E49FFFE49EFEE49DFDE49CFC2201
:1010F000EB9FF5F0EA9E42F0E99D42F0EC6480C877
:1011000064809845F022EB9FF5F0EA9E42F0E99D5D
:1011100042F0E89C45F022E8600FECC313FCED13AD
:10112000FDEE13FEEF13FFD8F122E8600FEFC3339B
:10113000FFEE33FEED33FDEC33FCD8F122BB0107AB
:1011400089828A830211B45005E9F802136CBBFE50
:1011500005E9F802137822E0FCA3E0FDA3E0FEA37A
:10116000E0FF22E493FC740193FD740293FE740388
:1011700093FF22E0F8A3E0F9A3E0FAA3E0FB2274D6
:1011800001FF3395E0FEFDFCA3A3A3E02FFFF0E5F4
:1011900082158270021583E03EFEF0E582158270B2
:1011A000021583E03DFDF0E582158270021583E0B3
:1011B0003CFCF022ECF0A3EDF0A3EEF0A3EFF02264
:1011C000A8828583F0D083D0821211D71211D71252
:1011D00011D71211D7E473E493A3C583C5F0C58377
:1011E000C8C582C8F0A3C583C5F0C583C8C582C879
:1011F00022A42582F582E5F03583F58322E0FBA366
:10120000E0FAA3E0F922EBF0A3EAF0A3E9F022E48C
:1012100093FB740193FA740293F922BB010789824C
:101220008A830211FD5005E9F8021384BBFE05E92B
:10123000F802139689828A8302120FBB011A8982EF
:101240008A83D0F0D0E0F8D0E0F9D0E0FAD0E0FB2B
:10125000E8C0E0C0F00212065016E9F8D083D08250
:10126000D0E0F9D0E0FAD0E0FBC082C08302138D59
:10127000BBFE16E9F8D083D082D0E0F9D0E0FAD0F6
:10128000E0FBC082C08302139F22BB010DE58229CF
:10129000F582E5833AF5830211FD5007E92582F8CE
:1012A000021384BBFE07E92582F8021396E5822922
:1012B000F582E5833AF58302120FBB0120E582290E
:1012C000F582E5833AF583D0F0D0E0F8D0E0F9D0AC
:1012D000E0FAD0E0FBE8C0E0C0F00212065018E9E6
:1012E0002582F8D083D082D0E0F9D0E0FAD0E0FBBC
:1012F000C082C08302138DBBFE18E92582F8D0831B
:10130000D082D0E0F9D0E0FAD0E0FBC082C0830206
:10131000139F22D083D082F8E493701274019370EB
:101320000DA3A393F8740193F5828883E473740288
:10133000936860EFA3A3A380DF8A838982E473ECC0
:101340008EF0A4CCC5F0CCCDF8EFA4CEC5F02DFD29
:10135000E43CFCE8A42EC8C5F03DFDE43CFCEFA451
:10136000FFE5F028FEE43DFDE43CFC22ECF608ED50
:10137000F608EEF608EFF622ECF208EDF208EEF2CF
:1013800008EFF222E6FB08E6FA08E6F922EBF60897
:10139000EAF608E9F622E2FB08E2FA08E2F922EBB3
:1013A000F208EAF208E9F2221204B4F1E7EF70FB66
:1013B000902D90E0F4600B9030A17406F01204F5CB
:1013C00070FB902D8EE0711313E40413EC1413F1F1
:1013D0001513F617140630140B3414103614153781
:1013E000000013FE433410853480802F4335108075
:1013F000084335208003433580853590801D433672
:10140000208536A08015433701800D4337108008B2
:1014100043374080034337808537B09030A1740C48
:10142000F01204F570FB22E51530E20FE51520E51A
:101430000AE51530E0057F011219DC229030C4EF77
:10144000F0E543C394204004912780F5E53FC39421
:10145000204003E4F53FC2ACF1E1EF700EE54370CC
:101460000A9030C4E0FF12004680139030C4E0FFC1
:10147000AE3F053F74722E1239D2EFF00543D2AC65
:101480007F0122902E2B31B4902E2F51061205FF92
:101490001206A5EF6004912780F61207BE600A903D
:1014A0002E2B315778101204B0902E2B1204AB90D3
:1014B0002E2B3157E48028902E32F19C6026902EFE
:1014C0002FF1906018902E2F31FD120D91FF120414
:1014D000B4902E30E475F001120EFD80DAE4FF12B4
:1014E00004B480D31204DA902D8D7401F022902E72
:1014F0003431B4902E3851061205FF1206A5EF6064
:1015000004912780F61207337F031207D4600A90F4
:101510002E34315778101204B0902E341204AB9050
:101520002E343157E41204B4902E3BF19C60181213
:101530000699902E3831FDEF120E2C902E39E4755D
:10154000F001120EFD80E171ABE4FF0204DF35F023
:10155000FEAF017B017A2C79C0902F347405F09096
:101560002F31F196C007902F3131FD902F34E0FFDD
:10157000902E3BE4F0A3EFF0D00781EE902DE23106
:10158000B4902DE65106902DE631FD902DE9F1BB8A
:10159000902DE23157D1A85002C140902D93E02404
:1015A000FFFF902D92E034FFFEE4FCFD902DE23130
:1015B0007311D5902DEBEEF0A3EFF04E603B902D24
:1015C000EBF1ED902D93E09FFF902D92E09EFE9029
:1015D0002DEBF0A3EFF0902DE9E0FCA3E0FDD39F0D
:1015E000EC9E5006A3ECF0A3EDF0D1584A6004D174
:1015F0009F80407E007F00803A902DE9F189603E17
:10160000902D92E0FCA3E0FDD3EF9DEE9C400A906C
:101610002DEBECF0A3EDF0800D902DE9E0FFA3E0C1
:10162000A3CFF0A3EFF0D1584A6004D19F80047E8D
:10163000007F00902DE7EE8FF0120EFD80BBD322CD
:10164000C322902EDDF196C007902EDD31FD902E45
:10165000E0123EC2D007A17C902DE631FD902DEB2B
:10166000E0FFA3E0902E32CFF0A3EFF0902DE23117
:10167000579183902DEBE0FEA3E0FFC3902DEAE0AD
:101680009FF0902DE9E09EF0902DE23173E4FCFD97
:10169000120FAB902DE231B4902DE631FDE922908E
:1016A0002DEBE0FEA3E0FF22902C9231B4902C961B
:1016B0005106E4902CB9F0D3902C9AE0941E902C13
:1016C00099E094004001227B017A2C799B902C991F
:1016D000123EB5902C92315791EE902C9631FDE947
:1016E0004A600C902CB9E0F582123D02FF80027F27
:1016F00000902CB9E0249BF582E4342CF583E06F54
:101700006002C322902CB9E004FFF0D3902C9AE041
:101710009F902C99E0940050C12290062CEDF090FF
:10172000062BEFF0BF0411A3E0FB7D017F01F15C0C
:1017300090062B7403F0800B90062CE0FB7D01E4F7
:10174000FFF15C90062BE09003BDF0D2061208CBAF
:101750009003C90207F875FF028FE322EB6008755A
:10176000FF0153CDFD800675FF0143CD02ED6005FD
:1017700053FBDF800343FB20EF600775FF0243E16B
:10178000402275FF0253E1BF22E0FEA3E0FF4E229C
:1017900031FDEA494B225106E4FCFD2274FFF5F0CD
:1017A000120F1345F022902EE4F196C007902EE41C
:1017B00031FD902EE7F1BBD007C1A8E0FFA3E09078
:1017C0002C99CFF0A3EFF022EB25E025E02401F5E2
:1017D00082E43412F583E0FCA3E0FDA3E0FEA3E085
:1017E00022E5ED5401FF22E5C85404FF22E0FEA3E8
:0A17F000E0FFC322EF4420F5FE22C3
:071800000201F275C801228C
:101808007FB89003B7E064AA2411FFF0227B017A25
:101818000379C1227B017D02020B0002393A0209D9
:0118280002BD
:10182B00022801AE07110AEE04FEEF8EF084AFF032
:10183B0022E0FBA3E0FAA3E0F922E4F51402231261
:10184B00022B4AE4FF31DCEF60361115118C500589
:10185B00123FBC40F57B017A0379C3118C500F12F8
:10186B003FC45FFFA3E05FFFA3E05FF460E7754F4A
:10187B00017E007F081115123EF47404F01216421B
:10188B0022902DD7F1F2902DDD1211C00000000136
:10189B00902DE17401F0F5FFE5D554C07004B11A39
:1018AB005002C322E4F5FF53967F75FF0175D504F3
:1018BB007F3FFEF13075FF0143D508E4F5FF5394EC
:1018CB00FBF5FF53847FF5FF7598FF902DDBE5F457
:1018DB00F075F49C75FF01A3E5E4F075E4257B013D
:1018EB007A2D79E11237B5902DE1E0640160022188
:1018FB00BAF5FF902DDA7414F0902DDD1217D6FF88
:10190B00780112112A902DDD1211B4E5A730E1FBFD
:10191B0043A702902DDD1217D6FFE5A730E005E4B3
:10192B007B018002E4FBFAF9F8EF4BFFEE4AFEED88
:10193B0049FDEC48FC902DDD1211B4902DDAE0142A
:10194B00F070B6902DDD1217D6FF78101211177BA1
:10195B006D7A4E79C67841120FB8EF2439FFEE3409
:10196B0030122715E4FBFA7901F8121043EE547F7D
:10197B00FEE4FDFC122B2D902DDD1217D6FFEB6F25
:10198B00FFEA6EFEE8CDEFCDCCEECCECFF902DD781
:10199B00113CEF120E2C902DD7113C900001ED1243
:1019AB000E3E90120FE030E606E4F5FF759680755B
:1019BB00FF01E4F5D5902DDBE0F5F475FF01A3E015
:1019CB00F5E412378C902DE1E0B40103D38001C311
:1019DB0022EF600B1222CDAE83E4FDB19780103065
:1019EB002A037F0022120AF6122312E433FF227F0E
:1019FB0001229005F4121206D246C2EBE5146002E6
:101A0B00815AE51530E202C322916324E5F9E43AE9
:101A1B00FAE4120E2C122FF9916B5407FF90055319
:101A2B00F0122F189005F7EFF0E51520E069B11AC9
:101A3B0040047F0131DC9005F7E0FF7B017A0579EB
:101A4B00F8D15FE4337004D2EB813E9005F7E024CC
:101A5B0032123F8DE0FF9005F8E0D39F4039D2EB77
:101A6B00122F56A23592ED900564E060119163241C
:101A7B00E5B10B120E2C431504123E99D32290059F
:101A8B0072E070117A0579727C287D737464123F51
:101A9B0043F01208DAC322B11A5004C24FD1191203
:101AAB002DC9E5D120E0FBE4F510916B5407C394ED
:101ABB0003E494005032916324B191BB916224D81A
:101ACB0091BB2FFFE433FED3EF9440EE6480948000
:101ADB004016916324E5F9E43AFA7402120E2C4392
:101AEB001504A23592EDD32291632408F9E43ACF81
:101AFB00E9CFF5118F12916324B191BBF516AE119D
:101B0B00123A39916324B2F9E43A8B1CF51D891E04
:101B1B00916324D891BBF51F916BFDACF0546060C1
:101B2B002F916324D991BBFF122F30C24691ABFB8F
:101B3B007A00900573123F857D18120E60EF2BFF14
:101B4B00EA3EFEEF2414FBE43EFA7D027F01812E78
:101B5B00916B5407900553F0751408916324B2F9F7
:101B6B00E43AFA122DD5916324D891BBFFAD16122E
:101B7B002E0B900553E0640370237B01FD917B9149
:101B8B00FB50057401120DD7E4F5FF122DF8120D61
:101B9B00912428FBE433FA7D03E4FF812E90055357
:101BAB00E064027029917E91FB400574FF120DD702
:101BBB00E4F5FFE5D25480440AF5D2120D912414BA
:101BCB00FBE433FA7D027F01B12291C28057E4FB23
:101BDB007D01917B91FB400574FF120DD7E4F5FF5E
:101BEB00916B441045F07F0560027F0AEF547FFF35
:101BFB00E5D254804FF5D2E4F5FF43D28091ABFD93
:101C0B007C00916B441045F07E0060047F0A8002DB
:101C1B007F05EF25E0FFEE33FEEF2DFBEE3CFA7D6B
:101C2B00017F01B122916BFFAEF0A2469245122AC1
:101C3B00EC4006A23592EDC322123E999005F7E0D7
:101C4B00916224E7123C47A23592EDD2EBD322A24C
:101C5B003592EDD2EBC322FF9005F41211FDE92270
:101C6B009005F41211FDE92404F9E43AFA020F2964
:101C7B00FF91C79005F41211FDE924B1F9E43AFA8A
:101C8B00120D91FF9005F41211FDE924D8F9E43AF5
:101C9B00FA120D912FFFE433FEEF2401FFE43EFE19
:101CAB009005F41211FDE924B2F9E43AFAE924079C
:101CBB00F9E43AFA020D91E4FB7D01FFE4F5FF75BF
:101CCB00D102E5D120E0FBE4F5FFF5D1EF6008E4AC
:101CDB00F5FF43D2808006E4F5FF53D27FEB60061D
:101CEB00E4F5FF43D104ED6006E4F5FF43D1082290
:101CFB00D39FEE6480F8748098221211FDE92401C1
:101D0B00F9E43AFA740122C2EBA2ED9235C2EDE589
:101D1B00F4C330E701D32290061FEFF0ED24FE60F1
:101D2B00191460262402703BEB2402FFE43AFE7C7C
:101D3B00007D50120E607D60801EF1A3C333CE3345
:101D4B00CED8F9FF7C007D28800EF1A3C333CE33B0
:101D5B00CED8F9FF7C007D64120E72900620EEF057
:101D6B00A3EFF090061FE0123EA7C083C0821211B2
:101D7B0073900621E02401FF900620E03400FEE47E
:101D8B00FCFD120FABD082D0830211B49005E2128E
:101D9B003C4FE5147077B1125004C24FD119900526
:101DAB00E2E0FEA3E08E11F512A31211FD90055592
:101DBB00121206AE11AF127DAA122E46E4F5FF7574
:101DCB00D908F510E5155421602BE51530E504E431
:101DDB00FFF15AE49005E7F09005E7E004F01235C7
:101DEB0084EF60099005E7E0C3941040EB7F02128B
:101DFB000C865315DE900551E07F00B403027F0182
:101E0B00122B3AD24FD119D2EBA23592ED22903050
:101E1B00A0E5F4F0E0547FF5F47F827E00F176D1FB
:101E2B00E712269C5005E5FC20E6F6304F08903073
:101E3B00A0E04480F5F4D1E112269C5005E5FC208E
:101E4B00E6F675FF01E5D520E702C322E5F4D330B2
:101E5B00E601C322902FC8EFF0A3F1F275FF011238
:101E6B0026A7EF64016002C322E5F430E602C32229
:101E7B007FE87E03F13DD1E71226DE400122C24FFF
:101E8B00D119902FC8E0FFF15A53F4DFD24FD1197B
:101E9B007F787E00D1EE75FF0153E4BFE5E430E7B8
:101EAB00FB1238F07F8AF1FB30E608902FC9113C0A
:101EBB00E4800A75FF01902FC9113CE5D9120E2C55
:101ECB0075FF0143E440123765400343F4201226AB
:101EDB00DE400122D3227FE87E03F17675FF0343B8
:101EEB00918022CDEFCDCCEECCF1AEAB94EF4BF19C
:101EFB00EACBEFCBFAE59130E719F1B1A994E9F50B
:101F0B0082EF4582FFEB123F6DC3EF9582E5F095B3
:101F1B008340E2E59120E708CEECCECFEDCFF13058
:101F2B00227F147E00F13DD1E775FF03E59120E799
:101F3B00FB2275FF03D3EF9402EE9400400874FE6E
:101F4B002FFF74FF3EFEEFF592EE540FF5912275C5
:101F5B00FF01E5D530E602C322E4F5FF439A80EF9B
:101F6B0012376DE4F5FF539A7FD322902FB8123FAF
:101F7B00557A2F79BAF1BA5014902FBAE0FEA3E03C
:101F8B00FF902FB9E09F902FB8E09E400A902FB89A
:101F9B00E0FEA3E0FFF13D22EB2401FFE43AFEEF6C
:101FAB0078032275FF03AF93EF75F010A4FF22F1B6
:101FBB00AEAD94EF4DF1EA8FF0120F8CE591C3307B
:101FCB00E701D322123F3053DB7F75FF0175D5023A
:101FDB00F12C123F3043DB8075FF01E4F5D5222451
:101FEB00FBFFE5F034FF22EBF0A3EAF0A3E9F022CC
:101FFB00FED1EE90120FE022302C0D12093EEF6055
:10200B0007C25712092FC22C2275FF0275E404E494
:10201B00F5E41202D951ED9003BEEFF0901200E0FF
:10202B00B47A14901214E0B49C0D9003BEE0FF64DC
:10203B00056004EFB4032EE49003C7F09003C7E0F0
:10204B00FFC394805013E42FF582E43412F583E43C
:10205B00F09003C7E004F080E3901200747AF090E4
:10206B001214749CF0120B0A4003120B057B017ABD
:10207B001279107D017F01120B007B017A1279110D
:10208B007D017F21120B007B017A1279127D017F7A
:10209B0022120B007A1279177F02B161901217E0AE
:1020AB00B401057F011238FA120ABA51ED120AB5C2
:1020BB009003BEEFF0120B6E120AB09003BEE0FF5E
:1020CB00120C6DEF24FFB3925D75FF0253E6BFF167
:1020DB00DB120AC4120508205D0C1204397B017A4D
:1020EB002A791E120989D2AF305D7B120B0F1208B1
:1020FB00B7120C68120AFB40F29003BDE0603D1270
:10210B000AE7EF7004515F4033E51470FCE51520CE
:10211B00E5027112120871EF70FA514D50045172B1
:10212B0050047F0171409003BDE0B40204E4FF80D2
:10213B00099003BDE0B403047F0151AF120AE2E53D
:10214B001530E1A751384002E4F0E51520E50951BF
:10215B00CDAE837D01121D975186C0E0519AD0E020
:10216B00FF120B64808511039003BDE060432017C1
:10217B000320063D120AE7EF7004515F4033E5146C
:10218B0070FCE51520E5027112120871EF70FA511F
:10219B004D5004517250047F0171409003BDE0B467
:1021AB000204E4FF80099003BDE0B403047F0151F6
:1021BB00AF9003BDE0600C20170930060620010329
:1021CB0012095C120B0F1208B7F16A120C63202B69
:1021DB0005120AE280221208CB9003B6E0FEEFC391
:1021EB009E4005EF9EFF80089003B6E0F4042FFF9E
:1021FB007406D39F5002C22BE51530E120513840B5
:10220B0002E4F0E51520E50951CDAE837D01121DE9
:10221B00975186C0E0519AD0E0FF120B64120A97D7
:10222B00B13C2171C2AFEFF45215D2AF227F0251F4
:10223B002F9003BFE09003C7F09003BF04F0C3944B
:10224B000222900001740193B40007E493B41802C6
:10225B00C322D3229003C9E0FEA3E0FF1208D0D320
:10226B00EF94C8EE9400227F017E009017FCE4935C
:10227B005EFE7401935F4E24FFB3229003C7E0FD13
:10228B0075F0AA9003CB1211F1AF82AE83EF22ED62
:10229B0075F002A424B8F9740335F0FA7B019003AE
:1022AB00C0E0FD2243FB1075FF0243E640EF600DDB
:1022BB0075FF02E5E120E7FB43FB0D800343FB0EBB
:1022CB0080FE9003BFE0FD75F0AA9003CB1211F1D5
:1022DB00ED75F002A424B8F9740335F0FA7B01AF65
:1022EB00822275FF02E5E630E2037F0322E5E6304A
:1022FB00E3037F0022E5E630E1037F0422E5E67F7E
:10230B000530E0027F0122E5147028121D125005E2
:10231B00C24F121E19B1687F08120C86122DC9E527
:10232B00D120E0FB4315205315FEE4F510A23592A6
:10233B00EDD322C3229030A3EFF0902D97E06402EF
:10234B0070261207339030A3E07FAB60027FB91287
:10235B0004B41213AB9030A3E0902D96F070047F71
:10236B001EDFFEE4FF1204DF227B017A2D798E7DC6
:10237B00017F03120B007A2D79977F08B1617A2DBB
:10238B0079947F0912181C7A2D79927F0B12181CE5
:10239B00902D921217896006BEFF1BBFFF18902D60
:1023AB0097E024FD6003047004B1578009902D92CF
:1023BB00E4F0A37440F0902D97E024FD60030470CB
:1023CB0008902D8F7403F08006902D8F7402F0907F
:1023DB002D8EE012131323FD04240814241015244E
:1023EB001817242E30243634243E3624463700006A
:1023FB00242375FF015330EF8530FD804775FF01B6
:10240B005331EF800E75FF015331DF800675FF01ED
:10241B0053317F8531C9802C75FF015332DF8532F3
:10242B00CA802175FF015333FE801675FF015333AC
:10243B00EF800E75FF015333BF800675FF015333D9
:10244B007F8533CB1213AB7F111217F4E4FF71406E
:10245B0012060E902D8C7402F0902D90E0247F606C
:10246B0009047016B14E740A80071204BCB14E7485
:10247B0058F0902D8F7403F0B157902D91E0F460CC
:10248B0002A127902D94E0FEA3E0FF64104E70068E
:10249B00902D91740EF0EF64204E7006902D917478
:1024AB000FF0EF64404E7006902D917410F0EF64B6
:1024BB00804E7006902D917411F0E4B5070AEEB4BE
:1024CB000106902D917412F0E4B5070AEEB40206E2
:1024DB00902D917413F0E4B5070AEEB40406902D19
:1024EB00917414F0E4B5070AEEB40806902D9174BC
:1024FB0015F0E4B5070AEEB41006902D917416F0A2
:10250B00E4B5070AEEB42006902D917417F0E4B5EC
:10251B00070AEEB44006902D917418F002079690BE
:10252B0003C5E0FCA3E04C70069003C50207F8C39B
:10253B00229003C51217896009CAEECAC9EFC912E6
:10254B001339227F101217F4902D8C22902D927438
:10255B0001F0A3E4F0227B017D01020B00E5FA30D0
:10256B00E1FB75FC8075FF0153D5EFE4F5FC75FCC1
:10257B0040D1D7E5FC20E6FB22902ED4123778EB26
:10258B00F0902EDA7401F0C24E121EE1D19C500570
:10259B00E5FC20E6F7D1A7BF0108E4F5FC75FC408C
:1025AB008007D1A7BF0202D32275FF0153D8EF904A
:1025BB002ED5E0FF12388975FF0153D5DF53FAFB97
:1025CB00902ED4E0FF121F5A902ED5E0902ED4B44B
:1025DB00080AE01217C92452F1128005E01217C93C
:1025EB00FF1232DC902ED6E0FF1238BE75FF01755C
:1025FB00FF03759B04121EE175FC42E5FC20E10410
:10260B00D19C40F4902ED7E0F075FF03E59B20E7BB
:10261B0004D19C40F4E59B20E70C75FF03759B1FD1
:10262B00B168D24E8050D1951237B5902ED5E0FDC2
:10263B0090120FE05D701D902ED4E0FFD195122902
:10264B005C90120FE0FF902ED5E0FEEF4E90120F34
:10265B00F012314C1236577B017A2E79D8121FBAF1
:10266B00500FC3902ED9E09420902ED8E0940340C5
:10267B00E6D195123673121F34304E02A18C902E78
:10268B00DAE0B40103D38001C3227B017A2E79DA1D
:10269B002275FF03E591C330E701D3227FFA7E0059
:1026AB00121F3D121EE7E5FC30E604D19C40F7E516
:1026BB00FC30E6037F032275FF01E5D530E6037F8F
:1026CB000222E5D57F0030E7027F012275FF03E48C
:1026DB00F59122E5F730E50EE5F754C07004D19C77
:1026EB0040F1D1D7C322D322FF7E04FDFCE0F8A337
:1026FB00E0F9A3E0FAA3E0FB120FB8E47B7DFAF953
:10270B00F8121043EF2401FFE43EFEE43DFDE43CF0
:10271B00FC2290061DEFF0900553E0FF122F18904E
:10272B00061EEFF0900553E024FD60130470089033
:10273B00061C7404F0800E90061C7408F080069042
:10274B00061C7402F07F01120C8690061EE09006A8
:10275B001C123F29E4902ED7F0B18450EDD322D137
:10276B00A7EF640170691238B3903072EFF0D39415
:10277B0002505C902ECCE0FF903072E06F705012E4
:10278B0038C9903073EFF07B017A3079737D011289
:10279B000B5F903072E024C8F582E4342EF583EFA2
:1027AB00F0902ECCE0045401F07024902ECAE0700F
:1027BB0002A3E0601A7B017A2E79C61230657B0189
:1027CB007A2E79C6902ECA123E7F8E8312133D222B
:1027DB0075FF02D2ADD2BD75FF02758E71755009B2
:1027EB0075FF02E58E546F4480F58E902FB4121155
:1027FB00C00000000022C0E0C0F0C083C082C0D087
:10280B0075D008C0FF75FF02E58E30E43E75FF0200
:10281B00E58E54EF4410F58E902FB41211571227FA
:10282B000F902FB41211B4900000E475F001120E4A
:10283B00FDE55030E0020539E550700D7550090586
:10284B004CE54C7002054B8002155075FF02E58577
:10285B0030E40875FF024385100554D0FFD0D0D06B
:10286B0082D083D0F0D0E032E4900572F090056412
:10287B0004F022121D1A5006118B50028001C32244
:10288B00E5F754E024FF22AF14EFC36001D322EF2E
:10289B00C3940E5005900554EFF022E517540FFF2B
:1028AB0022E517C394F0501F5317F011D5FE740F88
:1028BB00C39F4005EE940E400543170D8003EF4276
:1028CB0017E517540FFF227F0022E517C4540FFEA4
:1028DB00EF900376932E2211D5FFC3940E40027F07
:1028EB000DEF90035893FF22EF30E303AF1322ADAC
:1028FB001B203604EE30E00BE517C394F05020316B
:10290B002D8018E5196006FDE4F5198012E517C353
:10291B0094F0500BE517540FFF600411E2AD07AFB5
:10292B000522900554E0FDFFC3740E3155EFC4F83A
:10293B00540FC868FFEEC454F048FEE51754F0C3BB
:10294B00121CFC7F005002AF05229FFFE49400FE97
:10295B0022902FC4EDF0901211E0F46005A3E0B4C7
:10296B00FF0C902FC67418F0A37413F08010901204
:10297B0011E0902FC6F0901212E0902FC7F0120DBD
:10298B00916401600241C7902FC4E0FE64086004AB
:10299B00EEB40408902FC57428F08006902FC574F0
:1029AB003AF0EF1217C9FF1210E2E451C8EF24D826
:1029BB00FFEE343FFEED3493FDEC3416FC7B007AD6
:1029CB008079037800120295712D902FC7E0FF904C
:1029DB002FC6E0C33155E4FCFD120FB8ECC0E0ED9F
:1029EB00C0E0EEC0E0EFC0E0902FC7E0FFE4FCFDDD
:1029FB00FE51C8D0E0FBD0E0FAD0E0F9D0E0F8EB24
:102A0B002FFBEA3EFAE93DF9E83CF8902FC5E0FFD1
:102A1B00E4FCFDFE120FB8EF2454FFEE340B12272B
:102A2B0015E47BA87A16F9F8120295CBEFCB902F11
:102A3B00C4E014605F14601B24FE600C24FC707CEB
:102A4B00E4F5FF75CE318006E4F5FF75CE21F5FF79
:102A5B008BCF22E4FAE4F5FFEA2440F5CEE4F5FF50
:102A6B00EAFFC37407315574F02FF58274033EF5FA
:102A7B0083E451D013C39DF5CFE4F5FFEA2448F569
:102A8B00CEE4F5FFEA9003F051D0132DF5CF0AEA0F
:102A9B00B408C222E4F5FF75CE01F5FF8BCFF5FF2D
:102AAB0075CE0EF5FFEB25E0F5CFE4F5FF75CE0FF8
:102ABB00F5FFCFEBCFEB75F003A4F5CF227B64FAD8
:102ACB00F9F8020FB89325E0FDE433FCEB75F01039
:102ADB00A4FFAEF0120E72CDEFCDEBFFE4C313EFFC
:102AEB00224315015315DF11F312271D4004E4F5A2
:102AFB00142243FA045315FB3045047140800A7FBE
:102B0B005571167F557116D2EBD32275FF01E5D5A2
:102B1B0020E602C322E5FA540360FA75FF018FC366
:102B2B00D322C8ECC8C9EDC9CAEECACBEFCB22126F
:102B3B001F5A43FA04E4F5FF53D1FD43D10122C0E0
:102B4B00E0C0F0C083C082C0D075D008C0FF75FF55
:102B5B0001E5D530E6047F028009E5D57F0030E73B
:102B6B00027F018F18E518640260028124E51412BC
:102B7B0013132B96012BA9022C0D082BB4092BBF79
:102B8B000A2BCD0B2BEA0C00002D6C75FF0175C3C6
:102B9B0055151AE51A6002A16C751402A16C75FF2C
:102BAB000175C3F0751409A16C75FF0175C35575DB
:102BBB00140AA16C75FF01900565E0F5C375140B44
:102BCB00A16C75FF01900552E0F5C3751401751AE0
:102BDB0014900573D1016002A16C75140CA16CAB40
:102BEB001CAA1DA91EB1D5AD16AF1FD10B121CC24D
:102BFB0075FF00B1F843FA0475FF007143751408B3
:102C0B00A16CC2EB751400431504D1184002A16CE2
:102C1B00E475F001120EFDA16CE51864016002A1D0
:102C2B006CB1E14002A16CE510705BB193E5D91278
:102C3B000E2CB187E0900635F0D167D1329005515B
:102C4B00EFF0900635E0FFD39409500281E6900532
:102C5B0051E0D39402400CEFD394AA7F0040027F43
:102C6B0001800D900635E0D394407F0040027F0138
:102C7B00EF60028066900635E0FFF51675FF008F5A
:102C8B00D9751003A16CE51064036002A16CB193BC
:102C9B00E9B1E8E5D9120E2C75FF00900551E0C3A0
:102CAB009403E5D350055402FF80035401FFEF60FA
:102CBB002E30E111C390055FE094FF90055EE09428
:102CCB00FF5018800FC3900561E094FF900560E002
:102CDB0094FF5007E475F001120EFDB1A1A16CC277
:102CEB004F121E1975FF00B1CCE5D120E0FBC2EBF2
:102CFB00431502B180A3E0FF9003C2E0FEEF6EB17B
:102D0B007FE09003C1B179A3A3E09003C3B179A392
:102D1B00A3A3E0FE9003C4E0FDEE6D4F6016C390DD
:102D2B000563E094FF900562E094FF5007E475F0B3
:102D3B0001120EFDC390055DE094FF90055CE094DD
:102D4B00FF5007E475F001120EFD75100090055150
:102D5B00E0B403071516B187E516F09003C0E5162E
:102D6B00F0D0FFD0D0D082D083D0F0D0E032FEE0D4
:102D7B00FDEE6D4FFF85128285118322E51224072C
:102D8B00F582E43511F5832275FF01F5EA75EAFF4B
:102D9B009005550211FDC24F121E19B1C9E5D12084
:102DAB00E0FBE4F5FF75D908900551E07F00B40313
:102DBB00027F01713AD24F121E19E4F51022E4F58D
:102DCB00FFE5D154FE4402F5D122E4F5FFE9B1EF62
:102DDB00EA540F42D622E5F754C024FF222401F90E
:102DEB00E43AFA22F5D7E4F5FF53D6F022E5D254B4
:102DFB00804414F5D22274FFF5F0120EFD45F0223B
:102E0B00E4F5FF8FD4F5FFCFEDCF8FD522C390051F
:102E1B0059E094FF900558E094FF22D1185007E435
:102E2B0075F001120EFD22EF24FE600C24FE6005EE
:102E3B0080007F01227F02227F0322E4F5FF75D100
:102E4B0002E5D120E0FBE4F5D1F5FFEFB1EFEE5455
:102E5B000F42D6E4F5FFCFEDCF8FD422E5F7540622
:102E6B00FFBF06037F0822E5F75406FFBF04037F6D
:102E7B000422E5F75406FFBF02037F02227F0122E3
:102E8B009003C8E0B4020D8F1B9005DFE0F5131221
:102E9B000ABFD322C32290061912120690061912EA
:102EAB0011FDE51BD1D22401D1CD2402D1CDD1DD31
:102EBB00E513D1D22404D1CD2405F9E43AFAE40286
:102ECB000E2CF9E43AFAE4120E2C9006191211FDAD
:102EDB00E9222403F9E43AFA22E51754F0C4540F1B
:102EEB002FFFC3941040027F0FEF90036693FF22D6
:102EFB007E10EE60091EEE90036693B507F4EEC3E9
:102F0B00940E40027E0DEE90035893FF22EF24FDAA
:102F1B00600680007E018002E4FEAF0622C2AFEFA6
:102F2B004215D2AF22751401751A13900565EFF097
:102F3B009005537402F0ED90057330E507E4F0A3B0
:102F4B00743AF022E4F0A374E6F022C390055BE040
:102F5B0094FF90055AE094FF5007E475F001120EB0
:102F6B00FD22900573E0A3E0FF229005F9121206F3
:102F7B009005FCEDF0E4A3F0ED54FE9005FCF06041
:102F8B0030E4FF1219DCBF01289005F91211FD1274
:102F9B00188C501D9005FAE475F002120EFD900589
:102FAB00FDE02402F09005FDE0FF9005FCE06F7062
:102FBB00D87F011219DC9005FDE0FF227D02F1752F
:102FCB00EFC36001D322E4FFFEFDFC900566F1E642
:102FDB0090056AF1E690056E0211B41211B4E4FF8C
:102FEB00FEFDFC22EF123EA712115702113D90037A
:102FFB00C1E0F4FFA3E06FFFA3E06FFFA3E06FFF5F
:10300B0064556009EF644A6004EFB40A010F900540
:10301B0052EFF022A2EB9247C2EB7A0579587B0173
:10302B007D0CE4FF12086CA24792EB22A2EB9248B4
:10303B00C2EBEBC0E0EAC0E0E9C0E07B017A0579C6
:10304B0058902EF4121206D0E0F9D0E0FAD0E0FB43
:10305B007F0C120899A24892EB22C003C002C00158
:10306B007B017A2E79C8902EF4121206D001D00271
:10307B00D0037F02020899902ECAEEF0A3EFF02244
:10308B00EF7011ED600775FF0143AE012275FF0173
:10309B0053AEFE22EFB40110ED600775FF0143AE96
:1030AB00022275FF0153AEFD22EF600775FF02533D
:1030BB00E6BF2275FF0243E64022EF14600F146057
:1030CB0014240270188B8075FF018DFD228B907577
:1030DB00FF018DC9228BA075FF018DCA22AF038F13
:1030EB00B075FF01AF058FCB22902ECE121206EFDB
:1030FB001460111460182402701E312EE5803134D7
:10310B00E5FD801C312EE5903134E5C98012312E5E
:10311B00E5A03134E5CA8008312EE5B03134E5CB7A
:10312B00020E2C902ED10211FD120E2C75FF019068
:10313B002ECE0211FDE4F5FFAF9122E4F5FFAF9225
:10314B00229012137401F07E127F01E4FD8F828EA8
:10315B0083EF2DF582E43EF583E0FC901213E02C17
:10316B00F00DEDB412E722902CFF1211B475FF0293
:10317B0043E180122568121FCF902D141211C0004D
:10318B002DC6C0E4F5FFF5A490120EF0A3F0902D20
:10319B000F7402F051CBFFF595EF146019146028F2
:1031AB0024027039902CFF1217D6FF902D1012119C
:1031BB00B4902D0B8022902D031217D6FF902D105B
:1031CB001211B4902D0C8010902D071217D6FF9072
:1031DB002D101211B4902D0DE0902D18F0F17F9061
:1031EB002D18E0700FF5FFF59675FF0175D7097572
:1031FB00F418805B90120EE004F0902D0FE0F16D4F
:10320B00902D141217D6FF902D1091AAC3121106F0
:10321B00500B902D101217D6FFA31211B4902D182E
:10322B00E0FFF1E9902D0EE0FFA3E0FDA24D924BE4
:10323B00123837A31217D6FF902F831211B4902D8B
:10324B000FE0FF7118902D0FE01217C9FF51DC51E1
:10325B00D36002219F7402F051CBF595E5F454072E
:10326B007019902D141226F37801121117902D0F4F
:10327B0071A91211B41217C8FF51DC51D370D97553
:10328B00FF03759580F165400343F420A24D924CEA
:10329B0091B6902D141217D62420FFEE344E122720
:1032AB0015E4FB7A04F9F81227037801121117C2FF
:1032BB004A71B9E4F5FFE5BD54F84404F5BD214C62
:1032CB0075FF03902D0FE022902D0FE0FF14F0EF10
:1032DB0022902FBC1211B475FF01902FBCA3E0FDFF
:1032EB00A3A3E4FFFEE4FC78101211178FE1902FDB
:1032FB00BCA3A3E0FEA3E4FFE4FDFC7808121117C6
:10330B008FE2902FBCA3A3A3E0FF8FE322902F8229
:10331B00EFF0E4A31226F37801121117902F8271AC
:10332B00A91211B4901210E064806071E0C3947F15
:10333B005039EB71ABC083C0821217D6FFEEC0E0E1
:10334B00EFC0E0901210E075F004A4AEF0FBCAEEF3
:10335B00CAEA3395E0F9F8D0E0FFD0E0FEC3EF9B6B
:10336B00FFEE9AFEED99FDEC98802A902F82E0718A
:10337B00ABC083C08291AA901210E0F40475F004E4
:10338B00A4FFAEF0EE3395E0FDFCEB2FFFEA3EFE23
:10339B00E93DFDE83CFCD082D0831211B422E0FB66
:1033AB0025E025E02401F582E43412F58322902DEB
:1033BB00631211B4E4F5FF75BB0575BB8575FF0191
:1033CB0075D502204A087F3FFE121F30D15775FF7B
:1033DB000143D520304A02817CE4F5FF538EF7433D
:1033EB008E077D04E4F5FF8DBCF5FF43B102E5B11B
:1033FB0030E2FBE4F5FFAFDFEFFEACDEECFBEBFF07
:10340B00ED25E02461F582E4342DF58391A3F5FFDE
:10341B00F5FF53B1FD0DEDB40CCA902D631217D609
:10342B00FF7809121117A391A3FDED25E0246BF58D
:10343B0082E4342DF583E0C313FAA3E013FB9196DA
:10344B00D1CA2BFFEE3AFE9196EEF0A3EFF0ED24EE
:10345B000490120DF0EDC394075016CFEDCF0DEF86
:10346B0091971217ED902D68E09F902D67E09E507D
:10347B00B9E4F5FF758EC8F5FF90120DE0F5BCE4CD
:10348B00F5FF75BB8075FF01F5D522ED25E02469AD
:10349B00F582E4342DF58322EEF0A3EFF0E422E085
:1034AB00F8A3E0F9A3E0FAA3E0FB22E4F5FF7593A0
:1034BB003F75FF03759A40F18CE4F5FF759C93F50E
:1034CB00FF75A1A3F5FF758531F5FF758628E5FA24
:1034DB0054304480F5FA75FF0175E74A75FF0275A4
:1034EB00DF4975FF0143D30475FF0153D367E4F53F
:1034FB00FF53E6BF75FF0175D825F5FF75B503F5CD
:10350B00FF75B215F5FF75BA02F5FF75AFB3F5FF91
:10351B0075CD0AF5FF75CB08F5FF75CA12F5FF756A
:10352B00BF0EF5FF75CC96F5FFF5BDF5FF75C281A6
:10353B00F5FF75AEE1F5FF75DA55F5FF75F580F51D
:10354B00FF75E903F5FF75E933F5FF75972A75FFED
:10355B0001759B42759CA4759D29759E48759F248A
:10356B0075A11275A312759AF8204C0CF5FF4396B2
:10357B008090120FE04440F022E4902FC0F0A3049F
:10358B00F0E4902FC3F0E5FA30E1FB75FF01E5D5D0
:10359B0030E7037F0022E4F5FF75E50875FF015363
:1035AB00D8EFE5D530E61A75FF01902FC2E5DAF0BA
:1035BB00E4F5DA75FF01E5D630E3FB902FC3740118
:1035CB00F075FF03759B0475FC4175FF03E59B309C
:1035DB00E7FBE4FB75FF038B951217C8FF51DC0B60
:1035EB00EBB403F075FF03759580E4F5FF758EC89A
:1035FB00D15775FF0153D5FB1226D7121F2C75FF20
:10360B000143D504902FC3E070081226D77FC81250
:10361B001F2E7B017A2F79C1D173902FC1E0902F90
:10362B00C07006E04404FF8002E0FF902FC0EFF073
:10363B0090120EE0B4010675FF0143D81075FF011F
:10364B00902FC2E0F5DA902FC0E0FF22E4F5FF7572
:10365B00C2E17F1E121FFB30E707E4F5FF75C2A125
:10366B0022E4F5FF75C28122C24975FF03759B1FCA
:10367B0075FF0390120FE020E71BE59A540FC394DC
:10368B00024012E04480F0E4F5FF75C2A143FC0454
:10369B0075FF03D249E5FC30E609E59A540FC39454
:1036AB000540CDE5FC30E611E4120E2C75FC80F5DF
:1036BB00FC75FC40E5FC20E6FB304902314C22E076
:1036CB00C313FEA3E01322902FCCF175EBF0F14E58
:1036DB00AC00AD01AE02AF03C006C007902FCCD13A
:1036EB00CAFBAA06E4F9F8D007D006D31210F07E75
:1036FB000050047F0180027F00C006C007F14ED04E
:10370B00E02FFFD0E03E902FCCF0A3EFF053ECFC7A
:10371B00902FCCE0FCA3E0FDEC540342EC75FF02D0
:10372B00EDF5AF75ED0275ED04A3E0600543EC0814
:10373B00800353ECF7902FCFE0600443EC0422534B
:10374B00ECFB22902FCCE0FEA3E0FBAA06E4F9F8F9
:10375B007F807E387D01FC02029590120EE0D3949F
:10376B00012233333354F8F5F422EEF0A3EFF0A338
:10377B00EDF0A32275FF0175E46575FF0175D64762
:10378B0022E4F5FF7584E6F5FF439404F5FF759885
:10379B001422C2ACE4F543F542F541F53FF540F593
:1037AB003E7B017D01D1D2D2AC22903018121FF298
:1037BB007F017C127D01E4FE8D828C83ED2EF582E0
:1037CB00E43CF583E02FFF0EEEB412EC901213E005
:1037DB006F600A90301812183CE4120E2C22EF3056
:1037EB00E00E43F401E4F5FF43A404F5FF759624C2
:1037FB00EF30E10E43F401E4F5FF43A408F5FF7548
:10380B009624EF30E20943F402E4F5FF75961EEFC0
:10381B0030E30943F404E4F5FF75961075FF01EFEF
:10382B005403600475D7122275D72D22CCEFCCCF61
:10383B00EDCF74017E00C8EFC8088005C333CE33CB
:10384B00CED8F9FFCDECCDEF5D601B304B1875FF7B
:10385B000175DCAD75FF0175DDCDE4F5FF759A746F
:10386B00F5FF7594842275FF0175DC5375FF0175A7
:10387B00DD33E4F5FF759A14F5FF7594042275FF9B
:10388B0001E5D530E602C32253FACFEFB408054366
:10389B00FA308012EFB4040543FA208009EFB4022A
:1038AB000543FA108000D322E5F454181313135474
:1038BB001FFF2275FF018FDA2211F0AFD922E4FF2F
:1038CB00E5F754C0600280F175FF01E5D530E30DDB
:1038DB0011E950F411C4EF60EF11E950EB2275FFC1
:1038EB0001E5E4332275FF01E4F5EA75EAFF22EF07
:1038FB00600775FF0243E6102275FF0253E6EF22C5
:10390B00E5ED30E2FB75ED04AFEF22E5ED20E0FBDA
:10391B008FEF22EF600443EC042253ECFB22EF60A9
:10392B000443EC082253ECF722E5ED5402FF22C0CE
:10393B00E0C0F0C083C082C0D075D000C000C00111
:10394B00C002C003C004C005C006C007C0FF31CC15
:10395B00EF602912005E12006EE53EC39420400317
:10396B00753E00E542C39420500FAE3E053E7452A7
:10397B002E31DAEFF0054280037542203134EF60CF
:10398B0023120066E543D394004019E5419420408F
:10399B0003754100AF41054174722F31D2E0FF1224
:1039AB0000461543D0FFD007D006D005D004D00376
:1039BB00D002D001D000D0D0D082D083D0F0D0E0D4
:1039CB0032E5ED5404FF22F582E4342CF58322F525
:1039DB0082E4342CF58322E540C394204003E4F5C4
:1039EB0040AF40054074522F31DAE0FFC2ACE542E4
:1039FB00D3940040021542D2AC22902D8BE0120ED4
:103A0B002C902D90E0900001120E3E902D91E090A5
:103A1B000002020E3EAB05E4FCFD902F90EBF00292
:103A2B0006EF902D8DE0FF22E4902D8DF022E4F532
:103A3B00FFEFF5D8E4F5FF53D60FEE540FC4F8544F
:103A4B00F0C8E4C4540F4842D622E4F5FF8FD422C9
:103A5B00E4F5FFE5D1540133333354F8FFE4F5FFBC
:103A6B00E5D354074FFF22EFB40109D2AD75FF0127
:103A7B0043AE4022C2AD75FF0153AEBF22E5C85421
:103A8B0002FF75C80222E5C85401FF22EF600490C3
:103A9B002E81F0900536E0FF9005261211FD1208DD
:103AAB00E9900536EFF0604B201B48902E7FE0C36A
:103ABB0030E501D3921F902E82711A902E80E090E8
:103ACB0005A5F0902E7E7113743AF0A37497F090C5
:103ADB000536E0FBAD4FE4FF120B3CEF7029902E47
:103AEB00817402F0902E7CE0FEA3E0F5828E837F42
:103AFB00028011902E81E0FF902E7CE0FCA3E0FD74
:103B0B00F5828C8312133D22E09005A6F0A32212BE
:103B1B0011FD9005A2021206902D989152902DA3A3
:103B2B007403F0902DA0E05437F0E0FE5420902E5B
:103B3B007FF0902DA1E0FDA3E0902E7CCDF0A3EDC6
:103B4B00F09138902E82121206902D9FE0902E80CD
:103B5B00F0902D991211FD900526121206EE4420BD
:103B6B00902E7EF0E4902E81F0C21BF548902D999B
:103B7B001211FDAF481208E98F48EF602A7D03123E
:103B8B000A7940E9902D9FE0D3941940037F0022DE
:103B9B00AF48120A745008902DA37401F08008905E
:103BAB002DA37402F080C6902D9FE0D39482400326
:103BBB007F00227F02120ADD902DA4121206EA4921
:103BCB004B6059902D98E0FF902DA41211FDE92424
:103BDB00B69147902DA0E0FE30E01BE4900536F047
:103BEB00913EEE6401A3F0A3743AF07497912A907E
:103BFB002DA3E0FF801E902DA3E0FF913E902DA002
:103C0B00E090058BF0902E7CE0FDA3E090058CCD31
:103C1B00F0ED912A7D02120B327F01227F0022A34D
:103C2B00F0902DA41211FD90058E121206902D9C72
:103C3B000211FD902D9FE090058AF022F9E43AFAEB
:103C4B00EF020E2CEEF0A3EFF0A3021206C003C09E
:103C5B0002C001902E241211FD902D9C1212069081
:103C6B002E27E0902D9FF0902E28E0902DA0F09025
:103C7B002E29E0FFA3E0902DA1CFF0A3EFF0D00110
:103C8B00D002D003AF4F6123E4FF302A037402FF4D
:103C9B0022200005D2120209C5C322AF4222C2ACB8
:103CAB001217E1EF7004E54360047F0180027F008F
:103CBB00D2AC22C2ACC374209543FFD2AC22902F5E
:103CCB0077B146E58F20E0FBB14DE4FF902F7712E3
:103CDB0011FD8F82B102F5930FEFB410EFE4FF905B
:103CEB002F7A1211FD8F82B102F5940FEFB410EF02
:103CFB00221211FD1E8E82758300020DAA902E8555
:103D0B00B146E58F20E0FBB14D7E10902E8891FCE3
:103D1B00F593EE70F67E10902E8591FCF594EE7077
:103D2B00F67F01B15DB1A2EF70FB7E10902E8B126E
:103D3B0011FD1E8E82B174EE70F22212120675FF07
:103D4B00012275FF01538F0675FF01538FF075FF2D
:103D5B000122EFB40107B1934401F58F2275FF01E6
:103D6B00E58F54F04406F58F22758300E593020E20
:103D7B003E90306FB146E4FF90306F1211FD8F8291
:103D8B00B1740FEFB410F12275FF01E58F54F622D9
:103D9B00B1934408F58F2275FF01E58F5401FF2283
:103DAB0075FF01E58F5408FF22EFB4010775FF0182
:103DBB0043AE202275FF0153AEDF22EFB40107752E
:103DCB00FF014391202275FF015391DF221212064E
:103DDB00902D5AE0540F22C2077B007A00794F9046
:103DEB002F381212060B7A0379C122F9E43AFAEE54
:103DFB008FF0020F8C75F005A424F3F9740035F0E5
:103E0B00FEAF0122FDEF4DFFE5F08FF0020F8C129C
:103E1B0011FDE92405221211FDE92402F9E43AFA15
:103E2B002275F01DA42463F9740535F0FEAF012251
:103E3B00E92408F9E43AFA22AF017B017A0579CB40
:103E4B00902F347402F012155F9005CBE0227B01AA
:103E5B00902F0AF0A374FFF0229400902EE0F0A3B1
:103E6B00CEF022E924FFF9EA34FFFA020D91902EED
:103E7B00FB021206E0FEA3E0FFF58222E0FFA302A5
:103E8B0011FDFF1211FDC3E99FF9EA9EFA22E4909E
:103E9B000564F07B017A0579720208D525E025E0EF
:103EAB002466F582E43405F58322E0FFA3E0902E2F
:103EBB003BCFF0A3EFF022E0FFA3E0902DE9CFF092
:103ECB00A3EFF022FF8D828C8302133DE0FCA3E075
:103EDB00FD4C22242DF9E43AFA7D04E4FF22EEF0A6
:103EEB00A3EFF0AA06F97B0122902EE0E4F0A322C7
:103EFB007B017A05792022FFE0FCA3E0FD22FA7416
:103F0B000775F0D0020F8C7407F0E4A3F0227B014D
:103F1B007A2A7922227A05794D7F04020899FFE0EB
:103F2B00FDA3E0FB2275FF01438E1075FF012224D8
:103F3B002CF9E43AFA7440227B01902F0AF0E4A3A7
:103F4B00227B017A2F79807F0222EEF0A3EFF07BA8
:103F5B000122F0A3F0A3F0A3F022FFAEF05407640C
:103F6B0003222DF582EA3CF583227431F0A3749978
:103F7B00F022F0A3EDF0E4A3F022E0FEA3E0FF7C3F
:103F8B000022F582E43405F58322902E5FF0A3EF37
:103F9B00F022FF54F0C4540FFE227401F0AE04AFB4
:103FAB000522AA06A907021339AF03EAF0A3EFF023
:103FBB00229003C1E0C394C0229003C1E0FFA3E0B1
:013FCB0022D3
:107F7E000200022490294902043D02294B2979006E
:107F8E003304052202297E318008070505220231BD
:087F9E008531930013FF052259
:107FB000FFFFFFFFFFFFFFFF7FC600000000000084
:067FC000000003080000B0
:10800000EF547024F0602624F0603C24F060522489
:1080100030706730510B117E8002C333D8FC428030
:1080200022117E8002C333D8FCF452802230510BDF
:10803000117E8002C333D8FC429022117E8002C39D
:1080400033D8FCF452902230510B117E8002C3339E
:10805000D8FC42A022117E8002C333D8FCF452A087
:108060002230510B117E8002C333D8FC42B0221162
:108070007E8002C333D8FCF452B02275FF01EF5466
:1080800007FF7401A8070822EF547024F06017243A
:10809000F0601E24F060252430702B117B8002C319
:1080A00033D8FC42FD22117B8002C333D8FC42C985
:1080B00022117B8002C333D8FC42CA22117B80028A
:1080C000C333D8FC42CB22EF547024F0601824F064
:1080D000602024F060282430702F117B8002C3338D
:1080E000D8FCF452FD22117B8002C333D8FCF45239
:1080F000C922117B8002C333D8FCF452CA22117BFF
:108100008002C333D8FCF452CB22903030EEF0A37F
:10811000EFF0A3EDF0E0FF14F0EF7002C32212E2E3
:108120000612046BAD07305810903032E0117F809A
:1081300002C333D8FC4DFD800F903032E0117F80B8
:1081400002C333D8FCF45DFD12E206023A20AD070B
:10815000E546600D30090A7E1F7FCAD258310AC237
:1081600017902A17E0700E902A190412DEC612CC5E
:108170006FF012CB1C229030B5EFF0C003C002C0EC
:1081800001A801AC02AD03D001D002D0037E007F74
:1081900013120D6B902A56E012131381C3018273E0
:1081A0000284CD0384E304845405847C06849B0705
:1081B00084EA08850709851D0B85390F850F100096
:1081C000008550E4902A51F0302331123DDB6401E8
:1081D000702A902A57E064EF7015902A5CE020E73F
:1081E0000E902A5812A7A6600612900E12D0519037
:1081F0002A57E0B4EF06A3E0FF12C8D6C21E9030A3
:10820000B5E0C37001D39218C204E4902A1EF09026
:108210002A567402F09029CBE0FFB4030A902A5842
:10822000E0902A57F0800FEF640160079029CBE0BF
:10823000B4020312BC0D9029CBE07F06B403027F89
:108240000190299FEFF0902A5BE0FE30E502D21FFB
:108250001298899005A57401F0EE12D74D902A5717
:10826000E0FB902A51E0FFAD4F120B3CEF6002A102
:10827000508128E49029F8F09030B5E07002613A1E
:1082800090299FE014F07015E0700830180F12E389
:1082900037600A9029CBE064016002613A90299F1F
:1082A000E06020902A5BE0FF30E502D21F1298893F
:1082B000740112D748902A57E0FB12CD026002A148
:1082C00050812812E337707B902A56F0902A5CE0A8
:1082D00020E75A902A58E0FF12C8D6902A58E0FFAB
:1082E0007D0112B9D7201408902A5812A7A660421F
:1082F00012900E12D051301728300925E546602122
:1083000012DD0B902A58E0902A20F0902A5674052E
:108310001298889005A5740912CCF36002A15081CF
:108320002820170E902A58E0FF314E8005E4902A4D
:1083300058F0902A58E0FDA38174C2189029CBE030
:10834000B40307E4FBFD7F2381CA12E3866007EFD5
:1083500064026002A150902A57E0FF12A1409029C8
:1083600088EFF0902A57129E8D12D051902A57E034
:108370007F2112DB72201702812B200902812BE55D
:10838000467002812B902A57E065467002812B903F
:108390002988E060099029D0E020E102812B902A11
:1083A00056740612CD35740D12D73E902A59E090BE
:1083B0002A4EF024FE12C6C51297AC7A2A792112F1
:1083C0009B55902A22E020E114902A4EE0FF14F001
:1083D000EF12E1A71297AC7A2A19129B5512B3B982
:1083E00012A665902A4EE004FF902A0AF012E10BD3
:1083F00012B7F4E94A701A902A0AF0902A567406C5
:10840000129888902A4EE00412CCF06002A15080AD
:1084100017902A0AE0FF7B011297A812B3B9129BAA
:1084200055902A57E0FF314E02D75A201707902A5D
:1084300057E0FF314E12C6D66002A15012E2A112DF
:10844000DB7A301409902988E0600302E2D1E490DD
:108450002A57F02212E27F700C902A57E0FF12B3E5
:10846000C430010822902A57E0FF314E902A57E08D
:10847000FD902A59E024FBFB7F21804E12E27F9081
:108480002A577007E0FF12B3C48004E0FF314E1298
:10849000C6D66002A15012E2A1802F9030B5E070E4
:1084A00015902A57E0FF12DD59EFD39402400EE4F5
:1084B000902D5AF08007902A57E0FF314E123DDB95
:1084C000700312CBEE12CF337F2202DB7A12B3FCA1
:1084D00012D0482406FEE433902A5DF0A3CEF07F4C
:1084E0002F802912E2BD7F7C802212B3FC12D0487B
:1084F00025E0FFE433FEEF2407FFE43E902A5DF021
:10850000A3EFF07FB4800512E2BD7F7C02DC721223
:10851000C7B87E097FDEE4FB7D1402B0569030B50B
:10852000E070147C0A7D10741412E22612CB1C90A9
:108530002A1DE0701B8016801412E27F700F12B3A8
:10854000BF7C0A7D0B746412E22602CB1C12B7D3E7
:1085500022902DBF121206902DC2EDF07401C39D22
:10856000400302900D902DC31211FD120D91902D1C
:10857000C6F0E9240112949B902DC8F0902DC312EF
:108580009495902DC7F012289240FB121427129850
:1085900082120D91FFC394204032EFD394FF502CF0
:1085A000902DC2E0FD949F5023902DC6E030E7034C
:1085B00002900D129498902D5DF0902DC31211FD34
:1085C000902F25121206129882020C7712988212AE
:1085D0000D916401600302900D902DC6E030E6031A
:1085E00002900DE9240112949B12131386AD018AA7
:1085F000BC028ACD038C32048CD205895F068912B5
:10860000078B53088BA0098BC40A8BD70B8D400DA9
:108610008E920E8C250F8F00118F6E138BE31A86AE
:10862000291F86A1230000900D12CD367420F01270
:1086300094927055902A20F0A304F0129882E924B5
:108640000312949BFF33333354F8902DC9F01298E2
:108650008212E21E902DC912A4FC7023902DC91223
:10866000A7A6601B902DC912901112D051902DC950
:10867000E0FD129013E4902F76F07F20120C819091
:108680002DC9E014F070C78005E4902A21F01298FB
:108690008912D5890412D7AC902DC812E1B1020B12
:1086A0003CE53864046006E4902A4FF022902DC225
:1086B000E0C39406E49400500302900D902A4FE02A
:1086C000FF60209029CBE0B40314902DC6E030E782
:1086D0000302900D902DC8E0FEEF6E600622E4903C
:1086E0002A4FF01294925407C39403500A129882AE
:1086F00012E21EE4120E2C123DDB6401701A3023CC
:1087000017129882E9240312949B5406FFBF0208B3
:1087100012E365C2230288C8300B0302900D902A31
:1087200056E0600302900D902DC2E0902A59F0129D
:108730009882129D04902DC8E0FC902A58F0902D4C
:10874000C6E0902A5CF07F1030E4027F00EF440125
:10875000FF902DC6E0FE54024F902A5BF012E337E3
:10876000704A129882E9240112949BB4230EEE7F82
:108770000070027F01EF30E40302900D200F0A9099
:1087800029D0E030E10302900D20050A9029D0E0C5
:1087900020E10302900DE4902A57F09029D0E07F69
:1087A0000030E102AF04902D5E02884F129882E9FA
:1087B000240112949BB423012212E3866008EF6423
:1087C0000260030288FD200F0A9029D0E030E10307
:1087D00002900D20050A9029D0E020E10302900DBF
:1087E00090299AE020E00BD21E123EFB1297AC12A9
:1087F0003F20902DC8E0FF70030288D030080A9017
:1088000029D0E020E10302900D902DC6E020E76C16
:108810009029CBE0B40204C20F803712E348502500
:10882000123DDB6401702B9029D0E030E12420233D
:1088300005EF64EF701C3023047FEF800312DDB579
:10884000902A57800A902DC8E0B4EF0612DE02EF9E
:108850008070902DC8E0902A57F07F2612DB72902E
:1088600029CBE06011902A567402F0129013E4FFB5
:10887000128176D22022E4902A56F022123DDB6447
:1088800001600302900D9029D0E020E10302900DD9
:1088900030230D12E3485008902DC974EFF0801872
:1088A000902A57E0700A12DDB5902DC9EFF08008CC
:1088B000902A57E0902DC9F0902DC9E0FF600690F6
:1088C0002A57F0803012E3651290137F01020B8764
:1088D0009029D0E030E10302900D902A57E0FF602C
:1088E0000912A140EF600820080512DE02EFF090A7
:1088F0002A57E0600302D6CDE4FBFD41B8902DC8B5
:1089000012DC69902A59E024FB902F76F07F8402D4
:108910000C81902A56E0FF64036004EFB408030260
:10892000CD74902D5AE0FF20E50302900D12949231
:10893000FE902D5DE06E600302900D300B0F902DC8
:10894000C8E0FE902A57E06E600302900DEF54DFFE
:10895000902D5AF030E70302900DE4FF020B9B903C
:108960002A56E0FF64046008EF6409600302900D7A
:1089700012C7B8129492FD2403F544902DC2E0C3AF
:108980009544500241B5300B0B129CA112D02DEF33
:108990006002C211902A56E0B4090C12987DAC0214
:1089A000AD0112A5648013902DC8129F5C30E70AB8
:1089B00012987DAC02AD0112A720E4F54412949206
:1089C000FFE544C39F502774AB2544F582E4342867
:1089D000F583C083C082E0129CA0E54412DB25121F
:1089E0000D91FEEF4ED082D083F0054480CF1294DB
:1089F00092FF902923E0FEEFD39E4002EFF0E4FFC8
:108A000012C6E1EF600122300B03201137902DC810
:108A1000E0FD7B017A2879AB7F1D12D2318F44EFC4
:108A20007022902DC812CFB7600B300908902DC866
:108A3000E0FF12814E7F22300B027F2312E2F612FA
:108A4000DB7AC20BE4902A56F0300925E546602116
:108A5000902DC8E0902A20F0902923E0FF902A2151
:108A6000F07B017A2879AB1297AC7A2A7922129B93
:108A700055300B0830110512E2F6803C902DC8E00D
:108A8000FF12D337902A567410F0E546601F902DE0
:108A9000C8E0FF12DD59BF0414902DC8E0FF7C0A26
:108AA0007D1512D5E7500302900D02CF0D129013E1
:108AB000E4FF02817612E2F67F238122902DC8E046
:108AC000FF12E3154405FDE4FBFA029E96902DC2C9
:108AD000E0C394074003D38001C3400302900D908C
:108AE0002D5AE020E40302900D20040302900D3083
:108AF0000715C2077B007A00794F902F38121206B3
:108B00007A00790012A01F1294927007FBFAF9AF55
:108B10004F80051290137F0112D051C20412E187D9
:108B2000129492F54F129CA11297AC1218157F0463
:108B3000129B55121815AD4F12A80012E31C120B10
:108B4000B4E54F600302900D129EE8129E8F7F01E4
:108B500002D051902D5AE020E40302900D2004032E
:108B600002900D902DC2E0FFC3940350062016031F
:108B700002900DEFC394034021129492FF30E01A4B
:108B8000E538B40107EF30E10302900DE538B40297
:108B900007EF30E20302900DD21912E31C020BB969
:108BA000C204129882E9240312949BFFE4FD12D1BF
:108BB00030123DDB6406600302900D902DC21298C6
:108BC00080020BBE123DDB6406600302900D902D07
:108BD000C2129880020BC3902DC8E0FF129492FD40
:108BE00002C83D12DC616008EF6414600302900D5E
:108BF000129492540F6026129882E9240312949BD7
:108C0000902A57F0FD7E207F07123A20902A56E0E6
:108C10006414600302900DF07F0102DBFEE4FBFDB3
:108C20007F2402DB7A902D5AE020E40302900DD2DB
:108C30002322300B0302900D123DDB64017003020E
:108C4000900DC204300A0302900D902DC2E0FFD3B4
:108C50009422400302900DD20A1298821297AC7BA4
:108C6000017A2979A0129B5512D5F012E38E2403C4
:108C7000FDE433FC902DC2E0FB7A00D39DEC121C86
:108C8000FE400B74A32F12D449E09029F8F012E3B0
:108C90008E2404FDE433FCD3EB9DEC6480F8EA649D
:108CA0008098400F74A42FF582E43429F583E09076
:108CB0002A18F0902DC8E09029C112E314440190C5
:108CC00029C2F0D23690051FE0902A09F0E4FF0295
:108CD000D3A2300B0302900D123DDB64017003023E
:108CE000900D9029A07401F0A3740612E3144401BE
:108CF000FC9029A2E0700204F09029F8E0FE90298F
:108D0000A2E0FD12D447EEF07B017A2979A01298F7
:108D10008F9029F8E07E0070027E01ED2404C39E4E
:108D20009005A5F0A3ECF0A312D591902DC8E0FB1F
:108D300012CD02600302900DFBFAF97F0102D37895
:108D4000129492902DCAF0700302900D902DC2E003
:108D5000FFC39407E49400500302900DEFD3942CCA
:108D60004003742CF0129C99600302900D129882BB
:108D7000E9240612949B7002C1569029D574FFF025
:108D8000129882E9240412949BFF20E24E440412BC
:108D90000E2C129CA11297AC12C6C67F047E001244
:108DA0009CAFE49029D4F0902DC2E0FF24F9FDE4BB
:108DB00034FFFCD3ED9400EC94004016EF24F9123C
:108DC00098811297A1FA1297AC7B017A2979D51272
:108DD0009B55902DC2E02402F08037902DC2E024F4
:108DE000FD129CA01297AC12C6C6129FEF20E12282
:108DF000129CB7902DC2E024FA12988112D249FA3F
:108E00001297AC7B017A2979D3129B55902DC2E041
:108E100004F0902DC2E024F7F544C374239544FD7B
:108E200074D52544F9E43429FA129F8A902DCA1288
:108E30009E8D12D051129C997043902DCA12DC69FC
:108E4000902DC2E024FA902F76F07F40120C817FA3
:108E50000112D1838027902DCA12A7A6700C129CF4
:108E600099600302900D7F05C1FD902A05E0B403CF
:108E70000312E289902DCAE0F54712D149902A05E4
:108E8000E0600302900D12E18F9029FC741FF00244
:108E9000CBF5129492700302900D129C996003021C
:108EA000900D129882E9240312949BFF902DC2E04A
:108EB00024FC6F600302900D129882123E241297D8
:108EC000AC7B017A2A79207F21129B55902A21E0E0
:108ED000FF902A20E0FD123F1912D2318F44EF900B
:108EE0002A207007E0FF12CFBE8005E0FF12D337C3
:108EF000129C99600302900D12E2897F0202D183D5
:108F0000902DC2E0FFD39404400302900DEFC39470
:108F100003500302900D902DC812A7A6600C902D4F
:108F2000C812AFE420E10302900D129492FF12A147
:108F300040EF600E129492FF12DD9AEF20E10302DF
:108F4000900D12949212C8E912E309401612988209
:108F5000E9240312949B30E006D214D2098004A2C3
:108F60000D920912C831129013E4FF02DB2D902AF2
:108F700005E06406600302900DC2141294926067CB
:108F8000E4F544902A20E0601E854644902DC8E018
:108F9000F54612E309401A129882E9240312949BC1
:108FA00030E00ED214800A902DC8E0B5460312E3DB
:108FB0003E12C8E0129013E4FF12DB2D9029C91273
:108FC000178960098F828E837F0512133DE5446007
:108FD00036654F6032E5446546602CE4FBFA7D055A
:108FE000AF44120BC88020902DC8E0B5460E12E3A6
:108FF0003E12C8E0129013E4FF12DB2D9029C91233
:109000001789600312CC2312C83112CAEF22902AAA
:1090100058E0FF7B007A007900227E7F7F9C902DB4
:1090200025EEF0A3EFF0F5828E8312E16F12E327B5
:109030006076F1B212E36E902D19123E8DF1A1907F
:109040002D2212AE497A2D7930F1C2902D30E0FEFA
:10905000A3E0FF907FC07401936F7003E4936E7F71
:109060000060027F01902D27EFF0902D221211FD5C
:10907000E92402F9E43AFEAF017B017A2D7930F15F
:10908000C2902D27E0902D30123F02907FC27401D4
:10909000936D7003E4936C7E0060027E01EF4E904E
:1090A0002D27F060037F002212E1DDAE02AF01AC9C
:1090B00002AD01E02DFD902D2AE03CCD2402CD34FF
:1090C00000FC12BFF6902D1912E3277002217921BE
:1090D0006C12E352947EEC947F500241C512E1DDA4
:1090E0008D828C8312E16F12E327603CF1B212E3B0
:1090F0006EFF902D19123E1AF9E43AFA123E915180
:10910000F9902D1F1211FDC003C002C00151F1D30F
:10911000D082D083D0E0E99582EA9583401112E2B3
:109120005B51F112ABD0800712E2C7111351F91253
:10913000E247403851F112E2B0CF24FBCF34FFFEBA
:10914000C006111312E2FE123E66D00612164251FC
:10915000F112E2DECF24FBCF34FF51E112AE4D7AA3
:109160002D792A12A83A7402F0121642902D257415
:10917000FF75F0F6120EFD01D1902D25747FF0A33E
:10918000747EF012E352949CEC947F400241C590AF
:109190002D25123E7F8E8312120F902D1C12120667
:1091A0008F828E8374069324FEFE74059334FF90A1
:1091B0002D2AF0A3CEF08D828C83740393FF740468
:1091C00093902D28CFF0A3EFF0902D2812178970DF
:1091D00002416F902D2512AFCF74079324FC601CC1
:1091E0001460282403703B7A00790451F751F1C3CD
:1091F000EF99FFEE12E23F902D28801A7B017A60F2
:10920000790051F951F112E234800B7A60794051C2
:10921000F751F112E234F0A3EFF0123E24902D1C2E
:10922000800DE4902D28F0A3F0FBFAF9902D1F1289
:109230001206902D1F1211FDAE02AF0151F1E96F20
:109240007002EA6E600812E25B51F112ABD0902D11
:109250002512C1467407936402701B7E007F157D42
:1092600054123A207E007F167DA5123A2080071204
:10927000E2C7111351F912E247403E51F112E2B038
:10928000FEC006111312E2FE123E66D0061216420E
:1092900051F112E2DE51E112D2E9902D1C121206B8
:1092A000902D2512C14612E1F612AE4D7A2D792A83
:1092B00012A83A7402F0121642902D25E475F00AB5
:1092C000120EFD2183902D2A123F757E007F007BB8
:1092D000017A2D792A12A83A7402F01216427F02FE
:1092E00022FE902D2BE029FD902D2AE03AFC12BFA2
:1092F000F6902D1C0211FD7B01902D1F021206908D
:109300002FF0123C5212D2B871E94AC36001D34027
:109310000261E712E2EA5013E0FF94045002800277
:109320007F0471E9F1FAF1AC12E32E902D33121C97
:109330006E5467902D4671E824DF919B902D41710A
:10934000E824E8919B902D4771E824E9919B902DAA
:109350004871E824EA919B902D4971E824E6919B9D
:10936000902D3F71E824E7919B902D4071E824EB0C
:10937000121C7412E292902D331211FDF1F6E4905A
:109380002D3671E824DC121C7445F06052902FF0E9
:10939000E0602CA31211FDF1AC7A2D793A12E18034
:1093A00012D27FC003C002C00171E924DC121C7418
:1093B000F58285F083D001D002D003E4FF801D1236
:1093C000D27FC003C002C00171E924DC121C74F515
:1093D0008285F083D001D002D0037F0112133D11AA
:1093E00013902D3312120622F0902D331211FDE945
:1093F00022902D33121206E924E5919B6015E4902A
:109400002D4A71E8121D09120E2C7E0A7FC9FD7CBF
:1094100000807C71E92401919BD39401403B120BA5
:109420002D902D4AEFF07E0A7FC971E924B7919BF8
:1094300030E71971E924BB919B20E01071E924BC4D
:10944000919B12E35CB504047D07800971E924B1A6
:10945000919B12E3767C008036E4902D4AF07E0AE0
:109460007FC971E924B7919B30E71971E924BB9159
:109470009B20E01071E924BC919B12E35CB50404CD
:109480007D07800971E924B1919B12E3767C00028B
:109490000B28902DBF1211FDE92402F9E43AFA02DB
:1094A0000D91902FF4121206E94AC36001D34002D5
:1094B000A185902FF4919530E016B18624B7919B49
:1094C000540FFFBF0503D38001C34004F1F061F1E5
:1094D00012D2B8F1F012E2EA5013E0FF9404500205
:1094E00080027F04B186F1FAF1AC12E32E902FF4E2
:1094F000121C6E5467902D46F0B18624DF919B902C
:109500002D41F0B18624E8919B902D47F0B186243F
:10951000E9919B902D48F0B18624EA919B902D49CA
:10952000F0B18624E6919B902D3FF0B18624E7911F
:109530009B902D40F0B18624EB121C7412E292B184
:109540008624E5919B902FF77003F080037401F05F
:10955000B18624DC121C7445F06026902FF7E0FFE2
:1095600012D27FC003C002C001B18624DC121C7479
:10957000FDACF0F58285F083D001D002D003121348
:109580003DF1F0F1F622902FF41211FDE92271E97C
:109590004AC36001D3507A71E9122DE874FF120DAD
:1095A000D7120D91FFD394014007EF94035002802E
:1095B0004F71E92401919B6401704E902D33121C70
:1095C0006E123F65703A71E924B6919B654F703019
:1095D00071E924B7919B20E72771E924B9919BD3C6
:1095E0009440501C200A1971E912E21FEF54F8440C
:1095F00002FF123DFA71E924B7919B4410120E2C20
:10960000902D331211FD029B88E4902D36F0120B41
:109610004122E53B6002C1B6D1BAE92404919B9096
:10962000283930E615F19EFAE475F064120F8CD1FA
:10963000BA7406120E2CC21C802E123E1A919B4444
:1096400020FFD1BAE92429F9E43AFAEFD1B7E912B7
:109650003F3AD1B7E9123EDE129F8ED1BA7405D1DE
:10966000B7F1A1123F09D21C9028399195FFD1BAC8
:10967000E92403919BFDD1BAE92420F9E43AFAC028
:1096800003C002C001D1BAE92406919B900597F06E
:10969000D1BAE92404919B900598F0A3740AF0A331
:1096A0007492F0D001D002D003120B37EF7007D1C3
:1096B000BA7407120E2C22120E2C9028390211FDBA
:1096C000E53B24FD60531460122403706F12B0EB6D
:1096D000506AC230D1BA121D088057D1BAE9240BA2
:1096E000F9E43AFAC003C002C0017B017A28798606
:1096F000F1ACD001D002D0037F13129B55D1BAE94F
:109700002404919B20E002802C901215E0FFD1BA36
:10971000E92413129C91D23022D1BAE92403919BFF
:10972000B53C19901215E0FFD1BAE92413F9E43AD7
:10973000FAEF120E2CD1BA7407120E2C22D1BAE411
:10974000D1B7E92405919B146003047050D1BAE9A4
:10975000242C919B540F9030B8F0902839602E1231
:1097600011FDE9242B919BFF12182EEFFD9030B8CC
:10977000E014F075F064A42419FFE435F0CF2DCF88
:109780003400FED1BAF1A1FAEE8FF08006F19EFA14
:10979000E4F5F0120F8CD1BA7402120E2C221211C1
:1097A000FDE92407F9E43A227A2A791E902EF40280
:1097B0001206902D191211FDAE02AF017B017A2D18
:1097C0007928902F347402F002155F90305A1212EB
:1097D0000612E37E24B7919B30E712540FFFBF01BE
:1097E0000C12E37E24BC919BC4540FFF227F002205
:1097F000902FF40211FDE4020E2C24BDF9E43AFA94
:1098000022AD07ED547024F0601F24F0603224F084
:10981000604124307052116A8005C333CE33CED8F4
:10982000F9AC8011766001D322116A8005C333CE72
:1098300033CED8F9FFAC90ECFBEF5BC36001D322D1
:10984000116A8005C333CE33CED8F9ACA01176604F
:1098500001D322116A8005C333CE33CED8F9FFADD0
:10986000B0EF5DC36001D322C322ED5407FF740142
:109870007E00A8070822FFECFBEF5BC322902DC8F7
:10988000E0FF902DBF0211FDF07B017A2A791E9036
:1098900005A2021206E4902A50F0C25A9029CCE0A8
:1098A000FFC3940450079029CBE0B40108EFC394A0
:1098B0000140024160902A0B7401F07F0C301202CB
:1098C0007F14902A0CEFF0300C02411E9029CCE05E
:1098D0007031902A1BE0FF12D7EE5017902A1CE03F
:1098E000FF12D7EE500D902A1BE0FFA3E0FD12A659
:1098F000055010713DC213E49030AE51B3E4A35152
:10990000BD21C19029CCE07004D213713D902999FA
:10991000E06401706C9029CCE06006902989E060D9
:1099200060E49030AEF09030AEE0FFC39404501588
:1099300074892FF582E43429F583E060089030AE15
:10994000E004F080E17B017A2979891297AC7A2AC8
:10995000790F7F04715551B49029CCE0FF51C99023
:1099600030AEE0FE902A0EE02EF09029997402F0BD
:10997000902989EFF09029CC04F090298DE0FF80A8
:10998000407B017A3079AE902F50121206A25A9283
:10999000597A2A790F12DCAA505D7B017A2A790F55
:1099A0009030AEE012E1D312D873404751B451C5A4
:1099B0009030AEE0FF902A0EE02F51BD902922E0BA
:1099C000FF12DCEE902A13EFF0E0FFC007902A1C94
:1099D00012AFE4546025E0FFC007902A1B12AFE4E9
:1099E0005460C4540FFED0E04EFED0E04E902A13D7
:1099F000F0802BD25A8022902922E0FF7B017A2A24
:109A0000795012D809902A1CE0FF902A1BE0FD1221
:109A1000D9F1925A205A02D20C305A022181300CCC
:109A200013E49030AEF0902A0DF051C551BE902A4B
:109A3000137408F0902A13E0FF9030AEE0FE240F7C
:109A4000F582E4342AF583EFD185118FEE24059059
:109A500005A5F0A3740512E19812CD02705480366A
:109A6000902999E064027036902A0B04F07F24302C
:109A700012027F25902A0CEF51B3902989E0902A99
:109A80000EF0E4902999D185118F12D5890412E145
:109A90009812CD02701CFBFAF97F0202DC8112DC05
:109AA000A2121789600C1290138F828E83E4FF122A
:109AB000133D22F0902A1BE0902A0DF022F090290D
:109AC000CCE004F0229029CCE0C454F0902A0EF0AF
