:020000040000FA
:100000000202DF0218034100E0002202180B222244
:0100100022CD
:07001300021813E4FFE1D223
:07001B0002181B75C8012249
:030023000218239D
:03002B0002182B8D
:030033000218337D
:03003B0002183B6D
:030043000218435D
:03004B0002184B4D
:030053000218533D
:03005B0002185B2D
:030063000218631D
:03006B0002186B0D
:10007300021873BB010689828A83E0225002E722B9
:10008300BBFE02E32289828A83E49322BB010CE54F
:100093008229F582E5833AF583E0225006E9258239
:1000A300F8E622BBFE06E92582F8E222E58229F57D
:1000B30082E5833AF583E49322BB010689828A832E
:1000C300F0225002F722BBFE01F322F8BB010DE53B
:1000D3008229F582E5833AF583E8F0225006E92583
:1000E30082C8F622BBFE05E92582C8F222C5F0F8D4
:1000F300A3E028F0C5F0F8E582158270021583E0CD
:1001030038F022A3F8E0C5F025F0F0E582158270FF
:10011300021583E0C838F0E822EF2BFFEE3AFEED3C
:1001230039FDEC38FC2275F008758200EF2FFFEEE5
:1001330033FECD33CDCC33CCC58233C5829BED9A10
:10014300EC99E58298400CF582EE9BFEED9AFDEC6E
:1001530099FC0FD5F0D6E4CEFBE4CDFAE4CCF9A8B4
:100163008222B800C1B90059BA002DEC8BF084CFBC
:10017300CECDFCE5F0CBF97818EF2FFFEE33FEED93
:1001830033FDEC33FCEB33FB10D703994004EB99BD
:10019300FB0FD8E5E4F9FA227818EF2FFFEE33FED0
:1001A300ED33FDEC33FCC933C910D7059BE99A4005
:1001B30007EC9BFCE99AF90FD8E0E4C9FAE4CCFB1D
:1001C3002275F010EF2FFFEE33FEED33FDCC33CC71
:1001D300C833C810D7079BEC9AE899400AED9BFDFA
:1001E300EC9AFCE899F80FD5F0DAE4CDFBE4CCFA0D
:1001F300E4C8F922EF5BFFEE5AFEED59FDEC58FC23
:1002030022EB9FF5F0EA9E42F0E99D42F0E89C451F
:10021300F022E8600FECC313FCED13FDEE13FEEFC9
:1002230013FFD8F122E8600FEFC333FFEE33FEED87
:1002330033FDEC33FCD8F122E0FCA3E0FDA3E0FEA8
:10024300A3E0FF22E0F8A3E0F9A3E0FAA3E0FB2296
:10025300ECF0A3EDF0A3EEF0A3EFF022A8828583E8
:10026300F0D083D082120276120276120276120244
:1002730076E473E493A3C583C5F0C583C8C582C878
:10028300F0A3C583C5F0C583C8C582C822E0FBA31C
:10029300E0FAA3E0F922F8E0FBA3A3E0F925F0F0EC
:1002A300E582158270021583E0FA38F022EBF0A3A1
:1002B300EAF0A3E9F022D083D082F8E493701274B9
:1002C3000193700DA3A393F8740193F5828883E4DB
:1002D300737402936860EFA3A3A380DF75812F0279
:1002E3000855900A1951B0AE071FEE6012900A1C10
:1002F30071031176FE900A197103EE11BC80E82296
:10030300E475F0018090900A54EEF0A3EFF09000B2
:100313004FE064016002619BC3900A54E09408506B
:100323000BE4FF914F900A54918380ECE4F50DFBAD
:1003330071C4AF0C121010E50DC39408504771C27D
:10034300E50D7F0071BCEF29F9EA3EFA900A1C51D2
:10035300B07B017A0979007FFF51E5E50DFEE424C6
:10036300FFFFE43E71BC8F828E83118F9009FFF0F3
:100373007B017A097900900A3DE50DF0AD0C12106E
:1003830037050D80B2900050513BE42FFFEE340847
:10039300919490005002167F900054E0FEA3E0FF7A
:1003A30071BD900A54E0FDA3E0900A05CD120AA89E
:1003B300900054EEF0A3EFF022FE90200141907BD9
:1003C300007A00791091D175FF031176F5D375FF8B
:1003D3000390000171EF90000271EF90000371EF41
:1003E30075D40175FF03E5D55402FF22118FF5D3B0
:1003F30075FF0322900A33E0FEA3E0FF912D914F96
:10040300900A35513BEF24019191900A3551539055
:100413000A589149900A58E07002A3E0700BFF7EDE
:1004230008710991DFF01215FD2291B3CD24FFCDA0
:1004330034FFFCC3ED9FFFEC9E541FFE74082F9105
:10044300E8FF22900A1374FFF5F001F091B3541FF3
:10045300FC74082DF58274203CF583EFF0902006A0
:10046300E0B42019A3E0B40014902005E02401FFB8
:10047300902004E03400541FF0A3EFF022902006F4
:10048300E475F00101F09000CE513BEF241BFFE433
:100493003EFEE43DFDE43CFC2291C7EF2401919133
:1004A300120C867404F0D1E3918991CC91F1F0227E
:1004B300902006E0FCA3E0FD902005E02DFD9020B8
:1004C30004E03C229000CE413B900087415375FFEE
:1004D3000375D40222900A17E0FF8101900A587431
:1004E30008F0A3E422F58274203EF583E022900015
:0704F300817408F0A3E4226C
:10050800AEFFEE54CFFEEFC454F024804EF5FF2228
:10051800D119EF541FFFF1E0A37401F01215C09038
:100528000A10E0FCA3E0FDAE047805CEC313CE1399
:10053800D8F9FF900A13EEF0A3EFF0ED541FA3F0E3
:10054800A3E4F0900A33F0A3F0C3900A11E09420DA
:10055800900A10E09400407C9146900A15E0FEA3B2
:10056800E0FF900A33EE8FF011F0900A13E0700468
:10057800A3E06406700AD119900A13E48FF011F011
:10058800D119900A33E48FF011F0120DB2EF600424
:10059800F1DE8005E4900A12F0900A33120FD2704F
:1005A8001D912D900A17EFF0910191D891D8900ADA
:1005B80013E07002A3E0604791D8914680F071F78C
:1005C80071F771F7900A13E07002A3E0603171F7D8
:1005D800914680F0900A109183800A900A10E0708A
:1005E80002A3E0600BD1199101900A10914980EBA8
:1005F800120DB2EF6004F1DE8005E4900A12F0906B
:100608000A12E06002A12712166E7109900A35419C
:100618003B900081E0B4082DA3E0B40028120DA59A
:100628007B017A0179009000FD7408F0A3E4F0D111
:10063800E3120DA5E42FFFEE3408919491CCE490D9
:100648000081F0A3F0900083120E8990008351532B
:10065800900081E475F0013106FE740025F0F58202
:1006680074013EF583E0FF229000ED51539000F1B4
:1006780051B0110FF134EF6004111080F7120F7CA4
:1006880060099000ED513B7810D1D89000EDD1D49D
:100698009000ED513BE480279000F4120FD945F00B
:1006A80060219000F15190EA494B60119000F1519E
:1006B800901176FFD1DB9000F2918380DBE4FFD1CB
:1006C800DB80D5F1CD9000D77401F022513B78083A
:1006D8005115E4E5C820E2FB8FEB229000F6515358
:1006E8009000FA51B0110FF134EF6004111080F747
:0806F800F1EE120F956009906C
:1007000000F6513B7810D1D89000F6D1D49000F685
:10071000F1E99000FD120FD945F06011F1889000C9
:10072000FA5190EF11BC9000FB918380E5120EF915
:10073000E4FFE1D27F01F1D23002161212D2F18829
:10074000900A5DEFF0120EF9900A5DE020E002C21F
:1007500002300219F1779000D4EF1212DA600BA385
:10076000E0F46006EF30E702C202120EF9E4FFF196
:10077000D2A202E433FF22F1F77FD7D1DB7FFFD192
:10078000DBF18C9000D3EFF07FFFD1DBE5C820E2F6
:10079000FBAFEB22900A3E5153110FF134EF60048E
:1007A000111080F7F1EE120F956009900A3E513B4F
:1007B0007810D1D8900A3ED1D4900A3EF1E9F18860
:1007C000900A42F1CB900A42E0FF22EFF0120EF9BC
:1007D000E4FFEFB4010443FE202253FEDF22D119CF
:1007E000900A10E4F0A3EFF022513BE4C1DB7F015B
:1007F000F1D2F1F77F03229000D8E051B908190433
:10080000082114082615082B17083B300840340827
:100810004536084A3700000833531AEF851A80809E
:100820002F531BEF8008531BDF8003531B7F851B57
:1008300090801D531CDF851CA08015531DFE800D6C
:10084000531DEF8008531DBF8003531D7F851DB0CE
:100850007F0CDFFE2275FF03759E029017FAE4936A
:10086000900A51F075FF02E5E654036002419F755E
:1008700010DE7511AD7512BE7513EFC2AF75FF02B4
:1008800075E404F5E4751AFF751BFF751CFF751DF3
:10089000FF7516FF7517FF7518FF7519FF75FF02B5
:1008A00053E6BF91B6121102B108EF640160024134
:1008B0009690180893FE740193FF90007FEEF0A3CA
:1008C000EFF0F5828E83E493FE740193FFC3EE9400
:1008D00080500280047E807F008E148F159193FFDC
:1008E000F5828E83740293F51E740393F51F7404CE
:1008F00093F508740593F509740693F50A74079344
:10090000F50BC201EF4E700221F4EFF4FFEEF44F4D
:10091000700221F4E514451EFEE515451FFFE508AC
:100920004EFEE5094FFFE50A4EFEE50B4F4E700205
:1009300021F4E51FF4FFE51EF4FEE515F4FDE514D2
:10094000F44EFEED4FFFE509F4FDE508F44EFEEF31
:100950004DFFE50BF4FDE50AF44EFEEF4D4E70023F
:1009600021F47F03120508E50B24FFFFE50A712B34
:10097000640370247F02120508E50924FFFFE508DF
:10098000712BB402137F01120508E51F24FFFFE558
:100990001E712BB40102D2012001597F01120508FA
:1009A000713F900A05E51EF0E51FB1AB71207F0293
:1009B0007134900A05E508F0E509711E7F03713472
:1009C000900A05E50AF0E50B711E7F0112050890FB
:1009D0000A52E0FEA3E0FF7BFF7A187900E42515B8
:1009E000900A06F0E51434E8900A05711F4EC370B2
:1009F00001D39201300109D159EF6401600241969F
:100A0000D2001204C77B017A007964918C741BF0C8
:100A10001206E3900064E0B4800B71D3EF7006120D
:100A2000161BEF6002C20030006830011A9193F586
:100A3000828E83740C93FE740D93FF90007DE06EA4
:100A40007003A3E06F604B90005012025F0000182B
:100A5000001204C71204CCB1A5EF24011204919135
:100A6000867404F01206E390008712048C900087CD
:100A700012167F1204F1F090004F04F01205187462
:100A800040D3950C400C1203C2AF0C121010050C91
:100A900080EDE4FFB1D4E4F510F511F512F5130281
:100AA0001800E0FD900A05E4F0A3EDF0900A00EED6
:100AB000F0A3EFF0A31202B0900A05F1D945F0605F
:100AC00054900A02120290120076900A07F0900ADF
:100AD000031204837D80ED60DF7115EE7C0030E74A
:100AE000027C01900A07E05D7B0060027B01EB6CF9
:100AF000FCEF25E0FFEE33900A00F0A3EFF0AF0427
:100B0000EF600C900A00E06410F0A3E06421F0EDC7
:100B1000C313FD80C1900A00E0FEA3E0FF22A3F012
:100B200051AC900A52EEF0A3EFF022347F8F82F5A1
:100B300083E49322120508900A52E0FEA3E0FF7BB3
:100B4000FF7A80790022900000EEF0A3EFF0A3126C
:100B5000023B900008120253900006E0FFA3E090D1
:100B6000000CCF805F90000CF1D2605EC3EF944028
:100B7000EE94004006A37440F0800590000EEFF064
:100B8000919BE0FF918CEFF090000812023B12065F
:100B9000E390000EE0FFC390000DE09FF090000C8A
:100BA000E09400F090000812024790000EE4FCFD73
:100BB000FE12011C90000812025371CA919B51A2AF
:100BC000900000EEF0A3EFF0809B900000E0FEA309
:100BD000E0FF221204C79180900006E4F07405B192
:100BE000AB9175C006C0071204C7EF240712049129
:100BF0009180900006E4F0A37414F0D007D0069121
:100C000075C006C007120489918091A540067EFF39
:100C10007FFF800690006512023B900006EEF0A375
:100C2000EFF0D007D006917591A540301204C7EFC0
:100C3000241AFFE43EFEED3401FDE43CFC9180907B
:100C4000006512023BEF2401FFE43E900006F0A392
:100C5000EFF0900A56E0FEA3E0FF9175900069E086
:100C6000FEA3E0FF900A56E06E7003A3E06F7F00E2
:100C700060027FFF227146900A56EEF0A3EFF02249
:100C80009000020202537B017A0079839000FDE418
:100C9000F0A32290007FE0FEA3E0227B017A00799E
:100CA0000F90000E22E47FFF7EFFFDFC9000651296
:100CB0000247D3020204E4900A5EF0900A5EE0FF6D
:100CC000D3946F501EEF2410FFB1E6900A5EE0FE51
:100CD000E42EF582E4344FF583EFF0900A5EE004F1
:100CE000F080D87B017A4F7900900A05E4F0A37474
:100CF00070F07F0F7E1D51ACEF4E7F0070027F01C0
:100D0000901218EFF024FF22E49000D2F07B017AD9
:100D10000079BD1213429000BFE0FF7411D39F50C1
:100D20005DE4FFFEFDFC7B017A0A794F9000FDF047
:100D3000A37402F01206E3900A4FE0FEA3E0FFE482
:100D4000FCFDB19F1204C7EF2402120491B19F125F
:100D500015619000CE1202471201F7900A4DEEF095
:100D6000A3EFF09000CE120247900A4D12154FFEED
:100D7000E4FCFD12011CB19F9000D27401F09000C0
:100D8000D2E0FB6017E4FFFE7D02FC9000BFE02490
:100D9000EFF9F81202289000B7120253AF03229025
:100DA00000CE02025390008702023BA3F07F0F7E29
:100DB0001D22E4FFFEFDFC90008391AF7F00400206
:100DC0007F01227F0F7E1D51A4900A0C1202909089
:100DD0000A0F41A2AB07E4FF9000D2E06007D18682
:100DE000D19DE433FF2275FF03E4F597F1E7E59722
:100DF00020E1FB75FF03AF9922900A48EFF0A3EDC5
:100E0000F0A31202B0900A49E06046901218E06028
:100E100012900A48E02410FFB1E6900A4A120290AC
:100E2000EF8017900A48E06401900A4A70071202A6
:100E3000907480800512029074FF1200BC900A4BDF
:100E4000120483900A49E014F0900A48E004F0800C
:100E5000B4227D01B1F97B0122E49000FFF0900003
:100E6000D2E0601C9000B712023BE4FBFA7902F872
:100E7000D3120204500AD1861207949000FFEFF0BB
:100E80009000FFE0FF229000CE12023BEF24FFFF14
:100E9000EE34FFFEED34FFFDEC34FFFC22900A47F8
:100EA000EBF0900A43120253900A4312023B1207DE
:100EB00094900A47E06F603C12000F120734EF6015
:100EC0000512001080F5F17C600B900A4312023B82
:100ED00078101206D8900A431206D4900A431207DB
:100EE000E9900A47E0FF1206DB1207CD9000D774A5
:100EF00001F0D322C3221206DBF1CCEF70FB90008D
:100F0000DAE0F4600A900A5A7406F0F17470FC900A
:100F100000D8E01202B90F32040F3A140F3F150F38
:100F200044170F54300F59340F5E360F63370000EB
:100F30000F4C431A10851A80802F431B10800843E2
:100F40001B208003431B80851B90801D431C208534
:100F50001CA08015431D01800D431D108008431DFA
:100F6000408003431D80851DB0900A5A740CF0F137
:100F70007470FC22900A5AE014F0E0227F011207FC
:100F8000D2D2021207F77F061206DBD1F91207F759
:100F90009000D6E0FF1206DB9000D9E06402221236
:100FA000000F120734EF600512001080F57F011268
:100FB00007D2D2021207F77F06D1F61207F77F0198
:100FC0001206DB7F03D1F6E4FF0207D2E5C8540422
:100FD000FF22E0FEA3E0FF4E2274FFF5F0020106BF
:100FE000AB05E4FCFDC19D75FF038F9875FF0322DF
:100FF00075FF03759701F1E7E59720E1FB75FF03A6
:10100000AF99221204D175FF03E5D5F45402FF22F3
:1010100075FF03EF543F4480F5D1E5D520E20AE5A2
:10102000D520E005E5D530E1F1E5D55403FF75FFA6
:101030000375D5050204D175FF03ACD5EC20E13C66
:1010400075FF03ED543FF5D175FF03E9F5D375FF47
:1010500003EA540FFF900A3DE0C4547044804FF5FA
:10106000D2E5D520E205E5D530E0F6E5D55401FC22
:1010700075FF0343D40275FF0375D505AF04227FC6
:10108000011207D2900A5B7401F0900A5BE06032B3
:1010900051D2120788900A5BEFF0120EF91207770F
:1010A0009000D4EFF0120EF9900A5BE0540151DA8F
:1010B00060D8A3E0F460D3EF30E7CFE4900A5BF0B0
:1010C00080C81207F77F9F1206DB1207889000D5B1
:1010D0001207869000DA1207869000DB1207CB9089
:1010E00000D3E0F4601BA3E0F460169000DAE0FDAA
:1010F000541F240FA3F0EDC413540744809000DA6A
:10110000F0227B017A0079D87F03120E527A00799F
:10111000E17F08120E527A0079DE7D027F09120DFE
:10112000F97B017A0079DC7D027F0B120DF99000CA
:10113000DC120FD26006BEFF1BBFFF189000E1E07B
:1011400024FD600304700451C880099000DCE4F0C1
:10115000A37440F09000E1E024FD60030470089067
:1011600000D97403F080069000D97402F09000D882
:10117000E01202B9119004119B1411A31511AB17C1
:1011800011C13011C93411D13611D937000011B64F
:1011900075FF015316EF8516FD804775FF01531744
:1011A000EF800E75FF015317DF800675FF0153179F
:1011B0007F8517C9802C75FF015318DF8518CA80F9
:1011C0002175FF015319FE801675FF015319EF8039
:1011D0000E75FF015319BF800675FF0153197F85F6
:1011E00019CB120EF97F1151BAE4FF7109117F90EA
:1011F00000D67402F09000DAE0247F6009047015D4
:1012000051C0740A800651E251C07458F09000D960
:101210007403F051C89000DBE0F4600241B7900025
:10122000DEE0FEA3E0FF64104E70069000DB740E5B
:10123000F0EF64204E70069000DB740FF0EF644016
:101240004E70069000DB7410F0EF64804E700690D4
:1012500000DB7411F0E4B5070AEEB401069000DB80
:101260007412F0E4B5070AEEB402069000DB7413C2
:10127000F0E4B5070AEEB404069000DB7414F0E461
:10128000B5070AEEB408069000DB7415F0E4B50764
:101290000AEEB410069000DB7416F0E4B5070AEE0F
:1012A000B420069000DB7417F0E4B5070AEEB440F2
:1012B000069000DB7418F0020F9FEF4420F5FE2229
:1012C0007F1051BA9000D6229000DC7401F0A3E4A4
:1012D000F0221207F77F050206DBF09000D3E0FF53
:1012E000F4229000D3E020E01F7F011207D2120702
:1012F000F77F3D1206DB7F2A1206DB7F801206DBBA
:101300007FA61206DB1207CD22900A5CEFF0900058
:10131000E1E06402702B7F011207D21207F7900AF6
:101320005CE07FAB60027FB91206DB120EF9900A17
:101330005CE09000E0F070047F1EDFFEE4FF120727
:10134000D2229000D5E01200BC9000DAE0900001BB
:101350001200CE9000DBE09000020200CEE4FCFD23
:10136000020794900A2F717FC007900A2F120290F3
:10137000900A32E0FF120C8CEFF0D0070206E31265
:1013800002B0E4FCFD22900A28717FC007900A2871
:10139000120290900A2BB122D00790008F120253B4
:1013A0009000931202B0E49000B6F0D3900097E062
:1013B000941E900096E094004001227B017A00790F
:1013C00098900096E0FFA3E09000FDCFF0A3EFF02F
:1013D00090008F12023B1206E3900093120290E9F4
:1013E0004A600F9000B6E0F58275830012008FFF0F
:1013F00080027F009000B6E02498F582E43400F586
:1014000083E06F6002C3229000B6E004FFF0D39047
:101410000097E09F900096E0940050BD229000E27B
:101420001202539000E61202B0B1139000E9B1220B
:101430009000E212023B719A500281CCB16190009F
:10144000E21202471201F79000EBEEF0A3EFF04E2C
:1014500060319000EBB14FFE9000EBF0A3EFF09005
:1014600000E9E0FCA3E0FDD39FEC9E5006A3ECF066
:10147000A3EDF091CEE94A6004B11980427E007F6D
:1014800000803C9000E9120FD2603F9000DCE0FC4D
:10149000A3E0FDD3EF9DEE9C400A9000EBECF0A39F
:1014A000EDF0800D9000E9E0FFA3E0A3CFF0A3EF03
:1014B000F091CEE94A6004B11980047E007F00906B
:1014C00000E7EE8FF01200F080B9D322C322900023
:1014D000E61202909000EBE0FFA3E09000F4CFF062
:1014E000A3EFF09000E212023B1206709000EBE0D6
:1014F000FEA3E0FFC39000EAE09FF09000E9E09EC9
:10150000F09000E2120247E4FCFD12011C9000E2A0
:101510001202539000E60202909000EBE0FEA3E07E
:10152000FF22E0FFA3E0900096CFF0A3EFF022901F
:101530000A21717FC007900A21120290900A24E0CC
:10154000FFA3E09000E9CFF0A3EFF0D007811DE00A
:10155000FEA3E0FFC39000DDE09FFF9000DCE09E73
:10156000229000DDE024FFFF9000DCE034FFFEE489
:10157000FCFD2212000F120734EF600512001080EC
:10158000F5229000D7E0FF22E49000D7F0229012DD
:1015900018E024FF22901218E060057F10020DE68B
:1015A0007FFF22E4902004F0A3F0A3F0A3F07B01DE
:1015B0007A2079089020011202B0E4902000F022F5
:1015C0001204DFF0900A3512025F0000000080D3A1
:1015D000902004E0FEA3E0FF24081204E8FDEF24BD
:1015E00001FFE43E541F902004F0A3EFF0A3120487
:1015F00049AF0522902006E0FEA3E0FF22902000E4
:10160000E0045403F07F0033333354F8FEEF240832
:10161000F974203EFA7B01A30202B0900054741DBD
:10162000F0A3740FF012049CE490004FF012051820
:1016300090006BE0FEA3E0FF900054E06E7003A307
:10164000E06F7F0060027FFF22EFB40109D2AD7529
:10165000FF0143AE4022C2AD75FF0153AEBF22E58C
:10166000C85402FF75C80222E5C85401FF22900A3F
:1016700058E0FEA3E0FFC3E49FFF74089EFE221221
:101680000253E4FB7A08F9F890005012023B120171
:04169000658F0C2234
:1017FA00043DFFFCFFFF0226971A071A0C227FB846
:10180A00EF90181393901900730A20364CE552FF93
:10181A0022EFF552225A2D5761766520342E363141
:10182A000002484F000D33B0000D33B00000000035
:10183A00020C00013F3F3F04040440404000000006
:10184A0000024B93822D1C16131110101BCE1BD8AD
:10185A00FF022FFEC2D5E830E70FB2D5E4C39BFBE7
:10186A00E49AFAE499F9E498F8EC30E717B2D51259
:10187A0018941221B2E4C39BFBE49AFAE499F9E4BE
:10188A0098F880031221B230D50DE4C39FFFE49E7D
:10189A00FEE49DFDE49CFC227890E4F6D8FD9000DD
:1018AA00007F007E10E4F0A3DFFCDEFA903053A341
:1018BA00E583C394204011FEAF829020000E0FE40E
:1018CA008002F0A3DFFCDEFA1219200226A92232D6
:1018DA001CA51CAF1CB41CB91CBE1CC31CCD1CD738
:1018EA001CDC1CFA1CFF000301020604051C461C32
:1018FA00731C7828C4FFC0527419C0E0C082C08328
:10190A0075520AE5FF54CF4490F5FF22C05274196C
:10191A00C0E0C082C083755220E5FF54CF4490F5E1
:10192A00FF22C0527419C0E0C082C083755236E5E6
:10193A00FF54CF44A0F5FF22C0527419C0E0C08200
:10194A00C08375524CE5FF54CF44B0F5FF22908016
:10195A00002116909B6B211690808821169080C7D3
:10196A00211690A861211690AFFD211690B0002192
:10197A001690B809211690A92C211690A551211666
:10198A0090BFF3211690C04E211690C05121169097
:10199A009760211690C054211690C01E211690A857
:1019AA00832116909EB5211690A3ED21169099DBFE
:1019BA0021169099542116909BF62116909B43214B
:1019CA001690C864211690C975211690BE9D2116DD
:1019DA0090B04A211690AFD4211690CC352116909A
:1019EA00CC58211690CF69211690ACB6211690BF1B
:1019FA00EC211690B26D211690AF15211690CFAB3F
:101A0A00211690AF5A211690D39C211690B20E211E
:101A1A001690CCED211690BD33211690D65421167E
:101A2A0090A6B4211690BFDF211690D6DF2116901A
:101A3A00C0D8211690C35E21169097D5211690D64C
:101A4A00E2211690D76E211690D749211690D7E237
:101A5A00211690BC462116908152211690D5CE218E
:101A6A001690D348211690BFDD211690B084211616
:101A7A009097F2211690C68B21169097EE21169018
:101A8A00DD27211690C5B5211690C552211690B7AB
:101A9A0022211690DD66211690C543211690BC08B6
:101AAA00211690DCBE211690C7B5211690C7982141
:101ABA001690C758211690C76C211690D479211612
:101ACA0090B88F211690B895211690BEEA211690EB
:101ADA00DC33211690DC3B211690B8B8211690858C
:101AEA00CC211690A913211690AC39211690CE411B
:101AFA00211690AAD3211690DDAA211690DB7A210D
:101B0A001690BE8D211690BEB621169081792116A7
:101B1A0090D496211690B193211690C2272116903F
:101B2A00B6D6211690C14C211690C34B211690C2ED
:101B3A00C8211690C7CA211690DDC8211690DE77F3
:101B4A00211690BBBA211690DE7A211690DEB321B7
:101B5A001690DEB6211690B8AC211690D90F211630
:101B6A0090D8B0211690D8E0211690CF2C2116904B
:101B7A00AC58211690AB20211690C4D9211690CBCF
:101B8A003A211690C873211690DF682116909D7924
:101B9A00211690C99E2116909094211690CBF3217C
:101BAA001690CBB8211690E038211690E0692116DC
:101BBA0090E086211690E0A4211690E13F2116902C
:101BCA00E0F8211690E16621169095A421169093CB
:101BDA00FB211690B96A211690BAF2211690B983A0
:101BEA00211690BB7E21169097EA2116909C1B2104
:061BFA001690BB632116EA
:101C000090B3D6214290A816214290A90E2142906D
:101C1000B5EF214290B6EC214290B34D214290B7EE
:101C2000CF214290B945214290BA7C214290BAC955
:101C3000214290BB96214290AD87214290AF27214F
:101C40004290BC43214290BC502142909DF92142D8
:101C500090A51E214290808B214290BCDD214290B4
:101C60009B212142909D0D214290800B2142909317
:101C7000EA214290BD9D214290BDB5214290BE6FA8
:101C8000214290B791214290BE87214290BF4121CD
:101C900042908143214290C005214290C0122142CE
:101CA00090A40F214290A7F2214290B46F2142905C
:101CB000B64B214290A4B1214290A70B214290B58E
:101CC000AC214290A110214290B5CC214290BA386B
:101CD000214290A0B5214290A76C214290C01E21C4
:101CE0004290A737214290BBE4214290A54F214268
:101CF00090B49C214290B727214290C07E2142900F
:101D0000A188214290A322214290B4EE214290C1A9
:101D100023214290B784214290BAFE214290BA9E7C
:101D2000214290B891214290BA1C214290BACF2111
:101D30004290C14E214290B516214290C26E21427E
:101D4000909FFA212C90A010212C90A070212C9013
:101D5000A08C212C90A098212C90A0B1212C90A097
:101D6000C6212C90A102212C909DBC212C90A0D0AA
:101D7000212C90A148212C90A1A9212C90A0DA21FE
:101D80002C90A20A212C90A0E4212C90A0EE212CD2
:101D900090A26B212C90A0F8212C90A127212C90AF
:101DA0009674212C909F5B212C90A312212C908261
:101DB00001212C90A3E3212C90A3E4212C909731B6
:101DC000212C909B16212C909AD0212C90800021C0
:101DD0002C90A45F212C90A49C212C90A446212C13
:101DE000909949212C00E709F608DFFA8046E709B7
:101DF000F208DFFA803E88828C83E709F0A3DFFADD
:101E00008032E309F608DFFA8078E309F208DFFAA6
:101E1000807088828C83E309F0A3DFFA8064898272
:101E20008A83E0A3F608DFFA805889828A83E0A3D8
:101E3000F208DFFA804C80D280FA80C680D48069B4
:101E400080F28033801080A680EA809A80A880DAB1
:101E500080E280CA803389828A83ECFAE493A3C843
:101E6000C582C8CCC583CCF0A3C8C582C8CCC58305
:101E7000CCDFE9DEE7800D89828A83E493A3F6084C
:101E8000DFF9ECFAA9F0EDFB2289828A83ECFAE013
:101E9000A3C8C582C8CCC583CCF0A3C8C582C8CCB2
:101EA000C583CCDFEADEE880DB89828A83E493A302
:101EB000F208DFF980CC88F0EF60010E4E60C38835
:101EC000F0ED2402B4040050B9F582EB2402B4040E
:101ED0000050AF2323458223901E3673BB01068931
:101EE000828A83E0225002E722BBFE02E32289823B
:101EF0008A83E49322BB010B89828A83F8E0C82895
:101F0000F0E822500327C722BBFE07F8E3C828F3F6
:101F1000E8228A838982E49322BB010CE58229F5B9
:101F200082E5833AF583E0225006E92582F8E6222D
:101F3000BBFE06E92582F8E222E58229F582E583E7
:101F40003AF583E49322BB010989828A83F8E02869
:101F5000F022500327F722BBFE05F8E328F3228A7C
:101F6000838982F8E4932822BB010FF8E58229F5E2
:101F700082E5833AF583E028F0225009C58229F8EA
:101F8000E58226F622BBFE09C58229F8E22582F207
:101F900022F8EA2583F583E9932822BB010689828A
:101FA0008A83F0225002F722BBFE01F322F8BB0124
:101FB0000DE58229F582E5833AF583E8F0225006A3
:101FC000E92582C8F622BBFE05E92582C8F222EF88
:101FD0008DF0A4A8F0CF8CF0A428CE8DF0A42EFE16
:101FE00022BC000BBE0029EF8DF084FFADF022E48F
:101FF000CCF875F008EF2FFFEE33FEEC33FCEE9DCE
:10200000EC984005FCEE9DFE0FD5F0E9E4CEFD22F4
:10201000EDF8F5F0EE8420D21CFEADF075F008EF7F
:102020002FFFED33FD4007985006D5F0F222C398FC
:10203000FD0FD5F0EA22C2D5EC30E709B2D5E4C3F2
:102040009DFDE49CFCEE30E715B2D5E4C39FFFE4B0
:102050009EFE121FE1C3E49DFDE49CFC8003121F61
:10206000E130D507C3E49FFFE49EFE22C5F0F8A34C
:10207000E028F0C5F0F8E582158270021583E0389B
:10208000F022A3F8E0C5F025F0F0E5821582700299
:102090001583E0C838F0E822BB010A89828A83E010
:1020A000F5F0A3E022500687F009E71922BBFE07EE
:1020B000E3F5F009E3192289828A83E493F5F07449
:1020C000019322BB010789828A8302206C500B098D
:1020D000C5F027F7C5F01937F722BBFE0D09F8E365
:1020E00025F0F3C5F019E338F322F889828A837466
:1020F000019325F0C5F0F8E4933822BB010A8982E8
:102100008A83F0E5F0A3F0225006F709A7F0192220
:10211000BBFE06F3E5F009F31922EF2BFFEE3AFEC2
:10212000ED39FDEC38FC22E88FF0A4CC8BF0A42C28
:10213000FCE98EF0A42CFC8AF0EDA42CFCEA8EF0D5
:10214000A4CDA8F08BF0A42DCC3825F0FDE98FF0BC
:10215000A42CCD35F0FCEB8EF0A4FEA9F0EB8FF0B3
:10216000A4CFC5F02ECD39FEE43CFCEAA42DCE353B
:10217000F0FDE43CFC2275F008758200EF2FFFEEC5
:1021800033FECD33CDCC33CCC58233C5829BED9AA3
:10219000EC99E58298400CF582EE9BFEED9AFDEC01
:1021A00099FC0FD5F0D6E4CEFBE4CDFAE4CCF9A847
:1021B0008222B800C1B90059BA002DEC8BF084CF4F
:1021C000CECDFCE5F0CBF97818EF2FFFEE33FEED26
:1021D00033FDEC33FCEB33FB10D703994004EB9950
:1021E000FB0FD8E5E4F9FA227818EF2FFFEE33FE63
:1021F000ED33FDEC33FCC933C910D7059BE99A4098
:1022000007EC9BFCE99AF90FD8E0E4C9FAE4CCFBAF
:102210002275F010EF2FFFEE33FEED33FDCC33CC03
:10222000C833C810D7079BEC9AE899400AED9BFD8C
:10223000EC9AFCE899F80FD5F0DAE4CDFBE4CCFA9F
:10224000E4C8F922EF5BFFEE5AFEED59FDEC58FCB5
:1022500022C3E49FFFE49EFEE49DFDE49CFC22EB90
:102260009FF5F0EA9E42F0E99D42F0EC6480C8647C
:10227000809845F022EB9FF5F0EA9E42F0E99D42FE
:10228000F0E89C45F022E8600FECC313FCED13FD71
:10229000EE13FEEF13FFD8F122E8600FEFC333FF18
:1022A000EE33FEED33FDEC33FCD8F122BB010789A0
:1022B000828A830223235005E9F80224DBBBFE0552
:1022C000E9F80224E722E0FCA3E0FDA3E0FEA3E09E
:1022D000FF22E493FC740193FD740293FE74039354
:1022E000FF22E0F8A3E0F9A3E0FAA3E0FB227401E7
:1022F000FF3395E0FEFDFCA3A3A3E02FFFF0E582F2
:10230000158270021583E03EFEF0E58215827002B0
:102310001583E03DFDF0E582158270021583E03CF7
:10232000FCF022ECF0A3EDF0A3EEF0A3EFF022A876
:10233000828583F0D083D082122346122346122353
:1023400046122346E473E493A3C583C5F0C583C84E
:10235000C582C8F0A3C583C5F0C583C8C582C8229D
:10236000A42582F582E5F03583F58322E0FBA3E026
:10237000FAA3E0F922EBF0A3EAF0A3E9F022E49358
:10238000FB740193FA740293F922BB010789828AD4
:102390008302236C5005E9F80224F3BBFE05E9F83B
:1023A00002250589828A8302237EBB011A89828ADB
:1023B00083D0F0D0E0F8D0E0F9D0E0FAD0E0FBE84C
:1023C000C0E0C0F00223755016E9F8D083D082D067
:1023D000E0F9D0E0FAD0E0FBC082C0830224FCBB6D
:1023E000FE16E9F8D083D082D0E0F9D0E0FAD0E050
:1023F000FBC082C08302250E22BB010DE58229F5B8
:1024000082E5833AF58302236C5007E92582F802BE
:1024100024F3BBFE07E92582F8022505E58229F5AC
:1024200082E5833AF58302237EBB0120E58229F50C
:1024300082E5833AF583D0F0D0E0F8D0E0F9D0E03F
:10244000FAD0E0FBE8C0E0C0F00223755018E9259F
:1024500082F8D083D082D0E0F9D0E0FAD0E0FBC09F
:1024600082C0830224FCBBFE18E92582F8D083D009
:1024700082D0E0F9D0E0FAD0E0FBC082C083022530
:102480000E22D083D082F8E4937012740193700D01
:10249000A3A393F8740193F5828883E47374029381
:1024A0006860EFA3A3A380DF8A838982E473EC8E44
:1024B000F0A4CCC5F0CCCDF8EFA4CEC5F02DFDE452
:1024C0003CFCE8A42EC8C5F03DFDE43CFCEFA4FFB5
:1024D000E5F028FEE43DFDE43CFC22ECF608EDF6D8
:1024E00008EEF608EFF622ECF208EDF208EEF2083C
:1024F000EFF222E6FB08E6FA08E6F922EBF608EA34
:10250000F608E9F622E2FB08E2FA08E2F922EBF229
:1025100008EAF208E9F22241073500C12AC12D413B
:10252000073400E0020200003199E00202000229B3
:1025300049E00402000446524545E00102001554FA
:10254000E001020016A5E00102200528E0010229B1
:1025500018FFE005022946294902043D4103EB0624
:102560000114004103EA014103E801C136011900E9
:10257000011700412CAD0041282F004127D0055DF7
:102580002BB7000000000000000000000000000069
:10259000000000000000000000000000000000C17A
:1025A0003C4328A50000004128B600C10EC13101FE
:1025B0003800C12EC12F41304300C15F432C25009C
:1025C0000000412C2400412C2800412DD4FFC132B1
:1025D000C134C13F412C4C00015100C123412C3E6C
:1025E00000412C4B00602825F1052200000003006B
:1025F00008FE877F88CF7FC04FFBD7FDE067008054
:10260000800C8082000000E87300800F00006000F2
:102610000041216400412176004121670041216190
:1026200000412169014121620141239A00C143C156
:1026300044412918964129140FE00202294B003326
:10264000E0050229790033040522E00202297E0810
:1026500007E0050231800807050522412DA9FF4149
:102660002DA2FF412DA500412DA800C165E0020269
:1026700031850013E00C02318700000308000300DD
:10268000080522043DE0050231930013FF0522E016
:102690000202319800000075819075FF03759E025B
:1026A000121920023CBE0218D8902517E47E01932F
:1026B00060F4A3FF543F30E509541FFEE493A36088
:1026C000010ECF54E0B4E00EEFFAEEF9A3A3A3A3FA
:1026D000DAFDD9FB80D654C025E0604B5026E49348
:1026E000A3F85407240CC8C333C4540F4420C88330
:1026F0004004F456800146F6DFE480B0010204088D
:1027000010204080E493A3FAE493A3F8E493A3C8D1
:10271000C582C8CAC583CAF0A3C8C582C8CAC58352
:10272000CADFE9DEE78085E493A3F8E493A34003DE
:10273000F68001F208DFF40226AC09040000020A68
:1027400000000007058202200000070502022000A9
:102750000009040100010202010005240010010526
:10276000240100010424020005240600010705815C
:10277000030800201D401D451D4A1D4F1D541D59B5
:102780001D5E1D631D681D6D1D721D771D7C1D81E5
:102790001D861D8B1D901D951D9A1D9F1DA41DA995
:1027A00000000000000012010002020000085806AC
:1027B000000200000000000109020000000100808A
:1027C0003204030409A280CACF0998445CAD5506BF
:1027D00041469503861C0F0000000000050000061E
:1027E0000000001000002428800000242080000049
:1027F000113821000044288000004420800000346B
:10280000382100003F241E16110E0B090705040392
:102810000201F0C8A791776760463835323024222C
:102820002014000101020203030404050506060743
:10283000071A431A481A4D1A521A571A661A6B1A6F
:102840007A1A841AD41AD91ADE1AED1AF71B0B1B3E
:10285000101B151B291B2E1B651B6A1B6F1DD61D0C
:10286000DB1DE01B9257C4E4FD7C0CAB050DEB9027
:10287000181F938F828E83F00FBF00010EDCEC7F58
:1028800002228F828E83E4F0A374041195743D11AB
:1028900095A3E4F022F08F828E83A3A322903026AA
:1028A000EFF0902CBEE0B40110C2ED7A30792690A2
:1028B0002D3F11BA121C37D2ED227B011223757AFB
:1028C0002C79BF22902CBEE0640170287B017A2C09
:1028D00079BF121C41EF701C903027F0C2ED7A30A6
:1028E0007927902D2011BA121C3CD2ED903027E0B0
:1028F000FF121C0A22902CBE7401F0FB311A7E28B4
:102900007FC490073DE0FCA3E04C700590073D803C
:1029100002C322EEF0A3EFF0D3227A2C79C7902DD8
:10292000F0122375902DF37401F0A37405F07A2C46
:1029300079BF021C327F013145902CBEE0B4010406
:102940007B01311A22EF600D123EF9AF82AE83E4B3
:10295000FDB136800F302A037F0022121BFBB1FF2E
:10296000E433FF227F012290048B122375D248C2E8
:10297000EBE514600261D0E51530E202C32291203C
:1029800024E5124F0B12504091281220985407FF53
:102990009003EAF0124F4F90048EEFF0E51520E01F
:1029A0006DB12840047F01314590048EE0FF7B012A
:1029B0007A04798FD12CE4337004D2EB61B69004A1
:1029C0008EE024C9125C00E0FF90048FE0D39F40AA
:1029D0003DD2EB124F93A23592ED9003FBE06010D5
:1029E000912024E5917F121F9B431504B112D3223D
:1029F000900409E070167B017A0479097C487DBD5A
:102A0000902E497464F0E4A3F01219DAC322B128BD
:102A10005004C251B1BB124E08E5D120E0FBE4F5F1
:102A20001091281220985407C39403E49400503264
:102A3000912024B19118911F24D891182FFFE433CD
:102A4000FED3EF9440EE648094804016912024E5FC
:102A5000F9E43AFA7402121F9B431504A23592ED71
:102A6000D32291202408F9E43ACFE9CFF5118F124F
:102A7000912024B19118F516AE11125762912024BD
:102A8000B2F9E43A8B1CF51D891E912024D89118C7
:102A9000F51F9128122098FDACF05460603391200E
:102AA00024D99118FF124F6DC2489108FB7A00900B
:102AB000040AE0FEA3E0FF7C007D18121FCFEF2B7D
:102AC000FFEA3EFEEF2414FBE43EFA7D027F016143
:102AD000A3912812209854079003EAF075140891E6
:102AE0002024B2F9E43AFA124E14912024D8911815
:102AF000FFAD16124E409003EAE0640370237B01A1
:102B0000FD71D8916F50057401121F46E4F5FF1254
:102B10004E37121EDC2428FBE433FA7D03E4FF6108
:102B2000A39003EAE06402702971DB916F400574A1
:102B3000FF121F46E4F5FFE5D25480440AF5D21295
:102B40001EDC2414FBE433FA7D027F01918691366A
:102B50008053E4FB7D0171D8916F400574FF121F13
:102B600046E4F5FF912891FF7F0560027F0AEF544C
:102B70007FFFE5D254804FF5D2E4F5FF43D2809138
:102B800008FD7C00912891FF7E0060047F0A80028E
:102B90007F05EF25E0FFEE33FEEF2DFBEE3CFA7DE7
:102BA000017F0191869128122098FFAEF0A24892F1
:102BB00047124B354006A23592EDC322B112900464
:102BC0008EE0911F24E791F7A23592EDD2EBD3224C
:102BD000A23592EDD2EBC322FF913B90048B1223DE
:102BE0006CE924B1F9E43AFA121EDCFF90048B126E
:102BF000236CE924D8F9E43AFA121EDC2FFFE433FF
:102C0000FEEF2401FFE43EFE90048B12236CE924C6
:102C1000B2F9E43AFAE92407F9E43AFA021EDCFFD1
:102C200090048B12236CE92290048B12236CE9240C
:102C300004F9E43AFA22E4FB7D01FFE4F5FF75D1E3
:102C400002E5D120E0FBE4F5FFF5D1EF6008E4F503
:102C5000FF43D2808006E4F5FF53D27FEB6006E4A9
:102C6000F5FF43D104ED6006E4F5FF43D10822D31C
:102C70009FEE6480F87480982212236CE92401F995
:102C8000E43AFA7401229004B6EFF0ED24FE6019E4
:102C90001460262402703BEB2402FFE43AFE7C0021
:102CA0007D50121FCF7D60801EB107C333CE33CE5F
:102CB000D8F9FF7C007D28800EB107C333CE33CE18
:102CC000D8F9FF7C007D64121FE19004B7EEF0A3F9
:102CD000EFF09004B6E0125032C083C0821222E2BC
:102CE0009004B8E02401FF9004B7E03400125B7751
:102CF000D082D083022323F9E43AFAEF021F9B1219
:102D00002098441045F022EB2401FFE43AFEEF78CE
:102D10000322E49003FBF07B017A0479090219D5C0
:102D2000C2EBA2ED9235C2EDE5F4C330E701D32248
:102D3000AF82AE837D01900479125B47122375E563
:102D4000147077B1205004C251B1BB900479E0FEF9
:102D5000A3E08E11F512A312236C9003EC122375DD
:102D6000AE11AF127DAA124E6FE4F5FF75D908F5CA
:102D700010E5155421602BE51530E504E4FFD1F48E
:102D8000E490047EF090047EE004F01252C2EF6002
:102D90000990047EE0C3941040EB7F02121DD153D2
:102DA00015DE9003E8E07F00B403027F01124B833D
:102DB000D251B1BBD2EBA23592ED22903029E5F48D
:102DC000F0E0547FF5F47F827E00F110D1AFF1A2E4
:102DD0005005E5FC20E6F7305108903029E04480AA
:102DE000F5F4D1A9F1A25005E5FC20E6F775FF0145
:102DF000E5D520E702C322E5F4D330E601C322E59E
:102E0000147027B1205004C251B1BB1246FD7F0897
:102E1000121DD1124E08E5D120E0FB4315205315B9
:102E2000FEE4F510A23592EDD322C322902F38EFA5
:102E3000F0A312472075FF01F1ADEF64016002C3FA
:102E400022E5F430E602C3227FE87E03F13DD1AFF4
:102E5000F18C400122C251B1BB902F38E0FFD1F478
:102E600053F4DFD251B1BB7F787E00D1B675FF013C
:102E700053E4BFE5E430E7FB1251667F8A1247D77F
:102E800030E6061246BFE4800875FF011246BFE532
:102E9000D9121F9B75FF0143E4401247BF40034313
:102EA000F420F18C400122D3227FE87E03F11075DB
:102EB000FF0343918022CDEFCDCCEECCF16BAB94F0
:102EC000EF4BF1F6CBEFCBFAE59130E719F16EA9B4
:102ED00094E9F582EF4582FFEB125BF0C3EF958238
:102EE000E5F0958340E2E59120E708CEECCECFED0A
:102EF000CFF15E2275FF01E5D530E602C322E4F58D
:102F0000FF439A80EF1247C7E4F5FF539A7FD3221D
:102F1000902F28125BD87A2F792AF1775014902FAE
:102F20002AE0FEA3E0FF902F29E09F902F28E09E4B
:102F3000400A902F28E0FEA3E0FFF13D2275FF0339
:102F4000D3EF9402EE9400400874FE2FFF74FF3E0E
:102F5000FEEFF592EE540FF591227F147E00F13DC5
:102F6000D1AF75FF03E59120E7FB2275FF03AF9317
:102F7000EF75F010A4FF22F16BAD94EF4DF1F68FD9
:102F8000F01220FBE591C330E701D322E5F730E5ED
:102F90000FE5F754C07004F1A240F1124719C322A3
:102FA000D32275FF03E591C330E701D3227FFA7E78
:102FB00000F13DD1AFE5FC30E604F1A240F7E5FCBD
:102FC00030E6037F032275FF01E5D530E6037F027B
:102FD00022E5D57F0030E7027F0122125BC553DB7B
:102FE0007F75FF0175D502F15A125BC543DB807511
:102FF000FF01E4F5D52224FBFFE5F034FF22C0E019
:10300000C0F0C083C082C0D075D000C000C001C075
:1030100002C003C004C005C006C007903028E5FF09
:10302000F075FF02E5D430E60C75D440902E833164
:103030007C6002318375FF02E5D430E50975D42048
:1030400031796002318375FF02E5D430E40C75D428
:1030500010902E87317C6002F1C075FF02E5D430FC
:10306000E30C75D408902E83317C6002318C75FF9F
:1030700002E5D430E20975D40431796002318C75EF
:10308000FF02E5D430E11875D4021240D1EF600F91
:10309000902E87317C6004F1B78004F1D3F1A775DD
:1030A000FF02E5D430E01375D401902E87317C60A7
:1030B000098F828E837F071224AC75FF02E5D5301D
:1030C000E41375D510902E87317C60098F828E8332
:1030D0007F031224AC75FF02E5D530E10F75D502F0
:1030E000902E87317C6005F1891224AC75FF02E5D2
:1030F000D530E01375D501902E87317C60098F8221
:103100008E837F041224AC75FF02E5D530E213757F
:10311000D504902E87317C60098F828E837F0A12BE
:1031200024AC75FF02E5D530E71375D580902E8766
:10313000317C60098F828E837F081224AC75FF0278
:10314000E5D530E61375D540902E87317C60098F28
:10315000828E837F091224AC903028E0F5FFD007DF
:10316000D006D005D004D003D002D001D000D0D0FA
:10317000D082D083D0F0D0E032902E85E0FEA3E064
:10318000FF4E228F828E837F010224AC8F828E833A
:10319000E4FF0224AC7B017A2C79A57D017F031228
:1031A0001C197A2C79AE7F08F1907A2C79AB7F09C3
:1031B000F14F7A2C79A97F0BF14F902CA9317C60CB
:1031C00006BEFF1BBFFF18902CAEE024FD60030479
:1031D0007004F15E8009902CA9E4F0A37440F09093
:1031E0002CAEE024FD6003047008902CA67403F05C
:1031F0008006902CA67402F0902CA5E01224823256
:103200001B04322614322E15323617324C3032540B
:1032100034325C363264370000324175FF0153307E
:10322000EF8530FD804775FF015331EF800E75FF4C
:10323000015331DF800675FF0153317F8531C9802D
:103240002C75FF015332DF8532CA802175FF01538F
:1032500033FE801675FF015333EF800E75FF015367
:1032600033BF800675FF0153337F8533CB915A7F7F
:1032700011F118E4FFD1B1717B902CA37402F0908E
:103280002CA7E0247F6009047015F126740A8006DB
:10329000D193F1267458F0902CA67403F0F15E904F
:1032A0002CA8E0F460026141902CABE0FEA3E0FFAB
:1032B00064104E7006902CA8740EF0EF64204E70CF
:1032C00006902CA8740FF0EF64404E7006902CA866
:1032D0007410F0EF64804E7006902CA87411F0E426
:1032E000B5070AEEB40106902CA87412F0E4B507F5
:1032F0000AEEB40206902CA87413F0E4B5070AEEA7
:10330000B40406902CA87414F0E4B5070AEEB408CF
:1033100006902CA87415F0E4B5070AEEB4100690D8
:103320002CA87416F0E4B5070AEEB42006902CA879
:103330007417F0E4B5070AEEB44006902CA8741890
:10334000F0D1E59112EF6004D1F480F77F01B11C58
:10335000D252B1887F067173915AB1887F0171731F
:103360007F037173915AE4FFA11C1222C6780812E0
:103370002286E4E5C820E2FB8FEB227F01B11C909E
:10338000302B7401F090302BE06037B1887F0591CD
:103390000490302BEFF0915A9100902CA0EFF09117
:1033A00006902CA1EFF0915A90302BE05401F15689
:1033B00060D3A3E0F460CEEF30E7CAE490302BF0A6
:1033C00080C3B1887F9F9104902CA2EFF09106906A
:1033D0002CA7EFF09106902CA8EFF0B118902CA03C
:1033E000E0F4601BA3E0F46016902CA7E0FD541FEE
:1033F000240FA3F0EDC41354074480902CA7F022AF
:10340000B1887FD771737FFF7173E5C820E2FBAF8E
:10341000EB227F01B11C305216B1887F05910490D8
:10342000302DEFF0915A90302DE020E002C2523062
:10343000521E9100902CA0EFF09106902CA1EFF17C
:1034400056600BA3E0F46006EF30E702C252915AD7
:10345000E4FFB11CA252E433FF22F183EF70FB9032
:103460002CA7E0F4600A90302A7406F0F11E70FC7C
:10347000902CA5E0122482349304349B1434A015BC
:1034800034A51734B53034BA3434BF3634C43700B9
:103490000034AD433410853480802F4335108008CC
:1034A0004335208003433580853590801D43362089
:1034B0008536A08015433701800D433710800843BF
:1034C000374080034337808537B090302A740CF042
:1034D000F11E70FC22902EEC122323F109B1E7902B
:1034E0002EF0E06F602ED1E59112EF6004D1F480F0
:1034F000F7D1756006F1097810716F902EEC716A42
:10350000F109E47173902EF0E0FFB116902CA474D1
:1035100001F0D322C3227173915AE4FFEFB4010486
:1035200043FE202253FEDF22902D5A122323902D9A
:103530005E122375D1E59112EF6004D1F480F7D1CA
:1035400075600A902D5A1222C67810716F902D5A0C
:10355000716A902D5A1222C6E48020902D61F148A4
:1035600045F0601B902D5EF141600E902D5EF19F45
:103570007173902D5FF13A80E2E4FF717380DCB1EA
:1035800018902CA47401F022902CA5E0122482350E
:10359000AB0435B31435B81535BD1735CD3035D23C
:1035A0003435D73635DC37000035C55334EF853434
:1035B00080802F5335EF80085335DF800353357FEC
:1035C000853590801D5336DF8536A080155337FE34
:1035D000800D5337EF80085337BF800353377F8503
:1035E00037B07F0CDFFE22902EE7122323D1E59126
:1035F00012EF6004D1F480F7F10FD18A600A902EA7
:10360000E71222C67810716F902EE7716A902EE74C
:103610001222C6E49104902EEBEFF0B118902EEB3D
:10362000E0FF22902D63122323902D67122375D182
:10363000E59112EF6004D1F480F7F10FD18A600AAE
:10364000902D631222C67810716F902D63716A906D
:103650002D631222C6E47173902D6AF14845F06023
:103660000E9106902D67F198902D68F13A80E991BE
:103670005AE4FFA11C7F01B11CD252B1887F0671B0
:1036800073915AB188902CA3E0FF7173902CA6E03F
:10369000640222902CA0E020E0167F01B11CB188CA
:1036A0007F3D71737F2A71737F8071737FA6B1161E
:1036B0002290302CEFF0902CAEE0640270267F0157
:1036C000B11CB18890302CE07FAB60027FB9717380
:1036D000915A90302CE0902CADF070047F1EDFFEEC
:1036E000E4FFB11C2275FF02E5E430E10675E40653
:1036F00075E40322E51530E20FE51520E50AE5152E
:1037000030E0057F0112294522902EEC0222C67F6F
:1037100001B11CB1887F0322EF4420F5FE229030D6
:103720002AE014F0E0227F10F118902CA322D1E5BA
:103730009112EF6004D1F480F722E475F0010220C9
:103740006C12236CEA494B2274FFF5F00220827B55
:10375000017D02021C19F0902CA0E0FFF422902CB5
:10376000A97401F0A3E4F022F0E0131313541F7EB8
:10377000002419F9EE3429FEAF01E4FCFDA1E7E4D1
:10378000FFA11CE5C85404FF228F828E837F06228E
:103790007B017D01021C19FF12236CEF021F9B129B
:1037A000236C121EDCFF22F1C9E4F59E7F01221278
:1037B0004E4D5002F13A228F828E837F020224AC5A
:1037C0008F828E837F050224AC75FF0243D2017580
:1037D000FF032275FF0153CCFD43FB40F1C9759EE9
:1037E0000143FB0975FF03859E9E75FF03859E9E21
:1037F0007F012275FF028FD675FF02AF058FD77F3D
:1038000001EF6003D2ED22C2ED22E475FF02AFD4D6
:10381000CDEFCD75FF02AFD5EFFCEDCEECCEFF22A4
:1038200075FF02EFF452D475FF02EDF452D52290E9
:103830002F14122375902F17F1E6943F4003743F25
:10384000F075FF02E5CD30E105E4F54580037545EF
:1038500001E5456036E5FD254604543FFFE5DD54AE
:103860003F6F6027902F17F1175020902F141223CD
:103870006C85468211B2AEFDF148543F248EF5822C
:10388000EC3406F583EFF0054680C6E5456008E5B3
:10389000FD2546543FF5FDAF4622903052EFF07BB8
:1038A000017A3079527D01112F7F0122119A22E095
:1038B000F582758300021F19902ED73132E58F20D3
:1038C000E0FB3139E4FF902ED712236C8F8211B2C6
:1038D000F5930FEFB410EFE4FF902EDA12236C8F04
:1038E0008211B2F5940FEFB410EF22902DB4313263
:1038F000E58F20E0FB31397E10902DB7312B11B2CE
:10390000F593EE70F47E10902DB4312B11B2F59436
:10391000EE70F47F013149125A5AEF70FA7E10901E
:103920002DBA312B125A28EE70F52212236C1E8EFE
:10393000822212237575FF012275FF01538F0675D0
:10394000FF01538FF075FF0122EFB40108125A37BF
:103950004401F58F2275FF01E58F54F04406F58F81
:1039600022902B84122323902B88122375E4902B12
:10397000ABF0D3902B8CE0941E902B8BE094004006
:1039800001227B017A2B798D902B8B125B33902B4C
:10399000841222C6123623902B8812236CE94A60C7
:1039A00008902BAB11AFFF80027F00902BABE0247F
:1039B0008DF582E4342BF583E06F6002C322902BF7
:1039C000ABE004FFF0D3902B8CE09F902B8BE09426
:1039D0000050C422902D07122323902D0B12237523
:1039E000902D0B12236C902D0EF1AE902D0712220C
:1039F000C6316150024182125AFA902D071222E21A
:103A0000122244902D10EEF0A3EFF04E602D902D79
:103A100010125AE8FE902D10F0A3EFF0902D0EE05A
:103A2000FCA3E0FDD39FEC9E5003125AD551A86031
:103A300004518480407E007F00803A902D0E123128
:103A40007C603D902CA9E0FCA3E0FDD3EF9DEE9CB3
:103A5000400A902D10ECF0A3EDF0800D902D0EE0BB
:103A6000FFA3E0A3CFF0A3EFF051A860045184803E
:103A7000047E007F00902D0CEE8FF012206C80BB36
:103A8000D322C322902D10E0FEA3E0FF227405F0A4
:103A9000902E1CF11EC007902E1C12236C902E1F1E
:103AA000125ADCF0D00721D4902D0B12236C902DEC
:103AB00010E0FFA3E0902D61CFF0A3EFF0902D0771
:103AC0001222C6123528902D10E0FEA3E0FFC3900D
:103AD0002D0FE09FF0902D0EE09EF0902D0712220A
:103AE000E2E4FCFD12211A902D07122323902D0BE6
:103AF00012236CE94A22123195121BDD121C961218
:103B00001C2D900736E06401700261AD7FFF121931
:103B1000A890045C1223757E007F1512377ABF547B
:103B20000E7E007F1612377ABFA5047F0180027FC8
:103B300000900734EFF06401704690045C12236C2F
:103B4000AE029178900462E0FEA3E0FF90045C1264
:103B5000236CF1DEE92407F9E43AFA90045F1223BA
:103B600075E92408F9E43AFE9178900462E064056E
:103B70007004A3E0642260081219AD900734EFF0DE
:103B8000900734E070277E007F10C006C3749994BC
:103B900010FE74319400902E1FF0A3CEF07B007ABB
:103BA000007900D006F125E4FFFE1219B2121B01C4
:103BB000121A75121A16305F05754B018039125AA8
:103BC000811219761247CFFE4FFDA3E0FC4DFDA3F5
:103BD000E0FB4D600BEE5FFFEC5FFFEB5FF470030B
:103BE000124184E54B54032439F582E43407F5830C
:103BF000E0654B90072FF0E4902E0BF0902E09F02B
:103C0000A3F0021807902F18122375902F1BEDF0C8
:103C100075FF02E4F546EDD3941F4003741FF07561
:103C2000FF02E5CD30E205E4F5458003754501E589
:103C3000456036E5C9254604541FFFE5DE541F6F75
:103C40006027902F1BF1175020902F1812236C859E
:103C5000468211B2AEC9F148541F24EEF582EC340D
:103C600006F583EFF0054680C6E5456008E5C92501
:103C700046541FF5C9AF4622AF017B017A04796231
:103C8000902E8E7402F0801E902F95E075F005A4A2
:103C9000248BF9742435F0FEAF017B017A2B79B2C5
:103CA000902E8E7405F0902E8BF11EC007902E8BF7
:103CB00012236C902E8E125B20D00702362375FFE4
:103CC0000275E404E4F5E41218A21251AD9007362F
:103CD000EFF0901200E0B47A14901214E0B49C0D4E
:103CE000900736E0FF64056004EFB4032EE490070C
:103CF0003FF090073FE0FFC394805013E42FF5821C
:103D0000E43412F583E4F090073FE004F080E390A0
:103D10001200747AF0901214749CF0121C23400369
:103D2000121C1E7B017A1279107D017F01121C1971
:103D30007B017A1279117D017F21121C197B017A96
:103D40001279127D017F22121C197A1279177F02D3
:103D5000123790901217E0B401057F011256D41269
:103D60001BBF1251AD121BBA900736EFF0121C9B0D
:103D7000121BB0900736E0FF121DB8EF24FFB3927C
:103D80005F75FF0253E6BF124829121BC951F62086
:103D90005F0C1240DF7B017A2879CA121A89D2AFF0
:103DA000205F02C12C121C281219B7121DB3121C5D
:103DB0001440F2900735E06041121BECEF7006F101
:103DC0006194004035E51470FCE51520E503122DE3
:103DD000FF121971EF70FAF1725004F18450057FEF
:103DE000011236B1900735E0B40204E4FF80099077
:103DF0000735E0B403047F01F1BB121BE7E5153082
:103E0000E1A3F13594024002E4F0E51520E505D187
:103E1000F9122D30F153AF82AE83EFC0E0F107907D
:103E20000738E0FDD0E0FF121C91A1A512480690D2
:103E30000735E06047201703200641121BECEF70A6
:103E400006F16194004035E51470FCE51520E503AA
:103E5000122DFF121971EF70FAF1725004F18450B3
:103E6000057F011236B1900735E0B40204E4FF800B
:103E700009900735E0B403047F01F1BB900735E0FA
:103E8000600C201709300606200103121A5C121C70
:103E9000281219B71250C7121DAE202B05121BE7AE
:103EA00080221219CB90072EE0FEEFC39E4005EF53
:103EB0009EFF800890072EE0F4042FFF7406D39F26
:103EC0005002C22BE51530E128F13594024002E49E
:103ED000F0E51520E505D1F9122D30F153AF82AE92
:103EE00083EFC0E0F107900738E0FDD0E0FF121C3F
:103EF00091121B97124817C12C900737E0FD75F0FF
:103F0000AA900743122360ED75F002A42430F974DF
:103F10000735F0FA7B0122E0FFE546C39F2212231A
:103F200075E4FCFD22519074FFFDFC22C2AFEFF45A
:103F30005215D2AF227F02F12C900737E090073F55
:103F4000F090073704F0C322FFE546FDEE2DFD7C1F
:103F500000ED2290073FE0FD75F0AA900743022391
:103F600060900741E0FEA3E0FF1219D0D3EF94C8A0
:103F7000EE22900001740193B40007E493B4180298
:103F8000C322D3227F017E009017FCE4935EFE746F
:103F900001935F4E24FFB322902E23F11EC00790A1
:103FA0002E2312236C902E26F1AED0072161E0FF64
:103FB000A3E0902B8BCFF0A3EFF02243FB1075FF13
:103FC0000243E640EF600D75FF02E5E120E7FB43A9
:103FD000FB0D800343FB0E80FE7404F04190C3E9A7
:103FE0009FF9EA9EFA22EDF0E4F546EDD322902FF8
:103FF0001C122375902F1FF1E6943F4003743FF08D
:1040000075FF02E5CB2546543FFFE5DB543F6F606B
:1040100021902F1F123F175019ADCB113F543F2451
:104020004EF582EE3406F583E0902F1C11470546CD
:1040300080D1E546600625CB543FF5CBAF4622ED57
:104040002546FF7E00EF22FF12236C854682758392
:1040500000EF021FAD902F20122375902F23123FE7
:10406000E6941F4003741FF075FF02E5CC2546540B
:104070001FFFE5DC541F6F6021902F23123F175064
:1040800019ADCC113F541F24CEF582EE3406F583D2
:10409000E0902F201147054680D1E546600625CCEB
:1040A000541FF5CCAF462275FF02E5DB543FFFE518
:1040B000CB543F6F7F0060027F012280EA75FF02D0
:1040C000E5DC541FFFE5CC541F6F7F0060027F01C9
:1040D0002275FF02AFD3EF7F0030E6027F0122900E
:1040E00007407402F0900734E0FF121DBD900740B6
:1040F0007405F02275FF0275E40475E40175E402AD
:104100002275FF0275E404E4F5E422A245922A2216
:104110009004C3EDF09004C2EFF0BF0411A3E0FBE4
:104120007D017F01314C9004C27403F0800B900438
:10413000C3E0FB7D01E4FF314C9004C2E090073501
:10414000F0D2061219CB900741022913EB600875D3
:10415000FF0153CDFD800675FF0143CD02ED6005E3
:1041600053FBDF800343FB20EF600775FF0243E151
:10417000402275FF0253E1BF2275FF028FE322A2A6
:1041800046922D22E4FF122945EF6030D1A731BDC0
:104190005004F1B740F67B017A07793B31BD500EF0
:1041A000F1CF5FFFA3E05FFFA3E05FF460E8754B32
:1041B000017E007F08D1A7F1A9123FD922902CFCE3
:1041C000F120902D0212232F00000001902D067483
:1041D00001F0F5FFE5D554C07005122D285002C33B
:1041E00022E4F5FF53967F75FF0175D5047F3FFEEE
:1041F000122F5E75FF0143D508E4F5FF5394FBF5DC
:10420000FF53847FF5FF7598FF902D00E5F4F0755E
:10421000F49C75FF01A3E5E4F075E4257B017A2D9C
:104220007906D1CB902D06E06401600241E7F5FFED
:10423000902CFF7414F0902D027117FF7801122258
:1042400099902D02122323E5A730E1FB43A70290AA
:104250002D027117FFE5A730E005E47B018002E441
:10426000FBFAF9F8EF4BFFEE4AFEED49FDEC48FC96
:10427000902D02122323902CFFE014F070B8902DA3
:10428000027117FF78101222867B6D7A4E79C678FC
:1042900041122127EF2439FFEE343091A8E4FBFAD4
:1042A0007901F81221B2EE547FFEE4FDFC124B7648
:1042B000902D027117FFEB6FFFEA6EFEE8CDEFCD98
:1042C000CCEECCECFF902CFCD1C2EF121F9B902CBB
:1042D000FCD1C2900001ED121FAD90120FE030E64C
:1042E00006E4F5FF75968075FF01E4F5D5902D0085
:1042F000E0F5F475FF01A3E0F5E4125579902D0681
:10430000E0B40103D38001C322EB25E025E02401C2
:10431000F582E43412F583E0FCA3E0FDA3E0FEA304
:10432000E022902BF112232375FF0243E180D1FD9F
:10433000122FDB902C0612232F002DC6C0E4F5FFB0
:10434000F5A490120EF0A3F0902C017402F0D1AEFF
:10435000FFF595EF14601314601C24027027902B56
:10436000F17117D15D902BFD8016902BF57117D14F
:104370005D902BFE800A902BF97117D15D902BFF79
:10438000E0902C0AF0F1E0902C0AE0700FF5FFF5B8
:104390009675FF0175D70975F418805890120EE0D4
:1043A00004F0902C01E0F1C7902C067117FF902CBF
:1043B00002F129C3122275500A902C027117FFA333
:1043C000122323902C0AE0FF12552B902C00E0FFC3
:1043D000A3E0FDA24F924D125658A37117FF902EE5
:1043E000E3122323902C01E0FFB1BE902C01E07179
:1043F0000AFFD16BD1B66002614E7402F0D1AEF506
:1044000095E5F454077017902C06918678011222D6
:1044100086902C01D14D1223237109FFD16BD1B6A7
:1044200070DB75FF03759580F1BF400343F420A254
:104430004F924E12558A902C0671172420FFEE34AD
:104440004E91A8E4FB7A04F9F8919678011222863D
:10445000C24C125397E4F5FFE5BD54F84404F5BD92
:104460009012137401F07E127F01E4FD8F828E831F
:10447000EF2DF582E43EF583E0FC901213E02CF082
:104480000DEDB412E722FF7E04FDFCE0F8A3E0F995
:10449000A3E0FAA3E0FB122127E47B7DFAF9F812EE
:1044A00021B2EF2401FFE43EFEE43DFDE43CFC22AA
:1044B000902E13F1A2EBF0902E197401F0C250125D
:1044C0002EA9122FA25005E5FC20E6F6122FADBF53
:1044D0000108E4F5FC75FC408008122FADBF020214
:1044E000D32275FF0153D8EF902E14E0FF1256AA85
:1044F00075FF0153D5DF53FAFB902E13E0FF122E08
:10450000F4902E14E0902E13B40809E0710A24529E
:1045100091A58004E0710AFFD16B902E15E0FFF1A8
:104520009C75FF0175FF03759B04122EA975FC4253
:10453000E5FC20E105122FA240F3902E16E0F07565
:10454000FF03E59B20E705122FA240F3E59B20E740
:104550000C75FF03759B1FD1FDD250804DD164D1E6
:10456000CB902E14E0FD90120FE05D701C902E1386
:10457000E0FFD1641249A690120FE0FF902E14E0E4
:10458000FEEF4E90120FF09160F1357B017A2E799B
:1045900017122F77500FC3902E18E09420902E17EB
:1045A000E0940340E6D16412526A122F6230500246
:1045B00081B7902E19E0B40103D38001C322902E5D
:1045C000E2EFF0E4A391867801122286902EE2D1E8
:1045D0004D122323901210E064806070E0C3947F3A
:1045E0005038EBD14FC083C0827117FFEEC0E0EFAF
:1045F000C0E0901210E075F004A4AEF0FBCAEECA61
:10460000EA3395E0F9F8D0E0FFD0E0FEC3EF9BFF7E
:10461000EE9AFEED99FDEC98802A902EE2E0D14FC3
:10462000C083C082F129901210E0F40475F004A454
:10463000FFAEF0EE3395E0FDFCEB2FFFEA3EFEE926
:104640003DFDE83CFCD082D08312232322E0FB25F1
:10465000E025E02401F582E43412F58322FF902C5A
:10466000020223237B017A2E791922902F2C122308
:104670002375FF01902F2CA3E0FDA3A3E4FFFEE42C
:10468000FC78101222868FE1902F2CA3A3E0FEA3CA
:10469000E4FFE4FDFC78081222868FE2902F2CA321
:1046A000A3A3E0FF8FE3227B017A0779392275FF0C
:1046B00003902C01E022902C01E0FF14F0EF2290F7
:1046C0002F39E0FBA3E0FAA3E0F922902F8CF12030
:1046D0007F017C127D01E4FE8D828C83ED2EF582BC
:1046E000E43CF583E02FFF0EEEB412EC901213E0E1
:1046F0006F6009902F8CD1C2E4121F9B22E5FA3023
:10470000E1FB75FC8075FF0153D5EFE4F5FC75FC0A
:1047100040F119E5FC20E6FB2275FF03E4F5912248
:10472000EBF0A3EAF0A3E9F022E0F8A3E0F9A3E0BC
:10473000FAA3E0FB22E4F5FF75C2E17F1EF1D7305A
:10474000E707E4F5FF75C2A122E4F5FF75C28122F7
:104750009004B4EFF09003EAE0FF124F4F9004B5DD
:10476000EFF09003EAE024FD60130470089004B3B6
:104770007404F0800E9004B37408F080069004B3C3
:104780007402F07F01121DD19004B5E09004B3F1E2
:10479000B0E4902E16F091B050EED32275FF018F49
:1047A000DA22EFF0A3EDF0A322902E1FE4F0A32273
:1047B000FFE0FDA3E0FB22900739E0C394C0229004
:1047C000120EE0D394012233333354F8F5F42290DF
:1047D0000739E0FFA3E022FE122EB690120FE0226E
:1047E00075FF0175E46575FF0175D6472290072FA7
:1047F000E064AA2411FFF022AE07F1EDEE04FEEF13
:104800008EF084AFF022302C0D121A3EEF6007C2FA
:1048100059121A2FC22C2290073D12317C6009CA0E
:10482000EECAC9EFC91224A82275FF02D2ADD2BDCB
:1048300075FF02758E71754C0975FF02E58E546F18
:104840004480F58E902F2412232F0000000022C0F8
:10485000E0C0F0C083C082C0D075D008C0FF75FF33
:1048600002E58E30E43A75FF02E58E54EF4410F510
:104870008E902F241222C61244A2902F241223239A
:1048800090000012373AE54C30E0020539E54C70F3
:104890000D754C090548E548700205478002154C26
:1048A00075FF02E58530E40875FF02438510055069
:1048B000D0FFD0D0D082D083D0F0D0E032E49004CA
:1048C00009F09003FB04F022122D28500611D55058
:1048D000028001C322E5F754E024FF22AF14EFC3A6
:1048E0006001D322EFC3940E50059003EBEFF0224A
:1048F000E517540FFF22E517C394F0501F5317F02C
:10490000311FFE740FC39F4005EE940E4005431700
:104910000D8003EF4217E517540FFF227F0022E5B9
:1049200017C4540FFEEF902822932E22311FFFC38D
:10493000940E40027F0DEF90280493FF22EF30E3A6
:1049400003AF1322AD1B203604EE30E00BE517C396
:1049500094F0502031778018E5196006FDE4F519D0
:104960008012E517C394F0500BE517540FFF600455
:10497000312CAD07AF05229003EBE0FDFFC3740EB1
:10498000319FEFC4F8540FC868FFEEC454F048FEDE
:10499000E51754F0C3122C707F005002AF05229F20
:1049A000FFE49400FE22902F34EDF0901211E0F419
:1049B0006005A3E0B4FF0C902F367418F0A37413B5
:1049C000F08010901211E0902F36F0901212E090CB
:1049D0002F37F0121EDC64016002610F902F34E06B
:1049E000FE64086004EEB40408902F357428F0804B
:1049F00006902F35743AF0EF12430AFF122251E469
:104A00007110EF24D8FFEE343FFEED3493FDEC340B
:104A100016FC7B007A807903780012185E7176901C
:104A20002F37E0FF902F36E0C3319FE4FCFD1221C9
:104A300027ECC0E0EDC0E0EEC0E0EFC0E0902F3723
:104A4000E0FFE4FCFDFE7110D0E0FBD0E0FAD0E026
:104A5000F9D0E0F8EB2FFBEA3EFAE93DF9E83CF843
:104A6000902F35E0FFE4FCFDFE122127EF2454FFD8
:104A7000EE340B1244A8E47BA87A16F9F812185EFB
:104A8000CBEFCB902F34E014605D14601B24FE60EC
:104A90000C24FC707AE4F5FF75CE318006E4F5FF56
:104AA00075CE21F5FF8BCF22E4FAE4F5FFEA24402E
:104AB000F5CEE4F5FFEAFFC37407319F744E2FF57E
:104AC0008274183EF583E47118C39DF5CFE4F5FFB9
:104AD000EA2448F5CEE4F5FFEA90184E71182DF55A
:104AE000CF0AEAB408C422E4F5FF75CE01F5FF8BC6
:104AF000CFF5FF75CE0EF5FFEB25E0F5CFE4F5FF22
:104B000075CE0FF5FFCFEBCFEB75F003A4F5CF22F9
:104B10007B64FAF9F80221279325E0FDE433FCEBEE
:104B200075F010A4FFAEF0121FE1CDEFCDEBFFE466
:104B3000C313EF13224315015315DF313D124750C4
:104B40004004E4F5142243FA045315FB3047047182
:104B500089800A7F55715F7F55715FD2EBD32275D3
:104B6000FF01E5D520E602C322E5FA540360FA7599
:104B7000FF018FC3D322C8ECC8C9EDC9CAEECACBA6
:104B8000EFCB22122EF443FA04E4F5FF53D1FD4398
:104B9000D10122C0E0C0F0C083C082C0D075D0086F
:104BA000C0FF75FF01E5D530E6047F028009E5D539
:104BB0007F0030E7027F018F18E5186402600281F0
:104BC0006BE5141224824BDF014BF2024C58084B68
:104BD000FD094C080A4C160B4C350C00004DAB750A
:104BE000FF0175C355151AE51A6002A1AB751402D1
:104BF000A1AB75FF0175C3F0751409A1AB75FF0179
:104C000075C35575140AA1AB75FF019003FCE0F55F
:104C1000C375140BA1AB75FF019003E9E0F5C375F3
:104C20001401751A1490040AD12745F06002A1AB53
:104C300075140CA1ABAB1CAA1DA91ED114AD16AFE7
:104C40001FD140122C3675FF00D13743FA0475FF8F
:104C500000718C751408A1ABC2EB751400431504E8
:104C6000D14D4002A1AB12373AA1ABE51864016007
:104C700002A1ABD1204002A1ABE510705BB1D2E53F
:104C8000D9121F9BB1C6E09004CCF0D190D15B90BB
:104C900003E8EFF09004CCE0FFD394095002A12D7B
:104CA0009003E8E0D39402400CEFD394AA7F004035
:104CB000027F01800D9004CCE0D394407F0040023D
:104CC0007F01EF600280669004CCE0FFF51675FF6F
:104CD000008FD9751003A1ABE51064036002A1AB8E
:104CE000B1D2E92401F9E43AFAE5D9121F9B75FF24
:104CF000009003E8E0C39403E5D350055402FF801D
:104D0000035401FFEF602A30E111C39003F6E094F1
:104D1000FF9003F5E094FF5014800FC39003F8E078
:104D200094FF9003F7E094FF500312373AB1E0800C
:104D30007AC251122DBB75FF00D10BE5D120E0FBEB
:104D4000C2EB431502B1BFA3E0FF90073AE0FEEFCC
:104D50006EB1BEE0900739B1B8A3A3E090073BB1B4
:104D6000B8A3A3A3E0FE90073CE0FDEE6D4F6012F8
:104D7000C39003FAE094FF9003F9E094FF5003120C
:104D8000373AC39003F4E094FF9003F3E094FF50AC
:104D90000312373A7510009003E8E0B403071516C4
:104DA000B1C6E516F0900738E516F0D0FFD0D0D0A8
:104DB00082D083D0F0D0E032FEE0FDEE6D4FFF8573
:104DC000128285118322E5122407F582E43511F55C
:104DD000832275FF01F5EA75EAFF9003EC02236C6C
:104DE000C251122DBBD108E5D120E0FBE4F5FF75DF
:104DF000D9089003E8E07F00B403027F017183D2F9
:104E000051122DBBE4F51022E4F5FFE5D154FE4428
:104E100002F5D122E4F5FFE9D12EEA540F42D62261
:104E2000E5F754C024FF2274FFF5F002206CF5D79B
:104E3000E4F5FF53D6F022E5D254804414F5D22293
:104E4000E4F5FF8FD4F5FFCFEDCF8FD522C39003CC
:104E5000F0E094FF9003EFE094FF22EF24FE600C5B
:104E600024FE600580007F01227F02227F0322E46E
:104E7000F5FF75D102E5D120E0FBE4F5D1F5FFEFB8
:104E8000D12EEE540F42D6E4F5FFCFEDCF8FD422D2
:104E9000E5F75406FFBF06037F0822E5F75406FF37
:104EA000BF04037F0422E5F75406FFBF02037F021D
:104EB000227F0122900740E0B4020D8F1B90047600
:104EC000E0F513121BC4D322C3229004B012237541
:104ED000F103E51B121F9BF103E9F109F103E9243A
:104EE00002F10BF103F113E513121F9B9004B012B2
:104EF0002C2BE4121F9BF103E92405F9E43AFAE4B0
:104F0000021F9B9004B002236C2401F9E43AFAE4F6
:104F1000021F9BE92403F9E43AFA22E51754F0C48E
:104F2000540F2FFFC3941040027F0FEF902812936D
:104F3000FF227E10EE60091EEE90281293B507F452
:104F4000EEC3940E40027E0DEE90280493FF22EFF4
:104F500024FD600680007E018002E4FEAF0622E4AC
:104F6000F514022DFFC2AFEF4215D2AF2275140126
:104F7000751A139003FCEFF09003EA7402F0ED90C1
:104F8000040A30E507E4F0A3743AF022E4F0A374D5
:104F9000E6F022C39003F2E094FF9003F1E094FF67
:104FA000500312373A2290040AE0A3E0FF22900453
:104FB00090122375900493EDF0E4A3F0ED54FE906D
:104FC0000493F06030E4FF122945BF01289004905B
:104FD00012236C1241BD501D900491E475F0021231
:104FE000206C900494E02402F0900494E0FF90047C
:104FF00093E06F70D87F01122945900494E0FF225E
:105000007D02124FAEEFC36001D322E4FFFEFDFC30
:105010009003FD1120900401112090040502232328
:10502000122323E4FFFEFDFC22EF11321222C602FE
:1050300022AC25E025E024FDF582E43403F583224B
:10504000900739E0F4FFA3E06FFFA3E06FFFA3E058
:105050006FFF64556009EF644A6004EFB40A010F02
:105060009003E9EFF022A2EB9249C2EB7A0379EFC9
:105070007B017D0CE4FF12196CA24992EB22A2EB9A
:10508000924AC2EBEBC0E0EAC0E0E9C0E07A037903
:10509000EF11A6D0E0F9D0E0FAD0E0FB7F0C1219B6
:1050A00099A24A92EB227B01902E33022375C00312
:1050B000C002C0017B017A2E790711A8D001D0026D
:1050C000D0037F02021999122FADEF6401706A318B
:1050D00070902FECEFF0D39402505E902E0BE0FF17
:1050E000902FECE06F7052313A902FEDEFF07B0192
:1050F0007A2F79ED7D01121C8C902FECE02407F5BE
:1051000082E4342EF583EFF0902E0BE0045401F08E
:105110007027902E09E07002A3E0601D7B017A2EBB
:10512000790511AE7B017A2E7905902E09E0FEA358
:10513000E0FFF5828E831224AC22E4FFE5F754C031
:105140006002801675FF01E5D530E30D315F50F444
:10515000315AEF60EF315F50EB223166AFD92275E3
:10516000FF01E5E4332275FF01E4F5EA75EAFF2269
:10517000E5F45418131313541FFF22902E09EEF078
:10518000A3EFF022EF7011ED600775FF0143AE0150
:105190002275FF0153AEFE22EFB40110ED600775DA
:1051A000FF0143AE022275FF0153AEFD2275FF02DF
:1051B000E5E630E2037F0322E5E630E3037F0022E9
:1051C000E5E630E1037F0422E5E67F0530E0027F7B
:1051D0000122EF600775FF0253E6BF2275FF02430D
:1051E000E64022EF14600F146014240270188B80C4
:1051F00075FF018DFD228B9075FF018DC9228BA05B
:1052000075FF018DCA22AF038FB075FF01AF058F07
:10521000CB22902E0D122375EF1460111460182408
:1052200002701E514CE5805152E5FD801C514CE549
:10523000905152E5C98012514CE5A05152E5CA8007
:1052400008514CE5B05152E5CB021F9B902E100245
:10525000236C121F9B75FF01902E0D02236CE4F549
:10526000FFAF9122E4F5FFAF9222C24B75FF0375A9
:105270009B1F75FF0390120FE020E71BE59A540F68
:10528000C394024012E04480F0E4F5FF75C2A143EC
:10529000FC0475FF03D24BE5FC30E609E59A540F98
:1052A000C3940540CDE5FC30E611E4121F9B75FC6C
:1052B00080F5FC75FC40E5FC20E6FB304B03124416
:1052C0006022E4902F30F0A304F0E4902F33F0E557
:1052D000FA30E1FB75FF01E5D530E7037F0022E4FA
:1052E000F5FF75E50875FF0153D8EFE5D530E61AEF
:1052F00075FF01902F32E5DAF0E4F5DA75FF01E58C
:10530000D630E3FB902F337401F075FF03759B04D7
:1053100075FC4175FF03E59B30E7FBE4FB75FF037C
:105320008B95124309FF12466B0BEBB403EF75FF2D
:1053300003759580E4F5FF758EC812473575FF013A
:1053400053D5FB124719122F5A75FF0143D504900C
:105350002F33E070081247197FC8122F5C7B017A47
:105360002F7931516A902F31E0902F307006E04450
:1053700004FF8002E0FF902F30EFF090120EE0B4B7
:10538000010675FF0143D81075FF01902F32E0F53B
:10539000DA902F30E0FF22902C55122323E4F5FF02
:1053A00075BB0575BB8575FF0175D502204C097F5E
:1053B0003FFE122F5E12473575FF0143D520304C5A
:1053C00002815EE4F5FF538EF7438E077D04E4F51A
:1053D000FF8DBCF5FF43B102E5B130E2FBE4F5FF20
:1053E000AFDFEFFEACDEECFBEBFFED25E02453F589
:1053F00082E4342CF5839185F5FFF5FF53B1FD0D63
:10540000EDB40CCA902C55124317FF78091222866E
:10541000A39185FDED25E0245DF582E4342CF58330
:10542000E0C313FAA3E013FB9178918C2BFFEE3AC3
:10543000FE9178EEF0A3EFF0ED240490120DF0ED64
:10544000C394075019CFEDCF0DEF9179E0FEA3E0A3
:10545000FFC3902C5AE09F902C59E09E50B6E4F583
:10546000FF758EC8F5FF90120DE0F5BCE4F5FF75F1
:10547000BB8075FF01F5D522ED25E0245BF582E4C4
:10548000342CF58322EEF0A3EFF0E422E0C313FE08
:10549000A3E01322902F3CEEF0A31247A2EBF0B151
:1054A00014AC00AD01AE02AF03C006C007902F3CA4
:1054B000918CFBAA06E4F9F8D007D006D312225F3C
:1054C0007E0050047F0180027F00C006C007B11437
:1054D000D0E02FFFD0E03E902F3CF0A3EFF053EC54
:1054E000FC902F3CE0FCA3E0FDEC540342EC75FF84
:1054F00002EDF5AF75ED0275ED04A3E0600543EC38
:1055000008800353ECF7902F3FE0600443EC042243
:1055100053ECFB22902F3CE0FEA3E0FBAA06E4F94B
:10552000F87F807E387D01FC02185EEF30E00E438C
:10553000F401E4F5FF43A404F5FF759624EF30E190
:105540000E43F401E4F5FF43A408F5FF759624EF3C
:1055500030E20943F402E4F5FF75961EEF30E309EB
:1055600043F404E4F5FF75961075FF01EF540360F2
:105570000475D7122275D72D22E4F5FF7584E6F560
:10558000FF439404F5FF75981422E4F5FF75933FEB
:1055900075FF03759A40B179E4F5FF759C93F5FFAB
:1055A00075A1A3F5FF758531F5FF758628E5FA54D9
:1055B000304480F5FA75FF0175E74A75FF0275DF23
:1055C0004975FF0143D30475FF0153D367E4F5FF29
:1055D00053E6BF75FF0175D825F5FF75B503F5FFD7
:1055E00075B215F5FF75BA02F5FF75AFB3F5FF7526
:1055F000CD0AF5FF75CB08F5FF75CA12F5FF75BF2B
:105600000EF5FF75CC96F5FFF5BDF5FF75C281F57A
:10561000FF75AEE1F5FF75DA55F5FF75F580F5FF1D
:1056200075E903F5FF75E933F5FF75972A75FF01F5
:10563000759B42759CA4759D29759E48759F247520
:10564000A11275A312759AF8204E0CF5FF439680AF
:1056500090120FE04440F022CCEFCCCFEDCF74019C
:105660007E00C8EFC8088005C333CE33CED8F9FF1B
:10567000CDECCDEF5D601B304D1875FF0175DCADD5
:1056800075FF0175DDCDE4F5FF759A74F5FF75942E
:10569000842275FF0175DC5375FF0175DD33E4F578
:1056A000FF759A14F5FF7594042275FF01E5D53056
:1056B000E602C32253FACFEFB4080543FA30801252
:1056C000EFB4040543FA208009EFB4020543FA1051
:1056D0008000D322EF600775FF0243E6102275FFBA
:1056E0000253E6EF2275ED042275ED0222E5ED305E
:1056F000E2FB75ED04AFEF22AFEF228FEF22E5ED75
:1057000020E0FB8FEF22EF600443EC042253ECFB1C
:1057100022EF600443EC082253ECF722E5ED54023B
:10572000FF22E5ED5404FF22E5ED5401FF22902C09
:10573000A2E0121F9B902CA7E0900001121FAD90D9
:105740002CA8E0900002021FADAB05E4FCFD902EFA
:10575000F0EBF00234D5902CA4E0FF22E4902CA4CE
:10576000F022E4F5FFEFF5D8E4F5FF53D60FEE5441
:105770000FC4F854F0C8E4C4540F4842D622E4F5EC
:10578000FF8FD422E4F5FFE5D1540133333354F8CD
:10579000FFE4F5FFE5D354074FFF22EFB40109D230
:1057A000AD75FF0143AE4022C2AD75FF0153AEBFE0
:1057B0002275C80122E5C85402FF75C80222E5C857
:1057C0005401FF22EF6004902DB0F09003CDE0FF74
:1057D0009003BD12236C1219E99003CDEFF06049DC
:1057E000201B46902DAEE0C330E501D3921F902DD3
:1057F000B112236C125849902DAFE090043CF09008
:105800002DADE090043DF0A37457F0A374C4F09064
:1058100003CD1158121C69EF7023902DB07402F063
:10582000902DAB114F7F028011902DB0E0FF902D95
:10583000ABE0FCA3E0FDF5828C831224AC22A3F044
:10584000A37401F0FB7A2879CA900439022375E029
:10585000FEA3E0F5828E8322E0FBAD4BE4FF2290B5
:105860002CAFEFF0A3122375902CBA7403F0902C98
:10587000B7E05437F0E0FE5420902DAEF0902CB8F5
:10588000E0FDA3E0902DABCDF0A3EDF03179902DAC
:10589000B1122375902CB6E0902DAFF0902CB01281
:1058A000236C9003BD122375EE4420902DADF0E4DF
:1058B000902DB0F0C21BF542902CB012236CAF4279
:1058C0001219E98F42EF602A7D03121B7940E9909B
:1058D0002CB6E0D3941940037F0022AF42121B7410
:1058E0005008902CBA7401F08008902CBA7402F021
:1058F00080C6902CB6E0D3948240037F00227F02C2
:10590000121BE2902CBB122375EA494B605A902C73
:10591000AFE0FF902CBB12236CE924B6122CF79059
:105920002CB7E0FE30E01BE49003CDF0317FEE6455
:1059300001A3F0A37457F074C4316B902CBAE0FF4C
:10594000801E902CBAE0FF317F902CB7E0900422AB
:10595000F0902DABE0FDA3E0900423CDF0ED316B92
:105960007D02121C5F7F01227F0022A3F0902CBBDE
:1059700012236C900425122375902CB302236C9093
:105980002CB6E0900421F022C003C002C001902D8B
:105990005312236C902CB3122375902D56E0902C4B
:1059A000B6F0902D57E0902CB7F0902D58E0FFA363
:1059B000E0902CB8CFF0A3EFF0D001D002D003AF2D
:1059C0004B015F021A02E4FF302A037402FF222017
:1059D0000005D212021AC5C322903053E0701C7B1E
:1059E000FF7A2779517D23121C007BFF7A27793AB1
:1059F0007D17121C009030537401F022021C057BAD
:105A0000017A3079247D01123FEE903024E0FF22AC
:105A1000902FE9123932E4FF902FE912236C8F8224
:105A200051280FEFB410F122758300E593021FADEA
:105A300051374408F58F2275FF01E58F54F6227522
:105A4000FF01E58F5408FF22EFB4010775FF014302
:105A5000AE202275FF0153AEDF2275FF01E58F54A2
:105A600001FF22EFB4010775FF014391202275FF6A
:105A7000015391DF22122375902C4CE0540F22C267
:105A8000077B007A00794B902E921223750B7A07D0
:105A9000793922F0A3F0A3F0A3F022FDEF4DFFE54A
:105AA000F08FF00220FB2409F9E43AFA22A3F0E493
:105AB000A3F0A3F022E92408F9E43AFA2212236CB5
:105AC000E924BDF9E43AFA22E92402F9E43AFA2297
:105AD000EEF0A3EFF0A3ECF0A3EDF022E0FFA3E0E3
:105AE000902D0ECFF0A3EF22E0FEA3E0FFC3902C99
:105AF000AAE09FFF902CA9E09E22902CAAE024FF10
:105B0000FF902CA9E034FFFEE4FCFD22E4121F9B71
:105B10000429F9E43AFA22240AF9E43CFA021EDCE8
:105B2000E0FF902D6AE4F0A3EFF022F9EA34FFFAE7
:105B3000021EDCE0FFA3E0902D6ACFF0A3EFF0227D
:105B40007B017A0379B722EEF0A3EFF0A322FF8D59
:105B5000828C830224ACE0FCA3E0FD4C22E9958218
:105B6000EA958322AF03EAF0A3EFF022242DF9E4B3
:105B70003AFA7D04E4FF22FEE4FCFD02211AEEF075
:105B8000A3EFF0AA06F97B012212236CE924042278
:105B90003EFA121EDCFF22AF05F0A3EFF022FFE079
:105BA000FCA3E0FD227407F0E4A3F0227B017A2835
:105BB00079CE227A0379E47F04021999F9E43AFA5A
:105BC00074FF021F4675FF01438E1075FF012224EA
:105BD0002CF9E43AFA744022EEF0A3EFF07B0122B4
:105BE00035F0FEAF017B0122FFAEF05407640322C3
:105BF0002DF582EA3CF583227431F0A37499F022EA
:105C0000F582E43403F58322902D8EF0A3EFF02289
:105C1000FF54F0C4540FFE227401F0AE04AF05220D
:105C2000AA06A9070224A8E0FFA3E0FEC39F22FF63
:105C3000FFFFFFFFFFFFFFFFFFFFFFFFFFFFFFFF74
:105C4000FFFFFFFFFFFFFFFFFFFFFFFFFFFFFFFF64
