:020000040000FA
:0A0000000218000218034A44006EC3
:07000B0002180B093E094336
:070013000218130ABF0AD313
:07001B0002181B0C3B0D3A1B
:0F00230002182352247F032202182B1214E52205
:100033000218338FEF22D32202183BE4FF02100190
:060043000218430218132D
:06004B0002184B023247CF
:06005300021853023210F6
:06005B0002185BA219224D
:06006300021863020C36D6
:06006B0002186B020C18E4
:100073000218734103C8004103C700E002020000F5
:100083001C7DE002020002120EE00102000954E0AE
:100093000102000AA5E00502120B120E02043D4103
:1000A30007DF060114004107DE014107DC01C11A25
:1000B300011900011700433DED000000423DEB0034
:1000C300004141C400E00202121001B0E00102123B
:1000D3001200E00102129300E0050213BB01B00617
:1000E300043DC11DC10941340D00413487FF413432
:1000F3007F00C108C107413488004134890041347D
:100103008001C10B41340C004146DF00C13943403B
:100113006E00000041406D00414071004303BE008A
:1001230000004303BB0103BE42370E98074344DB81
:100133000000004344D80144DB41463D0241463CB4
:100143000D41463E0860203CD342DB010000000025
:10015300000000000000000000000000000000009C
:1001630000000000000000000060203CF3090000D4
:10017300000000000000000000000000000000007C
:1001830000000000000000000000000000503F726B
:10019300000000000000000000000000000000005C
:1001A300C114015800C111C112C11EC120C1254291
:1001B3002B779840412B790060202B3600000000FC
:1001C300000000000000000000000000000000002C
:1001D3000000000000000000000000004327EB9F28
:1001E30001005027EE0000000000000000000000A6
:1001F300000000000161222DF1000201050101024E
:100203000E060101000407040102030000040006B6
:100213000805040208031404000400140501080976
:100223000805020803140500040014050006001461
:100233000802020A0A080203010008000400140865
:100243000006001408010800140A020D000A0A023D
:100253000C000A0A02080B0A0A01050C0E0A000424
:1002630000140A000600140A010800140E000A0D07
:10027300110E020804140E000400140E00060014EC
:100283000E010800140E0105001411000C0C0E11D0
:1002930002080414110004001411000600141101D3
:1002A300080014110105001411000A0014110205BD
:1002B3000E12120208041412020C0F0012000400A2
:1002C3001412000600141201080014120105001490
:1002D30012000A0014120205001412000C00141379
:1002E300020C0100000209000000020F00001402CA
:1002F30009010014020B0013140007100014020A72
:100303000100140204001414020C001414020D0161
:100313000014020E001414020F010060242FFC02CB
:1003230000FFFF0602FF000602FF000301FF002398
:1003330000FFFF030000001300000002000101039F
:10034300000000462F53010002010402422FD90C82
:1003530022413060004131FA01413066004330638D
:1003630001302143305701302141096900602008E1
:1003730045EDFFFFFFFFFFFFFFFFFFFFFFFFFFFF56
:10038300FFFFFFFFFFFFFFFFFFFFFFFFFFFFFFFF7A
:100393007F602827710522000000030008EEEF7F2D
:1003A30088CF7FC00F028124E040000000008080DE
:1003B300180000E8330000060000600000412162DD
:1003C30000412172004121600141216511412161F8
:1003D3000041243F0041245E0041243C0041246647
:1003E300004F244F01279F0001247A000127C800F2
:1003F3000000004224788700C127C1284134E896D1
:100403004134E40FE0020213C000A2E00502145DD0
:1004130000A2040522E0020214620807E005021CA0
:100423006408070505224144ACFF4144AA04C1BC4A
:100433004144A7004144AB004144A8FF473DF900B4
:10044300000000000000433DF6000000E002021C33
:10045300690013E00C021C6B000003080003000892
:100463000522043DE005021C770013FF0522E0028C
:10047300021C7C000000C2D5E830E70FB2D5E4C30C
:100483009BFBE49AFAE499F9E498F8EC30E717B2A5
:10049300D51204AF121CA2E4C39BFBE49AFAE499BD
:1004A300F9E498F88003121CA230D50DE4C39FFF32
:1004B300E49EFEE49DFDE49CFC2278B0E4F6D8FDC6
:1004C3009000007F007E10E4F0A3DFFCDEFA90468C
:1004D300F9A3E583C394204011FEAF829020000E60
:1004E3000FE48002F0A3DFFCDEFA12082002051AF3
:0C04F30022320858085D0876087B08805B
:100508007581B075FF03759E0212082002248402CB
:1005180004F3900076E47E019360F4A3FF543F3027
:10052800E509541FFEE493A360010ECF54E0B4E044
:100538000EEFFAEEF9A3A3A3A3DAFDD9FB80D654F4
:10054800C025E0604B5026E493A3F85407240CC858
:10055800C333C4540F4420C8834004F45680014672
:10056800F6DFE480B00102040810204080E493A381
:10057800FAE493A3F8E493A3C8C582C8CAC583CA9A
:10058800F0A3C8C582C8CAC583CADFE9DEE780858B
:10059800E493A3F8E493A34003F68001F208DFF4A0
:1005A80002051D556E6B6E6F776E206576656E74ED
:1005B8003A20000A002C0020000B6E0B730B78EF1A
:1005C8009005D093900800730A20364CE576FF22F8
:1005D800EFF5762200000100000000170600000079
:1005E80000180600000006180600000001180600A2
:1005F80000000818060000000101010000000115B4
:1006080000000000010204000000010B04000000CB
:10061800060B04000000080B04000000010D000098
:100628000000010E04000000011000000000010F8E
:100638000000000004050100000004060600000098
:10064800040708000000020500000000030501007F
:100658000000010805000000000800000000010C6F
:10066800010000000112050000000803020000005C
:100678000122000000000816080000000808000019
:10068800000001160100000006160100000005091F
:1006980003000000050A0000000005030200000036
:1006A800050400000000061B06000000011B0600F0
:1006B8000000061C07000000061D070000000705D3
:1006C80008000000081E07000000082000000000C5
:1006D800081F0000000008210000000008110600A3
:1006E80000000111060000000822000000000619A1
:1006F80006000000061E00000000062000000000A2
:10070800061A080000000614010000000714010082
:100718000000081B06000000072400000000081461
:1007280001000000555555555555555555555555C4
:10073800555555333333333333333333333333331B
:100748003333338888888888888888888888888820
:1007580088883F241E16110E0B09070504030201A1
:10076800F0C8A791776760463835323024222014C4
:100778000001010202030304040505060607070039
:100788000000000000000000000000000000000061
:100798000000000000000000000000000000878842
:1007A8008888888888888888888888888888262685
:1007B8002626262626262626262626262626000D10
:1007C8004288000D428800000000020C00013F3FF3
:1007D8003F040404404040000000000CA90CAE0C8B
:1007E800B30CB80CBD0CC20CC70CCC0CD10CD60C7D
:0707F800DB0CE00CE50CEA4C
:10080000C0767408C0E0C082C08375760AE5FF54E4
:10081000CF4490F5FF22C0767408C0E0C082C08348
:10082000757620E5FF54CF4490F5FF22C07674081A
:10083000C0E0C082C083757636E5FF54CF44A0F592
:10084000FF22C0767408C0E0C082C08375764CE594
:10085000FF54CF44B0F5FF229081AA01169081BECB
:10086000011690C036011690C3CF011690C2DF0169
:100870001690C825011690D020011690D038011688
:100880009095F4011690D0DF0116909C46011690C9
:10089000D13D011690D375011690A3980116909D35
:1008A000AC011690E08C011690E0A8011690A60D00
:1008B000011690E134011690D3F7011690D3CC01C4
:1008C0001690CAF0011690E2D3011690E3290116A2
:1008D00090E311011690E2B3011690BE300116901C
:1008E000C903011690E231011690B314011690B7B6
:1008F0002E011690D7EE011690E339011690E1CF44
:10090000011690B98A011690D30F011690E3590190
:100910001690D40F011690CAB2011690E371011619
:1009200090E7D8011690E81E011690E83C01169059
:10093000E887011690E91E011690E8CE011690E9AD
:10094000450116909B0C011690D1BD011690C888E8
:1009500001169081F6011690D355011690C5B80185
:100960001690E98B011690B6C1011690B7B6011624
:1009700090B69D011690D624011690B6D901169016
:10098000E99A011690E9BE011690D291011690C520
:10099000CF011690D2A5011690E9F0011690E9F169
:1009A000011690D749011690C689011690EA0301F5
:1009B0001690DFE8011690EA13011690EA69011615
:1009C00090EA6F011690EA75011690EA7B01169085
:1009D000D29F011690CF4A011690CB96011690D463
:1009E00072011690D902011690D935011690D7AC34
:1009F000011690D634011690EACF011690D68101E7
:100A00001690EB7B011690D137011690EBF1011691
:100A100090D1FE011690D1EB011690AA52011690CA
:100A2000D273011690ED9B011690EFC7011690EF5F
:100A300054011690E3A0011690F56B011690F59EF7
:100A4000011690F600011690F665011690E7B901BF
:100A50001690F496011690809701169080FB01166F
:100A6000908000011690815F01169081B80142903C
:100A7000C248014290A90A014290C24B014290A98A
:100A800032014290A9A0014290B177014290AA8C14
:100A9000014290C391014290C39401429080A3010E
:100AA0004290C397014290C508014290C53401426B
:100AB00090C824014290C857014290933D01429052
:100AC000C8F10142909182014290CA17014290867A
:100AD0007C014290CB4F014290CB82014290BB03FC
:100AE000014290BAD0014290CB9C014290CBB6011A
:100AF0004290A935014290CDD8014290CE61014289
:100B000090AFF2014290C26C014290CEF801429047
:100B1000B0D70142908000014290904D014290CEAA
:100B2000FF014290CF1D014290CFEE014290D6CB03
:100B3000014290B79B014290B280014290D764017C
:100B40004290D7A2014290D803014290D82001429E
:100B500090D852014290D8990142909F68014290EA
:100B6000D6E9014290B0E501429095C3014290D987
:100B70003D014290D982014290A9A7014290DA59E1
:100B8000014290DA97014290B06C014290B04D0161
:100B9000429084CB014290B6340142908F230142AF
:100BA00090DBC5014290DBCD014290DBE301429036
:100BB000DAD4014290983E014290DC0F014290DC71
:100BC0002B014290915801429084C5014290DC5D16
:100BD000014290DC67014290917C014290DC6D0102
:100BE0004290B7950142908F1D014290C317014278
:100BF00090DD6B014290B285014290E1FE0142908E
:100C0000E2FD014290B81B014290B6E9014290E337
:100C1000BE0142909DAB014290E3C7014290E419AE
:100C2000014290E459014290E45A014290CDF6010C
:100C30004290E463014290E46A014290D9A70142E4
:100C4000908D8E014290E5B7014290AAAC0142908E
:100C5000A936014290E631014290E643014290BE3E
:100C600059014290E6DD014290E6E0014290941C79
:100C7000014290915E014290AE5F014290AEE80168
:100C800042908E58014290B861014290BAA401424C
:100C900090BA91014290B9FB014290BB5E01429033
:100CA000BA04014290B8680142909BF3012C909CD9
:100CB00022012C909F11012C909F93012C909FABAF
:100CC000012C909FBD012C90A025012C90A02F01FC
:100CD0002C909C0C012C909FB4012C90A091012C85
:100CE00090A0B9012C90A104012C90A134012C906A
:100CF00080B6012C90A338012C90A339012C90933D
:100D0000D0012C909FCE012C909B17012C90A37B9F
:100D1000012C909A26012C90A37C012C90A43501E3
:100D20002C90A475012C909949012C9098CD012C00
:100D3000908000012C90A5E5012C909F7A012C0059
:100D400008B708BC08C108C608D008E408E908EEDE
:100D50000C450C4F0C540C590C5E0C630C680C7257
:100D60005A2D5761766520342E3631000B2D0B3C01
:100D70000B410B460B4B822D1C1613111010097AD8
:100D8000097F09B10D1C0D210D26E4FD7C0CAB057E
:100D90000DEB900D60938F828E83F00FBF00010EDC
:100DA000DCEC0200288F828E83E4F0A37404B1B8D7
:100DB000743DB1B8A3E4F022F08F828E83A3A32206
:100DC0009003CF7402F09003C7E0FF91FE9003CF31
:100DD0007405F0221212FB3148511511A37128F14C
:100DE000027002C1B47FFF31D49008E2121F6F7EFF
:100DF000007F09F10CBF540D7E007F0AF10CBFA5E6
:100E0000047F0180027F009003C7EFF09008E21298
:100E10001F4FE94A4B701D7F04FEF10CEF2401FFC8
:100E2000E433FEC374011237567F0050027F0190F5
:100E300003C7EFF09003C7E06401704C9008E21222
:100E40001F4FF1F37A0879E8124FA09008E8E0FE0E
:100E5000A3E09008E21254F3E43AFA9008E5121F76
:100E60006FE92408F9E43AFEAF017B017A0879E8DA
:100E7000124FA09008E8E064057004A3E0642260CB
:100E80000731D99003C7EFF09003C7E0701F7E00D1
:100E90007F04C006C3747D9404FE741C125406D0F3
:100EA0000612163C74FFFDFCE4FFFE31DE9003C722
:100EB000E0FF5101F1027F0060027F0111FD310767
:100EC00011621254167A12791E5174125597FE4F00
:100ED000FDA3E0FC4DFDA3E0FB4D600BEE5FFFECDE
:100EE0005FFFEB5FF4700312275F90121CE0FF546A
:100EF00003241EF582E43412F583E06F9003C2F000
:100F000041F69003C9E0640122FEAF01E4FCFD90CC
:100F1000453C121EB71214B812100DEF60051212E4
:100F2000B580F51210C47F0312129A600A90453CF6
:100F3000121E2A7810F15690453CF15190453CF133
:100F4000E6121061904540EFF0F1FC904540E0FF63
:100F500022121E2A7808121D76E4E5C820E2FB8FD3
:100F6000EB227F011210019046D97401F09046D90E
:100F7000E06033F1EC1210619046D9EFF012118F5E
:100F800012104E9041B8EFF012118F9046D9E054F4
:100F90000112566260D7A3E0F460D2EF30E7CEE4EE
:100FA0009046D9F080C71210C87F9FF15A12106185
:100FB0009041B912105F9041BE12105F9041BFEF97
:100FC000F0F1FC9041B7E0F4601BA3E0F4601690F0
:100FD00041BEE0FD541F240FA3F0EDC41354074499
:100FE000809041BEF022121E2AE4E15A1210C87FFE
:100FF00005E15AAE02AF017B0122F15A12118FE4D2
:10100000FFEFB4010443FE202253FEDF227F0111D3
:1010100001303715120FEC11619046DBEFF0318F84
:101020009046DBE020E002C237303718114E904185
:10103000B8EF125662600BA3E0F46006EF30E702EF
:10104000C237318FE4FF1101A237E433FF2211C808
:101050007FD7120F5A7FFF120F5A11669041B7EFD8
:10106000F07FFF120F5AE5C820E2FBAFEB2290425F
:10107000D6121EB79042DA121F6F91B8110DEF60B1
:101080000451B580F711C47F03519A600B9042D68A
:10109000121E2A7810120F569042D6120F5190420B
:1010A000D6120FE69042DDF12D601311619042DA05
:1010B000F11D9042DBE475F001121AD480E6318F05
:1010C000E4FF01017F0111019041BCE012207C107E
:1010D000EB0410F31410F81510FD17110D30111258
:1010E00034111736111C37000011055354EF855485
:1010F00080802F5355EF80085355DF800353557F71
:10110000855590801D5356DF8556A080155357FE98
:10111000800D5357EF80085357BF800353577F8587
:1011200057B07F0CDFFE229042CD121EB79042D105
:10113000121F6F91B8110DEF600451B580F7518403
:10114000600B9042CD121E2A7810120F569042CD9D
:10115000120F519042CD121E2AE480249042D4F105
:101160002D60229042D1F1AB60149042D1F1EA128D
:101170000F5A9042D2E475F001121AD480DEE4FFD7
:10118000120F5A80D7120FFC9041BB7401F022F16C
:10119000A5EF70FB9041BEE0F4600A9046D874065B
:1011A000F0D16170FC9041BCE012207C11C80411A8
:1011B000D01411D51511DA1711EA3011EF3411F4EA
:1011C0003611F937000011E2435410855480802F06
:1011D0004355108008435520800343558085559022
:1011E000801D4356208556A08015435701800D432E
:1011F0005710800843574080034357808557B0906D
:1012000046D8740CF0D16170FC2291B8110DEF60DA
:101210000451B580F77F011101D23711C87F061242
:101220000F5A318F11C87F01120F5A7F03120F5AC4
:10123000318FE4FF0101904541121EB790454112E4
:101240001E2A120F0F904545E06F603691B8110DC0
:10125000EF600451B580F75184600B904541121E38
:101260002A7810120F56904541120F5190454112A5
:101270000FE6904545E0FF120FFA9041BB7401F074
:10128000D322C3227F011101D23711C87F06120F6A
:101290005A318F11C89041BAE0FF120F5A9041BDE8
:1012A000E0640222FEAF01E4FDAB05E4FCFD9045E5
:1012B00045EBF08081E51530E20FE51520E50AE504
:1012C0001530E0057F011227C8229046DAEFF09032
:1012D00041C5E06402702311C49046DAE07FAB6040
:1012E000027FB9120F5A318F9046DAE09041C4F074
:1012F00070047F1EDFFEE4FF1101227B017A417939
:10130000BC7D017F03120B007A4179C57F08F1B9DA
:101310007A4179C27F09D15A7A4179C07F0BD15A7B
:101320009041C0F1156006BEFF1BBFFF189041C57C
:10133000E024FD6003047004D16980099041C0E499
:10134000F0A37440F09041C5E024FD6003047008F0
:101350009041BD7403F080069041BD7402F090414D
:10136000BCE012207C138104138C14139415139C7D
:101370001713B23013BA3413C23613CA370000132E
:10138000A775FF015350EF8550FD804775FF01534E
:1013900051EF800E75FF015351DF800675FF015339
:1013A000517F8551C9802C75FF015352DF8552CA88
:1013B000802175FF015353FE801675FF015353EFD3
:1013C000800E75FF015353BF800675FF0153537F95
:1013D0008553CB318F7F1191AAE4FF51CA120F625E
:1013E0009041BA7402F09041BEE0247F600904701D
:1013F0001591B0740A800691C791B07458F090416D
:10140000BD7403F0D1699041BFE0F4600281A890FF
:1014100041C2E0FEA3E0FF64104E70069041BF742D
:101420000EF0EF64204E70069041BF740FF0EF6431
:10143000404E70069041BF7410F0EF64804E70060D
:101440009041BF7411F0E4B5070AEEB40106904173
:10145000BF7412F0E4B5070AEEB402069041BF74FF
:1014600013F0E4B5070AEEB404069041BF7414F01B
:10147000E4B5070AEEB408069041BF7415F0E4B570
:10148000070AEEB410069041BF7416F0E4B5070ADF
:10149000EEB420069041BF7417F0E4B5070AEEB42D
:1014A00040069041BF7418F0410AEF4420F5FE2237
:1014B0007F1091AA9041BA2275FF02E5E430E1065F
:1014C00075E40675E403229041B7E020E01611C4EC
:1014D0007F3D120F5A7F2A120F5A7F80120F5A7FB8
:1014E000A6120FFA229046F9EFF0E563C39420406C
:1014F0000451B580F5E55FC394204003E4F55FC275
:10150000ACF19FEF700EE563700A9046F9E0FF12B0
:10151000003680139046F9E0FFAE5F055F74332E0E
:10152000124F24EFF00563D2AC7F0122D129121FA4
:101530006F90424C121F4F90424FF1DD9042481283
:101540001E2AD1965002A1E99041C1E024FFFF90EC
:1015500041C0E034FFFEE4FCFD904248121E4612FA
:101560001D34904251F1B26039D133C39041C1E092
:101570009FFF9041C0E09EFE904251F0A3EFF0909B
:10158000424FD1539FEC9E5006A3ECF0A3EDF0B177
:10159000EB121F4FE94A6004D13380407E007F0088
:1015A000803A90424FF115603E9041C0D153EF9D7B
:1015B000EE9C400A904251ECF0A3EDF0800D904279
:1015C0004FE0FFA3E0A3CFF0A3EFF0B1EB121F4F6A
:1015D000E94A6004D13380047E007F0090424DEEE2
:1015E0008FF0121AD480BBD322C32290424C121F18
:1015F0004F904251E0FFA3E09042D4CFF0A3EFF030
:10160000904248121E2A3127904251E0FEA3E0FF8B
:10161000C3904250E09FF090424FE09EF0904248CD
:10162000121E46E4FCFD121BFC904248121EB790AD
:10163000424C22904251E0FEA3E0FF2290442AF166
:10164000C0C00790442A121F4F90442D12554AD013
:1016500007A12CE0FCA3E0FDD3227B017D02020B5D
:10166000009046D8E014F0E0229041C07401F0A34D
:10167000E4F02291B8110DEF600451B580F722F12A
:1016800037E924E0F9E490424FF184B12CF17C90E9
:10169000454504F04136903F06121EB7903F0A12AE
:1016A0001F6FE4903F2DF0D3903F0EE0941E903FCB
:1016B0000DE094004001227B017A3F790F903F0DAD
:1016C000125526903F06121E2A116E903F0A121FD5
:1016D0004FE94A6008903F2DF124FF80027F00907F
:1016E0003F2DE0240FF582E4343FF583E06F600284
:1016F000C322903F2DE004FFF0D3903F0EE09F9077
:101700003F0DE0940050C42275FF0275E40475E4B7
:101710000175E40222E0FEA3E0FF4E22FF121F4FFC
:10172000EF021A03E0F58275830002198174FFF558
:10173000F0121AEA45F0227E127F94E4FCFD903DFF
:10174000ED021F4FF17C120F0FEF600EF137E9240D
:10175000E0F9E49042DDF184116E22F13EE9240FBC
:10176000F1747009F13EE9240DF17460047F018089
:10177000027F0022F9EA3402FA0219447E127F93B2
:10178000E4FCFD223AFA7401F0A37427F02275FFFD
:101790000275E404E4F5E422EEF0A3EFF0D322E5D1
:1017A000ED5401FF22E5C85404FF22121F4FEA49FD
:1017B0004B22EEF0A3EFF04E227B017D01020B00E5
:1017C000121F6FE4FCFD22904431F1C0C007904429
:1017D00031121F4F904434F1DDD007C196E0FFA3D2
:1017E000E0903F0DCFF0A3EFF022121F4F121944EB
:0517F000FF22020B7D49
:061800000205080209E3E5
:101808007FB8E0FB7D017F01024C8075FF028FE30A
:10181800227B017A12791E22024B7D024E8775EDDA
:02182800042298
:10182B0002289790121CE070111255974FFFA3E0FE
:10183B004FFFA3E04F7003D38001C32275ED02224B
:10184B00023A87E709F608DFFA8046E709F208DF74
:10185B00FA803E88828C83E709F0A3DFFA8032E3BB
:10186B0009F608DFFA8078E309F208DFFA8070885E
:10187B00828C83E309F0A3DFFA806489828A83E098
:10188B00A3F608DFFA805889828A83E0A3F208DF87
:10189B00FA804C80D280FA80C680D4806980F28036
:1018AB0033801080A680EA809A80A880DA80E2805C
:1018BB00CA803389828A83ECFAE493A3C8C582C8B1
:1018CB00CCC583CCF0A3C8C582C8CCC583CCDFE91B
:1018DB00DEE7800D89828A83E493A3F608DFF9ECB7
:1018EB00FAA9F0EDFB2289828A83ECFAE0A3C8C542
:1018FB0082C8CCC583CCF0A3C8C582C8CCC583CC69
:10190B00DFEADEE880DB89828A83E493A3F208DFD7
:10191B00F980CC88F0EF60010E4E60C388F0ED24A7
:10192B0002B4040050B9F582EB2402B4040050AFAA
:10193B00232345822390189E73BB010689828A83D9
:10194B00E0225002E722BBFE02E32289828A83E473
:10195B009322BB010B89828A83F8E0C828F0E82226
:10196B00500327C722BBFE07F8E3C828F3E8228AF7
:10197B00838982E49322BB010CE58229F582E583FE
:10198B003AF583E0225006E92582F8E622BBFE06F3
:10199B00E92582F8E222E58229F582E5833AF5838F
:1019AB00E49322BB010989828A83F8E028F0225054
:1019BB000327F722BBFE05F8E328F3228A838982EB
:1019CB00F8E4932822BB010FF8E58229F582E58321
:1019DB003AF583E028F0225009C58229F8E58226E2
:1019EB00F622BBFE09C58229F8E22582F222F8EA2B
:1019FB002583F583E9932822BB010689828A83F02C
:101A0B00225002F722BBFE01F322F8BB010DE58247
:101A1B0029F582E5833AF583E8F0225006E9258221
:101A2B00C8F622BBFE05E92582C8F222EF8DF0A491
:101A3B00A8F0CF8CF0A428CE8DF0A42EFE22BC00F3
:101A4B000BBE0029EF8DF084FFADF022E4CCF875CE
:101A5B00F008EF2FFFEE33FEEC33FCEE9DEC9840DD
:101A6B0005FCEE9DFE0FD5F0E9E4CEFD22EDF8F579
:101A7B00F0EE8420D21CFEADF075F008EF2FFFEDD9
:101A8B0033FD4007985006D5F0F222C398FD0FD5D1
:101A9B00F0EA22C2D5EC30E709B2D5E4C39DFDE4F0
:101AAB009CFCEE30E715B2D5E4C39FFFE49EFE121B
:101ABB001A49C3E49DFDE49CFC8003121A4930D5FE
:101ACB0007C3E49FFFE49EFE22C5F0F8A3E028F0D5
:101ADB00C5F0F8E582158270021583E038F022A379
:101AEB00F8E0C5F025F0F0E582158270021583E071
:101AFB00C838F0E822BB010A89828A83E0F5F0A39B
:101B0B00E022500687F009E71922BBFE07E3F5F048
:101B1B0009E3192289828A83E493F5F074019322F5
:101B2B00BB0110E58229F582E5833AF583E0F5F0F8
:101B3B00A3E0225009E92582F886F008E622BBFED5
:101B4B000AE92582F8E2F5F008E222E5832AF5831B
:101B5B00E993F5F0A3E99322BB010DC58229C58258
:101B6B00C5833AC583021AD45011C58229F808E5FA
:101B7B00F026F618F5F0E58236F622BBFE11C5828B
:101B8B0029F808E225F0F5F0F218E23582F222F896
:101B9B00E58229F582E5832AF58374019325F0F517
:101BAB00F0E4933822BB010A89828A83F0E5F0A323
:101BBB00F0225006F709A7F01922BBFE06F3E5F059
:101BCB0009F31922F8BB0111E58229F582E5833A65
:101BDB00F583E8F0E5F0A3F0225009E92582C8F679
:101BEB0008A6F022BBFE09E92582C8F2E5F008F24F
:101BFB0022EF2BFFEE3AFEED39FDEC38FC22C3EF62
:101C0B009BFFEE9AFEED99FDEC98FC22E88FF0A479
:101C1B00CC8BF0A42CFCE98EF0A42CFC8AF0EDA468
:101C2B002CFCEA8EF0A4CDA8F08BF0A42DCC38259B
:101C3B00F0FDE98FF0A42CCD35F0FCEB8EF0A4FE7B
:101C4B00A9F0EB8FF0A4CFC5F02ECD39FEE43CFC10
:101C5B00EAA42DCE35F0FDE43CFC2275F00875822C
:101C6B0000EF2FFFEE33FECD33CDCC33CCC582331B
:101C7B00C5829BED9AEC99E58298400CF582EE9B20
:101C8B00FEED9AFDEC99FC0FD5F0D6E4CEFBE4CD3E
:101C9B00FAE4CCF9A88222B800C1B90059BA002DD8
:101CAB00EC8BF084CFCECDFCE5F0CBF97818EF2F91
:101CBB00FFEE33FEED33FDEC33FCEB33FB10D703C0
:101CCB00994004EB99FB0FD8E5E4F9FA227818EF69
:101CDB002FFFEE33FEED33FDEC33FCC933C910D7C8
:101CEB00059BE99A4007EC9BFCE99AF90FD8E0E4D5
:101CFB00C9FAE4CCFB2275F010EF2FFFEE33FEEDAB
:101D0B0033FDCC33CCC833C810D7079BEC9AE8997A
:101D1B00400AED9BFDEC9AFCE899F80FD5F0DAE45C
:101D2B00CDFBE4CCFAE4C8F922EF5BFFEE5AFEEDF3
:101D3B0059FDEC58FC22C3E49FFFE49EFEE49DFD9D
:101D4B00E49CFC22EB9FF5F0EA9E42F0E99D42F009
:101D5B00EC6480C864809845F022EB9FF5F0EA9E16
:101D6B0042F0E99D42F0E89C45F022E8600FECC39D
:101D7B0013FCED13FDEE13FEEF13FFD8F122E86019
:101D8B000FEFC333FFEE33FEED33FDEC33FCD8F135
:101D9B0022BB010789828A83021E2A5005E9F802B9
:101DAB002309BBFE05E9F802231589828A83021EEB
:101DBB0036BB010DE58229F582E5833AF583021ED8
:101DCB002A5007E92582F8022309BBFE07E9258281
:101DDB00F8022315E58229F582E5833AF583021E85
:101DEB0036BB010789828A83021EB75005E9F802C8
:101DFB00234BBBFE05E9F802235722BB010DE582FD
:101E0B0029F582E5833AF583021EB75007E925824F
:101E1B00F802234BBBFE07E92582F802235722E089
:101E2B00FCA3E0FDA3E0FEA3E0FF22E493FC74011E
:101E3B0093FD740293FE740393FF22E0F8A3E0F981
:101E4B00A3E0FAA3E0FB22BB010DE58229F582E5B5
:101E5B00833AF583021E465007E92582F8022321B7
:101E6B00BBFE07E92582F802232EE58229F582E5E0
:101E7B00833AF58302233B7401FF3395E0FEFDFCAF
:101E8B00A3A3A3E02FFFF0E582158270021583E078
:101E9B003EFEF0E582158270021583E03DFDF0E514
:101EAB0082158270021583E03CFCF022ECF0A3ED6E
:101EBB00F0A3EEF0A3EFF022A8828583F0D083D0BD
:101ECB0082121EDA121EDA121EDA121EDAE473E422
:101EDB0093A3C583C5F0C583C8C582C8F0A3C583CA
:101EEB00C5F0C583C8C582C822BB010789828A8316
:101EFB00021EC35005E9F8022363BBFE05E9F80295
:101F0B00237C22BB010DE58229F582E5833AF5831B
:101F1B00021EC35007E92582F8022363BBFE07E9C3
:101F2B002582F802237C22F5F0C582A4C582C5F078
:101F3B00C583A42583F58322A42582F582E5F0359C
:101F4B0083F58322E0FBA3E0FAA3E0F922F8E0FBA0
:101F5B00A3A3E0F925F0F0E582158270021583E06A
:101F6B00FA38F022EBF0A3EAF0A3E9F022E493FBBA
:101F7B00740193FA740293F922BB010789828A8355
:101F8B00021F4F5005E9F8022395BBFE05E9F80245
:101F9B0023A789828A83021F78BB011A89828A83CD
:101FAB00D0F0D0E0F8D0E0F9D0E0FAD0E0FBE8C018
:101FBB00E0C0F0021F6F5016E9F8D083D082D0E05A
:101FCB00F9D0E0FAD0E0FBC082C08302239EBBFEB7
:101FDB0016E9F8D083D082D0E0F9D0E0FAD0E0FB5C
:101FEB00C082C0830223B022BB010DE58229F5829A
:101FFB00E5833AF583021F4F5007E92582F8022348
:10200B0095BBFE07E92582F80223A7E58229F58215
:10201B00E5833AF583021F78BB0120E58229F5821F
:10202B00E5833AF583D0F0D0E0F8D0E0F9D0E0FAD0
:10203B00D0E0FBE8C0E0C0F0021F6F5018E925822A
:10204B00F8D083D082D0E0F9D0E0FAD0E0FBC082A8
:10205B00C08302239EBBFE18E92582F8D083D08271
:10206B00D0E0F9D0E0FAD0E0FBC082C0830223B00D
:10207B0022D083D082F8E4937012740193700DA375
:10208B00A393F8740193F5828883E47374029368C5
:10209B0060EFA3A3A380DFD083D082E4937012748C
:1020AB000193700DA3A393F8740193F5828883E4D5
:1020BB00737402936C70127403936D700C740493AD
:1020CB006E70067405936F60DDA3A3A3A3A3A38017
:1020DB00CA8A838982E473E5712582F582E57035BE
:1020EB0083F583B570048582712210AF06858271EA
:1020FB00F57022858271F570D2AF22EC8EF0A4CCF4
:10210B00C5F0CCCDF8EFA4CEC5F02DFDE43CFCE83A
:10211B00A42EC8C5F03DFDE43CFCEFA4FFE5F02880
:10212B00FEE43DFDE43CFC22E3F5F009E208B5F0EA
:10213B006BDFF58067E3F5F009E608B5F05EDFF5D8
:10214B00805A87F009E608B5F052DFF6804E87F02B
:10215B0009E208B5F046DFF6804288828C8387F06F
:10216B0009E0A3B5F036DFF6803288828C8387F0E6
:10217B0009E493A3B5F025DFF5802188828C83E3F6
:10218B00F5F009E0A3B5F014DFF5801088828C839D
:10219B00E3F5F009E493A3B5F002DFF402226280C9
:1021AB008780E9809080D4803E8015806E807E8011
:1021BB009D80B7808D80A380518074803C02226EFD
:1021CB0089828A83ECFAE493F5F0A3C8C582C8CC64
:1021DB00C583CCE493A3C8C582C8CCC583CCB5F06A
:1021EB0076DFE3DEE1807089828A83E493F5F0A3E6
:1021FB00E208B5F062DFF4805E89828A83E0F5F055
:10220B00A3E608B5F051DFF5804D89828A83E0F5AE
:10221B00F0A3E208B5F040DFF5803C89828A83E4C5
:10222B0093F5F0A3E608B5F02EDFF4802A80028048
:10223B005789828A83ECFAE493F5F0A3C8C582C868
:10224B00CCC583CCE0A3C8C582C8CCC583CCB5F0C4
:10225B0006DFE4DEE280007FFFB5F0020F224002D2
:10226B007F012289828A83ECFAE0F5F0A3C8C5824C
:10227B00C8CCC583CCE0A3C8C582C8CCC583CCB5BC
:10228B00F0D5DFE5DEE380CF89828A83ECFAE0F5D7
:10229B00F0A3C8C582C8CCC583CCE493A3C8C582C0
:1022AB00C8CCC583CCB5F0AFDFE4DEE280A988F003
:1022BB00EF60010E4E60ABED2402B404005098F5B4
:1022CB0082EB2402B40400508E23234582239021F9
:1022DB00AA73EF4E6012EF60010EEDBB010B89820A
:1022EB008A83F0A3DFFCDEFA2289F05007F709DFBF
:1022FB00FCA9F022BBFEFCF309DFFCA9F022E6FCF3
:10230B0008E6FD08E6FE08E6FF22E2FC08E2FD080F
:10231B00E2FE08E2FF22E6FB08E6F908E6FA08E629
:10232B00CBF822E2FB08E2F908E2FA08E2CBF8224A
:10233B00E493F8740193F9740293FA740393FB22F8
:10234B00ECF608EDF608EEF608EFF622ECF208EDE7
:10235B00F208EEF208EFF222D083D082E493F60873
:10236B00740193F608740293F608740393F67404DD
:10237B0073D083D082E493F208740193F208740251
:10238B0093F208740393F2740473E6FB08E6FA08FD
:10239B00E6F922EBF608EAF608E9F622E2FB08E298
:1023AB00FA08E2F922EBF208EAF208E9F2229009C4
:1023BB0036EFF0900938EBF0900937EDF0540290BE
:1023CB00123AF01255D6600712005E5002C3221269
:1023DB000B5FEF6002C32212175BEF6002C3221286
:1023EB00167F900936E0B4040CA312180A90093634
:1023FB007403F08029900936E06405701B90122459
:10240B00E090093730E50712180A7F1F8005124C40
:10241B007AE4FF1218138006900937124C7A900950
:10242B0036E09003C8F0900938E0901239F0F1F9DA
:10243B009003D0021798901243E0FD7F01124B7D61
:10244B00901224E090123A30E50712180A7F1F8091
:10245B0005124C7AE4FF1218137F0143FB1075FF32
:10246B000243E640EF600D75FF02E5E120E7FB4319
:10247B00FB0D800343FB0E80FE75FF0275E404E445
:10248B00F5E4C21975FF02901215E0603BE5E654C6
:10249B00036401703312092A124706401F90123948
:1024AB00E0600DE014F070081204BDE4901215F01A
:1024BB00901215E07002A1619141A1611204BDD28D
:1024CB0019E4901215F0A1611204BD124BAA9003EE
:1024DB00C9EFF0901200E0B47A14901214E0B49C9F
:1024EB000D9003C9E0FF64056004EFB40330E49082
:1024FB0003CEF09003CEE0FFC394805013E42FF58E
:10250B0082E43412F583E4F09003CEE004F080E330
:10251B00901200747AF0901214749CF0D215120B76
:10252B000A4003120B057B017A1279107D017F01A2
:10253B00120B007B017A1279117D017F21120B00A6
:10254B007B017A1279127D017F22120B007A1279AC
:10255B00237F021217B9901223E0B401057F0112F9
:10256B004E6812092F124BAA1209259003C9EFF0DE
:10257B001208A81209209003C9E0FFB40602800CD0
:10258B003019047F0280059003C9E0FF120CF9EFAC
:10259B0024FFB3923975FF0253E6BF120F02600599
:1025AB00E4901215F0122871120939120DD430155E
:1025BB000B7B017A1279257D101247F412096B906F
:1025CB001215E0700F20390C120DC07B017A347993
:1025DB00901208D5901224E030E0028003301904E9
:1025EB007F01F1C8D2AF203902C181120B23123007
:1025FB004C120CF4120AFB40F29003C8E06042123A
:10260B00095CEF70051238604037E51470FCE51576
:10261B0020E5031246D5120A6FEF70FA1249AA5041
:10262B000512499650057F011212CA9003C8E0B4F7
:10263B000204E4FF80099003C8E0B403047F019116
:10264B0066120952E51530E1A21254B09402400211
:10265B00E4F0E51520E50BF1AAAF82AE837D011204
:10266B00398112549CC0E0F1B89003CBE0FDD0E06F
:10267B00FF12089EA1F612281712182E5002F15FB6
:10268B009003C8E0605E90340DE0705812095CEF67
:10269B007005123860404DE51470FCE51520E50A15
:1026AB00901224E020E0031246D5120A6FEF70FA65
:1026BB001249AA500512499650057F011212CA9071
:1026CB0003C8E0B40203E480189003C8E0B4030429
:1026DB007F01800E9003C8E0B405099012157401B8
:1026EB00F0FF9166120B2312304C120AEC120CEF16
:1026FB002016051209528021F1F99003C1E0FEEF7B
:10270B00C39E4005EF9EFF80089003C1E0F4042FA9
:10271B00FF7406D39F5002C216E51530E12B1254FD
:10272B00B094024002E4F0E51520E50BF1AAAF826C
:10273B00AE837D0112398112549CC0E0F1B8900335
:10274B00CBE0FDD0E0FF12089E120AC412096612FC
:10275B00285FC181E4FFF1C8EF6043121819122CF6
:10276B0034500990121EE0C394C040EF7B017A12E3
:10277B007920122C34500F1255975FFFA3E05FFFA7
:10278B00A3E05FF460E6901224E030E0047F01F1F7
:10279B00C8E490121CF0121819E0FD120A7922906D
:1027AB0003CAE0FD75F0AA9003D2121F43ED75F03A
:1027BB0002A424C3F9740335F0FA7B0122EF600DF8
:1027CB00F1AAAF82AE83E4FD123981800A1209614E
:1027DB001246D5E433FF227F01229003C2E064AAA4
:1027EB002411FFF022C2AFEFF45215D2AF22A2ADEB
:1027FB009229C2ADAF6DAE6CA22992AD22AE07127B
:10280B0027E5EE04FEEF8EF084AFF02230170C902C
:10281B00340DE07006FF1208B2C217301923AF6DEA
:10282B009007FDE0FEEFC39E400AEF9ED39402405B
:10283B0010C219229007FDE0F42FD394014002C27D
:10284B0019229003CCE0FCA3E04C70069003CC0261
:10285B001798C3229003CC1217156009CAEECAC988
:10286B00EFC91220DC2275FF02D2ADD2BD75FF027B
:10287B00758E7175720975FF02E58E546F4480F584
:10288B008E904582121EC30000000022C0E0C0F0F3
:10289B00C083C082C0D075D008C0FF75FF02E58E23
:1028AB0030E43E75FF02E58E54EF4410F58E9045F3
:1028BB0082121E2A3125FC904582121EB790000011
:1028CB00E475F001121AD4E57230E0020559E57295
:1028DB00700D757209056DE56D7002056C80021542
:1028EB007275FF02E58530E40875FF02438510051C
:1028FB0075D0FFD0D0D082D083D0F0D0E032FF7E25
:10290B0004FDFCE0F8A3E0F9A3E0FAA3E0FB121C42
:10291B0017E47B7DFAF9F8121CA2EF2401FFE43EC9
:10292B00FEE43DFDE43C22903F52121EB7903F6205
:10293B007401F0E4A3F0F13D75FF02E5E630E00E23
:10294B00903F637401F0FB7A3F7963124284903FAE
:10295B006D121EC3002DC6C0E4F5FFF5A490120F37
:10296B00F0903F647402F075FF03903F64E0FFF555
:10297B0095EF14601314601C24027027903F525182
:10298B00E8F1B6903F5E8016903F5651E8F1B69055
:10299B003F5F800A903F5A51E8F1B6903F60E0905C
:1029AB003F71F0124E2C903F71E07005125518805C
:1029BB006690120EE004F0903F6412555E903F63F8
:1029CB00E0701A903F6D51E8903F69F1C9FBC3125B
:1029DB001D655009903F6951E8A3121EB7903F71D6
:1029EB00E0FF124CAD903F61E0FF903F64E0FDA231
:1029FB00339230124DDA903F63E07012903F695181
:102A0B00E8904538121EB7903F64E0FFB17B903FD2
:102A1B0064E051DB1242C312560060022172903FF8
:102A2B0063E0703EA37402F075FF03903F6412568F
:102A3B006A700F903F6D3109D10E903F6451C812EF
:102A4B0042C312560070E1903F6D12465D2420FF89
:102A5B00EE344E312B1256323119D10E903F651296
:102A6B001EB7F1EDF1F4400343F420A2339231127F
:102A7B004D0C903F63E024FF922F903F6551E8F19E
:102A8B00DFE4F5FF75E508124675E59B30E7FBD1F2
:102A9B0014F1C343D5047FC8D126910EF1347B01C9
:102AAB007A3F79621243B590120EE0B401031245DE
:102ABB00A9903F62E0B40103D38001C322E0FB2560
:102ACB00E025E02401F582E43412F583121EB7EB06
:102ADB0025E025E02401F582E43412F583E0FCA324
:102AEB00E0FDA3E0FEA3E0FF2290401F121EB7F112
:102AFB003D904034121EC3002DC6C0E4F5FFF5A473
:102B0B0090120EF0A3F090402F7402F075FF03901B
:102B1B00402FE0FFF595EF14601314601C24027036
:102B2B002790401F51E8F1B090402B801690402326
:102B3B0051E8F1B090402C800A90402751E8F1B059
:102B4B0090402DE0904038F0124E2C904038E070C1
:102B5B0005125518805690120EE004F090402F127B
:102B6B00555E90403451E8904030F1C9FBC3121DC3
:102B7B0065500990403051E8A3121EB7904038E0E1
:102B8B00FF124CAD90402EE0FFA3E0FDA23292303D
:102B9B00124DDAA351E8904538121EB790402FE042
:102BAB00FFB17B90402FE051DB1242C312560960FC
:102BBB000261177402F075FF0390402F12566A7072
:102BCB0014FF7E04FDFC904034310ED10E90402F4B
:102BDB0051C81242C312560970DCF1EDF1F44003F7
:102BEB0043F420A2329231124D0C90403412465DC8
:102BFB002420FFEE344E312B1256323119D10EC236
:102C0B002FF1DF9012137401F07E127F01E4FD8F20
:102C1B00828E83EF2DF582E43EF583E0FC90121358
:102C2B00E02CF00DEDB412E72290423D1245B0F0CE
:102C3B00904243121EC3000000019042477401F002
:102C4B00F5FFE5D554C070051237915002C322E44D
:102C5B00F5FF53967F75FF0175D5047F3FFEF1306D
:102C6B0075FF0143D508E4F5FF5394FBF5FF53843F
:102C7B007FF5FF7598FF904241E5F4F075F49C7574
:102C8B00FF01A3E5E4F075E4257B017A4279471255
:102C9B004284904247E064016002A159F5FF9042E3
:102CAB00407414F090424351E87801121D89904210
:102CBB0043121EB7E5A730E1FB43A70290424351F5
:102CCB00E8E5A730E005E47B018002E4FBFAF9F8C4
:102CDB00EF4BFFEE4AFEED49FDEC48FC90424312F0
:102CEB001EB7904240E014F070BA90424351E8781E
:102CFB0010121D767B6D7A4E79C67841121C17EF38
:102D0B002439FFEE3430312BFCE4FBFA7901F81255
:102D1B001CA2EE547FFEE4FDFC1246689042435128
:102D2B00E8EB6FFFEA6EFEE8CDEFCDCCEECCECFF1F
:102D3B001242B7EF121A031242B7900001ED121AAA
:102D4B001590120FE030E606E4F5FF75968075FFDF
:102D5B0001E4F5D5904241E0F5F475FF01A3E0F5F0
:102D6B00E4124CFB904247E0B40103D38001C32231
:102D7B00904537EFF0E4A33109D10E904537E0FBD6
:102D8B00F16CF583121EB7901210E064806073E053
:102D9B00C3947F5039EBF16CF583C083C08251E84B
:102DAB00EEC0E0EFC0E0901210E075F004A4AEF0BE
:102DBB00FBCAEECAEA3395E0F9F8D0E0FFD0E0FEAB
:102DCB00C3EF9BFFEE9AFEED99FDEC98802C90459E
:102DDB0037F16BF583C083C082F1C9FB901210E011
:102DEB00F40475F004A4FFAEF0EE3395E0FDFCEBBC
:102DFB002FFFEA3EFEE93DFDE83CFCD082D083127A
:102E0B001EB722FC7801021D76E4F5FF758EC8F122
:102E1B007875FF0153D5FBF1BC7F147E00F1137560
:102E2B00FF03439180229040B8121EB7E4F5FF7563
:102E3B00BB0575BB8575FF0175D502202F077F3F3D
:102E4B00FEF130F17875FF0143D520302F02C1F927
:102E5B00E4F5FF538EF7438E077D04E4F5FF8DBC3D
:102E6B00F5FF43B102E5B130E2FBE4F5FFAFDFEF75
:102E7B00FEACDEECFBEBFFED25E024B6F582E43493
:102E8B0040123036E4F5FFF5FF53B1FD0DEDB40CF8
:102E9B00CA9040B851E87809121D76A3124A36FD44
:102EAB00ED25E024C0F582E43440F583E0C313FA4A
:102EBB00A3E013FBF1D4F583E0C313FEA3E0132BC4
:102ECB00FFEE3AFEF1D4123036ED240490120DF0E1
:102EDB00EDC394075018CFEDCF0DEFF1D51230F1B4
:102EEB00FFC39040BDE09F9040BCE09E50B2E4F524
:102EFB00FF758EC8F5FF90120DE0F5BCE4F5FF757C
:102F0B00BB8075FF01F5D52275FF03D3EF9402EE5D
:102F1B009400400874FE2FFF74FF3EFEEFF592EE17
:102F2B00540FF59122F113D12A75FF03E59120E798
:102F3B00FB2275FF0243E180F19475FF01438E1074
:102F4B0075FF0153DB7F75FF0175D502D124F1C3EA
:102F5B00438E1075FF0143DB8075FF01E4F5D5222D
:102F6B00E025E025E02401F582E4341222E4F5FFAC
:102F7B0075C2E17F1E123FD130E707E4F5FF75C242
:102F8B00A122E4F5FF75C28122E5FA30E1FB75FC65
:102F9B008075FF0153D5EFE4F5FC75FC40F1BCE502
:102FAB00FC20E6FB22904030021EB7903F69021EC8
:102FBB00B775FF03E4F59122F13475FF0122E0F8B8
:102FCB00A3E0F9A3E0FAA3E022ED25E024BEF5820D
:102FDB00E4344022D131E4F5FFE5BD54F84404F567
:102FEB00BD2275FF037595802290120EE0D39401DC
:102FFB0022904355ECF0A3EDF0AB07A3121E2A125F
:10300B003238121EB7EB11D6121EB790435BE0FF9E
:10301B00EB1140F583EFF0904355E0FEA3E0FFEB9F
:10302B0075F00CA42455F582E43436F583EEF0A349
:10303B00EFF022E57375F00CA42457F582E43436D7
:10304B0022E49046D4F0D3900001E094009000006D
:10305B00E0940040739046D4E0FF04F0EF940550E9
:10306B0067900000125486E4F57311D45162604AE4
:10307B0011D474FF121E843184703F113EF583E02E
:10308B00FF600AF46007113EF583E014F0113EF582
:10309B0083E0600EE5735139121E2A11D4121EB74C
:1030AB008008E5735104F583E4F011E44E600811D8
:1030BB00E4AA06F91220DC1212B50573E573C3946A
:1030CB000E40A7120A10015122E57375F00CA424CF
:1030DB004DF582E43436F58322E57375F00CA424A8
:1030EB0055F582E43436F583E0FEA3E02290440CE0
:1030FB001245C0EBF090441174FFF0904410E09037
:10310B004412F0904412E0FFC3940E5066EF11D6B8
:10311B00121E2A31847054904410E07E0170027E9E
:10312B0002904412E0FF5104F583EEF0C007904487
:10313B000EE0FF7E0060097C007D0A121A378002C8
:10314B007F0AE4FCFD904357121EB790440FE090AA
:10315B00435BF090440CE0FCA3E0FDD007122FFC86
:10316B00904412E004FF904411F022904412E004CA
:10317B00F08090904411E0FF22E4FBFAF9F8C302CF
:10318B001D659042C4EEF0A3EFF09042CB74FFF0BC
:10319B009042C65162605C9042CC7403F09042CC7A
:1031AB00E0FFC3940E504CEF11D6121E2A318470DF
:1031BB003A9042CCE0FF5104F5837405F0C00790C0
:1031CB0042C6121E2A904357121EB79042CAE09075
:1031DB00435BF09042C4E0FCA3E0FDD007122FFC50
:1031EB009042CCE0049042CBF080089042CCE004BB
:1031FB00F080AA9042CBE0FF2275F00CA42458F586
:10320B0082E4343622AB07E4FF1BEBC3940E501C55
:10321B005138121EC300000000EB11D6121EC30062
:10322B00000000EB5104F583E4F07F0122EB75F015
:10323B000CA42451F582E43436F58322AB07E4FA6F
:10324B001BEBC3940E500D513851626007EB11D636
:10325B00121EB70AAF0222121E2AEC4D4E4F227BD2
:10326B00FF7D019044107403F001F8E49007EFF038
:10327B007B017A0779FE9045FA121F6F9045FA127F
:10328B0017EA51109045FA121F4FE4021A039009E6
:10329B0008121F6FD22BC2EBE5146002A100E515DB
:1032AB0030E202C322B14FD1F0E4121A031247539A
:1032BB00B1571255B09007DEF012409D90090BEFFD
:1032CB00F0E51520E06EF19140057F011227C890C3
:1032DB00090BE0FF7B017A09790C123D04E4337092
:1032EB0004D2EB81E590090BE0246812565AE0FFFB
:1032FB0090090CE0D39F403CD2EB1247D5A2189219
:10330B00ED9007EFE06010B14FD1F07401121A038A
:10331B004315045176D3229007FEE070157B017A9A
:10332B000779FE7C387D729044187464F0E4A3F046
:10333B00F1C0C322F1915005C235123A1F123FF46E
:10334B00E5D120E0FBE4F510C219B157121B005474
:10335B0007C39403E49400502FB14F24B1B148FF3D
:10336B00B14F24D8B1482FFFE433FED3EF9440EE96
:10337B00648094804012B14FD1F07402121A03434F
:10338B001504A21892EDD322B14F2408F9E43ACFD9
:10339B00E9CFF5118F12B14F24B1B148F516AE112B
:1033AB0012500AB14F24B2F9E43A8B1CF51D891E59
:1033BB00B14F24D8B148F51FB157121B00FDACF02B
:1033CB005460602FB14F24D9B148FF124795C22BDF
:1033DB00B138FB7A009007FF1255677D18121A3728
:1033EB00EF2BFFEA3EFEEF2414FBE43EFA7D027F57
:1033FB000181D4B157121B0054079007DEF07514EE
:10340B0008B14F24B2F9E43AFA124FF4B14F24D871
:10341B00B148FFAD161250299007DEE0640370240B
:10342B007B01FDB108D3F156500574011219AEE4BE
:10343B00F5FF1256121219442428FBE433FA7D03CC
:10344B00E4FF81D49007DEE06402702BB10BD3F163
:10345B0056400574FF1219AEE4F5FFE5D2548044D3
:10346B000AF5D21219442414FBE433FA7D027F01CE
:10347B00124851D1368055E4FB7D01B108D3F1568A
:10348B00400574FF1219AEE4F5FFB157F1817F05CA
:10349B0060027F0AEF547FFFE5D254804FF5D2E4F0
:1034AB00F5FF43D280B138FD7C00B157F1817E002E
:1034BB0060047F0A80027F05EF25E0FFEE33FEEF0D
:1034CB002DFBEE3CFA7D017F01124851B15712558D
:1034DB003CA22B922A1239314006A21892EDC3223C
:1034EB00517690090BE0FFB14F24E7D1F7A2189268
:1034FB00EDD2EBD322A21892EDD2EBC322FFD13B3C
:10350B00900908121F4FE924B1F9E43AFA12194451
:10351B00FF900908121F4FE924D8F9E43AFA12195F
:10352B00442FFFE433FEEF2401FFE43EFE90090835
:10353B00121F4FE924B2F9E43AFAE92407F9E43A05
:10354B00FA021944900908121F4FE9229009081238
:10355B001F4FE92404F9E43AFA229041F1121F6F4C
:10356B009041F1124051B1489041F9D1DBE924016E
:10357B00B1489041FAD1DB1219449041FBF0E92498
:10358B0006B1489041FCD1DBB145049041FDF09070
:10359B0041F7E0FEA3E0FFC39402EE94004017ADA9
:1035AB00077B017A4179F99044B1121F6F9041F476
:1035BB00121F4F120D35229040F8121F6FD1E3E905
:1035CB002401B148904102D1E2121944904103F019
:1035DB00E92403B148904104D1E2E92402B14890B7
:1035EB004106F0903DE9E0FFA3E090410ACFF0A344
:1035FB00EFF0904100F16C9040FDF100B148149058
:10360B004109F09040F8121F4F90417B121F6F90B1
:10361B00417EF1797B017A417902120BFFEF600356
:10362B007F012290410AF16C7F0022E4FB7D01FFB8
:10363B00E4F5FF75D102E5D120E0FBE4F5FFF5D110
:10364B00EF6008E4F5FF43D2808006E4F5FF53D228
:10365B007FEB6006E4F5FF43D104ED6006E4F5FF74
:10366B0043D10822904132121F6FD1EAE92401B1F4
:10367B004890413CD1E912194490413DF0E4A3F04C
:10368B00E92402B148904140D1E9E92403B148143F
:10369B00904143F0903DEBE0FFA3E0903DF0CFF085
:1036AB00A3EFF090413AF15F904132121F4F9041DE
:1036BB008B121F6F90418EF1797B017A41793C120D
:1036CB000C1DEF60037F0122903DF0F15F7F002224
:1036DB00F09041F1021F4FF09040FD021F4FF09010
:1036EB004137021F4F24E5F9E43AFA22F9E43AFA9A
:1036FB00EF021A03FF121F4FE924042290435C12BE
:10370B001F6F7A3D79BE124AA890435C121F4F126D
:10371B001944903DBFF0E92401B148903DBEF090B3
:10372B00435CF100B148903DC0F0903DC37401F093
:10373B009043627A3D79BE124A9D124AB1F0904392
:10374B005F121F4F02088A33FEE0C39FEE6480F8BE
:10375B0074809822E0FFA3E0903DEBCFF0A3EFF055
:10376B0022E0FFA3E0903DE9CFF0A3EFF022AF05FD
:10377B00ECF0A3EFF022121B00441045F022C2EB39
:10378B00A2ED9218C2EDE5F4C330E701D322900706
:10379B00DFE0FDFFC3740E124577EFC4F8540FC87A
:1037AB0068FFEEC454F048FEE51754F0F1557F0066
:1037BB005002AF0522904416ECF0A3EDF0904413A9
:1037CB00121F6F51819044161254CAF1F490441396
:1037DB0012171D904413121F4F121944B4FF04E427
:1037EB00121A039044130217EAE4904410F001F804
:1037FB00E4FEEFC3940E5015EF123204F583E05D37
:10380B007C00B505027C01EC2EFE0F80E5AF062295
:10381B007D02E4FF80DA7D017F031237FBAB0711DA
:10382B001BEF2BFF22E4FD7F0380C5AD07AC061217
:10383B0027F9C3EF9DEE9C4008EF9DFFEE9CFE80A9
:10384B0013EDF4FDECF4FCED2401FDE43CFCED2F59
:10385B00FFEC3EFE229003D0E0FEA3E0FF1136D337
:10386B00EF94C8EE940022E49007FEF09007EF046B
:10387B00F0221237915004118E4003301903D3807C
:10388B0001C322E5F754E024FF22AF14EFC360011C
:10389B00D322EFC3940E50059007DFEFF022E5170C
:1038AB00540FFF22E517C394F0501F5317F011D894
:1038BB00FE740FC39F4005EE940E400543170D8019
:1038CB0003EF4217E517540FFF227F0022E517C4C1
:1038DB00540FFEEF900778932E2211D8FFC3940E4E
:1038EB0040027F0DEF90075A93FF22EF30E303AFB7
:1038FB001322AD1B201A04EE30E00CE517C394F035
:10390B0050211237998018E5196006FDE4F51980EE
:10391B0012E517C394F0500BE517540FFF60041119
:10392B00E5AD07AF05224315015315DF11F6124024
:10393B00AD4004E4F5142243FA045315FB302A047A
:10394B003177800A7F55315B7F55315BD2EBD322C8
:10395B0075FF01E5D520E602C322E5FA540360FAB0
:10396B0075FF018FC3D322510343FA04E4F5FF53D0
:10397B00D1FD43D101229008F012537DE5147077ED
:10398B001237895004C235511F9008F0E0FEA3E0B6
:10399B008E11F512A3121F4F9007E0121F6FAE117D
:1039AB00AF127DAA124FD2E4F5FF75D901F510E5E0
:1039BB00155421602BE51530E504E4FF5103E49029
:1039CB0008F5F09008F5E004F01242FFEF60099063
:1039DB0008F5E0C3941040EB7F02120D0D5315DE7A
:1039EB009007DCE07F00B403027F013172D23551C6
:1039FB001FD2EBA21892ED2275FF01E5D530E6023E
:103A0B00C322E4F5FF439A80EF12555FE4F5FF53B1
:103A1B009A7FD3229046D7E5F4F0E0547FF5F47FFC
:103A2B00827E00F1DDF14F5005E5FC20E6F73035E5
:103A3B00089046D7E04480F5F4F1D9F14F5005E5F5
:103A4B00FC20E6F775FF01E5D520E702C322E5F47C
:103A5B00D330E601C322C235511FF1F4E5D120E08A
:103A6B00FBE4F5FF75D9019007DCE07F00B403029E
:103A7B007F013172D235511FE4F51022C0E0C0F046
:103A8B00C083C082C0D075D008C0FF75FF01E5D5DB
:103A9B0030E6047F028009E5D57F0030E7027F0125
:103AAB008F18E518640260026168E51412207C3AF5
:103ABB00D3013AE6023B50083AF1093AFC0A3B0AB9
:103ACB000B3B2A0C00003CDE75FF0175C355151A24
:103ADB00E51A600281DE75140281DE75FF0175C384
:103AEB00F075140981DE75FF0175C35575140A81D4
:103AFB00DE75FF019007F0E0F5C375140B81DE75E1
:103B0B00FF019007DDE0F5C3751401751A149007DA
:103B1B00FF12548645F0600281DE75140C81DEAB1A
:103B2B001CAA1DA91E124FF4AD16AF1F125029125D
:103B3B00363675FF0012561243FA0475FF00317AC0
:103B4B0075140881DEC2EB7514004315041247C7C8
:103B5B00400281DEE475F001121AD481DEE51864AF
:103B6B0001600281DEF1ED400281DEE510702291F1
:103B7B00F2E0FF64556004EFB4540BD219AF6D90B3
:103B8B0007FDEFF0815875100275FF0075D908819C
:103B9B00DEE5106402705F12558B121F4FE5D912D0
:103BAB001A03124E441247819007DCEFF012557F37
:103BBB00E0900962F0E0FFD3940940259007DCE028
:103BCB00D39402400CEFD394AA7F0040027F018074
:103BDB000D900962E0D394407F0040027F01EF60BB
:103BEB0004F1988068900962E0F51675FF00851660
:103BFB00D975100381DEE5106403600281DE125576
:103C0B008B91F9E5D9121A03F19875FF009007DC37
:103C1B00E0C39403E5D350055402FF80035401FF26
:103C2B00EF602E30E111C39007EAE094FF9007E9B3
:103C3B00E094FF5018800FC39007ECE094FF9007BF
:103C4B00EBE094FF5007E475F001121AD451618137
:103C5B00DEC235511F75FF00F1F7E5D120E0FBC245
:103C6B00EB43150291F2A3E0FF90121FE0FEEF6E03
:103C7B0091F1E090121E91EBA3A3E090122091EB37
:103C8B00A3A3A3E0FE901221E0FDEE6D4F6016C3DF
:103C9B009007EEE094FF9007EDE094FF5007E4757A
:103CAB00F001121AD4C39007E8E094FF9007E7E005
:103CBB0094FF5007E475F001121AD47510009007A9
:103CCB00DCE0B40308151612557FE516F09003CB14
:103CDB00E516F0D0FFD0D0D082D083D0F0D0E03238
:103CEB00FEE0FDEE6D4FFF85128285118322121FC0
:103CFB004FE92401F9E43AFA22904596EFF0A3122A
:103D0B0045B0F075FF01124210EF64016002C3224F
:103D1B00E5F430E602C3227FE87E03122F13122E46
:103D2B002AF17B400122C235511F904596E0FF518D
:103D3B000353F4DFD235511F7F787E00B18975FFB5
:103D4B000153E4BFE5E430E7FBF1E37F8AF1D130C7
:103D5B00E6099045971242BAE4800B75FF01904536
:103D6B00971242BAE5D9121A0375FF0143E44012C8
:103D7B002FF4400343F420F17B400122D322CDEFFB
:103D8B00CDCCEECCF1A0AB94EF4B1245B8CBEFCB37
:103D9B00FAE59130E719F1A3A994E9F582EF458291
:103DAB00FFEB12563AC3EF9582E5F0958340E2E5BF
:103DBB009120E709CEECCECFEDCF122F3022900918
:103DCB0054EFF0C236F15AD221900954E0904600DC
:103DDB00F0D222A3E4F0A3740DF0D19DE490095529
:103DEB00F0123791506F900955E07069E5F754C0A8
:103DFB0060EFD175D18864557047D18890121CE063
:103E0B006F6007900955E0F47032D18864556018E3
:103E1B00E0FF644A6012EF640A600D90121CE0FF31
:103E2B00900955E0FE6F7005900955800A9007DDEB
:103E3B00E06E90095570197402F080A590095580B9
:103E4B000F900955E0B454057433F08094900955E4
:103E5B007401F0808C900955E0B40206C235511FF5
:103E6B008000D190900955E0FF22E5F720E008E5AE
:103E7B00F754C070F5FF2243F701AFF922D17590CB
:103E8B000955EFF022C221E4904600F0C222A3F0C4
:103E9B00A3F075FF01E5D520E702C322C236F15A24
:103EAB00202102E13F53F4DF904600E0FF51031263
:103EBB0045A930220543F440800353F4BFE4F5FFDA
:103ECB0053F5F0904601E0FAA3E0FBEA42F5EBF57F
:103EDB00F6D236F15A7FC8122E26E4F5FFE5932071
:103EEB00E604F14F40F4302259E5F430E3047D2829
:103EFB008010E5F430E2047D288007E5F430E10220
:103F0B007D28122FBC7F28122E26F14F40FC7F7884
:103F1B00122E26F14F502BF19150F8F1ACEFC39DBF
:103F2B0050F1F19150EDE5F720E5E8C236F15A1268
:103F3B002FBC80DF53F4BF122FF4400643F4201242
:103F4B0043AED32275FF03E591C330E701D322AF14
:103F5B00F4EF547FF5F4303605EF4480F5F475FF3C
:103F6B0001E5D520E702C322E5F4D330E601C322F5
:103F7B00E5F730E50FE5F754C07004F14F40F1124F
:103F8B002FBCC322D32275FF01E5E4332230190481
:103F9B00C219D1902275FF03AF93EF75F010A4FFF8
:103FAB0022F1E3AFD922E4FFE5F754C0600280F1C0
:103FBB0075FF01E5D530E30DF19150F4F1ACEF60F5
:103FCB00EFF19150EB22FEB18990120FE0227FE8C6
:103FDB007E0312423C022E2A75FF01E4F5EA75EAD4
:103FEB00FF22E5F754C024FF22E4F5FFE5D154FE90
:103FFB004402F5D1229003CFE0B4020D8F1B900841
:10400B00EDE0F513120934D322C322900939121FA4
:10401B006F900939121F4FE51B114A123CF91149D8
:10402B001158FA1149121F4FE91162E513114A1287
:10403B00355A11491151F9E43AFAE4021A03E41220
:10404B001A0390093922121F4FE9240522121F4F20
:10405B00E92402F9E43A222403F9E43AFA22E517B7
:10406B0054F0C4540F2FFFC3941040027F0FEF90F6
:10407B00076893FF227E10EE60091EEE900768938F
:10408B00B507F4EEC3940E40027E0DEE90075A93E3
:10409B00FF22EF24FD600680007E018002E4FEAF6C
:1040AB00062290093DEFF09007DEE0FF119D90098D
:1040BB003EEFF09007DEE024FD60130470089009DA
:1040CB003C7404F0800E90093C7408F08006900953
:1040DB003C7402F07F01120D0D90093EE0FF900938
:1040EB003CE0FDA3E0FBE4904424F011FC50EAD348
:1040FB0022904421B1C3EBF09044277401F0C234F9
:10410B00123FD9123F4F5005E5FC20E6F65110BF88
:10411B000108E4F5FC75FC4080075110BF0202D387
:10412B002271AE904422E0FFD1A875FF0153D5DF79
:10413B0053FAFB904421E0FF123A03904422E090A3
:10414B004421B4080F122F6BF583D15D2452122931
:10415B0028FC8004E0122ADB51C3904423E0FFB11A
:10416B00A375FF0175FF03759B04123FD975FC42C4
:10417B00E5FC20E105123F4F40F3904424E0F0753D
:10418B00FF03E59B20E705123F4F40F3E59B20E73C
:10419B000D75FF03759B1F122F94D234804C510960
:1041AB005184904422E0FD90120FE05D701C90440E
:1041BB0021E0FF5109910D90120FE0FF904422E096
:1041CB00FEEF4E90120FF0122C0E122F787B017A0D
:1041DB00447925516E500FC3904426E094209044AF
:1041EB0025E0940340E7510971B5122F34303402A6
:1041FB002103904427E0B40103D38001C3227B0148
:10420B007A447927227FFA122E26E5FC30E6051236
:10421B003F4F40F6E5FC30E6037F032275FF01E5D7
:10422B00D530E6037F0222E5D57F0030E7027F0120
:10423B0022904586EEF0A3EFF07B017A4579885109
:10424B006E5014904588E0FEA3E0FF904587E09FF9
:10425B00904586E09E400B904586E0FEA3E0FF1262
:10426B002F1322123FA0AD94EF4DB1B88FF0121B5C
:10427B00B0E591C330E701D3229045FDB1B0F07F9B
:10428B00017C127D01E4FE8D828C83ED2EF582E4A0
:10429B003CF583E02FFF0EEEB412EC901213E06F9F
:1042AB0060099045FD51BAE4121A032290423DE099
:1042BB00FBA3E0FAA3E0F92290458A121EB775FF23
:1042CB000190458AA3E0FDA3A3E4FFFEE4FC781074
:1042DB00121D768FE190458AA3A3E0FEA3E4FFE4D1
:1042EB00FDFC7808121D768FE290458AA3A3A3E00C
:1042FB00FF8FE322E490458EF0A304F0E490459108
:10430B00F0E5FA30E1FB75FF01E5D530E7037F00FF
:10431B0022E4F5FF75E50871AEE5D530E61A75FFB9
:10432B0001904590E5DAF0E4F5DA75FF01E5D6305A
:10433B00E3FB9045917401F0D175E59B30E7FBE40D
:10434B00FB75FF038B95122ADA51C30BEBB403F108
:10435B00122FED122E14122FC343D504904591E06A
:10436B00700B122FBC7FC8122E26122F347B017AB2
:10437B0045798F71B590458FE090458E7006E0447E
:10438B0004FF8002E0FF90458EEFF090120EE0B438
:10439B000102B1A975FF01904590E0F5DA90458EC9
:1043AB00E0FF2275FF0153D8EF22C22E75FF037574
:1043BB009B1F75FF0390120FE020E71BE59A540F2C
:1043CB00C394024012E04480F0E4F5FF75C2A143B0
:1043DB00FC0475FF03D22EE5FC30E609E59A540F79
:1043EB00C3940540CDE5FC30E611E4121A0375FCCD
:1043FB0080F5FC75FC40E5FC20E6FB302E03122C0F
:10440B000E22904592EDF0901211E0F46005A3E0BE
:10441B00B4FF0C9045947418F0A37413F0801090B3
:10442B001211E0904594F0901212E0904595F01225
:10443B00194464016002A176904592E0FE64086025
:10444B0004EEB404089045937428F08006904593CD
:10445B00743AF0EF122ADB121D41E4B17EEF24D83F
:10446B00FFEE343FFEED3493FDEC3416FC7B007A0B
:10447B008079037800120479D168904595E0FF901C
:10448B004594E0C3B177E4FCFD121C17ECC0E0EDE2
:10449B00C0E0EEC0E0EFC0E0904595E0FFE4FCFD2E
:1044AB00FEB17ED0E0FBD0E0FAD0E0F9D0E0F8EB43
:1044BB002FFBEA3EFAE93DF9E83CF8904593E0FF23
:1044CB00E4FCFDFE121C17EF2454FFEE340B1229F3
:1044DB002BFCE47BA87A16F9F8120479CBEFCB907E
:1044EB004592E014605D14601B24FE600C24FC708C
:1044FB007AE4F5FF75CE318006E4F5FF75CE21F534
:10450B00FF8BCF22E4FAE4F5FFEA2440F5CEE4F585
:10451B00FFEAFFC37407B17774762FF582740D3EF3
:10452B00F583E4B186C39DF5CFE4F5FFEA2448F5A6
:10453B00CEE4F5FFEA900D76B1862DF5CF0AEAB4FD
:10454B0008C422E4F5FF75CE01F5FF8BCFF5FF759F
:10455B00CE0EF5FFEB25E0F5CFE4F5FF75CE0FF5AD
:10456B00FFCFEBCFEB75F003A4F5CF229FFFE494C5
:10457B0000FE227B64FAF9F8021C179325E0FDE498
:10458B0033FCEB75F010A4FFAEF0121A49CDEFCD52
:10459B00EBFFE4C313EF132275FF018FDA2275FFD4
:1045AB000143D81022EBF0A3EAF0A3E92224FBFF8E
:1045BB00E5F034FF22EEF0A3EFF0A3EDF0A3229091
:1045CB00459AB1C0EBF0D134D14BC006C007904532
:1045DB009AD182D007D006D3121D4F7E0050047F94
:1045EB000180027F00C006C007D134D0E02FFFD07E
:1045FB00E03E90459AF0A3EFF053ECFC90459AD136
:10460B005442EC75FF02EDF5AF75ED0275ED04A3A9
:10461B00E0600543EC08800353ECF790459DE060A8
:10462B000443EC042253ECFB2290459AE0FEA3E0FA
:10463B00FBAA06E4F9F87F807E387D01FC02047941
:10464B00AC00AD01AE02AF0322E0FCA3E0FDEC54E5
:10465B000322E0FCA3E0FDA3E0FEA3E022C8ECC82C
:10466B00C9EDC9CAEECACBEFCB2275FF03759B040C
:10467B0075FC4175FF0322E0C313FEA3E013FBAAF5
:10468B0006E4F9F822C2ACE4F563F562F561F55F77
:10469B00F560F55E7B017D01B1CAD2AC2275FF01DD
:1046AB00E5D530E602C32253FACFEFB4080543FA3F
:1046BB00308012EFB4040543FA208009EFB40205F1
:1046CB0043FA108000D322E4F514E514702312375B
:1046DB00895005C235123A1FD1FE123FF4E5D120A5
:1046EB00E0FB4315205315FEE4F510A21892EDD311
:1046FB0022C322122F947F08020D0DF1537F021259
:10470B000D0D7F01123DC9900963EFF0BF020280CE
:10471B0014900963E0B43312E4F07F01123DC9BF7A
:10472B00020D9009637401F08005E4900963F09029
:10473B000963E0700C1237915005C235123A1FD144
:10474B00FE900963E024FF2290121EE0F4FFA3E029
:10475B006FFFA3E06FFFA3E06FFF64556009EF6489
:10476B004A6004EFB40A010F9007DDEFF022C2AFED
:10477B00EF4215D2AF22EF24FE600C24FE600580C1
:10478B00007F01227F02227F0322751401751A1309
:10479B009007F0EFF09007DE7402F0ED9007FF301A
:1047AB00E507E4F0A3743AF022E4F0A374E6F022F8
:1047BB00F1C75007E475F001121AD422C39007E435
:1047CB00E094FF9007E3E094FF22C39007E6E094A8
:1047DB00FF9007E5E094FF5007E475F001121AD43F
:1047EB00229007FFE0A3E0FF2290090D121F6F90AC
:1047FB000910EDF0E4A3F0ED54FE900910F06030D9
:10480B00E4FF1227C8BF012890090D121F4F122C6D
:10481B0034501D90090EE475F002121AD490091150
:10482B00E02402F0900911E0FF900910E06F70D8BE
:10483B007F011227C8900911E0FF227D021247F475
:10484B00EFC36001D32290093FEFF0ED24FE601916
:10485B001460262402703BEB2402FFE43AFE7C003A
:10486B007D50121A377D60801E11C5C333CE33CEF7
:10487B00D8F9FF7C007D28800E11C5C333CE33CE13
:10488B00D8F9FF7C007D64121A49900940EEF0A321
:10489B00EFF090093FE011D0C083C082121E46900A
:1048AB000941E02401FF900940E03400FEE4FCFDE7
:1048BB00121BFCD082D083021EB7EB2401FFE43A1B
:1048CB00FEEF78032225E025E024F1F582E434079E
:1048DB00F58322EF11D0121E2A021DECE49007F192
:1048EB003103E4FFFEFDFC9007F5121EB7E4FFFE5B
:1048FB00FDFC9007F9021EB7FFFEFDFC021EB7A2DE
:10490B00EB922CC2EB7A0779E37B017D0CE4FF126F
:10491B000A6AA22C92EB22A2EB922DC2EBEBC0E027
:10492B00EAC0E0E9C0E07A0779E3314AD0E0F9D098
:10493B00E0FAD0E0FB7F0C120A9CA22D92EB227BBB
:10494B0001904464021F6F904532121F6F904535E2
:10495B00EDF0C394104004A37410F0904536E0FFC3
:10496B007A127925314A904532121F4F120A9C90C8
:10497B004532121F4F904536E0FF7C0029F9EC3A87
:10498B00FA904535E0C39FFD0247F47F017E00900E
:10499B0017FCE4935EFE7401935F4E24FFB32290E9
:1049AB000001740193B40007E493B41802C322D33B
:1049BB0022120C0490121E121E2A120C09903DEDAD
:1049CB00121F6F1217447E0B7F78120C27120A06E8
:1049DB00EF5407C36001D3229046D5EFF0903DEB27
:1049EB001217156024903DF05136903DEBF0A3F07B
:1049FB009046D5E0FE7003FF8003EE14FF903DF070
:104A0B00E0FCA3E0FDF582801C903DE9513D601A6E
:104A1B009046D5E0FE7003FF8003EE14FF7B017A16
:104A2B003D79CA8D828C831220E022EEF0A3EFF049
:104A3B00E422E0FCA3E0FD4C229046D6EFF078CACE
:104A4B007C3D7D017E007F1312191E9046D6E0FF40
:104A5B007DF47C01020BFA904364121F6F7A3D794F
:104A6B00C451A8904364121F4F121944903DC5F0D6
:104A7B00903DC474FFF0E92404123548903DC6F014
:104A8B0090436A7A3D79C4519D51B1F090436702CE
:104A9B00374CA3E0FD7B019008D1021F6F7B017D9A
:104AAB0006E4FF020A6A9008D4744AF0A374442205
:104ABB00740051D7746EF012173E51CE7A3D79DDEA
:104ACB00020A1A90427B121F6F7B0122AD07AC06C4
:104ADB00904279F0A3229041A8121F6F9041AB71C5
:104AEB00752401123548FC9041B0F090121CE0FD8A
:104AFB009041AF716E121944540C7E0060027E011E
:104B0B009041B2EEF01219449041B4F07E0030E1C6
:104B1B00027E02EE44059041B3716EE92403123517
:104B2B00489041B5F09041A8121F4F121944649F51
:104B3B007030E92401123548B40405AF04120C0E91
:104B4B009041A8121F4F904056121F6F9041ABE03F
:104B5B00FF904059E4F0A3EFF07B017A4179AF125B
:104B6B000C1322F09041AC021F4FEDF0A3121F4F1C
:104B7B00E922EF7011ED600775FF0143AE0122755D
:104B8B00FF0153AEFE22EFB40114901243EDF0601F
:104B9B000775FF0143AE022275FF0153AEFD22756F
:104BAB00FF02E5E630E2037F0322E5E630E3037F15
:104BBB000022E5E630E1037F0422E5E67F0530E0E5
:104BCB00027F0122EF600775FF0253E6BF2275FFDC
:104BDB000243E64022EF14600F1460142402701895
:104BEB008B8075FF018DFD228B9075FF018DC92286
:104BFB008BA075FF018DCA22AF038FB075FF01AF7C
:104C0B00058FCB2290441B121F6FEF14601714609B
:104C1B0024240270309161E580916790441B121F30
:104C2B004FE5FD802E9161E590916790441B121F1B
:104C3B004FE5C9801E9161E5A0916790441B121F3F
:104C4B004FE5CA800E9161E5B0916790441B121F2E
:104C5B004FE5CB021A0390441E021F4F121A037525
:104C6B00FF0122E4F5FFAF9122E4F5FFAF9222E0C2
:104C7B00FB7D01E4FFEB600875FF0153CDFD800662
:104C8B0075FF0143CD02ED600553FBDF800343FB52
:104C9B0020EF600775FF0243E1402275FF0253E1ED
:104CAB00BF22EF30E00E43F401E4F5FF43A404F51B
:104CBB00FF759624EF30E10E43F401E4F5FF43A4B6
:104CCB0008F5FF759624EF30E20943F402E4F5FF93
:104CDB0075961EEF30E30943F404E4F5FF75961067
:104CEB0075FF01EF5403600475D7122275D72D227F
:104CFB00E4F5FF7584E6F5FF439404F5FF7598140E
:104D0B0022E4F5FF75933F75FF03759A4091FBE421
:104D1B00F5FF759C93F5FF75A1A3F5FF758531F52F
:104D2B00FF758628E5FA54304480F5FA75FF017556
:104D3B00E74A75FF0275DF4975FF0143D30475FF21
:104D4B000153D367E4F5FF53E6BF75FF0175D82513
:104D5B00F5FF75B503F5FF75B215F5FF75BA02F5DD
:104D6B00FF75AFB3F5FF75CD0AF5FF75CB08F5FFF2
:104D7B0075CA12F5FF75BF0EF5FF75CC96F5FFF5ED
:104D8B00BDF5FF75C281F5FF75AEE1F5FF75DA551F
:104D9B00F5FF75F580F5FF75E903F5FF75E933F55B
:104DAB00FF75972A75FF01759B42759CA4759D290C
:104DBB00759E48759F2475A11275A312759AF820DC
:104DCB00310CF5FF43968090120FE04440F022CC5B
:104DDB00EFCCCFEDCF74017E00C8EFC8088005C3C0
:104DEB0033CE33CED8F9FFCDECCDEF5D601B303039
:104DFB001875FF0175DCAD75FF0175DDCDE4F5FFB1
:104E0B00759A74F5FF7594842275FF0175DC5375E3
:104E1B00FF0175DD33E4F5FF759A14F5FF75940406
:104E2B002275FF0175E46575FF0175D64722E5F420
:104E3B005418131313541FFF22E5F75406FFBF0634
:104E4B00037F0822E5F75406FFBF04037F0422E526
:104E5B00F75406FFBF02037F02227F0122EF600798
:104E6B0075FF0243E6102275FF0253E6EF22E5EDD4
:104E7B0030E2FB75ED04AFEF22AFEF22C0E0C0F0E4
:104E8B00C083C082C0D075D000C000C001C002C0BA
:104E9B0003C004C005C006C007C0FFF11EEF6028A9
:104EAB00121826D184E55EC394204003755E00E59D
:104EBB0062C39420500FAE5E055E74132EF12CEF7F
:104ECB00F005628003756220F118EF60231218471A
:104EDB00E563D394004019E56194204003756100AC
:104EEB00AF61056174332FF124E0FF1200361563B7
:104EFB00D0FFD007D006D005D004D003D002D0010C
:104F0B00D000D0D0D082D083D0F0D0E032E5ED54B9
:104F1B0002FF22E5ED5404FF22F582E4343DF583D4
:104F2B0022F582E4343DF58322E560C394204003EF
:104F3B00E4F560AF60056074132FF12CE0FFC2AC99
:104F4B00E562D3940040021562D2AC22E5ED20E07D
:104F5B00FB8FEF22EF600443EC042253ECFB22EFB8
:104F6B00600443EC082253ECF7229041B9E0121A8B
:104F7B00039041BEE0900001121A159041BFE090E2
:104F8B000002021A15904086121F4FAE02AF017B32
:104F9B00017A4079959044B97402F09044B6121797
:104FAB00C0C0079044B6121F4F9044B9E0FF904227
:104FBB00DDE4F0A3EFF0D00702106E9041BBE0FFF1
:104FCB0022E49041BBF022E4F5FF75D102E5D1203C
:104FDB00E0FBE4F5D1F5FFEF125001EE540F42D692
:104FEB00E4F5FFCFEDCF8FD422E4F5FFE9125001AA
:104FFB00EA540F42D622F5D7E4F5FF53D6F022E45C
:10500B00F5FFEFF5D8E4F5FF53D60FEE540F111E55
:10501B0042D622C4F854F0C8E4C4540F4822E4F535
:10502B00FF8FD4F5FFCFEDCF8FD522E4F5FF8FD4D3
:10503B0022E4F5FFE5D1540133333354F8FFE4F5A3
:10504B00FFE5D354074FFF22EFB40109D2AD75FF33
:10505B000143AE4022C2AD75FF0153AEBF2275C8EE
:10506B000122E5C85402FF75C80222E5C85401FFAE
:10507B0022E024FF923EEF547024F0602624F0606F
:10508B003C24F0605224307067303E0B11FF8002DD
:10509B00C333D8FC42802211FF8002C333D8FCF407
:1050AB00528022303E0B11FF8002C333D8FC42905A
:1050BB002211FF8002C333D8FCF4529022303E0BF6
:1050CB0011FF8002C333D8FC42A02211FF8002C320
:1050DB0033D8FCF452A022303E0B11FF8002C333B5
:1050EB00D8FC42B02211FF8002C333D8FCF452B07B
:1050FB002275FF01EF5407FF7401A8070822EF5434
:10510B007024F0601724F0601E24F06025243070AA
:10511B002B11FC8002C333D8FC42FD2211FC800210
:10512B00C333D8FC42C92211FC8002C333D8FC42E2
:10513B00CA2211FC8002C333D8FC42CB22EF54703D
:10514B0024F0601824F0602024F060282430702FA5
:10515B0011FC8002C333D8FCF452FD2211FC8002F7
:10516B00C333D8FCF452C92211FC8002C333D8FCE0
:10517B00F452CA2211FC8002C333D8FCF452CB2266
:10518B00AD07ED547024F0601F24F0603224F06002
:10519B00412430705231F48005C333CE33CED8F96D
:1051AB00AC8051006001D32231F48005C333CE3380
:1051BB00CED8F9FFAC90ECFBEF5BC36001D322318F
:1051CB00F48005C333CE33CED8F9ACA051006001C7
:1051DB00D32231F48005C333CE33CED8F9FFADB033
:1051EB00EF5DC36001D322C322ED5407FF74017E30
:1051FB0000A8070822FFECFBEF5BC322EF14600D46
:10520B0014600D14600D2403700CAF8022AF90223C
:10521B00AFA022AFB0227F0022EF6004904350F08A
:10522B0090076BE0FF900672121F4F120AB59007A2
:10523B006BEFF0605320015090434EE0C330E5011B
:10524B00D3920690121CE0FD904351121F4F900811
:10525B00AA121F6F90434FE09008ADF090434DE0C2
:10526B009008AE51A0F090076BE0FBE4FF120871C1
:10527B00EF70219043507402F090434BE0FEA3E09B
:10528B00F5828E837F028009904350E090434B71EF
:10529B00861220E022F0A37452F0A37424229041D2
:1052AB00E371809041EBE05437F0E0FE54209043E3
:1052BB004EF09041ECE0FDA3E090434BCDF0A3ED1D
:1052CB00F09041E7121F4F904351121F6F9041EA2C
:1052DB00E0FD90434FF09041E4121F4F9006721285
:1052EB001F6FEE442090434DF0E4904350F0C20109
:1052FB00EDD3948240037F00227F0212094D90412F
:10530B00EE121F6FEA494B605D9041E3E0FF904165
:10531B00EE121F4FE924B61236F79041EBE0FF3047
:10532B00E00FE490076BF07174EF6401A351A08060
:10533B001871749041EBE0900893F090434BE0FFB1
:10534B00A3E0900894CFF0A3EFF09041EE121F4F23
:10535B00900896121F6F9041E7121F4F7D027F013D
:10536B001208677F01227F00229041EAE0900892A9
:10537B00F022EEF0A3EFF0A3021F6FFFE0FCA3E01F
:10538B00FDF5828C832290121CE0FFC003C002C08B
:10539B00019042BD121F4F9041E7121F6F9042C008
:1053AB00E09041EAF09042C1E09041EBF09042C2B4
:1053BB00E0FDA3E09041ECCDF0A3EDF0D001D002E5
:1053CB00D00341A9AF6222C2AC12179FEF7004E564
:1053DB006360047F0180027F00D2AC22C2ACC37435
:1053EB00209563FFD2AC22AD037B017E007F1002C0
:1053FB00191EFF9032BE121F4FE922940090442DCC
:10540B00F0A3CEF07B007A007900227B017A12792F
:10541B001C9044F9021F6FEEF0A3EFF0A3ECF0A386
:10542B00ED2229F9EA3CA801FCAD03121F4F02192A
:10543B001E90121CE0FD8F828E83E4FF1220E0E4AD
:10544B00903485F0A3F0227C0029F9EC3AFA02198A
:10545B0044E0FEA3E029F9EA3EFA22FFE0FCA3E0D8
:10546B00FD22121F4FA801AC0222F9EA34FFFA0207
:10547B001F6FEFF0A3EDF0E4A3F02274FFF5F00241
:10548B001AD4E475F010021AD4F9E43AFAE4F5F000
:10549B00229003CEE0FD75F0AA9003D2121F43AF0A
:1054AB0082AE83EF227F021227F09003CAE09003B3
:1054BB00CEF09003CA04F0C322FD7C00021F4FE024
:1054CB00FEA3E0FFA3E0FDA3E0FB227B01FF020AAA
:1054DB006A121F6F021F847B017F07020A9CE0FF89
:1054EB007E00EEF0A3EFF022FF121F4FC3E99FF9EE
:1054FB00EA9EFAE92407F922242DF9E43AFA7D040D
:10550B00E4FF020A6A121F4F7401021A03F5FFF53A
:10551B009675FF0175D70975F41822E0FFA3E0908B
:10552B0042DDCFF0A3EFF022FDEDFFEEF0A3EFF0A5
:10553B0022121B00FFAEF0222420F9E43AFA22E0FB
:10554B00FFA3E090424FCFF0A3EFF022F0A3F0A324
:10555B00F0A322E033333354F8F5F422E0FEA3E05A
:10556B00FF7C0022121F4F8D828C832290001374BC
:10557B0001021A15E5122407F582E43511F5832291
:10558B0075FF01F5EA75EAFF9007E02290121EE025
:10559B00FFA3E022EEF0A3EFF0AA06F97B01223A7B
:1055AB00FAEE021A03121B005407FF22EF9DFFEEC7
:1055BB009CF0A3EFF022121B2BFFAEF022E9958299
:1055CB00EA958322121F6FE4FFFE22901224E0540F
:1055DB003022121F4F8E8275830022242CF9E43A5D
:1055EB00FA744022120A9C90121CE0FF22121F4FE9
:1055FB007405021A03903F64E0FF14F0EF22904011
:10560B002FE0FF14F0EF22E5D254804414F5D222A0
:10561B00AF05ECF0A3EFF022AD037B0102191E7E68
:10562B000012191E7B0122FCE4FB7A04F9F8222DEF
:10563B00F582EA3CF58322741CF0A3747DF022AF53
:10564B0003EAF0A3EFF022FF54F0C4540FFE22F54F
:10565B0082E43407F58322F09041B7E0FFF422E0B7
:07566B00F595E5F454072258
:107F7E00020002120B120E02043D02121013BB017C
:107F8E00B006043D0213C0145D00A20405220214C3
:107F9E00621C640807050522021C691C770013FF8A
:107FAE000522FFFFFFFFFFFFFFFF7FC6000000005F
:087FBE000000000003080000B0
:108000009042847420F090427EEEF0A3EFF0A3EC57
:10801000F0A3EDF0A3EAF0A3EBF0904284E0FB9034
:108020004280E0F9A3E0F582E9F5837880EBF9E09E
:10803000A3F608D9FA904282E0F9A3E0F582E9F5C7
:10804000837830EBF9E0A3F608D9FAEB25E0F99054
:10805000427EE0FFA3E0FAF582EFF583E4F0A3D9D6
:10806000FCEAF582EFF583EBFE7980E4FAEBFC782D
:1080700030C083C082E6F5F0E7A4FFE02FFDE435D1
:10808000F0FFEA2DF0E43FFAA308DCE9EAF0D08241
:10809000D083A309DED522904315EEF0A3EFF0A321
:1080A000ECF0A3EDF0A3EAF0A3EBF090431BE0FBB0
:1080B000904317E0FAA3E0F582EAF5837880EBFAC3
:1080C000E0A3F608DAFA904319E0FAA3E0F582EAB1
:1080D000F5837830EBFAE0A3F608DAFA904315E07E
:1080E000FAA3E0F582EAF583C378807930E709FFE7
:1080F000E6083FF0A3DBF6E433FF2290431EEEF0E8
:10810000A3EFF0A3ECF0A3EDF0A3EAF0A3EBF09063
:108110004324E0FB904320E0FAA3E0F582EAF583F4
:108120007880EBFAE0A3F608DAFA904322E0FAA3AB
:10813000E0F582EAF5837830EBFAE0A3F608DAFAA4
:1081400090431EE0FAA3E0F582EAF583C3788079D4
:1081500030E709FFE6089FF0A3DBF6E433FF229047
:1081600043B4EEF0A3EFF0A3ECF0A3EDF09043B92D
:10817000E0FD9043B6E0FAA3E0F582EAF58378806B
:10818000EDFAE0A3F608DAFAEBF404FB9043B4E06E
:10819000FCA3E0F582ECF5837880E0FFE6086FFE53
:1081A000EB5EFEEF6EF0A3DDF122900788E0FCA30A
:1081B000E04C60099007881253891220E022229037
:1081C0000942121F6F7F011227C87141E924DA7139
:1081D0005045F060207141C003C002C0017141E907
:1081E00024DA7150FFAEF0F58285F083D001D00221
:1081F000D0031220E022E490096012F77A7136E091
:1082000054F06440700241FCE4FE75F0EDEE713B09
:10821000E0FDB40109900961EEF0E4FF8023EDB4C4
:10822000020B900961E0B4FF04EEF0800F75F0EDF1
:10823000EE713BE054F0FDBD80027F010EEEB40410
:10824000C9EF600690096174FFF0900961E0F47075
:108250000241FC12387D500241FCE51530E102413B
:10826000FC900961E090000AF1ECE030E409900034
:108270000C12F908549FF0900961E09000BEF1ECF7
:10828000E0540FFEBE05099000C212F90830E1204B
:10829000900961E0FF75F0ED900009121F43E020A6
:1082A000E52E75F0EDEF9000C1121F43E0B4FF2002
:1082B000900961E075F0ED90000B121F43C083C080
:1082C00082E04401FFA3E0D082D083CFF0A3EFF09F
:1082D000900961E012C8F41232995020900961E0CF
:1082E000F57475F0ED713BE04440F0900960740165
:1082F000F0900676F0E51530E202D322E51530E283
:108300002E7F041227F07136E0FF54F064407015A0
:108310007136EF540FF07136E04480F0E57412C806
:10832000F431BF800AE51530E0057F011227C890BF
:108330000960E024FF2275F0EDE574900007021F4C
:1083400043900942021F4F9045AE121F4FE924DCB3
:10835000F9E43AFA021B00D14C4AC36001D340024F
:10836000C14AE924B7D171FF7B017A09796612CF3E
:10837000F530010A90406ED16B30E50281CDD14CD1
:1083800024B6D17112B7E97042D14C24B7D1713003
:10839000E739D14C12355E12553C54076403702BFB
:1083A000D14C24B9D171D394405020D14C12355EB8
:1083B000EF54F84402FFF1AF12C282EF440412916D
:1083C000B2D14C24BBD171441081C8D14C24B7D157
:1083D0007130E721540F6401701B12194430E70F0C
:1083E000D14C24BBD17130E4067E007F0180117E28
:1083F000007F00800BD14C24B7D1715410FF7E0058
:10840000EF4E601AD14C2403D17154FB121A03D1E0
:108410004C12355E121B0054F8440312976A9040C8
