:020000040000FA
:100000000202DF0218034100E0002202180B222244
:0100100022CD
:07001300021813E4FFE1D223
:07001B0002181B75C8012249
:030023000218239D
:03002B0002182B8D
:030033000218337D
:03003B0002183B6D
:030043000218435D
:03004B0002184B4D
:030053000218533D
:03005B0002185B2D
:030063000218631D
:03006B0002186B0D
:10007300021873BB010689828A83E0225002E722B9
:10008300BBFE02E32289828A83E49322BB010CE54F
:100093008229F582E5833AF583E0225006E9258239
:1000A300F8E622BBFE06E92582F8E222E58229F57D
:1000B30082E5833AF583E49322BB010689828A832E
:1000C300F0225002F722BBFE01F322F8BB010DE53B
:1000D3008229F582E5833AF583E8F0225006E92583
:1000E30082C8F622BBFE05E92582C8F222C5F0F8D4
:1000F300A3E028F0C5F0F8E582158270021583E0CD
:1001030038F022A3F8E0C5F025F0F0E582158270FF
:10011300021583E0C838F0E822EF2BFFEE3AFEED3C
:1001230039FDEC38FC2275F008758200EF2FFFEEE5
:1001330033FECD33CDCC33CCC58233C5829BED9A10
:10014300EC99E58298400CF582EE9BFEED9AFDEC6E
:1001530099FC0FD5F0D6E4CEFBE4CDFAE4CCF9A8B4
:100163008222B800C1B90059BA002DEC8BF084CFBC
:10017300CECDFCE5F0CBF97818EF2FFFEE33FEED93
:1001830033FDEC33FCEB33FB10D703994004EB99BD
:10019300FB0FD8E5E4F9FA227818EF2FFFEE33FED0
:1001A300ED33FDEC33FCC933C910D7059BE99A4005
:1001B30007EC9BFCE99AF90FD8E0E4C9FAE4CCFB1D
:1001C3002275F010EF2FFFEE33FEED33FDCC33CC71
:1001D300C833C810D7079BEC9AE899400AED9BFDFA
:1001E300EC9AFCE899F80FD5F0DAE4CDFBE4CCFA0D
:1001F300E4C8F922EF5BFFEE5AFEED59FDEC58FC23
:1002030022EB9FF5F0EA9E42F0E99D42F0E89C451F
:10021300F022E8600FECC313FCED13FDEE13FEEFC9
:1002230013FFD8F122E8600FEFC333FFEE33FEED87
:1002330033FDEC33FCD8F122E0FCA3E0FDA3E0FEA8
:10024300A3E0FF22E0F8A3E0F9A3E0FAA3E0FB2296
:10025300ECF0A3EDF0A3EEF0A3EFF022A8828583E8
:10026300F0D083D082120276120276120276120244
:1002730076E473E493A3C583C5F0C583C8C582C878
:10028300F0A3C583C5F0C583C8C582C822E0FBA31C
:10029300E0FAA3E0F922F8E0FBA3A3E0F925F0F0EC
:1002A300E582158270021583E0FA38F022EBF0A3A1
:1002B300EAF0A3E9F022D083D082F8E493701274B9
:1002C3000193700DA3A393F8740193F5828883E4DB
:1002D300737402936860EFA3A3A380DF75812F0279
:1002E3000855900A1951B0AE071FEE6012900A1C10
:1002F30071031176FE900A197103EE11BC80E82296
:10030300E475F0018090900A54EEF0A3EFF09000B2
:100313004FE064016002619BC3900A54E09408506B
:100323000BE4FF914F900A54918380ECE4F50DFBAD
:1003330071C4AF0C121010E50DC39408504771C27D
:10034300E50D7F0071BCEF29F9EA3EFA900A1C51D2
:10035300B07B017A0979007FFF51E5E50DFEE424C6
:10036300FFFFE43E71BC8F828E83118F9009FFF0F3
:100373007B017A097900900A3DE50DF0AD0C12106E
:1003830037050D80B2900050513BE42FFFEE340847
:10039300919490005002167F900054E0FEA3E0FF7A
:1003A30071BD900A54E0FDA3E0900A05CD120AA89E
:1003B300900054EEF0A3EFF022FE90200141907BD9
:1003C300007A00791091D175FF031176F5D375FF8B
:1003D3000390000171EF90000271EF90000371EF41
:1003E30075D40175FF03E5D55402FF22118FF5D3B0
:1003F30075FF0322900A33E0FEA3E0FF912D914F96
:10040300900A35513BEF24019191900A3551539055
:100413000A589149900A58E07002A3E0700BFF7EDE
:1004230008710991DFF01215FD2291B3CD24FFCDA0
:1004330034FFFCC3ED9FFFEC9E541FFE74082F9105
:10044300E8FF22900A1374FFF5F001F091B3541FF3
:10045300FC74082DF58274203CF583EFF0902006A0
:10046300E0B42019A3E0B40014902005E02401FFB8
:10047300902004E03400541FF0A3EFF022902006F4
:10048300E475F00101F09000CE513BEF241BFFE433
:100493003EFEE43DFDE43CFC2291C7EF2401919133
:1004A300120C867404F0D1E3918991CC91F1F0227E
:1004B300902006E0FCA3E0FD902005E02DFD9020B8
:1004C30004E03C229000CE413B900087415375FFEE
:1004D3000375D40222900A17E0FF8101900A587431
:1004E30008F0A3E422F58274203EF583E022900015
:0704F300817408F0A3E4226C
:10050800AEFFEE54CFFEEFC454F024804EF5FF2228
:10051800D119EF541FFFF1E0A37401F01215C09038
:100528000A10E0FCA3E0FDAE047805CEC313CE1399
:10053800D8F9FF900A13EEF0A3EFF0ED541FA3F0E3
:10054800A3E4F0900A33F0A3F0C3900A11E09420DA
:10055800900A10E09400407C9146900A15E0FEA3B2
:10056800E0FF900A33EE8FF011F0900A13E0700468
:10057800A3E06406700AD119900A13E48FF011F011
:10058800D119900A33E48FF011F0120DB2EF600424
:10059800F1DE8005E4900A12F0900A33120FD2704F
:1005A8001D912D900A17EFF0910191D891D8900ADA
:1005B80013E07002A3E0604791D8914680F071F78C
:1005C80071F771F7900A13E07002A3E0603171F7D8
:1005D800914680F0900A109183800A900A10E0708A
:1005E80002A3E0600BD1199101900A10914980EBA8
:1005F800120DB2EF6004F1DE8005E4900A12F0906B
:100608000A12E06002A12712166E7109900A35419C
:100618003B900081E0B4082DA3E0B40028120DA59A
:100628007B017A0179009000FD7408F0A3E4F0D111
:10063800E3120DA5E42FFFEE3408919491CCE490D9
:100648000081F0A3F0900083120E8990008351532B
:10065800900081E475F0013106FE740025F0F58202
:1006680074013EF583E0FF229000ED51539000F1B4
:1006780051B0110FF134EF6004111080F7120F7CA4
:1006880060099000ED513B7810D1D89000EDD1D49D
:100698009000ED513BE480279000F4120FD945F00B
:1006A80060219000F15190EA494B60119000F1519E
:1006B800901176FFD1DB9000F2918380DBE4FFD1CB
:1006C800DB80D5F1CD9000D77401F022513B78083A
:1006D8005115E4E5C820E2FB8FEB229000F6515358
:1006E8009000FA51B0110FF134EF6004111080F747
:0806F800F1EE120F956009906C
:1007000000F6513B7810D1D89000F6D1D49000F685
:10071000F1E99000FD120FD945F06011F1889000C9
:10072000FA5190EF11BC9000FB918380E5120EF915
:10073000E4FFE1D27F01F1D23002161212D2F18829
:10074000900A5DEFF0120EF9900A5DE020E002C21F
:1007500002300219F1779000D4EF1212DA600BA385
:10076000E0F46006EF30E702C202120EF9E4FFF196
:10077000D2A202E433FF22F1F77FD7D1DB7FFFD192
:10078000DBF18C9000D3EFF07FFFD1DBE5C820E2F6
:10079000FBAFEB22900A3E5153110FF134EF60048E
:1007A000111080F7F1EE120F956009900A3E513B4F
:1007B0007810D1D8900A3ED1D4900A3EF1E9F18860
:1007C000900A42F1CB900A42E0FF22EFF0120EF9BC
:1007D000E4FFEFB4010443FE202253FEDF22D119CF
:1007E000900A10E4F0A3EFF022513BE4C1DB7F015B
:1007F000F1D2F1F77F03229000D8E051B908190433
:10080000082114082615082B17083B300840340827
:100810004536084A3700000833531AEF851A80809E
:100820002F531BEF8008531BDF8003531B7F851B57
:1008300090801D531CDF851CA08015531DFE800D6C
:10084000531DEF8008531DBF8003531D7F851DB0CE
:100850007F0CDFFE2275FF03759E029017FAE4936A
:10086000900A51F075FF02E5E654036002419F755E
:1008700010DE7511AD7512BE7513EFC2AF75FF02B4
:1008800075E404F5E4751AFF751BFF751CFF751DF3
:10089000FF7516FF7517FF7518FF7519FF75FF02B5
:1008A00053E6BF91B6121102B108EF640160024134
:1008B0009690180893FE740193FF90007FEEF0A3CA
:1008C000EFF0F5828E83E493FE740193FFC3EE9400
:1008D00080500280047E807F008E148F159193FFDC
:1008E000F5828E83740293F51E740393F51F7404CE
:1008F00093F508740593F509740693F50A74079344
:10090000F50BC201EF4E700221F4EFF4FFEEF44F4D
:10091000700221F4E514451EFEE515451FFFE508AC
:100920004EFEE5094FFFE50A4EFEE50B4F4E700205
:1009300021F4E51FF4FFE51EF4FEE515F4FDE514D2
:10094000F44EFEED4FFFE509F4FDE508F44EFEEF31
:100950004DFFE50BF4FDE50AF44EFEEF4D4E70023F
:1009600021F47F03120508E50B24FFFFE50A712B34
:10097000640370247F02120508E50924FFFFE508DF
:10098000712BB402137F01120508E51F24FFFFE558
:100990001E712BB40102D2012001597F01120508FA
:1009A000713F900A05E51EF0E51FB1AB71207F0293
:1009B0007134900A05E508F0E509711E7F03713472
:1009C000900A05E50AF0E50B711E7F0112050890FB
:1009D0000A52E0FEA3E0FF7BFF7A187900E42515B8
:1009E000900A06F0E51434E8900A05711F4EC370B2
:1009F00001D39201300109D159EF6401600241969F
:100A0000D2001204C77B017A007964918C741BF0C8
:100A10001206E3900064E0B4800B71D3EF7006120D
:100A2000161BEF6002C20030006830011A9193F586
:100A3000828E83740C93FE740D93FF90007DE06EA4
:100A40007003A3E06F604B90005012025F0000182B
:100A5000001204C71204CCB1A5EF24011204919135
:100A6000867404F01206E390008712048C900087CD
:100A700012167F1204F1F090004F04F01205187462
:100A800040D3950C400C1203C2AF0C121010050C91
:100A900080EDE4FFB1D4E4F510F511F512F5130281
:100AA0001800E0FD900A05E4F0A3EDF0900A00EED6
:100AB000F0A3EFF0A31202B0900A05F1D945F0605F
:100AC00054900A02120290120076900A07F0900ADF
:100AD000031204837D80ED60DF7115EE7C0030E74A
:100AE000027C01900A07E05D7B0060027B01EB6CF9
:100AF000FCEF25E0FFEE33900A00F0A3EFF0AF0427
:100B0000EF600C900A00E06410F0A3E06421F0EDC7
:100B1000C313FD80C1900A00E0FEA3E0FF22A3F012
:100B200051AC900A52EEF0A3EFF022347F8F82F5A1
:100B300083E49322120508900A52E0FEA3E0FF7BB3
:100B4000FF7A80790022900000EEF0A3EFF0A3126C
:100B5000023B900008120253900006E0FFA3E090D1
:100B6000000CCF805F90000CF1D2605EC3EF944028
:100B7000EE94004006A37440F0800590000EEFF064
:100B8000919BE0FF918CEFF090000812023B12065F
:100B9000E390000EE0FFC390000DE09FF090000C8A
:100BA000E09400F090000812024790000EE4FCFD73
:100BB000FE12011C90000812025371CA919B51A2AF
:100BC000900000EEF0A3EFF0809B900000E0FEA309
:100BD000E0FF221204C79180900006E4F07405B192
:100BE000AB9175C006C0071204C7EF240712049129
:100BF0009180900006E4F0A37414F0D007D0069121
:100C000075C006C007120489918091A540067EFF39
:100C10007FFF800690006512023B900006EEF0A375
:100C2000EFF0D007D006917591A540301204C7EFC0
:100C3000241AFFE43EFEED3401FDE43CFC9180907B
:100C4000006512023BEF2401FFE43E900006F0A392
:100C5000EFF0900A56E0FEA3E0FF9175900069E086
:100C6000FEA3E0FF900A56E06E7003A3E06F7F00E2
:100C700060027FFF227146900A56EEF0A3EFF02249
:100C80009000020202537B017A0079839000FDE418
:100C9000F0A32290007FE0FEA3E0227B017A00799E
:100CA0000F90000E22E47FFF7EFFFDFC9000651296
:100CB0000247D3020204E4900A5EF0900A5EE0FF6D
:100CC000D3946F501EEF2410FFB1E6900A5EE0FE51
:100CD000E42EF582E4344FF583EFF0900A5EE004F1
:100CE000F080D87B017A4F7900900A05E4F0A37474
:100CF00070F07F0F7E1D51ACEF4E7F0070027F01C0
:100D0000901218EFF024FF22E49000D2F07B017AD9
:100D10000079BD1213429000BFE0FF7411D39F50C1
:100D20005DE4FFFEFDFC7B017A0A794F9000FDF047
:100D3000A37402F01206E3900A4FE0FEA3E0FFE482
:100D4000FCFDB19F1204C7EF2402120491B19F125F
:100D500015619000CE1202471201F7900A4DEEF095
:100D6000A3EFF09000CE120247900A4D12154FFEED
:100D7000E4FCFD12011CB19F9000D27401F09000C0
:100D8000D2E0FB6017E4FFFE7D02FC9000BFE02490
:100D9000EFF9F81202289000B7120253AF03229025
:100DA00000CE02025390008702023BA3F07F0F7E29
:100DB0001D22E4FFFEFDFC90008391AF7F00400206
:100DC0007F01227F0F7E1D51A4900A0C1202909089
:100DD0000A0F41A2AB07E4FF9000D2E06007D18682
:100DE000D19DE433FF2275FF03E4F597F1E7E59722
:100DF00020E1FB75FF03AF9922900A48EFF0A3EDC5
:100E0000F0A31202B0900A49E06046901218E06028
:100E100012900A48E02410FFB1E6900A4A120290AC
:100E2000EF8017900A48E06401900A4A70071202A6
:100E3000907480800512029074FF1200BC900A4BDF
:100E4000120483900A49E014F0900A48E004F0800C
:100E5000B4227D01B1F97B0122E49000FFF0900003
:100E6000D2E0601C9000B712023BE4FBFA7902F872
:100E7000D3120204500AD1861207949000FFEFF0BB
:100E80009000FFE0FF229000CE12023BEF24FFFF14
:100E9000EE34FFFEED34FFFDEC34FFFC22900A47F8
:100EA000EBF0900A43120253900A4312023B1207DE
:100EB00094900A47E06F603C12000F120734EF6015
:100EC0000512001080F5F17C600B900A4312023B82
:100ED00078101206D8900A431206D4900A431207DB
:100EE000E9900A47E0FF1206DB1207CD9000D774A5
:100EF00001F0D322C3221206DBF1CCEF70FB90008D
:100F0000DAE0F4600A900A5A7406F0F17470FC900A
:100F100000D8E01202B90F32040F3A140F3F150F38
:100F200044170F54300F59340F5E360F63370000EB
:100F30000F4C431A10851A80802F431B10800843E2
:100F40001B208003431B80851B90801D431C208534
:100F50001CA08015431D01800D431D108008431DFA
:100F6000408003431D80851DB0900A5A740CF0F137
:100F70007470FC22900A5AE014F0E0227F011207FC
:100F8000D2D2021207F77F061206DBD1F91207F759
:100F90009000D6E0FF1206DB9000D9E06402221236
:100FA000000F120734EF600512001080F57F011268
:100FB00007D2D2021207F77F06D1F61207F77F0198
:100FC0001206DB7F03D1F6E4FF0207D2E5C8540422
:100FD000FF22E0FEA3E0FF4E2274FFF5F0020106BF
:100FE000AB05E4FCFDC19D75FF038F9875FF0322DF
:100FF00075FF03759701F1E7E59720E1FB75FF03A6
:10100000AF99221204D175FF03E5D5F45402FF22F3
:1010100075FF03EF543F4480F5D1E5D520E20AE5A2
:10102000D520E005E5D530E1F1E5D55403FF75FFA6
:101030000375D5050204D175FF03ACD5EC20E13C66
:1010400075FF03ED543FF5D175FF03E9F5D375FF47
:1010500003EA540FFF900A3DE0C4547044804FF5FA
:10106000D2E5D520E205E5D530E0F6E5D55401FC22
:1010700075FF0343D40275FF0375D505AF04227FC6
:10108000011207D2900A5B7401F0900A5BE06032B3
:1010900051D2120788900A5BEFF0120EF91207770F
:1010A0009000D4EFF0120EF9900A5BE0540151DA8F
:1010B00060D8A3E0F460D3EF30E7CFE4900A5BF0B0
:1010C00080C81207F77F9F1206DB1207889000D5B1
:1010D0001207869000DA1207869000DB1207CB9089
:1010E00000D3E0F4601BA3E0F460169000DAE0FDAA
:1010F000541F240FA3F0EDC413540744809000DA6A
:10110000F0227B017A0079D87F03120E527A00799F
:10111000E17F08120E527A0079DE7D027F09120DFE
:10112000F97B017A0079DC7D027F0B120DF99000CA
:10113000DC120FD26006BEFF1BBFFF189000E1E07B
:1011400024FD600304700451C880099000DCE4F0C1
:10115000A37440F09000E1E024FD60030470089067
:1011600000D97403F080069000D97402F09000D882
:10117000E01202B9119004119B1411A31511AB17C1
:1011800011C13011C93411D13611D937000011B64F
:1011900075FF015316EF8516FD804775FF01531744
:1011A000EF800E75FF015317DF800675FF0153179F
:1011B0007F8517C9802C75FF015318DF8518CA80F9
:1011C0002175FF015319FE801675FF015319EF8039
:1011D0000E75FF015319BF800675FF0153197F85F6
:1011E00019CB120EF97F1151BAE4FF7109117F90EA
:1011F00000D67402F09000DAE0247F6009047015D4
:1012000051C0740A800651E251C07458F09000D960
:101210007403F051C89000DBE0F4600241B7900025
:10122000DEE0FEA3E0FF64104E70069000DB740E5B
:10123000F0EF64204E70069000DB740FF0EF644016
:101240004E70069000DB7410F0EF64804E700690D4
:1012500000DB7411F0E4B5070AEEB401069000DB80
:101260007412F0E4B5070AEEB402069000DB7413C2
:10127000F0E4B5070AEEB404069000DB7414F0E461
:10128000B5070AEEB408069000DB7415F0E4B50764
:101290000AEEB410069000DB7416F0E4B5070AEE0F
:1012A000B420069000DB7417F0E4B5070AEEB440F2
:1012B000069000DB7418F0020F9FEF4420F5FE2229
:1012C0007F1051BA9000D6229000DC7401F0A3E4A4
:1012D000F0221207F77F050206DBF09000D3E0FF53
:1012E000F4229000D3E020E01F7F011207D2120702
:1012F000F77F3D1206DB7F2A1206DB7F801206DBBA
:101300007FA61206DB1207CD22900A5CEFF0900058
:10131000E1E06402702B7F011207D21207F7900AF6
:101320005CE07FAB60027FB91206DB120EF9900A17
:101330005CE09000E0F070047F1EDFFEE4FF120727
:10134000D2229000D5E01200BC9000DAE0900001BB
:101350001200CE9000DBE09000020200CEE4FCFD23
:10136000020794900A2F717FC007900A2F120290F3
:10137000900A32E0FF120C8CEFF0D0070206E31265
:1013800002B0E4FCFD22900A28717FC007900A2871
:10139000120290900A2BB122D00790008F120253B4
:1013A0009000931202B0E49000B6F0D3900097E062
:1013B000941E900096E094004001227B017A00790F
:1013C00098900096E0FFA3E09000FDCFF0A3EFF02F
:1013D00090008F12023B1206E3900093120290E9F4
:1013E0004A600F9000B6E0F58275830012008FFF0F
:1013F00080027F009000B6E02498F582E43400F586
:1014000083E06F6002C3229000B6E004FFF0D39047
:101410000097E09F900096E0940050BD229000E27B
:101420001202539000E61202B0B1139000E9B1220B
:101430009000E212023B719A500281CCB16190009F
:10144000E21202471201F79000EBEEF0A3EFF04E2C
:1014500060319000EBB14FFE9000EBF0A3EFF09005
:1014600000E9E0FCA3E0FDD39FEC9E5006A3ECF066
:10147000A3EDF091CEE94A6004B11980427E007F6D
:1014800000803C9000E9120FD2603F9000DCE0FC4D
:10149000A3E0FDD3EF9DEE9C400A9000EBECF0A39F
:1014A000EDF0800D9000E9E0FFA3E0A3CFF0A3EF03
:1014B000F091CEE94A6004B11980047E007F00906B
:1014C00000E7EE8FF01200F080B9D322C322900023
:1014D000E61202909000EBE0FFA3E09000F4CFF062
:1014E000A3EFF09000E212023B1206709000EBE0D6
:1014F000FEA3E0FFC39000EAE09FF09000E9E09EC9
:10150000F09000E2120247E4FCFD12011C9000E2A0
:101510001202539000E60202909000EBE0FEA3E07E
:10152000FF22E0FFA3E0900096CFF0A3EFF022901F
:101530000A21717FC007900A21120290900A24E0CC
:10154000FFA3E09000E9CFF0A3EFF0D007811DE00A
:10155000FEA3E0FFC39000DDE09FFF9000DCE09E73
:10156000229000DDE024FFFF9000DCE034FFFEE489
:10157000FCFD2212000F120734EF600512001080EC
:10158000F5229000D7E0FF22E49000D7F0229012DD
:1015900018E024FF22901218E060057F10020DE68B
:1015A0007FFF22E4902004F0A3F0A3F0A3F07B01DE
:1015B0007A2079089020011202B0E4902000F022F5
:1015C0001204DFF0900A3512025F0000000080D3A1
:1015D000902004E0FEA3E0FF24081204E8FDEF24BD
:1015E00001FFE43E541F902004F0A3EFF0A3120487
:1015F00049AF0522902006E0FEA3E0FF22902000E4
:10160000E0045403F07F0033333354F8FEEF240832
:10161000F974203EFA7B01A30202B0900054741DBD
:10162000F0A3740FF012049CE490004FF012051820
:1016300090006BE0FEA3E0FF900054E06E7003A307
:10164000E06F7F0060027FFF22EFB40109D2AD7529
:10165000FF0143AE4022C2AD75FF0153AEBF22E58C
:10166000C85402FF75C80222E5C85401FF22900A3F
:1016700058E0FEA3E0FFC3E49FFF74089EFE221221
:101680000253E4FB7A08F9F890005012023B120171
:04169000658F0C2234
:1017FA00043DFFFCFFFF02184E5F775FE6FF7FB8EC
:10180A00EF90181393901900730A20364CE576FF6F
:10181A0022EFF576221A3E1A430263F81BC41BD83C
:10182A00FF0250B4556E6B6E6F776E206576656EEB
:10183A00743A20000A002C0020001C731C781C7DBE
:10184A00FF0253A17581B075FF03759E021219201C
:10185A00023107022E4B9029CEE47E019360F4A355
:10186A00FF543F30E509541FFEE493A360010ECFF5
:10187A0054E0B4E00EEFFAEEF9A3A3A3A3DAFDD97C
:10188A00FB80D654C025E0604B5026E493A3F8545D
:10189A0007240CC8C333C4540F4420C8834004F43B
:1018AA0056800146F6DFE480B001020408102040A9
:1018BA0080E493A3FAE493A3F8E493A3C8C582C887
:1018CA00CAC583CAF0A3C8C582C8CAC583CADFE924
:1018DA00DEE78085E493A3F8E493A34003F680014E
:1018EA00F208DFF40218635A2D5761766520342E08
:1018FA003631001D5EFFC0767419C0E0C082C08315
:10190A0075760AE5FF54CF4490F5FF22C076741924
:10191A00C0E0C082C083757620E5FF54CF4490F5BD
:10192A00FF22C0767419C0E0C082C083757636E59E
:10193A00FF54CF44A0F5FF22C0767419C0E0C082DC
:10194A00C08375764CE5FF54CF44B0F5FF229081F1
:10195A00AA21169081BE211690A838211690C0A3FC
:10196A0021169098D4211690B907211690D07F217C
:10197A001690D09721169095F8211690D13E2116EF
:10198A0090B58E211690D5B1211690D7F0211690D8
:10199A00CB4B21169099BE211690D897211690D834
:1019AA00B3211690CF70211690DB03211690DAA886
:1019BA00211690DA82211690DC9D211690DD1C21D9
:1019CA001690DD72211690DD5A211690DC512116EF
:1019DA0090C6E9211690B9EA211690DBB821169033
:1019EA00CC86211690BF3D211690DD82211690E704
:1019FA00EE211690DABE211690A97E211690D9C240
:101A0A00211690E86C211690D90E211690DCDA2165
:101A1A001690E8D9211690E916211690E95B21164D
:101A2A0090E979211690E9C4211690EA5B21169073
:101A3A00EA0B21169098A0211690B453211690D93A
:101A4A00A1211690B96621169081F6211690DA1412
:101A5A00211690C314211690EAB9211690BED221FC
:101A6A001690BFC1211690BEAE211690DC13211626
:101A7A0090BEEA211690EAC8211690EAEA21169049
:101A8A00C3E1211690C331211690EB08211690EB81
:101A9A0009211690EB27211690EB3C211690EB3D7D
:101AAA00211690EB9C211690EB0A211690EBAE21A1
:101ABA001690EC15211690EC1B211690EC2121169C
:101ACA0090CB1D211690C482211690EC27211690E6
:101ADA00D19C211690D45A211690E200211690EE3C
:101AEA006A211690CEC3211690CDCD211690EFC64D
:101AFA00211690CD50211690EFDE211690F042214A
:101B0A001690D196211690EF17211690C5832116AB
:101B1A0090C6CE211690C522211690C3ED211690AB
:101B2A00F201211690F2FD211690EE95211690EC05
:101B3A00BD211690F579211690F6BE211690F66011
:101B4A00211690EF4D211690EF2E211690CBF821F9
:101B5A001690809721169080FB21169080002116FE
:101B6A0090815F2116908190214290C3C3214290B7
:101B7A00AFD0214290AFF9214290C3C6214290AF23
:101B8A00C8214290B069214290A6E8214290C3C977
:101B9A00214290C3CC214290800821429089812120
:101BAA004290C4F1214290C791214290C8C9214272
:101BBA0090C9A9214290CB0C214290CCDE214290BF
:101BCA00CBFE214290D11E2142908281214290CAAD
:101BDA00CA214290C90D214290D750214290D78EF6
:101BEA00214290D7EB214290D815214290AFCF21C4
:061BFA004290D93E214299
:101C000090DA6D214290A764214290C51D21429037
:101C1000DB1C214290AD2F214290803B21429080DD
:101C2000D5214290DB23214290DB35214290DB4ECF
:101C3000214290B7CC214290B26A214290B9B92199
:101C400042908645214290DB77214290DB882142F9
:101C500090DBAB214290DBDB214290DC22214290E1
:101C60008F8E214290D24C214290BEAF214290AD46
:101C70003D214290DC8B214290DD1D21429090B5A8
:101C8000214290DCD0214290DDE7214290B9CC2165
:101C90004290B8D62142908677214290B44E21429C
:101CA000908857214290DEDA214290DEE221429074
:101CB000DEF8214290B8BA214290B8C8214290DFA4
:101CC00024214290DF40214290B9A82142908656BB
:101CD000214290BE5D214290BA3E214290BA372106
:101CE0004290BB82214290B8D0214290B8C221429A
:101CF00090E00F214290BE6B214290C3032142909D
:101D0000E0AB214290E122214290E0CC214290C7F9
:101D100020214290E25F214290B074214290E4FE83
:101D2000214290E513214290BCF0214290BB3A2120
:101D30004290E580214290A222214290E5892142F1
:101D400090E5DB214290E622214290E62321429059
:101D5000D91B214290BE64214290E62C214290DDA5
:101D6000422142908828214290E76B214290E7A1CE
:101D700021429094C9214290E865214290BFF6210A
:101D80004290C7A5214290CEAF214290E9DC21428A
:101D900090E877214290B6B6214290991D21429059
:101DA00095B5214290933521429091AE214290C841
:101DB0009F214290A0482142909187214290CA469B
:101DC00021429099A521429091B42142909CC52135
:101DD0002C909BCE212C909C30212C909EDF212C8E
:101DE000909EF7212C909F09212C909F1A212C90D6
:101DF0009E17212C909F39212C909F00212C90A17F
:101E0000AD212C90A1F0212C90A21B212C90A27F1F
:101E1000212C90813B212C90A4CC212C90A4CD216D
:101E20002C90956C212C909E80212C909B3D212CF8
:101E300090A50F212C90982D212C909833212C9037
:101E4000A5FB212C90A63A212C909872212C9094DD
:101E5000D8212C9098E5212C90A318212C90A33DFB
:101E6000212C00E709F608DFFA8046E709F208DFCF
:101E7000FA803E88828C83E709F0A3DFFA8032E3A0
:101E800009F608DFFA8078E309F208DFFA80708843
:101E9000828C83E309F0A3DFFA806489828A83E07D
:101EA000A3F608DFFA805889828A83E0A3F208DF6C
:101EB000FA804C80D280FA80C680D4806980F2801B
:101EC00033801080A680EA809A80A880DA80E28041
:101ED000CA803389828A83ECFAE493A3C8C582C896
:101EE000CCC583CCF0A3C8C582C8CCC583CCDFE900
:101EF000DEE7800D89828A83E493A3F608DFF9EC9C
:101F0000FAA9F0EDFB2289828A83ECFAE0A3C8C526
:101F100082C8CCC583CCF0A3C8C582C8CCC583CC4D
:101F2000DFEADEE880DB89828A83E493A3F208DFBC
:101F3000F980CC88F0EF60010E4E60C388F0ED248C
:101F400002B4040050B9F582EB2402B4040050AF8F
:101F50002323458223901EB373BB010689828A83A3
:101F6000E0225002E722BBFE02E32289828A83E458
:101F70009322BB010B89828A83F8E0C828F0E8220B
:101F8000500327C722BBFE07F8E3C828F3E8228ADC
:101F9000838982E49322BB010CE58229F582E583E3
:101FA0003AF583E0225006E92582F8E622BBFE06D8
:101FB000E92582F8E222E58229F582E5833AF58374
:101FC000E49322BB010989828A83F8E028F0225039
:101FD0000327F722BBFE05F8E328F3228A838982D0
:101FE000F8E4932822BB010FF8E58229F582E58306
:101FF0003AF583E028F0225009C58229F8E58226C7
:10200000F622BBFE09C58229F8E22582F222F8EA0F
:102010002583F583E9932822BB010689828A83F010
:10202000225002F722BBFE01F322F8BB010DE5822C
:1020300029F582E5833AF583E8F0225006E9258206
:10204000C8F622BBFE05E92582C8F222EF8DF0A476
:10205000A8F0CF8CF0A428CE8DF0A42EFE22BC00D8
:102060000BBE0029EF8DF084FFADF022E4CCF875B3
:10207000F008EF2FFFEE33FEEC33FCEE9DEC9840C2
:1020800005FCEE9DFE0FD5F0E9E4CEFD22EDF8F55E
:10209000F0EE8420D21CFEADF075F008EF2FFFEDBE
:1020A00033FD4007985006D5F0F222C398FD0FD5B6
:1020B000F0EA22C2D5EC30E709B2D5E4C39DFDE4D5
:1020C0009CFCEE30E715B2D5E4C39FFFE49EFE1200
:1020D000205EC3E49DFDE49CFC800312205E30D5AD
:1020E00007C3E49FFFE49EFE22C5F0F8A3E028F0BA
:1020F000C5F0F8E582158270021583E038F022A35E
:10210000F8E0C5F025F0F0E582158270021583E055
:10211000C838F0E822BB010A89828A83E0F5F0A37F
:10212000E022500687F009E71922BBFE07E3F5F02D
:1021300009E3192289828A83E493F5F074019322DA
:10214000BB0110E58229F582E5833AF583E0F5F0DD
:10215000A3E0225009E92582F886F008E622BBFEBA
:102160000AE92582F8E2F5F008E222E5832AF58300
:10217000E993F5F0A3E99322BB010DC58229C5823D
:10218000C5833AC5830220E95011C58229F808E5C4
:10219000F026F618F5F0E58236F622BBFE11C58270
:1021A00029F808E225F0F5F0F218E23582F222F87B
:1021B000E58229F582E5832AF58374019325F0F5FC
:1021C000F0E4933822BB010A89828A83F0E5F0A308
:1021D000F0225006F709A7F01922BBFE06F3E5F03E
:1021E00009F31922F8BB0111E58229F582E5833A4A
:1021F000F583E8F0E5F0A3F0225009E92582C8F65E
:1022000008A6F022BBFE09E92582C8F2E5F008F233
:1022100022EF2BFFEE3AFEED39FDEC38FC22C3EF46
:102220009BFFEE9AFEED99FDEC98FC22E88FF0A45E
:10223000CC8BF0A42CFCE98EF0A42CFC8AF0EDA44D
:102240002CFCEA8EF0A4CDA8F08BF0A42DCC382580
:10225000F0FDE98FF0A42CCD35F0FCEB8EF0A4FE60
:10226000A9F0EB8FF0A4CFC5F02ECD39FEE43CFCF5
:10227000EAA42DCE35F0FDE43CFC2275F008758211
:1022800000EF2FFFEE33FECD33CDCC33CCC5823300
:10229000C5829BED9AEC99E58298400CF582EE9B05
:1022A000FEED9AFDEC99FC0FD5F0D6E4CEFBE4CD23
:1022B000FAE4CCF9A88222B800C1B90059BA002DBD
:1022C000EC8BF084CFCECDFCE5F0CBF97818EF2F76
:1022D000FFEE33FEED33FDEC33FCEB33FB10D703A5
:1022E000994004EB99FB0FD8E5E4F9FA227818EF4E
:1022F0002FFFEE33FEED33FDEC33FCC933C910D7AD
:10230000059BE99A4007EC9BFCE99AF90FD8E0E4B9
:10231000C9FAE4CCFB2275F010EF2FFFEE33FEED8F
:1023200033FDCC33CCC833C810D7079BEC9AE8995F
:10233000400AED9BFDEC9AFCE899F80FD5F0DAE441
:10234000CDFBE4CCFAE4C8F922EF5BFFEE5AFEEDD8
:1023500059FDEC58FC22C3E49FFFE49EFEE49DFD82
:10236000E49CFC22EB9FF5F0EA9E42F0E99D42F0EE
:10237000EC6480C864809845F022EB9FF5F0EA9EFB
:1023800042F0E99D42F0E89C45F022E8600FECC382
:1023900013FCED13FDEE13FEEF13FFD8F122E860FE
:1023A0000FEFC333FFEE33FEED33FDEC33FCD8F11A
:1023B00022BB010789828A8302243F5005E9F80283
:1023C000291EBBFE05E9F802292A89828A83022494
:1023D0004BBB010DE58229F582E5833AF5830224A2
:1023E0003F5007E92582F802291EBBFE07E9258236
:1023F000F802292AE58229F582E5833AF583022449
:102400004BBB010789828A830224CC5005E9F8027C
:102410002960BBFE05E9F802296C22BB010DE582AB
:1024200029F582E5833AF5830224CC5007E9258219
:10243000F8022960BBFE07E92582F802296C22E038
:10244000FCA3E0FDA3E0FEA3E0FF22E493FC740103
:1024500093FD740293FE740393FF22E0F8A3E0F966
:10246000A3E0FAA3E0FB22BB010DE58229F582E59A
:10247000833AF58302245B5007E92582F802293666
:10248000BBFE07E92582F8022943E58229F582E5AA
:10249000833AF5830229507401FF3395E0FEFDFC79
:1024A000A3A3A3E02FFFF0E582158270021583E05D
:1024B0003EFEF0E582158270021583E03DFDF0E5F9
:1024C00082158270021583E03CFCF022ECF0A3ED53
:1024D000F0A3EEF0A3EFF022A8828583F0D083D0A2
:1024E000821224EF1224EF1224EF1224EFE473E49B
:1024F00093A3C583C5F0C583C8C582C8F0A3C583AF
:10250000C5F0C583C8C582C822BB010789828A83FA
:102510000224D85005E9F8022978BBFE05E9F80243
:10252000299122BB010DE58229F582E5833AF583E5
:102530000224D85007E92582F8022978BBFE07E972
:102540002582F802299122F5F0C582A4C582C5F042
:10255000C583A42583F58322A42582F582E5F03581
:1025600083F58322E0FBA3E0FAA3E0F922F8E0FB85
:10257000A3A3E0F925F0F0E582158270021583E04F
:10258000FA38F022EBF0A3EAF0A3E9F022E493FB9F
:10259000740193FA740293F922BB010789828A833A
:1025A0000225645005E9F80229AABBFE05E9F802F4
:1025B00029BC89828A8302258DBB011A89828A837C
:1025C000D0F0D0E0F8D0E0F9D0E0FAD0E0FBE8C0FD
:1025D000E0C0F00225845016E9F8D083D082D0E024
:1025E000F9D0E0FAD0E0FBC082C0830229B3BBFE81
:1025F00016E9F8D083D082D0E0F9D0E0FAD0E0FB41
:10260000C082C0830229C522BB010DE58229F58263
:10261000E5833AF5830225645007E92582F802290B
:10262000AABBFE07E92582F80229BCE58229F582CA
:10263000E5833AF58302258DBB0120E58229F582E9
:10264000E5833AF583D0F0D0E0F8D0E0F9D0E0FAB5
:10265000D0E0FBE8C0E0C0F00225845018E92582F4
:10266000F8D083D082D0E0F9D0E0FAD0E0FBC0828D
:10267000C0830229B3BBFE18E92582F8D083D0823B
:10268000D0E0F9D0E0FAD0E0FBC082C0830229C5D7
:1026900022D083D082F8E4937012740193700DA35A
:1026A000A393F8740193F5828883E47374029368AA
:1026B00060EFA3A3A380DFD083D082E49370127471
:1026C0000193700DA3A393F8740193F5828883E4BA
:1026D000737402936C70127403936D700C74049392
:1026E0006E70067405936F60DDA3A3A3A3A3A380FC
:1026F000CA8A838982E473E5712582F582E57035A3
:1027000083F583B570048582712210AF06858271CE
:10271000F57022858271F570D2AF22EC8EF0A4CCD8
:10272000C5F0CCCDF8EFA4CEC5F02DFDE43CFCE81F
:10273000A42EC8C5F03DFDE43CFCEFA4FFE5F02865
:10274000FEE43DFDE43CFC22E3F5F009E208B5F0CF
:102750006BDFF58067E3F5F009E608B5F05EDFF5BD
:10276000805A87F009E608B5F052DFF6804E87F010
:1027700009E208B5F046DFF6804288828C8387F054
:1027800009E0A3B5F036DFF6803288828C8387F0CB
:1027900009E493A3B5F025DFF5802188828C83E3DB
:1027A000F5F009E0A3B5F014DFF5801088828C8382
:1027B000E3F5F009E493A3B5F002DFF40228778093
:1027C0008780E9809080D4803E8015806E807E80F6
:1027D0009D80B7808D80A380518074803C022883C7
:1027E00089828A83ECFAE493F5F0A3C8C582C8CC49
:1027F000C583CCE493A3C8C582C8CCC583CCB5F04F
:1028000076DFE3DEE1807089828A83E493F5F0A3CA
:10281000E208B5F062DFF4805E89828A83E0F5F039
:10282000A3E608B5F051DFF5804D89828A83E0F593
:10283000F0A3E208B5F040DFF5803C89828A83E4AA
:1028400093F5F0A3E608B5F02EDFF4802A8002802D
:102850005789828A83ECFAE493F5F0A3C8C582C84D
:10286000CCC583CCE0A3C8C582C8CCC583CCB5F0A9
:1028700006DFE4DEE280007FFFB5F0020F224002B7
:102880007F012289828A83ECFAE0F5F0A3C8C58231
:10289000C8CCC583CCE0A3C8C582C8CCC583CCB5A1
:1028A000F0D5DFE5DEE380CF89828A83ECFAE0F5BC
:1028B000F0A3C8C582C8CCC583CCE493A3C8C582A5
:1028C000C8CCC583CCB5F0AFDFE4DEE280A988F0E8
:1028D000EF60010E4E60ABED2402B404005098F599
:1028E00082EB2402B40400508E23234582239027D8
:1028F000BF73EF4E6012EF60010EEDBB010B8982DA
:102900008A83F0A3DFFCDEFA2289F05007F709DFA3
:10291000FCA9F022BBFEFCF309DFFCA9F022E6FCD7
:1029200008E6FD08E6FE08E6FF22E2FC08E2FD08F4
:10293000E2FE08E2FF22E6FB08E6F908E6FA08E60E
:10294000CBF822E2FB08E2F908E2FA08E2CBF8222F
:10295000E493F8740193F9740293FA740393FB22DD
:10296000ECF608EDF608EEF608EFF622ECF208EDCC
:10297000F208EEF208EFF222D083D082E493F60858
:10298000740193F608740293F608740393F67404C2
:1029900073D083D082E493F208740193F208740236
:1029A00093F208740393F2740473E6FB08E6FA08E2
:1029B000E6F922EBF608EAF608E9F622E2FB08E27D
:1029C000FA08E2F922EBF208EAF208E9F2224103FE
:1029D000C8004103C700E0020200001C7DE00202C3
:1029E0000002120EE00102000954E00102000AA5F3
:1029F000E00502120B120E02043D4107DF0601142E
:102A0000004107DE014107DC01C11A01190001176D
:102A100000433E73000000423E71000041424A0004
:102A2000E00202121001B0E00102121200E0010205
:102A3000129300E0050213BB01B006043DC11DC1A5
:102A40000941340D00413487FF41347F00C108C182
:102A500007413488004134890041348001C10B4171
:102A6000340C0041477700C1394340F40000004175
:102A700040F3004140F7004303BE0000004303BBA6
:102A80000103BE42370E980743456B0000004345E3
:102A90006801456B4146D1024146D00D4146D208FE
:102AA00060203D2242DB0100000000000000000029
:102AB0000000000000000000000000000000000016
:102AC0000000000060203D420900000000000000FE
:102AD00000000000000000000000000000000000F6
:102AE0000000000000000000503FF800000000005F
:102AF0000000000000000000000000C114015800A8
:102B0000C111C112C11EC120C125422B779840417D
:102B10002B790060202B3600000000000000000030
:102B200000000000000000000000000000000000A5
:102B3000000000000000004327EB9F01005027EE3B
:102B40000000000000000000000000000000000184
:102B500061222DF1000201050101020E06010100B2
:102B6000040704010203000004000608050402082B
:102B700003140400040014050108090805020803F1
:102B800014050004001405000600140802020A0AD5
:102B900008020301000800040014080006001408DD
:102BA000010800140A020D000A0A020C000A0A02B7
:102BB000080B0A0A01050C0E0A000400140A00069C
:102BC00000140A010800140E000A0D110E02080478
:102BD000140E000400140E000600140E0108001468
:102BE0000E0105001411000C0C0E11020804141142
:102BF0000004001411000600141101080014110152
:102C000005001411000A00141102050E1212020828
:102C1000041412020C0F001200040014120006002B
:102C2000141201080014120105001412000A001405
:102C3000120205001412000C001413020C01000013
:102C40000209000000020F00001402090100140232
:102C50000B0013140007100014020A0100140204F0
:102C6000001414020C001414020D010014020E00D2
:102C70001414020F010060242FFC0200FFFF060263
:102C8000FF000602FF000301FF002300FFFF030017
:102C90000000130000000200010103000000462FA5
:102CA00053010002010402422FD91D45413060004A
:102CB0004131FA0141306600433063013021433035
:102CC000570130214109690060200845EDFFFFFFF1
:102CD000FFFFFFFFFFFFFFFFFFFFFFFFFFFFFFFF04
:102CE000FFFFFFFFFFFFFFFFFFFFFF7F6028277150
:102CF0000522000000030008EEEF7F88CF7FC00FA1
:102D0000028124E040008000008080180000E83349
:102D100000000600006000004121620041217200B5
:102D200041216001412165114121610041243F00A1
:102D300041245E0041243C00412466004F244F01A1
:102D4000279F0001247A000127C8000000004224C8
:102D5000788700C127C1284134E8964134E40FE068
:102D6000020213C000A2E00502145D00A2040522C5
:102D7000E0020214620807E005021C64080705056A
:102D80002241453CFF41453A04C1BC414537004121
:102D9000453B00414538FF473E7F000000000000F2
:102DA00000433E7C000000E002021C690013E00CBE
:102DB000021C6B00000308000300080522043DE02C
:102DC00005021C770013FF0522E002021C7C0000B4
:102DD00000C2D5E830E70FB2D5E4C39BFBE49AFA12
:102DE000E499F9E498F8EC30E717B2D5122E0712FF
:102DF00022B7E4C39BFBE49AFAE499F9E498F880DB
:102E0000031222B730D50DE4C39FFFE49EFEE49D7C
:102E1000FDE49CFC2278B0E4F6D8FD9000007F0031
:102E20007E10E4F0A3DFFCDEFA904792A3E583C3B3
:102E300094204011FEAF829020000E0FE48002F03B
:102E4000A3DFFCDEFA121920021860223200000112
:102E50000000000017060000000018060000000631
:102E600018060000000118060000000818060000FF
:102E70000001010100000001150000000001020432
:102E8000000000010B04000000060B040000000815
:102E90000B04000000010D00000000010E04000002
:102EA00000011000000000010F00000000040501F7
:102EB00000000004060600000004070800000002ED
:102EC00005000000000305010000000108050000E6
:102ED00000000800000000010C01000000011205C4
:102EE00000000008030200000001220000000008AA
:102EF000160800000008080000000001160100008C
:102F000000061601000000050903000000050A0084
:102F10000000000503020000000504000000000698
:102F20001B06000000011B06000000061C07000035
:102F300000061D07000000070508000000081E0726
:102F4000000000082000000000081F00000000082A
:102F50002100000000081106000000011106000019
:102F600000082200000000061906000000061E00EE
:102F7000000000062000000000061A0800000006FD
:102F80001401000000071401000000081B060000E7
:102F900000072400000000081401000000555555EA
:102FA0005555555555555555555555553333333359
:102FB000333333333333333333333333888888888D
:102FC00088888888888888888888883F241E161181
:102FD0000E0B09070504030201F0C8A7917767608B
:102FE0004638353230242220140001010202030346
:102FF00004040505060607070000000000000000A5
:1030000000000000000000000000000000000000C0
:1030100000000000000000878888888888888888E9
:103020008888888888888826262626262626262692
:1030300026262626262626000DFA20000DDC700006
:10304000000000020C00013F3F3F04040435353509
:10305000000000001DCC1DD11DD61DDB1DE01DE5AF
:103060001DEA1DEF1DF41DF91DFE1E031E081E0D99
:1030700019B719BC19C119C619D019E419E919EE03
:103080001D681D721D771D7C1D811D861D8B1D9564
:103090001958195D1976197B19801C321C411C4680
:1030A0001C4B1C50822D1C16131110101A7A1A7FFB
:1030B0001AB11E3F1E441E491E5D6A32E4FD7C0C9F
:1030C000AB050DEB9018F1938F828E83F00FBF004C
:1030D000010EDCEC7F03228F828E83E4F0A3740464
:1030E00011EA743D11EAA3E4F022F08F828E83A3EB
:1030F000A3229003CF7402F09003C7E0FF121E21B9
:103100009003CF7405F02275FF0275E404E4F5E442
:10311000C21975FF02901215E0603CE5E6540364A5
:10312000017034121A2A1249B94020901239E06015
:103130000DE014F07008122E15E4901215F09012A4
:1031400015E0700221E51240CD21E5122E15D219AD
:10315000E4901215F021E5122E1512608D9003C92E
:10316000EFF0901200E0B47A14901214E0B49C0DC9
:103170009003C9E0FF64056004EFB40330E49003FA
:10318000CEF09003CEE0FFC394805013E42FF5827D
:10319000E43412F583E4F09003CEE004F080E39091
:1031A0001200747AF0901214749CF0D215121C0F55
:1031B0004003121C0A7B017A1279107D017F0112F3
:1031C0001C057B017A1279117D017F21121C057B80
:1031D000017A1279127D017F22121C057A1279235D
:1031E0007F0212674C901223E0B401057F01126345
:1031F000E3121A2F12608D121A259003C9EFF012F4
:1032000019A8121A209003C9E0FFB40602800C30FE
:1032100019047F0280059003C9E0FF121E1CEF24F1
:10322000FFB3923975FF0253E6BF123A8F6005E48F
:10323000901215F012508E121A3912380430150BF4
:103240007B017A1279257D10125C27121A6B90127D
:1032500015E0700E20390B11F27B017A347990124F
:1032600019D5901224E030E00280033019057F0167
:10327000124812D2AF2039026108121C281251687C
:10328000121E17121C0040F29003C8E06045121A8B
:103290005CEF70081241F1EE94004037E51470FCC9
:1032A000E51520E503124E03121B74EF70FA125E4F
:1032B000015005125DED50047F0191099003C8E0B3
:1032C000B40204E4FF80099003C8E0B403057F0161
:1032D0001240EE121A52E51530E19F125BCF9402B4
:1032E0004002E4F0E51520E50B71EBAF82AE837D83
:1032F0000112482E126C93C0E071F99003CBE0FDEF
:10330000D0E0FF12199E417A1250431242665003D8
:103310001242869003C8E0606190340DE0705B1249
:103320001A5CEF70081241F1EE9400404DE5147004
:10333000FCE51520E50A901224E020E003124E037C
:10334000121B74EF70FA125E015005125DED50040D
:103350007F0191099003C8E0B40203E48018900350
:10336000C8E0B403047F01800E9003C8E0B4050AEE
:103370009012157401F0FF1240EE121C28125168D1
:10338000121BF1121E12201605121A52802212412F
:10339000B99003C1E0FEEFC39E4005EF9EFF800899
:1033A0009003C1E0F4042FFF7406D39F5002C216AD
:1033B000E51530E12B125BCF94024002E4F0E515F5
:1033C00020E50B71EBAF82AE837D0112482E126CAB
:1033D00093C0E071F99003CBE0FDD0E0FF12199E9D
:1033E000121BC9121A6612507961089003CAE0FDD7
:1033F00075F0AA9003D2122558ED75F002A424C3EB
:10340000F9740335F0FA7B0122904772EFF0904295
:103410004BE064027022B120904772E07FAB600203
:103420007FB99142D143904772E090424AF07004D4
:103430007F1EDFFEE4FFB1EE2212243F7808122344
:103440008BE4E5C820E2FB8FEB227F01B1EE9047D1
:10345000717401F0904771E0602EF1DC91D59047D6
:1034600071EFF0D14391C490423EEFF0D1439047C9
:1034700071E05401F1EE60DCA3E0F460D7EF30E7D7
:10348000D3E4904771F080CCB1247F9F914291D5D5
:1034900090423F91D390424491D3904245EFF0B196
:1034A000EA90423DE0F4601BA3E0F46016904244D1
:1034B000E0FD541F240FA3F0EDC413540744809083
:1034C0004244F022B1247FD791427FFF914291D9AB
:1034D00090423DEFF07FFF9142E5C820E2FBAFEB69
:1034E000227F01B1EE303714F1DC91D5904773EFB4
:1034F000F0D143904773E020E002C2373037179194
:10350000C490423EEFF1EE600BA3E0F46006EF30B2
:10351000E702C237D143E4FFB1EEA237E433FF2222
:103520007F01B1EE904242E0122691354704354FBB
:1035300014355415355917356930356E34357336B1
:10354000357837000035615354EF855480802F5310
:1035500055EF80085355DF800353557F8555908084
:103560001D5356DF8556A080155357FE800D5357C7
:10357000EF80085357BF800353577F8557B07F0CA8
:10358000DFFE2290435D1224CC904361122584F12A
:10359000B291E1EF6004F1C180F7F151600A90430C
:1035A0005D12243F7810913E90435D913990435DC8
:1035B00012243FE48025904364F1FA602290436135
:1035C000126CB0601490436112567A91429043623B
:1035D000E475F0011220E980DDE4FF914280D7B16B
:1035E000EA9042417401F0229142D143E4FFEFB4EA
:1035F000010443FE202253FEDF229045D11224CC49
:103600009045D112243FD1C19045D5E06F6032F191
:10361000B291E1EF6004F1C180F7F151600A904589
:10362000D112243F7810913E9045D191399045D1E7
:10363000F1D69045D5E0FFB1E89042417401F0D356
:1036400022C32212687EEF70FA904244E0F4600BCD
:103650009047707406F0126E0C70FB904242E012BC
:103660002691367E04368614368B1536901736A092
:103670003036A53436AA3636AF3700003698435474
:1036800010855480802F43551080084355208003B7
:10369000435580855590801D4356208556A0801542
:1036A000435701800D435710800843574080034320
:1036B00057808557B0904770740CF0126E0C70FBF9
:1036C000229045CC1224CCF1B291E1EF6004F1C11B
:1036D00080F7B1207F03F166600A9045CC12243F49
:1036E0007810913E9045CC91399045CCF1D691D54A
:1036F0009045D0EFF0B1EA9045D0E0FF22904366CC
:103700001224CC90436A122584F1B291E1EF600457
:10371000F1C180F7B1207F03F166600A9043661221
:10372000243F7810913E9043669139904366F1D6DC
:1037300090436DF1FA601491D590436A12568290CD
:10374000436BE475F0011220E980E5D143E4FFA169
:10375000EE7F01B1EED237B1247F069142D143B161
:1037600024904240E0FF9142904243E0640222F103
:10377000B291E1EF6004F1C180F77F01B1EED23781
:10378000B1247F069142D143B1247F0191427F034E
:103790009142D143E4FFA1EE90423DE020E012B11E
:1037A000207F3D91427F2A91427F8091427FA6B146
:1037B000E82275FF02E5E430E10675E40675E403EE
:1037C00022E51530E20FE51520E50AE51530E005A4
:1037D0007F011248122212243FE48142B1247F0566
:1037E0008142F1B291E1EF6004F1C180F722F090E3
:1037F000423DE0FFF422E4FFA1EE74FFF5F0122059
:10380000FF45F022126576121A48121B1A1219A3EC
:10381000121C2D518F700201E87FFF121AD49008FC
:10382000E21225847E007F093140BF540D7E007F67
:103830000A3140BFA5047F0180027F009003C7EFDB
:10384000F09008E2122564E94A4B701C7F04FE31B7
:1038500040EF2401FFE433FEC37401D14B7F0050DD
:10386000027F019003C7EFF09003C7E0640170503E
:103870009008E2122564F1E37A0879E8516A900829
:10388000E8E0FEA3E0FF9008E2126CEFE92407F9FC
:10389000E43AFA9008E5122584E92408F9E43AFEAE
:1038A000AF017B017A0879E8516A9008E8E0640585
:1038B0007004A3E064226008121AD99003C7EFF0E5
:1038C0009003C7E0701A7E007F04C006C3747D9425
:1038D00004FE741C519FD006F1A1E4FFFE121ADE13
:1038E0009003C7E0FF121B01518F7F0060027F0130
:1038F0001219FD121A07121962126C0F7A12791E30
:10390000121B7912427EFE4FFDA3E0FC4DFDA3E0A9
:10391000FB4D600BEE5FFFEC5FFFEB5FF47003129B
:10392000428690121CE0FF5403241EF582E43412F8
:10393000F583E06F9003C2F0021BFBF07E007F0B6B
:10394000E4FCFD0236C17402F09044BAF18AC0076B
:103950009044BA1225649044BD126C78F0D007519F
:10396000281225849042D21225649042D51268060E
:103970009042CE12243F1267655002410E126CB77E
:103980009042CE12245B1223499042D7F1F160316C
:103990005150126D269042D7F0A3EFF09042D551CE
:1039A000889FEC9E5006A3ECF0A3EDF0513251102D
:1039B000122564E94A6004519680467E007F0080AB
:1039C000409042D5E0FEA3E0FF4E60409042465159
:1039D00088EF9DEE9C400A9042D7ECF0A3EDF0807A
:1039E0000D9042D5E0FFA3E0A3CFF0A3EFF051325A
:1039F0005110122564E94A6004519680047E007FCC
:103A0000009042D3EE8FF01220E980B5D322C3227A
:103A10009042D6E09FF09042D5E09EF09042CE12C8
:103A2000245BE4FCFD1222119042CE1224CC904281
:103A3000D2229042D21225649042D7E0FFA3E090B8
:103A40004364CFF0A3EFF09042CE12243F123583AF
:103A50009042D7E0FEA3E0FFC32290410C12256400
:103A6000AE02AF017B017A41791B9045497402F0A7
:103A7000904546F18AC00790454612256490454915
:103A8000126C04D0070236FDE0FCA3E0FDD32290C7
:103A900003C9E06401229042D7E0FEA3E0FF229434
:103AA000009044BDF0A3CEF07B007A007900229014
:103AB0004277122584904277F1DC714790427FD1A2
:103AC000F9E924017147904280D1F9121F599042BF
:103AD00081F0E924067147904282D1F97144049043
:103AE0004283F090427D51539402EE94004017AD12
:103AF000077B017A42797F90454112258490427A72
:103B0000122564121E5822FFD1599009081225640B
:103B1000E924B1F9E43AFA121F59FF900908122575
:103B200064E924D8F9E43AFA121F592FFFE433FE6E
:103B3000EF2401FFE43EFE900908122564E924B257
:103B4000F9E43AFAE92407F9E43AFA021F5990092C
:103B500008122584D22BC2EBE5146002A1B5E5154D
:103B600030E202C322B1BDF10EE4122018125DAFA3
:103B7000B1C5126D7A9007DEF0125B1590090BEF5C
:103B8000F0E51520E06FF1B040057F01124812907A
:103B9000090BE0FF7B017A09790C124C99E4337030
:103BA00004D2EBA19A90090BE02468126E04E0FFA6
:103BB00090090CE0D39F403DD2EB125C08A2189212
:103BC000ED9007EFE06010B1BDF10E740112201806
:103BD000431504F1B8D3229007FEE070167B017AFA
:103BE0000779FE7C577DFB9044A87464F0E4A3F051
:103BF00012564AC322F1B05005C2351248AD124FD9
:103C00005DE5D120E0FBE4F510C219B1C512211524
:103C10005407C39403E49400502FB1BD24B17147FD
:103C2000FFB1BD24D871472FFFE433FED3EF94409A
:103C3000EE648094804012B1BDF10E74021220181F
:103C4000431504A21892EDD322B1BD2408F9E43A39
:103C5000CFE9CFF5118F12B1BD24B17147F516AE82
:103C60001112681FB1BD24B2F9E43A8B1CF51D890D
:103C70001EB1BD24D87147F51FB1C5122115FDAC89
:103C8000F05460602FB1BD24D97147FF125BE2C2CE
:103C90002B7137FB7A009007FF126D577D181220A9
:103CA0004CEF2BFFEA3EFEEF2414FBE43EFA7D02CC
:103CB0007F01A18AB1C512211554079007DEF07566
:103CC0001408B1BD24B2F9E43AFA125630B1BD2459
:103CD000D87147FFAD161257549007DEE0640370A9
:103CE000247B01FD7107D3D14B50057401121FC312
:103CF000E4F5FF125692121F592428FBE433FA7D93
:103D000003E4FFA18A9007DEE06402702B710AD3FE
:103D1000D14B400574FF121FC3E4F5FFE5D2548078
:103D2000440AF5D2121F592414FBE433FA7D027FB2
:103D300001125CF6D1548055E4FB7D017107D3D1AB
:103D40004B400574FF121FC3E4F5FFB1C5F1997F25
:103D50000560027F0AEF547FFFE5D254804FF5D211
:103D6000E4F5FF43D2807137FD7C00B1C5F1997E47
:103D70000060047F0A80027F05EF25E0FFEE33FE3E
:103D8000EF2DFBEE3CFA7D017F01125CF6B1C5F12F
:103D9000EAA22B922A125A774006A21892EDC32269
:103DA000F1B890090BE0FFB1BD24E7F115A218921C
:103DB000EDD2EBD322A21892EDD2EBC322900908E8
:103DC000122564E922900908122564E92404F9E423
:103DD0003AFA2290417E122584F101E924017147CB
:103DE000904188F100121F59904189F0E924037134
:103DF0004790418AF100E92402714790418CF0908C
:103E00003E6FE0FFA3E0904190CFF0A3EFF0904130
:103E100086F17D904183F11E71471490418FF0909F
:103E2000417E122564904201122584904204F19152
:103E30007B017A417988121D22EF60037F01229075
:103E40004190F17D7F002233FEE0C39FEE6480F855
:103E500074809822E4FB7D01FFE4F5FF75D102E553
:103E6000D120E0FBE4F5FFF5D1EF6008E4F5FF4376
:103E7000D2808006E4F5FF53D27FEB6006E4F5FFC5
:103E800043D104ED6006E4F5FF43D108229041B828
:103E9000122584F108E9240171479041C2F107120B
:103EA0001F599041C3F0E4A3F0E924027147904107
:103EB000C6F107E924037147149041C9F0903E719F
:103EC000E0FFA3E0903E76CFF0A3EFF09041C0F189
:103ED000709041B8122564904211122584904214CA
:103EE000F1917B017A4179C2121D40EF60037F019D
:103EF00022903E76F1707F0022F090427702256496
:103F0000F0904183022564F09041BD02256424E5D0
:103F1000F9E43AFA22F9E43AFAEF022018FF1225FE
:103F200064E92404229043EC1225847A3E794412F9
:103F30005FD39043EC122564121F59903E45F0E97F
:103F400024017147903E44F09043ECF11E7147907C
:103F50003E46F0903E497401F09043F27A3E794437
:103F6000126BF9125FDCF09043EF12256402198A9C
:103F7000E0FFA3E0903E71CFF0A3EFF022E0FFA3BB
:103F8000E0903E6FCFF0A3EFF022122584E4FCFD19
:103F900022AF05ECF0A3EFF022122115441045F0FA
:103FA00022314974FFFDFC22C2EBA2ED9218C2ED52
:103FB000E5F4C330E701D322E49007EFF07B017A08
:103FC0000779FE90468E12258490468E12567A12FC
:103FD000533090468E122564E4022018122564E9BD
:103FE000240522AE02AF017B0122122115FFAEF0A3
:103FF00022EEF0A3EFF04E2275FF0275E40475E4A3
:104000000175E4022275FF0275E404E4F5E42290F0
:104010000936EFF0900938EBF0900937EDF05402D3
:1040200090123AF0319F6006319C5002C322121C5C
:1040300064EF6002C3223112EF6002C32231399073
:104040000936E0B4040BA311929009367403F08092
:1040500025900936E064057018901224E090093725
:1040600030E50611927F1F8004119AE4FF310C8025
:1040700005900937119A900936E09003C8F090092D
:1040800038E0901239F031B99003D0EEF0A3EFF0A0
:10409000D322E0FB7D017F018006E0FB7D01E4FF90
:1040A000EB600875FF0153CDFD800675FF0143CD20
:1040B00002ED600553FBDF800343FB20EF600775D3
:1040C000FF0243E1402275FF0253E1BF22901243F9
:1040D000E0FD7F015137901224E090123A30E5065E
:1040E00011927F1F8004119AE4FF310C7F0143FB82
:1040F0001075FF0243E640EF600D75FF02E5E12019
:10410000E7FB43FB0D800343FB0E80FE75FF028F30
:10411000E322312BE9240F31317009312BE9240DD1
:10412000313160047F0180027F0022903E730225BE
:1041300064F9EA3402FA021F593188312BE924E08C
:10414000F9E49042D5319012395F31809045D50421
:10415000F00235FA745F31AF74E6F0312B31A67A94
:104160003E7963021B1F31801236C1EF6011318826
:10417000312BE924E0F9E490436D31901236FD22B1
:104180007E127F93E4FCFD227E127F94E4FCFD22EC
:104190003AFA7401F0A37427F022210CA21922909C
:1041A0001224E05430229043011225847B0122AD79
:1041B00007AC069042FFF0A322A2AD9229C2ADAF98
:1041C0006DAE6CA22992AD22AD07AC0631B9C3EF3A
:1041D0009DEE9C4008EF9DFFEE9CFE8013EDF4FDEC
:1041E000ECF4FCED2401FDE43CFCED2FFFEC3EFE85
:1041F000229003D0E0FEA3E0FF31C8D3EF94C822A1
:104200009003CCE0FCA3E04C70059003CC018BC381
:1042100022121D2790121E12243F121D2C903E7355
:1042200012258431667E1C7F7D121D4A121B0BEF06
:104230005407C36001D322EF7011ED600775FF01D1
:1042400043AE012275FF0153AEFE22EFB40114907C
:104250001243EDF0600775FF0143AE022275FF01C6
:1042600053AEFD2280D190121CE07010517E4FFFA2
:10427000A3E04FFFA3E04F7003D38001C32290124D
:104280001EE0FFA3E022E4FF124812EF6041126C2F
:104290006951D0500990121EE0C394C040F07B01D8
:1042A0007A12792051D0500E517E5FFFA3E05FFF5C
:1042B000A3E05FF460E8901224E030E0057F011293
:1042C0004812E490121CF0126C69E0FD121B7E2271
:1042D0009042C3124D1AF09042C91224D800000037
:1042E000019042CD7401F0F5FFE5D554C070051280
:1042F0003FB05002C322E4F5FF53967F75FF01756E
:10430000D5047F3FFEF15D75FF0143D508E4F5FF5D
:104310005394FBF5FF53847FF5FF7598FF9042C7D8
:10432000E5F4F075F49C75FF01A3E5E4F075E42570
:104330007B017A4279CD124E4E9042CDE06401600D
:104340000261F4F5FF9042C67414F09042C99136B0
:10435000780112239E9042C91224CCE5A730E1FBDC
:1043600043A7029042C99136E5A730E005E47B01FE
:104370008002E4FBFAF9F8EF4BFFEE4AFEED49FD4F
:10438000EC48FC9042C91224CC9042C6E014F07074
:10439000BA9042C99136781012238B7B6D7A4E7990
:1043A000C6784112222CEF2439FFEE3430F1C8E4F4
:1043B000FBFA7901F81222B7EE547FFEE4FDFC12FD
:1043C0005B089042C99136EB6FFFEA6EFEE8CDEFD5
:1043D000CDCCEECCECFF124DA0EF122018124DA068
:1043E000900001ED12202A90120FE030E606E4F56D
:1043F000FF75968075FF01E4F5D59042C7E0F5F4AE
:1044000075FF01A3E0F5E41261AB9042CDE0B40189
:1044100003D38001C322E0FB25E025E02401F582DF
:10442000E43412F5831224CCEB25E025E02401F5D9
:1044300082E43412F583E0FCA3E0FDA3E0FEA3E0F8
:10444000FF22903FD81224CC903FE87401F0E4A3FF
:10445000F0F16A75FF02E5E630E00E903FE9740185
:10446000F0FB7A3F79E9124E4E903FF31224D800C8
:104470002DC6C0E4F5FFF5A490120FF0903FEA744A
:1044800002F075FF03903FEAE0FFF595EF1460132B
:1044900014601C24027027903FD89136F1D6903FCB
:1044A000E48016903FDC9136F1D6903FE5800A908B
:1044B0003FE09136F1D6903FE6E0903FF7F0126290
:1044C000DC903FF7E07005126D0F806790120EE0F0
:1044D00004F0903FEA126D4E903FE9E0701A903F71
:1044E000F39136903FEFF117FBC312237A500990F6
:1044F0003FEF9136A31224CC903FF7E0FF12615DAD
:10450000903FE7E0FF903FEAE0FDA2339230126275
:104510008A903FE9E07013903FEF91369045C812C2
:1045200024CC903FEAE0FF1262E9903FEAE0912953
:10453000124F8B126DC360028182903FE9E07039A7
:10454000A37402F075FF03903FEA126E1470159089
:104550003FF3F112FBF1B6780112238B903FEA9101
:1045600016124F8B126DC370DB903FF3F1997801F7
:1045700012238B903FEB1224CCF1E9F1F04003437E
:10458000F420A23392311261BC903FE9E024FF9203
:104590002F903FEB9136125F69E4F5FF75E5081245
:1045A0006D41E59B30E7FBF122F1DC43D5047FC888
:1045B000F135D1ECF1617B017A3F79E8124FEB9054
:1045C000120EE0B40103124F38903FE8E0B401034B
:1045D000D38001C3229040A51224CCF16A9040BA46
:1045E0001224D8002DC6C0E4F5FFF5A490120EF0F9
:1045F000A3F09040B57402F075FF039040B5E0FF62
:10460000F595EF14601314601C240270279040A5E8
:104610009136F1D09040B180169040A99136F1D0FA
:104620009040B2800A9040AD9136F1D09040B3E016
:104630009040BEF01262DC9040BEE07005126D0F3B
:10464000805790120EE004F09040B5126D4E9040ED
:10465000BA91369040B6F117FBC312237A500990F5
:1046600040B69136A31224CC9040BEE0FF12615DAB
:104670009040B4E0FFA3E0FDA232923012628AA320
:1046800091369045C81224CC9040B5E0FF1262E903
:104690009040B5E09129124F8B126DCC6002A1F8C9
:1046A0007402F075FF039040B5126E14701AFF7E0D
:1046B00004FDFC9040BAF117FBF1B6780112238B90
:1046C0009040B59116124F8B126DCC70D6F1E9F176
:1046D000F0400343F420A23292311261BC9040BA00
:1046E000F199780112238BC22F125F699012137413
:1046F00001F07E127F01E4FD8F828E83EF2DF58223
:10470000E43EF583E0FC901213E02CF00DEDB412C2
:10471000E722FF7E04FDFCE0F8A3E0F9A3E0FAA3A2
:10472000E022E4F5FF758EC8124DBB75FF0153D52D
:10473000FBF1E27F147E00F14075FF03439180227C
:1047400075FF03D3EF9402EE9400400874FE2FFF30
:1047500074FF3EFEEFF592EE540FF59122F140F119
:104760003975FF03E59120E7FB2275FF0243E180E5
:10477000124E3175FF01438E1075FF0153DB7F75BB
:10478000FF0175D502F133F1DC438E1075FF014353
:10479000DB8075FF01E4F5D522E0FCA3E0FDA3E09A
:1047A000FEA3E02420FFEE344EFEE43DFDE43CFC9D
:1047B000E4FB7A04F9F812222CE47B7DFAF9F81272
:1047C00022B7EF2401FFE43EFEE43DFDE43CFC2281
:1047D0009040B60224CC903FEF0224CCF16175FFEB
:1047E000012275FF03E4F5912275FF037595802280
:1047F00090120EE0D39401229003C2E064AA241127
:10480000FFF022AE071247F8EE04FEEF8EF084AF01
:10481000F022EF600D1233EBAF82AE83E4FD112E78
:104820008009121A61D103E433FF227F012290082C
:10483000F0F1E2E5147075123FA85004C23511ADD5
:104840009008F0E0FEA3E08E11F512A3122564900B
:1048500007E0122584AE11AF127DAAF169E4F5FFDD
:1048600075D901F510E5155421602AE51530E504E8
:10487000E4FF9125E49008F5F09008F5E004F0D10C
:1048800081EF60099008F5E0C3941040EC7F0212BC
:104890001E305315DE9007DCE07F00B403027F0179
:1048A000B1ACD23511ADD2EBA21892ED2290476F88
:1048B000E5F4F0E0547FF5F47F827E0071EE51B4B0
:1048C0005005E5FC20E6F730350890476FE044805E
:1048D000F5F471EA51B45005E5FC20E6F775FF01E7
:1048E000E5D520E702C322E5F4D330E601C32290E8
:1048F0000954EFF0C23651BFD221900954E09046DE
:1049000094F0D222A3E4F0A3740DF05104E49009D2
:1049100055F0123FB0506F900955E07069E5F754BB
:10492000C060EF319E31B16455704731B190121CB7
:10493000E06F6007900955E0F4703231B164556062
:1049400018E0FF644A6012EF640A600D90121CE0E8
:10495000FF900955E0FE6F7005900955800A900799
:10496000DDE06E90095570197402F080A59009552C
:10497000800F900955E0B454057433F08094900989
:10498000557401F0808C900955E0B40206C23511CF
:10499000AD800012576E5104900955E0FF22E5F7F3
:1049A00020E008E5F754C070F5FF2243F701AFF9A6
:1049B00022319E900955EFF022125DAF7F02121E48
:1049C000307F0111EF900963EFF0BF020280139076
:1049D0000963E0B43311E4F07F0111EFBF020D90E1
:1049E00009637401F08005E4900963F0900963E0C5
:1049F000700B123FB05004C23511ADD12A9009633B
:104A0000E024FF2275FF01E5D520E702C322C2366C
:104A100051BF20210241A553F4DF904694E0FF915D
:104A200025F13830220543F440800353F4BFE4F508
:104A3000FF53F5F0904695E0FAA3E0FBEA42F5EB70
:104A4000F5F6D23651BF7FC8124735E4F5FFE5933E
:104A500020E60451B440F4302258E5F430E3047DFC
:104A6000288010E5F430E2047D288007E5F430E189
:104A7000027D281247E27F2812473551B440FC7F5F
:104A80007812473551B4502AB17850F8B1FEEFC3CF
:104A90009D50F1B17850EDE5F720E5E8C23651BF01
:104AA0001247E280DF53F4BF1247F0400543F42081
:104AB000F131D32275FF03E591C330E701D322AF73
:104AC000F4EF547FF5F4303605EF4480F5F475FFCC
:104AD00001E5D520E702C322E5F4D330E601C32285
:104AE0009044B112569EEBF09044B77401F0C2347A
:104AF00071EA51B45005E5FC20E6F7916EBF01085C
:104B0000E4F5FC75FC408007916EBF0202D322F1F0
:104B1000319044B2E0FF12638A75FF0153D5DF5331
:104B2000FAFB9044B1E0FF91259044B2E09044B18B
:104B3000B40811E0F151F583F1D2FEA3E024521242
:104B400047C58004E0124429F18B9044B3E0FFF1A3
:104B5000CC75FF0175FF03759B0471EA75FC42E596
:104B6000FC20E10451B440F49044B4E0F075FF033C
:104B7000E59B20E70451B440F4E59B20E70C75FF6A
:104B800003759B1FD131D234804C9141D14E90445A
:104B9000B2E0FD90120FE05D701D9044B1E0FF9116
:104BA000411258E890120FE0FF9044B2E0FEEF4E41
:104BB00090120FF01246ECB1BB7B017A4479B5B18B
:104BC0008A500FC39044B6E094209044B5E094031B
:104BD00040E79141F1EB12476130340241E89044E3
:104BE000B7E0B40103D38001C3227FE87E0371F3F1
:104BF000024739904616EEF0A3EFF07B017A467932
:104C000018B18A5014904618E0FEA3E0FF904617B2
:104C1000E09F904616E09E400B904616E0FEA3E013
:104C2000FF1247402275FF01E5D530E602C322E4BA
:104C3000F5FF439A80EF126D4FE4F5FF539A7FD34F
:104C4000227B017A4479B722C23511ADF15DE5D1FD
:104C500020E0FBE4F5FF75D9019007DCE07F00B4AC
:104C600003027F01B1ACD23511ADE4F510227FFA19
:104C7000124735E5FC30E60451B440F7E5FC30E678
:104C8000037F032275FF01E5D530E6037F0222E5AD
:104C9000D57F0030E7027F0122904626EFF0A3B1D6
:104CA0001AF075FF01916EEF64016002C322E5F412
:104CB00030E602C3227FE87E03124740124739B133
:104CC00022400122C23511AD904626E0FF912553C6
:104CD000F4DFD23511AD7F787E00B13875FF015316
:104CE000E4BFE5E430E7FBF1477F8AB1D630E60860
:104CF000904627B1A3E4800A75FF01904627B1A32F
:104D0000E5D912201875FF0143E4401247F0400333
:104D100043F420B122400122D322EBF0A3EAF0A316
:104D2000E922E5F730E50FE5F754C0700451B440CF
:104D3000F11247E2C322D322CDEFCDCCEECCB17F2E
:104D4000FFAB94EF4BF13FCBEFCBFAE59130E71996
:104D5000B182FFA994E9F582EF4582FFEBF1DAC356
:104D6000EF9582E5F0958340E2E59120E709CEECEE
:104D7000CECFEDCF12475D2275FF01E5E4332275FA
:104D8000FF03AF93EF75F010A422B17FFFAD94EF56
:104D90004DF13F8FF01221C5E591C330E701D322D9
:104DA0009042C3E0FBA3E0FAA3E0F922912543FA85
:104DB00004E4F5FF53D1FD43D10122E4F5FF75C2B0
:104DC000E17F1EB1D630E707E4F5FF75C2A122E40A
:104DD000F5FF75C28122FEB13890120FE022E4FF88
:104DE000E5F754C06002801675FF01E5D530E30D8C
:104DF000B17850F4B1FEEF60EFB17850EB22F1479B
:104E0000AFD922E5147021123FA85004C23511AD6C
:104E1000D12AF15DE5D120E0FB4315205315FEE4D6
:104E2000F510A21892EDD322C322D1317F08021EC1
:104E300030E5FA30E1FB75FC8075FF0153D5EFE4F6
:104E4000F5FC75FC401247E2E5FC20E6FB229046AB
:104E500091B11AF07F017C127D01E4FE8D828C837A
:104E6000ED2EF582E43CF583E02FFF0EEEB412EC5C
:104E7000901213E06F6009904691B1A3E4122018DC
:104E800022E490461EF0A304F0E4904621F0E5FAF7
:104E900030E1FB75FF01E5D530E7037F0022E4F543
:104EA000FF75E508F131E5D530E61A75FF0190464A
:104EB00020E5DAF0E4F5DA75FF01E5D630E3FB90A2
:104EC00046217401F0126D41E59B30E7FBE4FB7570
:104ED000FF038B95124428F18B0BEBB403F11247BF
:104EE000E91247221247DC43D504904621E0700BBB
:104EF0001247E27FC81247351247617B017A467933
:104F00001FF1EB90461FE090461E7006E04404FF40
:104F10008002E0FF90461EEFF090120EE0B4010216
:104F2000F13875FF01904620E0F5DA90461EE0FF6B
:104F30002275FF0153D8EF2275FF0143D8102224B8
:104F4000FBFFE5F034FF2275FF01E4F5EA75EAFFA7
:104F50002225E025E02401F582E4341222E4F5FF65
:104F6000E5D154FE4402F5D122E4F5FF75D102E506
:104F7000D120E0FBE4F5D1F5FFEF125689EE540F96
:104F800042D6E4F5FFCFEDCF8FD42290461A1224FB
:104F9000CC75FF0190461AA3E0FDA3A3E4FFFEE455
:104FA000FC781012238B8FE190461AA3A3E0FEA396
:104FB000E4FFE4FDFC780812238B8FE290461AA3ED
:104FC000A3A3E0FF8FE322E4F514C10375FF018F73
:104FD000DA22E0FCA3E0FDA3E0222DF582EA3CF515
:104FE0008322EEF0A3EFF0A3022584C22E75FF0307
:104FF000759B1F75FF0390120FE020E71BE59A5485
:105000000FC394024012E04480F0E4F5FF75C2A1A2
:1050100043FC0475FF03D22EE5FC30E609E59A5403
:105020000FC3940540CDE5FC30E611E4122018755D
:10503000FC80F5FC75FC40E5FC20E6FB302E0312FD
:1050400046EC2230170C90340DE07006FF1219B2B6
:10505000C217301923AF6D9007FDE0FEEFC39E40ED
:105060000AEF9ED394024010C219229007FDE0F48B
:105070002FD394014002C219229003CCE0FEA3E09A
:10508000FF4E6009CAEECAC9EFC91226F12275FFA8
:1050900002D2ADD2BD75FF02758E7175720975FFB2
:1050A00002E58E546F4480F58E9046121224D8008B
:1050B00000000022C0E0C0F0C083C082C0D075D024
:1050C00008C0FF75FF02E58E30E43E75FF02E58EF5
:1050D00054EF4410F58E90461212243F1247C290AE
:1050E00046121224CC900000E475F0011220E9E58C
:1050F0007230E0020559E572700D757209056DE5B3
:105100006D7002056C8002157275FF02E58530E452
:105110000875FF024385100575D0FFD0D0D082D02E
:1051200083D0F0D0E0329043E5ECF0A3EDF0AB0794
:10513000A312243F71581224CCEB31FF1224CC90DF
:1051400043EBE0FFEB315AEFF09043E5E0FEA3E0E4
:10515000FFEB510DEEF0A3EFF02275F00CA42457F5
:10516000F582E43436F58322E490476CF0D3900066
:1051700001E09400900000E09400500221FC904770
:105180006CE0FF04F0EF94055072900000719AE417
:10519000F57331FD7182605631FD74FF122499510F
:1051A000A5704BE573315AE0FF600AF46007E573C0
:1051B000315AE014F0E573315AE0600EE57371592D
:1051C00012243F31FD1224CC8008E5737124F5834D
:1051D000E4F0E573510DE0FEA3E04E600EE573517F
:1051E0000DE0FEA3E0AA06F91226F11237C10573FD
:1051F000E573C3940E409B121B15216D22E5737558
:10520000F00CA4244DF582E43436F5832275F00CBD
:10521000A42455F582E43436F5832290449CD19B36
:10522000EBF09044A174FFF09044A0E09044A2F011
:105230009044A2E0FFC3940E5065EF31FF12243F6B
:1052400051A570539044A0E07E0170027E0290440C
:10525000A2E0FF7124F583EEF0C00790449EE0FFCA
:105260007E0060097C007D0A12204C80027F0AE4E7
:10527000FCFD9043E71224CC90449FE09043EBF078
:1052800090449CE0FCA3E0FDD00731269044A2E0CE
:1052900004FF9044A1F0229044A2E004F080919099
:1052A00044A1E0FF22E4FBFAF9F8C302237A904319
:1052B00054EEF0A3EFF090435B74FFF0904356710F
:1052C00082605B90435C7403F090435CE0FFC394A6
:1052D0000E504BEF31FF12243F51A5703990435CC3
:1052E000E0FF7124F5837405F0C007904356122443
:1052F0003F9043E71224CC90435AE09043EBF09068
:105300004354E0FCA3E0FDD007312690435CE00469
:1053100090435BF0800890435CE004F080AB9043E6
:105320005BE0FF2275F00CA42458F582E4343622A9
:10533000AB07E4FF1BEBC3940E501C71581224D82A
:1053400000000000EB31FF1224D800000000EB71D8
:1053500024F583E4F07F0122EB75F00CA42451F5D1
:1053600082E43436F58322AB07E4FA1BEBC3940ED8
:10537000500D715871826007EB31FF1224CC0AAFD7
:10538000022212243FEC4D4E4F227BFF7D019044C0
:10539000A07403F0411B80CF809674FFF5F00220CB
:1053A000E9C0E0C0F0C083C082C0D075D008C0FFA3
:1053B00075FF01E5D530E6047F028009E5D57F0061
:1053C00030E7027F018F18E51864026002817EE5F4
:1053D0001412269153ED01540002546708540B092E
:1053E00054160A54240B54430C000055F275FF0167
:1053F00075C355151AE51A6002A1F2751402A1F2DF
:1054000075FF0175C3F0751409A1F275FF0175C32D
:105410005575140AA1F275FF019007F0E0F5C37508
:10542000140BA1F275FF019007DDE0F5C3751401BF
:10543000751A149007FF719A45F06002A1F2751475
:105440000CA1F2AB1CAA1DA91ED130AD16AF1FF1E5
:1054500054123E5475FF00D19243FA0475FF0012B6
:105460004DB4751408A1F2C2EB751400431504F194
:105470007C4002A1F2E475F0011220E9A1F2E518E6
:1054800064016002A1F2D13C4002A1F2E510702259
:10549000D106E0FF64556004EFB4540BD219AF6D30
:1054A0009007FDEFF0A16A75100275FF0075D9082D
:1054B000A1F2E5106402705CD124122564E5D912D2
:1054C00020181263BFF1969007DCEFF0D118E0903E
:1054D0000962F0E0FFD3940940259007DCE0D39403
:1054E00002400CEFD394AA7F0040027F01800D9010
:1054F0000962E0D394407F0040027F01EF6004D155
:105500000D8067900962E0F51675FF008516D97564
:105510001003A1F2E51064036002A1F2D124F13D71
:10552000E5D9122018D10D75FF009007DCE0C39477
:1055300003E5D350055402FF80035401FFEF602FB1
:1055400030E111C39007EAE094FF9007E9E094FF8F
:105550005018800FC39007ECE094FF9007EBE094A5
:10556000FF5007E475F0011220E9124C48A1F2C285
:10557000351248AD75FF00124F60E5D120E0FBC247
:10558000EB431502D106A3E0FF90121FE0FEEF6E81
:10559000D105E090121EB1FFA3A3E0901220B1FF4D
:1055A000A3A3A3E0FE901221E0FDEE6D4F6016C3B1
:1055B0009007EEE094FF9007EDE094FF5007E4754C
:1055C000F0011220E9C39007E8E094FF9007E7E0BC
:1055D00094FF5007E475F0011220E9751000900760
:1055E000DCE0B403071516D118E516F09003CBE5FF
:1055F00016F0D0FFD0D0D082D083D0F0D0E032FEF1
:10560000E0FDEE6D4FFF8512828511832230190770
:10561000C219F16E124A0422E5122407F582E4351C
:1056200011F5832275FF01F5EA75EAFF9007E02284
:10563000E4F5FFE9D189EA540F42D622E5F754C0D8
:1056400024FF22E49044A0F0411B9044A6ECF0A378
:10565000EDF09044A3122584123FC39044A6F14874
:10566000D1439044A3D1829044A3122564121F59C0
:10567000B4FF04E41220189044A3122564121F59A9
:10568000FF22122564EF022018F5D7E4F5FF53D668
:10569000F022E5D254804414F5D222EEF0A3EFF0CC
:1056A000A3EDF0A32290462AD19BEBF0F115F13344
:1056B000AF03C006C00790462AF161F8D007D006B4
:1056C000D31223647E0050047F0180027F00C00655
:1056D000C007F115122DD1D0E02FFFD0E03E90464B
:1056E0002AF0A3EFF053ECFC90462AF12A42EC7525
:1056F000FF02EDF5AF75ED0275ED04A3E060054323
:10570000EC08800353ECF790462DE0600443EC0472
:105710002253ECFB2290462AE0FEA3E0FBAA06E41B
:10572000F9F87F807E387D01FC22E0FCA3E0FDECEF
:10573000540322122DD1AC00AD01AE022212256419
:10574000E92401F9E43AFA22E0FEA3E0FFA3E0FD38
:10575000A3E0FB22E4F5FF8FD4F5FFCFEDCF8FD58B
:1057600022E0C313FEA3E013FBAA06E4F922C22140
:10577000E4904694F0C222A3F0A3F022C39007E481
:10578000E094FF9007E3E094FF22F17C5007E4757A
:10579000F0011220E922EF24FE600C24FE60058057
:1057A000007F01227F02227F0322C2ACE4F563F571
:1057B00062F561F55FF560F55E7B017D01D1A5D2F3
:1057C000AC22E4FEEFC3940E5014EF7124F583E095
:1057D0005D7C00B505027C01EC2EFE0F80E6AF0675
:1057E000227D02E4FF80DBE4FD7F0380D57D017F25
:1057F00003F1C2AB07F1E1EF2BFF22E49007FEF0CB
:105800009007EF04F022123FB050051258184003E1
:10581000301903D38001C322E5F754E024FF22AFFF
:1058200014EFC36001D322EFC3940E50059007DF3D
:10583000EFF022E517540FFF22E517C394F0501F35
:105840005317F01162FE740FC39F4005EE940E4093
:105850000543170D8003EF4217E517540FFF227F12
:105860000022E517C4540FFEEF902FE9932E22116A
:1058700062FFC3940E40027F0DEF902FCB93FF2267
:10588000EF30E303AF1322AD1B201A04EE30E00B20
:10589000E517C394F0502011BA8018E5196006FD91
:1058A000E4F5198012E517C394F0500BE517540F77
:1058B000FF6004116FAD07AF05229007DFE0FDFF29
:1058C000C3740E11E1EFC4F8540FC868FFEEC4545E
:1058D000F048FEE51754F0123E4A7F005002AF0533
:1058E000229FFFE49400FE22904622EDF0901211D8
:1058F000E0F46005A3E0B4FF0C9046247418F0A314
:105900007413F08010901211E0904624F09012125F
:10591000E0904625F0121F59640160024152904602
:1059200022E0FE64086004EEB40408904623742864
:10593000F08006904623743AF0EF12442912235661
:10594000E45153EF24D8FFEE343FFEED3493FDECE9
:105950003416FC7B007A8079037800122DD171080F
:10596000904625E0FF904624E0C311E1E4FCFD12DF
:10597000222CECC0E0EDC0E0EEC0E0EFC0E09046CD
:1059800025E0FFE4FCFDFE5153D0E0FBD0E0FAD06F
:10599000E0F9D0E0F8EB2FFBEA3EFAE93DF9E83C0C
:1059A000F8904623E0FFE4FCFDFE12222CEF245485
:1059B000FFEE340B1247C8E47BA87A16F9F8122DD3
:1059C000D1CBEFCB904622E014605F14601B24FE25
:1059D000600C24FC707CE4F5FF75CE318006E4F5A4
:1059E000FF75CE21F5FF8BCF22E4FAE4F5FFEA2420
:1059F00040F5CEE4F5FFEAFFC3740711E174A42F6C
:105A0000F58274303EF583E4515B13C39DF5CFE41A
:105A1000F5FFEA2448F5CEE4F5FFEA9030A4515BA7
:105A2000132DF5CF0AEAB408C222E4F5FF75CE01C2
:105A3000F5FF8BCFF5FF75CE0EF5FFEB25E0F5CF2B
:105A4000E4F5FF75CE0FF5FFCFEBCFEB75F003A4B8
:105A5000F5CF227B64FAF9F802222C9325E0FDE4CD
:105A600033FCEB75F010A4FFAEF012205ECDEFCD4D
:105A7000EBFFE4C313EF224315015315DF118051EF
:105A8000B84004E4F5142243FA045315FB302A0508
:105A9000124DB1800A7F5551A17F5551A1D2EBD350
:105AA0002275FF01E5D520E602C322E5FA54036022
:105AB000FA75FF018FC3D32290093DEFF09007DE06
:105AC000E0FF711590093EEFF09007DEE024FD60E5
:105AD0001304700890093C7404F0800E90093C7423
:105AE00008F0800690093C7402F07F01121E30908D
:105AF000093EE0FF90093CE0FDA3E0FBE49044B4E4
:105B0000F0124AE050E9D322C8ECC8C9EDC9CAEE88
:105B1000CACBEFCB22EF24FD600680007E0180021D
:105B2000E4FEAF06229003CFE0B4020D8F1B900875
:105B3000EDE0F513121A34D322C32290093912254D
:105B400084900939122564E51B717212573DE47186
:105B5000727179FAE47172122564E97183E5137147
:105B600072123DC8E47172123FDCF9E43AFAE402C1
:105B7000201812201890093922122564E92402F90C
:105B8000E43A222403F9E43AFA22E51754F0C45423
:105B90000F2FFFC3941040027F0FEF902FD993FF78
:105BA000227E10EE60091EEE902FD993B507F4EE19
:105BB000C3940E40027E0DEE902FCB93FF22C2AF16
:105BC000EF4215D2AF22C2AFEFF45215D2AF227F0F
:105BD0000271C69003CAE09003CEF09003CA04F0AD
:105BE000C322751401751A139007F0EFF09007DEC9
:105BF0007402F0ED9007FF30E507E4F0A3743AF08B
:105C000022E4F0A374E6F022C39007E6E094FF904C
:105C100007E5E094FF5007E475F0011220E92290B7
:105C200007FFE0A3E0FF2290090D122584900910E0
:105C3000EDF0E4A3F0ED54FE900910F06030E4FFC5
:105C4000124812BF012890090D1225641242D0504B
