:020000040000FA
:100000000202DF0218034100E0002202180B222244
:0100100022CD
:07001300021813E4FFE1D223
:07001B0002181B75C8012249
:030023000218239D
:03002B0002182B8D
:030033000218337D
:03003B0002183B6D
:030043000218435D
:03004B0002184B4D
:030053000218533D
:03005B0002185B2D
:030063000218631D
:03006B0002186B0D
:10007300021873BB010689828A83E0225002E722B9
:10008300BBFE02E32289828A83E49322BB010CE54F
:100093008229F582E5833AF583E0225006E9258239
:1000A300F8E622BBFE06E92582F8E222E58229F57D
:1000B30082E5833AF583E49322BB010689828A832E
:1000C300F0225002F722BBFE01F322F8BB010DE53B
:1000D3008229F582E5833AF583E8F0225006E92583
:1000E30082C8F622BBFE05E92582C8F222C5F0F8D4
:1000F300A3E028F0C5F0F8E582158270021583E0CD
:1001030038F022A3F8E0C5F025F0F0E582158270FF
:10011300021583E0C838F0E822EF2BFFEE3AFEED3C
:1001230039FDEC38FC2275F008758200EF2FFFEEE5
:1001330033FECD33CDCC33CCC58233C5829BED9A10
:10014300EC99E58298400CF582EE9BFEED9AFDEC6E
:1001530099FC0FD5F0D6E4CEFBE4CDFAE4CCF9A8B4
:100163008222B800C1B90059BA002DEC8BF084CFBC
:10017300CECDFCE5F0CBF97818EF2FFFEE33FEED93
:1001830033FDEC33FCEB33FB10D703994004EB99BD
:10019300FB0FD8E5E4F9FA227818EF2FFFEE33FED0
:1001A300ED33FDEC33FCC933C910D7059BE99A4005
:1001B30007EC9BFCE99AF90FD8E0E4C9FAE4CCFB1D
:1001C3002275F010EF2FFFEE33FEED33FDCC33CC71
:1001D300C833C810D7079BEC9AE899400AED9BFDFA
:1001E300EC9AFCE899F80FD5F0DAE4CDFBE4CCFA0D
:1001F300E4C8F922EF5BFFEE5AFEED59FDEC58FC23
:1002030022EB9FF5F0EA9E42F0E99D42F0E89C451F
:10021300F022E8600FECC313FCED13FDEE13FEEFC9
:1002230013FFD8F122E8600FEFC333FFEE33FEED87
:1002330033FDEC33FCD8F122E0FCA3E0FDA3E0FEA8
:10024300A3E0FF22E0F8A3E0F9A3E0FAA3E0FB2296
:10025300ECF0A3EDF0A3EEF0A3EFF022A8828583E8
:10026300F0D083D082120276120276120276120244
:1002730076E473E493A3C583C5F0C583C8C582C878
:10028300F0A3C583C5F0C583C8C582C822E0FBA31C
:10029300E0FAA3E0F922F8E0FBA3A3E0F925F0F0EC
:1002A300E582158270021583E0FA38F022EBF0A3A1
:1002B300EAF0A3E9F022D083D082F8E493701274B9
:1002C3000193700DA3A393F8740193F5828883E4DB
:1002D300737402936860EFA3A3A380DF75812F0279
:1002E3000855900A1951B0AE071FEE6012900A1C10
:1002F30071031176FE900A197103EE11BC80E82296
:10030300E475F0018090900A54EEF0A3EFF09000B2
:100313004FE064016002619BC3900A54E09408506B
:100323000BE4FF914F900A54918380ECE4F50DFBAD
:1003330071C4AF0C121010E50DC39408504771C27D
:10034300E50D7F0071BCEF29F9EA3EFA900A1C51D2
:10035300B07B017A0979007FFF51E5E50DFEE424C6
:10036300FFFFE43E71BC8F828E83118F9009FFF0F3
:100373007B017A097900900A3DE50DF0AD0C12106E
:1003830037050D80B2900050513BE42FFFEE340847
:10039300919490005002167F900054E0FEA3E0FF7A
:1003A30071BD900A54E0FDA3E0900A05CD120AA89E
:1003B300900054EEF0A3EFF022FE90200141907BD9
:1003C300007A00791091D175FF031176F5D375FF8B
:1003D3000390000171EF90000271EF90000371EF41
:1003E30075D40175FF03E5D55402FF22118FF5D3B0
:1003F30075FF0322900A33E0FEA3E0FF912D914F96
:10040300900A35513BEF24019191900A3551539055
:100413000A589149900A58E07002A3E0700BFF7EDE
:1004230008710991DFF01215FD2291B3CD24FFCDA0
:1004330034FFFCC3ED9FFFEC9E541FFE74082F9105
:10044300E8FF22900A1374FFF5F001F091B3541FF3
:10045300FC74082DF58274203CF583EFF0902006A0
:10046300E0B42019A3E0B40014902005E02401FFB8
:10047300902004E03400541FF0A3EFF022902006F4
:10048300E475F00101F09000CE513BEF241BFFE433
:100493003EFEE43DFDE43CFC2291C7EF2401919133
:1004A300120C867404F0D1E3918991CC91F1F0227E
:1004B300902006E0FCA3E0FD902005E02DFD9020B8
:1004C30004E03C229000CE413B900087415375FFEE
:1004D3000375D40222900A17E0FF8101900A587431
:1004E30008F0A3E422F58274203EF583E022900015
:0704F300817408F0A3E4226C
:10050800AEFFEE54CFFEEFC454F024804EF5FF2228
:10051800D119EF541FFFF1E0A37401F01215C09038
:100528000A10E0FCA3E0FDAE047805CEC313CE1399
:10053800D8F9FF900A13EEF0A3EFF0ED541FA3F0E3
:10054800A3E4F0900A33F0A3F0C3900A11E09420DA
:10055800900A10E09400407C9146900A15E0FEA3B2
:10056800E0FF900A33EE8FF011F0900A13E0700468
:10057800A3E06406700AD119900A13E48FF011F011
:10058800D119900A33E48FF011F0120DB2EF600424
:10059800F1DE8005E4900A12F0900A33120FD2704F
:1005A8001D912D900A17EFF0910191D891D8900ADA
:1005B80013E07002A3E0604791D8914680F071F78C
:1005C80071F771F7900A13E07002A3E0603171F7D8
:1005D800914680F0900A109183800A900A10E0708A
:1005E80002A3E0600BD1199101900A10914980EBA8
:1005F800120DB2EF6004F1DE8005E4900A12F0906B
:100608000A12E06002A12712166E7109900A35419C
:100618003B900081E0B4082DA3E0B40028120DA59A
:100628007B017A0179009000FD7408F0A3E4F0D111
:10063800E3120DA5E42FFFEE3408919491CCE490D9
:100648000081F0A3F0900083120E8990008351532B
:10065800900081E475F0013106FE740025F0F58202
:1006680074013EF583E0FF229000ED51539000F1B4
:1006780051B0110FF134EF6004111080F7120F7CA4
:1006880060099000ED513B7810D1D89000EDD1D49D
:100698009000ED513BE480279000F4120FD945F00B
:1006A80060219000F15190EA494B60119000F1519E
:1006B800901176FFD1DB9000F2918380DBE4FFD1CB
:1006C800DB80D5F1CD9000D77401F022513B78083A
:1006D8005115E4E5C820E2FB8FEB229000F6515358
:1006E8009000FA51B0110FF134EF6004111080F747
:0806F800F1EE120F956009906C
:1007000000F6513B7810D1D89000F6D1D49000F685
:10071000F1E99000FD120FD945F06011F1889000C9
:10072000FA5190EF11BC9000FB918380E5120EF915
:10073000E4FFE1D27F01F1D23002161212D2F18829
:10074000900A5DEFF0120EF9900A5DE020E002C21F
:1007500002300219F1779000D4EF1212DA600BA385
:10076000E0F46006EF30E702C202120EF9E4FFF196
:10077000D2A202E433FF22F1F77FD7D1DB7FFFD192
:10078000DBF18C9000D3EFF07FFFD1DBE5C820E2F6
:10079000FBAFEB22900A3E5153110FF134EF60048E
:1007A000111080F7F1EE120F956009900A3E513B4F
:1007B0007810D1D8900A3ED1D4900A3EF1E9F18860
:1007C000900A42F1CB900A42E0FF22EFF0120EF9BC
:1007D000E4FFEFB4010443FE202253FEDF22D119CF
:1007E000900A10E4F0A3EFF022513BE4C1DB7F015B
:1007F000F1D2F1F77F03229000D8E051B908190433
:10080000082114082615082B17083B300840340827
:100810004536084A3700000833531AEF851A80809E
:100820002F531BEF8008531BDF8003531B7F851B57
:1008300090801D531CDF851CA08015531DFE800D6C
:10084000531DEF8008531DBF8003531D7F851DB0CE
:100850007F0CDFFE2275FF03759E029017FAE4936A
:10086000900A51F075FF02E5E654036002419F755E
:1008700010DE7511AD7512BE7513EFC2AF75FF02B4
:1008800075E404F5E4751AFF751BFF751CFF751DF3
:10089000FF7516FF7517FF7518FF7519FF75FF02B5
:1008A00053E6BF91B6121102B108EF640160024134
:1008B0009690180893FE740193FF90007FEEF0A3CA
:1008C000EFF0F5828E83E493FE740193FFC3EE9400
:1008D00080500280047E807F008E148F159193FFDC
:1008E000F5828E83740293F51E740393F51F7404CE
:1008F00093F508740593F509740693F50A74079344
:10090000F50BC201EF4E700221F4EFF4FFEEF44F4D
:10091000700221F4E514451EFEE515451FFFE508AC
:100920004EFEE5094FFFE50A4EFEE50B4F4E700205
:1009300021F4E51FF4FFE51EF4FEE515F4FDE514D2
:10094000F44EFEED4FFFE509F4FDE508F44EFEEF31
:100950004DFFE50BF4FDE50AF44EFEEF4D4E70023F
:1009600021F47F03120508E50B24FFFFE50A712B34
:10097000640370247F02120508E50924FFFFE508DF
:10098000712BB402137F01120508E51F24FFFFE558
:100990001E712BB40102D2012001597F01120508FA
:1009A000713F900A05E51EF0E51FB1AB71207F0293
:1009B0007134900A05E508F0E509711E7F03713472
:1009C000900A05E50AF0E50B711E7F0112050890FB
:1009D0000A52E0FEA3E0FF7BFF7A187900E42515B8
:1009E000900A06F0E51434E8900A05711F4EC370B2
:1009F00001D39201300109D159EF6401600241969F
:100A0000D2001204C77B017A007964918C741BF0C8
:100A10001206E3900064E0B4800B71D3EF7006120D
:100A2000161BEF6002C20030006830011A9193F586
:100A3000828E83740C93FE740D93FF90007DE06EA4
:100A40007003A3E06F604B90005012025F0000182B
:100A5000001204C71204CCB1A5EF24011204919135
:100A6000867404F01206E390008712048C900087CD
:100A700012167F1204F1F090004F04F01205187462
:100A800040D3950C400C1203C2AF0C121010050C91
:100A900080EDE4FFB1D4E4F510F511F512F5130281
:100AA0001800E0FD900A05E4F0A3EDF0900A00EED6
:100AB000F0A3EFF0A31202B0900A05F1D945F0605F
:100AC00054900A02120290120076900A07F0900ADF
:100AD000031204837D80ED60DF7115EE7C0030E74A
:100AE000027C01900A07E05D7B0060027B01EB6CF9
:100AF000FCEF25E0FFEE33900A00F0A3EFF0AF0427
:100B0000EF600C900A00E06410F0A3E06421F0EDC7
:100B1000C313FD80C1900A00E0FEA3E0FF22A3F012
:100B200051AC900A52EEF0A3EFF022347F8F82F5A1
:100B300083E49322120508900A52E0FEA3E0FF7BB3
:100B4000FF7A80790022900000EEF0A3EFF0A3126C
:100B5000023B900008120253900006E0FFA3E090D1
:100B6000000CCF805F90000CF1D2605EC3EF944028
:100B7000EE94004006A37440F0800590000EEFF064
:100B8000919BE0FF918CEFF090000812023B12065F
:100B9000E390000EE0FFC390000DE09FF090000C8A
:100BA000E09400F090000812024790000EE4FCFD73
:100BB000FE12011C90000812025371CA919B51A2AF
:100BC000900000EEF0A3EFF0809B900000E0FEA309
:100BD000E0FF221204C79180900006E4F07405B192
:100BE000AB9175C006C0071204C7EF240712049129
:100BF0009180900006E4F0A37414F0D007D0069121
:100C000075C006C007120489918091A540067EFF39
:100C10007FFF800690006512023B900006EEF0A375
:100C2000EFF0D007D006917591A540301204C7EFC0
:100C3000241AFFE43EFEED3401FDE43CFC9180907B
:100C4000006512023BEF2401FFE43E900006F0A392
:100C5000EFF0900A56E0FEA3E0FF9175900069E086
:100C6000FEA3E0FF900A56E06E7003A3E06F7F00E2
:100C700060027FFF227146900A56EEF0A3EFF02249
:100C80009000020202537B017A0079839000FDE418
:100C9000F0A32290007FE0FEA3E0227B017A00799E
:100CA0000F90000E22E47FFF7EFFFDFC9000651296
:100CB0000247D3020204E4900A5EF0900A5EE0FF6D
:100CC000D3946F501EEF2410FFB1E6900A5EE0FE51
:100CD000E42EF582E4344FF583EFF0900A5EE004F1
:100CE000F080D87B017A4F7900900A05E4F0A37474
:100CF00070F07F0F7E1D51ACEF4E7F0070027F01C0
:100D0000901218EFF024FF22E49000D2F07B017AD9
:100D10000079BD1213429000BFE0FF7411D39F50C1
:100D20005DE4FFFEFDFC7B017A0A794F9000FDF047
:100D3000A37402F01206E3900A4FE0FEA3E0FFE482
:100D4000FCFDB19F1204C7EF2402120491B19F125F
:100D500015619000CE1202471201F7900A4DEEF095
:100D6000A3EFF09000CE120247900A4D12154FFEED
:100D7000E4FCFD12011CB19F9000D27401F09000C0
:100D8000D2E0FB6017E4FFFE7D02FC9000BFE02490
:100D9000EFF9F81202289000B7120253AF03229025
:100DA00000CE02025390008702023BA3F07F0F7E29
:100DB0001D22E4FFFEFDFC90008391AF7F00400206
:100DC0007F01227F0F7E1D51A4900A0C1202909089
:100DD0000A0F41A2AB07E4FF9000D2E06007D18682
:100DE000D19DE433FF2275FF03E4F597F1E7E59722
:100DF00020E1FB75FF03AF9922900A48EFF0A3EDC5
:100E0000F0A31202B0900A49E06046901218E06028
:100E100012900A48E02410FFB1E6900A4A120290AC
:100E2000EF8017900A48E06401900A4A70071202A6
:100E3000907480800512029074FF1200BC900A4BDF
:100E4000120483900A49E014F0900A48E004F0800C
:100E5000B4227D01B1F97B0122E49000FFF0900003
:100E6000D2E0601C9000B712023BE4FBFA7902F872
:100E7000D3120204500AD1861207949000FFEFF0BB
:100E80009000FFE0FF229000CE12023BEF24FFFF14
:100E9000EE34FFFEED34FFFDEC34FFFC22900A47F8
:100EA000EBF0900A43120253900A4312023B1207DE
:100EB00094900A47E06F603C12000F120734EF6015
:100EC0000512001080F5F17C600B900A4312023B82
:100ED00078101206D8900A431206D4900A431207DB
:100EE000E9900A47E0FF1206DB1207CD9000D774A5
:100EF00001F0D322C3221206DBF1CCEF70FB90008D
:100F0000DAE0F4600A900A5A7406F0F17470FC900A
:100F100000D8E01202B90F32040F3A140F3F150F38
:100F200044170F54300F59340F5E360F63370000EB
:100F30000F4C431A10851A80802F431B10800843E2
:100F40001B208003431B80851B90801D431C208534
:100F50001CA08015431D01800D431D108008431DFA
:100F6000408003431D80851DB0900A5A740CF0F137
:100F70007470FC22900A5AE014F0E0227F011207FC
:100F8000D2D2021207F77F061206DBD1F91207F759
:100F90009000D6E0FF1206DB9000D9E06402221236
:100FA000000F120734EF600512001080F57F011268
:100FB00007D2D2021207F77F06D1F61207F77F0198
:100FC0001206DB7F03D1F6E4FF0207D2E5C8540422
:100FD000FF22E0FEA3E0FF4E2274FFF5F0020106BF
:100FE000AB05E4FCFDC19D75FF038F9875FF0322DF
:100FF00075FF03759701F1E7E59720E1FB75FF03A6
:10100000AF99221204D175FF03E5D5F45402FF22F3
:1010100075FF03EF543F4480F5D1E5D520E20AE5A2
:10102000D520E005E5D530E1F1E5D55403FF75FFA6
:101030000375D5050204D175FF03ACD5EC20E13C66
:1010400075FF03ED543FF5D175FF03E9F5D375FF47
:1010500003EA540FFF900A3DE0C4547044804FF5FA
:10106000D2E5D520E205E5D530E0F6E5D55401FC22
:1010700075FF0343D40275FF0375D505AF04227FC6
:10108000011207D2900A5B7401F0900A5BE06032B3
:1010900051D2120788900A5BEFF0120EF91207770F
:1010A0009000D4EFF0120EF9900A5BE0540151DA8F
:1010B00060D8A3E0F460D3EF30E7CFE4900A5BF0B0
:1010C00080C81207F77F9F1206DB1207889000D5B1
:1010D0001207869000DA1207869000DB1207CB9089
:1010E00000D3E0F4601BA3E0F460169000DAE0FDAA
:1010F000541F240FA3F0EDC413540744809000DA6A
:10110000F0227B017A0079D87F03120E527A00799F
:10111000E17F08120E527A0079DE7D027F09120DFE
:10112000F97B017A0079DC7D027F0B120DF99000CA
:10113000DC120FD26006BEFF1BBFFF189000E1E07B
:1011400024FD600304700451C880099000DCE4F0C1
:10115000A37440F09000E1E024FD60030470089067
:1011600000D97403F080069000D97402F09000D882
:10117000E01202B9119004119B1411A31511AB17C1
:1011800011C13011C93411D13611D937000011B64F
:1011900075FF015316EF8516FD804775FF01531744
:1011A000EF800E75FF015317DF800675FF0153179F
:1011B0007F8517C9802C75FF015318DF8518CA80F9
:1011C0002175FF015319FE801675FF015319EF8039
:1011D0000E75FF015319BF800675FF0153197F85F6
:1011E00019CB120EF97F1151BAE4FF7109117F90EA
:1011F00000D67402F09000DAE0247F6009047015D4
:1012000051C0740A800651E251C07458F09000D960
:101210007403F051C89000DBE0F4600241B7900025
:10122000DEE0FEA3E0FF64104E70069000DB740E5B
:10123000F0EF64204E70069000DB740FF0EF644016
:101240004E70069000DB7410F0EF64804E700690D4
:1012500000DB7411F0E4B5070AEEB401069000DB80
:101260007412F0E4B5070AEEB402069000DB7413C2
:10127000F0E4B5070AEEB404069000DB7414F0E461
:10128000B5070AEEB408069000DB7415F0E4B50764
:101290000AEEB410069000DB7416F0E4B5070AEE0F
:1012A000B420069000DB7417F0E4B5070AEEB440F2
:1012B000069000DB7418F0020F9FEF4420F5FE2229
:1012C0007F1051BA9000D6229000DC7401F0A3E4A4
:1012D000F0221207F77F050206DBF09000D3E0FF53
:1012E000F4229000D3E020E01F7F011207D2120702
:1012F000F77F3D1206DB7F2A1206DB7F801206DBBA
:101300007FA61206DB1207CD22900A5CEFF0900058
:10131000E1E06402702B7F011207D21207F7900AF6
:101320005CE07FAB60027FB91206DB120EF9900A17
:101330005CE09000E0F070047F1EDFFEE4FF120727
:10134000D2229000D5E01200BC9000DAE0900001BB
:101350001200CE9000DBE09000020200CEE4FCFD23
:10136000020794900A2F717FC007900A2F120290F3
:10137000900A32E0FF120C8CEFF0D0070206E31265
:1013800002B0E4FCFD22900A28717FC007900A2871
:10139000120290900A2BB122D00790008F120253B4
:1013A0009000931202B0E49000B6F0D3900097E062
:1013B000941E900096E094004001227B017A00790F
:1013C00098900096E0FFA3E09000FDCFF0A3EFF02F
:1013D00090008F12023B1206E3900093120290E9F4
:1013E0004A600F9000B6E0F58275830012008FFF0F
:1013F00080027F009000B6E02498F582E43400F586
:1014000083E06F6002C3229000B6E004FFF0D39047
:101410000097E09F900096E0940050BD229000E27B
:101420001202539000E61202B0B1139000E9B1220B
:101430009000E212023B719A500281CCB16190009F
:10144000E21202471201F79000EBEEF0A3EFF04E2C
:1014500060319000EBB14FFE9000EBF0A3EFF09005
:1014600000E9E0FCA3E0FDD39FEC9E5006A3ECF066
:10147000A3EDF091CEE94A6004B11980427E007F6D
:1014800000803C9000E9120FD2603F9000DCE0FC4D
:10149000A3E0FDD3EF9DEE9C400A9000EBECF0A39F
:1014A000EDF0800D9000E9E0FFA3E0A3CFF0A3EF03
:1014B000F091CEE94A6004B11980047E007F00906B
:1014C00000E7EE8FF01200F080B9D322C322900023
:1014D000E61202909000EBE0FFA3E09000F4CFF062
:1014E000A3EFF09000E212023B1206709000EBE0D6
:1014F000FEA3E0FFC39000EAE09FF09000E9E09EC9
:10150000F09000E2120247E4FCFD12011C9000E2A0
:101510001202539000E60202909000EBE0FEA3E07E
:10152000FF22E0FFA3E0900096CFF0A3EFF022901F
:101530000A21717FC007900A21120290900A24E0CC
:10154000FFA3E09000E9CFF0A3EFF0D007811DE00A
:10155000FEA3E0FFC39000DDE09FFF9000DCE09E73
:10156000229000DDE024FFFF9000DCE034FFFEE489
:10157000FCFD2212000F120734EF600512001080EC
:10158000F5229000D7E0FF22E49000D7F0229012DD
:1015900018E024FF22901218E060057F10020DE68B
:1015A0007FFF22E4902004F0A3F0A3F0A3F07B01DE
:1015B0007A2079089020011202B0E4902000F022F5
:1015C0001204DFF0900A3512025F0000000080D3A1
:1015D000902004E0FEA3E0FF24081204E8FDEF24BD
:1015E00001FFE43E541F902004F0A3EFF0A3120487
:1015F00049AF0522902006E0FEA3E0FF22902000E4
:10160000E0045403F07F0033333354F8FEEF240832
:10161000F974203EFA7B01A30202B0900054741DBD
:10162000F0A3740FF012049CE490004FF012051820
:1016300090006BE0FEA3E0FF900054E06E7003A307
:10164000E06F7F0060027FFF22EFB40109D2AD7529
:10165000FF0143AE4022C2AD75FF0153AEBF22E58C
:10166000C85402FF75C80222E5C85401FF22900A3F
:1016700058E0FEA3E0FFC3E49FFF74089EFE221221
:101680000253E4FB7A08F9F890005012023B120171
:04169000658F0C2234
:1017FA00043DFFFCFFFF022E11679A67B3FF7FB813
:10180A00556E6B6E6F776E206576656E743A200042
:10181A000A002C0020001CAF1CB41CB96846690BD6
:10182A00FF026044EF90183793901900730A20362C
:10183A004CE574FF22EFF57422822D1C1613111049
:10184A00100263F45A2D5761766520342E36310022
:10185A00FF024002C2D5E830E70FB2D5E4C39BFBD2
:10186A00E49AFAE499F9E498F8EC30E717B2D51259
:10187A0018941222F3E4C39BFBE49AFAE499F9E47C
:10188A0098F880031222F330D50DE4C39FFFE49E3B
:10189A00FEE49DFDE49CFC2278B0E4F6D8FD9000BD
:1018AA00007F007E10E4F0A3DFFCDEFA904781A3FC
:1018BA00E583C394204011FEAF829020000E0FE40E
:1018CA008002F0A3DFFCDEFA121920022E23223254
:1018DA0000000000000000000000000000000000FE
:1018EA000000000000000000000000000000008767
:1018FA001AA21AA71AD9C0747419C0E0C082C08388
:10190A0075740AE5FF54CF4490F5FF22C074741928
:10191A00C0E0C082C083757420E5FF54CF4490F5BF
:10192A00FF22C0747419C0E0C082C083757436E5A2
:10193A00FF54CF44A0F5FF22C0747419C0E0C082DE
:10194A00C08375744CE5FF54CF44B0F5FF229081F3
:10195A00AA21169081BE21169098152116909FFAF9
:10196A00211690A0342116909EBA211690C0722199
:10197A001690D8102116909364211690DCDC21165B
:10198A0090DFF4211690844F211690E08221169060
:10199A00A9B4211690E56C211690E88A211690B117
:1019AA0054211690AB25211690E8C2211690E8DE44
:1019BA00211690E8E4211690E917211690836E21EA
:1019CA001690A3A6211690BF90211690EBC9211656
:1019DA0090EB0E211690EE22211690DC6D211690C6
:1019EA00EE8F211690DFA5211690ECAF211690EC10
:1019FA00C8211690D877211690BF68211690BEB8D4
:101A0A00211690DD5A211690E24E211690EE9F2162
:101A1A001690EBDE211690A176211690EA7D21160A
:101A2A0090EF1C211690E975211690EE5C21169014
:101A3A00EF34211690EF6B211690EF9C211690EF50
:101A4A00B1211690EFCF211690F013211690F0F2E3
:101A5A00211690F05A211690F16C211690CEE221AF
:101A6A001690E9C921169083E321169081F8211670
:101A7A0090F1C9211690F1F2211690F224211690C4
:101A8A009FF8211690DFC6211690DCB2211690DF4E
:101A9A00E8211690DDEB211690F25E211690F28A6B
:101AAA00211690F2B2211690D1B5211690F2DA21C0
:101ABA001690DC66211690F469211690EBB7211670
:101ACA0090EFB0211690F38C211690E4F62116902F
:101ADA00F4DF211690F41B211690F386211690F557
:101AEA0008211690E4F0211690E0E8211690D5F727
:101AFA00211690EB37211690D1C3211690D4A72135
:101B0A001690E2CB211690E2FE211690CEA0211665
:101B1A0090DDFA211690E46D211690DE4821169088
:101B2A00E38C211690E401211690E0E2211690DF61
:101B3A00AC211690EA08211690E9F5211690E629BB
:101B4A00211690D115211690C51E211690E6E52181
:101B5A001690CC96211690CAB0211690F61C211622
:101B6A0090E330211690F657211690CC2D2116902D
:101B7A00F6A5211690E104211690809721169080EF
:101B8A00FB2116908000211690815F211690836FA9
:101B9A00214290C7E6214290C08A214290C0B121D9
:101BAA004290ADE921429098DC214290B2612142F3
:101BBA00908F9D214290C7E9214290C7EC21429023
:101BCA0080AA214290C7EF214290C85B214290C867
:101BDA00AF214290C8EF214290C92C214290902B0C
:101BEA00214290CB1B214290C9E7214290D0EA21A1
:061BFA00429085A3214288
:101C000090D97E21429083A2214290C20A21429023
:101C1000C1DE214290D9D9214290DA10214290C0F0
:101C200089214290DA85214290E09E214290C24073
:101C3000214290CB3B214290E262214290E58B21F0
:101C400042908FBD214290E5C6214290E64F21424D
:101C500090B253214290800021429080972142907F
:101C6000E656214290E667214290E68D214290E1BE
:101C70003C214290B26C214290AB23214290E70B71
:101C8000214290E710214290E721214290E74A212A
:101C90004290E770214290E3F5214290A43821421E
:101CA00090B0C82142909BF621429093CF21429060
:101CB000E88F214290E3AA214290A999214290E81D
:101CC000D6214290A34D214290A937214290D93785
:101CD0002142909653214290C334214290C5CE2197
:101CE0004290C5C6214290C7DE214290E94D214273
:101CF00090C324214290C32C214290E97921429043
:101D0000E995214290C4EC2142909BD6214290D982
:101D100077214290D95D214290C500214290D9633C
:101D2000214290C506214290AD88214290EA62216D
:101D30004290BEE6214290BCA4214290EAFB21429F
:101D400090EB83214290EB28214290E613214290B0
:101D5000EC702142908F3F214290EF09214290EF99
:101D6000F6214290C887214290AAE1214290F06377
:101D7000214290DE1C214290F06C214290F095218E
:101D80004290F105214290F151214290D99821428F
:101D900090AD95214290B7D3214290E3D02142905B
:101DA000A2CF214290D18D214290DB4B214290AFB6
:101DB0001C214290F317214290D749214290D34CE5
:101DC000214290D5CA214290F326214290D7D521B5
:101DD0004290D1BF214290AC1C214290AC9821424C
:101DE00090847B21429081FF214290B34121429017
:101DF000B34E21429081D1214290ADA5214290B1B4
:101E00001F2142908205214290A03B212C909D678A
:101E1000212C909DBD212C90A045212C90A1C22168
:101E20002C90A1CC212C90A1E7212C909E18212C44
:101E300090A1F1212C90A21C212C90A226212C9063
:101E4000A26D212C90A2AC212C90A2DC212C90819F
:101E500024212C90A536212C90A537212C9094FD7F
:101E6000212C909EBA212C909D0E212C90A64821C9
:101E70002C9094F7212C909A8F212C90A60B212C3A
:101E800090A6FC212C90A579212C909988212C904A
:101E900099FF212C909F1D212C909F41212C00E720
:101EA00009F608DFFA8046E709F208DFFA803E8883
:101EB000828C83E709F0A3DFFA8032E309F608DFBA
:101EC000FA8078E309F208DFFA807088828C83E375
:101ED00009F0A3DFFA806489828A83E0A3F608DF31
:101EE000FA805889828A83E0A3F208DFFA804C8066
:101EF000D280FA80C680D4806980F28033801080DE
:101F0000A680EA809A80A880DA80E280CA8033893D
:101F1000828A83ECFAE493A3C8C582C8CCC583CC7B
:101F2000F0A3C8C582C8CCC583CCDFE9DEE7800D4D
:101F300089828A83E493A3F608DFF9ECFAA9F0ED2D
:101F4000FB2289828A83ECFAE0A3C8C582C8CCC58B
:101F500083CCF0A3C8C582C8CCC583CCDFEADEE859
:101F600080DB89828A83E493A3F208DFF980CC883E
:101F7000F0EF60010E4E60C388F0ED2402B404005F
:101F800050B9F582EB2402B4040050AF23234582FC
:101F900023901EEF73BB010689828A83E0225002E0
:101FA000E722BBFE02E32289828A83E49322BB01FB
:101FB0000B89828A83F8E0C828F0E822500327C7FB
:101FC00022BBFE07F8E3C828F3E8228A838982E46B
:101FD0009322BB010CE58229F582E5833AF583E083
:101FE000225006E92582F8E622BBFE06E92582F8A2
:101FF000E222E58229F582E5833AF583E49322BB68
:10200000010989828A83F8E028F022500327F72209
:10201000BBFE05F8E328F3228A838982F8E493283B
:1020200022BB010FF8E58229F582E5833AF583E0CA
:1020300028F0225009C58229F8E58226F622BBFE47
:1020400009C58229F8E22582F222F8EA2583F58380
:10205000E9932822BB010689828A83F0225002F785
:1020600022BBFE01F322F8BB010DE58229F582E5D2
:10207000833AF583E8F0225006E92582C8F622BBB0
:10208000FE05E92582C8F222EF8DF0A4A8F0CF8CDE
:10209000F0A428CE8DF0A42EFE22BC000BBE002999
:1020A000EF8DF084FFADF022E4CCF875F008EF2F4F
:1020B000FFEE33FEEC33FCEE9DEC984005FCEE9D0C
:1020C000FE0FD5F0E9E4CEFD22EDF8F5F0EE842028
:1020D000D21CFEADF075F008EF2FFFED33FD400789
:1020E000985006D5F0F222C398FD0FD5F0EA22C22F
:1020F000D5EC30E709B2D5E4C39DFDE49CFCEE309D
:10210000E715B2D5E4C39FFFE49EFE12209AC3E414
:102110009DFDE49CFC800312209A30D507C3E49F08
:10212000FFE49EFE22C5F0F8A3E028F0C5F0F8E534
:1021300082158270021583E038F022A3F8E0C5F022
:1021400025F0F0E582158270021583E0C838F0E8CA
:1021500022BB010A89828A83E0F5F0A3E0225006BF
:1021600087F009E71922BBFE07E3F5F009E319221E
:1021700089828A83E493F5F074019322BB0110E510
:102180008229F582E5833AF583E0F5F0A3E0225059
:1021900009E92582F886F008E622BBFE0AE92582D5
:1021A000F8E2F5F008E222E5832AF583E993F5F0F9
:1021B000A3E99322BB010DC58229C582C5833AC517
:1021C000830221255011C58229F808E5F026F6186A
:1021D000F5F0E58236F622BBFE11C58229F808E249
:1021E00025F0F5F0F218E23582F222F8E58229F5C1
:1021F00082E5832AF58374019325F0F5F0E49338A2
:1022000022BB010A89828A83F0E5F0A3F0225006FE
:10221000F709A7F01922BBFE06F3E5F009F319222E
:10222000F8BB0111E58229F582E5833AF583E8F0F0
:10223000E5F0A3F0225009E92582C8F608A6F022AD
:10224000BBFE09E92582C8F2E5F008F222EF2BFF78
:10225000EE3AFEED39FDEC38FC22C3EF9BFFEE9A1F
:10226000FEED99FDEC98FC22E88FF0A4CC8BF0A455
:102270002CFCE98EF0A42CFC8AF0EDA42CFCEA8E58
:10228000F0A4CDA8F08BF0A42DCC3825F0FDE98F7B
:10229000F0A42CCD35F0FCEB8EF0A4FEA9F0EB8F72
:1022A000F0A4CFC5F02ECD39FEE43CFCEAA42DCE3F
:1022B00035F0FDE43CFC2275F008758200EF2FFF3D
:1022C000EE33FECD33CDCC33CCC58233C5829BED0E
:1022D0009AEC99E58298400CF582EE9BFEED9AFD12
:1022E000EC99FC0FD5F0D6E4CEFBE4CDFAE4CCF9C2
:1022F000A88222B800C1B90059BA002DEC8BF08435
:10230000CFCECDFCE5F0CBF97818EF2FFFEE33FE02
:10231000ED33FDEC33FCEB33FB10D703994004EBBA
:1023200099FB0FD8E5E4F9FA227818EF2FFFEE3386
:10233000FEED33FDEC33FCC933C910D7059BE99A98
:102340004007EC9BFCE99AF90FD8E0E4C9FAE4CC29
:10235000FB2275F010EF2FFFEE33FEED33FDCC3393
:10236000CCC833C810D7079BEC9AE899400AED9B7C
:10237000FDEC9AFCE899F80FD5F0DAE4CDFBE4CC5B
:10238000FAE4C8F922EF5BFFEE5AFEED59FDEC5876
:10239000FC22C3E49FFFE49EFEE49DFDE49CFC223E
:1023A000EB9FF5F0EA9E42F0E99D42F0EC6480C8B4
:1023B00064809845F022EB9FF5F0EA9E42F0E99D9B
:1023C00042F0E89C45F022E8600FECC313FCED13EB
:1023D000FDEE13FEEF13FFD8F122E8600FEFC333D9
:1023E000FFEE33FEED33FDEC33FCD8F122BB0107E9
:1023F00089828A8302247B5005E9F802295ABBFEB0
:1024000005E9F802296689828A83022487BB010DC7
:10241000E58229F582E5833AF58302247B5007E9BA
:102420002582F802295ABBFE07E92582F8022966AF
:10243000E58229F582E5833AF583022487BB01070B
:1024400089828A830225085005E9F802299CBBFE8F
:1024500005E9F80229A822BB010DE58229F582E5EC
:10246000833AF5830225085007E92582F802299C62
:10247000BBFE07E92582F80229A822E0FCA3E0FDC3
:10248000A3E0FEA3E0FF22E493FC740193FD740239
:1024900093FE740393FF22E0F8A3E0F9A3E0FAA30C
:1024A000E0FB22BB010DE58229F582E5833AF58345
:1024B0000224975007E92582F8022972BBFE07E93A
:1024C0002582F802297FE58229F582E5833AF583A2
:1024D00002298C7401FF3395E0FEFDFCA3A3A3E069
:1024E0002FFFF0E582158270021583E03EFEF0E5D5
:1024F00082158270021583E03DFDF0E58215827041
:10250000021583E03CFCF022ECF0A3EDF0A3EEF02A
:10251000A3EFF022A8828583F0D083D08212252BEE
:1025200012252B12252B12252BE473E493A3C583CC
:10253000C5F0C583C8C582C8F0A3C583C5F0C583EF
:10254000C8C582C822BB010789828A83022514502C
:1025500005E9F80229B4BBFE05E9F80229CD22BB42
:10256000010DE58229F582E5833AF58302251450B1
:1025700007E92582F80229B4BBFE07E92582F802A3
:1025800029CD22F5F0C582A4C582C5F0C583A42556
:1025900083F58322A42582F582E5F03583F5832235
:1025A000E0FBA3E0FAA3E0F922F8E0FBA3A3E0F943
:1025B00025F0F0E582158270021583E0FA38F022EA
:1025C000EBF0A3EAF0A3E9F022E493FB740193FAA1
:1025D000740293F922BB010789828A830225A050E5
:1025E00005E9F80229E6BBFE05E9F80229F8898227
:1025F0008A830225C9BB011A89828A83D0F0D0E080
:10260000F8D0E0F9D0E0FAD0E0FBE8C0E0C0F0029A
:1026100025C05016E9F8D083D082D0E0F9D0E0FA96
:10262000D0E0FBC082C0830229EFBBFE16E9F8D0E0
:1026300083D082D0E0F9D0E0FAD0E0FBC082C08342
:10264000022A0122BB010DE58229F582E5833AF5D4
:10265000830225A05007E92582F80229E6BBFE0780
:10266000E92582F80229F8E58229F582E5833AF521
:10267000830225C9BB0120E58229F582E5833AF56D
:1026800083D0F0D0E0F8D0E0F9D0E0FAD0E0FBE879
:10269000C0E0C0F00225C05018E92582F8D083D0F0
:1026A00082D0E0F9D0E0FAD0E0FBC082C0830229FA
:1026B000EFBBFE18E92582F8D083D082D0E0F9D0B4
:1026C000E0FAD0E0FBC082C083022A0122D083D08E
:1026D00082F8E4937012740193700DA3A393F874BD
:1026E0000193F5828883E4737402936860EFA3A377
:1026F000A380DFD083D082E4937012740193700DB5
:10270000A3A393F8740193F5828883E4737402930E
:102710006C70127403936D700C7404936E70067475
:1027200005936F60DDA3A3A3A3A3A380CA8A8389B3
:1027300082E473E56F2582F582E56E3583F583B516
:102740006E0485826F2210AF0685826FF56E22853A
:10275000826FF56ED2AF22EC8EF0A4CCC5F0CCCD5A
:10276000F8EFA4CEC5F02DFDE43CFCE8A42EC8C5CE
:10277000F03DFDE43CFCEFA4FFE5F028FEE43DFD68
:10278000E43CFC22E3F5F009E208B5F06BDFF580EC
:1027900067E3F5F009E608B5F05EDFF5805A87F0EB
:1027A00009E608B5F052DFF6804E87F009E208B579
:1027B000F046DFF6804288828C8387F009E0A3B57B
:1027C000F036DFF6803288828C8387F009E493A3A9
:1027D000B5F025DFF5802188828C83E3F5F009E0F0
:1027E000A3B5F014DFF5801088828C83E3F5F0093F
:1027F000E493A3B5F002DFF40228B3808780E98078
:102800009080D4803E8015806E807E809D80B780D1
:102810008D80A380518074803C0228BF89828A8386
:10282000ECFAE493F5F0A3C8C582C8CCC583CCE428
:1028300093A3C8C582C8CCC583CCB5F076DFE3DEF0
:10284000E1807089828A83E493F5F0A3E208B5F011
:1028500062DFF4805E89828A83E0F5F0A3E608B542
:10286000F051DFF5804D89828A83E0F5F0A3E2081C
:10287000B5F040DFF5803C89828A83E493F5F0A3CC
:10288000E608B5F02EDFF4802A8002805789828A1C
:1028900083ECFAE493F5F0A3C8C582C8CCC583CC19
:1028A000E0A3C8C582C8CCC583CCB5F006DFE4DEA2
:1028B000E280007FFFB5F0020F2240027F012289F3
:1028C000828A83ECFAE0F5F0A3C8C582C8CCC58340
:1028D000CCE0A3C8C582C8CCC583CCB5F0D5DFE5B4
:1028E000DEE380CF89828A83ECFAE0F5F0A3C8C5E5
:1028F00082C8CCC583CCE493A3C8C582C8CCC583A9
:10290000CCB5F0AFDFE4DEE280A988F0EF60010E25
:102910004E60ABED2402B404005098F582EB240223
:10292000B40400508E23234582239027FB73EF4E7F
:102930006012EF60010EEDBB010B89828A83F0A368
:10294000DFFCDEFA2289F05007F709DFFCA9F0224C
:10295000BBFEFCF309DFFCA9F022E6FC08E6FD085B
:10296000E6FE08E6FF22E2FC08E2FD08E2FE08E2DD
:10297000FF22E6FB08E6F908E6FA08E6CBF822E2D1
:10298000FB08E2F908E2FA08E2CBF822E493F874D3
:102990000193F9740293FA740393FB22ECF608EDA9
:1029A000F608EEF608EFF622ECF208EDF208EEF289
:1029B00008EFF222D083D082E493F608740193F6F4
:1029C00008740293F608740393F6740473D083D0EA
:1029D00082E493F208740193F208740293F208748B
:1029E0000393F2740473E6FB08E6FA08E6F922EBB7
:1029F000F608EAF608E9F622E2FB08E2FA08E2F94C
:102A000022EBF208EAF208E9F22241073500410719
:102A10003400E0020200001C7DE002020002120EFF
:102A2000E00102000954E00102000AA5E0050212DB
:102A30000B120E02043D41043906015600410438D0
:102A40000141043601C11B015B00015900433DBE39
:102A5000000000423DBC00004141BA00E002021209
:102A60001001B0E00102121200E00102129300E036
:102A7000050213BB01B006043DC11EC10A41338EDD
:102A800000413408FF41340000C109C10841340944
:102A90000041340A0041340101C10C41338D004131
:102AA000476100C13A43403F00000041403E0041C1
:102AB0004042004303EA0000004303E70103EA4207
:102AC0003699980743452B00000043452801452BC4
:102AD0004146A6024146A50D4146A70860203CADEF
:102AE00042DB0100000000000000000000000000C8
:102AF00000000000000000000000000000000000D6
:102B000060203CCD09000000000000000000000033
:102B100000000000000000000000000000000000B5
:102B200000000000503F43000000000000000000D3
:102B300000000000000000C115011800C112C113FF
:102B4000414407FFC11FC121C126422A23984041A9
:102B50002A2500602029E20000000000000000009B
:102B60000000000000000000000000000000000065
:102B7000000000000000004326979F010050269AA5
:102B80000000000000000000000000000000000144
:102B900061222C9D000201050101020E06010100C7
:102BA00004070401020300000400060805040208EB
:102BB00003140400040014050108090805020803B1
:102BC00014050004001405000600140802020A0A95
:102BD000080203010008000400140800060014089D
:102BE000010800140A020D000A0A020C000A0A0277
:102BF000080B0A0A01050C0E0A000400140A00065C
:102C000000140A010800140E000A0D110E02080437
:102C1000140E000400140E000600140E0108001427
:102C20000E0105001411000C0C0E11020804141101
:102C30000004001411000600141101080014110111
:102C400005001411000A00141102050E12120208E8
:102C5000041412020C0F00120004001412000600EB
:102C6000141201080014120105001412000A0014C5
:102C7000120205001412000C001413020C010000D3
:102C80000209000000020F000014020901001402F2
:102C90000B0013140007100014020A0100140204B0
:102CA000001414020C001414020D010014020E0092
:102CB0001414020F010060242EA80200FFFF060278
:102CC000FF000602FF000301FF002300FFFF0300D7
:102CD0000000130000000200010103000000462D67
:102CE000FF010002010402422E851D8141310000D6
:102CF00041329A01413106004331030130C1433072
:102D0000F70130C1410BD700602004A1EDFFFFFFA8
:102D1000FFFFFFFFFFFFFFFFFFFFFFFFFFFFFFFFC3
:102D2000FFFFFFFFFFFFFFFFFFFFFF7F6028261D64
:102D30000522000000030008EEEF7F88CF7FC00F60
:102D4000028124E040008000008080180000E83309
:102D50000000060000600000412162004121720075
:102D6000412160014121651141216100412395000C
:102D70004123B400412392004123BC004F23A5010D
:102D8000264B000123D000012674000000004223DE
:102D9000CE8700C128C129413469964134650FE0CE
:102DA000020213C000A2E00502145D00A204052285
:102DB000E0020214620807E005021C64080705052A
:102DC000224144F0FF4144EE04C1C24144EB0041C2
:102DD00044EF004144ECFF473DCA00000000000002
:102DE00000433DC7000000E002021C690013E00C34
:102DF000021C6B00000308000300080522043DE0EC
:102E000005021C770013FF0522E002021C7C000073
:102E1000007581B075FF03759E02121920024A0ADF
:102E20000218D8902A0AE47E019360F4A3FF543F6D
:102E300030E509541FFEE493A360010ECF54E0B4C3
:102E4000E00EEFFAEEF9A3A3A3A3DAFDD9FB80D637
:102E500054C025E0604B5026E493A3F85407240C9B
:102E6000C8C333C4540F4420C8834004F4568001BF
:102E700046F6DFE480B00102040810204080E493AD
:102E8000A3FAE493A3F8E493A3C8C582C8CAC58390
:102E9000CAF0A3C8C582C8CAC583CADFE9DEE78015
:102EA00085E493A3F8E493A34003F68001F208DFDE
:102EB000F4022E26000001000000001706000000AA
:102EC00000180600000006180600000001180600A1
:102ED00000000818060000000101010000000115B3
:102EE00000000000010204000000010B04000000CB
:102EF000060B04000000080B04000000010D000098
:102F00000000010E04000000011000000000010F8D
:102F10000000000004050100000004060600000097
:102F2000040708000000020500000000030501007E
:102F30000000010805000000000800000000010C6E
:102F4000010000000112050000000803020000005B
:102F50000122000000000816080000000808000018
:102F6000000001160100000006160100000005091E
:102F700003000000050A0000000005030200000035
:102F8000050400000000061B06000000011B0600EF
:102F90000000061C07000000061D070000000705D2
:102FA00008000000081E07000000082000000000C4
:102FB000081F0000000008210000000008110600A2
:102FC00000000111060000000822000000000619A0
:102FD00006000000061E00000000062000000000A1
:102FE000061A080000000614010000000714010082
:102FF0000000081B06000000072400000000081461
:103000000100000009040000020A00000007058218
:10301000022000000705020220000009040100014F
:10302000020201000524001001052401000104240E
:103030000200052406000107058103080020120193
:103040000002020000085806000200000000000113
:1030500009020000000100803204030409A280CAB2
:10306000CF0998445CAD550641469503861C3755FB
:103070005555555555555555555555555555333344
:103080003333333333333333333333333333888866
:103090008888888888888888888888888800000048
:1030A0000000050000060000001000002428800039
:1030B00000242080000011382100004428800000F6
:1030C000442080000034382100003F241E16110ED9
:1030D0000B09070504030201F0C8A7917767604652
:1030E0003835323024222014000101020203030487
:1030F00004050506060707888888888888888888E0
:103100008888888888882626262626262626262613
:10311000262626262626000E1384000E18FC000EF6
:10312000225C020202003F3F3F04040432323200BC
:103130000201901E081E0D1E121E171E1C1E211EAF
:10314000261E2B1E301E351E3A1E3F1E441E4919D8
:10315000D519DA19DF19E419EE1A021A071A0C1D2B
:10316000A41DAE1DB31DB81DBD1DC21DC71DD119A7
:1031700058195D1985198A198F1C6E1C7D1C821CBB
:10318000871C8C000301020604051E7B1E801E8521
:103190001A611A6637F61BEC1C001D9A1E99719B6A
:1031A000E4FD7C0CAB050DEB90184E938F828E8363
:1031B000F00FBF00010EDCEC7F03228F828E83E4D0
:1031C000F0A37404F031D0743DF031D0A3E4F022C8
:1031D0008F828E83A3A322904753EFF09041CBE0E0
:1031E000B40110C2ED7A4779539042861238CF313C
:1031F000F4D2ED229042831225C0904283127430A3
:103200001238B9C39F4001229042861225A09042F5
:103210008A1225C0E4904289F09042831225A09042
:103220000004121FD2FF904289E0FEC39F5034A3D6
:103230001225A0518DFD9042835186121FD28FF02E
:10324000A4FF904289E07A002FFFEA35F0FE904219
:10325000831225A0127562ED122066904289E00467
:10326000F080B69042835186121FD21238DD123898
:10327000BF7C0012209A9042835186ED51F6740172
:10328000122021D322FF1225A0900001228E8275E8
:103290008300021FD27A4179D49043831225C090D3
:1032A00043867401F0A37405F07A4179CC90438091
:1032B0001225C09043801225A0E412205490438030
:1032C0005186E4122066904387E090000351F6E4B3
:1032D000122066904386E09000041220669043839B
:1032E0001225A0C003C002C0019043801225A09007
:1032F000000512267422122066900002229041CB13
:103300007401F0FB51957E377FF6900739E0FCA3FE
:10331000E04C7006900739025885C3227F01123FA6
:10332000CC9041CBE0B401047B015195229045D370
:103330001225C09045D6124902943F4003743FF0D5
:1033400075FF02E5CD30E105E4F51E8003751E0131
:10335000E51E6038E5FD251F04543FFFE5DD543FC1
:103360006F60299045D61248AB50219045D3122565
:10337000A0851F82518FAEFD124970543F248EF5F7
:1033800082EC3406F583EFF0051F80C4E51E60086B
:10339000E5FD251F543FF5FDAF1F22904780EFF05C
:1033A0007B017A4779807D01712D7F0122719B22FB
:1033B000903ED7122508903EDB1225C0E4903EFED9
:1033C000F0D3903EDFE0941E903EDEE0940040019A
:1033D000227B017A3E79E0903EDE1274C5903ED7A2
:1033E00012247B9125903EDB1225A0E94A600B90C8
:1033F0003EFEE0F582518FFF80027F00903EFEE0AE
:1034000024E0F582E4343EF583E06F6002C322904D
:103410003EFEE004FFF0D3903EDFE09F903EDEE012
:10342000940050C1229042F91225089042FD1225C5
:10343000C0F1A2B125EF6004F1B180F7B1AE7F0316
:10344000F15A600A9042F912247B781091829042DE
:10345000F9917D9042F912247BE49186904300F12A
:10346000E86014B1199042FD1260F09042FEE475DC
:10347000F00112212580E5D18BE4FFC11712247BD6
:1034800078081223C7E4E5C820E2FB8FEB227F0116
:10349000D11790475B7401F090475BE06037B1B2A1
:1034A0007F05B11790475BEFF0D18BB1139041AD21
:1034B000EFF0B1199041AEEFF0D18B90475BE05443
:1034C00001F1D860D3A3E0F460CEEF30E7CAE49016
:1034D000475BF080C3B1B27F9FB1179041AFEFF06F
:1034E000B1199041B4EFF0B1199041B5EFF0D1139B
:1034F0009041ADE0F4601BA3E0F460169041B4E0AD
:10350000FD541F240FA3F0EDC413540744809041D1
:10351000B4F022B1B27FD791867FFF9186E5C820B3
:10352000E2FBAFEB227F01D117303816B1B27F0535
:10353000B11790475DEFF0D18B90475DE020E0023E
:10354000C23830381EB1139041ADEFF0B11990413F
:10355000AEEFF1D8600BA3E0F46006EF30E702C2F3
:1035600038D18BE4FFD117A238E433FF229045977E
:10357000122508F1C6F10790459BE06F602EF1A27D
:10358000B125EF6004F1B180F7F1456006F1C6782E
:10359000109182904597917DF1C6E4918690459B6C
:1035A000E0FFD1119041B17401F0D322C3227F0119
:1035B000D1179041B2E01226CD35D50435DD143552
:1035C000E21535E71735F73035FC34360136360667
:1035D00037000035EF5314EF851480802F5315EF1B
:1035E00080085315DF800353157F851590801D5388
:1035F00016DF8516A080155317FE800D5317EF8038
:10360000085317BF800353177F8517B07F0CDFFE69
:10361000229186D18BE4FFEFB4010443FE202253B4
:10362000FEDF229042F01225089042F41225C0F1EC
:10363000A2B125EF6004F1B180F7F145600A904234
:10364000F012247B781091829042F0917D9042F0AC
:1036500012247BE480269042F7F1E860239042F444
:1036600012746660159042F4123DFFFF91869042FD
:10367000F5E475F00112212580DCE4FF918680D607
:10368000D1139041B17401F0229186126FE6EF7070
:10369000FA9041B4E0F4600A90475A7406F0F1E001
:1036A00070FC9041B2E01226CD36C50436CD1436FA
:1036B000D21536D71736E73036EC3436F13636F6D3
:1036C00037000036DF431410851480802F43151017
:1036D00080084315208003431580851590801D4385
:1036E00016208516A08015431701800D4317108002
:1036F0000843174080034317808517B090475A74DA
:103700000CF0F1E070FC22904592122508F1A2B174
:1037100025EF6004F1B180F7B1AE7F03F15A600A82
:1037200090459212247B78109182904592917D90E1
:10373000459212247BE4B117904596EFF0D1139097
:103740004596E0FF227F01D117D238B1B27F0691B2
:1037500086D18BB1B29041B0E0FF91869041B3E049
:10376000640222F1A2B125EF6004F1B180F77F017C
:10377000D117D238B1B27F06D189B1B27F0191861B
:103780007F03D189E4FFC1179041ADE020E012B181
:10379000AE7F3D91867F2A91867F8091867FA6D1DC
:1037A000112275FF02E5E430E10675E40675E403D5
:1037B00022E55730E20FE55720E50AE55730E005EE
:1037C0007F01123FCC2290459702247BF1A2B125C4
:1037D000EF6004F1B180F722F09041ADE0FFF422F8
:1037E00090475AE014F0E02274FFF5F012213B45B7
:1037F000F022E4FFC1179041CBE0640170277B0108
:103800007A4179CC1238ADEF701B904754F0C2ED7D
:103810007A47795490424411CF1126D2ED90475403
:10382000E0FF121C32229042411225C0E490424730
:10383000F011A711B9D39400406C9042441225A016
:103840009042491225C0E4904248F011A79000042C
:10385000121FD2FF904248E0C39F502C121F958F39
:10386000F0A4FF904248E02F11C7127562121FD2D8
:10387000FF9042491225A0904248E0F58212496922
:10388000904248E004F080C311A711BF7C00121FD2
:103890009511DD12209A11A7ED12205411A7900066
:1038A0000274FF122021229042410225A011B9D3B7
:1038B00094007F0050027F0122900002021FD290EC
:1038C0000003121FD2FD227C00FFEC35F0FE227BAC
:1038D000011225C07A4179CC2290121CE02401FF0C
:1038E000E433FE227B01AF82AE837D01900B431255
:1038F00072FFE5567078125C635004C236317F90D7
:103900000B43E0FEA3E08E51F552A31225A09004D4
:103910003A1225C0AE51AF527DAA126F44E4F5FFB2
:1039200075D901F550E5575421602BE55730E50472
:10393000E4FFF126E4900B48F0900B48E004F0120D
:103940006A97EF6009900B48E0C3941040EB7F0248
:10395000121E6C5357DE11D9125E8594805005E01B
:1039600004FF80027F00316FD2EBA21992ED22F1A9
:103970002643FA04E4F5FF53D1FD43D101D236903A
:103980004759E5F4F0E0547FF5F47F827E0012574A
:10399000BD1256715005E5FC20E6F630360890471A
:1039A00059E04480F5F41257B91256715005E5FC00
:1039B00020E6F675FF01E5D520E702C322E5F4D342
:1039C00030E601C322900B791225C0D22CC2EBE560
:1039D00056600261BCE55730E202C32271C524EE95
:1039E000F9E43AFAE4122054125EB0A2ED9219C240
:1039F000ED71D854606041900B79F10171D120E1F3
:103A000037904503E06404602F71C524BB71D17108
:103A1000C424E21272F7904502740FF0900B7912F1
:103A200025A09044FF125193F1F29045037405F0E4
:103A300071E8A21992EDD322B1FC540FFFBF01111E
:103A4000E924EF71D1700A90121CE0900B7CF08099
:103A50000E900B791225A01219BC900B7CEFF0E5AB
:103A60005720E05C125C6B40047F01F1CC900B7C32
:103A70007A0B797DF142E43371C424EF1274FD12A4
:103A80001FFFEF70028035900B7CE0FFF1F8E0FE45
:103A9000900B7DE0D39E4004F1EBC32271C524B9A5
:103AA00071D1FDB1FCFB124E1C900B7DEFF0E0FFDD
:103AB0007006D2EBD20061A3EFB40204D2EB61A393
:103AC00071D85460600F900B79F10171D120E1053C
:103AD000E4904503F0125C6B5004C236317F125EF5
:103AE00055F5D1E5D120E0FBE4F550C21A71C524AB
:103AF00008F9E43ACFE9CFF5518F5271C524B1717D
:103B0000D1F558AE51126F7A71C524B171D171C41B
:103B100024E171D12FFFE433FE127576FE71C524C6
:103B2000B971D1D312537C50057401121FFF71C5B6
:103B300024B2F9E43A8B60F561896271C524E171C0
:103B4000D1F56371D85407900438F075560871C5E3
:103B500024B2F9E43AFA126F6E71C524E171D1FF13
:103B6000AD58126F997B01E4FDFF126F10E4F5FF71
:103B7000E5D25480440CF5D2900B7CE071C424B99A
:103B800071D12418FBE433FA7D031266C971D8FFA2
:103B9000AEF0A22C922B900B7CE0900BA3F0126263
:103BA000A64006A21992EDC322900B7CE071C424BA
:103BB000F21272F7A21992EDD2EBD322A21992ED72
:103BC000D2EBC322FF900B791225A0E922F0E92461
:103BD00001F9E43AFA021F95900B791225A0E92425
:103BE00004F9E43AFA022151904503E024FC700202
:103BF000A108147002A10114700281EC147002A1DA
:103C00001024066002A127E5566002A127C2EBB18D
:103C1000281219BC90471DEFF0E55730E00281E90A
:103C20001275B560047F01F1CC90471D7A47791E6B
:103C3000F1424004D2EBE10F90471DE0F1F8E0FFC4
:103C400090471EE0D39F4002E1EB904502E0640FF5
:103C5000702B90471DE0FFB128E924B971D1FD9088
:103C600044FFB1FFFB124E1C90471EEFF0E0FF70C7
:103C700005D2EBD20022EFB40203D2EB22125E9EF9
:103C8000B128E924E271D1FF9044FF71DBFDACF073
:103C9000E4FB1266A0C22B90471DE0900BA3F0E45A
:103CA000FFFE1262A6503FD2EB9045037402F01261
:103CB00066C17E00E4FCFD7BD07A127913F81222F3
:103CC00068E47BE87A03F9F812185EAB07AA06905D
:103CD000471DE0FF7D031266C97E677F9A7D147CD5
:103CE000001219678003D2EB22D2EB22E55720E5C0
:103CF00009E55730E0047F01F1CC9045037403F0EF
:103D0000229045037401F022121962B128021A8927
:103D1000126670D200B12890403F12519312762063
:103D2000904503F0121980229044FF0225A0904193
:103D3000F51225C0F109E9240571D19041FDF10882
:103D400071CE9041FEF09041F5B1FF9041FFF0E956
:103D5000240671D1904200F108E9240771D1049042
:103D60004201F09041FB1242B09402EE94004017E1
:103D7000AD077B017A4179FD9044F51225C0904151
:103D8000F81225A0121E94229040C91225C0D1FB22
:103D900071CE9040D3F09040CEB1FF9040D4F0E986
:103DA000240371D19040D5F0D1FBE9240271D19068
:103DB00040D7F0903DBAE0FFA3E09040DBCFF0A306
:103DC000EFF09040D1127521D1FBE9240471D11498
:103DD0009040DAF09040C91225A09041711225C0A0
:103DE00090417412737F7A4079D3121D5EEF6003A5
:103DF0007F01229040DB1275217F0022900B791207
:103E000025A0021F959041171225C090411C122534
:103E1000A071CE904121F090411CB1FF904122F061
:103E2000E4A3F0E9240271D1904125F090411CF106
:103E30000171D114904128F0903DBCE0FFA3E090C7
:103E40003DC1CFF0A3EFF090411F127514904117C0
:103E50001225A09041811225C0AF059041841273B4
:103E6000817A417921121D7CEF60037F0122903D10
:103E7000C11275147F002290419E1225C09041A16D
:103E8000EDF0A31225A071CEFC9041A6F090121B7C
:103E9000E0FD9041A5F09041A2B1FF540C7E00607E
:103EA000027E019041A8EEF0121F959041AAF07E8B
:103EB0000030E1027E02EE44059041A9F09041A25B
:103EC000F10171D19041ABF090419EB1FF649F70C0
:103ED0002971CEB40405AF04121D6D90419E1225C8
:103EE000A09040271225C09041A1E0FF90402AE415
:103EF0001273827A4179A5121D72229040CE02255A
:103F0000A01225A0E9240322F09041F50225A0C3C8
:103F1000900440E094FF90043FE094FF5007E47564
:103F2000F0011221252275FF01E5D530E602C322FA
:103F3000E4F5FF439A80EF12750CE4F5FF539A7F86
:103F4000D322E0FF7B019045F7EFF0A3125C1575DB
:103F5000FF011275B56002C322E5F430E602C32208
:103F60007FE87E0312475612474F126D5C400122D4
:103F7000C236317F9045F7E0FFF12653F4DFD236A9
:103F8000317F7F787E00126A0575FF0153E4BFE53B
:103F9000E430E7FB1275AB7F8A126A5330E6099072
:103FA00045F8125C28E4800B75FF019045F8125C1F
:103FB00028E5D912205475FF0143E44012748B4068
:103FC0000343F420126D5C400122D322EF600F12F4
:103FD0004CEC7B01AF82AE83E4FD11EC800A121A37
:103FE00084125DAAE433FF227F0122D2EBF10FD2CB
:103FF000002290403F0225C024D7F582E4340AF520
:104000008322C0E0C0F0C083C082C0D075D000C0A1
:1040100000C001C002C003C004C005C006C00790B4
:104020004755E5FFF075FF02E5D430E60C75D44046
:104030009044F8318D6002319475FF02E5D430E58B
:104040000C75D4209044FA318D6002319475FF02D2
:10405000E5D430E41375D4109044FC318D60098FA1
:10406000828E837F0512273175FF02E5D430E30C81
:1040700075D4089044F8318D6002319D75FF02E5DA
:10408000D430E20C75D4049044FA318D6002319D35
:1040900075FF02E5D430E11B75D4021249E7EF60E9
:1040A000129044FC318D600512758480061249B56A
:1040B0001249DF75FF02E5D430E01375D401904456
:1040C000FC318D60098F828E837F0712273175FF47
:1040D00002E5D530E40F75D5109044FC318D6005B4
:1040E0008F821275F175FF02E5D530E11375D502A7
:1040F0009044FC318D60098F828E837F06122731B8
:1041000075FF02E5D530E01375D5019044FC318D83
:1041100060098F828E837F0412273175FF02E5D5F7
:1041200030E21375D5049044FC318D60098F828E86
:10413000837F0A12273175FF02E5D530E71375D565
:10414000809044FC318D60098F828E837F08122716
:104150003175FF02E5D530E61375D5409044FC314A
:104160008D60098F828E837F09122731904755E039
:10417000F5FFD007D006D005D004D003D002D0017F
:10418000D000D0D0D082D083D0F0D0E032E0FEA3F7
:10419000E0FF4E228F828E837F010227318F828E35
:1041A00083E4FF02273190425712250890425B12A8
:1041B00025C0518990425E126EF790425712247BBF
:1041C0001233B05002414C12744690425712249759
:1041D00012238590426012747A602B51AD1274DB09
:1041E000904260F0A3EFF090425E51B79FEC9E507A
:1041F00003127397518F516BE94A600451BE803F9F
:104200007E007F00803990425E318D603D9041B6E6
:1042100051B7EF9DEE9C400A904260ECF0A3EDF0A8
:10422000800D90425EE0FFA3E0A3CFF0A3EFF0513A
:104230008F516BE94A600451BE80047E007F00907C
:10424000425CEE8FF012212580BCD322C32274027F
:10425000F090446E126EF0C00790446E1225A0904C
:10426000447112743BEFF0D00721A690425FE09FAB
:10427000F090425EE09EF0904257122497E4FCFDDD
:1042800012224D90425712250890425B0225A090C1
:10429000425B1225A0904260E0FFA3E09042F7CF7E
:1042A000F0A3EFF090425712247B12362390426025
:1042B000E0FEA3E0FFC322E0FCA3E0FDD322904296
:1042C00060E0FEA3E0FF22904089122508E4F5FF9C
:1042D00075BB0575BB8575FF0175D5022030077F5D
:1042E0003FFEF187F1B875FF0143D5203030026100
:1042F0008DE4F5FF538EF7438E077D04E4F5FF8DC3
:10430000BCF5FF43B102E5B130E2FBE4F5FFAFDFFE
:10431000EFFEACDEECFBEBFFED25E02487F582E45D
:104320003440F583126838F5FFF5FF53B1FD0DED0C
:10433000B40CC9904089B15978091223C7A31268F7
:1043400038FDED25E02491F582E43440F583E0C3A7
:1043500013FAA3E013FBF1E0E0C313FEA3E0132B79
:10436000FFEE3AFEF1E0EEF0A3EFF0ED2404901240
:104370000DF0EDC394075015CFEDCF0DEFF1E151E6
:10438000B090408EE09F90408DE09E50B5E4F5FFE8
:10439000758EC8F5FF90120DE0F5BCE4F5FF75BB16
:1043A0008075FF01F5D522903F23122508903F33F9
:1043B0007401F0E4A3F0F19475FF02E5E630E00E3D
:1043C000903F347401F0FB7A3F7934125C31903FB6
:1043D0003E122514002DC6C0E4F5FFF5A490120F7F
:1043E000F0903F357402F075FF03903F35E0FFF524
:1043F00095EF14601314601C24027027903F23B1C2
:1044000059F1DA903F2F8016903F27B159F1DA9099
:104410003F30800A903F2BB159F1DA903F31E09064
:104420003F42F0126D1F903F42E070051274B7805A
:104430006590120EE004F0903F3512750B903F34FA
:10444000E07019903F3EB159903F3AD1A7C3122373
:10445000B65009903F3AB159A3122508903F42E067
:10446000FF126BB0903F32E0FF903F35E0FDA23489
:104470009231126BFE903F34E07012903F3AB15986
:1044800090458E122508903F35E0FFD1B3903F351F
:10449000E0B14C126A5B1275CF600261E7903F3465
:1044A000E0703AA37402F075FF03903F351276185E
:1044B0007015903F3ED1A2125E1D78011223C79065
:1044C0003F35B139126A5B1275CF70DB903F3E12F7
:1044D0005E0078011223C7903F36122508F1F412CE
:1044E000748B400343F420A2349232126C50903FFC
:1044F00034E024FF9230903F36B159127493E4F5C2
:10450000FF75E508126B4BE59B30E7FBF17375FF18
:104510000143D504F149D17CF18B7B017A3F79339A
:10452000126B5890120EE0B40103126B44903F33AB
:10453000E0B40103D38001C322E0FB25E025E024A1
:1045400001F582E43412F583122508EB25E025E01D
:104550002401F582E43412F583E0FCA3E0FDA3E03E
:10456000FEA3E0FF22903FF0122508F19490400551
:10457000122514002DC6C0E4F5FFF5A490120EF02C
:10458000A3F09040007402F075FF03904000E0FF3C
:10459000F595EF14601314601C24027027903FF00F
:1045A000B159F1D4903FFC8016903FF4B159F1D449
:1045B000903FFD800A903FF8B159F1D4903FFEE062
:1045C000904009F0126D1F904009E070051274B719
:1045D000805590120EE004F090400012750B904050
:1045E00005B159904001D1A7C31223B6500990409C
:1045F00001B159A3122508904009E0FF126BB09059
:104600003FFFE0FFA3E0FDA2339231126BFEA3B1A6
:104610005990458E122508904000E0FFD1B390409C
:1046200000E0B14C126A5B1275D86002A188740276
:10463000F075FF03904000127618701AFF7E04FD9B
:10464000FC904005D1A7125E1D78011223C790404F
:1046500000B139126A5B1275D870D6F1F412748BFE
:10466000400343F420A2339232126C509040051262
:104670005E0078011223C7C2301274939012137433
:1046800001F07E127F01E4FD8F828E83EF2DF58293
:10469000E43EF583E0FC901213E02CF00DEDB41233
:1046A000E722FF7E04FDFCE0F8A3E0F9A3E0FAA313
:1046B000E0FB2290458DEFF0E4A3D1A2125E1D78BD
:1046C000011223C790458DE0FB1273BF122508909D
:1046D0001210E064806071E0C3947F5038EB127375
:1046E000BFC083C082B159EEC0E0EFC0E0901210AD
:1046F000E075F004A4AEF0FBCAEECAEA3395E0F927
:10470000F8D0E0FFD0E0FEC3EF9BFFEE9AFEED99FC
:10471000FDEC98802B90458DE01273BFC083C08262
:10472000D1A7901210E0F40475F004A4FFAEF0EEEF
:104730003395E0FDFCEB2FFFEA3EFEE93DFDE83C52
:10474000FCD082D083122508227FC87E00F15675E6
:10475000FF034391802275FF03D3EF9402EE940090
:10476000400874FE2FFF74FF3EFEEFF592EE540FEB
:10477000F59122E4F5FF758EC8F1B875FF0153D5A8
:10478000FBF1ED7F147E00F156F14F75FF03E591CB
:1047900020E7FB2275FF0243E180125DD31275BC56
:1047A00053DB7F75FF0175D502F1831275BC43DBC6
:1047B0008075FF01E4F5D522E4F5FF75C2E17F1EA7
:1047C000126A5330E707E4F5FF75C2A122E4F5FF52
:1047D00075C28122904001022508903F3A022508C7
:1047E000ED25E0248FF582E43440F5832275FF0344
:1047F000E4F5912275FF037595802275FF028FD62F
:1048000075FF02AF058FD77F01EF6003D2ED22C2A3
:10481000ED22E475FF02AFD4CDEFCD75FF02AFD529
:10482000EFFCEDCEECCEFF2275FF02EFF452D47513
:10483000FF02EDF452D5229045D71225C09045DAFB
:10484000EDF075FF02E4F51FEDD3941F4003741FD4
:10485000F075FF02E5CD30E205E4F51E8003751E1C
:1048600001E51E6037E5C9251F04541FFFE5DE542E
:104870001F6F60289045DA11AB50219045D7122563
:10488000A0851F8212328FAEC93170541F24EEF5FD
:1048900082EC3406F583EFF0051F80C5E51E600845
:1048A000E5C9251F541FF5C9AF1F22E0FFE51FC34F
:1048B0009F229045DB1225C09045DE3102943F4097
:1048C00003743FF075FF02E5CB251F543FFFE5DB86
:1048D000543F6F60209045DE11AB5019ADCB315A7B
:1048E000543F244EF582EE3406F583E09045DB31EB
:1048F00062051F80D2E51F600625CB543FF5CBAF84
:104900001F22EDF0E4F51FEDD3229045DF1225C004
:104910009045E23102941F4003741FF075FF02E5D9
:10492000CC251F541FFFE5DC541F6F60209045E22B
:1049300011AB5019ADCC315A541F24CEF582EE3450
:1049400006F583E09045DF3162051F80D2E51F60E8
:104950000625CC541FF5CCAF1F22ED251FFF7E008E
:10496000EF22FF1225A0851F82758300EF022066CB
:10497000FFE51FFDEE2DFD7C00ED227B017A4779DE
:10498000517D0111B2904751E0FF2275FF02E5DB36
:10499000543FFFE5CB543F6F7F0060027F012280D0
:1049A000EA75FF02E5DC541FFFE5CC541F6F7F0062
:1049B00060027F012275FF0153CCFD43FB4031D5DE
:1049C000759E0143FB0975FF03859E9E75FF038558
:1049D0009E9E7F012275FF0243D20175FF032231A3
:1049E000D5E4F59E7F012275FF02AFD3EF7F003043
:1049F000E6027F012290073C7402F0900734E0FF4A
:104A0000121E5D90073C7405F02275FF0275E404E8
:104A1000E4F5E4C21A75FF02901215E0603CE5E689
:104A2000540364017034121A4D125D31402090120B
:104A300038E0600DE014F070081218A2E49012152E
:104A4000F0901215E0700241E712594341E7121845
:104A5000A2D21AE4901215F041E71218A2126914BA
:104A6000900736EFF0901200E0B47A14901214E040
:104A7000B49C0D900736E0FF64056004EFB403308A
:104A8000E490073BF090073BE0FFC394805013E4B1
:104A90002FF582E43412F583E4F090073BE004F054
:104AA00080E3901200747AF0901214749CF0D21685
:104AB000121C4B4003121C467B017A1279107D01B7
:104AC0007F01121C417B017A1279117D017F211235
:104AD0001C417B017A1279127D017F22121C417ADE
:104AE0001279227F02F1EB901222E0B401057F01DE
:104AF000126E1E121A52126914121A48900736EFDB
:104B0000F01219C1121A3E900736E0FFB406028077
:104B10000C301A047F028005900736E0FF121E5801
:104B2000EF24FFB3923A75FF0253E6BF12518C6037
:104B300005E4901215F012601E121A5C1250023039
:104B4000160B7B017A1279247D10125EEA121A93F9
:104B5000901215E0700E203A0B31F57B017A347912
:104B6000111219F3901223E030E0028003301A058D
:104B70007F01123FCCD2AF301A031219C6203A027D
:104B80008108121C64B108121E53121C3C40F390A1
:104B90000735E06043121A7FEF70051259DD403887
:104BA000E55670FCE55720E503125DAA121B9CEF49
:104BB00070FA1267CF50051267BB50057F01126E65
:104BC00093900735E0B40204E4FF8009900735E0D4
:104BD000B403057F01125962121A75E55730E1A23C
:104BE000F18FC394024002E4F0E55720E50591EC13
:104BF0001238E4F1AAAF82AE83EFC0E091FAF17E01
:104C0000D0E0FF1219AD6182125FD6125A6A5003CA
:104C1000125A8A900735E0605F90338EE070591227
:104C20001A7FEF70051259DD404EE55670FCE557CE
:104C300020E50A901223E020E003125DAA121B9CDB
:104C4000EF70FA1267CF50051267BB50057F011253
:104C50006E93900735E0B40203E48018900735E0C6
:104C6000B403047F01800E900735E0B4050A90126A
:104C7000157401F0FF125962121C64B108121C195C
:104C80009044FEE07003121E4E201705121A758024
:104C9000221259A590072EE0FEEFC39E4005EF9E1D
:104CA000FF800890072EE0F4042FFF7401D39F507B
:104CB00002C217E55730E126F18FC394024002E4A7
:104CC000F0E55720E50591EC1238E4F1AAAF82AE89
:104CD00083EFC0E091FAF17ED0E0FF1219AD121B14
:104CE000F1121A8E1259EF12600C8108900737E00A
:104CF000FD75F0AA90073F122594ED75F002A424EB
:104D000030F9740735F0FA22E4904756F0D390005A
:104D100001E09400900000E094005002A1E490476C
:104D200056E0FF04F0EF94054002A1E4900000D1AA
:104D3000ADE4F571B1F1E0FEA3E04E6025B1F1D133
:104D4000AD45F0701DB1E5E0B40113B1E57402F0BA
:104D500090044CE0FFB1F1E4F0A3EFF08004B1E582
:104D6000E4F00571E571640370CA9035D1E0FF602D
:104D700006F46003E014F0E4F571E571D10EF1E1A1
:104D80006054E571D10E74FF1224D5F1A17047E58E
:104D900071B1FFE0FF600AF46007E571B1FFE01454
:104DA000F0E571B1FFE06010E571F1B912247BE527
:104DB00071D10E1225088006E571F1F4E4F0D1B44A
:104DC000E0FEA3E04E600CD1B4E0FEA3E0AA06F939
:104DD00012272D1237B10571E571C3940E409B1255
:104DE0001B3DA10D2274202571F582E43435F58335
:104DF00022E57125E024CBF582E43435F583227574
:104E0000F00CA4242DF582E43435F58322EB75F003
:104E10000CA42423F582E43435F58322900BC8EFEB
:104E2000F0A3EBF0900BC8E02420B1E9E0FEB4025F
:104E3000037F0022EE701E900BC8E0FF2420B1E932
:104E40007401F0900449E0FCA3E0FDEFB1F3ECF055
:104E5000A3EDF0802AED241BFFE433FEE4FCFD7B90
:104E60000CFAF9F812185EEF2405FF900BC8E0B1B8
:104E7000F3E0FCA3E0C39FEC940050037F0022907A
:104E800035D1E0B4FF15900BC9E0540FFFBF01030B
:104E9000E4800490045AE09035D1F09035D1E06080
:104EA000037F02229035D174FFF07F012274FFF559
:104EB000F0022125E57175F00CA4242BF582E43471
:104EC00035F58322904389ECF0A3EDF0AB07A312F4
:104ED000247BF1B8122508D10D12250890438FE0EC
:104EE000FFEBB1FFEFF0904389E0FEA3E0FFEBD1D1
:104EF000B6EEF0A3EFF022904450126E07EBF09064
:104F0000445574FFF0904454E0904456F090445659
:104F1000E0FFC3940E5061EFD10E12247BF1A1701B
:104F20004F904454E07E0170027E02904456F1F2AC
:104F3000EEF0C007904452E0FF7E0060097C007DE7
:104F40000A12208880027F0AE4FCFD90438B122520
:104F500008904453E090438FF0904450E0FCA3E06D
:104F6000FDD007D1C4904456E004FF904455F02290
:104F7000904456E004F08095904455E0FF227B0178
:104F8000900738E0FD22C2AFEFF45257D2AF227F34
:104F900002F186900737E090073BF090073704F066
:104FA00022E4FBFAF9F8C30223B690073BE0FD7553
:104FB000F0AA90073F022594EB75F00CA42427F586
:104FC00082E43435F58322AB07E4FA1BEBC3940E7D
:104FD000500CF1B8F1E16006D10D1225080AAF02BC
:104FE0002212247BEC4D4E4F2280DC7B017D01029E
:104FF0001C41E0FF75F00CA4242EF582E43435F555
:10500000832212519D121A6B121B421219B2121CEA
:1050100069318C700201EB7FFF121AFC90051512AA
:1050200025C07E007F093157BF540D7E007F0A31B5
:1050300057BFA5047F0180027F00900734EFF03155
:1050400040E94A4B701C7F04FE3157EF2401FFE416
:1050500033FEC37401717C7F0050027F01900734DE
:10506000EFF0900734E06401704F314071717A05C0
:10507000791B316D90051BE0FEA3E0FF3140C3E9D1
:105080009FF9EA9EFAE92407F9E43AFA9005181222
:1050900025C0E92408F9E43AFEAF017B017A0579DD
:1050A0001B316D90051BE064057004A3E064226071
:1050B00008121B01900734EFF0900734E070247E53
:1050C000007F04C006C3747D9404FE741C94009099
:1050D0004471F0A3CEF03196D006127610E4FFFEB4
:1050E000121B06900734E0FF121B29318C7F0060F1
:1050F000027F01121A1B121A2512196C7185127384
:10510000A87A12791D121BA1125A82FE4FFDA3E04C
:10511000FC4DFDA3E0FB4D600BEE5FFFEC5FFFEB92
:105120005FF47003125A8A90121BE0FF5403241D8F
:10513000F582E43412F583E06F90072FF0021C2310
:105140009005150225A0E075F002A42485F9740FDE
:1051500035F07B02FEAF01E4FCFD023707904057BB
:105160001225A0AE02AF017B017A40796690450915
:105170007402F0904506126EF0C0079045061225A5
:10518000A09045091273D6D007023425900736E067
:105190006401221225C07B007A007900227B017A0B
:1051A0004179B27D017F03121C417A4179BB7F08AE
:1051B000124FEB7A4179B87F0971607A4179B67FF5
:1051C0000B71609041B612418D6006BEFF1BBFFFA0
:1051D000189041BBE024FD600304700471678009EE
:1051E0009041B6E4F0A37440F09041BBE024FD6030
:1051F000030470089041B37403F080069041B374C7
:1052000002F09041B2E01226CD52250452301452E1
:105210003815524017525630525E34526636526E2E
:10522000370000524B75FF015310EF8510FD80478A
:1052300075FF015311EF800E75FF015311DF8006DA
:1052400075FF0153117F8511C9802C75FF01531221
:10525000DF8512CA802175FF015313FE801675FF8A
:10526000015313EF800E75FF015313BF800675FFC6
:105270000153137F8513CB12368B7F117152E4FFDC
:10528000126E9312348E9041B07402F09041B4E0EB
:10529000247F60090470167158740A8007123788D9
:1052A00071587458F09041B37403F071679041B530
:1052B000E0F46002614F9041B8E0FEA3E0FF6410AB
:1052C0004E70069041B5740EF0EF64204E7006905B
:1052D00041B5740FF0EF64404E70069041B5741004
:1052E000F0EF64804E70069041B57411F0E4B5079C
:1052F0000AEEB401069041B57412F0E4B5070AEE67
:10530000B402069041B57413F0E4B5070AEEB40494
:10531000069041B57414F0E4B5070AEEB40806909F
:1053200041B57415F0E4B5070AEEB410069041B526
:105330007416F0E4B5070AEEB420069041B5741770
:10534000F0E4B5070AEEB440069041B57418F002D7
:105350003763EF4420F5FE227F1071529041B02256
:105360007B017D02021C419041B67401F0A3E4F080
:1053700022AE02AF017B012233FEE0C39FEE6480C8
:10538000F874809822E4904503F0FBFAF912762035
:10539000900435F09044FEF022900439E0FDFFC304
:1053A000740E71BFEFC4F8540FC868FFEEC454F018
:1053B00048FEE55954F0717B7F005002AF05229FF3
:1053C000FFE49400FE229045F3EDF0901211E0F41A
:1053D0006005A3E0B4FF0C9045F57418F0A37413B6
:1053E000F08010901211E09045F5F0901212E090CC
:1053F00045F6F0121F9564016002A12F9045F3E07D
:10540000FE64086004EEB404089045F47428F0804B
:10541000069045F4743AF0EF12454C122392E4B131
:1054200030EF24D8FFEE343FFEED3493FDEC34161C
:10543000FC7B007A807903780012185E125E43903C
:1054400045F6E0FF9045F5E0C371BFE4FCFD122294
:1054500068ECC0E0EDC0E0EEC0E0EFC0E09045F6E3
:10546000E0FFE4FCFDFEB130D0E0FBD0E0FAD0E09C
:10547000F9D0E0F8EB2FFBEA3EFAE93DF9E83CF819
:105480009045F4E0FFE4FCFDFE122268EF2454FF97
:10549000EE340B125E2FE47BA87A16F9F812185E30
:1054A000CBEFCB9045F3E014605D14601B24FE60ED
:1054B0000C24FC707AE4F5FF75CE318006E4F5FF2C
:1054C00075CE21F5FF8BCF22E4FAE4F5FFEA244004
:1054D000F5CEE4F5FFEAFFC3740771BF74432FF5FF
:1054E0008274183EF583E4B138C39DF5CFE4F5FF2F
:1054F000EA2448F5CEE4F5FFEA901843B1382DF5DB
:10550000CF0AEAB408C422E4F5FF75CE01F5FF8B9B
:10551000CFF5FF75CE0EF5FFEB25E0F5CFE4F5FFF7
:1055200075CE0FF5FFCFEBCFEB75F003A4F5CF22CF
:105530007B64FAF9F80222689325E0FDE433FCEB82
:1055400075F010A4FFAEF012209ACDEFCDEBFFE482
:10555000C313EF1322904465126E0AEBF090446B74
:105560007401F0C235F1B9D1715005E5FC20E6F7C0
:10557000F187BF0108E4F5FC75FC408007F187BFA7
:105580000202D322F1B2904466E0FF126D2C75FF47
:105590000153D5DF53FAFB904465E0FF123F26909C
:1055A0004466E0904465B40815E01273BFE0FCA3C4
:1055B000E0FDA3E0FEA3E02452125E2C8004E01282
:1055C000454C126A5B904467E0FF126D5675FF010F
:1055D00075FF03759B04F1B975FC42E5FC20E104FD
:1055E000D17140F4904468E0F075FF03E59B20E73B
:1055F00004D17140F4E59B20E70D75FF03759B1FF7
:10560000125DD3D235804FD16A125C31904466E08E
:10561000FD90120FE05D701C904465E0FFD16A714F
:10562000C690120FE0FF904466E0FEEF4E90120F1E
:10563000F012467C1247B87B017A4479691269E41A
:10564000500FC390446AE09420904469E094034072
:10565000E6D16A126B5812478B303502A15D904437
:105660006BE0B40103D38001C3227B017A44796BE0
:105670002275FF03E591C330E701D322C222E490F3
:105680004669F0C223A3F0A3F075FF01E5D520E73A
:1056900002C322C237F139202202E12A53F4DF90FB
:1056A0004669E0FF123F26126B4430230543F44065
:1056B000800353F4BFE4F5FF53F5F090466AE0FA37
:1056C000A3E0FBEA42F5EBF5F6D237F13912474990
:1056D000E4F5FFE59320E604D17140F4302358E56A
:1056E000F430E3047D288010E5F430E2047D288066
:1056F00007E5F430E1027D281247ED7F2812474B81
:10570000D17140FC7F7812474BD171502AF15A5029
:10571000F8F181EFC39D50F1F15A50EDE5F720E526
:10572000E8C237F1391247ED80DF53F4BF12748BB2
:10573000400543F420F1B2D322AFF4EF547FF5F4E7
:10574000303705EF4480F5F475FF01E5D520E70219
:10575000C322E5F4D330E601C32275FF01E5E4334B
:1057600022E4FFE5F754C06002801675FF01E5D51D
:1057700030E30DF15A50F4F181EF60EFF15A50EB44
:10578000221275ABAFD9227FFA12474BE5FC30E607
:1057900004D17140F7E5FC30E6037F032275FF0179
:1057A000E5D530E6037F0222E5D57F0030E7027FB2
:1057B000012275FF0153D8EF227FE87E03F1C20278
:1057C000474F9045E7EE1273827A4579E91269E412
:1057D00050149045E9E0FEA3E0FF9045E8E09F907B
:1057E00045E7E09E400B9045E7E0FEA3E0FF12474F
:1057F000562275FF0275E40475E40175E402227512
:10580000FF0275E404E4F5E42290051DEFF0900535
:105810001FEBF090051EEDF05402901239F0318B21
:10582000600631885002C322121CA0EF6002C3221E
:1058300011E6EF6002C32211C090051DE0B4040A16
:10584000118C90051D7403F0802690051DE0640501
:105850007013118C901223E030E5047F1F80027FCB
:10586000733180800B90051EE0FB7D01E4FF1193F6
:1058700090051DE0900735F090051FE0901238F07C
:1058800031A590073DEEF0A3EFF0D322A3E0FB7D1E
:10589000017F01EB600875FF0153CDFD800675FFA8
:1058A0000143CD02ED600553FBDF800343FB20EF96
:1058B000600775FF0243E1402275FF0253E1BF22FA
:1058C00011D9E924E0F9E490425E31391241A63160
:1058D0003190459B04F002356D7E127F94E4FCFD0F
:1058E000903DBE0225A011E0E9240F11FF700911BF
:1058F000E0E9240D11FF60047F0180027F0022F99E
:10590000EA3402FA021F957469319B740BF011E0BE
:1059100031927A3D79AE021B473131123707EF6081
:105920000F11D9E924E0F9E490430031391234250C
:10593000227E127F93E4FCFD223AFA7401F0A374F4
:1059400027F022901242E0FD7F01513B9012391165
:105950008D901223E030E5047F1F80027F7231803A
:105960007F0143FB1075FF0243E640EF600D75FFBA
:1059700002E5E120E7FB43FB0D800343FB0E80FEC5
:1059800075FF028FE32280F8A21A22901223E054BE
:1059900030229042941225C07B0122AD07AC0690C4
:1059A0004292F0A322A2AD922AC2ADAF69AE68A224
:1059B0002A92AD22AD07AC0631A5C3EF9DEE9C4007
:1059C00008EF9DFFEE9CFE8013EDF4FDECF4FCED82
:1059D0002401FDE43CFCED2FFFEC3EFE2290073D50
:1059E000E0FEA3E0FF31B4D3EF94C8EE9400229020
:1059F0004503E0FF64066004EFB40103123BE89046
:105A00000435E0600FE4F09044FEE07007318B60F5
:105A1000031219C622121D6390121D12247B121D3F
:105A200068903DBE1225C031197E1C7FB9121D86BB
:105A3000121B33EF5407C36001D322EF7011ED60E6
:105A40000775FF0143AE012275FF0153AEFE22EF41
:105A5000B40114901242EDF0600775FF0143AE02ED
:105A60002275FF0153AEFD2280D190121BE0701011
:105A700051824FFFA3E04FFFA3E04F7003D380019B
:105A8000C32290121DE0FFA3E022E4FF123FCCEFFF
:105A9000603F911E51D2500990121DE0C394C04046
:105AA000F17B017A12791F51D2500E51825FFFA310
:105AB000E05FFFA3E05FF460E8901223E030E005D0
:105AC0007F01123FCCE490121BF0911EE0FD121BEF
:105AD000A62290424C9115904252122514000000CB
:105AE000019042567401F0F5FFE5D554C070049161
:105AF0006B5002C322E4F5FF53967F75FF0175D505
:105B0000047F3FFE12478775FF0143D508E4F5FF88
:105B10005394FBF5FF53847FF5FF7598FF90425037
:105B2000E5F4F075F49C75FF01A3E5E4F075E42558
:105B30007B017A4279569131904256E064016002CD
:105B400061F4F5FF90424F7414F09042521245599F
:105B500078011223DA904252122508E5A730E1FBC2
:105B600043A702904252124559E5A730E005E47B75
:105B7000018002E4FBFAF9F8EF4BFFEE4AFEED4933
:105B8000FDEC48FC90425212250890424FE014F080
:105B900070B890425212455978101223C77B6D7A23
:105BA0004E79C67841122268EF2439FFEE3430D1A5
:105BB0002FE4FBFA7901F81222F3EE547FFEE4FDA4
:105BC000FCD143904252124559EB6FFFEA6EFEE85A
:105BD000CDEFCDCCEECCECFF9125EF1220549125EA
:105BE000900001ED12206690120FE030E606E4F519
:105BF000FF75968075FF01E4F5D5904250E0F5F40D
:105C000075FF01A3E0F5E4D18D904256E0B40103A5
:105C1000D38001C322EBF0A3EAF0A3E9F0227B01D9
:105C20007A12791D2290424CE0FBA3E0FAA3E0F93E
:105C30002290466691157F017C127D01E4FE8D82E3
:105C40008C83ED2EF582E43CF583E02FFF0EEEB45D
