:020000040000FA
:0A0000000218000218034B3A4B806F
:07000B0002180B4C9F006678
:07001300021813095C0961EA
:07001B0002181B0AE20AF6BD
:070023000218230C5E0D5DC5
:10002B0002182B540B7F03220218338FEF22D3229B
:06003B0002183B02181B35
:06004300021843A21A227C
:06004B0002184B0237AB66
:060053000218530237768B
:06005B0002185B020C59C3
:06006300021863020C3BD1
:06006B0002186B020BA05D
:100073000218734103F4004103F300E0020200009D
:100083001C7DE002020002120EE00102000954E0AE
:100093000102000AA5E00502120B120E02043D4103
:1000A300080F0601560041080E0141080C01C11B4F
:1000B300015B00015900433ECC000000423ECA00F0
:1000C300004142A300E00202121001B0E00102125B
:1000D3001200E00102129300E0050213BB01B00617
:1000E300043DC11EC10A4134E20041355CFF413584
:1000F3005400C109C10841355D0041355E004135F9
:100103005501C10C4134E1004147C700C1384341A7
:100113004D00000041414C00414150004303EA00BF
:1001230000004303E70103EA4237ED98074345C262
:100133000000004345BF0145C24147230241472216
:100143000D4147240860203DB242DB01000000005E
:10015300000000000000000000000000000000009C
:1001630000000000000000000060203DD2090000F4
:10017300000000000000000000000000000000007C
:10018300000000000000000000000000005040518B
:10019300000000000000000000000000000000005C
:1001A300C115011800C112C113C11FC121C12442CD
:1001B3002B779840412B790060202B3600000000FC
:1001C300000000000000000000000000000000002C
:1001D3000000000000000000000000004327EB9F28
:1001E30001005027EE0000000000000000000000A6
:1001F300000000000161222DF1000201050101024E
:100203000E060101000407040102030000040006B6
:100213000805040208031404000400140501080976
:100223000805020803140500040014050006001461
:100233000802020A0A080203010008000400140865
:100243000006001408010800140A020D000A0A023D
:100253000C000A0A02080B0A0A01050C0E0A000424
:1002630000140A000600140A010800140E000A0D07
:10027300110E020804140E000400140E00060014EC
:100283000E010800140E0105001411000C0C0E11D0
:1002930002080414110004001411000600141101D3
:1002A300080014110105001411000A0014110205BD
:1002B3000E12120208041412020C0F0012000400A2
:1002C3001412000600141201080014120105001490
:1002D30012000A0014120205001412000C00141379
:1002E300020C0100000209000000020F00001402CA
:1002F30009010014020B0013140007100014020A72
:100303000100140204001414020C001414020D0161
:100313000014020E001414020F010060242FFC02CB
:1003230000FFFF0602FF000602FF000301FF002398
:1003330000FFFF030000001300000002000101039F
:10034300000000462F53010002010402422FD90C82
:1003530045413254004133EE0141325A0043325792
:1003630001321543324B0132154109C100602008A7
:1003730077EDFFFFFFFFFFFFFFFFFFFFFFFFFFFF24
:10038300FFFFFFFFFFFFFFFFFFFFFFFFFFFFFFFF7A
:100393007F602827710522000000030008EEEF7F2D
:1003A30088CF7FC00F028124E040000000008080DE
:1003B300180000E8330000060000600000412162DD
:1003C30000412172004121600141216511412161F8
:1003D3000041243F0041245E0041243C0041246647
:1003E300004F244F01279F0001247A000127C800F2
:1003F3000000004224788700C126C1274135BD96FD
:100403004135B90FE0020213C000A2E00502145DFA
:1004130000A2040522E0020214620807E005021CA0
:1004230064080705052241458DFF41458B04C1BB87
:100433004145880041458C00414589FF473ED8002E
:10044300000000000000433ED5000000E002021C53
:10045300690013E00C021C6B000003080003000892
:100463000522043DE005021C770013FF0522E0028C
:10047300021C7C000000C2D5E830E70FB2D5E4C30C
:100483009BFBE49AFAE499F9E498F8EC30E717B2A5
:10049300D51204AF121CA2E4C39BFBE49AFAE499BD
:1004A300F9E498F88003121CA230D50DE4C39FFF32
:1004B300E49EFEE49DFDE49CFC2278B0E4F6D8FDC6
:1004C3009000007F007E10E4F0A3DFFCDEFA90478B
:1004D300E1A3E583C394204011FEAF829020000E78
:1004E3000FE48002F0A3DFFCDEFA12082002051AF3
:0C04F30022320858085D0885088A088F2E
:100508007581B075FF03759E021208200230320211
:1005180004F3900076E47E019360F4A3FF543F3027
:10052800E509541FFEE493A360010ECF54E0B4E044
:100538000EEFFAEEF9A3A3A3A3DAFDD9FB80D654F4
:10054800C025E0604B5026E493A3F85407240CC858
:10055800C333C4540F4420C8834004F45680014672
:10056800F6DFE480B00102040810204080E493A381
:10057800FAE493A3F8E493A3C8C582C8CAC583CA9A
:10058800F0A3C8C582C8CAC583CADFE9DEE780858B
:10059800E493A3F8E493A34003F68001F208DFF4A0
:1005A80002051D556E6B6E6F776E206576656E74ED
:1005B8003A20000A002C0020000B910B960B9BEFB1
:1005C8009005D093900800730A20364CE578FF22F6
:1005D800EFF5782200000100000000170600000077
:1005E80000180600000006180600000001180600A2
:1005F80000000818060000000101010000000115B4
:1006080000000000010204000000010B04000000CB
:10061800060B04000000080B04000000010D000098
:100628000000010E04000000011000000000010F8E
:100638000000000004050100000004060600000098
:10064800040708000000020500000000030501007F
:100658000000010805000000000800000000010C6F
:10066800010000000112050000000803020000005C
:100678000122000000000816080000000808000019
:10068800000001160100000006160100000005091F
:1006980003000000050A0000000005030200000036
:1006A800050400000000061B06000000011B0600F0
:1006B8000000061C07000000061D070000000705D3
:1006C80008000000081E07000000082000000000C5
:1006D800081F0000000008210000000008110600A3
:1006E80000000111060000000822000000000619A1
:1006F80006000000061E00000000062000000000A2
:10070800061A080000000614010000000714010082
:100718000000081B06000000072400000000081461
:1007280001000000555555555555555555555555C4
:10073800555555333333333333333333333333331B
:100748003333338888888888888888888888888820
:1007580088883F241E16110E0B09070504030201A1
:10076800F0C8A791776760463835323024222014C4
:100778000001010202030304040505060607070039
:100788000000000000000000000000000000000061
:100798000000000000000000000000000000878842
:1007A8008888888888888888888888888888262685
:1007B8002626262626262626262626262626000E0F
:1007C8001384000E18FC000E225C020202003F3F58
:1007D8003F040404323232000201900CCC0CD10CDC
:1007E800D60CDB0CE00CE50CEA0CEF0CF40CF90C65
:0707F800FE0D030D080D0DBD
:10080000C0787408C0E0C082C08375780AE5FF54E0
:10081000CF4490F5FF22C0787408C0E0C082C08346
:10082000757820E5FF54CF4490F5FF22C078740816
:10083000C0E0C082C083757836E5FF54CF44A0F590
:10084000FF22C0787408C0E0C082C08375784CE590
:10085000FF54CF44B0F5FF229081AA01169081BECB
:1008600001169097FB0116909FF5011690A02F019D
:1008700016909CFD0116909E23011690D001011642
:10088000908550011690D896011690D8AE0116901A
:1008900083E7011690D93F011690B816011690DF34
:1008A000DC011690E05E011690B691011690B06BD7
:1008B000011690E169011690E185011690E18B0126
:1008C0001690E1BE0116909EFC011690AA870116B3
:1008D00090E360011690E4AC011690E47A01169062
:1008E000D320011690D35B011690E6DE011690D35B
:1008F00056011690E52D011690E54A011690D06C30
:10090000011690E3C4011690C22D011690C6AB01EA
:100910001690C731011690E6EE011690E31B011602
:1009200090A173011690E2B6011690E4FD011690B5
:10093000E219011690D2E3011690E7E6011690E85D
:100940001A011690E85F011690E87D011690E8C83C
:10095000011690E99E011690E90F011690E9C50174
:1009600016909BD3011690E4E8011690837E011641
:100970009081F8011690EAE3011690EB20011690A1
:10098000EB4A0116909FCA011690C647011690C502
:1009900099011690C584011690C795011690C666F8
:1009A000011690EB84011690EBC4011690DEE6016F
:1009B0001690EBE2011690EF6D011690EFC1011653
:1009C00090E4C3011690E30B011690EEE20116903D
:1009D000EC97011690EFC8011690F221011690E3F2
:1009E00015011690F277011690F27D011690F283B0
:1009F000011690EC91011690D504011690AB680198
:100A00001690AE64011690DD2A011690DC85011661
:100A100090DBC3011690C7A4011690DF5201169017
:100A2000DB6B011690F284011690DF2D011690F316
:100A300002011690DD77011690DEC0011690DDEE02
:100A4000011690DBB3011690ED4F011690CA6301B9
:100A50001690F50B011690D5E4011690F5FD0116E0
:100A600090F630011690F68D011690F580011690E3
:100A7000F6DB011690F14C011690809701169080DC
:100A8000FB0116908000011690815F01169080DEB8
:100A9000014290C2020142909BBD0142909CD40150
:100AA0004290914E014290A81801429094900142C8
:100AB000909151014290C205014290C417014290A9
:100AC00080AE014290A961014290C765014290C881
:100AD0007B014290C8AE014290C8E1014290A3124E
:100AE000014290C97C014290B0B6014290B36F01BF
:100AF00042908555014290CA03014290C0A801422C
:100B000090A81F014290A005014290CA1101429095
:100B1000CA340142909BBC014290CAAC014290D6BB
:100B20006D014290918A014290D908014290D958B2
:100B300001429093870142908000014290809B0186
:100B40004290B2CB014290D98C014290D9A501428A
:100B500090C3D801429092840142909BB701429089
:100B6000DDB6014290DDBB014290DDCC014290DE5A
:100B7000A4014290DF5A014290C6B701429092D43C
:100B8000014290DAA3014290C01701429081EB012B
:100B90004290E00B014290DFC8014290A74201421F
:100BA0009084DC014290E03E014290C20E014290EE
:100BB000C0E60142908E58014290AA180142908FDF
:100BC000BF014290E06B014290E073014290E089E6
:100BD000014290B65C014290B5FF014290E0B50140
:100BE0004290E0D1014290B4AE01429084BB0142F8
:100BF00090C410014290C1FC014290B4B4014290F3
:100C0000C3FB014290B656014290C1490142909502
:100C100061014290E25301429090E9014290E51552
:100C2000014290E52D014290C0BE014290C10B01EE
:100C30004290E5970142908C29014290E5A0014243
:100C400090E5C6014290E636014290E637014290B7
:100C5000C3B8014290C14F014290E640014290DF8B
:100C6000EF014290845C014290D8F7014290D2F7A4
:100C7000014290A6EC014290E690014290D83E01DC
:100C80004290D754014290D665014290E69F0142BE
:100C900090CFDF014290D1C1014290BE1C01429031
:100CA000BD96014290BB51014290BD90014290918E
:100CB0003A014290D1410142909131014290BFDF0F
:100CC000014290BF5E014290BC0C0142909E6B01BC
:100CD0002C909F5E012C90A107012C90A192012CD9
:100CE00090A19C012C90A1B5012C90A1C7012C9042
:100CF000A1DA012C909C1D012C90A24C012C90A2F9
:100D000056012C90A295012C90A2D4012C90A30EF8
:100D1000012C90836D012C90A508012C90A5090150
:100D20002C908000012C909DDB012C909D00012CCB
:100D300090A52E012C9098DA012C9098E0012C902F
:100D40009A58012C90A618012C9098E6012C9082BC
:100D5000E5012C909715012C90A627012C909C5A08
:100D6000012C0008D508DA08DF08E408EE090209BA
:100D700007090C0C680C720C770C7C0C810C860C2F
:100D80008B0C955A2D5761766520342E3631000B29
:100D9000500B5F0B640B690B6E822D1C1613111028
:100DA00010099D09A209D40D3F0D440D49E4FD7CB5
:100DB0000CAB050DEB900D83938F828E83F00FBFEC
:100DC00000010EDCEC0200308F828E83E4F0A3740D
:100DD00004F0B1DD743DF0B1DDA3E4F0228F828E2A
:100DE00083A3A3229003FB7402F09003F3E0FFB10E
:100DF000219003FB7405F0221212FB316651381169
:100E0000B2714BF1307002C1D97FFF31F7900913F5
:100E1000121F6F7E007F09F151BF540D7E007F0AC3
:100E2000F151BFA5047F0180027F009003F3EFF032
:100E3000F12AE94A4B701D7F04FEF151EF2401FFB6
:100E4000E433FEC374011246E37F0050027F019039
:100E500003F3EFF09003F3E064017048F12AAE026F
:100E6000F13712509B900919E0FEA3E0FFF12AC36D
:100E7000E99FF9EA9EFAE92407F9E43AFA9009169B
:100E8000121F6FE92408F9E43AFEF13712509B90E3
:100E90000919E064057004A3E06422600731FC9046
:100EA00003F3EFF09003F3E070287E007F04C006A8
:100EB000C3747D9404FE741C9400904515F0A3CE79
:100EC000F01255FFD0061238D574FFFDFCE4FFFE8A
:100ED00051019003F3E0FF5124F1307F0060027F65
:100EE00001311B3125116C124B1F1256247A1279D5
:100EF0001D5197125755FE4FFDA3E0FC4DFDA3E099
:100F0000FB4D600BEE5FFFEC5FFFEB5FF4700312D5
:100F100024B190121BE0FF5403241DF582E4341227
:100F2000F583E06F9003EEF06119900913021F4FF3
:100F30009003F5E0640122AF017B017A097919225F
:100F4000E075F002A42485F9740F35F07B02FEAF42
:100F500001E4FCFD904623121EB712176B12100D10
:100F6000EF60051216E180F51210E87F031212C03F
:100F7000600A904623121E2A7810F19B904623F1B6
:100F800096904623F1F412105F904627EFF0F1FCA3
:100F9000904627E0FF22121E2A7808121D76E4E50B
:100FA000C820E2FB8FEB22904628121EB7904628FD
:100FB000121E2AF15490462CE06F603612176B1205
:100FC000100DEF60051216E180F51212AA600A906A
:100FD0004628121E2A7810F19B904628F1969046DA
:100FE00028F1F490462CE0FFF1FA90429A7401F057
:100FF000D322C322121E2AE480A5F19F12114EE4CF
:10100000FFEFB4010443FE202253FEDF227F0111D3
:1010100001303614F15C115F9047C3EFF0314E9010
:1010200047C3E020E002C236303617114C90429799
:10103000EFF195600BA3E0F46006EF30E702C236F3
:10104000314EE4FF1101A236E433FF2211EC7FD7C9
:10105000120F9F7FFF120F9F1164904296EFF07F57
:10106000FF120F9FE5C820E2FBAFEB227F011101C9
:101070009047C17401F09047C1E0602EF15C115FB0
:101080009047C1EFF0314E114C904297EFF0314E46
:101090009047C1E05401F19560DCA3E0F460D7EF24
:1010A00030E7D3E49047C1F080CC11EC7F9F120F62
:1010B0009F115F904298115D90429D115D90429EFC
:1010C000EFF0120FFC904296E0F4601BA3E0F46096
:1010D0001690429DE0FD541F240FA3F0EDC413545D
:1010E00007448090429DF0227F01110190429BE0D5
:1010F00012207C110F04111714111C151121171146
:101100003130113634113B3611403700001129536C
:1011100014EF851480802F5315EF80085315DF805E
:101120000353157F851590801D5316DF8516A0800B
:10113000155317FE800D5317EF80085317BF800318
:1011400053177F8517B07F0CDFFE22120F9F1252BC
:1011500057EF70FA90429DE0F4600A9047C0740621
:10116000F0F16370FC90429BE012207C1188041126
:101170009014119515119A1711AA3011AF3411B4AA
:101180003611B937000011A2431410851480802F46
:101190004315108008431520800343158085159062
:1011A000801D4316208516A08015431701800D432E
:1011B0001710800843174080034317808517B090AD
:1011C00047C0740CF0F16370FC22F16B110DEF60FD
:1011D00004D1E180F77F011101D23611EC7F063195
:1011E0004B11EC7F01120F9F7F03314BE4FF010194
:1011F0009043B5121EB79043B9121F6FF16B110DDA
:10120000EF6004D1E180F711E87F0351C0600B90DB
:1012100043B5121E2A7810120F9B9043B5120F96F9
:101220009043B5120FF49043BCF1B9600E115F907A
:1012300043B9F18E9043BA91B180EB314EE4FF0196
:10124000019043AC121EB79043B0121F6FF16B11A7
:101250000DEF6004D1E180F751AA600B9043AC120E
:101260001E2A7810120F9B9043AC120F969043AC3D
:10127000121E2AE480259043B3F1B960239043B055
:10128000121F4FEA494B60119043B0122C59FF12C4
:101290000F9F9043B191B180DDE4FF120F9F80D684
:1012A000120FFC90429A7401F0227F011101D23694
:1012B00011EC7F06120F9F314E11EC904299E0FF26
:1012C000120F9F90429CE06402229047C2EFF09080
:1012D00042A4E06402702311E89047C2E07FAB6053
:1012E000027FB9120F9F314E9047C2E09042A3F0A7
:1012F00070047F1EDFFEE4FF1101227B017A427938
:101300009B7D017F03120B237A4279A47F08125739
:101310004E7A4279A17F09F1867A42799F7F0BF15B
:101320008690429F1238106006BEFF1BBFFF1890C8
:1013300042A4E024FD6003047004F1C380099042DC
:101340009FE4F0A37440F09042A4E024FD60030405
:10135000700890429C7403F0800690429C7402F0E6
:1013600090429BE012207C138304138E1413961575
:10137000139E1713B43013BC3413C43613CC370088
:101380000013A975FF015310EF8510FD804775FF0D
:10139000015311EF800E75FF015311DF800675FFB9
:1013A0000153117F8511C9802C75FF015312DF8510
:1013B00012CA802175FF015313FE801675FF015379
:1013C00013EF800E75FF015313BF800675FF0153A5
:1013D000137F8513CB314E7F1191ABE4FF51CA11BE
:1013E0006C9042997402F090429DE0247F60090461
:1013F0007015D1D9740A8006D1F6D1D97458F090FD
:10140000429C7403F0F1C390429EE0F4600281A913
:101410009042A1E0FEA3E0FF64104E700690429E51
:10142000740EF0EF64204E700690429E740FF0EF41
:1014300064404E700690429E7410F0EF64804E70CF
:101440000690429E7411F0E4B5070AEEB4010690CE
:10145000429E7412F0E4B5070AEEB4020690429E72
:101460007413F0E4B5070AEEB4040690429E7414B7
:10147000F0E4B5070AEEB4080690429E7415F0E455
:10148000B5070AEEB4100690429E7416F0E4B50754
:101490000AEEB4200690429E7417F0E4B5070AEEF7
:1014A000B4400690429E7418F021CAEF4420F5FE25
:1014B00022E475F001021AD4C0E0C0F0C083C082FB
:1014C000C0D075D008C0FF75FF01E5D530E6047FB8
:1014D000028009E5D57F0030E7027F018F5AE55A87
:1014E00064026002A179E55612207C1504011517EB
:1014F00002156608152209152D0A153B0B155B0C04
:10150000000016BE75FF0175C355155CE55C6002F1
:10151000C1BE755602C1BE75FF0175C3F07556098F
:10152000C1BE75FF0175C35575560AC1BE75FF0171
:10153000900821E0F5C375560BC1BE75FF019008F8
:101540000DE0F5C3755601755C0890083112356BD6
:1015500045F06002C1BE75560CC1BE90459A740636
:10156000F0755600C1BEC2EB7556004357041249D0
:101570002A4002C1BE91B1C1BEE55A64016002C1F8
:10158000BE124F594002C1BEE5507022D1D2E0FFD9
:1015900064556004EFB4540B75500575FF0075D9A0
:1015A00001C1BE75500275FF0075D908C1BEE55076
:1015B0006402703DF1D9E5D9121A03124F35124871
:1015C000DA90080CEFF0F1CDE09009BBF0E0FFD32A
:1015D00094094006EFD394AA4004F19D80699009D4
:1015E000BBE0F558F1A675FF008558D9755003C1C9
:1015F000BEE5506405701FD1D2A3E0FF90121BE03E
:10160000FEEF6E700C90080B04F0F1A6E0FF1208DC
:10161000B77550008031E55064036002C1BEF1D956
:10162000E92401F9E43AFAE5D9121A03F19D75FFAC
:1016300000E5D330E016C390081CE094FF90081B2F
:10164000E094FF500291B11248918072C234122E80
:10165000FC75FF00122FE3F5D1E5D120E0FBC2EBD2
:10166000435702D1D2A3E0FF90121EE0FEEF6ED1ED
:10167000D1E090121DD1CBA3A3E090121FD1CBA338
:10168000A3A3E0FE901220E0FDEE6D4F6011C39029
:10169000081EE094FF90081DE094FF500291B1C332
:1016A000900818E094FF900817E094FF500291B161
:1016B0007550001558F1CDE558F09003F7F0D0FFC4
:1016C000D0D0D082D083D0F0D0E032FEE0FDEE6DFD
:1016D0004FFF855282855183227F1091AB904299B2
:1016E00022E55730E20FE55720E50AE55730E005DF
:1016F0007F0112280922904296E020E01611E87F2F
:101700003D120F9F7F2A120F9F7F80120F9F7FA68F
:10171000120FFA229047E1EFF0E569C394204004EC
:10172000D1E180F5E565C394204003E4F565C2ACE2
:10173000125044EF700EE569700A9047E1E0FF1225
:10174000003680139047E1E0FFAE65056574122E08
:10175000125036EFF00569D2AC7F012211EC7F0503
:10176000020F9F9047C0E014F0E02275FF02E5E40D
:1017700030E10675E40675E40322F16B110DEF60AC
:1017800004D1E180F7227B017D02020B23FF121FAF
:101790004FEF021A03F0904296E0FFF422301A0550
:1017A000C21A123A4F22F1AE90121CEFF022E5F469
:1017B0005418131313541FFF2274FFF5F0121AEA82
:1017C00045F02290429F7401F0A3E4F022E55224F8
:1017D00007F582E43551F5832275FF01F5EA75EAD4
:1017E000FF900810021F4F75FF0275E40475E401B5
:0717F00075E40222020A0663
:06180000020508024CBFC6
:101808007FB875FF0275E404E4F5E422EEF0A3EF77
:09181800F0D32275FF028FE322D8
:07182300024FA375ED042242
:10182B0002402390121BE070111257554FFFA3E09B
:10183B004FFFA3E04F7003D38001C32275ED02224B
:10184B000214B8E709F608DFFA8046E709F208DF69
:10185B00FA803E88828C83E709F0A3DFFA8032E3BB
:10186B0009F608DFFA8078E309F208DFFA8070885E
:10187B00828C83E309F0A3DFFA806489828A83E098
:10188B00A3F608DFFA805889828A83E0A3F208DF87
:10189B00FA804C80D280FA80C680D4806980F28036
:1018AB0033801080A680EA809A80A880DA80E2805C
:1018BB00CA803389828A83ECFAE493A3C8C582C8B1
:1018CB00CCC583CCF0A3C8C582C8CCC583CCDFE91B
:1018DB00DEE7800D89828A83E493A3F608DFF9ECB7
:1018EB00FAA9F0EDFB2289828A83ECFAE0A3C8C542
:1018FB0082C8CCC583CCF0A3C8C582C8CCC583CC69
:10190B00DFEADEE880DB89828A83E493A3F208DFD7
:10191B00F980CC88F0EF60010E4E60C388F0ED24A7
:10192B0002B4040050B9F582EB2402B4040050AFAA
:10193B00232345822390189E73BB010689828A83D9
:10194B00E0225002E722BBFE02E32289828A83E473
:10195B009322BB010B89828A83F8E0C828F0E82226
:10196B00500327C722BBFE07F8E3C828F3E8228AF7
:10197B00838982E49322BB010CE58229F582E583FE
:10198B003AF583E0225006E92582F8E622BBFE06F3
:10199B00E92582F8E222E58229F582E5833AF5838F
:1019AB00E49322BB010989828A83F8E028F0225054
:1019BB000327F722BBFE05F8E328F3228A838982EB
:1019CB00F8E4932822BB010FF8E58229F582E58321
:1019DB003AF583E028F0225009C58229F8E58226E2
:1019EB00F622BBFE09C58229F8E22582F222F8EA2B
:1019FB002583F583E9932822BB010689828A83F02C
:101A0B00225002F722BBFE01F322F8BB010DE58247
:101A1B0029F582E5833AF583E8F0225006E9258221
:101A2B00C8F622BBFE05E92582C8F222EF8DF0A491
:101A3B00A8F0CF8CF0A428CE8DF0A42EFE22BC00F3
:101A4B000BBE0029EF8DF084FFADF022E4CCF875CE
:101A5B00F008EF2FFFEE33FEEC33FCEE9DEC9840DD
:101A6B0005FCEE9DFE0FD5F0E9E4CEFD22EDF8F579
:101A7B00F0EE8420D21CFEADF075F008EF2FFFEDD9
:101A8B0033FD4007985006D5F0F222C398FD0FD5D1
:101A9B00F0EA22C2D5EC30E709B2D5E4C39DFDE4F0
:101AAB009CFCEE30E715B2D5E4C39FFFE49EFE121B
:101ABB001A49C3E49DFDE49CFC8003121A4930D5FE
:101ACB0007C3E49FFFE49EFE22C5F0F8A3E028F0D5
:101ADB00C5F0F8E582158270021583E038F022A379
:101AEB00F8E0C5F025F0F0E582158270021583E071
:101AFB00C838F0E822BB010A89828A83E0F5F0A39B
:101B0B00E022500687F009E71922BBFE07E3F5F048
:101B1B0009E3192289828A83E493F5F074019322F5
:101B2B00BB0110E58229F582E5833AF583E0F5F0F8
:101B3B00A3E0225009E92582F886F008E622BBFED5
:101B4B000AE92582F8E2F5F008E222E5832AF5831B
:101B5B00E993F5F0A3E99322BB010DC58229C58258
:101B6B00C5833AC583021AD45011C58229F808E5FA
:101B7B00F026F618F5F0E58236F622BBFE11C5828B
:101B8B0029F808E225F0F5F0F218E23582F222F896
:101B9B00E58229F582E5832AF58374019325F0F517
:101BAB00F0E4933822BB010A89828A83F0E5F0A323
:101BBB00F0225006F709A7F01922BBFE06F3E5F059
:101BCB0009F31922F8BB0111E58229F582E5833A65
:101BDB00F583E8F0E5F0A3F0225009E92582C8F679
:101BEB0008A6F022BBFE09E92582C8F2E5F008F24F
:101BFB0022EF2BFFEE3AFEED39FDEC38FC22C3EF62
:101C0B009BFFEE9AFEED99FDEC98FC22E88FF0A479
:101C1B00CC8BF0A42CFCE98EF0A42CFC8AF0EDA468
:101C2B002CFCEA8EF0A4CDA8F08BF0A42DCC38259B
:101C3B00F0FDE98FF0A42CCD35F0FCEB8EF0A4FE7B
:101C4B00A9F0EB8FF0A4CFC5F02ECD39FEE43CFC10
:101C5B00EAA42DCE35F0FDE43CFC2275F00875822C
:101C6B0000EF2FFFEE33FECD33CDCC33CCC582331B
:101C7B00C5829BED9AEC99E58298400CF582EE9B20
:101C8B00FEED9AFDEC99FC0FD5F0D6E4CEFBE4CD3E
:101C9B00FAE4CCF9A88222B800C1B90059BA002DD8
:101CAB00EC8BF084CFCECDFCE5F0CBF97818EF2F91
:101CBB00FFEE33FEED33FDEC33FCEB33FB10D703C0
:101CCB00994004EB99FB0FD8E5E4F9FA227818EF69
:101CDB002FFFEE33FEED33FDEC33FCC933C910D7C8
:101CEB00059BE99A4007EC9BFCE99AF90FD8E0E4D5
:101CFB00C9FAE4CCFB2275F010EF2FFFEE33FEEDAB
:101D0B0033FDCC33CCC833C810D7079BEC9AE8997A
:101D1B00400AED9BFDEC9AFCE899F80FD5F0DAE45C
:101D2B00CDFBE4CCFAE4C8F922EF5BFFEE5AFEEDF3
:101D3B0059FDEC58FC22C3E49FFFE49EFEE49DFD9D
:101D4B00E49CFC22EB9FF5F0EA9E42F0E99D42F009
:101D5B00EC6480C864809845F022EB9FF5F0EA9E16
:101D6B0042F0E99D42F0E89C45F022E8600FECC39D
:101D7B0013FCED13FDEE13FEEF13FFD8F122E86019
:101D8B000FEFC333FFEE33FEED33FDEC33FCD8F135
:101D9B0022BB010789828A83021E2A5005E9F802B9
:101DAB002309BBFE05E9F802231589828A83021EEB
:101DBB0036BB010DE58229F582E5833AF583021ED8
:101DCB002A5007E92582F8022309BBFE07E9258281
:101DDB00F8022315E58229F582E5833AF583021E85
:101DEB0036BB010789828A83021EB75005E9F802C8
:101DFB00234BBBFE05E9F802235722BB010DE582FD
:101E0B0029F582E5833AF583021EB75007E925824F
:101E1B00F802234BBBFE07E92582F802235722E089
:101E2B00FCA3E0FDA3E0FEA3E0FF22E493FC74011E
:101E3B0093FD740293FE740393FF22E0F8A3E0F981
:101E4B00A3E0FAA3E0FB22BB010DE58229F582E5B5
:101E5B00833AF583021E465007E92582F8022321B7
:101E6B00BBFE07E92582F802232EE58229F582E5E0
:101E7B00833AF58302233B7401FF3395E0FEFDFCAF
:101E8B00A3A3A3E02FFFF0E582158270021583E078
:101E9B003EFEF0E582158270021583E03DFDF0E514
:101EAB0082158270021583E03CFCF022ECF0A3ED6E
:101EBB00F0A3EEF0A3EFF022A8828583F0D083D0BD
:101ECB0082121EDA121EDA121EDA121EDAE473E422
:101EDB0093A3C583C5F0C583C8C582C8F0A3C583CA
:101EEB00C5F0C583C8C582C822BB010789828A8316
:101EFB00021EC35005E9F8022363BBFE05E9F80295
:101F0B00237C22BB010DE58229F582E5833AF5831B
:101F1B00021EC35007E92582F8022363BBFE07E9C3
:101F2B002582F802237C22F5F0C582A4C582C5F078
:101F3B00C583A42583F58322A42582F582E5F0359C
:101F4B0083F58322E0FBA3E0FAA3E0F922F8E0FBA0
:101F5B00A3A3E0F925F0F0E582158270021583E06A
:101F6B00FA38F022EBF0A3EAF0A3E9F022E493FBBA
:101F7B00740193FA740293F922BB010789828A8355
:101F8B00021F4F5005E9F8022395BBFE05E9F80245
:101F9B0023A789828A83021F78BB011A89828A83CD
:101FAB00D0F0D0E0F8D0E0F9D0E0FAD0E0FBE8C018
:101FBB00E0C0F0021F6F5016E9F8D083D082D0E05A
:101FCB00F9D0E0FAD0E0FBC082C08302239EBBFEB7
:101FDB0016E9F8D083D082D0E0F9D0E0FAD0E0FB5C
:101FEB00C082C0830223B022BB010DE58229F5829A
:101FFB00E5833AF583021F4F5007E92582F8022348
:10200B0095BBFE07E92582F80223A7E58229F58215
:10201B00E5833AF583021F78BB0120E58229F5821F
:10202B00E5833AF583D0F0D0E0F8D0E0F9D0E0FAD0
:10203B00D0E0FBE8C0E0C0F0021F6F5018E925822A
:10204B00F8D083D082D0E0F9D0E0FAD0E0FBC082A8
:10205B00C08302239EBBFE18E92582F8D083D08271
:10206B00D0E0F9D0E0FAD0E0FBC082C0830223B00D
:10207B0022D083D082F8E4937012740193700DA375
:10208B00A393F8740193F5828883E47374029368C5
:10209B0060EFA3A3A380DFD083D082E4937012748C
:1020AB000193700DA3A393F8740193F5828883E4D5
:1020BB00737402936C70127403936D700C740493AD
:1020CB006E70067405936F60DDA3A3A3A3A3A38017
:1020DB00CA8A838982E473E5732582F582E57235BA
:1020EB0083F583B572048582732210AF06858273E4
:1020FB00F57222858273F572D2AF22EC8EF0A4CCEE
:10210B00C5F0CCCDF8EFA4CEC5F02DFDE43CFCE83A
:10211B00A42EC8C5F03DFDE43CFCEFA4FFE5F02880
:10212B00FEE43DFDE43CFC22E3F5F009E208B5F0EA
:10213B006BDFF58067E3F5F009E608B5F05EDFF5D8
:10214B00805A87F009E608B5F052DFF6804E87F02B
:10215B0009E208B5F046DFF6804288828C8387F06F
:10216B0009E0A3B5F036DFF6803288828C8387F0E6
:10217B0009E493A3B5F025DFF5802188828C83E3F6
:10218B00F5F009E0A3B5F014DFF5801088828C839D
:10219B00E3F5F009E493A3B5F002DFF402226280C9
:1021AB008780E9809080D4803E8015806E807E8011
:1021BB009D80B7808D80A380518074803C02226EFD
:1021CB0089828A83ECFAE493F5F0A3C8C582C8CC64
:1021DB00C583CCE493A3C8C582C8CCC583CCB5F06A
:1021EB0076DFE3DEE1807089828A83E493F5F0A3E6
:1021FB00E208B5F062DFF4805E89828A83E0F5F055
:10220B00A3E608B5F051DFF5804D89828A83E0F5AE
:10221B00F0A3E208B5F040DFF5803C89828A83E4C5
:10222B0093F5F0A3E608B5F02EDFF4802A80028048
:10223B005789828A83ECFAE493F5F0A3C8C582C868
:10224B00CCC583CCE0A3C8C582C8CCC583CCB5F0C4
:10225B0006DFE4DEE280007FFFB5F0020F224002D2
:10226B007F012289828A83ECFAE0F5F0A3C8C5824C
:10227B00C8CCC583CCE0A3C8C582C8CCC583CCB5BC
:10228B00F0D5DFE5DEE380CF89828A83ECFAE0F5D7
:10229B00F0A3C8C582C8CCC583CCE493A3C8C582C0
:1022AB00C8CCC583CCB5F0AFDFE4DEE280A988F003
:1022BB00EF60010E4E60ABED2402B404005098F5B4
:1022CB0082EB2402B40400508E23234582239021F9
:1022DB00AA73EF4E6012EF60010EEDBB010B89820A
:1022EB008A83F0A3DFFCDEFA2289F05007F709DFBF
:1022FB00FCA9F022BBFEFCF309DFFCA9F022E6FCF3
:10230B0008E6FD08E6FE08E6FF22E2FC08E2FD080F
:10231B00E2FE08E2FF22E6FB08E6F908E6FA08E629
:10232B00CBF822E2FB08E2F908E2FA08E2CBF8224A
:10233B00E493F8740193F9740293FA740393FB22F8
:10234B00ECF608EDF608EEF608EFF622ECF208EDE7
:10235B00F208EEF208EFF222D083D082E493F60873
:10236B00740193F608740293F608740393F67404DD
:10237B0073D083D082E493F208740193F208740251
:10238B0093F208740393F2740473E6FB08E6FA08FD
:10239B00E6F922EBF608EAF608E9F622E2FB08E298
:1023AB00FA08E2F922EBF208EAF208E9F2229009C4
:1023BB0084EFF0900986EBF0900985EDF0540290D4
:1023CB001239F0124B7960071200465002C32212E9
:1023DB000B82EF6002C322124BD3EF6002C32212B7
:1023EB004C06900984E0B4040A917D90098474032F
:1023FB00F08027900984E064057014917D9012237E
:10240B00E030E5047F1F80027F7312181B800B9056
:10241B000985E0FB7D01E4FF9184900984E0900342
:10242B00F4F0900986E0901238F01237CE9003FC4E
:10243B00021814901242E0FD7F01124CBF9012392A
:10244B00917E901223E030E5047F1F80027F721291
:10245B00181B7F0143FB1075FF0243E640EF600D35
:10246B0075FF02E5E120E7FB43FB0D800343FB0E09
:10247B0080FEA3E0FB7D017F01EB600875FF01533C
:10248B00CDFD800675FF0143CD02ED600553FBDFEB
:10249B00800343FB20EF600775FF0243E140227589
:1024AB00FF0253E1BF22E4FF122809EF6040F1E085
:1024BB0091FA500990121DE0C394C040F17B017A50
:1024CB0012791F91FA500F1257555FFFA3E05FFF70
:1024DB00A3E05FF460E7901223E030E0057F011288
:1024EB002809E490121BF0F1E0E0FD120A9C229007
:1024FB00431C123E99904322121EC3000000019010
:10250B0043267401F0F5FFE5D554C07005122E3744
:10251B005002C322E4F5FF53967F75FF0175D50476
:10252B007F3FFE123CD675FF0143D508E4F5FF5300
:10253B0094FBF5FF53847FF5FF7598FF904320E5DF
:10254B00F4F075F49C75FF01A3E5E4F075E4257BCD
:10255B00017A437926124748904326E064016002D2
:10256B00C11EF5FF90431F7414F0904322D1607885
:10257B0001121D89904322121EB7E5A730E1FB43E0
:10258B00A702904322D160E5A730E005E47B0180F0
:10259B0002E4FBFAF9F8EF4BFFEE4AFEED49FDECD6
:1025AB0048FC904322121EB790431FE014F070BA00
:1025BB00904322D1607810121D767B6D7A4E79C6CE
:1025CB007841121C17EF2439FFEE3430F1D2E4FBC3
:1025DB00FA7901F8121CA2EE547FFEE4FDFC1246C0
:1025EB00F9904322D160EB6FFFEA6EFEE8CDEFCDA1
:1025FB00CCEECCECFF123FE4EF121A03123FE49047
:10260B000001ED121A1590120FE030E606E4F5FF0B
:10261B0075968075FF01E4F5D5904320E0F5F475D0
:10262B00FF01A3E0F5E4124DF7904326E0B401035C
:10263B00D38001C322E0FB25E025E02401F582E4F1
:10264B003412F583121EB7EB25E025E02401F58249
:10265B00E43412F583E0FCA3E0FDA3E0FEA3E0FF6E
:10266B00229040FE121EB7123DF1904113121EC371
:10267B00002DC6C0E4F5FFF5A490120EF0A3F09068
:10268B00410E7402F075FF0390410EE0FFF595EFDC
:10269B0014601314601C240270279040FED160F16B
:1026AB00DA90410A8016904102D160F1DA90410B29
:1026BB00800A904106D160F1DA90410CE09041170D
:1026CB00F0124F28904117E070051256C6805890B3
:1026DB00120EE004F090410E125722904113D1607C
:1026EB0090410F1246D4FBC3121D65500990410F48
:1026FB00D160A3121EB7904117E0FF124DA9904174
:10270B000DE0FFA3E0FDA231922F124ED6A3D160B4
:10271B0090461F121EB790410EE0FF1245239041C9
:10272B000EE0D153123F0DF1E76002C1907402F03D
:10273B0075FF0390410E1258037017FF7E04FDFCCA
:10274B00904113F1B57801121D7690410ED14012D4
:10275B003F0DF1E770DA123F75400343F420A231CD
:10276B009230124E08904113125688F1D2E4FB7A44
:10277B0004F9F8F1C07801121D76C22E1256AF90F3
:10278B0012137401F07E127F01E4FD8F828E83EFB2
:10279B002DF582E43EF583E0FC901213E02CF00D56
:1027AB00EDB412E722FF7E04FDFCE0F8A3E0F9A3F1
:1027BB00E0FAA3E0FB121C17E47B7DFAF9F8121C7C
:1027CB00A2EF2401FFE43EFEE43DFDE43CFC22903D
:1027DB00410F021EB77B017A12791D2290410EE048
:1027EB00FF14F0EF229003EEE064AA2411FFF02215
:1027FB00AE07F1F0EE04FEEF8EF084AFF022EF6047
:10280B000E123310AF82AE83E4FD12332E80091209
:10281B00097FF1B4E433FF227F012290095F121F7D
:10282B006FD22AC2EBE55660024118E55730E2023F
:10283B00C322512124EE1257C3124ACDA2ED921995
:10284B00C2ED717B5460604190095FB155512D20F1
:10285B00E13790459AE06404602F512124BB512D40
:10286B00512024E2B1F1904599740FF090095F1259
:10287B001F4F9045961255FC12577E90459A740542
:10288B00F05134A21992EDD3229156540FFFBF0190
:10289B0011E924EF512D700A90121CE0900962F09F
:1028AB00800E90095F121F4F1208BC900962EFF067
:1028BB00E55720E05CD13740047F01110990096294
:1028CB007A097963123E12E433512024EF1256F940
:1028DB001219AEEF70028035900962E0FFF1F2E061
:1028EB00FE900963E0D39E4004B1F9C32251212429
:1028FB00B9512DFD9156FB1234DE900963EFF0E0D8
:10290B00FF7006D2EBD2004100EFB40204D2EB41D0
:10291B0000717B5460600F90095FB155512D20E120
:10292B0005E490459AF0D1375004C234D1FCF1E064
:10293B00F5D1E5D120E0FBE4F550C21A5121240872
:10294B00F9E43ACFE9CFF5518F52512124B1512DF2
:10295B00F558AE511251EB512124B1512D51202478
:10296B00E1512D2FFFE433FEEF2401FFE43EFE5136
:10297B002124B9512DD31246E3500574011219AE1F
:10298B00512124B2F9E43A8B60F56189625121241B
:10299B00E1512DF563717B540790080EF0755608C5
:1029AB00512124B2F9E43AFA1251DF512124E151B9
:1029BB002DFFAD5812520A7B01E4FDFF125181E449
:1029CB00F5FFE5D25480440CF5D2900962E051201A
:1029DB0024B9512D2418FBE433FA7D03124A1471E8
:1029EB007BFFAEF0A22A9229900962E090098CF04D
:1029FB001245BB4006A21992EDC322900962E05129
:102A0B002024F2B1F1A21992EDD2EBD322A21992AA
:102A1B00EDD2EBC322FF90095F121F4FE922F0E9C1
:102A2B002401F9E43AFA02194490459AE024FC7027
:102A3B00026155147002614E1470026139147002F8
:102A4B00615D240660026174E55660026174C2EB3D
:102A5B0071751208BC904794EFF0E55730E00261B6
:102A6B0036123FC460047F0111099047947A47796D
:102A7B0095123E124004D2EBA163904794E0F1F221
:102A8B00E0FF904795E0D39F4002A1F9904599E074
:102A9B00640F702B904794E0FF7175E924B9512DA9
:102AAB00FD9045969159FB1234DE904795EFF0E07F
:102ABB00FF7005D2EBD20022EFB40203D2EB22124D
:102ACB00490F7175E924E2512DFF904596717EFDFA
:102ADB00ACF0E4FB1248EEC229904794E090098CCD
:102AEB00F0E4FFFE1245BB503FD2EB90459A7402C7
:102AFB00F01249387E00E4FCFD7BD07A127913F892
:102B0B00121C17E47BE87A03F9F8120479AB07AAD5
:102B1B0006904794E0FF7D03124A147E4B7F3A7D6B
:102B2B00147C001208678003D2EB22D2EB22E5570C
:102B3B0020E509E55730E0047F01110990459A74AF
:102B4B0003F02290459A7401F0221208627175020B
:102B5B000984124922D200717590414D1255FC1215
:102B6B004B3290459AF012088022904596021F4FE7
:102B7B0090095F121F4FE92404F9E43AFA021B0093
:102B8B009042D0121F6FB15DE92405512D9042D8B0
:102B9B00B15C512A9042D9F09042D091599042DACF
:102BAB00F0E92406512D9042DBB15CE92407512D4D
:102BBB00049042DCF09042D61239489402EE940015
:102BCB004017AD077B017A4279D8904592121F6F5F
:102BDB009042D3121F4F120D58229041D7121F6FE4
:102BEB00B14F512A9041E1F09041DC91599041E273
:102BFB00F0E92403512D9041E3F0B14FE924025148
:102C0B002D9041E5F0903EC8E0FFA3E09041E9CF65
:102C1B00F0A3EFF09041DFD122B14FE92404512D05
:102C2B00149041E8F09041D7121F4F90425A121F57
:102C3B006F90425DD1007A4179E1120C22EF600373
:102C4B007F01229041E9D1227F002290095F121F60
:102C5B004F021944904211121F6F904216121F4FD0
:102C6B00512A90421BF0904216915990421CF0E46D
:102C7B00A3F0E92402512D90421FF0904216B1555A
:102C8B00512D14904222F0903ECAE0FFA3E0903EFB
:102C9B00CFCFF0A3EFF0904219D115904211121F34
:102CAB004F90426A121F6F90426DD1007A42791B8E
:102CBB00120C40EF60037F0122903ECFD1157F00B5
:102CCB0022904287121F6F90428AEDF0A3121F4F82
:102CDB00512AFC90428FF090121BE0FD90428EF037
:102CEB0090428B9159540C7E0060027E0190429170
:102CFB00EEF0121944904293F07E0030E1027E0216
:102D0B00EE4405904292F090428BB155512D90427A
:102D1B0094F09042879159649F7028512AB404050E
:102D2B00AF04120C31904287121F4F904135121F86
:102D3B006F90428AE0FF904138E4D1037A42798E5A
:102D4B00120C36229041DC021F4F121F4FE9240355
:102D5B0022F09042D0021F4FC3900816E094FF90D0
:102D6B000815E094FF50031214B122904444121F33
:102D7B006F7A3E799D1256069044449159903E9E2F
:102D8B005129903E9DF0904444121F4FE924045169
:102D9B002D903E9FF0903EA27401F090444A7A3EF3
:102DAB00799DD10A125768904447121F4F02089918
:102DBB0090444C121F6F7A3E79A312560690444CE6
:102DCB009159903EA4F0903EA374FFF0E924045176
:102DDB002D903EA5F09044527A3E79A3D10A12571A
:102DEB006890444F80C4F9E43AFAEF021A03D2EB2D
:102DFB00B163D20022AF05ECF0A3EFF07B0122A36D
:102E0B00E0FD7B01900902021F6FE0FFA3E0903E03
:102E1B00CACFF0A3EFF022E0FFA3E0903EC8CFF0C3
:102E2B00A3EFF022C2EBA2ED9219C2EDE5F4C33091
:102E3B00E701D3229009ADEFF0C235123EECD2225E
:102E4B009009ADE09046E6F0D223A3E4F0A37434EE
:102E5B00F0123A5CE49009AEF0D13750639009AEB2
:102E6B00E0705DE5F754C060F0D1E1D1F4645570CA
:102E7B003BD1F490121BE06F7030D1F464556014A9
:102E8B00E0FF6405600EEF64256009EF64456004A4
:102E9B00EFB465059009AE800C90080DE0FF90092A
:102EAB00AEE06F70137402F080AF800C9009AEE04F
:102EBB00B454057433F080A19009AE7401F080997D
:102ECB009009AEE0B40206C234D1FC8000123A4F36
:102EDB009009AEE0FF22E5F720E008E5F754C0705B
:102EEB00F5FF2243F701AFF922D1E19009AEEFF0E4
:102EFB00229047BFE5F4F0E0547FF5F47F827E002B
:102F0B001244CC123EA25005E5FC20E6F630340804
:102F1B009047BFE04480F5F41244C8123EA250051E
:102F2B00E5FC20E6F675FF01E5D520E702C322E5B7
:102F3B00F4D330E601C322124ACD7F02120D30E4E6
:102F4B009009AFF0A3F09009B0E0FFC394035038A1
:102F5B00D13F9009AFEFF0BF020280149009AFE0B0
:102F6B00B43318E4F0A3E0FFD13FBF02139009AFD5
:102F7B007401F0A3E090121CF0800DE49009AFF007
:102F8B009009B0E004F080BE9009AFE0700CD1372F
:102F9B005004C234D1FCF1EA800890121CE0FF12FD
:102FAB0008B79009AFE024FF22E5567022D12F50CD
:102FBB0004C234D1FCF1EAF1E0F5D1E5D120E0FB1C
:102FCB004357205357FEE4F550A21992EDD322C379
:102FDB0022C234D1FCE4F5FFE5D154FE44022212A7
:102FEB003F837F08020D302496F582E43407F58386
:102FFB002230180C9034E2E07006FF1208D0C21891
:10300B00301A23AF1F90082FE0FEEFC39E400AEF4C
:10301B009ED394024010C21A2290082FE0F42FD3B3
:10302B0094014002C21A2275FF0275E404E4F5E430
:10303B00C21A75FF02901215E0603CE5E65403647A
:10304B00017034120948122F424020901238E06070
:10305B000DE014F070081204BDE4901215F09012FC
:10306B0015E07002211012243E21101204BDD21A59
:10307B00E4901215F021101204BD124CEC9003F5E4
:10308B00EFF0901200E0B47A14901214E0B49C0D9F
:10309B009003F5E0FF64056004EFB40330E49003A4
:1030AB00FAF09003FAE0FFC394805013E42FF582FB
:1030BB00E43412F583E4F09003FAE004F080E3903B
:1030CB001200747AF0901214749CF0D216120B2D1D
:1030DB004003120B287B017A1279107D017F0112BC
:1030EB000B237B017A1279117D017F21120B237B3C
:1030FB00017A1279127D017F22120B237A12792227
:10310B007F0212574E901222E0B401057F01124F3D
:10311B006012094D124CEC1209439003F5EFF012BB
:10312B0008C112093E9003F5E0FFB40602800C3093
:10313B001A047F0280059003F5E0FF120D1CEF24AB
:10314B00FFB3923875FF0253E6BF120F306005E4F0
:10315B00901215F0123FFD120957120DF830160B95
:10316B007B017A1279247D1012494012098E90123C
:10317B0015E0700F20380C120DE47B017A35796560
:10318B001208F3901223E030E0028003301A057F1F
:10319B0001122809D2AF301A031208C62038024197
:1031AB0030120B4671BC120D17120B1E40F390031D
:1031BB00F4E0604012097AEF7004B1E84036E5564E
:1031CB0070FCE55720E503122FB4120A92EF70FA48
:1031DB00B1D65004D13650057F011212CA9003F4B8
:1031EB00E0B40204E4FF80099003F4E0B403057F2C
:1031FB000112245F120970E55730E1A5B17B400243
:10320B00E4F0E55720E50A7110AF82AE837D0171C2
:10321B002ED123EFC0E0711E9003F7E0FDD0E0FF4D
:10322B001208AD21AC122FFC12182E50031224B130
:10323B009003F4E0605C9034E2E0705612097AEF90
:10324B007004B1E8404CE55670FCE55720E50A9058
:10325B001223E020E003122FB4120A92EF70FAB19E
:10326B00D65004D13650057F011212CA9003F4E0F8
:10327B00B40203E480189003F4E0B403047F0180EC
:10328B000E9003F4E0B4050A9012157401F0FF12CE
:10329B00245F120B4671BC120B0F904595E0700327
:1032AB00120D122017051209708021F1CE9003ED3B
:1032BB00E0FEEFC39E4005EF9EFF80089003EDE01C
:1032CB00F4042FFF7401D39F5002C217E55730E16E
:1032DB0027B17B4002E4F0E55720E50A7110AF827D
:1032EB00AE837D01712ED123EFC0E0711E9003F7E9
:1032FB00E0FDD0E0FF1208AD120AE7120989124B6C
:10330B0053F1FE41309003F6E0FD75F0AA9003FEF9
:10331B00121F43ED75F002A424EFF9740335F0FA94
:10332B007B0122900929EEF0A3125561E55660024C
:10333B0061BB122E2F5005C234122EFC900929E0CE
:10334B00FEA3E08E51F552A3121F4F900810121FCF
:10335B006FAE51AF527DAA1251B5E4F5FF75D9018D
:10336B00F550E5575421602BE55730E504E4FFD1C8
:10337B004AE490092EF090092EE004F0123CE3EFA2
:10338B00600990092EE0C3941040EB7F02120D30C0
:10339B005357DE1248BC648094805005E004FF80D4
:1033AB00027F00F1DDD234122EFCD2EBA21992ED8A
:1033BB0022E49047BCF0D3900001E0940090000011
:1033CB00E09400500281AA9047BCE0FF04F0EF9418
:1033DB0005400281AA900000B16BE4F575E575918B
:1033EB00B5E0FEA3E04E6035E57591B5B16B45F0E8
:1033FB00702B7474257591ADE0B401197474257537
:10340B0091AD7402F0900822E0FFE57591B5E4F000
:10341B00A3EFF080087474257591ADE4F00575E5A4
:10342B0075640370B8903725E0FF6006F46003E025
:10343B0014F0E4F575E57591D0F1C66054E575911E
:10344B00D074FF121E84D1EC704791C1F583E0FF5D
:10345B00600AF4600791C1F583E014F091C1F58324
:10346B00E06010E575F19D121E2AE57591D0121ED4
:10347B00B78006E575F168E4F0B190E0FEA3E04E8D
:10348B00600CB190E0FEA3E0AA06F91220DC121644
:10349B00E10575E575C3940E409B120A3361C12299
:1034AB002474F582E43436F5832225E0241FF5825B
:1034BB00E43437F58322E57575F00CA42481F5828D
:1034CB00E4343622EF75F00CA42477F582E434361D
:1034DB00F583229009B1EFF0A3EBF09009B1E091E5
:1034EB00ABE0FEB402037F0022EE701C9009B1E04A
:1034FB00FF91AB7401F090081FE0FCA3E0FDEF918E
:10350B00B5ECF0A3EDF0802AED241BFFE433FEE4D1
:10351B00FCFD7B0CFAF9F8120479EF2405FF9009F6
:10352B00B1E091B5E0FCA3E0C39FEC940050037FA6
:10353B000022903725E0B4FF159009B2E0540FFF3D
:10354B00BF0103E48004900830E0903725F09037FA
:10355B0025E060037F022290372574FFF07F012264
:10356B0074FFF5F0021AD4C2AFEFF45257D2AF2268
:10357B007F02B1729003F6E09003FAF09003F60429
:10358B00F0C3940222E57575F00CA4247FF582E458
:10359B003436F5832290443DECF0A3EDF0AB07A35A
:1035AB00121E2AF19C121EB7EB91D0121EB790443B
:1035BB0043E0FFEB91C3F583EFF090443DE0FEA3B6
:1035CB00E0FFEBB192EEF0A3EFF02290000174015B
:1035DB0093B40007E493B41802C322D3229003FCE4
:1035EB00E0FEA3E0FFB1FAD3EF94C8EE940022AD56
:1035FB0007AC06F1CEC3EF9DEE9C4008EF9DFFEEAE
:10360B009CFE8013EDF4FDECF4FCED2401FDE43C99
:10361B00FCED2FFFEC3EFE229003FAE0FD75F0AAC5
:10362B009003FE121F43AF82AE83227F017E009078
:10363B0017FCE4935EFE7401935F4E24FFB3227577
:10364B00FF01E5D530E602C322E4F5FF439A80EF94
:10365B00125723E4F5FF539A7FD3229044F412467A
:10366B0036EBF09044F974FFF09044F8E09044FA94
:10367B00F09044FAE0FFC3940E506091CF121E2AD3
:10368B00D1EC704F9044F8E07E0170027E029044C2
:10369B00FAF166EEF0C0079044F6E0FF7E00600999
:1036AB007C007D0A121A3780027F0AE4FCFD9044ED
:1036BB003F121EB79044F7E0904443F09044F4E07F
:1036CB00FCA3E0FDD007B1A09044FAE004FF9044C6
:1036DB00F9F0229044FAE004F080969044F9E0FF70
:1036EB0022E4FBFAF9F8C3021D659043A3EEF0A3A5
:1036FB00EFF09043AA74FFF09043A5F1C66056908B
:10370B0043AB7403F09043ABE0FFC3940E50469170
:10371B00CF121E2AD1EC70359043ABF1667405F0D5
:10372B00C0079043A5121E2A90443F121EB7904328
:10373B00A9E0904443F09043A3E0FCA3E0FDD00745
:10374B00B1A09043ABE0049043AAF080089043AB48
:10375B00E004F080B09043AAE0FF22E0FF75F00C8C
:10376B00A42482F582E43436F58322AB07E4FF1BF5
:10377B00EBC3940E501AF19C121EC300000000EB19
:10378B0091D0121EC300000000EBF168E4F07F0142
:10379B0022EB75F00CA4247BF582E43436F58322FE
:1037AB00AB07E4FA1BEBC3940E500DF19CF1C66012
:1037BB0007EB91D0121EB70AAF0222121E2AEC4D54
:1037CB004E4F22A2AD9228C2ADAF1FAE1EA22892C1
:1037DB00AD22D14A43FA04E4F5FF53D1FD43D101A5
:1037EB00229003F8E0FCA3E04C70069003F802185B
:1037FB0014C3229003F81238106009CAEECAC9EF3D
:10380B00C91220DC22E0FEA3E0FF4E2290432712D8
:10381B001EB790432B121F6F313290432E12516300
:10382B00904327121E2A1250DB500201D39042A064
:10383B00E024FFFF90429FE034FFFEE4FCFD904349
:10384B0027121E46121D3490433012571B603590C1
:10385B00433031489042A0E09FFF90429FE09EFE94
:10386B00904330F0A3EFF090432E31389FEC9E50F5
:10387B000312561D11EDE94A6004313F803D7E0075
:10388B007F00803790432E1110603B90429F313860
:10389B00EF9DEE9C400A904330ECF0A3EDF0800DD1
:1038AB0090432EE0FFA3E0A3CFF0A3EFF011EDE9DF
:1038BB004A6004313F80047E007F0090432CEE8FE2
:1038CB00F0121AD480BED322C3229045121250C0DC
:1038DB00C007904512121F4F904515125707D0077E
:1038EB00011790432B121F4F904330E0FFA3E09042
:1038FB0043B3CFF0A3EFF0904327121E2A121241CD
:10390B00904330E0FEA3E0FFC390432FE09FF09085
:10391B00432EE09EF0904327121E46E4FCFD121B43
:10392B00FC904327121EB790432B021F4FE0FCA3C2
:10393B00E0FDD322904330E0FEA3E0FF22E0FEA3A4
:10394B00E0FFC322904197121EB7E4F5FF75BB054C
:10395B0075BB8575FF0175D502202E077F3FFE9144
:10396B00D6B19775FF0143D520302E024114E4F5F3
:10397B00FF538EF7438E077D04E4F5FF8DBCF5FFF7
:10398B0043B102E5B130E2FBE4F5FFAFDFEFFEAC94
:10399B00DEECFBEBFFED25E02495F582E43441F5FD
:1039AB0083513BF5FFF5FF53B1FD0DEDB40CCA9000
:1039BB0041971226607809121D76A3513BFDED2528
:1039CB00E0249FF582E43441F583E0C313FAA3E0CE
:1039DB0013FB512EE0C313FEA3E0132BFFEE3AFEB5
:1039EB00512EEEF0A3EFF0ED240490120DF0EDC389
:1039FB0094075015CFEDCF0DEF512F314890419CCF
:103A0B00E09F90419BE09E50B5E4F5FF758EC8F5A5
:103A1B00FF90120DE0F5BCE4F5FF75BB8075FF015F
:103A2B00F5D522ED25E0249DF582E43441F5832282
:103A3B00EEF0A3EFF0E4227FC87E00710575FF0363
:103A4B0043918022C222E49046E6F0C223A3F0A366
:103A5B00F075FF01E5D520E702C322C235D1EC207A
:103A6B00220241F753F4DF9046E6E0FF12364AF1AB
:103A7B005030230543F440800353F4BFE4F5FF5368
:103A8B00F5F09046E7E0FAA3E0FBEA42F5EBF5F63A
:103A9B00D235D1EC5142E4F5FFE59320E604D1A2F7
:103AAB0040F4302353E5F430E3047D288010E5F433
:103ABB0030E2047D288007E5F430E1027D28B190E7
:103ACB007F285144D1A240FC7F785144D1A2502889
:103ADB00F14950F8F19FEFC39D50F1F14950EDE5DD
:103AEB00F720E5E8C235D1ECB19080E053F4BFF19B
:103AFB007B400543F420F1CAD32275FF03D3EF9427
:103B0B0002EE9400400874FE2FFF74FF3EFEEFF5AB
:103B1B0092EE540FF59122904031121EB790404116
:103B2B007401F0E4A3F0B1F175FF02E5E630E00EAD
:103B3B009040427401F0FB7A407942124748904022
:103B4B004C121EC3002DC6C0E4F5FFF5A490120F56
:103B5B00F09040437402F075FF03904043E0FFF593
:103B6B0095EF14601414601E2402702A90403112D9
:103B7B002660D19390403D8018904035122660D13D
:103B8B009390403E800B904039122660D193904029
:103B9B003FE0904050F0124F28904050E0700512DB
:103BAB0056C6806B90120EE004F0904043125722E1
:103BBB00904042E0701D90404C122660904048129D
:103BCB0046D4FBC3121D65500A904048122660A3D1
:103BDB00121EB7904050E0FF124DA9904040E0FFFD
:103BEB00904043E0FDA232922F124ED6904042E01D
:103BFB00701490404812266090461F121EB79040DA
:103C0B0043E0FF124523904043E0122653F10DF1A0
:103C1B00D160026162904042E07043A37402F07580
:103C2B00FF03904043125803701390404C1227B07F
:103C3B007801121D76904043122640F10DF1D170A0
:103C4B00DE90404C1256881227D2E4FB7A04F9F826
:103C5B001227C07801121D76904044121EB7F175E1
:103C6B00400343F420A2329230124E08904042E0BF
:103C7B0024FF922E9040441226601256AFE4F5FFBB
:103C8B0075E508F1F0E59B30E7FB91C275FF014349
:103C9B00D504514212278A91DA7B017A407941127D
:103CAB00477C90120EE0B40102F150904041E0B419
:103CBB000103D38001C322E4F5FF758EC8B197755C
:103CCB00FF0153D5FBB1907F147E007105514875F0
:103CDB00FF03E59120E7FB22E4904670F0A304F08C
:103CEB00E4904673F0E5FA30E1FB75FF01E5D53062
:103CFB00E7037F0022E4F5FF75E508F1CAE5D5304F
:103D0B00E61A75FF01904672E5DAF0E4F5DA75FF15
:103D1B0001E5D630E3FB9046737401F0F1F0E59BBF
:103D2B0030E7FBE4FB75FF038B95122652F10D0B6D
:103D3B00EBB403F175FF0375958091C275FF0143D9
:103D4B00D504904673E07006B1907FC891D47B0187
:103D5B007A46797112477C904671E09046707006F6
:103D6B00E04404FF8002E0FF904670EFF090120EEB
:103D7B00E0B40102F15075FF01904672E0F5DA9064
:103D8B004670E0FF2275FF03E4F59122E4F5FF7521
:103D9B00C2E17F1EF15730E707E4F5FF75C2A122A0
:103DAB00E4F5FF75C28122CDEFCDCCEECCF169AB42
:103DBB0094EF4B12462ECBEFCBFAE59130E719F18E
:103DCB006CA994E9F582EF4582FFEB1257DBC3EF49
:103DDB009582E5F0958340E2E59120E708CEECCEA5
:103DEB00CFEDCF91D62275FF0243E180F183F15FD6
:103DFB0053DB7F75FF0175D50291D2F15F43DB80F9
:103E0B0075FF01E4F5D522E0FF7B01904678EFF0DA
:103E1B00A3D19975FF01F1C46002C322E5F430E62A
:103E2B0002C3227FE87E0371055148D1AD400122C8
:103E3B00C234122EFC904678E0FF12364A53F4DF60
:103E4B00D234122EFC7F787E00B1B275FF0153E4A1
:103E5B00BFE5E430E7FBF1DA7F8AF15730E60890F3
:103E6B004679F1E7E4800A75FF01904679F1E7E5C1
:103E7B00D9121A0375FF0143E440F17B400343F46D
:103E8B0020D1AD400122D322904048021EB7EBF067
:103E9B00A3EAF0A3E9F02275FF03E591C330E70134
:103EAB00D322E5F730E50EE5F754C07004D1A240FC
:103EBB00F1B190C322D3227FFA5144E5FC30E604E2
:103ECB00D1A240F7E5FC30E6037F032275FF01E545
:103EDB00D530E6037F0222E5D57F0030E7027F0174
:103EEB0022AFF4EF547FF5F4303505EF4480F5F451
:103EFB0075FF01E5D520E702C322E5F4D330E601D7
:103F0B00C32290466C121EB775FF0190466CA3E05E
:103F1B00FDA3A3E4FFFEE4FC7810121D768FE19065
:103F2B00466CA3A3E0FEA3E4FFE4FDFC7808121D9E
:103F3B00768FE290466CA3A3A3E0FF8FE32275FF7D
:103F4B0001E5E4332275FF0143D81022FEB1B29094
:103F5B00120FE02275FF01438E1075FF012275FFD2
:103F6B0003AF93EF75F010A4FF2275FF03759580D7
:103F7B0090120EE0D3940122E5FA30E1FB75FC8040
:103F8B0075FF0153D5EFE4F5FC75FC40B190E5FCF2
:103F9B0020E6FB22F1DAAFD922E4FFE5F754C0604B
:103FAB000280F175FF01E5D530E30DF14950F4F1D5
:103FBB009FEF60EFF14950EB22D1C2EF6401227504
:103FCB00FF0153D8EF22904043E0FF14F0EF22752E
:103FDB00FF01E4F5EA75EAFF2290431CE0FBA3E046
:103FEB00FAA3E0F92275FF03759B0475FC4175FF7D
:103FFB00032275FF02D2ADD2BD75FF02758E7175AE
:10400B00740975FF02E58E546F4480F58E904664FB
:10401B00121EC30000000022C0E0C0F0C083C082AB
:10402B00C0D075D008C0FF75FF02E58E30E43A753D
:10403B00FF02E58E54EF4410F58E904664121E2A53
:10404B001227CC904664121EB79000001214B1E5F3
:10405B007430E0020519E574700D757409051FE5E0
:10406B001F7002051E8002157475FF02E58530E492
:10407B000875FF024385100577D0FFD0D0D082D0D2
:10408B0083D0F0D0E032E49044F8F00236669044EE
:10409B00FEECF0A3EDF09044FB121F6F11D7904490
:1040AB00FE11CB11919044FB12178E9044FB122CF6
:1040BB0059B4FF04E4121A039044FB122C59FF224B
:1040CB00E0FEA3E0FFA3E0FDA3E0FB229046E0129D
:1040DB001F6F9046E0122C59FF1237769046E01274
:1040EB001F4FE4021A037BFF7D019044F87403F029
:1040FB00023666E4FEEFC3940E5013EF123768E0FE
:10410B005D7C00B505027C01EC2EFE0F80E7AF064F
:10411B00227D02E4FF80DC7D017F0311FEAB0731C2
:10412B001CEF2BFF22E4FD7F0380C8122E375004B7
:10413B0031474003301A03D38001C322E5F754E023
:10414B0024FF22AF56EFC36001D322EFC3940E506E
:10415B000590080FEFF022E559540FFF22E559C3E4
:10416B0094F0501F5359F03191FE740FC39F4005CB
:10417B00EE940E400543590D8003EF4259E5595417
:10418B000FFF227F0022E559C4540FFEEF900778F2
:10419B00932E223191FFC3940E40027F0DEF9007B7
:1041AB005A93FF22EF30E30774532DF8E6FF227486
:1041BB005D2DF8E6FD201B04EE30E00BE559C394B2
:1041CB00F0502031F18018E55B6006FDE4F55B8073
:1041DB0012E559C394F0500BE559540FFF600431AD
:1041EB009EAD07AF052290080FE0FDFFC3740E5183
:1041FB0017EFC4F8540FC868FFEEC454F048FEE53F
:10420B005954F0D1E27F005002AF05229FFFE49496
:10421B0000FE22904674EDF0901211E0F46005A3BD
:10422B00E0B4FF0C9046767418F0A37413F0801072
:10423B00901211E0904676F0901212E0904677F0D3
:10424B00121944640160026186904674E0FE6408B2
:10425B006004EEB404089046757428F0800690460E
:10426B0075743AF0EF122653121D41E47187EF2457
:10427B00D8FFEE343FFEED3493FDEC3416FC7B009F
:10428B007A8079037800120479D1F9904677E0FFB0
:10429B00904676E0C35117E4FCFD121C17ECC0E00E
:1042AB00EDC0E0EEC0E0EFC0E0904677E0FFE4FC4D
:1042BB00FDFE7187D0E0FBD0E0FAD0E0F9D0E0F85A
:1042CB00EB2FFBEA3EFAE93DF9E83CF8904675E046
:1042DB00FFE4FCFDFE121C17EF2454FFEE340B120F
:1042EB0027D2E47BA87A16F9F8120479CBEFCB909E
:1042FB004674E014605D14601B24FE600C24FC709B
:10430B007AE4F5FF75CE318006E4F5FF75CE21F525
:10431B00FF8BCF22E4FAE4F5FFEA2440F5CEE4F577
:10432B00FFEAFFC37407511774992FF582740D3E82
:10433B00F583E4718FC39DF5CFE4F5FFEA2448F5CF
:10434B00CEE4F5FFEA900D99718F2DF5CF0AEAB403
:10435B0008C422E4F5FF75CE01F5FF8BCFF5FF7591
:10436B00CE0EF5FFEB25E0F5CFE4F5FF75CE0FF59F
:10437B00FFCFEBCFEB75F003A4F5CF227B64FAF9FB
:10438B00F8021C179325E0FDE433FCEB75F010A449
:10439B00FFAEF0121A49CDEFCDEBFFE4C313EF13D1
:1043AB0022904509D139EBF090450F7401F0C233DF
:1043BB0091C8123EA25005E5FC20E6F6123EC2BFA4
:1043CB000108E4F5FC75FC408008123EC2BF0202F6
:1043DB00D322123FCA90450AE0FFF11E75FF01532D
:1043EB00D5DF53FAFB904509E0FF12364A90450A98
:1043FB00E0904509B40815B116F583E0FCA3E0FD88
:10440B00A3E0FEA3E024521227CF8004E012265330
:10441B00123F0D90450BE0FFD12875FF0175FF038F
:10442B00759B0491C875FC42E5FC20E105123EA288
:10443B0040F390450CE0F075FF03E59B20E7051278
:10444B003EA240F3E59B20E70D75FF03759B1F1202
:10445B003F83D233804C91C1F14890450AE0FD90E7
:10446B00120FE05D701C904509E0FF91C1511E9049
:10447B00120FE0FF90450AE0FEEF4E90120FF01284
:10448B00278A123D977B017A45790DB100500FC3F6
:10449B0090450EE0942090450DE0940340E791C1C8
:1044AB00F17C123CDA30330261B390450FE0B4017A
:1044BB0003D38001C3227B017A45790F227FE87EEB
:1044CB000391D1023A48904668EE122E037A467950
:1044DB006AB100501490466AE0FEA3E0FF90466973
:1044EB00E09F904668E09E400B904668E0FEA3E09C
:1044FB00FF123B0522123F69AD94EF4DD12E8FF089
:10450B00121BB0E591C330E701D322E025E025E093
:10451B002401F582E434122290461EEFF0E4A3123C
:10452B0027B07801121D7690461EE0FBB117F5837C
:10453B00121EB7901210E064806074E0C3947F5039
:10454B003AEBB117F583C083C082122660EEC0E050
:10455B00EFC0E0901210E075F004A4AEF0FBCAEED1
:10456B00CAEA3395E0F9F8D0E0FFD0E0FEC3EF9B49
:10457B00FFEE9AFEED99FDEC98802C90461EB1163D
:10458B00F583C083C082D1D4FB901210E0F4047584
:10459B00F004A4FFAEF0EE3395E0FDFCEB2FFFEA49
:1045AB003EFEE93DFDE83CFCD082D083121EB722D3
:1045BB004357015357DF90098CE0FD31AF90098CC5
:1045CB00E0FDD1064004E4F5562243FA045357FBB1
:1045DB003029051237E2800A7F55B1EF7F55B1EFD5
:1045EB00D2EBD32275FF01E5D520E602C322E5FA13
:1045FB00540360FA75FF018FC3D3229009ABEDF022
:10460B00A3EFF07F01120D309009ABE0FFA3E0FBAD
:10461B00E490450CF07D0271AC50EDD32275FF0197
:10462B008FDA2224FBFFE5F034FF22EEF0A3EFF04C
:10463B00A3EDF0A32290467CD136EBF0D1ABD1C2E7
:10464B00C006C00790467CD1ECF8D007D006D31239
:10465B001D4F7E0050047F0180027F00C006C00703
:10466B00D1ABD0E02FFFD0E03E90467CF0A3EFF033
:10467B0053ECFC90467CD1CB42EC75FF02EDF5AFD1
:10468B0075ED0275ED04A3E0600543EC0880035360
:10469B00ECF790467FE0600443EC042253ECFB22E2
:1046AB0090467CE0FEA3E0FBAA06E4F9F87F807E4F
:1046BB00387D01FC020479AC00AD01AE02AF0322E0
:1046CB00E0FCA3E0FDEC540322E0F8A3E0F9A3E047
:1046DB00FAA3E02233FEE0C39FEE6480F874809867
:1046EB0022E0C313FEA3E013FBAA06E4F922C8ECF5
:1046FB00C8C9EDC9CAEECACBEFCB22C2ACE4F5698F
:10470B00F568F567F565F566F5647B017D01D140CC
:10471B00D2AC2275FF01E5D530E602C32253FACFA6
:10472B00EFB4080543FA308012EFB4040543FA20C6
:10473B008009EFB4020543FA108000D3229046E3C0
:10474B00123E997F017C127D01E4FE8D828C83EDFC
:10475B002EF582E43CF583E02FFF0EEEB412EC90C5
:10476B001213E06F600A9046E3123FE7E4121A035C
:10477B0022C22D75FF03759B1F75FF0390120FE06F
:10478B0020E71BE59A540FC394024012E04480F0DB
:10479B00E4F5FF75C2A143FC0475FF03D22DE5FCC4
:1047AB0030E609E59A540FC3940540CDE5FC30E69D
:1047BB0011E4121A0375FC80F5FC75FC40E5FC2036
:1047CB00E6FB302D0312278A229003FBE064027074
:1047DB001F8F5DAF058F5EAF038F5F900926E0F5EE
:1047EB0053A3E0F554A3E0F555AF5D120952D32264
:1047FB00C322900987121F6F124844E55D1248418E
:10480B00E92401F9E43AFAE55E121A0390098711DB
:10481B004AE55F121A03900987122D55F9E43AFA0B
:10482B00E55311411155E5541141E92405F9E43AD9
:10483B00FAE555021A03121A03900987021F4F1249
:10484B001F4FE92402F9E43AFA22E92404F9E43A85
:10485B00FA22E55954F0C4540F2FFFC394104002B1
:10486B007F0FEF90076893FF227E10EE60091EEE1C
:10487B0090076893B507F4EEC3940E40027E0DEEDD
:10488B0090075A93FF22122FDCF5D1E5D120E0FBE4
:10489B00E4F5FF75D90111BC648094805005E004E8
:1048AB00FF80027F001237DDD234122EFCE4F5506C
:1048BB002290121CE02401FFE433FEC3EF9403EEBD
:1048CB0022E4F556022FB4C2AFEF4257D2AF22EF1C
:1048DB0024FE600C24FE600580007F01227F0222F3
:1048EB007F0322755601755C07900821EFF0900845
:1048FB000E7403F0C374799B900832F0E49400902B
:10490B000831F022E55720E50A122FDCF5D1E5D16D
:10491B0020E0FBE4F55022312A50031214B122C3DC
:10492B00900814E094FF900813E094FF2290083154
:10493B00E0A3E0FF22900964121F6F900967EDF06E
:10494B00E4A3F0ED54FE900967F06030E4FF122809
:10495B0009BF0128900964121F4F1224FA501D90B1
:10496B000965E475F002121AD4900968E02402F08C
:10497B00900968E0FF900967E06F70D87F011228FB
:10498B0009900968E0FF22904619121F6F90461C90
:10499B00EDF0C394104004A37410F090461DE0FF9B
:1049AB007B017A12792431DA904619121F4F120AC1
:1049BB00BF904619121F4F90461DE0FF7C0029F94E
:1049CB00EC3AFA90461CE0C39FFD2140121F4F901A
:1049DB00454C021F6F7D023140EFC36001D322A211
:1049EB00EB922CC2EBEBC0E0EAC0E0E9C0E07B014C
:1049FB007A08791331DAD0E0F9D0E0FAD0E0FB7F16
:104A0B000C120ABFA22C92EB2290098DEFF0ED2431
:104A1B00FE60191460262402703BEB2402FFE43A7B
:104A2B00FE7C007D50121A377D60801E5188C33387
:104A3B00CE33CED8F9FF7C007D28800E5188C3334E
:104A4B00CE33CED8F9FF7C007D64121A4990098EC3
:104A5B00EEF0A3EFF090098DE05193C083C082126A
:104A6B001E4690098FE02401FF90098EE03400FE72
:104A7B00E4FCFD121BFCD082D083021EB7EB240199
:104A8B00FFE43AFEEF78032225E025E02423F582AC
:104A9B00E43408F58322EF5193121E2A021DECE435
:104AAB0090082351C6E4FFFEFDFC900827121EB7A9
:104ABB00E4FFFEFDFC90082B021EB7FFFEFDFC027F
:104ACB001EB790121DE0F4FFA3E06FFFA3E06FFF92
:104ADB00A3E06FFF6455601DEF64056018EF64255C
:104AEB006013EF6445600EEF64656009EF644A6024
:104AFB0004EFB40A010F90080DEFF022A2EB922BFA
:104B0B00C2EB7A0879137B017D0CE4FF120A8DA2AC
:104B1B002B92EB22E490459AF0FBFAF97132900854
:104B2B000BF0904595F022904596121F6FE42212E0
:104B3B000862904599E014F06005A3740580059018
:104B4B00459A7407F0022A3490459AE0FF64066098
:104B5B0004EFB40103122A3490080BE0600FE4F069
:104B6B00904595E07007717960031208C622901288
:104B7B0023E0543022E4904595F0020961120C2792
:104B8B0090121D121E2A120C2C903ECC121F6F710C
:104B9B00AE7E0B7F9B120C4A120A29EF5407C3609F
:104BAB0001D322911F120F54EF600F71C6E924E05D
:104BBB00F9E49043BC91271211F0227E127F94E40A
:104BCB00FCFD903ECC021F4F71CDE9240F71EC70B0
:104BDB000971CDE9240D71EC60047F0180027F0027
:104BEB0022F9EA3402FA0219447400913A7466F01D
:104BFB0071CD91317A3E79BC020A3D71C6E924E050
:104C0B00F9E490432E9127123817911F90462C04EC
:104C1B00F0020FA77E127F93E4FCFD223AFA740197
:104C2B00F0A37427F02290435A121F6F7B0122AD21
:104C3B0007AC06904358F0A3229047BDEFF0903E8F
:104C4B00CA1238106025903ECF123A3B903ECAF004
:104C5B00A3F09047BDE0FE7003FF8003EE14FF90BE
:104C6B003ECFE0FCA3E0FDF582801C903EC89198FE
:104C7B00601A9047BDE0FE7003FF8003EE14FF7BCC
:104C8B00017A3E79A98D828C831220E022E0FCA36D
:104C9B00E0FD4C229047BEEFF078A97C3E7E009160
:104CAB00B89047BEE0FF7DF47C01020C1D7D017FB7
:104CBB001302191EEF7011ED600775FF0143AE0172
:104CCB002275FF0153AEFE22EFB40114901242ED98
:104CDB00F0600775FF0143AE022275FF0153AEFD75
:104CEB002275FF02E5E630E2037F0322E5E630E3BF
:104CFB00037F0022E5E630E1037F0422E5E67F0532
:104D0B0030E0027F0122EF600775FF0253E6BF22FE
:104D1B0075FF0243E64022EF14600F146014240267
:104D2B0070188B8075FF018DFD228B9075FF018DA7
:104D3B00C9228BA075FF018DCA22AF038FB075FFFF
:104D4B0001AF058FCB22904503121F6FEF1460113B
:104D5B001460182402701EB18BE580B191E5FD80C3
:104D6B001CB18BE590B191E5C98012B18BE5A0B177
:104D7B0091E5CA8008B18BE5B0B191E5CB021A037E
:104D8B00904506021F4F121A0375FF01904503024F
:104D9B001F4FE4F5FFAF9122E4F5FFAF9222EF3006
:104DAB00E00E43F401E4F5FF43A404F5FF759624EC
:104DBB00EF30E10E43F401E4F5FF43A408F5FF7572
:104DCB009624EF30E20943F402E4F5FF75961EEFEB
:104DDB0030E30943F404E4F5FF75961075FF01EF1A
:104DEB005403600475D7122275D72D22E4F5FF7595
:104DFB0084E6F5FF439404F5FF75981422E4F5FF60
:104E0B0075933F75FF03759A40B1F7E4F5FF759CF9
:104E1B0093F5FF75A1A3F5FF758531F5FF75862811
:104E2B00E5FA54304480F5FA75FF0175E74A75FFD2
:104E3B000275DF4975FF0143D30475FF0153D36737
:104E4B00E4F5FF53E6BF75FF0175D825F5FF75B582
:104E5B0003F5FF75B215F5FF75BA02F5FF75AFB324
:104E6B00F5FF75CD0AF5FF75CB08F5FF75CA12F581
:104E7B00FF75BF0EF5FF75CC96F5FFF5BDF5FF750C
:104E8B00C281F5FF75AEE1F5FF75DA55F5FF75F5E6
:104E9B0080F5FF75E903F5FF75E933F5FF75972A83
:104EAB0075FF01759B42759CA4759D29759E487570
:104EBB009F2475A11275A312759AF820300CF5FF7B
:104ECB0043968090120FE04440F022CCEFCCCFED14
:104EDB00CF74017E00C8EFC8088005C333CE33CE34
:104EEB00D8F9FFCDECCDEF5D601B302F1875FF01AE
:104EFB0075DCAD75FF0175DDCDE4F5FF759A74F5C5
:104F0B00FF7594842275FF0175DC5375FF0175DD08
:104F1B0033E4F5FF759A14F5FF7594042275FF01C0
:104F2B0075E46575FF0175D64722E5F75406FFBF9B
:104F3B0006037F0822E5F75406FFBF04037F042214
:104F4B00E5F75406FFBF02037F02227F0122E5F73C
:104F5B0054C024FF22EF600775FF0243E610227551
:104F6B00FF0253E6EF22E5ED30E2FB75ED04AFEF08
:104F7B0022AFEF22E5ED20E0FB8FEF22EF60044341
:104F8B00EC042253ECFB22EF600443EC082253ECBD
:104F9B00F722E5ED5402FF22C0E0C0F0C083C082CF
:104FAB00C0D075D000C000C001C002C003C004C097
:104FBB0005C006C007C0FF12503EEF60291218262D
:104FCB00F17CE564C394204003756400E568C394E9
:104FDB00205010AE64056474F22E1255DCEFF00510
:104FEB00688003756820F19DEF6023121847E5690F
:104FFB00D394004019E56794204003756700AF67B1
:10500B00056774122F1136E0FF1200361569D0FFB9
:10501B00D007D006D005D004D003D002D001D000E9
:10502B00D0D0D082D083D0F0D0E032F582E4343EC1
:10503B00F58322E5ED5404FF22E5ED5401FF22C276
:10504B00AC1144EF7004E56960047F0180027F00BE
:10505B00D2AC22904298E0121A0390429DE090004D
:10506B0001121A1590429EE0900002021A15FEAF33
:10507B0001E4FDAB05E4FCFD90462CEBF0020FA721
:10508B00904165121F4FAE02AF017B017A417974DB
:10509B009045A07402F090459D11C0C00790459DAE
:1050AB00121F4F9045A0E0FF9043BCE4F0A3EFF03C
:1050BB00D0070211F0121F6FE4FCFD22904519116D
:1050CB00C0C007904519121F4F90451C3163D00784
:1050DB00903FE5121EB7903FE9121F6FE490400C12
:1050EB00F0D3903FEDE0941E903FECE09400400134
:1050FB00227B017A3F79EE903FEC3156903FE512DF
:10510B001E2A1211F0903FE9121F4FE94A600890D6
:10511B00400C314DFF80027F0090400CE024EEF5F7
:10512B0082E4343FF583E06F6002C32290400CE0D1
:10513B0004FFF0D3903FEDE09F903FECE0940050E4
:10514B00C422E0F582758300021981E0FFA3E09091
:10515B0043BCCFF0A3EFF022E0FFA3E0903FECCFF6
:10516B00F0A3EFF022E4FF02100190429AE0FF223D
:10517B00E490429AF022E4F5FF75D102E5D120E0EC
:10518B00FBE4F5FFF5D1EF6008E4F5FF43D2808037
:10519B0006E4F5FF53D27FEB6006E4F5FF43D10441
:1051AB00ED6006E4F5FF43D10822E4F5FF75D1026B
:1051BB00E5D120E0FBE4F5D1F5FFEF31D6EE540F4E
:1051CB0042D6E4F5FFCFEDCF8FD422F5D7E4F5FF30
:1051DB0053D6F022E4F5FFE931D6EA540F42D6223A
:1051EB00E4F5FFEFF5D8E4F5FF53D60FEE540F318E
:1051FB00FF42D622C4F854F0C8E4C4540F4822E44A
:10520B00F5FF8FD4F5FFCFEDCF8FD522E4F5FF8FD0
:10521B00D422E4F5FFE5D1540133333354F8FFE4E2
:10522B00F5FFE5D354074FFF22EFB40109D2AD755B
:10523B00FF0143AE4022C2AD75FF0153AEBF2275D5
:10524B00C80122E5C85402FF75C80222E5C8540400
:10525B00FF22E5C85401FF22E024FF923DEF54707A
:10526B0024F0602624F0603C24F0605224307067F8
:10527B00303D0B51E68002C333D8FC42802251E60D
:10528B008002C333D8FCF4528022303D0B51E680B0
:10529B0002C333D8FC42902251E68002C333D8FCC0
:1052AB00F4529022303D0B51E68002C333D8FC42BE
:1052BB00A02251E68002C333D8FCF452A022303D29
:1052CB000B51E68002C333D8FC42B02251E6800278
:1052DB00C333D8FCF452B02275FF01EF5407FF74AF
:1052EB0001A8070822EF547024F0601724F0601E09
:1052FB0024F060252430702B51E38002C333D8FC9B
:10530B0042FD2251E38002C333D8FC42C92251E350
:10531B008002C333D8FC42CA2251E38002C333D884
:10532B00FC42CB22EF547024F0601824F060202450
:10533B00F060282430702F51E38002C333D8FCF483
:10534B0052FD2251E38002C333D8FCF452C92251DF
:10535B00E38002C333D8FCF452CA2251E38002C368
:10536B0033D8FCF452CB22AD07ED547024F0601F00
:10537B0024F0603224F060412430705271DB8005E0
:10538B00C333CE33CED8F9AC8071E76001D3227131
:10539B00DB8005C333CE33CED8F9FFAC90ECFBEFFB
:1053AB005BC36001D32271DB8005C333CE33CED810
:1053BB00F9ACA071E76001D32271DB8005C333CE5A
:1053CB0033CED8F9FFADB0EF5DC36001D322C3225A
:1053DB00ED5407FF74017E00A8070822FFECFBEFDA
:1053EB005BC322EF14600D14600D14600D24037069
:1053FB000CAF8022AF9022AFA022AFB0227F002251
:10540B00EF6004904438F0900799E0FF90069F12EC
:10541B001F4F120AD8900799EFF06053200250905B
:10542B004436E0C330E501D3920790121BE0FD90A8
:10543B004439121F4F9008CF121F6F904437E090E2
:10544B0008D2F0904435E09008D39188F0900799FA
:10545B00E0FBE4FF12087BEF70229044387402F0FB
:10546B00904433E0FEA3E0F5828E837F02800A90A6
:10547B004438E0FF904433B16E1220E022F0A37465
:10548B0054F0A3740B229042C2B1619042CAE05413
:10549B0037F0E0FE5420904436F09042CBE0FDA371
:1054AB00E0904433CDF0A3EDF09042C6121F4F9025
:1054BB004439121F6F9042C9E0FD904437F090427F
:1054CB00C3121F4F90069F121F6FEE44209044355E
:1054DB00F0E4904438F0C202EDD3948140037F0096
:1054EB00227F0212096B9042CDB167605D9042C280
:1054FB00E0FF9042CD121F4FE924B6122DF19042DE
:10550B00CAE0FF30E00FE4900799F0B158EF640167
:10551B00A391888018B1589042CAE09008ECF090A3
:10552B004433E0FFA3E09008EDCFF0A3EFF09042FF
:10553B00CD121F4F9008EF121F6F9042C6121F4FD4
:10554B007D027F011208717F01227F00229042C9E8
:10555B00E09008EBF022EFF0A3021F6F121F6FEA2F
:10556B00494B22E0FCA3E0FDF5828C832290121BB9
:10557B00E0FFC003C002C00190439C121F4F90423A
:10558B00C6121F6F90439FE09042C9F09043A0E07A
:10559B009042CAF09043A1E0FDA3E09042CBCDF046
:1055AB00A3EDF0D001D002D0038191AF6822E56664
:1055BB00C394204003E4F566AF66056674F22FB121
:1055CB00DCE0FFC2ACE568D3940040021568D2ACB6
:1055DB0022F582E4343DF58322C2ACC37420956975
:1055EB00FFD2AC2212171422FF9031B8121F4FE9D1
:1055FB0022121F6F7B007A007900227B017D06E46B
:10560B00FF020A8D7D017B017E0002191EEEF0A3C5
:10561B00EFF0A3ECF0A3EDF0227B017A12791B9053
:10562B0045E0021F6F29F9EA3CA801FCAD03121FEC
:10563B004F02191E121F4F90000B02198190121B63
:10564B00E0FD8F828E83E4FF1220E0E490355AF068
:10565B00A322121F4F90000122E0FEA3E029F9EADA
:10566B003E22EFF0A3EDF0E4A3F022E0FCA3E0294F
:10567B00F9EA3CFA22E9240CF9E43AFA22E0FCA319
:10568B00E0FDA3E0FEA3E02420FFEE344E227B01DD
:10569B00FF020A8D121F6F021F84E0FF7E00EEF0E7
:1056AB00A3EFF02212394FE4F5FFE5BD54F84404A3
:1056BB00F5BD22121F4F7401021A03F5FFF5967503
:1056CB00FF0175D70975F418227B017E007F10222C
:1056DB00FDEDFFEEF0A3EFF022FDE4F0A3EDF022E1
:1056EB002420F9E43AFA22E92412F9E43A22F9E403
:1056FB003AFA740122121F4F90000322E0FFA3E03D
:10570B0090432ECFF0A3EFF022F0A3F0A3F0A3224F
:10571B00EEF0A3EFF04E22E033333354F8F5F422DE
:10572B00242DF9E43AFA7440021A03F9EA34FFFA29
:10573B00021F6F121F4F8D828C83229000137401F6
:10574B00021A157B017D01020B2390121DE0FFA3B2
:10575B00E022242EF9E43AFA7D04E4FF22900905B5
:10576B00744CF0A3749FF022EEF0A3EFF0AA06F9AD
:10577B007B012290414D021F6FFA740775F0D00226
:10578B001BB0E92403F9E43A22EF9DFFEE9CF0A352
:10579B00EFF022121B2BFFAEF022E99582EA9583E4
:1057AB0022121F6FE4FFFE22121F4F90442722127A
:1057BB001F4F8E8275830022F9E43AFAE4021A0332
:1057CB00E4FF120A8D7B01227D01121F4F7E002206
:1057DB002DF582EA3CF58322741CF0A3747DF02234
:1057EB00AF03EAF0A3EFF022120ABF90121BE022E4
:1057FB00FF54F0C4540FFE22E0F595E5F454072254
:107F7E00020002120B120E02043D02121013BB017C
:107F8E00B006043D0213C0145D00A20405220214C3
:107F9E00621C640807050522021C691C770013FF8A
:107FAE000522FFFFFFFFFFFFFFFF7FC6000000005F
:087FBE000000000003080000B0
:108000009043637420F090435DEEF0A3EFF0A3EC97
:10801000F0A3EDF0A3EAF0A3EBF0904363E0FB9054
:10802000435FE0F9A3E0F582E9F5837880EBF9E0BE
:10803000A3F608D9FA904361E0F9A3E0F582E9F5E7
:10804000837830EBF9E0A3F608D9FAEB25E0F99054
:10805000435DE0FFA3E0FAF582EFF583E4F0A3D9F6
:10806000FCEAF582EFF583EBFE7980E4FAEBFC782D
:1080700030C083C082E6F5F0E7A4FFE02FFDE435D1
:10808000F0FFEA2DF0E43FFAA308DCE9EAF0D08241
:10809000D083A309DED5229043F4EEF0A3EFF0A342
:1080A000ECF0A3EDF0A3EAF0A3EBF09043FAE0FBD1
:1080B0009043F6E0FAA3E0F582EAF5837880EBFAE4
:1080C000E0A3F608DAFA9043F8E0FAA3E0F582EAD2
:1080D000F5837830EBFAE0A3F608DAFA9043F4E09F
:1080E000FAA3E0F582EAF583C378807930E709FFE7
:1080F000E6083FF0A3DBF6E433FF229043FDEEF009
:10810000A3EFF0A3ECF0A3EDF0A3EAF0A3EBF09063
:108110004403E0FB9043FFE0FAA3E0F582EAF58335
:108120007880EBFAE0A3F608DAFA904401E0FAA3CB
:10813000E0F582EAF5837830EBFAE0A3F608DAFAA4
:108140009043FDE0FAA3E0F582EAF583C3788079F5
:1081500030E709FFE6089FF0A3DBF6E433FF229047
:10816000449CEEF0A3EFF0A3ECF0A3EDF09044A15B
:10817000E0FD90449EE0FAA3E0F582EAF583788082
:10818000EDFAE0A3F608DAFAEBF404FB90449CE085
:10819000FCA3E0F582ECF5837880E0FFE6086FFE53
:1081A000EB5EFEEF6EF0A3DDF1229007B7E0FCA3DB
:1081B000E04C60099007B71255701220E02222901F
:1081C0000990121F6F7F0112280912F8BC122B842C
:1081D00045F06023900990121F4FC003C002C001F8
:1081E00012F8BC122B84FFAEF0F58285F083D0012B
:1081F000D002D0031220E022E49009A0F1F875F03B
:10820000F8E5767178E054F064407002612CE490F7
:10821000099FF090099FE0FEC39404503C75F0F86C
:10822000EE7178E0FEB4010712F8FBE4FF802AEE5D
:10823000B4020C9009A1E0B4FF0512F8FB80129083
:10824000099FE075F0F87178E054F0FEBE80027F7F
:108250000190099FE004F080BAEF60069009A174D4
:10826000FFF09009A1E0F47002612C124136500237
:10827000612CE55730E102612C90099F7405F09064
