:020000040000FA
:100000000202DF0218034100E0002202180B222244
:0100100022CD
:07001300021813E4FFE1D223
:07001B0002181B75C8012249
:030023000218239D
:03002B0002182B8D
:030033000218337D
:03003B0002183B6D
:030043000218435D
:03004B0002184B4D
:030053000218533D
:03005B0002185B2D
:030063000218631D
:03006B0002186B0D
:10007300021873BB010689828A83E0225002E722B9
:10008300BBFE02E32289828A83E49322BB010CE54F
:100093008229F582E5833AF583E0225006E9258239
:1000A300F8E622BBFE06E92582F8E222E58229F57D
:1000B30082E5833AF583E49322BB010689828A832E
:1000C300F0225002F722BBFE01F322F8BB010DE53B
:1000D3008229F582E5833AF583E8F0225006E92583
:1000E30082C8F622BBFE05E92582C8F222C5F0F8D4
:1000F300A3E028F0C5F0F8E582158270021583E0CD
:1001030038F022A3F8E0C5F025F0F0E582158270FF
:10011300021583E0C838F0E822EF2BFFEE3AFEED3C
:1001230039FDEC38FC2275F008758200EF2FFFEEE5
:1001330033FECD33CDCC33CCC58233C5829BED9A10
:10014300EC99E58298400CF582EE9BFEED9AFDEC6E
:1001530099FC0FD5F0D6E4CEFBE4CDFAE4CCF9A8B4
:100163008222B800C1B90059BA002DEC8BF084CFBC
:10017300CECDFCE5F0CBF97818EF2FFFEE33FEED93
:1001830033FDEC33FCEB33FB10D703994004EB99BD
:10019300FB0FD8E5E4F9FA227818EF2FFFEE33FED0
:1001A300ED33FDEC33FCC933C910D7059BE99A4005
:1001B30007EC9BFCE99AF90FD8E0E4C9FAE4CCFB1D
:1001C3002275F010EF2FFFEE33FEED33FDCC33CC71
:1001D300C833C810D7079BEC9AE899400AED9BFDFA
:1001E300EC9AFCE899F80FD5F0DAE4CDFBE4CCFA0D
:1001F300E4C8F922EF5BFFEE5AFEED59FDEC58FC23
:1002030022EB9FF5F0EA9E42F0E99D42F0E89C451F
:10021300F022E8600FECC313FCED13FDEE13FEEFC9
:1002230013FFD8F122E8600FEFC333FFEE33FEED87
:1002330033FDEC33FCD8F122E0FCA3E0FDA3E0FEA8
:10024300A3E0FF22E0F8A3E0F9A3E0FAA3E0FB2296
:10025300ECF0A3EDF0A3EEF0A3EFF022A8828583E8
:10026300F0D083D082120276120276120276120244
:1002730076E473E493A3C583C5F0C583C8C582C878
:10028300F0A3C583C5F0C583C8C582C822E0FBA31C
:10029300E0FAA3E0F922F8E0FBA3A3E0F925F0F0EC
:1002A300E582158270021583E0FA38F022EBF0A3A1
:1002B300EAF0A3E9F022D083D082F8E493701274B9
:1002C3000193700DA3A393F8740193F5828883E4DB
:1002D300737402936860EFA3A3A380DF75812F0279
:1002E3000855900A1951B0AE071FEE6012900A1C10
:1002F30071031176FE900A197103EE11BC80E82296
:10030300E475F0018090900A54EEF0A3EFF09000B2
:100313004FE064016002619BC3900A54E09408506B
:100323000BE4FF914F900A54918380ECE4F50DFBAD
:1003330071C4AF0C121010E50DC39408504771C27D
:10034300E50D7F0071BCEF29F9EA3EFA900A1C51D2
:10035300B07B017A0979007FFF51E5E50DFEE424C6
:10036300FFFFE43E71BC8F828E83118F9009FFF0F3
:100373007B017A097900900A3DE50DF0AD0C12106E
:1003830037050D80B2900050513BE42FFFEE340847
:10039300919490005002167F900054E0FEA3E0FF7A
:1003A30071BD900A54E0FDA3E0900A05CD120AA89E
:1003B300900054EEF0A3EFF022FE90200141907BD9
:1003C300007A00791091D175FF031176F5D375FF8B
:1003D3000390000171EF90000271EF90000371EF41
:1003E30075D40175FF03E5D55402FF22118FF5D3B0
:1003F30075FF0322900A33E0FEA3E0FF912D914F96
:10040300900A35513BEF24019191900A3551539055
:100413000A589149900A58E07002A3E0700BFF7EDE
:1004230008710991DFF01215FD2291B3CD24FFCDA0
:1004330034FFFCC3ED9FFFEC9E541FFE74082F9105
:10044300E8FF22900A1374FFF5F001F091B3541FF3
:10045300FC74082DF58274203CF583EFF0902006A0
:10046300E0B42019A3E0B40014902005E02401FFB8
:10047300902004E03400541FF0A3EFF022902006F4
:10048300E475F00101F09000CE513BEF241BFFE433
:100493003EFEE43DFDE43CFC2291C7EF2401919133
:1004A300120C867404F0D1E3918991CC91F1F0227E
:1004B300902006E0FCA3E0FD902005E02DFD9020B8
:1004C30004E03C229000CE413B900087415375FFEE
:1004D3000375D40222900A17E0FF8101900A587431
:1004E30008F0A3E422F58274203EF583E022900015
:0704F300817408F0A3E4226C
:10050800AEFFEE54CFFEEFC454F024804EF5FF2228
:10051800D119EF541FFFF1E0A37401F01215C09038
:100528000A10E0FCA3E0FDAE047805CEC313CE1399
:10053800D8F9FF900A13EEF0A3EFF0ED541FA3F0E3
:10054800A3E4F0900A33F0A3F0C3900A11E09420DA
:10055800900A10E09400407C9146900A15E0FEA3B2
:10056800E0FF900A33EE8FF011F0900A13E0700468
:10057800A3E06406700AD119900A13E48FF011F011
:10058800D119900A33E48FF011F0120DB2EF600424
:10059800F1DE8005E4900A12F0900A33120FD2704F
:1005A8001D912D900A17EFF0910191D891D8900ADA
:1005B80013E07002A3E0604791D8914680F071F78C
:1005C80071F771F7900A13E07002A3E0603171F7D8
:1005D800914680F0900A109183800A900A10E0708A
:1005E80002A3E0600BD1199101900A10914980EBA8
:1005F800120DB2EF6004F1DE8005E4900A12F0906B
:100608000A12E06002A12712166E7109900A35419C
:100618003B900081E0B4082DA3E0B40028120DA59A
:100628007B017A0179009000FD7408F0A3E4F0D111
:10063800E3120DA5E42FFFEE3408919491CCE490D9
:100648000081F0A3F0900083120E8990008351532B
:10065800900081E475F0013106FE740025F0F58202
:1006680074013EF583E0FF229000ED51539000F1B4
:1006780051B0110FF134EF6004111080F7120F7CA4
:1006880060099000ED513B7810D1D89000EDD1D49D
:100698009000ED513BE480279000F4120FD945F00B
:1006A80060219000F15190EA494B60119000F1519E
:1006B800901176FFD1DB9000F2918380DBE4FFD1CB
:1006C800DB80D5F1CD9000D77401F022513B78083A
:1006D8005115E4E5C820E2FB8FEB229000F6515358
:1006E8009000FA51B0110FF134EF6004111080F747
:0806F800F1EE120F956009906C
:1007000000F6513B7810D1D89000F6D1D49000F685
:10071000F1E99000FD120FD945F06011F1889000C9
:10072000FA5190EF11BC9000FB918380E5120EF915
:10073000E4FFE1D27F01F1D23002161212D2F18829
:10074000900A5DEFF0120EF9900A5DE020E002C21F
:1007500002300219F1779000D4EF1212DA600BA385
:10076000E0F46006EF30E702C202120EF9E4FFF196
:10077000D2A202E433FF22F1F77FD7D1DB7FFFD192
:10078000DBF18C9000D3EFF07FFFD1DBE5C820E2F6
:10079000FBAFEB22900A3E5153110FF134EF60048E
:1007A000111080F7F1EE120F956009900A3E513B4F
:1007B0007810D1D8900A3ED1D4900A3EF1E9F18860
:1007C000900A42F1CB900A42E0FF22EFF0120EF9BC
:1007D000E4FFEFB4010443FE202253FEDF22D119CF
:1007E000900A10E4F0A3EFF022513BE4C1DB7F015B
:1007F000F1D2F1F77F03229000D8E051B908190433
:10080000082114082615082B17083B300840340827
:100810004536084A3700000833531AEF851A80809E
:100820002F531BEF8008531BDF8003531B7F851B57
:1008300090801D531CDF851CA08015531DFE800D6C
:10084000531DEF8008531DBF8003531D7F851DB0CE
:100850007F0CDFFE2275FF03759E029017FAE4936A
:10086000900A51F075FF02E5E654036002419F755E
:1008700010DE7511AD7512BE7513EFC2AF75FF02B4
:1008800075E404F5E4751AFF751BFF751CFF751DF3
:10089000FF7516FF7517FF7518FF7519FF75FF02B5
:1008A00053E6BF91B6121102B108EF640160024134
:1008B0009690180893FE740193FF90007FEEF0A3CA
:1008C000EFF0F5828E83E493FE740193FFC3EE9400
:1008D00080500280047E807F008E148F159193FFDC
:1008E000F5828E83740293F51E740393F51F7404CE
:1008F00093F508740593F509740693F50A74079344
:10090000F50BC201EF4E700221F4EFF4FFEEF44F4D
:10091000700221F4E514451EFEE515451FFFE508AC
:100920004EFEE5094FFFE50A4EFEE50B4F4E700205
:1009300021F4E51FF4FFE51EF4FEE515F4FDE514D2
:10094000F44EFEED4FFFE509F4FDE508F44EFEEF31
:100950004DFFE50BF4FDE50AF44EFEEF4D4E70023F
:1009600021F47F03120508E50B24FFFFE50A712B34
:10097000640370247F02120508E50924FFFFE508DF
:10098000712BB402137F01120508E51F24FFFFE558
:100990001E712BB40102D2012001597F01120508FA
:1009A000713F900A05E51EF0E51FB1AB71207F0293
:1009B0007134900A05E508F0E509711E7F03713472
:1009C000900A05E50AF0E50B711E7F0112050890FB
:1009D0000A52E0FEA3E0FF7BFF7A187900E42515B8
:1009E000900A06F0E51434E8900A05711F4EC370B2
:1009F00001D39201300109D159EF6401600241969F
:100A0000D2001204C77B017A007964918C741BF0C8
:100A10001206E3900064E0B4800B71D3EF7006120D
:100A2000161BEF6002C20030006830011A9193F586
:100A3000828E83740C93FE740D93FF90007DE06EA4
:100A40007003A3E06F604B90005012025F0000182B
:100A5000001204C71204CCB1A5EF24011204919135
:100A6000867404F01206E390008712048C900087CD
:100A700012167F1204F1F090004F04F01205187462
:100A800040D3950C400C1203C2AF0C121010050C91
:100A900080EDE4FFB1D4E4F510F511F512F5130281
:100AA0001800E0FD900A05E4F0A3EDF0900A00EED6
:100AB000F0A3EFF0A31202B0900A05F1D945F0605F
:100AC00054900A02120290120076900A07F0900ADF
:100AD000031204837D80ED60DF7115EE7C0030E74A
:100AE000027C01900A07E05D7B0060027B01EB6CF9
:100AF000FCEF25E0FFEE33900A00F0A3EFF0AF0427
:100B0000EF600C900A00E06410F0A3E06421F0EDC7
:100B1000C313FD80C1900A00E0FEA3E0FF22A3F012
:100B200051AC900A52EEF0A3EFF022347F8F82F5A1
:100B300083E49322120508900A52E0FEA3E0FF7BB3
:100B4000FF7A80790022900000EEF0A3EFF0A3126C
:100B5000023B900008120253900006E0FFA3E090D1
:100B6000000CCF805F90000CF1D2605EC3EF944028
:100B7000EE94004006A37440F0800590000EEFF064
:100B8000919BE0FF918CEFF090000812023B12065F
:100B9000E390000EE0FFC390000DE09FF090000C8A
:100BA000E09400F090000812024790000EE4FCFD73
:100BB000FE12011C90000812025371CA919B51A2AF
:100BC000900000EEF0A3EFF0809B900000E0FEA309
:100BD000E0FF221204C79180900006E4F07405B192
:100BE000AB9175C006C0071204C7EF240712049129
:100BF0009180900006E4F0A37414F0D007D0069121
:100C000075C006C007120489918091A540067EFF39
:100C10007FFF800690006512023B900006EEF0A375
:100C2000EFF0D007D006917591A540301204C7EFC0
:100C3000241AFFE43EFEED3401FDE43CFC9180907B
:100C4000006512023BEF2401FFE43E900006F0A392
:100C5000EFF0900A56E0FEA3E0FF9175900069E086
:100C6000FEA3E0FF900A56E06E7003A3E06F7F00E2
:100C700060027FFF227146900A56EEF0A3EFF02249
:100C80009000020202537B017A0079839000FDE418
:100C9000F0A32290007FE0FEA3E0227B017A00799E
:100CA0000F90000E22E47FFF7EFFFDFC9000651296
:100CB0000247D3020204E4900A5EF0900A5EE0FF6D
:100CC000D3946F501EEF2410FFB1E6900A5EE0FE51
:100CD000E42EF582E4344FF583EFF0900A5EE004F1
:100CE000F080D87B017A4F7900900A05E4F0A37474
:100CF00070F07F0F7E1D51ACEF4E7F0070027F01C0
:100D0000901218EFF024FF22E49000D2F07B017AD9
:100D10000079BD1213429000BFE0FF7411D39F50C1
:100D20005DE4FFFEFDFC7B017A0A794F9000FDF047
:100D3000A37402F01206E3900A4FE0FEA3E0FFE482
:100D4000FCFDB19F1204C7EF2402120491B19F125F
:100D500015619000CE1202471201F7900A4DEEF095
:100D6000A3EFF09000CE120247900A4D12154FFEED
:100D7000E4FCFD12011CB19F9000D27401F09000C0
:100D8000D2E0FB6017E4FFFE7D02FC9000BFE02490
:100D9000EFF9F81202289000B7120253AF03229025
:100DA00000CE02025390008702023BA3F07F0F7E29
:100DB0001D22E4FFFEFDFC90008391AF7F00400206
:100DC0007F01227F0F7E1D51A4900A0C1202909089
:100DD0000A0F41A2AB07E4FF9000D2E06007D18682
:100DE000D19DE433FF2275FF03E4F597F1E7E59722
:100DF00020E1FB75FF03AF9922900A48EFF0A3EDC5
:100E0000F0A31202B0900A49E06046901218E06028
:100E100012900A48E02410FFB1E6900A4A120290AC
:100E2000EF8017900A48E06401900A4A70071202A6
:100E3000907480800512029074FF1200BC900A4BDF
:100E4000120483900A49E014F0900A48E004F0800C
:100E5000B4227D01B1F97B0122E49000FFF0900003
:100E6000D2E0601C9000B712023BE4FBFA7902F872
:100E7000D3120204500AD1861207949000FFEFF0BB
:100E80009000FFE0FF229000CE12023BEF24FFFF14
:100E9000EE34FFFEED34FFFDEC34FFFC22900A47F8
:100EA000EBF0900A43120253900A4312023B1207DE
:100EB00094900A47E06F603C12000F120734EF6015
:100EC0000512001080F5F17C600B900A4312023B82
:100ED00078101206D8900A431206D4900A431207DB
:100EE000E9900A47E0FF1206DB1207CD9000D774A5
:100EF00001F0D322C3221206DBF1CCEF70FB90008D
:100F0000DAE0F4600A900A5A7406F0F17470FC900A
:100F100000D8E01202B90F32040F3A140F3F150F38
:100F200044170F54300F59340F5E360F63370000EB
:100F30000F4C431A10851A80802F431B10800843E2
:100F40001B208003431B80851B90801D431C208534
:100F50001CA08015431D01800D431D108008431DFA
:100F6000408003431D80851DB0900A5A740CF0F137
:100F70007470FC22900A5AE014F0E0227F011207FC
:100F8000D2D2021207F77F061206DBD1F91207F759
:100F90009000D6E0FF1206DB9000D9E06402221236
:100FA000000F120734EF600512001080F57F011268
:100FB00007D2D2021207F77F06D1F61207F77F0198
:100FC0001206DB7F03D1F6E4FF0207D2E5C8540422
:100FD000FF22E0FEA3E0FF4E2274FFF5F0020106BF
:100FE000AB05E4FCFDC19D75FF038F9875FF0322DF
:100FF00075FF03759701F1E7E59720E1FB75FF03A6
:10100000AF99221204D175FF03E5D5F45402FF22F3
:1010100075FF03EF543F4480F5D1E5D520E20AE5A2
:10102000D520E005E5D530E1F1E5D55403FF75FFA6
:101030000375D5050204D175FF03ACD5EC20E13C66
:1010400075FF03ED543FF5D175FF03E9F5D375FF47
:1010500003EA540FFF900A3DE0C4547044804FF5FA
:10106000D2E5D520E205E5D530E0F6E5D55401FC22
:1010700075FF0343D40275FF0375D505AF04227FC6
:10108000011207D2900A5B7401F0900A5BE06032B3
:1010900051D2120788900A5BEFF0120EF91207770F
:1010A0009000D4EFF0120EF9900A5BE0540151DA8F
:1010B00060D8A3E0F460D3EF30E7CFE4900A5BF0B0
:1010C00080C81207F77F9F1206DB1207889000D5B1
:1010D0001207869000DA1207869000DB1207CB9089
:1010E00000D3E0F4601BA3E0F460169000DAE0FDAA
:1010F000541F240FA3F0EDC413540744809000DA6A
:10110000F0227B017A0079D87F03120E527A00799F
:10111000E17F08120E527A0079DE7D027F09120DFE
:10112000F97B017A0079DC7D027F0B120DF99000CA
:10113000DC120FD26006BEFF1BBFFF189000E1E07B
:1011400024FD600304700451C880099000DCE4F0C1
:10115000A37440F09000E1E024FD60030470089067
:1011600000D97403F080069000D97402F09000D882
:10117000E01202B9119004119B1411A31511AB17C1
:1011800011C13011C93411D13611D937000011B64F
:1011900075FF015316EF8516FD804775FF01531744
:1011A000EF800E75FF015317DF800675FF0153179F
:1011B0007F8517C9802C75FF015318DF8518CA80F9
:1011C0002175FF015319FE801675FF015319EF8039
:1011D0000E75FF015319BF800675FF0153197F85F6
:1011E00019CB120EF97F1151BAE4FF7109117F90EA
:1011F00000D67402F09000DAE0247F6009047015D4
:1012000051C0740A800651E251C07458F09000D960
:101210007403F051C89000DBE0F4600241B7900025
:10122000DEE0FEA3E0FF64104E70069000DB740E5B
:10123000F0EF64204E70069000DB740FF0EF644016
:101240004E70069000DB7410F0EF64804E700690D4
:1012500000DB7411F0E4B5070AEEB401069000DB80
:101260007412F0E4B5070AEEB402069000DB7413C2
:10127000F0E4B5070AEEB404069000DB7414F0E461
:10128000B5070AEEB408069000DB7415F0E4B50764
:101290000AEEB410069000DB7416F0E4B5070AEE0F
:1012A000B420069000DB7417F0E4B5070AEEB440F2
:1012B000069000DB7418F0020F9FEF4420F5FE2229
:1012C0007F1051BA9000D6229000DC7401F0A3E4A4
:1012D000F0221207F77F050206DBF09000D3E0FF53
:1012E000F4229000D3E020E01F7F011207D2120702
:1012F000F77F3D1206DB7F2A1206DB7F801206DBBA
:101300007FA61206DB1207CD22900A5CEFF0900058
:10131000E1E06402702B7F011207D21207F7900AF6
:101320005CE07FAB60027FB91206DB120EF9900A17
:101330005CE09000E0F070047F1EDFFEE4FF120727
:10134000D2229000D5E01200BC9000DAE0900001BB
:101350001200CE9000DBE09000020200CEE4FCFD23
:10136000020794900A2F717FC007900A2F120290F3
:10137000900A32E0FF120C8CEFF0D0070206E31265
:1013800002B0E4FCFD22900A28717FC007900A2871
:10139000120290900A2BB122D00790008F120253B4
:1013A0009000931202B0E49000B6F0D3900097E062
:1013B000941E900096E094004001227B017A00790F
:1013C00098900096E0FFA3E09000FDCFF0A3EFF02F
:1013D00090008F12023B1206E3900093120290E9F4
:1013E0004A600F9000B6E0F58275830012008FFF0F
:1013F00080027F009000B6E02498F582E43400F586
:1014000083E06F6002C3229000B6E004FFF0D39047
:101410000097E09F900096E0940050BD229000E27B
:101420001202539000E61202B0B1139000E9B1220B
:101430009000E212023B719A500281CCB16190009F
:10144000E21202471201F79000EBEEF0A3EFF04E2C
:1014500060319000EBB14FFE9000EBF0A3EFF09005
:1014600000E9E0FCA3E0FDD39FEC9E5006A3ECF066
:10147000A3EDF091CEE94A6004B11980427E007F6D
:1014800000803C9000E9120FD2603F9000DCE0FC4D
:10149000A3E0FDD3EF9DEE9C400A9000EBECF0A39F
:1014A000EDF0800D9000E9E0FFA3E0A3CFF0A3EF03
:1014B000F091CEE94A6004B11980047E007F00906B
:1014C00000E7EE8FF01200F080B9D322C322900023
:1014D000E61202909000EBE0FFA3E09000F4CFF062
:1014E000A3EFF09000E212023B1206709000EBE0D6
:1014F000FEA3E0FFC39000EAE09FF09000E9E09EC9
:10150000F09000E2120247E4FCFD12011C9000E2A0
:101510001202539000E60202909000EBE0FEA3E07E
:10152000FF22E0FFA3E0900096CFF0A3EFF022901F
:101530000A21717FC007900A21120290900A24E0CC
:10154000FFA3E09000E9CFF0A3EFF0D007811DE00A
:10155000FEA3E0FFC39000DDE09FFF9000DCE09E73
:10156000229000DDE024FFFF9000DCE034FFFEE489
:10157000FCFD2212000F120734EF600512001080EC
:10158000F5229000D7E0FF22E49000D7F0229012DD
:1015900018E024FF22901218E060057F10020DE68B
:1015A0007FFF22E4902004F0A3F0A3F0A3F07B01DE
:1015B0007A2079089020011202B0E4902000F022F5
:1015C0001204DFF0900A3512025F0000000080D3A1
:1015D000902004E0FEA3E0FF24081204E8FDEF24BD
:1015E00001FFE43E541F902004F0A3EFF0A3120487
:1015F00049AF0522902006E0FEA3E0FF22902000E4
:10160000E0045403F07F0033333354F8FEEF240832
:10161000F974203EFA7B01A30202B0900054741DBD
:10162000F0A3740FF012049CE490004FF012051820
:1016300090006BE0FEA3E0FF900054E06E7003A307
:10164000E06F7F0060027FFF22EFB40109D2AD7529
:10165000FF0143AE4022C2AD75FF0153AEBF22E58C
:10166000C85402FF75C80222E5C85401FF22900A3F
:1016700058E0FEA3E0FFC3E49FFF74089EFE221221
:101680000253E4FB7A08F9F890005012023B120171
:04169000658F0C2234
:1017FA00043DFFFCFFFF0227D41A071A0C227FB808
:10180A00EF90181393901900730A20364CE553FF92
:10181A0022EFF553225A2D5761766520342E363140
:10182A00000241AA000D33B0000D33B000000000E1
:10183A00020C00013F3F3F04040440404000000006
:10184A0000024B92822D1C16131110101C141C1E20
:10185A00FF022FF9C2D5E830E70FB2D5E4C39BFBEC
:10186A00E49AFAE499F9E498F8EC30E717B2D51259
:10187A0018941221F8E4C39BFBE49AFAE499F9E478
:10188A0098F880031221F830D50DE4C39FFFE49E37
:10189A00FEE49DFDE49CFC227890E4F6D8FD9000DD
:1018AA00007F007E10E4F0A3DFFCDEFA903088A30C
:1018BA00E583C394204011FEAF829020000E0FE40E
:1018CA008002F0A3DFFCDEFA1219200227E6223298
:1018DA001CF01CFA1CFF1D041D091D0E1D181D22DB
:1018EA001D271D451D4A1C8C1CB91CBE1CC30003A8
:1018FA000102060405FFC0537419C0E0C082C08308
:10190A0075530AE5FF54CF4490F5FF22C05374196A
:10191A00C0E0C082C083755320E5FF54CF4490F5E0
:10192A00FF22C0537419C0E0C082C083755336E5E4
:10193A00FF54CF44A0F5FF22C0537419C0E0C082FF
:10194A00C08375534CE5FF54CF44B0F5FF22908015
:10195A000021169097FE211690808821169080C744
:10196A0021169098A0211690A34F211690A35221D8
:10197A001690A531211690A551211690A55421162D
:10198A0090A55B211690A868211690AFF8211690B1
:10199A009C32211690A4A6211690B042211690B826
:1019AA0001211690A586211690ACC0211690B8F197
:1019BA00211690B0FD211690B9AE211690B9C92111
:1019CA001690C0BE211690C1FC211690CDBF2116DB
:1019DA0090CB92211690C41D211690D8A52116905D
:1019EA00D8D1211690D8FB211690B50A211690CD90
:1019FA00F8211690C6A0211690C1AE211690D4A740
:101A0A00211690D7C1211690BD64211690C5B82120
:101A1A001690D30B211690E095211690AAD0211684
:101A2A0090CCEF211690E122211690BA0921169046
:101A3A00BADB211690DDDC211690E125211690E112
:101A4A0034211690B3B0211690E142211690CE06A9
:101A5A00211690E181211690CD0A211690E4BE212B
:101A6A001690CD70211690E3E2211690E48021169B
:101A7A0090CD27211690E489211690E29B21169099
:101A8A008153211690CDD9211690D448211690C899
:101A9A0090211690B251211690E538211690B24C39
:101AAA00211690E548211690C9F2211690CC2521DD
:101ABA001690AEDD211690E580211690DEE72116FC
:101ACA0090CB4E211690A398211690E59C21169052
:101ADA00D7B4211690D656211690D66D211690D6D7
:101AEA003A211690CF68211690CF6F211690CF7E9B
:101AFA00211690E5B2211690E703211690E3D4212E
:101B0A001690A4D4211690CD54211690E8DE211601
:101B1A0090E8F2211690CEC421169085E8211690FD
:101B2A00B9EF211690BCDD211690D2B0211690BBD8
:101B3A0089211690DD0B211690DE32211690E3C81A
:101B4A00211690E93A211690818C211690D97F218D
:101B5A001690A3EF211690A469211690DABA2116DD
:101B6A0090E972211690DC4E211690E98621169092
:101B7A00D4C2211690E99D211690CAF2211690E945
:101B8A00A0211690E9E8211690E1F7211690CF5C82
:101B9A00211690BEFD211690D761211690D73221C9
:101BAA001690BE50211690BCFA211690BBC0211681
:101BBA0090DE81211690CC93211690EA8521169009
:101BCA00A20C211690EA1E2116909A88211690EBF3
:101BDA00F42116909C5E211690ED1E211690ED2B95
:101BEA00211690E25B211690E220211690ED3B210E
:061BFA001690ED6C2116AF
:101C000090ED8B211690EDA9211690EE44211690AF
:101C1000EDFD211690A52221169098B021169095E1
:101C2000A7211690EEC0211690EEDE211690EF98B7
:101C3000211690EF5E21169097FA211690CD9621ED
:101C40001690EF8E211690B8AB214290B22121421E
:101C500090B357214290B974214290BA9121429099
:101C6000BACC214290BB6F214290BBC2214290BBB3
:101C7000D3214290BBE8214290BBEE214290A5A225
:101C8000214290A654214290BCB2214290BCBF2177
:101C90004290B2E1214290A80721429080832142E4
:101CA00090BD53214290AF9E214290984621429090
:101CB000800B2142908F86214290A840214290BE05
:101CC0001B2142908E19214290BE1C214290BE2EB3
:101CD000214290BE7921429097B1214290813B21CF
:101CE0004290BF3F214290BFE4214290B12921425E
:101CF00090BFF0214290AE6A214290BFFE214290F7
:101D0000C03B214290C0A7214290C13A214290B1EC
:101D100041214290C019214290B1E8214290AB6A22
:101D2000214290C0E1214290C191214290AF3D21DA
:101D30004290C277214290AE7B214290C2D721428D
:101D400090BF4C214290C33B214290A9E721429091
:101D5000ABDE214290BF9E214290C24C214290BFF7
:101D6000D7214290C33C214290C3E1214290C40C50
:101D7000214290C4DC214290C4A2214290C4F821A7
:101D80004290BB1F214290C766214290A002212CA5
:101D9000909CA9212C90A00D212C90A019212C9071
:101DA000A023212C90A038212C90A051212C909B75
:101DB000C0212C90A072212C909D04212C909D6E0E
:101DC000212C90A07C212C909DCA212C90A09121A7
:101DD0002C90A0A6212C909E33212C90A0B0212CD9
:101DE00090A0BA212C90A10F212C909B56212C90D1
:101DF0009B86212C908000212C90A1E1212C90A188
:101E0000E2212C909462212C9097BC212C909AC3B3
:101E1000212C909A47212C90A21F212C909F1921B0
:101E20002C90A50F212C909A9C212C00E709F608F4
:101E3000DFFA8046E709F208DFFA803E88828C8369
:101E4000E709F0A3DFFA8032E309F608DFFA8078C9
:101E5000E309F208DFFA807088828C83E309F0A33B
:101E6000DFFA806489828A83E0A3F608DFFA80586B
:101E700089828A83E0A3F208DFFA804C80D280FA5C
:101E800080C680D4806980F28033801080A680EA8A
:101E9000809A80A880DA80E280CA803389828A832F
:101EA000ECFAE493A3C8C582C8CCC583CCF0A3C820
:101EB000C582C8CCC583CCDFE9DEE7800D89828A84
:101EC00083E493A3F608DFF9ECFAA9F0EDFB22898D
:101ED000828A83ECFAE0A3C8C582C8CCC583CCF063
:101EE000A3C8C582C8CCC583CCDFEADEE880DB8925
:101EF000828A83E493A3F208DFF980CC88F0EF6054
:101F0000010E4E60C388F0ED2402B4040050B9F510
:101F100082EB2402B4040050AF2323458223901E99
:101F20007C73BB010689828A83E0225002E722BBD0
:101F3000FE02E32289828A83E49322BB010B898219
:101F40008A83F8E0C828F0E822500327C722BBFEA6
:101F500007F8E3C828F3E8228A838982E49322BB46
:101F6000010CE58229F582E5833AF583E0225006EB
:101F7000E92582F8E622BBFE06E92582F8E222E5A1
:101F80008229F582E5833AF583E49322BB0109892E
:101F9000828A83F8E028F022500327F722BBFE054F
:101FA000F8E328F3228A838982F8E4932822BB018C
:101FB0000FF8E58229F582E5833AF583E028F022DF
:101FC0005009C58229F8E58226F622BBFE09C582A2
:101FD00029F8E22582F222F8EA2583F583E993289D
:101FE00022BB010689828A83F0225002F722BBFEBF
:101FF00001F322F8BB010DE58229F582E5833AF56C
:1020000083E8F0225006E92582C8F622BBFE05E9E6
:102010002582C8F222EF8DF0A4A8F0CF8CF0A4287E
:10202000CE8DF0A42EFE22BC000BBE0029EF8DF059
:1020300084FFADF022E4CCF875F008EF2FFFEE330B
:10204000FEEC33FCEE9DEC984005FCEE9DFE0FD5BA
:10205000F0E9E4CEFD22EDF8F5F0EE8420D21CFE8E
:10206000ADF075F008EF2FFFED33FD4007985006F7
:10207000D5F0F222C398FD0FD5F0EA22C2D5EC309C
:10208000E709B2D5E4C39DFDE49CFCEE30E715B250
:10209000D5E4C39FFFE49EFE122027C3E49DFDE428
:1020A0009CFC800312202730D507C3E49FFFE49EE9
:1020B000FE22C5F0F8A3E028F0C5F0F8E58215820D
:1020C00070021583E038F022A3F8E0C5F025F0F0A7
:1020D000E582158270021583E0C838F0E822BB0162
:1020E0000A89828A83E0F5F0A3E022500687F0098E
:1020F000E71922BBFE07E3F5F009E3192289828A7A
:1021000083E493F5F074019322BB010789828A83EB
:102110000220B2500B09C5F027F7C5F01937F72296
:10212000BBFE0D09F8E325F0F3C5F019E338F322FF
:10213000F889828A8374019325F0C5F0F8E4933816
:1021400022BB010A89828A83F0E5F0A3F0225006BF
:10215000F709A7F01922BBFE06F3E5F009F31922EF
:10216000EF2BFFEE3AFEED39FDEC38FC22E88FF064
:10217000A4CC8BF0A42CFCE98EF0A42CFC8AF0ED0E
:10218000A42CFCEA8EF0A4CDA8F08BF0A42DCC38C2
:1021900025F0FDE98FF0A42CCD35F0FCEB8EF0A4FA
:1021A000FEA9F0EB8FF0A4CFC5F02ECD39FEE43CB4
:1021B000FCEAA42DCE35F0FDE43CFC2275F0087558
:1021C0008200EF2FFFEE33FECD33CDCC33CCC58272
:1021D00033C5829BED9AEC99E58298400CF582EE2E
:1021E0009BFEED9AFDEC99FC0FD5F0D6E4CEFBE416
:1021F000CDFAE4CCF9A88222B800C1B90059BA00DE
:102200002DEC8BF084CFCECDFCE5F0CBF97818EF38
:102210002FFFEE33FEED33FDEC33FCEB33FB10D739
:1022200003994004EB99FB0FD8E5E4F9FA227818FA
:10223000EF2FFFEE33FEED33FDEC33FCC933C91055
:10224000D7059BE99A4007EC9BFCE99AF90FD8E087
:10225000E4C9FAE4CCFB2275F010EF2FFFEE33FE59
:10226000ED33FDCC33CCC833C810D7079BEC9AE8CC
:1022700099400AED9BFDEC9AFCE899F80FD5F0DA4D
:10228000E4CDFBE4CCFAE4C8F922EF5BFFEE5AFEA2
:10229000ED59FDEC58FC22C3E49FFFE49EFEE49D53
:1022A000FDE49CFC22EB9FF5F0EA9E42F0E99D42A2
:1022B000F0EC6480C864809845F022EB9FF5F0EA6A
:1022C0009E42F0E99D42F0E89C45F022E8600FEC68
:1022D000C313FCED13FDEE13FEEF13FFD8F122E85C
:1022E000600FEFC333FFEE33FEED33FDEC33FCD86C
:1022F000F122BB010789828A830223695005E9F82C
:10230000022521BBFE05E9F802252D22E0FCA3E011
:10231000FDA3E0FEA3E0FF22E493FC740193FD74AF
:102320000293FE740393FF22E0F8A3E0F9A3E0FA1E
:10233000A3E0FB227401FF3395E0FEFDFCA3A3A301
:10234000E02FFFF0E582158270021583E03EFEF07B
:10235000E582158270021583E03DFDF0E58215826D
:1023600070021583E03CFCF022ECF0A3EDF0A3EE4C
:10237000F0A3EFF022A8828583F0D083D0821223CD
:102380008C12238C12238C12238CE473E493A3C548
:1023900083C5F0C583C8C582C8F0A3C583C5F0C591
:1023A00083C8C582C822A42582F582E5F03583F56D
:1023B0008322E0FBA3E0FAA3E0F922EBF0A3EAF02A
:1023C000A3E9F022E493FB740193FA740293F922D7
:1023D000BB010789828A830223B25005E9F80225EE
:1023E00039BBFE05E9F802254B89828A830223C4A2
:1023F000BB011A89828A83D0F0D0E0F8D0E0F9D00E
:10240000E0FAD0E0FBE8C0E0C0F00223BB5016E9E0
:10241000F8D083D082D0E0F9D0E0FAD0E0FBC082DF
:10242000C083022542BBFE16E9F8D083D082D0E0FB
:10243000F9D0E0FAD0E0FBC082C08302255422BB71
:10244000010DE58229F582E5833AF5830223B25036
:1024500007E92582F8022539BBFE07E92582F80243
:10246000254BE58229F582E5833AF5830223C4BB37
:102470000120E58229F582E5833AF583D0F0D0E0AA
:10248000F8D0E0F9D0E0FAD0E0FBE8C0E0C0F0021C
:1024900023BB5018E92582F8D083D082D0E0F9D050
:1024A000E0FAD0E0FBC082C083022542BBFE18E9FF
:1024B0002582F8D083D082D0E0F9D0E0FAD0E0FBDA
:1024C000C082C08302255422D083D082F8E4937066
:1024D00012740193700DA3A393F8740193F582888D
:1024E00083E4737402936860EFA3A3A380DF8A83FD
:1024F0008982E473EC8EF0A4CCC5F0CCCDF8EFA4C7
:10250000CEC5F02DFDE43CFCE8A42EC8C5F03DFD91
:10251000E43CFCEFA4FFE5F028FEE43DFDE43CFCD8
:1025200022ECF608EDF608EEF608EFF622ECF208DB
:10253000EDF208EEF208EFF222E6FB08E6FA08E612
:10254000F922EBF608EAF608E9F622E2FB08E2FADD
:1025500008E2F922EBF208EAF208E9F22241073533
:1025600000C133C13641073400E002020000381FC9
:10257000E0020200022FCFE004020004465245456B
:10258000E00102001554E001020016A5E0E8022572
:1025900068FEFEFEFEFEFEFEFEFEFEFEFEFEFEFEF1
:1025A000FEFEFEFEFEFEFEFEFEFEFEFEFEFEFEFE4B
:1025B000FEFEFEFEFEFEFEFEFEFEFEFEFEFEFEFE3B
:1025C000FEFEFEFEFEFEFEFEFEFEFEFEFEFEFEFE2B
:1025D000FEFEFEFEFEFEFEFEFEFEFEFEFEFEFEFE1B
:1025E000FEFEFEFEFEFEFEFEFEFEFEFEFEFEFEFE0B
:1025F000FEFEFEFEFEFEFEFEFEFEFEFEFEFEFEFEFB
:10260000FEFEFEFEFEFEFEFEFEFEFEFEFEFEFEFEEA
:10261000FEFEFEFEFEFEFEFEFEFEFEFEFEFEFEFEDA
:10262000FEFEFEFEFEFEFEFEFEFEFEFEFEFEFEFECA
:10263000FEFEFEFEFEFEFEFEFEFEFEFEFEFEFEFEBA
:10264000FEFEFEFEFEFEFEFEFEFEFEFEFEFEFEFEAA
:10265000FEFEFEFEFEFEFEFEFEFEFEFEFEFEFEFE9A
:10266000FEFEFEFEFEFEFEFEFEFEFEFEFEFEFEFE8A
:10267000FEFEFEFEFEFEFEFEFEE001022650FFE034
:102680000102268B28E001022F9EFFE005022FCCDD
:102690002FCF02043D4103EB060114004103EA0180
:1026A0004103E801C13B011900011700412CD10091
:1026B00041292B004128CC055D2BDB0000000000E8
:1026C000000000000000000000000000000000000A
:1026D0000000000000000000C1414327C3000000CB
:1026E0004127D400C111C12D013800C129C12AC11F
:1026F0002B41307800C165432C49000000412C4833
:1027000000412C4C00412DF9FFC137C139C1444172
:102710002C7000015200C127C125412C6200412CC0
:102720006F00602825F10522000000030008FE87E5
:102730007F88CF7FC04FFBDFFDE067008080008097
:1027400086000000E87300800F0000600000412157
:10275000640041217600412167004121610141214E
:1027600069024121620141239A00C148C1494129BE
:102770003C964129380FE002022FD10033E00502D8
:102780002FFF0033040522E0020230040807E005B1
:102790000238060807050522412DCEFF412DC7FF4F
:1027A000412DCA00412DCD00C16BE00202380B0063
:1027B00013E00C02380D0000030800030008052296
:1027C000043DE0050238190013FF0522E00202383B
:1027D0001E00000075819075FF03759E021219207E
:1027E000023D2D0218D890255DE47E019360F4A38C
:1027F000FF543F30E509541FFEE493A360010ECF60
:1028000054E0B4E00EEFFAEEF9A3A3A3A3DAFDD9E6
:10281000FB80D654C025E0604B5026E493A3F854C7
:1028200007240CC8C333C4540F4420C8834004F4A5
:1028300056800146F6DFE480B00102040810204013
:1028400080E493A3FAE493A3F8E493A3C8C582C8F1
:10285000CAC583CAF0A3C8C582C8CAC583CADFE98E
:10286000DEE78085E493A3F8E493A34003F68001B8
:10287000F208DFF40227E91A431A481A4D1A521ACD
:10288000571A5C1A611A661A6B1A701A751A7A1A34
:102890007F1A8E1A931A9D1AA71AF71AFC1B011B8E
:1028A000061B0B1B101B151B1A1B291B331B471B5D
:1028B0004C1B511B601B651B9C1BA11BA609040024
:1028C00000020A000000070582022000000705023E
:1028D0000220000009040100010202010005240099
:1028E0001001052401000104240200052406000152
:1028F00007058103080020120100020200000858A9
:1029000006000200000000000109020000000100B2
:10291000803204030409A280CACF0998445CAD55F3
:102920000641469503861C551D8B1D901D951D9ACD
:102930001D9F1DA41DA91DAE1DB31DB81DBD1DC22B
:102940001DC71DCC1DD11DD61DDB1DE01DE51DEADB
:102950001DEF000000000000000000000005000066
:1029600006000000100000242880000024208000C1
:10297000001138210000442880000044208000001D
:1029800034382100003F241E16110E0B09070504E0
:10299000030201F0C8A791776760463835323024CA
:1029A00022201400010102020303040405050606A7
:1029B00007071E1C1E211E262A1D1BCE1BE258ECDB
:1029C000E4FD7C0CAB050DEB90181F938F828E837A
:1029D000F00FBF00010EDCEC7F01228F828E83E4BA
:1029E000F0740431EE743D31EEA3A3E4F022A3F0C1
:1029F0008F828E83A32290305AEFF0902CE2E0B4C5
:102A00000110C2ED7A30795A902D645113121C7D59
:102A1000D2ED227B011223BB7A2C79E322902CE2A7
:102A2000E0640170287B017A2C79E3121C87EF7037
:102A30001C90305BF0C2ED7A30795B902D455113DC
:102A4000121C82D2ED90305BE0FF121C5022902CC1
:102A5000E27401F0FB51737E2A7F1D90073DE0FC7C
:102A6000A3E04C700590073D8002C322EEF0A3EF77
:102A7000F0D3227A2C79EB902E151223BB902E18CE
:102A80007401F0A37405F07A2C79E3021C787F01BD
:102A9000519E902CE2E0B401047B01517322EF605F
:102AA0000E123F5DAF82AE83E4FD124AC780103044
:102AB00033037F0022121C41124E28E433FF227F91
:102AC000012290049C1223BBD24DC2EBE51460029C
:102AD000A13AE51530E202C322B14324E512503F8A
:102AE00012517990049CB18F5407FF9003EAF012C1
:102AF0004FD690049FEFF0E51520E06ED1714004B1
:102B00007F01519E90049FE0FF7B017A0479A0121F
:102B1000465AE4337004D2EBA11A90049FE024C912
:102B2000125D92E0FF9004A0E0D39F403DD2EB12F3
:102B300050CBA23A92ED9003FBE06014B14324E540
:102B4000F9E43AFA7401121FE1431504D15BD32270
:102B5000900409E070127A0479097C477DF9746465
:102B6000F1F2E4A3F01219DAC322D1715005C25672
:102B70001245AD124DE6E5D120E0FBE4F5109004DE
:102B80009CB18F5407C39403E494005032B14324A2
:102B9000B1B188B14224D8B1882FFFE433FED3EF1E
:102BA0009440EE648094804016B14324E5F9E43A01
:102BB000FA7402121FE1431504A23A92EDD322B136
:102BC000432408F9E43ACFE9CFF5118F12B1432439
:102BD000B1B188F516AE11125884B14324B2F9E4AC
:102BE0003A8B1CF51D891EB14324D8B188F51F907E
:102BF000049CB18FFDACF05460602FB14324D9B177
:102C000088FF1250A5C24DB178FB7A0090040A12D9
:102C10005D8A7D18122015EF2BFFEA3EFEEF24148B
:102C2000FBE43EFA7D027F01A10790049CB18F5422
:102C3000079003EAF0751408B14324B2F9E43AFAB4
:102C4000124DF2B14324D8B188FFAD16124FA690B1
:102C500003EAE0640370267B01FDFFB1ABB14BB129
:102C60009C50057401121F8CE4F5FF124F93121F44
:102C7000222428FBE433FA7D03E4FFA1079003EA52
:102C8000E064027029B14BB19C400574FF121F8CA7
:102C9000E4F5FFE5D25480440AF5D2121F22241431
:102CA000FBE433FA7D027F01B1DFB1A6805BB1A600
:102CB000B14BB19C400574FF121F8CE4F5FF9004EA
:102CC0009CB18F441045F07F0560027F0AEF547F6E
:102CD000FFE5D254804FF5D2E4F5FF43D280B178BE
:102CE000FD7C0090049CB18F441045F07E00600490
:102CF0007F0A80027F05EF25E0FFEE33FEEF2DFB1C
:102D0000EE3CFA7D017F01B1DF90049CB18FFFAEF4
:102D1000F0A24D924C124A724006A23A92EDC322A2
:102D2000D15B90049FE0B14224E7F9E43AFAEF1254
:102D30001FE1A23A92EDD2EBD322A23A92EDD2EB6E
:102D4000C322FF90049C1223B2E92290049C122318
:102D5000B2E924B1F9E43AFA121F22FF90049C125E
:102D600023B2E924D8F9E43AFA121F222FFFE43300
:102D7000FEEF2401FFE43EFE90049C1223B2E924FE
:102D8000B2F9E43AFAE92407F9E43AFA021F221206
:102D900023B2E92404F9E43AFA0220DED39FEE6478
:102DA00080F874809822E4FB7D01FFE4F5FF75D183
:102DB00002E5D120E0FBE4F5FFF5D1EF6008E4F592
:102DC000FF43D2808006E4F5FF53D27FEB6006E438
:102DD000F5FF43D104ED6006E4F5FF43D1082290EE
:102DE00004C7EFF0ED24FE60191460262402703B46
:102DF000EB2402FFE43AFE7C007D501220157D603A
:102E0000801ED150C333CE33CED8F9FF7C007D284D
:102E1000800ED150C333CE33CED8F9FF7C007D6411
:102E20001220279004C8EEF0A3EFF09004C7E01240
:102E3000516BC083C0821223289004C9E02401FF93
:102E40009004C8E03400FEF1ECD082D08302236904
:102E5000EB2401FFE43AFEEF780322E49003FBF059
:102E60007B017A0479090219D5C2EBA2ED923AC22C
:102E7000EDE5F4C330E701D322902D2112540390E5
:102E80002D2712237500000001902D2B7401F0F501
:102E9000FFE5D554C07004D1715002C322E4F5FFA0
:102EA00053967F75FF0175D5047F3FFE1247357538
:102EB000FF0143D508E4F5FF5394FBF5FF53847FEE
:102EC000F5FF7598FF902D25E5F4F075F49C75FFDE
:102ED00001A3E5E4F075E4257B017A2D792B1253EB
:102EE000D0902D2BE064016002E1A5F5FF902D2428
:102EF0007414F0902D27F1D5FF78011222DF902D68
:102F000027122369E5A730E1FB43A702902D27F1A3
:102F1000D5FFE5A730E005E47B018002E4FBFAF988
:102F2000F8EF4BFFEE4AFEED49FDEC48FC902D27F3
:102F3000122369902D24E014F070B8902D27F1D55C
:102F4000FF78101222CC7B6D7A4E79C6784112211F
:102F50006DEF2439FFEE3430124239E4FBFA790187
:102F6000F81221F8EE547FFEE4FDFC124FB3902DD1
:102F700027F1D5FFEB6FFFEA6EFEE8CDEFCDCCEE8B
:102F8000CCECFF902D21F1E3EF121FE1902D21F108
:102F9000E3900001ED121FF390120FE030E606E41B
:102FA000F5FF75968075FF01E4F5D5902D25E0F5C8
:102FB000F475FF01A3E0F5E412566A902D2BE0B4FE
:102FC0000103D38001C322EB25E025E02401F58233
:102FD000E43412F583E0FCA3E0FDA3E0FEA3E022CD
:102FE000902F58E0FBA3E0FAA3E0F922E4FCFD02F5
:102FF00021607B01902E6EF022C0E0C0F0C083C043
:1030000082C0D075D000C000C001C002C003C0049F
:10301000C005C006C00790305CE5FFF075FF02E513
:10302000D430E60C75D440902EA831606002316730
:1030300075FF02E5D430E50C75D420902EAA3160DE
:103040006002316775FF02E5D430E40A75D41031AF
:103050005D6003125D3475FF02E5D430E30C75D476
:1030600008902EA831606002317075FF02E5D430FF
:10307000E20C75D404902EAA31606002317075FFA5
:1030800002E5D430E11875D40212403AEF600F31F6
:103090005D6005125C6A800612400812403275FFBE
:1030A00002E5D430E01075D401315D60098F828E65
:1030B000837F071224F275FF02E5D530E40C75D545
:1030C00010315D60058F82125DC175FF02E5D5305C
:1030D000E10A75D502315D6003125C1575FF02E5EA
:1030E000D530E01075D501315D60098F828E837F08
:1030F000041224F275FF02E5D530E21075D50431D3
:103100005D60098F828E837F0A1224F275FF02E5CB
:10311000D530E71075D580315D60098F828E837F51
:10312000081224F275FF02E5D530E61075D540315E
:103130005D60098F828E837F091224F290305CE0FB
:10314000F5FFD007D006D005D004D003D002D001BF
:10315000D000D0D0D082D083D0F0D0E032902EAC4E
:10316000E0FEA3E0FF4E228F828E837F010224F2D5
:103170008F828E83E4FF0224F2125BA51223BB90A0
:103180002D301223B2902D33125CC0902D2C1223BF
:103190000C12396750024132125C1E902D2C122302
:1031A0002812228A902D35125D2D6039902D35120E
:1031B0005518125C84902D35F0A3EFF0902D33E07C
:1031C000FCA3E0FDD39FEC9E5006A3ECF0A3EDF032
:1031D000125B661223B2E94A6005125D4780467EA3
:1031E000007F008040902D3331606044902CCDE012
:1031F000FCA3E0FDD3EF9DEE9C400A902D35ECF052
:10320000A3EDF0800D902D33E0FFA3E0A3CFF0A35A
:10321000EFF0125B661223B2E94A6005125D478047
:10322000047E007F00902D31EE8FF01220B280B529
:10323000D322C322902D7F122369902D831223BBAA
:10324000F18A7142EF6004F19980F7B17364026012
:103250000A902D7F12230C7810519F902D7F519A48
:10326000902D7F12230CE48024902D86F1F66021AE
:10327000902D831223B2EA494B6010902D83125C8B
:10328000A5FF51A3902D84F1D480DEE4FF51A380EB
:10329000D891AF902CC87401F02212230C78081238
:1032A00022CCE4E5C820E2FB8FEB227F0191B390B2
:1032B000305F7401F090305FE0602EF1B4713690B1
:1032C000305FEFF071E67125902CC5EFF071E6905C
:1032D000305FE05401F1E260DCA3E0F460D7EF304E
:1032E000E7D3E490305FF080CC71857F9F51A3716C
:1032F00036902CC67134902CCB7134902CCCEFF0DE
:1033000091AF902CC4E0F4601BA3E0F46016902C05
:10331000CBE0FD541F240FA3F0EDC41354074480E9
:10332000902CCBF02271857FD751A37FFF51A371E1
:103330003A902CC4EFF07FFF51A3E5C820E2FBAF29
:10334000EB227F0191B3305714F1B47136903061A4
:10335000EFF071E6903061E020E002C2573057177D
:103360007125902CC5EFF1E2600BA3E0F46006EF4D
:1033700030E702C25771E6E4FF91B3A257E433FF8E
:10338000227F0191B3902CC9E01224C833A80433E2
:10339000B01433B51533BA1733CA3033CF3433D4FE
:1033A0003633D937000033C25334EF853480802F51
:1033B0005335EF80085335DF800353357F853590D3
:1033C000801D5336DF8536A080155337FE800D53A0
:1033D00037EF80085337BF800353377F8537B07F7F
:1033E0000CDFFE2251A31258E0EF70FA902CCBE0D4
:1033F000F4600A90305E7406F0F1EA70FC902CC91B
:10340000E01224C8342004342814342D1534321723
:10341000344230344734344C363451370000343A77
:10342000433410853480802F433510800843352085
:103430008003433580853590801D4336208536A036
:103440008015433701800D43371080084337408093
:10345000034337808537B090305E740CF0F1EA702A
:10346000FC22902F0B122369902F0B12230C91BF7B
:10347000902F0FE06F6034F18A7142EF6004F19990
:1034800080F7B1736402600A902F0B12230C78103E
:10349000519F902F0B519A902F0BF1AE902F0FE070
:1034A000FF91AD902CC87401F0D322C32251A371B7
:1034B000E6E4FFEFB4010443FE202253FEDF229036
:1034C0002F06122369F18A7142EF6004F19980F7A7
:1034D00071817F03B1886402600A902F0612230C69
:1034E0007810519F902F06519A902F06F1AE7136A9
:1034F000902F0AEFF091AF902F0AE0FF22F18A712E
:1035000042EF6004F19980F77F0191B3D257718542
:103510007F0671E471857F0151A37F0371E4E4FFAD
:103520008091902D88122369902D8C1223BBF18AF3
:103530007142EF6004F19980F771817F03B1886473
:1035400002600A902D8812230C7810519F902D88CC
:10355000519A902D88F1AE902D8FF1F6600F713653
:10356000902D8C125BE2902D8DF1D480EA71E6E40F
:10357000FF81B37F0191B3D25771857F0651A3714B
:10358000E67185902CC7E0FF51A3902CCAE02290F1
:103590002CC4E020E01271817F3D51A37F2A51A30A
:1035A0007F8051A37FA691AD22903060EFF0902CE8
:1035B000D2E0640270227181903060E07FAB6002E3
:1035C0007FB951A371E6903060E0902CD1F0700487
:1035D0007F1EDFFEE4FF91B3227B017A2C79C97D47
:1035E000017F03121C5F7A2C79D27F08125CE97A82
:1035F0002C79CF7F09F1DB7A2C79CD7F0BF1DB9031
:103600002CCD31606006BEFF1CBFFF19902CD2E0AC
:1036100024FD6003047005125D3D8009902CCDE40B
:10362000F0A37440F0902CD2E024FD6003047008F5
:10363000902CCA7403F08006902CCA7402F0902C6F
:10364000C9E01224C8366104366C14367415367C11
:1036500017369230369A3436A23636AA37000036FC
:103660008775FF015330EF8530FD804775FF0153AB
:1036700031EF800E75FF015331DF800675FF015376
:10368000317F8531C9802C75FF015332DF8532CA05
:10369000802175FF015333FE801675FF015333EF10
:1036A000800E75FF015333BF800675FF0153337FD2
:1036B0008533CB71E67F11F1BAE4FFB1A951AB902C
:1036C0002CC77402F0902CCBE0247F6009047016A4
:1036D000F1C0740A8006B18FF1C07458F0902CCA02
:1036E0007403F0125D3D902CCCE0F46002E1889010
:1036F0002CCFE0FEA3E0FF64104E7006902CCC743B
:103700000EF0EF64204E7006902CCC740FF0EF6436
:10371000404E7006902CCC7410F0EF64804E700612
:10372000902CCC7411F0E4B5070AEEB40106902C8D
:10373000CC7412F0E4B5070AEEB40206902CCC74F7
:1037400013F0E4B5070AEEB40406902CCC7414F020
:10375000E4B5070AEEB40806902CCC7415F0E4B575
:10376000070AEEB41006902CCC7416F0E4B5070AE4
:10377000EEB42006902CCC7417F0E4B5070AEEB432
:103780004006902CCC7418F081FD75FF02E5E43002
:10379000E10675E40675E40322E51530E20FE51550
:1037A00020E50AE51530E0057F01122A9E2212234A
:1037B0000CE441A371857F0541A3EF4420F5FE226F
:1037C0007F10F1BA902CC722F18A7142EF6004F1A8
:1037D0009980F722E475F0010220B27B017D02029C
:1037E0001C5FF0902CC4E0FFF42290305EE014F0F7
:1037F000E022E4FF81B374FFF5F01220C845F02207
:1038000075FF028FD675FF02AF058FD77F01EF607E
:1038100003D2ED22C2ED22E475FF02AFD4CDEFCD8D
:1038200075FF02AFD5EFFCEDCEECCEFF2275FF02A7
:10383000EFF452D475FF02EDF452D522902F3312DB
:1038400023BB902F365131943F4003743FF075FFF6
:1038500002E5CD30E105E4F5468003754601E54615
:103860006036E5FD254704543FFFE5DD543F6F60BA
:1038700027902F3631DC5020902F331223B285470A
:103880008211C2AEFD7113543F248EF582EC3406D2
:10389000F583EFF0054780C6E5466008E5FD25475E
:1038A000543FF5FDAF4722903087EFF07B017A302F
:1038B00079877D01113C7F012211A7221223B21EBC
:1038C0008E82758300021F5F902EF63139E58F20BE
:1038D000E0FB3140E4FF902EF61223B28F8211C23A
:1038E000F5930FEFB410EFE4FF902EF91223B28F8F
:1038F0008211C2F5940FEFB410EF22902DD9313917
:10390000E58F20E0FB31407E10902DDC11BCF5935B
:10391000EE70F67E10902DD911BCF594EE70F67F06
:10392000013150714CEF70FB7E10902DDF1223B2ED
:103930001E8E82711EEE70F2221223BB75FF0122D1
:1039400075FF01538F0675FF01538FF075FF01223C
:10395000EFB40107713D4401F58F2275FF01E58F3A
:1039600054F04406F58F22902BA8122369902BACBB
:103970001223BBE4902BCFF0D3902BB0E0941E9099
:103980002BAFE094004001227B017A2B79B1902B80
:10399000AF7155902BA812230C123522902BAC122C
:1039A00023B2E94A600B902BCFE0F58211C2FF8071
:1039B000027F00902BCFE024B1F582E4342BF58315
:1039C000E06F6002C322902BCFE004FFF0D3902B76
:1039D000B0E09F902BAFE0940050C122E0FFE5479C
:1039E000C39F22902F3B1223BB902F3E5131943F17
:1039F0004003743FF075FF02E5CB2547543FFFE5D8
:103A0000DB543F6F601E902F3E31DC5017ADCB5121
:103A100087543F244EF582EE3406F583E0902F3B29
:103A2000518F80D4E547600625CB543FF5CBAF4797
:103A300022EDF0E4F547EDD322902F3F1223BB9007
:103A40002F425131941F4003741FF075FF02E5CCE3
:103A50002547541FFFE5DC541F6F601E902F423135
:103A6000DC5017ADCC5187541F24CEF582EE3406BE
:103A7000F583E0902F3F518F80D4E547600625CC39
:103A8000541FF5CCAF4722ED2547FF7E00EF22FF04
:103A90001223B2854782758300EF121FF305472278
:103AA000902F371223BB902F3AEDF075FF02E4F50B
:103AB00047EDD3941F4003741FF075FF02E5CD302E
:103AC000E205E4F5468003754601E5466036E5C942
:103AD000254704541FFFE5DE541F6F6027902F3ADF
:103AE00031DC5020902F371223B285478211C2AEAD
:103AF000C97113541F24EEF582EC3406F583EFF000
:103B0000054780C6E5466008E5C92547541FF5C945
:103B1000AF4722FFE547FDEE2DFD7C00ED227583CA
:103B200000E593021FF39030173139E4FF9030170E
:103B30001223B28F82711E0FEFB410F12275FF01B4
:103B4000E58F54F622713D4408F58F2275FF01E59B
:103B50008F5401FF22E0FFA3E0902D8FCFF0A3EF61
:103B6000F0227B017A3079587D0131E3903058E0C2
:103B7000FF22902E487189C007902E481223B290E0
:103B80002E4B125CC0D00721671223BBE4FCFD2240
:103B90007405F0902E417189C007902E411223B216
:103BA000902E44125C08D007023179902FB4E07552
:103BB000F005A42411F9742B35F0FEAF017B017AD6
:103BC0002B79D6902EB37405F0902EB07189C00772
:103BD000902EB01223B2902EB3125C5FD007023544
:103BE000221235D9121C23121CE1121C73900736C5
:103BF000E06401700281937FFF1219A890046D1296
:103C000023BB7E007F15B119BF540D7E007F16B116
:103C100019BFA5047F0180027F00900734EFF06494
:103C200001704390046D1223B2AE02B11F91FFFEEA
:103C3000A3E0FF90046D1223B2125CD9E92407F9C6
:103C4000E43AFA9004701223BBE92408F9E43AFE3E
:103C5000B11F91FF64057004A3E06422600812198B
:103C6000AD900734EFF0900734E070277E007F10AE
:103C7000C006C3741F9410FE74389400902E44F054
:103C8000A3CEF07B007A007900D006F17BE4FFFE42
:103C90001219B2121B3D121A98121A1630650575C8
:103CA0004C018039125B54121976124140FE4FFDCF
:103CB000A3E0FC4DFDA3E0FB4D600BEE5FFFEC5F6E
:103CC000FFEB5FF470031240EDE54C54032439F52B
:103CD00082E43407F583E0654C90072FF0E4902EE2
:103CE00030F0902E2EF0A3F002180775FF02E5DBEE
:103CF000543FFFE5CB543F6F7F0060027F0122F00D
:103D000071C9900473E022902790E075F016A42406
:103D1000E9F9741F35F0FEAF01E4FCFD0234BFAFDA
:103D2000017B017A047973902EB374022275FF022D
:103D300075E404E4F5E41218A21252EB900736EF92
:103D4000F0901200E0B47A14901214E0B49C0D903C
:103D50000736E0FF64056004EFB4032EE490073FEC
:103D6000F090073FE0FFC394805013E42FF582E406
:103D70003412F583E4F090073FE004F080E3901202
:103D800000747AF0901214749CF0121C69400312B3
:103D90001C647B017A1279107D017F01121C5F7B0C
:103DA000017A1279117D017F21121C5F7B017A1249
:103DB00079127D017F22121C5F7A1279177F02121D
:103DC0005CE9901217E0B401057F011257F6121C4E
:103DD000051252EB121C00900736EFF0121CE6128F
:103DE0001BF6900736E0FF121DFEEF24FFB392652D
:103DF00075FF0253E6BF124184121C0F71E120656A
:103E00000C1240487B017A2779E8121AAC7F011224
:103E10002A9ED2AF206502C198121C6E1219B712E9
:103E20001DF9121C5A40F2900735E06040121C3216
:103E3000EF7004F1B24036E51470FCE51520E5039F
:103E4000124E28121971EF70FAF1A05004F1C5500A
:103E5000057F011235A9900735E0B40204E4FF8024
:103E600009900735E0B403057F011253B2121C2DEF
:103E7000E51530E1A4F18B4002E4F0E51520E505FD
:103E8000F15D124AC1F1D9C0E0F16B900738E0FD55
:103E9000D0E0FF121CDC8081124161900735E060A8
:103EA00046201A03200940121C32EF7004F1B24080
:103EB00036E51470FCE51520E503124E2812197141
:103EC000EF70FAF1A05004F1C550057F011235A939
:103ED000900735E0B40204E4FF8009900735E0B4B0
:103EE00003057F011253B2900735E0600C201A09D8
:103EF000300906200203121A84121C6E1219B7121E
:103F00005202121DF4203405121C2D80221219CBEE
:103F100090072EE0FEEFC39E4005EF9EFF800890C5
:103F2000072EE0F4042FFF7406D39F5002C234E53D
:103F30001530E121F18B4002E4F0E51520E505F1B3
:103F40005D124AC1F1D9C0E0F16B900738E0FDD0B5
:103F5000E0FF121CDC121BD3124172C1989007378C
:103F6000E0FD75F0AA9007431223A6ED75F002A4B8
:103F70002430F9740735F0FA7B0122719374FFFD48
:103F8000FC22C2AFEFF45215D2AF227F02F1829031
:103F90000737E090073FF090073704F0C394022200
:103FA000900001740193B40007E493B41802C32293
:103FB000D322900741E0FEA3E0FF1219D0D3EF9483
:103FC000C8EE9400227F017E009017FCE4935EFE11
:103FD0007401935F4E24FFB32290073FE0FD75F01C
:103FE000AA9007431223A6AF82AE83EF2281EB741F
:103FF00004F0619375FF02E5DC541FFFE5CC541F0C
:104000006F7F0060027F012275FF0153CCFD43FBEF
:10401000401128759E0143FB0975FF03859E9E751F
:10402000FF03859E9E7F012275FF0243D20175FF2B
:1040300003221128E4F59E7F012275FF02AFD3EF22
:104040007F0030E6027F01229007407402F0900763
:1040500034E0FF121E039007407405F02275FF0242
:1040600075E40475E40175E4022275FF0275E40449
:10407000E4F5E422A24A9233229004D4EDF09004B5
:10408000D3EFF0BF0411A3E0FB7D017F0111B590D8
:1040900004D37403F0800B9004D4E0FB7D01E4FFB3
:1040A00011B59004D3E0900735F0D2091219CB90E6
:1040B0000741022A6CEB600875FF0153CDFD8006B5
:1040C00075FF0143CD02ED600553FBDF800343FB29
:1040D00020EF600775FF0243E1402275FF0253E1C4
:1040E000BF2275FF028FE322A24B923622E4FF1219
:1040F0002A9EEF603B3131122E795004313840F561
:104100007B017A07793B122E79500E31405FFFA375
:10411000E05FFFA3E05FF460E77F01122A9E754C29
:10412000017E007F083131902E44E4F0A3123FEF6E
:10413000227B017A07793922900739E0C394C022A3
:10414000900739E0FFA3E02290072FE064AA241132
:10415000FFF022AE073148EE04FEEF8EF084AFF0A0
:104160002230350D121A3EEF6007C25E121A2AC2C3
:10417000352290073D1231606009CAEECAC9EFC905
:104180001224EE2275FF02D2ADD2BD75FF02758EEC
:1041900071754D0975FF02E58E546F4480F58E9060
:1041A0002F431223750000000022C0E0C0F0C0833E
:1041B000C082C0D075D008C0FF75FF02E58E30E424
:1041C0003975FF02E58E54EF4410F58E902F43129F
:1041D000230C5133902F431223699000001237D4DF
:1041E000E54D30E0020539E54D700D754D09054985
:1041F000E549700205488002154D75FF02E58530DE
:10420000E40875FF024385100551D0FFD0D0D0825D
:10421000D083D0F0D0E032FF7E04FDFCE0F8A3E0D4
:10422000F9A3E0FAA3E0FB12216DE47B7DFAF9F833
:104230001221F8EF2401FFE43EFEE43DFDE43CFCE6
:1042400022902C1512236975FF0243E180F19BF146
:1042500057902C2A122375002DC6C0E4F5FFF5A453
:1042600090120EF0A3F0902C257402F0F1C6FFF529
:1042700095EF14601414601E2402702A902C1512FD
:104280002FD571AD902C218018902C19122FD5713B
:10429000AD902C22800B902C1D122FD571AD902C3F
:1042A00023E0902C2EF012579B902C2EE0700FF5EF
:1042B000FFF59675FF0175D70975F418805D9012AA
:1042C0000EE004F0902C25E0124F8B902C2A122F38
:1042D000D5FF902C26F1EDC31222BB500B902C265B
:1042E000122FD5FFA3122369902C2EE0FF12561C2B
:1042F000902C24E0FFA3E0FDA2549252125749A350
:10430000122FD5FF902F02122369902C25E0FF7108
:10431000B4902C25E0122FC8FFD11EF1DE600241BF
:104320006C7402F0F1C6F595E5F45407701A902C00
:104330002A511778011222CC902C25914AF583122C
:104340002369122FC7FFD11EF1DE70D875FF0375E8
:104350009580F1BE400343F420A254925312567B41
:10436000902C2A122FD52420FFEE344E5139E4FB35
:104370007A04F9F8512778011222CCC2511254283C
:10438000E4F5FFE5BD54F84404F5BD901213740143
:10439000F07E127F01E4FD8F828E83EF2D125DC8C7
:1043A000FC901213E02CF00DEDB412EB22FF902CD8
:1043B00026022369902F01EFF0E4A3511778011230
:1043C00022CC902F01914AF583122369901210E0BC
:1043D00064806075E0C3947F503BEB914CF583C0E3
:1043E00083C082122FD5FFEEC0E0EFC0E090121024
:1043F000E075F004A4AEF0FBCAEECAEA3395E0F92A
:10440000F8D0E0FFD0E0FEC3EF9BFFEE9AFEED99FF
:10441000FDEC98802C902F01E0914CF583C083C077
:1044200082F1ED901210E0F40475F004A4FFAEF0F8
:10443000EE3395E0FDFCEB2FFFEA3EFEE93DFDE8A3
:104440003CFCD082D08312236922E0FB25E025E0EA
:104450002401F582E4341222902E381255BB902E9E
:104460003E7401F0C255B1A0B1675005E5FC20E6ED
:10447000F7B172BF0108E4F5FC75FC408007B1722A
:10448000BF0202D32275FF0153D8EF902E39E0FF0F
:104490001257A875FF0153D5DF53FAFB902E38E071
:1044A000FF124B4F902E39E0902E38B4080AE012DC
:1044B0002FC8245251368005E0122FC8FFD11E901C
:1044C0002E3AE0FFF1E775FF0175FF03759B04B11C
:1044D000A075FC42E5FC20E104B16740F4902E3B5E
:1044E000E0F075FF03E59B20E704B16740F4E59B2E
:1044F00020E70C75FF03759B1FF19BD255804EB1D1
:10450000601253D0902E39E0FD90120FE05D701CC8
:10451000902E38E0FFB1601248E390120FE0FF9058
:104520002E39E0FEEF4E90120FF0718B12540C7B7F
:10453000017A2E793CF186500FC3902E3DE09420F5
:10454000902E3CE0940340E7B1601255C4F139303D
:104550005502815E902E3EE0B40103D38001C32258
:104560007B017A2E793E2275FF03E591C330E70186
:10457000D3227FFA7E00F114B1A6E5FC30E604B147
:104580006740F7E5FC30E6037F032275FF01E5D5C0
:1045900030E6037F0222E5D57F0030E7027F01226B
:1045A0007FE87E03B1F175FF034391802290305D77
:1045B000E5F4F0E0547FF5F47F827E00B1F1B1A61E
:1045C000B1675005E5FC20E6F730560890305DE015
:1045D0004480F5F4B1A0B1675005E5FC20E6F7751D
:1045E000FF01E5D520E702C322E5F4D330E601C39D
:1045F00022902F47125D627A2F7949F186501490EC
:104600002F49E0FEA3E0FF902F48E09F902F47E066
:104610009E400A902F47E0FEA3E0FFF11422902F66
:104620004B12236975FF01902F4BA3E0FDA3A3E478
:10463000FFFEE4FC78101222CC8FE1902F4BA3A355
:10464000E0FEA3E4FFE4FDFC78081222CC8FE290A8
:104650002F4BA3A3A3E0FF8FE322902F57EFF0A3EC
:1046600012540375FF01B172EF64016002C322E5C9
:10467000F430E602C3227FE87E03F114B1A6F142D2
:10468000400122C256B1AD902F57E0FF124B4F535D
:10469000F4DFD256B1AD7F787E00D1D675FF0153DD
:1046A000E4BFE5E430E7FB1252A47F8AF1D630E69E
:1046B00006122FE0E4800875FF01122FE0E5D91201
:1046C0001FE175FF0143E440F1BE400343F420F1D4
:1046D00042400122D322CDEFCDCCEECCF17AAB9487
:1046E000EF4BF1CECBEFCBFAE59130E719F17DA995
:1046F00094E9F582EF4582FFEB125D7AC3EF958274
:10470000E5F0958340E2E59120E708CEECCECFEDD1
:10471000CFF1352275FF03D3EF9402EE94004008E9
:1047200074FE2FFF74FF3EFEEFF592EE540FF591ED
:10473000227F147E00F114B1A675FF03E59120E7F6
:10474000FB22E5F730E50EE5F754C07004B1674091
:10475000F1F1B7C322D322F17053DB7F75FF0175EE
:10476000D502F131F17043DB8075FF01E4F5D5220C
:1047700075FF01438E1075FF012275FF03AF93EFA4
:1047800075F010A4FF22F17AAD94EF4DF1CE8FF0C9
:10479000122141E591C330E701D322E5FA30E1FB74
:1047A00075FC8075FF0153D5EFE4F5FC75FC40F115
:1047B000B7E5FC20E6FB2275FF03E4F59122901299
:1047C0000EE0D394012275FF03902C25E02224FBF8
:1047D000FFE5F034FF22FED1D690120FE022902C9C
:1047E00025E0FF14F0EF2275FF018FDA22E0F8A335
:1047F000E0F9A3E0FAA3E0FB22E4900409F09003BF
:10480000FB04F022122E7150071248125002800150
:10481000C322E5F754E024FF22AF14EFC36001D3B5
:1048200022EFC3940E50059003EBEFF022E51754EE
:104830000FFF22E517C394F0501F5317F0115CFED1
:10484000740FC39F4005EE940E400543170D80037F
:10485000EF4217E517540FFF227F0022E517C454DB
:104860000FFEEF9029A3932E22115CFFC3940E40FC
:10487000027F0DEF90298593FF22EF30E303AF1302
:1048800022AD1B203B04EE30E00BE517C394F05043
:104890002011B48018E5196006FDE4F5198012E5D1
:1048A00017C394F0500BE517540FFF60041169AD66
:1048B00007AF05229003EBE0FDFFC3740E11DCEFA0
:1048C000C4F8540FC868FFEEC454F048FEE517540E
:1048D000F0C3122D9D7F005002AF05229FFFE4948C
:1048E00000FE22902F53EDF0901211E0F46005A32A
:1048F000E0B4FF0C902F557418F0A37413F08010DF
:10490000901211E0902F55F0901212E0902F56F077
:10491000121F2264016002414C902F53E0FE640894
:104920006004EEB40408902F547428F08006902F91
:1049300054743AF0EF122FC8FF122297E4514DEF52
:1049400024D8FFEE343FFEED3493FDEC3416FC7BAF
:10495000007A807903780012185EF1B3902F56E048
:10496000FF902F55E0C311DCE4FCFD12216DECC07B
:10497000E0EDC0E0EEC0E0EFC0E0902F56E0FFE4D5
:10498000FCFDFE514DD0E0FBD0E0FAD0E0F9D0E0E4
:10499000F8EB2FFBEA3EFAE93DF9E83CF8902F549A
:1049A000E0FFE4FCFDFE12216DEF2454FFEE340B1A
:1049B000124239E47BA87A16F9F812185ECBEFCBD5
:1049C000902F53E014605D14601B24FE600C24FCE7
:1049D000707AE4F5FF75CE318006E4F5FF75CE21DF
:1049E000F5FF8BCF22E4FAE4F5FFEA2440F5CEE4AC
:1049F000F5FFEAFFC3740711DC744E2FF5827418BB
:104A00003EF583E45155C39DF5CFE4F5FFEA244814
:104A1000F5CEE4F5FFEA90184E51552DF5CF0AEA90
:104A2000B408C422E4F5FF75CE01F5FF8BCFF5FF86
:104A300075CE0EF5FFEB25E0F5CFE4F5FF75CE0F53
:104A4000F5FFCFEBCFEB75F003A4F5CF227B64FA33
:104A5000F9F802216D9325E0FDE433FCEB75F010CD
:104A6000A4FFAEF0122027CDEFCDEBFFE4C313EF90
:104A700013224315015315DF117AD1564004E4F592
:104A8000142243FA045315FB304C0451B7800A7FBB
:104A900055519B7F55519BD2EBD32275FF01E5D534
:104AA00020E602C322E5FA540360FA75FF018FC3C2
:104AB000D322714F43FA04E4F5FF53D1FD43D101F2
:104AC00022AF82AE837D0190048AEEF0A3EFF0A3C3
:104AD0001223BBE5147077122E695005C256124599
:104AE000AD90048AE0FEA3E08E11F512A31223B26A
:104AF0009003EC1223BBAE11AF127DAAB1FEE4F518
:104B0000FF75D908F510E5155421602AE51530E543
:104B100004E4FF714FE490048FF090048FE004F000
:104B2000D1A2EF600990048FE0C3941040EC7F02A3
:104B3000121E175315DE9003E8E07F00B403027FD6
:104B40000151B2D2561245ADD2EBA23A92ED227586
:104B5000FF01E5D530E602C322E4F5FF439A80EF7A
:104B6000F18BE4F5FF539A7FD322C2561245ADB1C3
:104B7000E6E5D120E0FBE4F5FF75D9089003E8E015
:104B80007F00B403027F0151B2D2561245ADE4F565
:104B90001022C0E0C0F0C083C082C0D075D008C071
:104BA000FF75FF01E5D530E6047F028009E5D57F7A
:104BB0000030E7027F018F18E51864026002816807
:104BC000E5141224C84BDE014BF1024C55084BFC96
:104BD000094C070A4C150B4C320C00004DA875FF10
:104BE0000175C355151AE51A6002A1A8751402A132
:104BF000A875FF0175C3F0751409A1A875FF0175AB
:104C0000C35575140AA1A875FF019003FCE0F5C314
:104C100075140BA1A875FF019003E9E0F5C37514A5
:104C200001751A1490040AF19C6002A1A875140C75
:104C3000A1A8AB1CAA1DA91EB1F2AD16AF1FF1A60B
:104C4000122DA675FF00F19343FA0475FF0051BAC7
:104C5000751408A1A8C2EB751400431504F1C040F7
:104C600002A1A81237D4A1A8E51864016002A1A886
:104C7000F17D4002A1A8E5107060B1DA1223B2E51F
:104C8000D9121FE1B1CEE09004DDF01257D21250DC
:104C9000919003E8EFF09004DDE0FFD39409500217
:104CA000A12A9003E8E0D39402400CEFD394AA7FAA
:104CB0000040027F01800D9004DDE0D394407F002E
:104CC00040027F01EF600280619004DDE0FFF51695
:104CD00075FF008FD9751003A1A8E5106403600269
:104CE000A1A8B1DAB1C3E5D9121FE175FF009003A5
:104CF000E8E0C39403E5D350055402FF8003540158
:104D0000FFEF602A30E111C39003F6E094FF9003B7
:104D1000F5E094FF5014800FC39003F8E094FF90E7
:104D200003F7E094FF50031237D4716A807AC256B9
:104D30001245AD75FF00B1E9E5D120E0FBC2EB43C0
:104D40001502B1BCA3E0FF90073AE0FEEF6EB1BBE5
:104D5000E0900739B1B5A3A3E090073BB1B5A3A399
:104D6000A3E0FE90073CE0FDEE6D4F6012C39003A0
:104D7000FAE094FF9003F9E094FF50031237D4C394
:104D80009003F4E094FF9003F3E094FF5003123794
:104D9000D47510009003E8E0B403071516B1CEE512
:104DA00016F0900738E516F0D0FFD0D0D082D0832F
:104DB000D0F0D0E032FEE0FDEE6D4FFF851282852F
:104DC0001183221223B2E92401F9E43AFA22E5120E
:104DD0002407F582E43511F5832275FF01F5EA75A4
:104DE000EAFF9003EC22E4F5FFE5D154FE4402F51E
:104DF000D122E4F5FFE9D11FEA540F42D622E4F5AF
:104E0000FF75D102E5D120E0FBE4F5D1F5FFEFD14C
:104E10001FEE540F42D6E4F5FFCFEDCF8FD422F52D
:104E2000D7E4F5FF53D6F022E5147028122E69500E
:104E300005C2561245AD12479B7F08121E17B1E6F8
:104E4000E5D120E0FB4315205315FEE4F510A23A0E
:104E500092EDD322C3229004C5EFF09003EAE0FF65
:104E6000F1D69004C6EFF09003EAE024FD6013044D
:104E700070089004C47404F0800E9004C47408F0A8
:104E800080069004C47402F07F01121E179004C6BD
:104E9000E09004C4F184E4902E3BF012445850EDAD
:104EA000D322E4902F4FF0A304F0E4902F52F0E5CA
:104EB000FA30E1FB75FF01E5D530E7037F0022E41E
:104EC000F5FF75E50875FF0153D8EFE5D530E61A13
:104ED00075FF01902F51E5DAF0E4F5DA75FF01E591
:104EE000D630E3FB902F527401F075FF03759B04DD
:104EF00075FC4175FF03E59B30E7FBE4FB75FF03A1
:104F00008B95122FC7FF12461E0BEBB403EF75FFF4
:104F100003759580E4F5FF758EC812540C75FF017A
:104F200053D5FB1247B712473175FF0143D50490A3
:104F30002F52E070081247B77FC81247337B017ABF
:104F40002F79501255C4902F50E0902F4F7006E0EB
:104F50004404FF8002E0FF902F4FEFF090120EE02C
:104F6000B4010675FF0143D81075FF01902F51E081
:104F7000F5DA902F4FE0FF22E4F514C128E5F7544D
:104F8000C024FF22FFE0FDA3E0FB2233333354F8BB
:104F9000F5F422E5D254804414F5D22274FFF5F0E2
:104FA0001220B245F022E4F5FF8FD4F5FFCFEDCF0C
:104FB0008FD522C8ECC8C9EDC9CAEECACBEFCB2247
:104FC000C39003F0E094FF9003EFE094FF22F1C060
:104FD00050031237D422EF24FD600680007E01804A
:104FE00002E4FEAF0622900740E0B4020D8F1B9052
:104FF0000487E0F513121C0AD322C3229004C112C5
:1050000023BB125036E51B121FE19004C1124DC3A1
:10501000E4121FE19004C11147113F1136E9114E0E
:10502000E513121FE11136113C1136E92405F9E4AC
:105030003AFAE4021FE19004C10223B2E92404F920
:10504000E43AFAE4021FE11223B2E9240222240323
:10505000F9E43AFA22E51754F0C4540F2FFFC39431
:105060001040027F0FEF90299393FF227E10EE6095
:10507000091EEE90299393B507F4EEC3940E4002F7
:105080007E0DEE90298593FF22C2AFEF4215D2AF7D
:1050900022EF24FE600C24FE600580007F01227F49
:1050A00002227F0322751401751A139003FCEFF09E
:1050B0009003EA7402F0ED90040A30E507E4F0A3EF
:1050C000743AF022E4F0A374E6F022C39003F2E015
:1050D00094FF9003F1E094FF50031237D422900420
:1050E0000AE0A3E0FF229004A11223BB9004A4EDE8
:1050F000F0E4A3F0ED54FE9004A4F0602BE4FF1262
:105100002A9EBF01239004A11223B2122E795018B7
:105110009004A231339004A5E02402F09004A5E0AD
:10512000FF9004A4E06F70DD7F01122A9E9004A519
:10513000E0FF22E475F0020220B27D0211E6EFC327
:105140006001D322E4FFFEFDFC9003FD3159900481
:10515000013159900405022369122369E4FFFEFD21
:10516000FC22EF316B12230C0222F225E025E02411
:10517000FDF582E43403F58322900739E0F4FFA3C0
:10518000E06FFFA3E06FFFA3E06FFF64556009EFDE
:10519000644A6004EFB40A010F9003E9EFF022A221
:1051A000EB924EC2EB7A0379EF7B017D0CE4FF12A8
:1051B000196CA24E92EB22A2EB924FC2EBEBC0E035
:1051C000EAC0E0E9C0E07B017A0379EF902E581243
:1051D00023BBD0E0F9D0E0FAD0E0FB7F0C121999A4
:1051E000A24F92EB22C003C002C0017B017A2E794C
:1051F0002C902E581223BBD001D002D0037F020284
:105200001999124572EF6401706351AE90301AEF34
:10521000F0D394025057902E30E0FF90301AE06F98
:10522000704B516E90301BEFF07B017A30791B7D13
:1052300001121CD790301AE0242CF582E4342EF5AC
:1052400083EFF0902E30E0045401F07020902E2E69
:10525000E07002A3E060167B017A2E792A31E57BAB
:10526000017A2E792A902E2E519A1224F222E4FFEE
:10527000E5F754C06002801675FF01E5D530E30DF7
:10528000519350F4518EEF60EF519350EB2251A4A3
:10529000AFD92275FF01E5E43322E0FEA3E0FFF57C
:1052A000828E832275FF01E4F5EA75EAFF22E5F4B8
:1052B0005418131313541FFF22902E2EEEF0A3EF59
:1052C000F022EF7011ED600775FF0143AE0122750A
:1052D000FF0153AEFE22EFB40110ED600775FF0130
:1052E00043AE022275FF0153AEFD2275FF02E5E6D3
:1052F00030E2037F0322E5E630E3037F0022E5E6A8
:1053000030E1037F0422E5E67F0530E0027F0122E1
:10531000EF600775FF0253E6BF2275FF0243E640C8
:1053200022EF14600F146014240270188B8075FF34
:10533000018DFD228B9075FF018DC9228BA075FF19
:10534000018DCA22AF038FB075FF01AF058FCB224D
:10535000902E321223BBEF14601414601E240270CE
:10536000277196E580719C1223B2E5FD8025719628
:10537000E590719C1223B2E5C980187196E5A07181
:105380009C1223B2E5CA800B7196E5B0719C122382
:10539000B2E5CB021FE1902E350223B2121FE17558
:1053A000FF01902E3222E4F5FFAF9122E4F5FFAF2A
:1053B000922243FB1075FF0243E640EF600D75FF3C
:1053C00002E5E120E7FB43FB0D800343FB0E80FE7B
:1053D000902FAB91037F017C127D01E4FE8D828CC6
:1053E00083ED2EF582E43CF583E02FFF0EEEB41240
:1053F000EC901213E06F600A902FAB122FE3E412CF
:105400001FE122EBF0A3EAF0A3E9F022E4F5FF7537
:10541000C2E17F1E1247D630E707E4F5FF75C2A14F
:1054200022E4F5FF75C28122902C79122369E4F5FC
:10543000FF75BB0575BB8575FF0175D50220510849
:105440007F3FFE124735910C75FF0143D520305147
:105450000281EAE4F5FF538EF7438E077D04E4F5FD
:10546000FF8DBCF5FF43B102E5B130E2FBE4F5FF8F
:10547000AFDFEFFEACDEECFBEBFFED25E02477F5D4
:1054800082E4342CF583B111F5FFF5FF53B1FD0D26
:10549000EDB40CCA902C79122FD5FF78091222CCCA
:1054A000A3B111FDED25E02481F582E4342CF583D0
:1054B000E0C313FAA3E013FBB104B11F2BFFEE3AD4
:1054C000FEB104EEF0A3EFF0ED240490120DF0ED28
:1054D000C394075015CFEDCF0DEFB105B118902C47
:1054E0007EE09F902C7DE09E50BAE4F5FF758EC85B
:1054F000F5FF90120DE0F5BCE4F5FF75BB8075FF7C
:1055000001F5D522ED25E0247FF582E4342CF583E6
:1055100022EEF0A3EFF0E422E0FEA3E0FFC322E0DE
:10552000C313FEA3E01322902F5BB1B8B1A1AC006E
:10553000AD01AE02AF03C006C007902F5BB11FFBE9
:10554000AA06E4F9F8D007D006D31222A57E0050AF
:10555000047F0180027F00C006C007B1A1D0E02F08
:10556000FFD0E03E902F5BF0A3EFF053ECFC902FC8
:105570005BE0FCA3E0FDEC540342EC75FF02EDF5AB
:10558000AF75ED0275ED04A3E0600543EC08800300
:1055900053ECF7902F5EE0600443EC042253ECFBE5
:1055A00022902F5BE0FEA3E0FBAA06E4F9F87F80DF
:1055B0007E387D01FC02185EEEF0A3EFF0A3EDF063
:1055C000A3EBF022C25075FF03759B1F75FF03907C
:1055D000120FE020E71BE59A540FC394024012E03B
:1055E0004480F0E4F5FF75C2A143FC0475FF03D2CB
:1055F00050E5FC30E609E59A540FC3940540CDE52B
:10560000FC30E611E4121FE175FC80F5FC75FC40EE
:10561000E5FC20E6FB30500312438B22EF30E00E16
:1056200043F401E4F5FF43A404F5FF759624EF303D
:10563000E10E43F401E4F5FF43A408F5FF75962459
:10564000EF30E20943F402E4F5FF75961EEF30E314
:105650000943F404E4F5FF75961075FF01EF540358
:10566000600475D7122275D72D22E4F5FF7584E604
:10567000F5FF439404F5FF75981422E4F5FF759344
:105680003F75FF03759A40D16AE4F5FF759C93F569
:10569000FF75A1A3F5FF758531F5FF758628E5FA3D
:1056A00054304480F5FA75FF0175E74A75FF0275BD
:1056B000DF4975FF0143D30475FF0153D367E4F558
:1056C000FF53E6BF75FF0175D825F5FF75B503F5E6
:1056D000FF75B215F5FF75BA02F5FF75AFB3F5FFAB
:1056E00075CD0AF5FF75CB08F5FF75CA12F5FF7584
:1056F000BF0EF5FF75CC96F5FFF5BDF5FF75C281C0
:10570000F5FF75AEE1F5FF75DA55F5FF75F580F536
:10571000FF75E903F5FF75E933F5FF75972A75FF06
:1057200001759B42759CA4759D29759E48759F24A3
:1057300075A11275A312759AF820530CF5FF4396C4
:105740008090120FE04440F022CCEFCCCFEDCF742C
:10575000017E00C8EFC8088005C333CE33CED8F928
:10576000FFCDECCDEF5D601B30521875FF0175DC8D
:10577000AD75FF0175DDCDE4F5FF759A74F5FF7524
:1057800094842275FF0175DC5375FF0175DD33E4E8
:10579000F5FF759A14F5FF7594042275FF0175E401
:1057A0006575FF0175D6472275FF01E5D530E60224
:1057B000C32253FACFEFB4080543FA308012EFB496
:1057C000040543FA208009EFB4020543FA10800073
:1057D000D322E5F75406FFBF06037F0822E5F754FE
:1057E00006FFBF04037F0422E5F75406FFBF020350
:1057F0007F02227F0122EF600775FF0243E610223D
:1058000075FF0253E6EF2275ED042275ED0222E5E5
:10581000ED30E2FB75ED04AFEF22AFEF228FEF2208
:10582000E5ED20E0FB8FEF22EF600443EC04225310
:10583000ECFB22EF600443EC082253ECF722E5ED89
:105840005402FF22E5ED5404FF22E5ED5401FF224E
:10585000902CC6E0121FE1902CCBE0900001121FAB
:10586000F3902CCCE0900002021FF3AB05E4FCFDAA
:10587000902F0FEBF0023462902CC8E0FF22E490EE
:105880002CC8F022E4F5FFEFF5D8E4F5FF53D60F6E
:10589000EE540FC4F854F0C8E4C4540F4842D62262
:1058A000E4F5FF8FD422E4F5FFE5D154013333331F
:1058B00054F8FFE4F5FFE5D354074FFF22EFB4019E
:1058C00009D2AD75FF0143AE4022C2AD75FF015351
:1058D000AEBF2275C80122E5C85402FF75C8022276
:1058E000E5C85404FF22E5C85401FF22EF6004908C
:1058F0002DD5F09003CDE0FF9003BD1223B2121915
:10590000E99003CDEFF0604D201E4A902DD3E0C307
:1059100030E501D39222902DD6316A1223BB902D0F
:10592000D4E090044DF0902DD2E090044EF0A3749A
:1059300058F0A374ECF09003CDE0FB3171EF7029C7
:10594000902DD57402F0902DD0E0FEA3E0F5828E6C
:10595000837F028011902DD5E0FF902DD0E0FCA335
:10596000E0FDF5828C831224F2221223B290044AC5
:1059700022AD4CE4FF021CAF902CD3EFF0A3122316
:10598000BB902CDE7403F0902CDBE05437F0E0FE8B
:105990005420902DD3F0902CDCE0FDA3E0902DD08E
:1059A000CDF0A3EDF05192902DD61223BB902CDABE
:1059B000E0902DD4F0902CD41223B29003BD12238A
:1059C000BBEE4420902DD2F0E4902DD5F0C21EF510
:1059D00043902CD41223B2AF431219E98F43EF60E6
:1059E0002A7D03121BB040E9902CDAE0D3941940D1
:1059F000037F0022AF43121BAB5008902CDE7401D2
:105A0000F08008902CDE7402F080C6902CDAE0D38F
:105A1000948240037F00227F02121C28902CDF1208
:105A200023BBEA494B605A902CD3E0FF902CDF1245
:105A300023B251A1EF121FE1902CDBE0FE30E01BFE
:105A4000E49003CDF05198EE6401A3F0A37458F0F4
:105A500074EC5184902CDEE0FF801E902CDEE0FF81
:105A60005198902CDBE0900433F0902DD0E0FDA312
:105A7000E0900434CDF0ED51847D02121CA57F012D
:105A8000227F0022A3F0902CDF1223B29004361262
:105A900023BB902CD70223B2902CDAE0900432F092
:105AA00022E924B6F9E43AFA22C003C002C0019008
:105AB0002D781223B2902CD71223BB902D7BE0902F
:105AC0002CDAF0902D7CE0902CDBF0902D7DE0FF27
:105AD000A3E0902CDCCFF0A3EFF0D001D002D003F4
:105AE000AF4C2178021A02E4FF3033037402FF2224
:105AF000200005D215021AE8C322903088E0701CFD
:105B00007BFF7A2879D47D23121C467BFF7A287983
:105B1000BD7D17121C469030887401F022021C4B88
:105B200075FF01E58F5408FF22EFB4010775FF01EF
:105B300043AE202275FF0153AEDF22EFB40107759B
:105B4000FF014391202275FF015391DF22902C70B9
:105B5000E0540F227B007A00794C902EB71223BBC1
:105B60000B7A07793922902D301223B2902D35E02F
:105B7000FFA3E0902D86CFF0A3EFF0902D2C122301
:105B80000C123234902D35E0FEA3E0FFC3902D348B
:105B9000E09FF0902D33E09EF0902D2C122328E40E
:105BA000FCFD122160902D2C122369902D3022E9EA
:105BB000240BF9E43AFA22F9E43AFAEE8FF00221E2
:105BC00041FF1223B2E92406F9E43AFA22EFF0A3E6
:105BD000EDF0A30223BBFDEF4DFFE5F08FF00221B6
:105BE00041FF1223B2EF021FE12408F9E43AFA223E
:105BF000121FE19026E70223B22407F9E43AFA22C1
:105C0000F0A3F0A3F0A3F022E0FFA3E0902D33CFA8
:105C1000F0A3EFF0228F828E837F060224F2902C75
:105C2000CEE024FFFF902CCDE034FFFEE4FCFD220B
:105C3000D2217B017A0379B722E4121FE10429F90A
:105C4000E43AFA22240AF9E43CFA021F223AFAE979
